{"abi":[{"inputs":[{"internalType":"uint256","name":"minimum","type":"uint256"},{"internalType":"uint256","name":"reachGoal","type":"uint256"},{"internalType":"string","name":"name","type":"string"},{"internalType":"string","name":"shortDescription","type":"string"},{"internalType":"string","name":"description","type":"string"},{"internalType":"string","name":"imageURL","type":"string"},{"internalType":"enum Idea.Category","name":"category","type":"uint8"},{"internalType":"bool","name":"isDonation","type":"bool"}],"name":"createIdea","outputs":[],"stateMutability":"nonpayable","type":"function"},{"inputs":[{"internalType":"uint256","name":"","type":"uint256"}],"name":"deployedIdeas","outputs":[{"internalType":"contract Idea","name":"","type":"address"}],"stateMutability":"view","type":"function"},{"inputs":[],"name":"getDeployedIdeas","outputs":[{"internalType":"contract Idea[]","name":"","type":"address[]"}],"stateMutability":"view","type":"function"}],"devdoc":{"kind":"dev","methods":{},"version":1},"evm":{"assembly":"    /* \"Idea.sol\":25:820  contract IdeaFactory {... */\n  mstore(0x40, 0x80)\n  callvalue\n  dup1\n  iszero\n  tag_1\n  jumpi\n  0x00\n  dup1\n  revert\ntag_1:\n  pop\n  dataSize(sub_0)\n  dup1\n  dataOffset(sub_0)\n  0x00\n  codecopy\n  0x00\n  return\nstop\n\nsub_0: assembly {\n        /* \"Idea.sol\":25:820  contract IdeaFactory {... */\n      mstore(0x40, 0x80)\n      callvalue\n      dup1\n      iszero\n      tag_1\n      jumpi\n      0x00\n      dup1\n      revert\n    tag_1:\n      pop\n      jumpi(tag_2, lt(calldatasize, 0x04))\n      shr(0xe0, calldataload(0x00))\n      dup1\n      0x855b6e9e\n      eq\n      tag_3\n      jumpi\n      dup1\n      0xe4293559\n      eq\n      tag_4\n      jumpi\n      dup1\n      0xf739bf4d\n      eq\n      tag_5\n      jumpi\n    tag_2:\n      0x00\n      dup1\n      revert\n        /* \"Idea.sol\":86:711  function createIdea(... */\n    tag_3:\n      tag_6\n      0x04\n      dup1\n      calldatasize\n      sub\n      dup2\n      add\n      swap1\n      tag_7\n      swap2\n      swap1\n      tag_8\n      jump\t// in\n    tag_7:\n      tag_9\n      jump\t// in\n    tag_6:\n      stop\n        /* \"Idea.sol\":717:818  function getDeployedIdeas() public view returns (Idea[] memory) {... */\n    tag_4:\n      tag_10\n      tag_11\n      jump\t// in\n    tag_10:\n      mload(0x40)\n      tag_12\n      swap2\n      swap1\n      tag_13\n      jump\t// in\n    tag_12:\n      mload(0x40)\n      dup1\n      swap2\n      sub\n      swap1\n      return\n        /* \"Idea.sol\":52:79  Idea[] public deployedIdeas */\n    tag_5:\n      tag_14\n      0x04\n      dup1\n      calldatasize\n      sub\n      dup2\n      add\n      swap1\n      tag_15\n      swap2\n      swap1\n      tag_16\n      jump\t// in\n    tag_15:\n      tag_17\n      jump\t// in\n    tag_14:\n      mload(0x40)\n      tag_18\n      swap2\n      swap1\n      tag_19\n      jump\t// in\n    tag_18:\n      mload(0x40)\n      dup1\n      swap2\n      sub\n      swap1\n      return\n        /* \"Idea.sol\":86:711  function createIdea(... */\n    tag_9:\n        /* \"Idea.sol\":373:385  Idea newIdea */\n      0x00\n        /* \"Idea.sol\":426:433  minimum */\n      dup9\n        /* \"Idea.sol\":451:460  reachGoal */\n      dup9\n        /* \"Idea.sol\":478:482  name */\n      dup9\n        /* \"Idea.sol\":500:516  shortDescription */\n      dup9\n        /* \"Idea.sol\":534:545  description */\n      dup9\n        /* \"Idea.sol\":563:571  imageURL */\n      dup9\n        /* \"Idea.sol\":589:597  category */\n      dup9\n        /* \"Idea.sol\":615:625  isDonation */\n      dup9\n        /* \"Idea.sol\":643:653  msg.sender */\n      caller\n        /* \"Idea.sol\":400:667  new Idea(... */\n      mload(0x40)\n      tag_21\n      swap1\n      tag_22\n      jump\t// in\n    tag_21:\n      tag_23\n      swap10\n      swap9\n      swap8\n      swap7\n      swap6\n      swap5\n      swap4\n      swap3\n      swap2\n      swap1\n      tag_24\n      jump\t// in\n    tag_23:\n      mload(0x40)\n      dup1\n      swap2\n      sub\n      swap1\n      0x00\n      create\n      dup1\n      iszero\n      dup1\n      iszero\n      tag_25\n      jumpi\n      returndatasize\n      0x00\n      dup1\n      returndatacopy\n      revert(0x00, returndatasize)\n    tag_25:\n      pop\n        /* \"Idea.sol\":373:667  Idea newIdea =... */\n      swap1\n      pop\n        /* \"Idea.sol\":677:690  deployedIdeas */\n      0x00\n        /* \"Idea.sol\":696:703  newIdea */\n      dup2\n        /* \"Idea.sol\":677:704  deployedIdeas.push(newIdea) */\n      swap1\n      dup1\n      0x01\n      dup2\n      sload\n      add\n      dup1\n      dup3\n      sstore\n      dup1\n      swap2\n      pop\n      pop\n      0x01\n      swap1\n      sub\n      swap1\n      0x00\n      mstore\n      keccak256(0x00, 0x20)\n      add\n      0x00\n      swap1\n      swap2\n      swap1\n      swap2\n      swap1\n      swap2\n      0x0100\n      exp\n      dup2\n      sload\n      dup2\n      0xffffffffffffffffffffffffffffffffffffffff\n      mul\n      not\n      and\n      swap1\n      dup4\n      0xffffffffffffffffffffffffffffffffffffffff\n      and\n      mul\n      or\n      swap1\n      sstore\n      pop\n        /* \"Idea.sol\":86:711  function createIdea(... */\n      pop\n      pop\n      pop\n      pop\n      pop\n      pop\n      pop\n      pop\n      pop\n      jump\t// out\n        /* \"Idea.sol\":717:818  function getDeployedIdeas() public view returns (Idea[] memory) {... */\n    tag_11:\n        /* \"Idea.sol\":766:779  Idea[] memory */\n      0x60\n        /* \"Idea.sol\":798:811  deployedIdeas */\n      0x00\n        /* \"Idea.sol\":791:811  return deployedIdeas */\n      dup1\n      sload\n      dup1\n      0x20\n      mul\n      0x20\n      add\n      mload(0x40)\n      swap1\n      dup2\n      add\n      0x40\n      mstore\n      dup1\n      swap3\n      swap2\n      swap1\n      dup2\n      dup2\n      mstore\n      0x20\n      add\n      dup3\n      dup1\n      sload\n      dup1\n      iszero\n      tag_28\n      jumpi\n      0x20\n      mul\n      dup3\n      add\n      swap2\n      swap1\n      0x00\n      mstore\n      keccak256(0x00, 0x20)\n      swap1\n    tag_29:\n      dup2\n      0x00\n      swap1\n      sload\n      swap1\n      0x0100\n      exp\n      swap1\n      div\n      0xffffffffffffffffffffffffffffffffffffffff\n      and\n      0xffffffffffffffffffffffffffffffffffffffff\n      and\n      dup2\n      mstore\n      0x20\n      add\n      swap1\n      0x01\n      add\n      swap1\n      dup1\n      dup4\n      gt\n      tag_29\n      jumpi\n    tag_28:\n      pop\n      pop\n      pop\n      pop\n      pop\n      swap1\n      pop\n        /* \"Idea.sol\":717:818  function getDeployedIdeas() public view returns (Idea[] memory) {... */\n      swap1\n      jump\t// out\n        /* \"Idea.sol\":52:79  Idea[] public deployedIdeas */\n    tag_17:\n      0x00\n      dup2\n      dup2\n      sload\n      dup2\n      lt\n      tag_30\n      jumpi\n      0x00\n      dup1\n      revert\n    tag_30:\n      swap1\n      0x00\n      mstore\n      keccak256(0x00, 0x20)\n      add\n      0x00\n      swap2\n      pop\n      sload\n      swap1\n      0x0100\n      exp\n      swap1\n      div\n      0xffffffffffffffffffffffffffffffffffffffff\n      and\n      dup2\n      jump\t// out\n    tag_22:\n      dataSize(sub_0)\n      dup1\n      dataOffset(sub_0)\n      dup4\n      codecopy\n      add\n      swap1\n      jump\t// out\n        /* \"#utility.yul\":7:352   */\n    tag_33:\n      0x00\n        /* \"#utility.yul\":110:176   */\n      tag_35\n        /* \"#utility.yul\":126:175   */\n      tag_36\n        /* \"#utility.yul\":168:174   */\n      dup5\n        /* \"#utility.yul\":126:175   */\n      tag_37\n      jump\t// in\n    tag_36:\n        /* \"#utility.yul\":110:176   */\n      tag_38\n      jump\t// in\n    tag_35:\n        /* \"#utility.yul\":101:176   */\n      swap1\n      pop\n        /* \"#utility.yul\":199:205   */\n      dup3\n        /* \"#utility.yul\":192:197   */\n      dup2\n        /* \"#utility.yul\":185:206   */\n      mstore\n        /* \"#utility.yul\":237:241   */\n      0x20\n        /* \"#utility.yul\":230:235   */\n      dup2\n        /* \"#utility.yul\":226:242   */\n      add\n        /* \"#utility.yul\":275:278   */\n      dup5\n        /* \"#utility.yul\":266:272   */\n      dup5\n        /* \"#utility.yul\":261:264   */\n      dup5\n        /* \"#utility.yul\":257:273   */\n      add\n        /* \"#utility.yul\":254:279   */\n      gt\n        /* \"#utility.yul\":251:253   */\n      iszero\n      tag_39\n      jumpi\n        /* \"#utility.yul\":292:293   */\n      0x00\n        /* \"#utility.yul\":289:290   */\n      dup1\n        /* \"#utility.yul\":282:294   */\n      revert\n        /* \"#utility.yul\":251:253   */\n    tag_39:\n        /* \"#utility.yul\":305:346   */\n      tag_40\n        /* \"#utility.yul\":339:345   */\n      dup5\n        /* \"#utility.yul\":334:337   */\n      dup3\n        /* \"#utility.yul\":329:332   */\n      dup6\n        /* \"#utility.yul\":305:346   */\n      tag_41\n      jump\t// in\n    tag_40:\n        /* \"#utility.yul\":91:352   */\n      pop\n      swap4\n      swap3\n      pop\n      pop\n      pop\n      jump\t// out\n        /* \"#utility.yul\":358:491   */\n    tag_42:\n      0x00\n        /* \"#utility.yul\":439:445   */\n      dup2\n        /* \"#utility.yul\":426:446   */\n      calldataload\n        /* \"#utility.yul\":417:446   */\n      swap1\n      pop\n        /* \"#utility.yul\":455:485   */\n      tag_44\n        /* \"#utility.yul\":479:484   */\n      dup2\n        /* \"#utility.yul\":455:485   */\n      tag_45\n      jump\t// in\n    tag_44:\n        /* \"#utility.yul\":407:491   */\n      swap3\n      swap2\n      pop\n      pop\n      jump\t// out\n        /* \"#utility.yul\":497:658   */\n    tag_46:\n      0x00\n        /* \"#utility.yul\":592:598   */\n      dup2\n        /* \"#utility.yul\":579:599   */\n      calldataload\n        /* \"#utility.yul\":570:599   */\n      swap1\n      pop\n        /* \"#utility.yul\":608:652   */\n      tag_48\n        /* \"#utility.yul\":646:651   */\n      dup2\n        /* \"#utility.yul\":608:652   */\n      tag_49\n      jump\t// in\n    tag_48:\n        /* \"#utility.yul\":560:658   */\n      swap3\n      swap2\n      pop\n      pop\n      jump\t// out\n        /* \"#utility.yul\":678:951   */\n    tag_50:\n      0x00\n        /* \"#utility.yul\":783:786   */\n      dup3\n        /* \"#utility.yul\":776:780   */\n      0x1f\n        /* \"#utility.yul\":768:774   */\n      dup4\n        /* \"#utility.yul\":764:781   */\n      add\n        /* \"#utility.yul\":760:787   */\n      slt\n        /* \"#utility.yul\":750:752   */\n      tag_52\n      jumpi\n        /* \"#utility.yul\":801:802   */\n      0x00\n        /* \"#utility.yul\":798:799   */\n      dup1\n        /* \"#utility.yul\":791:803   */\n      revert\n        /* \"#utility.yul\":750:752   */\n    tag_52:\n        /* \"#utility.yul\":841:847   */\n      dup2\n        /* \"#utility.yul\":828:848   */\n      calldataload\n        /* \"#utility.yul\":866:945   */\n      tag_53\n        /* \"#utility.yul\":941:944   */\n      dup5\n        /* \"#utility.yul\":933:939   */\n      dup3\n        /* \"#utility.yul\":926:930   */\n      0x20\n        /* \"#utility.yul\":918:924   */\n      dup7\n        /* \"#utility.yul\":914:931   */\n      add\n        /* \"#utility.yul\":866:945   */\n      tag_33\n      jump\t// in\n    tag_53:\n        /* \"#utility.yul\":857:945   */\n      swap2\n      pop\n        /* \"#utility.yul\":740:951   */\n      pop\n      swap3\n      swap2\n      pop\n      pop\n      jump\t// out\n        /* \"#utility.yul\":957:1096   */\n    tag_54:\n      0x00\n        /* \"#utility.yul\":1041:1047   */\n      dup2\n        /* \"#utility.yul\":1028:1048   */\n      calldataload\n        /* \"#utility.yul\":1019:1048   */\n      swap1\n      pop\n        /* \"#utility.yul\":1057:1090   */\n      tag_56\n        /* \"#utility.yul\":1084:1089   */\n      dup2\n        /* \"#utility.yul\":1057:1090   */\n      tag_57\n      jump\t// in\n    tag_56:\n        /* \"#utility.yul\":1009:1096   */\n      swap3\n      swap2\n      pop\n      pop\n      jump\t// out\n        /* \"#utility.yul\":1102:1364   */\n    tag_16:\n      0x00\n        /* \"#utility.yul\":1210:1212   */\n      0x20\n        /* \"#utility.yul\":1198:1207   */\n      dup3\n        /* \"#utility.yul\":1189:1196   */\n      dup5\n        /* \"#utility.yul\":1185:1208   */\n      sub\n        /* \"#utility.yul\":1181:1213   */\n      slt\n        /* \"#utility.yul\":1178:1180   */\n      iszero\n      tag_59\n      jumpi\n        /* \"#utility.yul\":1226:1227   */\n      0x00\n        /* \"#utility.yul\":1223:1224   */\n      dup1\n        /* \"#utility.yul\":1216:1228   */\n      revert\n        /* \"#utility.yul\":1178:1180   */\n    tag_59:\n        /* \"#utility.yul\":1269:1270   */\n      0x00\n        /* \"#utility.yul\":1294:1347   */\n      tag_60\n        /* \"#utility.yul\":1339:1346   */\n      dup5\n        /* \"#utility.yul\":1330:1336   */\n      dup3\n        /* \"#utility.yul\":1319:1328   */\n      dup6\n        /* \"#utility.yul\":1315:1337   */\n      add\n        /* \"#utility.yul\":1294:1347   */\n      tag_54\n      jump\t// in\n    tag_60:\n        /* \"#utility.yul\":1284:1347   */\n      swap2\n      pop\n        /* \"#utility.yul\":1240:1357   */\n      pop\n        /* \"#utility.yul\":1168:1364   */\n      swap3\n      swap2\n      pop\n      pop\n      jump\t// out\n        /* \"#utility.yul\":1370:3120   */\n    tag_8:\n      0x00\n      dup1\n      0x00\n      dup1\n      0x00\n      dup1\n      0x00\n      dup1\n        /* \"#utility.yul\":1645:1648   */\n      0x0100\n        /* \"#utility.yul\":1633:1642   */\n      dup10\n        /* \"#utility.yul\":1624:1631   */\n      dup12\n        /* \"#utility.yul\":1620:1643   */\n      sub\n        /* \"#utility.yul\":1616:1649   */\n      slt\n        /* \"#utility.yul\":1613:1615   */\n      iszero\n      tag_62\n      jumpi\n        /* \"#utility.yul\":1662:1663   */\n      0x00\n        /* \"#utility.yul\":1659:1660   */\n      dup1\n        /* \"#utility.yul\":1652:1664   */\n      revert\n        /* \"#utility.yul\":1613:1615   */\n    tag_62:\n        /* \"#utility.yul\":1705:1706   */\n      0x00\n        /* \"#utility.yul\":1730:1783   */\n      tag_63\n        /* \"#utility.yul\":1775:1782   */\n      dup12\n        /* \"#utility.yul\":1766:1772   */\n      dup3\n        /* \"#utility.yul\":1755:1764   */\n      dup13\n        /* \"#utility.yul\":1751:1773   */\n      add\n        /* \"#utility.yul\":1730:1783   */\n      tag_54\n      jump\t// in\n    tag_63:\n        /* \"#utility.yul\":1720:1783   */\n      swap9\n      pop\n        /* \"#utility.yul\":1676:1793   */\n      pop\n        /* \"#utility.yul\":1832:1834   */\n      0x20\n        /* \"#utility.yul\":1858:1911   */\n      tag_64\n        /* \"#utility.yul\":1903:1910   */\n      dup12\n        /* \"#utility.yul\":1894:1900   */\n      dup3\n        /* \"#utility.yul\":1883:1892   */\n      dup13\n        /* \"#utility.yul\":1879:1901   */\n      add\n        /* \"#utility.yul\":1858:1911   */\n      tag_54\n      jump\t// in\n    tag_64:\n        /* \"#utility.yul\":1848:1911   */\n      swap8\n      pop\n        /* \"#utility.yul\":1803:1921   */\n      pop\n        /* \"#utility.yul\":1988:1990   */\n      0x40\n        /* \"#utility.yul\":1977:1986   */\n      dup10\n        /* \"#utility.yul\":1973:1991   */\n      add\n        /* \"#utility.yul\":1960:1992   */\n      calldataload\n        /* \"#utility.yul\":2019:2037   */\n      0xffffffffffffffff\n        /* \"#utility.yul\":2011:2017   */\n      dup2\n        /* \"#utility.yul\":2008:2038   */\n      gt\n        /* \"#utility.yul\":2005:2007   */\n      iszero\n      tag_65\n      jumpi\n        /* \"#utility.yul\":2051:2052   */\n      0x00\n        /* \"#utility.yul\":2048:2049   */\n      dup1\n        /* \"#utility.yul\":2041:2053   */\n      revert\n        /* \"#utility.yul\":2005:2007   */\n    tag_65:\n        /* \"#utility.yul\":2079:2142   */\n      tag_66\n        /* \"#utility.yul\":2134:2141   */\n      dup12\n        /* \"#utility.yul\":2125:2131   */\n      dup3\n        /* \"#utility.yul\":2114:2123   */\n      dup13\n        /* \"#utility.yul\":2110:2132   */\n      add\n        /* \"#utility.yul\":2079:2142   */\n      tag_50\n      jump\t// in\n    tag_66:\n        /* \"#utility.yul\":2069:2142   */\n      swap7\n      pop\n        /* \"#utility.yul\":1931:2152   */\n      pop\n        /* \"#utility.yul\":2219:2221   */\n      0x60\n        /* \"#utility.yul\":2208:2217   */\n      dup10\n        /* \"#utility.yul\":2204:2222   */\n      add\n        /* \"#utility.yul\":2191:2223   */\n      calldataload\n        /* \"#utility.yul\":2250:2268   */\n      0xffffffffffffffff\n        /* \"#utility.yul\":2242:2248   */\n      dup2\n        /* \"#utility.yul\":2239:2269   */\n      gt\n        /* \"#utility.yul\":2236:2238   */\n      iszero\n      tag_67\n      jumpi\n        /* \"#utility.yul\":2282:2283   */\n      0x00\n        /* \"#utility.yul\":2279:2280   */\n      dup1\n        /* \"#utility.yul\":2272:2284   */\n      revert\n        /* \"#utility.yul\":2236:2238   */\n    tag_67:\n        /* \"#utility.yul\":2310:2373   */\n      tag_68\n        /* \"#utility.yul\":2365:2372   */\n      dup12\n        /* \"#utility.yul\":2356:2362   */\n      dup3\n        /* \"#utility.yul\":2345:2354   */\n      dup13\n        /* \"#utility.yul\":2341:2363   */\n      add\n        /* \"#utility.yul\":2310:2373   */\n      tag_50\n      jump\t// in\n    tag_68:\n        /* \"#utility.yul\":2300:2373   */\n      swap6\n      pop\n        /* \"#utility.yul\":2162:2383   */\n      pop\n        /* \"#utility.yul\":2450:2453   */\n      0x80\n        /* \"#utility.yul\":2439:2448   */\n      dup10\n        /* \"#utility.yul\":2435:2454   */\n      add\n        /* \"#utility.yul\":2422:2455   */\n      calldataload\n        /* \"#utility.yul\":2482:2500   */\n      0xffffffffffffffff\n        /* \"#utility.yul\":2474:2480   */\n      dup2\n        /* \"#utility.yul\":2471:2501   */\n      gt\n        /* \"#utility.yul\":2468:2470   */\n      iszero\n      tag_69\n      jumpi\n        /* \"#utility.yul\":2514:2515   */\n      0x00\n        /* \"#utility.yul\":2511:2512   */\n      dup1\n        /* \"#utility.yul\":2504:2516   */\n      revert\n        /* \"#utility.yul\":2468:2470   */\n    tag_69:\n        /* \"#utility.yul\":2542:2605   */\n      tag_70\n        /* \"#utility.yul\":2597:2604   */\n      dup12\n        /* \"#utility.yul\":2588:2594   */\n      dup3\n        /* \"#utility.yul\":2577:2586   */\n      dup13\n        /* \"#utility.yul\":2573:2595   */\n      add\n        /* \"#utility.yul\":2542:2605   */\n      tag_50\n      jump\t// in\n    tag_70:\n        /* \"#utility.yul\":2532:2605   */\n      swap5\n      pop\n        /* \"#utility.yul\":2393:2615   */\n      pop\n        /* \"#utility.yul\":2682:2685   */\n      0xa0\n        /* \"#utility.yul\":2671:2680   */\n      dup10\n        /* \"#utility.yul\":2667:2686   */\n      add\n        /* \"#utility.yul\":2654:2687   */\n      calldataload\n        /* \"#utility.yul\":2714:2732   */\n      0xffffffffffffffff\n        /* \"#utility.yul\":2706:2712   */\n      dup2\n        /* \"#utility.yul\":2703:2733   */\n      gt\n        /* \"#utility.yul\":2700:2702   */\n      iszero\n      tag_71\n      jumpi\n        /* \"#utility.yul\":2746:2747   */\n      0x00\n        /* \"#utility.yul\":2743:2744   */\n      dup1\n        /* \"#utility.yul\":2736:2748   */\n      revert\n        /* \"#utility.yul\":2700:2702   */\n    tag_71:\n        /* \"#utility.yul\":2774:2837   */\n      tag_72\n        /* \"#utility.yul\":2829:2836   */\n      dup12\n        /* \"#utility.yul\":2820:2826   */\n      dup3\n        /* \"#utility.yul\":2809:2818   */\n      dup13\n        /* \"#utility.yul\":2805:2827   */\n      add\n        /* \"#utility.yul\":2774:2837   */\n      tag_50\n      jump\t// in\n    tag_72:\n        /* \"#utility.yul\":2764:2837   */\n      swap4\n      pop\n        /* \"#utility.yul\":2625:2847   */\n      pop\n        /* \"#utility.yul\":2886:2889   */\n      0xc0\n        /* \"#utility.yul\":2913:2977   */\n      tag_73\n        /* \"#utility.yul\":2969:2976   */\n      dup12\n        /* \"#utility.yul\":2960:2966   */\n      dup3\n        /* \"#utility.yul\":2949:2958   */\n      dup13\n        /* \"#utility.yul\":2945:2967   */\n      add\n        /* \"#utility.yul\":2913:2977   */\n      tag_46\n      jump\t// in\n    tag_73:\n        /* \"#utility.yul\":2903:2977   */\n      swap3\n      pop\n        /* \"#utility.yul\":2857:2987   */\n      pop\n        /* \"#utility.yul\":3026:3029   */\n      0xe0\n        /* \"#utility.yul\":3053:3103   */\n      tag_74\n        /* \"#utility.yul\":3095:3102   */\n      dup12\n        /* \"#utility.yul\":3086:3092   */\n      dup3\n        /* \"#utility.yul\":3075:3084   */\n      dup13\n        /* \"#utility.yul\":3071:3093   */\n      add\n        /* \"#utility.yul\":3053:3103   */\n      tag_42\n      jump\t// in\n    tag_74:\n        /* \"#utility.yul\":3043:3103   */\n      swap2\n      pop\n        /* \"#utility.yul\":2997:3113   */\n      pop\n        /* \"#utility.yul\":1603:3120   */\n      swap3\n      swap6\n      swap9\n      pop\n      swap3\n      swap6\n      swap9\n      swap1\n      swap4\n      swap7\n      pop\n      jump\t// out\n        /* \"#utility.yul\":3126:3329   */\n    tag_75:\n      0x00\n        /* \"#utility.yul\":3228:3286   */\n      tag_77\n        /* \"#utility.yul\":3282:3285   */\n      dup4\n        /* \"#utility.yul\":3274:3280   */\n      dup4\n        /* \"#utility.yul\":3228:3286   */\n      tag_78\n      jump\t// in\n    tag_77:\n        /* \"#utility.yul\":3318:3322   */\n      0x20\n        /* \"#utility.yul\":3313:3316   */\n      dup4\n        /* \"#utility.yul\":3309:3323   */\n      add\n        /* \"#utility.yul\":3295:3323   */\n      swap1\n      pop\n        /* \"#utility.yul\":3218:3329   */\n      swap3\n      swap2\n      pop\n      pop\n      jump\t// out\n        /* \"#utility.yul\":3335:3453   */\n    tag_79:\n        /* \"#utility.yul\":3422:3446   */\n      tag_81\n        /* \"#utility.yul\":3440:3445   */\n      dup2\n        /* \"#utility.yul\":3422:3446   */\n      tag_82\n      jump\t// in\n    tag_81:\n        /* \"#utility.yul\":3417:3420   */\n      dup3\n        /* \"#utility.yul\":3410:3447   */\n      mstore\n        /* \"#utility.yul\":3400:3453   */\n      pop\n      pop\n      jump\t// out\n        /* \"#utility.yul\":3495:4287   */\n    tag_83:\n      0x00\n        /* \"#utility.yul\":3655:3721   */\n      tag_85\n        /* \"#utility.yul\":3715:3720   */\n      dup3\n        /* \"#utility.yul\":3655:3721   */\n      tag_86\n      jump\t// in\n    tag_85:\n        /* \"#utility.yul\":3737:3823   */\n      tag_87\n        /* \"#utility.yul\":3816:3822   */\n      dup2\n        /* \"#utility.yul\":3811:3814   */\n      dup6\n        /* \"#utility.yul\":3737:3823   */\n      tag_88\n      jump\t// in\n    tag_87:\n        /* \"#utility.yul\":3730:3823   */\n      swap4\n      pop\n        /* \"#utility.yul\":3847:3915   */\n      tag_89\n        /* \"#utility.yul\":3909:3914   */\n      dup4\n        /* \"#utility.yul\":3847:3915   */\n      tag_90\n      jump\t// in\n    tag_89:\n        /* \"#utility.yul\":3938:3945   */\n      dup1\n        /* \"#utility.yul\":3969:3970   */\n      0x00\n        /* \"#utility.yul\":3954:4262   */\n    tag_91:\n        /* \"#utility.yul\":3979:3985   */\n      dup4\n        /* \"#utility.yul\":3976:3977   */\n      dup2\n        /* \"#utility.yul\":3973:3986   */\n      lt\n        /* \"#utility.yul\":3954:4262   */\n      iszero\n      tag_93\n      jumpi\n        /* \"#utility.yul\":4055:4061   */\n      dup2\n        /* \"#utility.yul\":4049:4062   */\n      mload\n        /* \"#utility.yul\":4082:4157   */\n      tag_94\n        /* \"#utility.yul\":4153:4156   */\n      dup9\n        /* \"#utility.yul\":4138:4151   */\n      dup3\n        /* \"#utility.yul\":4082:4157   */\n      tag_75\n      jump\t// in\n    tag_94:\n        /* \"#utility.yul\":4075:4157   */\n      swap8\n      pop\n        /* \"#utility.yul\":4180:4252   */\n      tag_95\n        /* \"#utility.yul\":4245:4251   */\n      dup4\n        /* \"#utility.yul\":4180:4252   */\n      tag_96\n      jump\t// in\n    tag_95:\n        /* \"#utility.yul\":4170:4252   */\n      swap3\n      pop\n        /* \"#utility.yul\":4014:4262   */\n      pop\n        /* \"#utility.yul\":4001:4002   */\n      0x01\n        /* \"#utility.yul\":3998:3999   */\n      dup2\n        /* \"#utility.yul\":3994:4003   */\n      add\n        /* \"#utility.yul\":3989:4003   */\n      swap1\n      pop\n        /* \"#utility.yul\":3954:4262   */\n      jump(tag_91)\n    tag_93:\n        /* \"#utility.yul\":3958:3972   */\n      pop\n        /* \"#utility.yul\":4278:4281   */\n      dup6\n        /* \"#utility.yul\":4271:4281   */\n      swap4\n      pop\n        /* \"#utility.yul\":3631:4287   */\n      pop\n      pop\n      pop\n      swap3\n      swap2\n      pop\n      pop\n      jump\t// out\n        /* \"#utility.yul\":4293:4402   */\n    tag_97:\n        /* \"#utility.yul\":4374:4395   */\n      tag_99\n        /* \"#utility.yul\":4389:4394   */\n      dup2\n        /* \"#utility.yul\":4374:4395   */\n      tag_100\n      jump\t// in\n    tag_99:\n        /* \"#utility.yul\":4369:4372   */\n      dup3\n        /* \"#utility.yul\":4362:4396   */\n      mstore\n        /* \"#utility.yul\":4352:4402   */\n      pop\n      pop\n      jump\t// out\n        /* \"#utility.yul\":4408:4553   */\n    tag_78:\n        /* \"#utility.yul\":4497:4546   */\n      tag_102\n        /* \"#utility.yul\":4540:4545   */\n      dup2\n        /* \"#utility.yul\":4497:4546   */\n      tag_103\n      jump\t// in\n    tag_102:\n        /* \"#utility.yul\":4492:4495   */\n      dup3\n        /* \"#utility.yul\":4485:4547   */\n      mstore\n        /* \"#utility.yul\":4475:4553   */\n      pop\n      pop\n      jump\t// out\n        /* \"#utility.yul\":4559:4714   */\n    tag_104:\n        /* \"#utility.yul\":4658:4707   */\n      tag_106\n        /* \"#utility.yul\":4701:4706   */\n      dup2\n        /* \"#utility.yul\":4658:4707   */\n      tag_103\n      jump\t// in\n    tag_106:\n        /* \"#utility.yul\":4653:4656   */\n      dup3\n        /* \"#utility.yul\":4646:4708   */\n      mstore\n        /* \"#utility.yul\":4636:4714   */\n      pop\n      pop\n      jump\t// out\n        /* \"#utility.yul\":4720:4869   */\n    tag_107:\n        /* \"#utility.yul\":4816:4862   */\n      tag_109\n        /* \"#utility.yul\":4856:4861   */\n      dup2\n        /* \"#utility.yul\":4816:4862   */\n      tag_110\n      jump\t// in\n    tag_109:\n        /* \"#utility.yul\":4811:4814   */\n      dup3\n        /* \"#utility.yul\":4804:4863   */\n      mstore\n        /* \"#utility.yul\":4794:4869   */\n      pop\n      pop\n      jump\t// out\n        /* \"#utility.yul\":4875:5239   */\n    tag_111:\n      0x00\n        /* \"#utility.yul\":4991:5030   */\n      tag_113\n        /* \"#utility.yul\":5024:5029   */\n      dup3\n        /* \"#utility.yul\":4991:5030   */\n      tag_114\n      jump\t// in\n    tag_113:\n        /* \"#utility.yul\":5046:5117   */\n      tag_115\n        /* \"#utility.yul\":5110:5116   */\n      dup2\n        /* \"#utility.yul\":5105:5108   */\n      dup6\n        /* \"#utility.yul\":5046:5117   */\n      tag_116\n      jump\t// in\n    tag_115:\n        /* \"#utility.yul\":5039:5117   */\n      swap4\n      pop\n        /* \"#utility.yul\":5126:5178   */\n      tag_117\n        /* \"#utility.yul\":5171:5177   */\n      dup2\n        /* \"#utility.yul\":5166:5169   */\n      dup6\n        /* \"#utility.yul\":5159:5163   */\n      0x20\n        /* \"#utility.yul\":5152:5157   */\n      dup7\n        /* \"#utility.yul\":5148:5164   */\n      add\n        /* \"#utility.yul\":5126:5178   */\n      tag_118\n      jump\t// in\n    tag_117:\n        /* \"#utility.yul\":5203:5232   */\n      tag_119\n        /* \"#utility.yul\":5225:5231   */\n      dup2\n        /* \"#utility.yul\":5203:5232   */\n      tag_120\n      jump\t// in\n    tag_119:\n        /* \"#utility.yul\":5198:5201   */\n      dup5\n        /* \"#utility.yul\":5194:5233   */\n      add\n        /* \"#utility.yul\":5187:5233   */\n      swap2\n      pop\n        /* \"#utility.yul\":4967:5239   */\n      pop\n      swap3\n      swap2\n      pop\n      pop\n      jump\t// out\n        /* \"#utility.yul\":5245:5363   */\n    tag_121:\n        /* \"#utility.yul\":5332:5356   */\n      tag_123\n        /* \"#utility.yul\":5350:5355   */\n      dup2\n        /* \"#utility.yul\":5332:5356   */\n      tag_124\n      jump\t// in\n    tag_123:\n        /* \"#utility.yul\":5327:5330   */\n      dup3\n        /* \"#utility.yul\":5320:5357   */\n      mstore\n        /* \"#utility.yul\":5310:5363   */\n      pop\n      pop\n      jump\t// out\n        /* \"#utility.yul\":5369:5766   */\n    tag_13:\n      0x00\n        /* \"#utility.yul\":5562:5564   */\n      0x20\n        /* \"#utility.yul\":5551:5560   */\n      dup3\n        /* \"#utility.yul\":5547:5565   */\n      add\n        /* \"#utility.yul\":5539:5565   */\n      swap1\n      pop\n        /* \"#utility.yul\":5611:5620   */\n      dup2\n        /* \"#utility.yul\":5605:5609   */\n      dup2\n        /* \"#utility.yul\":5601:5621   */\n      sub\n        /* \"#utility.yul\":5597:5598   */\n      0x00\n        /* \"#utility.yul\":5586:5595   */\n      dup4\n        /* \"#utility.yul\":5582:5599   */\n      add\n        /* \"#utility.yul\":5575:5622   */\n      mstore\n        /* \"#utility.yul\":5639:5759   */\n      tag_126\n        /* \"#utility.yul\":5754:5758   */\n      dup2\n        /* \"#utility.yul\":5745:5751   */\n      dup5\n        /* \"#utility.yul\":5639:5759   */\n      tag_83\n      jump\t// in\n    tag_126:\n        /* \"#utility.yul\":5631:5759   */\n      swap1\n      pop\n        /* \"#utility.yul\":5529:5766   */\n      swap3\n      swap2\n      pop\n      pop\n      jump\t// out\n        /* \"#utility.yul\":5772:6018   */\n    tag_19:\n      0x00\n        /* \"#utility.yul\":5915:5917   */\n      0x20\n        /* \"#utility.yul\":5904:5913   */\n      dup3\n        /* \"#utility.yul\":5900:5918   */\n      add\n        /* \"#utility.yul\":5892:5918   */\n      swap1\n      pop\n        /* \"#utility.yul\":5928:6011   */\n      tag_128\n        /* \"#utility.yul\":6008:6009   */\n      0x00\n        /* \"#utility.yul\":5997:6006   */\n      dup4\n        /* \"#utility.yul\":5993:6010   */\n      add\n        /* \"#utility.yul\":5984:5990   */\n      dup5\n        /* \"#utility.yul\":5928:6011   */\n      tag_104\n      jump\t// in\n    tag_128:\n        /* \"#utility.yul\":5882:6018   */\n      swap3\n      swap2\n      pop\n      pop\n      jump\t// out\n        /* \"#utility.yul\":6024:7502   */\n    tag_24:\n      0x00\n        /* \"#utility.yul\":6462:6465   */\n      0x0120\n        /* \"#utility.yul\":6451:6460   */\n      dup3\n        /* \"#utility.yul\":6447:6466   */\n      add\n        /* \"#utility.yul\":6439:6466   */\n      swap1\n      pop\n        /* \"#utility.yul\":6476:6547   */\n      tag_130\n        /* \"#utility.yul\":6544:6545   */\n      0x00\n        /* \"#utility.yul\":6533:6542   */\n      dup4\n        /* \"#utility.yul\":6529:6546   */\n      add\n        /* \"#utility.yul\":6520:6526   */\n      dup13\n        /* \"#utility.yul\":6476:6547   */\n      tag_121\n      jump\t// in\n    tag_130:\n        /* \"#utility.yul\":6557:6629   */\n      tag_131\n        /* \"#utility.yul\":6625:6627   */\n      0x20\n        /* \"#utility.yul\":6614:6623   */\n      dup4\n        /* \"#utility.yul\":6610:6628   */\n      add\n        /* \"#utility.yul\":6601:6607   */\n      dup12\n        /* \"#utility.yul\":6557:6629   */\n      tag_121\n      jump\t// in\n    tag_131:\n        /* \"#utility.yul\":6676:6685   */\n      dup2\n        /* \"#utility.yul\":6670:6674   */\n      dup2\n        /* \"#utility.yul\":6666:6686   */\n      sub\n        /* \"#utility.yul\":6661:6663   */\n      0x40\n        /* \"#utility.yul\":6650:6659   */\n      dup4\n        /* \"#utility.yul\":6646:6664   */\n      add\n        /* \"#utility.yul\":6639:6687   */\n      mstore\n        /* \"#utility.yul\":6704:6782   */\n      tag_132\n        /* \"#utility.yul\":6777:6781   */\n      dup2\n        /* \"#utility.yul\":6768:6774   */\n      dup11\n        /* \"#utility.yul\":6704:6782   */\n      tag_111\n      jump\t// in\n    tag_132:\n        /* \"#utility.yul\":6696:6782   */\n      swap1\n      pop\n        /* \"#utility.yul\":6829:6838   */\n      dup2\n        /* \"#utility.yul\":6823:6827   */\n      dup2\n        /* \"#utility.yul\":6819:6839   */\n      sub\n        /* \"#utility.yul\":6814:6816   */\n      0x60\n        /* \"#utility.yul\":6803:6812   */\n      dup4\n        /* \"#utility.yul\":6799:6817   */\n      add\n        /* \"#utility.yul\":6792:6840   */\n      mstore\n        /* \"#utility.yul\":6857:6935   */\n      tag_133\n        /* \"#utility.yul\":6930:6934   */\n      dup2\n        /* \"#utility.yul\":6921:6927   */\n      dup10\n        /* \"#utility.yul\":6857:6935   */\n      tag_111\n      jump\t// in\n    tag_133:\n        /* \"#utility.yul\":6849:6935   */\n      swap1\n      pop\n        /* \"#utility.yul\":6983:6992   */\n      dup2\n        /* \"#utility.yul\":6977:6981   */\n      dup2\n        /* \"#utility.yul\":6973:6993   */\n      sub\n        /* \"#utility.yul\":6967:6970   */\n      0x80\n        /* \"#utility.yul\":6956:6965   */\n      dup4\n        /* \"#utility.yul\":6952:6971   */\n      add\n        /* \"#utility.yul\":6945:6994   */\n      mstore\n        /* \"#utility.yul\":7011:7089   */\n      tag_134\n        /* \"#utility.yul\":7084:7088   */\n      dup2\n        /* \"#utility.yul\":7075:7081   */\n      dup9\n        /* \"#utility.yul\":7011:7089   */\n      tag_111\n      jump\t// in\n    tag_134:\n        /* \"#utility.yul\":7003:7089   */\n      swap1\n      pop\n        /* \"#utility.yul\":7137:7146   */\n      dup2\n        /* \"#utility.yul\":7131:7135   */\n      dup2\n        /* \"#utility.yul\":7127:7147   */\n      sub\n        /* \"#utility.yul\":7121:7124   */\n      0xa0\n        /* \"#utility.yul\":7110:7119   */\n      dup4\n        /* \"#utility.yul\":7106:7125   */\n      add\n        /* \"#utility.yul\":7099:7148   */\n      mstore\n        /* \"#utility.yul\":7165:7243   */\n      tag_135\n        /* \"#utility.yul\":7238:7242   */\n      dup2\n        /* \"#utility.yul\":7229:7235   */\n      dup8\n        /* \"#utility.yul\":7165:7243   */\n      tag_111\n      jump\t// in\n    tag_135:\n        /* \"#utility.yul\":7157:7243   */\n      swap1\n      pop\n        /* \"#utility.yul\":7253:7335   */\n      tag_136\n        /* \"#utility.yul\":7330:7333   */\n      0xc0\n        /* \"#utility.yul\":7319:7328   */\n      dup4\n        /* \"#utility.yul\":7315:7334   */\n      add\n        /* \"#utility.yul\":7306:7312   */\n      dup7\n        /* \"#utility.yul\":7253:7335   */\n      tag_107\n      jump\t// in\n    tag_136:\n        /* \"#utility.yul\":7345:7412   */\n      tag_137\n        /* \"#utility.yul\":7407:7410   */\n      0xe0\n        /* \"#utility.yul\":7396:7405   */\n      dup4\n        /* \"#utility.yul\":7392:7411   */\n      add\n        /* \"#utility.yul\":7383:7389   */\n      dup6\n        /* \"#utility.yul\":7345:7412   */\n      tag_97\n      jump\t// in\n    tag_137:\n        /* \"#utility.yul\":7422:7495   */\n      tag_138\n        /* \"#utility.yul\":7490:7493   */\n      0x0100\n        /* \"#utility.yul\":7479:7488   */\n      dup4\n        /* \"#utility.yul\":7475:7494   */\n      add\n        /* \"#utility.yul\":7466:7472   */\n      dup5\n        /* \"#utility.yul\":7422:7495   */\n      tag_79\n      jump\t// in\n    tag_138:\n        /* \"#utility.yul\":6429:7502   */\n      swap11\n      swap10\n      pop\n      pop\n      pop\n      pop\n      pop\n      pop\n      pop\n      pop\n      pop\n      pop\n      jump\t// out\n        /* \"#utility.yul\":7508:7637   */\n    tag_38:\n      0x00\n        /* \"#utility.yul\":7569:7589   */\n      tag_140\n      tag_141\n      jump\t// in\n    tag_140:\n        /* \"#utility.yul\":7559:7589   */\n      swap1\n      pop\n        /* \"#utility.yul\":7598:7631   */\n      tag_142\n        /* \"#utility.yul\":7626:7630   */\n      dup3\n        /* \"#utility.yul\":7618:7624   */\n      dup3\n        /* \"#utility.yul\":7598:7631   */\n      tag_143\n      jump\t// in\n    tag_142:\n        /* \"#utility.yul\":7549:7637   */\n      swap2\n      swap1\n      pop\n      jump\t// out\n        /* \"#utility.yul\":7643:7718   */\n    tag_141:\n      0x00\n        /* \"#utility.yul\":7709:7711   */\n      0x40\n        /* \"#utility.yul\":7703:7712   */\n      mload\n        /* \"#utility.yul\":7693:7712   */\n      swap1\n      pop\n        /* \"#utility.yul\":7683:7718   */\n      swap1\n      jump\t// out\n        /* \"#utility.yul\":7724:8032   */\n    tag_37:\n      0x00\n        /* \"#utility.yul\":7876:7894   */\n      0xffffffffffffffff\n        /* \"#utility.yul\":7868:7874   */\n      dup3\n        /* \"#utility.yul\":7865:7895   */\n      gt\n        /* \"#utility.yul\":7862:7864   */\n      iszero\n      tag_146\n      jumpi\n        /* \"#utility.yul\":7898:7916   */\n      tag_147\n      tag_148\n      jump\t// in\n    tag_147:\n        /* \"#utility.yul\":7862:7864   */\n    tag_146:\n        /* \"#utility.yul\":7936:7965   */\n      tag_149\n        /* \"#utility.yul\":7958:7964   */\n      dup3\n        /* \"#utility.yul\":7936:7965   */\n      tag_120\n      jump\t// in\n    tag_149:\n        /* \"#utility.yul\":7928:7965   */\n      swap1\n      pop\n        /* \"#utility.yul\":8020:8024   */\n      0x20\n        /* \"#utility.yul\":8014:8018   */\n      dup2\n        /* \"#utility.yul\":8010:8025   */\n      add\n        /* \"#utility.yul\":8002:8025   */\n      swap1\n      pop\n        /* \"#utility.yul\":7791:8032   */\n      swap2\n      swap1\n      pop\n      jump\t// out\n        /* \"#utility.yul\":8038:8182   */\n    tag_90:\n      0x00\n        /* \"#utility.yul\":8140:8143   */\n      dup2\n        /* \"#utility.yul\":8132:8143   */\n      swap1\n      pop\n        /* \"#utility.yul\":8170:8174   */\n      0x20\n        /* \"#utility.yul\":8165:8168   */\n      dup3\n        /* \"#utility.yul\":8161:8175   */\n      add\n        /* \"#utility.yul\":8153:8175   */\n      swap1\n      pop\n        /* \"#utility.yul\":8122:8182   */\n      swap2\n      swap1\n      pop\n      jump\t// out\n        /* \"#utility.yul\":8188:8314   */\n    tag_86:\n      0x00\n        /* \"#utility.yul\":8301:8306   */\n      dup2\n        /* \"#utility.yul\":8295:8307   */\n      mload\n        /* \"#utility.yul\":8285:8307   */\n      swap1\n      pop\n        /* \"#utility.yul\":8274:8314   */\n      swap2\n      swap1\n      pop\n      jump\t// out\n        /* \"#utility.yul\":8320:8419   */\n    tag_114:\n      0x00\n        /* \"#utility.yul\":8406:8411   */\n      dup2\n        /* \"#utility.yul\":8400:8412   */\n      mload\n        /* \"#utility.yul\":8390:8412   */\n      swap1\n      pop\n        /* \"#utility.yul\":8379:8419   */\n      swap2\n      swap1\n      pop\n      jump\t// out\n        /* \"#utility.yul\":8425:8550   */\n    tag_96:\n      0x00\n        /* \"#utility.yul\":8539:8543   */\n      0x20\n        /* \"#utility.yul\":8534:8537   */\n      dup3\n        /* \"#utility.yul\":8530:8544   */\n      add\n        /* \"#utility.yul\":8522:8544   */\n      swap1\n      pop\n        /* \"#utility.yul\":8512:8550   */\n      swap2\n      swap1\n      pop\n      jump\t// out\n        /* \"#utility.yul\":8556:8740   */\n    tag_88:\n      0x00\n        /* \"#utility.yul\":8689:8695   */\n      dup3\n        /* \"#utility.yul\":8684:8687   */\n      dup3\n        /* \"#utility.yul\":8677:8696   */\n      mstore\n        /* \"#utility.yul\":8729:8733   */\n      0x20\n        /* \"#utility.yul\":8724:8727   */\n      dup3\n        /* \"#utility.yul\":8720:8734   */\n      add\n        /* \"#utility.yul\":8705:8734   */\n      swap1\n      pop\n        /* \"#utility.yul\":8667:8740   */\n      swap3\n      swap2\n      pop\n      pop\n      jump\t// out\n        /* \"#utility.yul\":8746:8915   */\n    tag_116:\n      0x00\n        /* \"#utility.yul\":8864:8870   */\n      dup3\n        /* \"#utility.yul\":8859:8862   */\n      dup3\n        /* \"#utility.yul\":8852:8871   */\n      mstore\n        /* \"#utility.yul\":8904:8908   */\n      0x20\n        /* \"#utility.yul\":8899:8902   */\n      dup3\n        /* \"#utility.yul\":8895:8909   */\n      add\n        /* \"#utility.yul\":8880:8909   */\n      swap1\n      pop\n        /* \"#utility.yul\":8842:8915   */\n      swap3\n      swap2\n      pop\n      pop\n      jump\t// out\n        /* \"#utility.yul\":8921:9017   */\n    tag_82:\n      0x00\n        /* \"#utility.yul\":8987:9011   */\n      tag_157\n        /* \"#utility.yul\":9005:9010   */\n      dup3\n        /* \"#utility.yul\":8987:9011   */\n      tag_158\n      jump\t// in\n    tag_157:\n        /* \"#utility.yul\":8976:9011   */\n      swap1\n      pop\n        /* \"#utility.yul\":8966:9017   */\n      swap2\n      swap1\n      pop\n      jump\t// out\n        /* \"#utility.yul\":9023:9113   */\n    tag_100:\n      0x00\n        /* \"#utility.yul\":9100:9105   */\n      dup2\n        /* \"#utility.yul\":9093:9106   */\n      iszero\n        /* \"#utility.yul\":9086:9107   */\n      iszero\n        /* \"#utility.yul\":9075:9107   */\n      swap1\n      pop\n        /* \"#utility.yul\":9065:9113   */\n      swap2\n      swap1\n      pop\n      jump\t// out\n        /* \"#utility.yul\":9119:9252   */\n    tag_160:\n      0x00\n        /* \"#utility.yul\":9196:9201   */\n      dup2\n        /* \"#utility.yul\":9185:9201   */\n      swap1\n      pop\n        /* \"#utility.yul\":9202:9246   */\n      tag_162\n        /* \"#utility.yul\":9240:9245   */\n      dup3\n        /* \"#utility.yul\":9202:9246   */\n      tag_163\n      jump\t// in\n    tag_162:\n        /* \"#utility.yul\":9175:9252   */\n      swap2\n      swap1\n      pop\n      jump\t// out\n        /* \"#utility.yul\":9258:9384   */\n    tag_158:\n      0x00\n        /* \"#utility.yul\":9335:9377   */\n      0xffffffffffffffffffffffffffffffffffffffff\n        /* \"#utility.yul\":9328:9333   */\n      dup3\n        /* \"#utility.yul\":9324:9378   */\n      and\n        /* \"#utility.yul\":9313:9378   */\n      swap1\n      pop\n        /* \"#utility.yul\":9303:9384   */\n      swap2\n      swap1\n      pop\n      jump\t// out\n        /* \"#utility.yul\":9390:9467   */\n    tag_124:\n      0x00\n        /* \"#utility.yul\":9456:9461   */\n      dup2\n        /* \"#utility.yul\":9445:9461   */\n      swap1\n      pop\n        /* \"#utility.yul\":9435:9467   */\n      swap2\n      swap1\n      pop\n      jump\t// out\n        /* \"#utility.yul\":9473:9623   */\n    tag_103:\n      0x00\n        /* \"#utility.yul\":9568:9617   */\n      tag_167\n        /* \"#utility.yul\":9611:9616   */\n      dup3\n        /* \"#utility.yul\":9568:9617   */\n      tag_168\n      jump\t// in\n    tag_167:\n        /* \"#utility.yul\":9555:9617   */\n      swap1\n      pop\n        /* \"#utility.yul\":9545:9623   */\n      swap2\n      swap1\n      pop\n      jump\t// out\n        /* \"#utility.yul\":9629:9754   */\n    tag_168:\n      0x00\n        /* \"#utility.yul\":9724:9748   */\n      tag_170\n        /* \"#utility.yul\":9742:9747   */\n      dup3\n        /* \"#utility.yul\":9724:9748   */\n      tag_158\n      jump\t// in\n    tag_170:\n        /* \"#utility.yul\":9711:9748   */\n      swap1\n      pop\n        /* \"#utility.yul\":9701:9754   */\n      swap2\n      swap1\n      pop\n      jump\t// out\n        /* \"#utility.yul\":9760:9893   */\n    tag_110:\n      0x00\n        /* \"#utility.yul\":9852:9887   */\n      tag_172\n        /* \"#utility.yul\":9881:9886   */\n      dup3\n        /* \"#utility.yul\":9852:9887   */\n      tag_160\n      jump\t// in\n    tag_172:\n        /* \"#utility.yul\":9839:9887   */\n      swap1\n      pop\n        /* \"#utility.yul\":9829:9893   */\n      swap2\n      swap1\n      pop\n      jump\t// out\n        /* \"#utility.yul\":9899:10053   */\n    tag_41:\n        /* \"#utility.yul\":9983:9989   */\n      dup3\n        /* \"#utility.yul\":9978:9981   */\n      dup2\n        /* \"#utility.yul\":9973:9976   */\n      dup4\n        /* \"#utility.yul\":9960:9990   */\n      calldatacopy\n        /* \"#utility.yul\":10045:10046   */\n      0x00\n        /* \"#utility.yul\":10036:10042   */\n      dup4\n        /* \"#utility.yul\":10031:10034   */\n      dup4\n        /* \"#utility.yul\":10027:10043   */\n      add\n        /* \"#utility.yul\":10020:10047   */\n      mstore\n        /* \"#utility.yul\":9950:10053   */\n      pop\n      pop\n      pop\n      jump\t// out\n        /* \"#utility.yul\":10059:10366   */\n    tag_118:\n        /* \"#utility.yul\":10127:10128   */\n      0x00\n        /* \"#utility.yul\":10137:10250   */\n    tag_175:\n        /* \"#utility.yul\":10151:10157   */\n      dup4\n        /* \"#utility.yul\":10148:10149   */\n      dup2\n        /* \"#utility.yul\":10145:10158   */\n      lt\n        /* \"#utility.yul\":10137:10250   */\n      iszero\n      tag_177\n      jumpi\n        /* \"#utility.yul\":10236:10237   */\n      dup1\n        /* \"#utility.yul\":10231:10234   */\n      dup3\n        /* \"#utility.yul\":10227:10238   */\n      add\n        /* \"#utility.yul\":10221:10239   */\n      mload\n        /* \"#utility.yul\":10217:10218   */\n      dup2\n        /* \"#utility.yul\":10212:10215   */\n      dup5\n        /* \"#utility.yul\":10208:10219   */\n      add\n        /* \"#utility.yul\":10201:10240   */\n      mstore\n        /* \"#utility.yul\":10173:10175   */\n      0x20\n        /* \"#utility.yul\":10170:10171   */\n      dup2\n        /* \"#utility.yul\":10166:10176   */\n      add\n        /* \"#utility.yul\":10161:10176   */\n      swap1\n      pop\n        /* \"#utility.yul\":10137:10250   */\n      jump(tag_175)\n    tag_177:\n        /* \"#utility.yul\":10268:10274   */\n      dup4\n        /* \"#utility.yul\":10265:10266   */\n      dup2\n        /* \"#utility.yul\":10262:10275   */\n      gt\n        /* \"#utility.yul\":10259:10261   */\n      iszero\n      tag_178\n      jumpi\n        /* \"#utility.yul\":10348:10349   */\n      0x00\n        /* \"#utility.yul\":10339:10345   */\n      dup5\n        /* \"#utility.yul\":10334:10337   */\n      dup5\n        /* \"#utility.yul\":10330:10346   */\n      add\n        /* \"#utility.yul\":10323:10350   */\n      mstore\n        /* \"#utility.yul\":10259:10261   */\n    tag_178:\n        /* \"#utility.yul\":10108:10366   */\n      pop\n      pop\n      pop\n      pop\n      jump\t// out\n        /* \"#utility.yul\":10372:10653   */\n    tag_143:\n        /* \"#utility.yul\":10455:10482   */\n      tag_180\n        /* \"#utility.yul\":10477:10481   */\n      dup3\n        /* \"#utility.yul\":10455:10482   */\n      tag_120\n      jump\t// in\n    tag_180:\n        /* \"#utility.yul\":10447:10453   */\n      dup2\n        /* \"#utility.yul\":10443:10483   */\n      add\n        /* \"#utility.yul\":10585:10591   */\n      dup2\n        /* \"#utility.yul\":10573:10583   */\n      dup2\n        /* \"#utility.yul\":10570:10592   */\n      lt\n        /* \"#utility.yul\":10549:10567   */\n      0xffffffffffffffff\n        /* \"#utility.yul\":10537:10547   */\n      dup3\n        /* \"#utility.yul\":10534:10568   */\n      gt\n        /* \"#utility.yul\":10531:10593   */\n      or\n        /* \"#utility.yul\":10528:10530   */\n      iszero\n      tag_181\n      jumpi\n        /* \"#utility.yul\":10596:10614   */\n      tag_182\n      tag_148\n      jump\t// in\n    tag_182:\n        /* \"#utility.yul\":10528:10530   */\n    tag_181:\n        /* \"#utility.yul\":10636:10646   */\n      dup1\n        /* \"#utility.yul\":10632:10634   */\n      0x40\n        /* \"#utility.yul\":10625:10647   */\n      mstore\n        /* \"#utility.yul\":10415:10653   */\n      pop\n      pop\n      pop\n      jump\t// out\n        /* \"#utility.yul\":10659:10839   */\n    tag_183:\n        /* \"#utility.yul\":10707:10784   */\n      0x4e487b7100000000000000000000000000000000000000000000000000000000\n        /* \"#utility.yul\":10704:10705   */\n      0x00\n        /* \"#utility.yul\":10697:10785   */\n      mstore\n        /* \"#utility.yul\":10804:10808   */\n      0x21\n        /* \"#utility.yul\":10801:10802   */\n      0x04\n        /* \"#utility.yul\":10794:10809   */\n      mstore\n        /* \"#utility.yul\":10828:10832   */\n      0x24\n        /* \"#utility.yul\":10825:10826   */\n      0x00\n        /* \"#utility.yul\":10818:10833   */\n      revert\n        /* \"#utility.yul\":10845:11025   */\n    tag_148:\n        /* \"#utility.yul\":10893:10970   */\n      0x4e487b7100000000000000000000000000000000000000000000000000000000\n        /* \"#utility.yul\":10890:10891   */\n      0x00\n        /* \"#utility.yul\":10883:10971   */\n      mstore\n        /* \"#utility.yul\":10990:10994   */\n      0x41\n        /* \"#utility.yul\":10987:10988   */\n      0x04\n        /* \"#utility.yul\":10980:10995   */\n      mstore\n        /* \"#utility.yul\":11014:11018   */\n      0x24\n        /* \"#utility.yul\":11011:11012   */\n      0x00\n        /* \"#utility.yul\":11004:11019   */\n      revert\n        /* \"#utility.yul\":11031:11133   */\n    tag_120:\n      0x00\n        /* \"#utility.yul\":11123:11125   */\n      0x1f\n        /* \"#utility.yul\":11119:11126   */\n      not\n        /* \"#utility.yul\":11114:11116   */\n      0x1f\n        /* \"#utility.yul\":11107:11112   */\n      dup4\n        /* \"#utility.yul\":11103:11117   */\n      add\n        /* \"#utility.yul\":11099:11127   */\n      and\n        /* \"#utility.yul\":11089:11127   */\n      swap1\n      pop\n        /* \"#utility.yul\":11079:11133   */\n      swap2\n      swap1\n      pop\n      jump\t// out\n        /* \"#utility.yul\":11139:11255   */\n    tag_163:\n        /* \"#utility.yul\":11223:11224   */\n      0x07\n        /* \"#utility.yul\":11216:11221   */\n      dup2\n        /* \"#utility.yul\":11213:11225   */\n      lt\n        /* \"#utility.yul\":11203:11205   */\n      tag_188\n      jumpi\n        /* \"#utility.yul\":11229:11247   */\n      tag_189\n      tag_183\n      jump\t// in\n    tag_189:\n        /* \"#utility.yul\":11203:11205   */\n    tag_188:\n        /* \"#utility.yul\":11193:11255   */\n      pop\n      jump\t// out\n        /* \"#utility.yul\":11261:11377   */\n    tag_45:\n        /* \"#utility.yul\":11331:11352   */\n      tag_191\n        /* \"#utility.yul\":11346:11351   */\n      dup2\n        /* \"#utility.yul\":11331:11352   */\n      tag_100\n      jump\t// in\n    tag_191:\n        /* \"#utility.yul\":11324:11329   */\n      dup2\n        /* \"#utility.yul\":11321:11353   */\n      eq\n        /* \"#utility.yul\":11311:11313   */\n      tag_192\n      jumpi\n        /* \"#utility.yul\":11367:11368   */\n      0x00\n        /* \"#utility.yul\":11364:11365   */\n      dup1\n        /* \"#utility.yul\":11357:11369   */\n      revert\n        /* \"#utility.yul\":11311:11313   */\n    tag_192:\n        /* \"#utility.yul\":11301:11377   */\n      pop\n      jump\t// out\n        /* \"#utility.yul\":11383:11493   */\n    tag_49:\n        /* \"#utility.yul\":11467:11468   */\n      0x07\n        /* \"#utility.yul\":11460:11465   */\n      dup2\n        /* \"#utility.yul\":11457:11469   */\n      lt\n        /* \"#utility.yul\":11447:11449   */\n      tag_194\n      jumpi\n        /* \"#utility.yul\":11483:11484   */\n      0x00\n        /* \"#utility.yul\":11480:11481   */\n      dup1\n        /* \"#utility.yul\":11473:11485   */\n      revert\n        /* \"#utility.yul\":11447:11449   */\n    tag_194:\n        /* \"#utility.yul\":11437:11493   */\n      pop\n      jump\t// out\n        /* \"#utility.yul\":11499:11621   */\n    tag_57:\n        /* \"#utility.yul\":11572:11596   */\n      tag_196\n        /* \"#utility.yul\":11590:11595   */\n      dup2\n        /* \"#utility.yul\":11572:11596   */\n      tag_124\n      jump\t// in\n    tag_196:\n        /* \"#utility.yul\":11565:11570   */\n      dup2\n        /* \"#utility.yul\":11562:11597   */\n      eq\n        /* \"#utility.yul\":11552:11554   */\n      tag_197\n      jumpi\n        /* \"#utility.yul\":11611:11612   */\n      0x00\n        /* \"#utility.yul\":11608:11609   */\n      dup1\n        /* \"#utility.yul\":11601:11613   */\n      revert\n        /* \"#utility.yul\":11552:11554   */\n    tag_197:\n        /* \"#utility.yul\":11542:11621   */\n      pop\n      jump\t// out\n    stop\n\n    sub_0: assembly {\n            /* \"Idea.sol\":822:4948  contract Idea {... */\n          mstore(0x40, 0x80)\n            /* \"Idea.sol\":1817:2489  constructor(... */\n          callvalue\n          dup1\n          iszero\n          tag_1\n          jumpi\n          0x00\n          dup1\n          revert\n        tag_1:\n          pop\n          mload(0x40)\n          sub(codesize, bytecodeSize)\n          dup1\n          bytecodeSize\n          dup4\n          codecopy\n          dup2\n          dup2\n          add\n          0x40\n          mstore\n          dup2\n          add\n          swap1\n          tag_2\n          swap2\n          swap1\n          tag_3\n          jump\t// in\n        tag_2:\n            /* \"Idea.sol\":2150:2156  sender */\n          dup1\n            /* \"Idea.sol\":2140:2147  manager */\n          0x08\n          0x00\n            /* \"Idea.sol\":2140:2156  manager = sender */\n          0x0100\n          exp\n          dup2\n          sload\n          dup2\n          0xffffffffffffffffffffffffffffffffffffffff\n          mul\n          not\n          and\n          swap1\n          dup4\n          0xffffffffffffffffffffffffffffffffffffffff\n          and\n          mul\n          or\n          swap1\n          sstore\n          pop\n            /* \"Idea.sol\":2183:2194  creditValue */\n          dup9\n            /* \"Idea.sol\":2166:2180  oneCreditValue */\n          0x0b\n            /* \"Idea.sol\":2166:2194  oneCreditValue = creditValue */\n          dup2\n          swap1\n          sstore\n          pop\n            /* \"Idea.sol\":2216:2229  ideaReachGoal */\n          dup8\n            /* \"Idea.sol\":2204:2213  reachGoal */\n          0x0d\n            /* \"Idea.sol\":2204:2229  reachGoal = ideaReachGoal */\n          dup2\n          swap1\n          sstore\n          pop\n            /* \"Idea.sol\":2246:2254  ideaName */\n          dup7\n            /* \"Idea.sol\":2239:2243  name */\n          0x00\n            /* \"Idea.sol\":2239:2254  name = ideaName */\n          swap1\n          dup1\n          mload\n          swap1\n          0x20\n          add\n          swap1\n          tag_6\n          swap3\n          swap2\n          swap1\n          tag_7\n          jump\t// in\n        tag_6:\n          pop\n            /* \"Idea.sol\":2283:2303  ideaShortDescription */\n          dup6\n            /* \"Idea.sol\":2264:2280  shortDescription */\n          0x01\n            /* \"Idea.sol\":2264:2303  shortDescription = ideaShortDescription */\n          swap1\n          dup1\n          mload\n          swap1\n          0x20\n          add\n          swap1\n          tag_8\n          swap3\n          swap2\n          swap1\n          tag_7\n          jump\t// in\n        tag_8:\n          pop\n            /* \"Idea.sol\":2327:2342  ideaDescription */\n          dup5\n            /* \"Idea.sol\":2313:2324  description */\n          0x02\n            /* \"Idea.sol\":2313:2342  description = ideaDescription */\n          swap1\n          dup1\n          mload\n          swap1\n          0x20\n          add\n          swap1\n          tag_9\n          swap3\n          swap2\n          swap1\n          tag_7\n          jump\t// in\n        tag_9:\n          pop\n            /* \"Idea.sol\":2363:2375  ideaImageURL */\n          dup4\n            /* \"Idea.sol\":2352:2360  imageURL */\n          0x03\n            /* \"Idea.sol\":2352:2375  imageURL = ideaImageURL */\n          swap1\n          dup1\n          mload\n          swap1\n          0x20\n          add\n          swap1\n          tag_10\n          swap3\n          swap2\n          swap1\n          tag_7\n          jump\t// in\n        tag_10:\n          pop\n            /* \"Idea.sol\":2396:2408  ideaCategory */\n          dup3\n            /* \"Idea.sol\":2385:2393  category */\n          0x04\n          0x00\n            /* \"Idea.sol\":2385:2408  category = ideaCategory */\n          0x0100\n          exp\n          dup2\n          sload\n          dup2\n          0xff\n          mul\n          not\n          and\n          swap1\n          dup4\n          0x06\n          dup2\n          gt\n          iszero\n          tag_11\n          jumpi\n          mstore(0x00, 0x4e487b7100000000000000000000000000000000000000000000000000000000)\n          mstore(0x04, 0x21)\n          revert(0x00, 0x24)\n        tag_11:\n          mul\n          or\n          swap1\n          sstore\n          pop\n            /* \"Idea.sol\":2431:2445  ideaIsDonation */\n          dup2\n            /* \"Idea.sol\":2418:2428  isDonation */\n          0x04\n          0x01\n            /* \"Idea.sol\":2418:2445  isDonation = ideaIsDonation */\n          0x0100\n          exp\n          dup2\n          sload\n          dup2\n          0xff\n          mul\n          not\n          and\n          swap1\n          dup4\n          iszero\n          iszero\n          mul\n          or\n          swap1\n          sstore\n          pop\n            /* \"Idea.sol\":2467:2482  block.timestamp */\n          timestamp\n            /* \"Idea.sol\":2455:2464  createdAt */\n          0x05\n            /* \"Idea.sol\":2455:2482  createdAt = block.timestamp */\n          dup2\n          swap1\n          sstore\n          pop\n            /* \"Idea.sol\":1817:2489  constructor(... */\n          pop\n          pop\n          pop\n          pop\n          pop\n          pop\n          pop\n          pop\n          pop\n            /* \"Idea.sol\":822:4948  contract Idea {... */\n          jump(tag_12)\n        tag_7:\n          dup3\n          dup1\n          sload\n          tag_13\n          swap1\n          tag_14\n          jump\t// in\n        tag_13:\n          swap1\n          0x00\n          mstore\n          keccak256(0x00, 0x20)\n          swap1\n          0x1f\n          add\n          0x20\n          swap1\n          div\n          dup2\n          add\n          swap3\n          dup3\n          tag_16\n          jumpi\n          0x00\n          dup6\n          sstore\n          jump(tag_15)\n        tag_16:\n          dup3\n          0x1f\n          lt\n          tag_17\n          jumpi\n          dup1\n          mload\n          not(0xff)\n          and\n          dup4\n          dup1\n          add\n          or\n          dup6\n          sstore\n          jump(tag_15)\n        tag_17:\n          dup3\n          dup1\n          add\n          0x01\n          add\n          dup6\n          sstore\n          dup3\n          iszero\n          tag_15\n          jumpi\n          swap2\n          dup3\n          add\n        tag_18:\n          dup3\n          dup2\n          gt\n          iszero\n          tag_19\n          jumpi\n          dup3\n          mload\n          dup3\n          sstore\n          swap2\n          0x20\n          add\n          swap2\n          swap1\n          0x01\n          add\n          swap1\n          jump(tag_18)\n        tag_19:\n        tag_15:\n          pop\n          swap1\n          pop\n          tag_20\n          swap2\n          swap1\n          tag_21\n          jump\t// in\n        tag_20:\n          pop\n          swap1\n          jump\t// out\n        tag_21:\n        tag_22:\n          dup1\n          dup3\n          gt\n          iszero\n          tag_23\n          jumpi\n          0x00\n          dup2\n          0x00\n          swap1\n          sstore\n          pop\n          0x01\n          add\n          jump(tag_22)\n        tag_23:\n          pop\n          swap1\n          jump\t// out\n            /* \"#utility.yul\":7:361   */\n        tag_25:\n          0x00\n            /* \"#utility.yul\":121:187   */\n          tag_27\n            /* \"#utility.yul\":137:186   */\n          tag_28\n            /* \"#utility.yul\":179:185   */\n          dup5\n            /* \"#utility.yul\":137:186   */\n          tag_29\n          jump\t// in\n        tag_28:\n            /* \"#utility.yul\":121:187   */\n          tag_30\n          jump\t// in\n        tag_27:\n            /* \"#utility.yul\":112:187   */\n          swap1\n          pop\n            /* \"#utility.yul\":210:216   */\n          dup3\n            /* \"#utility.yul\":203:208   */\n          dup2\n            /* \"#utility.yul\":196:217   */\n          mstore\n            /* \"#utility.yul\":248:252   */\n          0x20\n            /* \"#utility.yul\":241:246   */\n          dup2\n            /* \"#utility.yul\":237:253   */\n          add\n            /* \"#utility.yul\":286:289   */\n          dup5\n            /* \"#utility.yul\":277:283   */\n          dup5\n            /* \"#utility.yul\":272:275   */\n          dup5\n            /* \"#utility.yul\":268:284   */\n          add\n            /* \"#utility.yul\":265:290   */\n          gt\n            /* \"#utility.yul\":262:264   */\n          iszero\n          tag_31\n          jumpi\n            /* \"#utility.yul\":303:304   */\n          0x00\n            /* \"#utility.yul\":300:301   */\n          dup1\n            /* \"#utility.yul\":293:305   */\n          revert\n            /* \"#utility.yul\":262:264   */\n        tag_31:\n            /* \"#utility.yul\":316:355   */\n          tag_32\n            /* \"#utility.yul\":348:354   */\n          dup5\n            /* \"#utility.yul\":343:346   */\n          dup3\n            /* \"#utility.yul\":338:341   */\n          dup6\n            /* \"#utility.yul\":316:355   */\n          tag_33\n          jump\t// in\n        tag_32:\n            /* \"#utility.yul\":102:361   */\n          pop\n          swap4\n          swap3\n          pop\n          pop\n          pop\n          jump\t// out\n            /* \"#utility.yul\":367:510   */\n        tag_34:\n          0x00\n            /* \"#utility.yul\":455:461   */\n          dup2\n            /* \"#utility.yul\":449:462   */\n          mload\n            /* \"#utility.yul\":440:462   */\n          swap1\n          pop\n            /* \"#utility.yul\":471:504   */\n          tag_36\n            /* \"#utility.yul\":498:503   */\n          dup2\n            /* \"#utility.yul\":471:504   */\n          tag_37\n          jump\t// in\n        tag_36:\n            /* \"#utility.yul\":430:510   */\n          swap3\n          swap2\n          pop\n          pop\n          jump\t// out\n            /* \"#utility.yul\":516:653   */\n        tag_38:\n          0x00\n            /* \"#utility.yul\":601:607   */\n          dup2\n            /* \"#utility.yul\":595:608   */\n          mload\n            /* \"#utility.yul\":586:608   */\n          swap1\n          pop\n            /* \"#utility.yul\":617:647   */\n          tag_40\n            /* \"#utility.yul\":641:646   */\n          dup2\n            /* \"#utility.yul\":617:647   */\n          tag_41\n          jump\t// in\n        tag_40:\n            /* \"#utility.yul\":576:653   */\n          swap3\n          swap2\n          pop\n          pop\n          jump\t// out\n            /* \"#utility.yul\":659:824   */\n        tag_42:\n          0x00\n            /* \"#utility.yul\":758:764   */\n          dup2\n            /* \"#utility.yul\":752:765   */\n          mload\n            /* \"#utility.yul\":743:765   */\n          swap1\n          pop\n            /* \"#utility.yul\":774:818   */\n          tag_44\n            /* \"#utility.yul\":812:817   */\n          dup2\n            /* \"#utility.yul\":774:818   */\n          tag_45\n          jump\t// in\n        tag_44:\n            /* \"#utility.yul\":733:824   */\n          swap3\n          swap2\n          pop\n          pop\n          jump\t// out\n            /* \"#utility.yul\":844:1132   */\n        tag_46:\n          0x00\n            /* \"#utility.yul\":960:963   */\n          dup3\n            /* \"#utility.yul\":953:957   */\n          0x1f\n            /* \"#utility.yul\":945:951   */\n          dup4\n            /* \"#utility.yul\":941:958   */\n          add\n            /* \"#utility.yul\":937:964   */\n          slt\n            /* \"#utility.yul\":927:929   */\n          tag_48\n          jumpi\n            /* \"#utility.yul\":978:979   */\n          0x00\n            /* \"#utility.yul\":975:976   */\n          dup1\n            /* \"#utility.yul\":968:980   */\n          revert\n            /* \"#utility.yul\":927:929   */\n        tag_48:\n            /* \"#utility.yul\":1011:1017   */\n          dup2\n            /* \"#utility.yul\":1005:1018   */\n          mload\n            /* \"#utility.yul\":1036:1126   */\n          tag_49\n            /* \"#utility.yul\":1122:1125   */\n          dup5\n            /* \"#utility.yul\":1114:1120   */\n          dup3\n            /* \"#utility.yul\":1107:1111   */\n          0x20\n            /* \"#utility.yul\":1099:1105   */\n          dup7\n            /* \"#utility.yul\":1095:1112   */\n          add\n            /* \"#utility.yul\":1036:1126   */\n          tag_25\n          jump\t// in\n        tag_49:\n            /* \"#utility.yul\":1027:1126   */\n          swap2\n          pop\n            /* \"#utility.yul\":917:1132   */\n          pop\n          swap3\n          swap2\n          pop\n          pop\n          jump\t// out\n            /* \"#utility.yul\":1138:1281   */\n        tag_50:\n          0x00\n            /* \"#utility.yul\":1226:1232   */\n          dup2\n            /* \"#utility.yul\":1220:1233   */\n          mload\n            /* \"#utility.yul\":1211:1233   */\n          swap1\n          pop\n            /* \"#utility.yul\":1242:1275   */\n          tag_52\n            /* \"#utility.yul\":1269:1274   */\n          dup2\n            /* \"#utility.yul\":1242:1275   */\n          tag_53\n          jump\t// in\n        tag_52:\n            /* \"#utility.yul\":1201:1281   */\n          swap3\n          swap2\n          pop\n          pop\n          jump\t// out\n            /* \"#utility.yul\":1287:3265   */\n        tag_3:\n          0x00\n          dup1\n          0x00\n          dup1\n          0x00\n          dup1\n          0x00\n          dup1\n          0x00\n            /* \"#utility.yul\":1590:1593   */\n          0x0120\n            /* \"#utility.yul\":1578:1587   */\n          dup11\n            /* \"#utility.yul\":1569:1576   */\n          dup13\n            /* \"#utility.yul\":1565:1588   */\n          sub\n            /* \"#utility.yul\":1561:1594   */\n          slt\n            /* \"#utility.yul\":1558:1560   */\n          iszero\n          tag_55\n          jumpi\n            /* \"#utility.yul\":1607:1608   */\n          0x00\n            /* \"#utility.yul\":1604:1605   */\n          dup1\n            /* \"#utility.yul\":1597:1609   */\n          revert\n            /* \"#utility.yul\":1558:1560   */\n        tag_55:\n            /* \"#utility.yul\":1650:1651   */\n          0x00\n            /* \"#utility.yul\":1675:1739   */\n          tag_56\n            /* \"#utility.yul\":1731:1738   */\n          dup13\n            /* \"#utility.yul\":1722:1728   */\n          dup3\n            /* \"#utility.yul\":1711:1720   */\n          dup14\n            /* \"#utility.yul\":1707:1729   */\n          add\n            /* \"#utility.yul\":1675:1739   */\n          tag_50\n          jump\t// in\n        tag_56:\n            /* \"#utility.yul\":1665:1739   */\n          swap10\n          pop\n            /* \"#utility.yul\":1621:1749   */\n          pop\n            /* \"#utility.yul\":1788:1790   */\n          0x20\n            /* \"#utility.yul\":1814:1878   */\n          tag_57\n            /* \"#utility.yul\":1870:1877   */\n          dup13\n            /* \"#utility.yul\":1861:1867   */\n          dup3\n            /* \"#utility.yul\":1850:1859   */\n          dup14\n            /* \"#utility.yul\":1846:1868   */\n          add\n            /* \"#utility.yul\":1814:1878   */\n          tag_50\n          jump\t// in\n        tag_57:\n            /* \"#utility.yul\":1804:1878   */\n          swap9\n          pop\n            /* \"#utility.yul\":1759:1888   */\n          pop\n            /* \"#utility.yul\":1948:1950   */\n          0x40\n            /* \"#utility.yul\":1937:1946   */\n          dup11\n            /* \"#utility.yul\":1933:1951   */\n          add\n            /* \"#utility.yul\":1927:1952   */\n          mload\n            /* \"#utility.yul\":1979:1997   */\n          0xffffffffffffffff\n            /* \"#utility.yul\":1971:1977   */\n          dup2\n            /* \"#utility.yul\":1968:1998   */\n          gt\n            /* \"#utility.yul\":1965:1967   */\n          iszero\n          tag_58\n          jumpi\n            /* \"#utility.yul\":2011:2012   */\n          0x00\n            /* \"#utility.yul\":2008:2009   */\n          dup1\n            /* \"#utility.yul\":2001:2013   */\n          revert\n            /* \"#utility.yul\":1965:1967   */\n        tag_58:\n            /* \"#utility.yul\":2039:2113   */\n          tag_59\n            /* \"#utility.yul\":2105:2112   */\n          dup13\n            /* \"#utility.yul\":2096:2102   */\n          dup3\n            /* \"#utility.yul\":2085:2094   */\n          dup14\n            /* \"#utility.yul\":2081:2103   */\n          add\n            /* \"#utility.yul\":2039:2113   */\n          tag_46\n          jump\t// in\n        tag_59:\n            /* \"#utility.yul\":2029:2113   */\n          swap8\n          pop\n            /* \"#utility.yul\":1898:2123   */\n          pop\n            /* \"#utility.yul\":2183:2185   */\n          0x60\n            /* \"#utility.yul\":2172:2181   */\n          dup11\n            /* \"#utility.yul\":2168:2186   */\n          add\n            /* \"#utility.yul\":2162:2187   */\n          mload\n            /* \"#utility.yul\":2214:2232   */\n          0xffffffffffffffff\n            /* \"#utility.yul\":2206:2212   */\n          dup2\n            /* \"#utility.yul\":2203:2233   */\n          gt\n            /* \"#utility.yul\":2200:2202   */\n          iszero\n          tag_60\n          jumpi\n            /* \"#utility.yul\":2246:2247   */\n          0x00\n            /* \"#utility.yul\":2243:2244   */\n          dup1\n            /* \"#utility.yul\":2236:2248   */\n          revert\n            /* \"#utility.yul\":2200:2202   */\n        tag_60:\n            /* \"#utility.yul\":2274:2348   */\n          tag_61\n            /* \"#utility.yul\":2340:2347   */\n          dup13\n            /* \"#utility.yul\":2331:2337   */\n          dup3\n            /* \"#utility.yul\":2320:2329   */\n          dup14\n            /* \"#utility.yul\":2316:2338   */\n          add\n            /* \"#utility.yul\":2274:2348   */\n          tag_46\n          jump\t// in\n        tag_61:\n            /* \"#utility.yul\":2264:2348   */\n          swap7\n          pop\n            /* \"#utility.yul\":2133:2358   */\n          pop\n            /* \"#utility.yul\":2418:2421   */\n          0x80\n            /* \"#utility.yul\":2407:2416   */\n          dup11\n            /* \"#utility.yul\":2403:2422   */\n          add\n            /* \"#utility.yul\":2397:2423   */\n          mload\n            /* \"#utility.yul\":2450:2468   */\n          0xffffffffffffffff\n            /* \"#utility.yul\":2442:2448   */\n          dup2\n            /* \"#utility.yul\":2439:2469   */\n          gt\n            /* \"#utility.yul\":2436:2438   */\n          iszero\n          tag_62\n          jumpi\n            /* \"#utility.yul\":2482:2483   */\n          0x00\n            /* \"#utility.yul\":2479:2480   */\n          dup1\n            /* \"#utility.yul\":2472:2484   */\n          revert\n            /* \"#utility.yul\":2436:2438   */\n        tag_62:\n            /* \"#utility.yul\":2510:2584   */\n          tag_63\n            /* \"#utility.yul\":2576:2583   */\n          dup13\n            /* \"#utility.yul\":2567:2573   */\n          dup3\n            /* \"#utility.yul\":2556:2565   */\n          dup14\n            /* \"#utility.yul\":2552:2574   */\n          add\n            /* \"#utility.yul\":2510:2584   */\n          tag_46\n          jump\t// in\n        tag_63:\n            /* \"#utility.yul\":2500:2584   */\n          swap6\n          pop\n            /* \"#utility.yul\":2368:2594   */\n          pop\n            /* \"#utility.yul\":2654:2657   */\n          0xa0\n            /* \"#utility.yul\":2643:2652   */\n          dup11\n            /* \"#utility.yul\":2639:2658   */\n          add\n            /* \"#utility.yul\":2633:2659   */\n          mload\n            /* \"#utility.yul\":2686:2704   */\n          0xffffffffffffffff\n            /* \"#utility.yul\":2678:2684   */\n          dup2\n            /* \"#utility.yul\":2675:2705   */\n          gt\n            /* \"#utility.yul\":2672:2674   */\n          iszero\n          tag_64\n          jumpi\n            /* \"#utility.yul\":2718:2719   */\n          0x00\n            /* \"#utility.yul\":2715:2716   */\n          dup1\n            /* \"#utility.yul\":2708:2720   */\n          revert\n            /* \"#utility.yul\":2672:2674   */\n        tag_64:\n            /* \"#utility.yul\":2746:2820   */\n          tag_65\n            /* \"#utility.yul\":2812:2819   */\n          dup13\n            /* \"#utility.yul\":2803:2809   */\n          dup3\n            /* \"#utility.yul\":2792:2801   */\n          dup14\n            /* \"#utility.yul\":2788:2810   */\n          add\n            /* \"#utility.yul\":2746:2820   */\n          tag_46\n          jump\t// in\n        tag_65:\n            /* \"#utility.yul\":2736:2820   */\n          swap5\n          pop\n            /* \"#utility.yul\":2604:2830   */\n          pop\n            /* \"#utility.yul\":2869:2872   */\n          0xc0\n            /* \"#utility.yul\":2896:2971   */\n          tag_66\n            /* \"#utility.yul\":2963:2970   */\n          dup13\n            /* \"#utility.yul\":2954:2960   */\n          dup3\n            /* \"#utility.yul\":2943:2952   */\n          dup14\n            /* \"#utility.yul\":2939:2961   */\n          add\n            /* \"#utility.yul\":2896:2971   */\n          tag_42\n          jump\t// in\n        tag_66:\n            /* \"#utility.yul\":2886:2971   */\n          swap4\n          pop\n            /* \"#utility.yul\":2840:2981   */\n          pop\n            /* \"#utility.yul\":3020:3023   */\n          0xe0\n            /* \"#utility.yul\":3047:3108   */\n          tag_67\n            /* \"#utility.yul\":3100:3107   */\n          dup13\n            /* \"#utility.yul\":3091:3097   */\n          dup3\n            /* \"#utility.yul\":3080:3089   */\n          dup14\n            /* \"#utility.yul\":3076:3098   */\n          add\n            /* \"#utility.yul\":3047:3108   */\n          tag_38\n          jump\t// in\n        tag_67:\n            /* \"#utility.yul\":3037:3108   */\n          swap3\n          pop\n            /* \"#utility.yul\":2991:3118   */\n          pop\n            /* \"#utility.yul\":3157:3160   */\n          0x0100\n            /* \"#utility.yul\":3184:3248   */\n          tag_68\n            /* \"#utility.yul\":3240:3247   */\n          dup13\n            /* \"#utility.yul\":3231:3237   */\n          dup3\n            /* \"#utility.yul\":3220:3229   */\n          dup14\n            /* \"#utility.yul\":3216:3238   */\n          add\n            /* \"#utility.yul\":3184:3248   */\n          tag_34\n          jump\t// in\n        tag_68:\n            /* \"#utility.yul\":3174:3248   */\n          swap2\n          pop\n            /* \"#utility.yul\":3128:3258   */\n          pop\n            /* \"#utility.yul\":1548:3265   */\n          swap3\n          swap6\n          swap9\n          pop\n          swap3\n          swap6\n          swap9\n          pop\n          swap3\n          swap6\n          swap9\n          jump\t// out\n            /* \"#utility.yul\":3271:3400   */\n        tag_30:\n          0x00\n            /* \"#utility.yul\":3332:3352   */\n          tag_70\n          tag_71\n          jump\t// in\n        tag_70:\n            /* \"#utility.yul\":3322:3352   */\n          swap1\n          pop\n            /* \"#utility.yul\":3361:3394   */\n          tag_72\n            /* \"#utility.yul\":3389:3393   */\n          dup3\n            /* \"#utility.yul\":3381:3387   */\n          dup3\n            /* \"#utility.yul\":3361:3394   */\n          tag_73\n          jump\t// in\n        tag_72:\n            /* \"#utility.yul\":3312:3400   */\n          swap2\n          swap1\n          pop\n          jump\t// out\n            /* \"#utility.yul\":3406:3481   */\n        tag_71:\n          0x00\n            /* \"#utility.yul\":3472:3474   */\n          0x40\n            /* \"#utility.yul\":3466:3475   */\n          mload\n            /* \"#utility.yul\":3456:3475   */\n          swap1\n          pop\n            /* \"#utility.yul\":3446:3481   */\n          swap1\n          jump\t// out\n            /* \"#utility.yul\":3487:3795   */\n        tag_29:\n          0x00\n            /* \"#utility.yul\":3639:3657   */\n          0xffffffffffffffff\n            /* \"#utility.yul\":3631:3637   */\n          dup3\n            /* \"#utility.yul\":3628:3658   */\n          gt\n            /* \"#utility.yul\":3625:3627   */\n          iszero\n          tag_76\n          jumpi\n            /* \"#utility.yul\":3661:3679   */\n          tag_77\n          tag_78\n          jump\t// in\n        tag_77:\n            /* \"#utility.yul\":3625:3627   */\n        tag_76:\n            /* \"#utility.yul\":3699:3728   */\n          tag_79\n            /* \"#utility.yul\":3721:3727   */\n          dup3\n            /* \"#utility.yul\":3699:3728   */\n          tag_80\n          jump\t// in\n        tag_79:\n            /* \"#utility.yul\":3691:3728   */\n          swap1\n          pop\n            /* \"#utility.yul\":3783:3787   */\n          0x20\n            /* \"#utility.yul\":3777:3781   */\n          dup2\n            /* \"#utility.yul\":3773:3788   */\n          add\n            /* \"#utility.yul\":3765:3788   */\n          swap1\n          pop\n            /* \"#utility.yul\":3554:3795   */\n          swap2\n          swap1\n          pop\n          jump\t// out\n            /* \"#utility.yul\":3801:3897   */\n        tag_81:\n          0x00\n            /* \"#utility.yul\":3867:3891   */\n          tag_83\n            /* \"#utility.yul\":3885:3890   */\n          dup3\n            /* \"#utility.yul\":3867:3891   */\n          tag_84\n          jump\t// in\n        tag_83:\n            /* \"#utility.yul\":3856:3891   */\n          swap1\n          pop\n            /* \"#utility.yul\":3846:3897   */\n          swap2\n          swap1\n          pop\n          jump\t// out\n            /* \"#utility.yul\":3903:3993   */\n        tag_85:\n          0x00\n            /* \"#utility.yul\":3980:3985   */\n          dup2\n            /* \"#utility.yul\":3973:3986   */\n          iszero\n            /* \"#utility.yul\":3966:3987   */\n          iszero\n            /* \"#utility.yul\":3955:3987   */\n          swap1\n          pop\n            /* \"#utility.yul\":3945:3993   */\n          swap2\n          swap1\n          pop\n          jump\t// out\n            /* \"#utility.yul\":3999:4125   */\n        tag_84:\n          0x00\n            /* \"#utility.yul\":4076:4118   */\n          0xffffffffffffffffffffffffffffffffffffffff\n            /* \"#utility.yul\":4069:4074   */\n          dup3\n            /* \"#utility.yul\":4065:4119   */\n          and\n            /* \"#utility.yul\":4054:4119   */\n          swap1\n          pop\n            /* \"#utility.yul\":4044:4125   */\n          swap2\n          swap1\n          pop\n          jump\t// out\n            /* \"#utility.yul\":4131:4208   */\n        tag_88:\n          0x00\n            /* \"#utility.yul\":4197:4202   */\n          dup2\n            /* \"#utility.yul\":4186:4202   */\n          swap1\n          pop\n            /* \"#utility.yul\":4176:4208   */\n          swap2\n          swap1\n          pop\n          jump\t// out\n            /* \"#utility.yul\":4214:4521   */\n        tag_33:\n            /* \"#utility.yul\":4282:4283   */\n          0x00\n            /* \"#utility.yul\":4292:4405   */\n        tag_91:\n            /* \"#utility.yul\":4306:4312   */\n          dup4\n            /* \"#utility.yul\":4303:4304   */\n          dup2\n            /* \"#utility.yul\":4300:4313   */\n          lt\n            /* \"#utility.yul\":4292:4405   */\n          iszero\n          tag_93\n          jumpi\n            /* \"#utility.yul\":4391:4392   */\n          dup1\n            /* \"#utility.yul\":4386:4389   */\n          dup3\n            /* \"#utility.yul\":4382:4393   */\n          add\n            /* \"#utility.yul\":4376:4394   */\n          mload\n            /* \"#utility.yul\":4372:4373   */\n          dup2\n            /* \"#utility.yul\":4367:4370   */\n          dup5\n            /* \"#utility.yul\":4363:4374   */\n          add\n            /* \"#utility.yul\":4356:4395   */\n          mstore\n            /* \"#utility.yul\":4328:4330   */\n          0x20\n            /* \"#utility.yul\":4325:4326   */\n          dup2\n            /* \"#utility.yul\":4321:4331   */\n          add\n            /* \"#utility.yul\":4316:4331   */\n          swap1\n          pop\n            /* \"#utility.yul\":4292:4405   */\n          jump(tag_91)\n        tag_93:\n            /* \"#utility.yul\":4423:4429   */\n          dup4\n            /* \"#utility.yul\":4420:4421   */\n          dup2\n            /* \"#utility.yul\":4417:4430   */\n          gt\n            /* \"#utility.yul\":4414:4416   */\n          iszero\n          tag_94\n          jumpi\n            /* \"#utility.yul\":4503:4504   */\n          0x00\n            /* \"#utility.yul\":4494:4500   */\n          dup5\n            /* \"#utility.yul\":4489:4492   */\n          dup5\n            /* \"#utility.yul\":4485:4501   */\n          add\n            /* \"#utility.yul\":4478:4505   */\n          mstore\n            /* \"#utility.yul\":4414:4416   */\n        tag_94:\n            /* \"#utility.yul\":4263:4521   */\n          pop\n          pop\n          pop\n          pop\n          jump\t// out\n            /* \"#utility.yul\":4527:4847   */\n        tag_14:\n          0x00\n            /* \"#utility.yul\":4608:4609   */\n          0x02\n            /* \"#utility.yul\":4602:4606   */\n          dup3\n            /* \"#utility.yul\":4598:4610   */\n          div\n            /* \"#utility.yul\":4588:4610   */\n          swap1\n          pop\n            /* \"#utility.yul\":4655:4656   */\n          0x01\n            /* \"#utility.yul\":4649:4653   */\n          dup3\n            /* \"#utility.yul\":4645:4657   */\n          and\n            /* \"#utility.yul\":4676:4694   */\n          dup1\n            /* \"#utility.yul\":4666:4668   */\n          tag_96\n          jumpi\n            /* \"#utility.yul\":4732:4736   */\n          0x7f\n            /* \"#utility.yul\":4724:4730   */\n          dup3\n            /* \"#utility.yul\":4720:4737   */\n          and\n            /* \"#utility.yul\":4710:4737   */\n          swap2\n          pop\n            /* \"#utility.yul\":4666:4668   */\n        tag_96:\n            /* \"#utility.yul\":4794:4796   */\n          0x20\n            /* \"#utility.yul\":4786:4792   */\n          dup3\n            /* \"#utility.yul\":4783:4797   */\n          lt\n            /* \"#utility.yul\":4763:4781   */\n          dup2\n            /* \"#utility.yul\":4760:4798   */\n          eq\n            /* \"#utility.yul\":4757:4759   */\n          iszero\n          tag_97\n          jumpi\n            /* \"#utility.yul\":4813:4831   */\n          tag_98\n          tag_99\n          jump\t// in\n        tag_98:\n            /* \"#utility.yul\":4757:4759   */\n        tag_97:\n            /* \"#utility.yul\":4578:4847   */\n          pop\n          swap2\n          swap1\n          pop\n          jump\t// out\n            /* \"#utility.yul\":4853:5134   */\n        tag_73:\n            /* \"#utility.yul\":4936:4963   */\n          tag_101\n            /* \"#utility.yul\":4958:4962   */\n          dup3\n            /* \"#utility.yul\":4936:4963   */\n          tag_80\n          jump\t// in\n        tag_101:\n            /* \"#utility.yul\":4928:4934   */\n          dup2\n            /* \"#utility.yul\":4924:4964   */\n          add\n            /* \"#utility.yul\":5066:5072   */\n          dup2\n            /* \"#utility.yul\":5054:5064   */\n          dup2\n            /* \"#utility.yul\":5051:5073   */\n          lt\n            /* \"#utility.yul\":5030:5048   */\n          0xffffffffffffffff\n            /* \"#utility.yul\":5018:5028   */\n          dup3\n            /* \"#utility.yul\":5015:5049   */\n          gt\n            /* \"#utility.yul\":5012:5074   */\n          or\n            /* \"#utility.yul\":5009:5011   */\n          iszero\n          tag_102\n          jumpi\n            /* \"#utility.yul\":5077:5095   */\n          tag_103\n          tag_78\n          jump\t// in\n        tag_103:\n            /* \"#utility.yul\":5009:5011   */\n        tag_102:\n            /* \"#utility.yul\":5117:5127   */\n          dup1\n            /* \"#utility.yul\":5113:5115   */\n          0x40\n            /* \"#utility.yul\":5106:5128   */\n          mstore\n            /* \"#utility.yul\":4896:5134   */\n          pop\n          pop\n          pop\n          jump\t// out\n            /* \"#utility.yul\":5140:5320   */\n        tag_99:\n            /* \"#utility.yul\":5188:5265   */\n          0x4e487b7100000000000000000000000000000000000000000000000000000000\n            /* \"#utility.yul\":5185:5186   */\n          0x00\n            /* \"#utility.yul\":5178:5266   */\n          mstore\n            /* \"#utility.yul\":5285:5289   */\n          0x22\n            /* \"#utility.yul\":5282:5283   */\n          0x04\n            /* \"#utility.yul\":5275:5290   */\n          mstore\n            /* \"#utility.yul\":5309:5313   */\n          0x24\n            /* \"#utility.yul\":5306:5307   */\n          0x00\n            /* \"#utility.yul\":5299:5314   */\n          revert\n            /* \"#utility.yul\":5326:5506   */\n        tag_78:\n            /* \"#utility.yul\":5374:5451   */\n          0x4e487b7100000000000000000000000000000000000000000000000000000000\n            /* \"#utility.yul\":5371:5372   */\n          0x00\n            /* \"#utility.yul\":5364:5452   */\n          mstore\n            /* \"#utility.yul\":5471:5475   */\n          0x41\n            /* \"#utility.yul\":5468:5469   */\n          0x04\n            /* \"#utility.yul\":5461:5476   */\n          mstore\n            /* \"#utility.yul\":5495:5499   */\n          0x24\n            /* \"#utility.yul\":5492:5493   */\n          0x00\n            /* \"#utility.yul\":5485:5500   */\n          revert\n            /* \"#utility.yul\":5512:5614   */\n        tag_80:\n          0x00\n            /* \"#utility.yul\":5604:5606   */\n          0x1f\n            /* \"#utility.yul\":5600:5607   */\n          not\n            /* \"#utility.yul\":5595:5597   */\n          0x1f\n            /* \"#utility.yul\":5588:5593   */\n          dup4\n            /* \"#utility.yul\":5584:5598   */\n          add\n            /* \"#utility.yul\":5580:5608   */\n          and\n            /* \"#utility.yul\":5570:5608   */\n          swap1\n          pop\n            /* \"#utility.yul\":5560:5614   */\n          swap2\n          swap1\n          pop\n          jump\t// out\n            /* \"#utility.yul\":5620:5742   */\n        tag_37:\n            /* \"#utility.yul\":5693:5717   */\n          tag_108\n            /* \"#utility.yul\":5711:5716   */\n          dup2\n            /* \"#utility.yul\":5693:5717   */\n          tag_81\n          jump\t// in\n        tag_108:\n            /* \"#utility.yul\":5686:5691   */\n          dup2\n            /* \"#utility.yul\":5683:5718   */\n          eq\n            /* \"#utility.yul\":5673:5675   */\n          tag_109\n          jumpi\n            /* \"#utility.yul\":5732:5733   */\n          0x00\n            /* \"#utility.yul\":5729:5730   */\n          dup1\n            /* \"#utility.yul\":5722:5734   */\n          revert\n            /* \"#utility.yul\":5673:5675   */\n        tag_109:\n            /* \"#utility.yul\":5663:5742   */\n          pop\n          jump\t// out\n            /* \"#utility.yul\":5748:5864   */\n        tag_41:\n            /* \"#utility.yul\":5818:5839   */\n          tag_111\n            /* \"#utility.yul\":5833:5838   */\n          dup2\n            /* \"#utility.yul\":5818:5839   */\n          tag_85\n          jump\t// in\n        tag_111:\n            /* \"#utility.yul\":5811:5816   */\n          dup2\n            /* \"#utility.yul\":5808:5840   */\n          eq\n            /* \"#utility.yul\":5798:5800   */\n          tag_112\n          jumpi\n            /* \"#utility.yul\":5854:5855   */\n          0x00\n            /* \"#utility.yul\":5851:5852   */\n          dup1\n            /* \"#utility.yul\":5844:5856   */\n          revert\n            /* \"#utility.yul\":5798:5800   */\n        tag_112:\n            /* \"#utility.yul\":5788:5864   */\n          pop\n          jump\t// out\n            /* \"#utility.yul\":5870:5980   */\n        tag_45:\n            /* \"#utility.yul\":5954:5955   */\n          0x07\n            /* \"#utility.yul\":5947:5952   */\n          dup2\n            /* \"#utility.yul\":5944:5956   */\n          lt\n            /* \"#utility.yul\":5934:5936   */\n          tag_114\n          jumpi\n            /* \"#utility.yul\":5970:5971   */\n          0x00\n            /* \"#utility.yul\":5967:5968   */\n          dup1\n            /* \"#utility.yul\":5960:5972   */\n          revert\n            /* \"#utility.yul\":5934:5936   */\n        tag_114:\n            /* \"#utility.yul\":5924:5980   */\n          pop\n          jump\t// out\n            /* \"#utility.yul\":5986:6108   */\n        tag_53:\n            /* \"#utility.yul\":6059:6083   */\n          tag_116\n            /* \"#utility.yul\":6077:6082   */\n          dup2\n            /* \"#utility.yul\":6059:6083   */\n          tag_88\n          jump\t// in\n        tag_116:\n            /* \"#utility.yul\":6052:6057   */\n          dup2\n            /* \"#utility.yul\":6049:6084   */\n          eq\n            /* \"#utility.yul\":6039:6041   */\n          tag_117\n          jumpi\n            /* \"#utility.yul\":6098:6099   */\n          0x00\n            /* \"#utility.yul\":6095:6096   */\n          dup1\n            /* \"#utility.yul\":6088:6100   */\n          revert\n            /* \"#utility.yul\":6039:6041   */\n        tag_117:\n            /* \"#utility.yul\":6029:6108   */\n          pop\n          jump\t// out\n            /* \"Idea.sol\":822:4948  contract Idea {... */\n        tag_12:\n          dataSize(sub_0)\n          dup1\n          dataOffset(sub_0)\n          0x00\n          codecopy\n          0x00\n          return\n        stop\n\n        sub_0: assembly {\n                /* \"Idea.sol\":822:4948  contract Idea {... */\n              mstore(0x40, 0x80)\n              jumpi(tag_1, lt(calldatasize, 0x04))\n              shr(0xe0, calldataload(0x00))\n              dup1\n              0x7284e416\n              gt\n              tag_22\n              jumpi\n              dup1\n              0xb90497e0\n              gt\n              tag_23\n              jumpi\n              dup1\n              0xb90497e0\n              eq\n              tag_17\n              jumpi\n              dup1\n              0xd1070133\n              eq\n              tag_18\n              jumpi\n              dup1\n              0xd7bb99ba\n              eq\n              tag_19\n              jumpi\n              dup1\n              0xd7d1bbdb\n              eq\n              tag_20\n              jumpi\n              dup1\n              0xef430aa6\n              eq\n              tag_21\n              jumpi\n              jump(tag_1)\n            tag_23:\n              dup1\n              0x7284e416\n              eq\n              tag_12\n              jumpi\n              dup1\n              0x7554e42f\n              eq\n              tag_13\n              jumpi\n              dup1\n              0x81d12c58\n              eq\n              tag_14\n              jumpi\n              dup1\n              0x8a9cfd55\n              eq\n              tag_15\n              jumpi\n              dup1\n              0x9fb42b1f\n              eq\n              tag_16\n              jumpi\n              jump(tag_1)\n            tag_22:\n              dup1\n              0x26540fd2\n              gt\n              tag_24\n              jumpi\n              dup1\n              0x26540fd2\n              eq\n              tag_7\n              jumpi\n              dup1\n              0x4051ddac\n              eq\n              tag_8\n              jumpi\n              dup1\n              0x481c6a75\n              eq\n              tag_9\n              jumpi\n              dup1\n              0x59af7a13\n              eq\n              tag_10\n              jumpi\n              dup1\n              0x6a24a938\n              eq\n              tag_11\n              jumpi\n              jump(tag_1)\n            tag_24:\n              dup1\n              0x03441006\n              eq\n              tag_2\n              jumpi\n              dup1\n              0x06fdde03\n              eq\n              tag_3\n              jumpi\n              dup1\n              0x09e7d837\n              eq\n              tag_4\n              jumpi\n              dup1\n              0x0a144391\n              eq\n              tag_5\n              jumpi\n              dup1\n              0x1da98960\n              eq\n              tag_6\n              jumpi\n            tag_1:\n              0x00\n              dup1\n              revert\n                /* \"Idea.sol\":3790:4084  function finalizeRequest(uint256 index) public allowOnlyManager {... */\n            tag_2:\n              callvalue\n              dup1\n              iszero\n              tag_25\n              jumpi\n              0x00\n              dup1\n              revert\n            tag_25:\n              pop\n              tag_26\n              0x04\n              dup1\n              calldatasize\n              sub\n              dup2\n              add\n              swap1\n              tag_27\n              swap2\n              swap1\n              tag_28\n              jump\t// in\n            tag_27:\n              tag_29\n              jump\t// in\n            tag_26:\n              stop\n                /* \"Idea.sol\":1227:1245  string public name */\n            tag_3:\n              callvalue\n              dup1\n              iszero\n              tag_30\n              jumpi\n              0x00\n              dup1\n              revert\n            tag_30:\n              pop\n              tag_31\n              tag_32\n              jump\t// in\n            tag_31:\n              mload(0x40)\n              tag_33\n              swap2\n              swap1\n              tag_34\n              jump\t// in\n            tag_33:\n              mload(0x40)\n              dup1\n              swap2\n              sub\n              swap1\n              return\n                /* \"Idea.sol\":1694:1718  uint256 public reachGoal */\n            tag_4:\n              callvalue\n              dup1\n              iszero\n              tag_35\n              jumpi\n              0x00\n              dup1\n              revert\n            tag_35:\n              pop\n              tag_36\n              tag_37\n              jump\t// in\n            tag_36:\n              mload(0x40)\n              tag_38\n              swap2\n              swap1\n              tag_39\n              jump\t// in\n            tag_38:\n              mload(0x40)\n              dup1\n              swap2\n              sub\n              swap1\n              return\n                /* \"Idea.sol\":1579:1623  mapping(address => uint256) public approvers */\n            tag_5:\n              callvalue\n              dup1\n              iszero\n              tag_40\n              jumpi\n              0x00\n              dup1\n              revert\n            tag_40:\n              pop\n              tag_41\n              0x04\n              dup1\n              calldatasize\n              sub\n              dup2\n              add\n              swap1\n              tag_42\n              swap2\n              swap1\n              tag_43\n              jump\t// in\n            tag_42:\n              tag_44\n              jump\t// in\n            tag_41:\n              mload(0x40)\n              tag_45\n              swap2\n              swap1\n              tag_39\n              jump\t// in\n            tag_45:\n              mload(0x40)\n              dup1\n              swap2\n              sub\n              swap1\n              return\n                /* \"Idea.sol\":1251:1281  string public shortDescription */\n            tag_6:\n              callvalue\n              dup1\n              iszero\n              tag_46\n              jumpi\n              0x00\n              dup1\n              revert\n            tag_46:\n              pop\n              tag_47\n              tag_48\n              jump\t// in\n            tag_47:\n              mload(0x40)\n              tag_49\n              swap2\n              swap1\n              tag_34\n              jump\t// in\n            tag_49:\n              mload(0x40)\n              dup1\n              swap2\n              sub\n              swap1\n              return\n                /* \"Idea.sol\":1665:1687  uint256 public credits */\n            tag_7:\n              callvalue\n              dup1\n              iszero\n              tag_50\n              jumpi\n              0x00\n              dup1\n              revert\n            tag_50:\n              pop\n              tag_51\n              tag_52\n              jump\t// in\n            tag_51:\n              mload(0x40)\n              tag_53\n              swap2\n              swap1\n              tag_39\n              jump\t// in\n            tag_53:\n              mload(0x40)\n              dup1\n              swap2\n              sub\n              swap1\n              return\n                /* \"Idea.sol\":4090:4621  function getSummary()... */\n            tag_8:\n              callvalue\n              dup1\n              iszero\n              tag_54\n              jumpi\n              0x00\n              dup1\n              revert\n            tag_54:\n              pop\n              tag_55\n              tag_56\n              jump\t// in\n            tag_55:\n              mload(0x40)\n              tag_57\n              swap10\n              swap9\n              swap8\n              swap7\n              swap6\n              swap5\n              swap4\n              swap3\n              swap2\n              swap1\n              tag_58\n              jump\t// in\n            tag_57:\n              mload(0x40)\n              dup1\n              swap2\n              sub\n              swap1\n              return\n                /* \"Idea.sol\":1511:1533  address public manager */\n            tag_9:\n              callvalue\n              dup1\n              iszero\n              tag_59\n              jumpi\n              0x00\n              dup1\n              revert\n            tag_59:\n              pop\n              tag_60\n              tag_61\n              jump\t// in\n            tag_60:\n              mload(0x40)\n              tag_62\n              swap2\n              swap1\n              tag_63\n              jump\t// in\n            tag_62:\n              mload(0x40)\n              dup1\n              swap2\n              sub\n              swap1\n              return\n                /* \"Idea.sol\":1630:1659  uint256 public oneCreditValue */\n            tag_10:\n              callvalue\n              dup1\n              iszero\n              tag_64\n              jumpi\n              0x00\n              dup1\n              revert\n            tag_64:\n              pop\n              tag_65\n              tag_66\n              jump\t// in\n            tag_65:\n              mload(0x40)\n              tag_67\n              swap2\n              swap1\n              tag_39\n              jump\t// in\n            tag_67:\n              mload(0x40)\n              dup1\n              swap2\n              sub\n              swap1\n              return\n                /* \"Idea.sol\":4631:4946  function getMoreDetails()... */\n            tag_11:\n              callvalue\n              dup1\n              iszero\n              tag_68\n              jumpi\n              0x00\n              dup1\n              revert\n            tag_68:\n              pop\n              tag_69\n              tag_70\n              jump\t// in\n            tag_69:\n              mload(0x40)\n              tag_71\n              swap5\n              swap4\n              swap3\n              swap2\n              swap1\n              tag_72\n              jump\t// in\n            tag_71:\n              mload(0x40)\n              dup1\n              swap2\n              sub\n              swap1\n              return\n                /* \"Idea.sol\":1287:1312  string public description */\n            tag_12:\n              callvalue\n              dup1\n              iszero\n              tag_73\n              jumpi\n              0x00\n              dup1\n              revert\n            tag_73:\n              pop\n              tag_74\n              tag_75\n              jump\t// in\n            tag_74:\n              mload(0x40)\n              tag_76\n              swap2\n              swap1\n              tag_34\n              jump\t// in\n            tag_76:\n              mload(0x40)\n              dup1\n              swap2\n              sub\n              swap1\n              return\n                /* \"Idea.sol\":1540:1573  uint256 public numUniqueApprovers */\n            tag_13:\n              callvalue\n              dup1\n              iszero\n              tag_77\n              jumpi\n              0x00\n              dup1\n              revert\n            tag_77:\n              pop\n              tag_78\n              tag_79\n              jump\t// in\n            tag_78:\n              mload(0x40)\n              tag_80\n              swap2\n              swap1\n              tag_39\n              jump\t// in\n            tag_80:\n              mload(0x40)\n              dup1\n              swap2\n              sub\n              swap1\n              return\n                /* \"Idea.sol\":1461:1504  mapping(uint256 => Request) public requests */\n            tag_14:\n              callvalue\n              dup1\n              iszero\n              tag_81\n              jumpi\n              0x00\n              dup1\n              revert\n            tag_81:\n              pop\n              tag_82\n              0x04\n              dup1\n              calldatasize\n              sub\n              dup2\n              add\n              swap1\n              tag_83\n              swap2\n              swap1\n              tag_28\n              jump\t// in\n            tag_83:\n              tag_84\n              jump\t// in\n            tag_82:\n              mload(0x40)\n              tag_85\n              swap7\n              swap6\n              swap5\n              swap4\n              swap3\n              swap2\n              swap1\n              tag_86\n              jump\t// in\n            tag_85:\n              mload(0x40)\n              dup1\n              swap2\n              sub\n              swap1\n              return\n                /* \"Idea.sol\":3078:3483  function createRequest(... */\n            tag_15:\n              callvalue\n              dup1\n              iszero\n              tag_87\n              jumpi\n              0x00\n              dup1\n              revert\n            tag_87:\n              pop\n              tag_88\n              0x04\n              dup1\n              calldatasize\n              sub\n              dup2\n              add\n              swap1\n              tag_89\n              swap2\n              swap1\n              tag_90\n              jump\t// in\n            tag_89:\n              tag_91\n              jump\t// in\n            tag_88:\n              stop\n                /* \"Idea.sol\":1429:1455  uint256 public numRequests */\n            tag_16:\n              callvalue\n              dup1\n              iszero\n              tag_92\n              jumpi\n              0x00\n              dup1\n              revert\n            tag_92:\n              pop\n              tag_93\n              tag_94\n              jump\t// in\n            tag_93:\n              mload(0x40)\n              tag_95\n              swap2\n              swap1\n              tag_39\n              jump\t// in\n            tag_95:\n              mload(0x40)\n              dup1\n              swap2\n              sub\n              swap1\n              return\n                /* \"Idea.sol\":1318:1340  string public imageURL */\n            tag_17:\n              callvalue\n              dup1\n              iszero\n              tag_96\n              jumpi\n              0x00\n              dup1\n              revert\n            tag_96:\n              pop\n              tag_97\n              tag_98\n              jump\t// in\n            tag_97:\n              mload(0x40)\n              tag_99\n              swap2\n              swap1\n              tag_34\n              jump\t// in\n            tag_99:\n              mload(0x40)\n              dup1\n              swap2\n              sub\n              swap1\n              return\n                /* \"Idea.sol\":1376:1398  bool public isDonation */\n            tag_18:\n              callvalue\n              dup1\n              iszero\n              tag_100\n              jumpi\n              0x00\n              dup1\n              revert\n            tag_100:\n              pop\n              tag_101\n              tag_102\n              jump\t// in\n            tag_101:\n              mload(0x40)\n              tag_103\n              swap2\n              swap1\n              tag_104\n              jump\t// in\n            tag_103:\n              mload(0x40)\n              dup1\n              swap2\n              sub\n              swap1\n              return\n                /* \"Idea.sol\":2495:3072  function contribute() public payable {... */\n            tag_19:\n              tag_105\n              tag_106\n              jump\t// in\n            tag_105:\n              stop\n                /* \"Idea.sol\":3489:3784  function approveRequest(uint256 index) public {... */\n            tag_20:\n              callvalue\n              dup1\n              iszero\n              tag_107\n              jumpi\n              0x00\n              dup1\n              revert\n            tag_107:\n              pop\n              tag_108\n              0x04\n              dup1\n              calldatasize\n              sub\n              dup2\n              add\n              swap1\n              tag_109\n              swap2\n              swap1\n              tag_28\n              jump\t// in\n            tag_109:\n              tag_110\n              jump\t// in\n            tag_108:\n              stop\n                /* \"Idea.sol\":1346:1370  Category public category */\n            tag_21:\n              callvalue\n              dup1\n              iszero\n              tag_111\n              jumpi\n              0x00\n              dup1\n              revert\n            tag_111:\n              pop\n              tag_112\n              tag_113\n              jump\t// in\n            tag_112:\n              mload(0x40)\n              tag_114\n              swap2\n              swap1\n              tag_115\n              jump\t// in\n            tag_114:\n              mload(0x40)\n              dup1\n              swap2\n              sub\n              swap1\n              return\n                /* \"Idea.sol\":3790:4084  function finalizeRequest(uint256 index) public allowOnlyManager {... */\n            tag_29:\n                /* \"Idea.sol\":1785:1792  manager */\n              0x08\n              0x00\n              swap1\n              sload\n              swap1\n              0x0100\n              exp\n              swap1\n              div\n              0xffffffffffffffffffffffffffffffffffffffff\n              and\n                /* \"Idea.sol\":1771:1792  msg.sender == manager */\n              0xffffffffffffffffffffffffffffffffffffffff\n              and\n                /* \"Idea.sol\":1771:1781  msg.sender */\n              caller\n                /* \"Idea.sol\":1771:1792  msg.sender == manager */\n              0xffffffffffffffffffffffffffffffffffffffff\n              and\n              eq\n                /* \"Idea.sol\":1763:1793  require(msg.sender == manager) */\n              tag_117\n              jumpi\n              0x00\n              dup1\n              revert\n            tag_117:\n                /* \"Idea.sol\":3864:3887  Request storage request */\n              0x00\n                /* \"Idea.sol\":3890:3898  requests */\n              0x07\n                /* \"Idea.sol\":3890:3905  requests[index] */\n              0x00\n                /* \"Idea.sol\":3899:3904  index */\n              dup4\n                /* \"Idea.sol\":3890:3905  requests[index] */\n              dup2\n              mstore\n              0x20\n              add\n              swap1\n              dup2\n              mstore\n              0x20\n              add\n              0x00\n              keccak256\n                /* \"Idea.sol\":3864:3905  Request storage request = requests[index] */\n              swap1\n              pop\n                /* \"Idea.sol\":3953:3954  2 */\n              0x02\n                /* \"Idea.sol\":3943:3950  credits */\n              sload(0x0c)\n                /* \"Idea.sol\":3943:3954  credits / 2 */\n              tag_119\n              swap2\n              swap1\n              tag_120\n              jump\t// in\n            tag_119:\n                /* \"Idea.sol\":3924:3931  request */\n              dup2\n                /* \"Idea.sol\":3924:3939  request.credits */\n              0x03\n              add\n              sload\n                /* \"Idea.sol\":3924:3955  request.credits > (credits / 2) */\n              gt\n                /* \"Idea.sol\":3916:3956  require(request.credits > (credits / 2)) */\n              tag_121\n              jumpi\n              0x00\n              dup1\n              revert\n            tag_121:\n                /* \"Idea.sol\":3975:3982  request */\n              dup1\n                /* \"Idea.sol\":3975:3991  request.complete */\n              0x02\n              add\n              0x14\n              swap1\n              sload\n              swap1\n              0x0100\n              exp\n              swap1\n              div\n              0xff\n              and\n                /* \"Idea.sol\":3974:3991  !request.complete */\n              iszero\n                /* \"Idea.sol\":3966:3992  require(!request.complete) */\n              tag_122\n              jumpi\n              0x00\n              dup1\n              revert\n            tag_122:\n                /* \"Idea.sol\":4003:4010  request */\n              dup1\n                /* \"Idea.sol\":4003:4020  request.recipient */\n              0x02\n              add\n              0x00\n              swap1\n              sload\n              swap1\n              0x0100\n              exp\n              swap1\n              div\n              0xffffffffffffffffffffffffffffffffffffffff\n              and\n                /* \"Idea.sol\":4003:4029  request.recipient.transfer */\n              0xffffffffffffffffffffffffffffffffffffffff\n              and\n                /* \"Idea.sol\":4003:4044  request.recipient.transfer(request.value) */\n              0x08fc\n                /* \"Idea.sol\":4030:4037  request */\n              dup3\n                /* \"Idea.sol\":4030:4043  request.value */\n              0x01\n              add\n              sload\n                /* \"Idea.sol\":4003:4044  request.recipient.transfer(request.value) */\n              swap1\n              dup2\n              iszero\n              mul\n              swap1\n              mload(0x40)\n              0x00\n              mload(0x40)\n              dup1\n              dup4\n              sub\n              dup2\n              dup6\n              dup9\n              dup9\n              call\n              swap4\n              pop\n              pop\n              pop\n              pop\n              iszero\n              dup1\n              iszero\n              tag_124\n              jumpi\n              returndatasize\n              0x00\n              dup1\n              returndatacopy\n              revert(0x00, returndatasize)\n            tag_124:\n              pop\n                /* \"Idea.sol\":4073:4077  true */\n              0x01\n                /* \"Idea.sol\":4054:4061  request */\n              dup2\n                /* \"Idea.sol\":4054:4070  request.complete */\n              0x02\n              add\n              0x14\n                /* \"Idea.sol\":4054:4077  request.complete = true */\n              0x0100\n              exp\n              dup2\n              sload\n              dup2\n              0xff\n              mul\n              not\n              and\n              swap1\n              dup4\n              iszero\n              iszero\n              mul\n              or\n              swap1\n              sstore\n              pop\n                /* \"Idea.sol\":1803:1804  _ */\n              pop\n                /* \"Idea.sol\":3790:4084  function finalizeRequest(uint256 index) public allowOnlyManager {... */\n              pop\n              jump\t// out\n                /* \"Idea.sol\":1227:1245  string public name */\n            tag_32:\n              0x00\n              dup1\n              sload\n              tag_125\n              swap1\n              tag_126\n              jump\t// in\n            tag_125:\n              dup1\n              0x1f\n              add\n              0x20\n              dup1\n              swap2\n              div\n              mul\n              0x20\n              add\n              mload(0x40)\n              swap1\n              dup2\n              add\n              0x40\n              mstore\n              dup1\n              swap3\n              swap2\n              swap1\n              dup2\n              dup2\n              mstore\n              0x20\n              add\n              dup3\n              dup1\n              sload\n              tag_127\n              swap1\n              tag_126\n              jump\t// in\n            tag_127:\n              dup1\n              iszero\n              tag_128\n              jumpi\n              dup1\n              0x1f\n              lt\n              tag_129\n              jumpi\n              0x0100\n              dup1\n              dup4\n              sload\n              div\n              mul\n              dup4\n              mstore\n              swap2\n              0x20\n              add\n              swap2\n              jump(tag_128)\n            tag_129:\n              dup3\n              add\n              swap2\n              swap1\n              0x00\n              mstore\n              keccak256(0x00, 0x20)\n              swap1\n            tag_130:\n              dup2\n              sload\n              dup2\n              mstore\n              swap1\n              0x01\n              add\n              swap1\n              0x20\n              add\n              dup1\n              dup4\n              gt\n              tag_130\n              jumpi\n              dup3\n              swap1\n              sub\n              0x1f\n              and\n              dup3\n              add\n              swap2\n            tag_128:\n              pop\n              pop\n              pop\n              pop\n              pop\n              dup2\n              jump\t// out\n                /* \"Idea.sol\":1694:1718  uint256 public reachGoal */\n            tag_37:\n              sload(0x0d)\n              dup2\n              jump\t// out\n                /* \"Idea.sol\":1579:1623  mapping(address => uint256) public approvers */\n            tag_44:\n              mstore(0x20, 0x0a)\n              dup1\n              0x00\n              mstore\n              keccak256(0x00, 0x40)\n              0x00\n              swap2\n              pop\n              swap1\n              pop\n              sload\n              dup2\n              jump\t// out\n                /* \"Idea.sol\":1251:1281  string public shortDescription */\n            tag_48:\n              0x01\n              dup1\n              sload\n              tag_131\n              swap1\n              tag_126\n              jump\t// in\n            tag_131:\n              dup1\n              0x1f\n              add\n              0x20\n              dup1\n              swap2\n              div\n              mul\n              0x20\n              add\n              mload(0x40)\n              swap1\n              dup2\n              add\n              0x40\n              mstore\n              dup1\n              swap3\n              swap2\n              swap1\n              dup2\n              dup2\n              mstore\n              0x20\n              add\n              dup3\n              dup1\n              sload\n              tag_132\n              swap1\n              tag_126\n              jump\t// in\n            tag_132:\n              dup1\n              iszero\n              tag_133\n              jumpi\n              dup1\n              0x1f\n              lt\n              tag_134\n              jumpi\n              0x0100\n              dup1\n              dup4\n              sload\n              div\n              mul\n              dup4\n              mstore\n              swap2\n              0x20\n              add\n              swap2\n              jump(tag_133)\n            tag_134:\n              dup3\n              add\n              swap2\n              swap1\n              0x00\n              mstore\n              keccak256(0x00, 0x20)\n              swap1\n            tag_135:\n              dup2\n              sload\n              dup2\n              mstore\n              swap1\n              0x01\n              add\n              swap1\n              0x20\n              add\n              dup1\n              dup4\n              gt\n              tag_135\n              jumpi\n              dup3\n              swap1\n              sub\n              0x1f\n              and\n              dup3\n              add\n              swap2\n            tag_133:\n              pop\n              pop\n              pop\n              pop\n              pop\n              dup2\n              jump\t// out\n                /* \"Idea.sol\":1665:1687  uint256 public credits */\n            tag_52:\n              sload(0x0c)\n              dup2\n              jump\t// out\n                /* \"Idea.sol\":4090:4621  function getSummary()... */\n            tag_56:\n                /* \"Idea.sol\":4170:4183  string memory */\n              0x60\n                /* \"Idea.sol\":4197:4210  string memory */\n              dup1\n                /* \"Idea.sol\":4224:4237  string memory */\n              0x60\n                /* \"Idea.sol\":4251:4259  Category */\n              0x00\n                /* \"Idea.sol\":4273:4277  bool */\n              dup1\n                /* \"Idea.sol\":4291:4298  uint256 */\n              0x00\n                /* \"Idea.sol\":4312:4319  uint256 */\n              dup1\n                /* \"Idea.sol\":4333:4340  uint256 */\n              0x00\n                /* \"Idea.sol\":4354:4361  uint256 */\n              dup1\n                /* \"Idea.sol\":4407:4411  name */\n              0x00\n                /* \"Idea.sol\":4425:4441  shortDescription */\n              0x01\n                /* \"Idea.sol\":4455:4463  imageURL */\n              0x03\n                /* \"Idea.sol\":4477:4485  category */\n              0x04\n              0x00\n              swap1\n              sload\n              swap1\n              0x0100\n              exp\n              swap1\n              div\n              0xff\n              and\n                /* \"Idea.sol\":4499:4509  isDonation */\n              0x04\n              0x01\n              swap1\n              sload\n              swap1\n              0x0100\n              exp\n              swap1\n              div\n              0xff\n              and\n                /* \"Idea.sol\":4523:4537  oneCreditValue */\n              sload(0x0b)\n                /* \"Idea.sol\":4551:4558  credits */\n              sload(0x0c)\n                /* \"Idea.sol\":4572:4581  createdAt */\n              sload(0x05)\n                /* \"Idea.sol\":4595:4604  reachGoal */\n              sload(0x0d)\n                /* \"Idea.sol\":4386:4614  return (... */\n              dup9\n              dup1\n              sload\n              tag_137\n              swap1\n              tag_126\n              jump\t// in\n            tag_137:\n              dup1\n              0x1f\n              add\n              0x20\n              dup1\n              swap2\n              div\n              mul\n              0x20\n              add\n              mload(0x40)\n              swap1\n              dup2\n              add\n              0x40\n              mstore\n              dup1\n              swap3\n              swap2\n              swap1\n              dup2\n              dup2\n              mstore\n              0x20\n              add\n              dup3\n              dup1\n              sload\n              tag_138\n              swap1\n              tag_126\n              jump\t// in\n            tag_138:\n              dup1\n              iszero\n              tag_139\n              jumpi\n              dup1\n              0x1f\n              lt\n              tag_140\n              jumpi\n              0x0100\n              dup1\n              dup4\n              sload\n              div\n              mul\n              dup4\n              mstore\n              swap2\n              0x20\n              add\n              swap2\n              jump(tag_139)\n            tag_140:\n              dup3\n              add\n              swap2\n              swap1\n              0x00\n              mstore\n              keccak256(0x00, 0x20)\n              swap1\n            tag_141:\n              dup2\n              sload\n              dup2\n              mstore\n              swap1\n              0x01\n              add\n              swap1\n              0x20\n              add\n              dup1\n              dup4\n              gt\n              tag_141\n              jumpi\n              dup3\n              swap1\n              sub\n              0x1f\n              and\n              dup3\n              add\n              swap2\n            tag_139:\n              pop\n              pop\n              pop\n              pop\n              pop\n              swap9\n              pop\n              dup8\n              dup1\n              sload\n              tag_142\n              swap1\n              tag_126\n              jump\t// in\n            tag_142:\n              dup1\n              0x1f\n              add\n              0x20\n              dup1\n              swap2\n              div\n              mul\n              0x20\n              add\n              mload(0x40)\n              swap1\n              dup2\n              add\n              0x40\n              mstore\n              dup1\n              swap3\n              swap2\n              swap1\n              dup2\n              dup2\n              mstore\n              0x20\n              add\n              dup3\n              dup1\n              sload\n              tag_143\n              swap1\n              tag_126\n              jump\t// in\n            tag_143:\n              dup1\n              iszero\n              tag_144\n              jumpi\n              dup1\n              0x1f\n              lt\n              tag_145\n              jumpi\n              0x0100\n              dup1\n              dup4\n              sload\n              div\n              mul\n              dup4\n              mstore\n              swap2\n              0x20\n              add\n              swap2\n              jump(tag_144)\n            tag_145:\n              dup3\n              add\n              swap2\n              swap1\n              0x00\n              mstore\n              keccak256(0x00, 0x20)\n              swap1\n            tag_146:\n              dup2\n              sload\n              dup2\n              mstore\n              swap1\n              0x01\n              add\n              swap1\n              0x20\n              add\n              dup1\n              dup4\n              gt\n              tag_146\n              jumpi\n              dup3\n              swap1\n              sub\n              0x1f\n              and\n              dup3\n              add\n              swap2\n            tag_144:\n              pop\n              pop\n              pop\n              pop\n              pop\n              swap8\n              pop\n              dup7\n              dup1\n              sload\n              tag_147\n              swap1\n              tag_126\n              jump\t// in\n            tag_147:\n              dup1\n              0x1f\n              add\n              0x20\n              dup1\n              swap2\n              div\n              mul\n              0x20\n              add\n              mload(0x40)\n              swap1\n              dup2\n              add\n              0x40\n              mstore\n              dup1\n              swap3\n              swap2\n              swap1\n              dup2\n              dup2\n              mstore\n              0x20\n              add\n              dup3\n              dup1\n              sload\n              tag_148\n              swap1\n              tag_126\n              jump\t// in\n            tag_148:\n              dup1\n              iszero\n              tag_149\n              jumpi\n              dup1\n              0x1f\n              lt\n              tag_150\n              jumpi\n              0x0100\n              dup1\n              dup4\n              sload\n              div\n              mul\n              dup4\n              mstore\n              swap2\n              0x20\n              add\n              swap2\n              jump(tag_149)\n            tag_150:\n              dup3\n              add\n              swap2\n              swap1\n              0x00\n              mstore\n              keccak256(0x00, 0x20)\n              swap1\n            tag_151:\n              dup2\n              sload\n              dup2\n              mstore\n              swap1\n              0x01\n              add\n              swap1\n              0x20\n              add\n              dup1\n              dup4\n              gt\n              tag_151\n              jumpi\n              dup3\n              swap1\n              sub\n              0x1f\n              and\n              dup3\n              add\n              swap2\n            tag_149:\n              pop\n              pop\n              pop\n              pop\n              pop\n              swap7\n              pop\n              swap9\n              pop\n              swap9\n              pop\n              swap9\n              pop\n              swap9\n              pop\n              swap9\n              pop\n              swap9\n              pop\n              swap9\n              pop\n              swap9\n              pop\n              swap9\n              pop\n                /* \"Idea.sol\":4090:4621  function getSummary()... */\n              swap1\n              swap2\n              swap3\n              swap4\n              swap5\n              swap6\n              swap7\n              swap8\n              swap9\n              jump\t// out\n                /* \"Idea.sol\":1511:1533  address public manager */\n            tag_61:\n              0x08\n              0x00\n              swap1\n              sload\n              swap1\n              0x0100\n              exp\n              swap1\n              div\n              0xffffffffffffffffffffffffffffffffffffffff\n              and\n              dup2\n              jump\t// out\n                /* \"Idea.sol\":1630:1659  uint256 public oneCreditValue */\n            tag_66:\n              sload(0x0b)\n              dup2\n              jump\t// out\n                /* \"Idea.sol\":4631:4946  function getMoreDetails()... */\n            tag_70:\n                /* \"Idea.sol\":4715:4728  string memory */\n              0x60\n                /* \"Idea.sol\":4742:4749  uint256 */\n              0x00\n                /* \"Idea.sol\":4763:4770  uint256 */\n              dup1\n                /* \"Idea.sol\":4784:4791  address */\n              0x00\n                /* \"Idea.sol\":4837:4848  description */\n              0x02\n                /* \"Idea.sol\":4862:4873  numRequests */\n              sload(0x06)\n                /* \"Idea.sol\":4887:4908  address(this).balance */\n              selfbalance\n                /* \"Idea.sol\":4922:4929  manager */\n              0x08\n              0x00\n              swap1\n              sload\n              swap1\n              0x0100\n              exp\n              swap1\n              div\n              0xffffffffffffffffffffffffffffffffffffffff\n              and\n                /* \"Idea.sol\":4816:4939  return (... */\n              dup4\n              dup1\n              sload\n              tag_153\n              swap1\n              tag_126\n              jump\t// in\n            tag_153:\n              dup1\n              0x1f\n              add\n              0x20\n              dup1\n              swap2\n              div\n              mul\n              0x20\n              add\n              mload(0x40)\n              swap1\n              dup2\n              add\n              0x40\n              mstore\n              dup1\n              swap3\n              swap2\n              swap1\n              dup2\n              dup2\n              mstore\n              0x20\n              add\n              dup3\n              dup1\n              sload\n              tag_154\n              swap1\n              tag_126\n              jump\t// in\n            tag_154:\n              dup1\n              iszero\n              tag_155\n              jumpi\n              dup1\n              0x1f\n              lt\n              tag_156\n              jumpi\n              0x0100\n              dup1\n              dup4\n              sload\n              div\n              mul\n              dup4\n              mstore\n              swap2\n              0x20\n              add\n              swap2\n              jump(tag_155)\n            tag_156:\n              dup3\n              add\n              swap2\n              swap1\n              0x00\n              mstore\n              keccak256(0x00, 0x20)\n              swap1\n            tag_157:\n              dup2\n              sload\n              dup2\n              mstore\n              swap1\n              0x01\n              add\n              swap1\n              0x20\n              add\n              dup1\n              dup4\n              gt\n              tag_157\n              jumpi\n              dup3\n              swap1\n              sub\n              0x1f\n              and\n              dup3\n              add\n              swap2\n            tag_155:\n              pop\n              pop\n              pop\n              pop\n              pop\n              swap4\n              pop\n              swap4\n              pop\n              swap4\n              pop\n              swap4\n              pop\n              swap4\n              pop\n                /* \"Idea.sol\":4631:4946  function getMoreDetails()... */\n              swap1\n              swap2\n              swap3\n              swap4\n              jump\t// out\n                /* \"Idea.sol\":1287:1312  string public description */\n            tag_75:\n              0x02\n              dup1\n              sload\n              tag_158\n              swap1\n              tag_126\n              jump\t// in\n            tag_158:\n              dup1\n              0x1f\n              add\n              0x20\n              dup1\n              swap2\n              div\n              mul\n              0x20\n              add\n              mload(0x40)\n              swap1\n              dup2\n              add\n              0x40\n              mstore\n              dup1\n              swap3\n              swap2\n              swap1\n              dup2\n              dup2\n              mstore\n              0x20\n              add\n              dup3\n              dup1\n              sload\n              tag_159\n              swap1\n              tag_126\n              jump\t// in\n            tag_159:\n              dup1\n              iszero\n              tag_160\n              jumpi\n              dup1\n              0x1f\n              lt\n              tag_161\n              jumpi\n              0x0100\n              dup1\n              dup4\n              sload\n              div\n              mul\n              dup4\n              mstore\n              swap2\n              0x20\n              add\n              swap2\n              jump(tag_160)\n            tag_161:\n              dup3\n              add\n              swap2\n              swap1\n              0x00\n              mstore\n              keccak256(0x00, 0x20)\n              swap1\n            tag_162:\n              dup2\n              sload\n              dup2\n              mstore\n              swap1\n              0x01\n              add\n              swap1\n              0x20\n              add\n              dup1\n              dup4\n              gt\n              tag_162\n              jumpi\n              dup3\n              swap1\n              sub\n              0x1f\n              and\n              dup3\n              add\n              swap2\n            tag_160:\n              pop\n              pop\n              pop\n              pop\n              pop\n              dup2\n              jump\t// out\n                /* \"Idea.sol\":1540:1573  uint256 public numUniqueApprovers */\n            tag_79:\n              sload(0x09)\n              dup2\n              jump\t// out\n                /* \"Idea.sol\":1461:1504  mapping(uint256 => Request) public requests */\n            tag_84:\n              mstore(0x20, 0x07)\n              dup1\n              0x00\n              mstore\n              keccak256(0x00, 0x40)\n              0x00\n              swap2\n              pop\n              swap1\n              pop\n              dup1\n              0x00\n              add\n              dup1\n              sload\n              tag_163\n              swap1\n              tag_126\n              jump\t// in\n            tag_163:\n              dup1\n              0x1f\n              add\n              0x20\n              dup1\n              swap2\n              div\n              mul\n              0x20\n              add\n              mload(0x40)\n              swap1\n              dup2\n              add\n              0x40\n              mstore\n              dup1\n              swap3\n              swap2\n              swap1\n              dup2\n              dup2\n              mstore\n              0x20\n              add\n              dup3\n              dup1\n              sload\n              tag_164\n              swap1\n              tag_126\n              jump\t// in\n            tag_164:\n              dup1\n              iszero\n              tag_165\n              jumpi\n              dup1\n              0x1f\n              lt\n              tag_166\n              jumpi\n              0x0100\n              dup1\n              dup4\n              sload\n              div\n              mul\n              dup4\n              mstore\n              swap2\n              0x20\n              add\n              swap2\n              jump(tag_165)\n            tag_166:\n              dup3\n              add\n              swap2\n              swap1\n              0x00\n              mstore\n              keccak256(0x00, 0x20)\n              swap1\n            tag_167:\n              dup2\n              sload\n              dup2\n              mstore\n              swap1\n              0x01\n              add\n              swap1\n              0x20\n              add\n              dup1\n              dup4\n              gt\n              tag_167\n              jumpi\n              dup3\n              swap1\n              sub\n              0x1f\n              and\n              dup3\n              add\n              swap2\n            tag_165:\n              pop\n              pop\n              pop\n              pop\n              pop\n              swap1\n              dup1\n              0x01\n              add\n              sload\n              swap1\n              dup1\n              0x02\n              add\n              0x00\n              swap1\n              sload\n              swap1\n              0x0100\n              exp\n              swap1\n              div\n              0xffffffffffffffffffffffffffffffffffffffff\n              and\n              swap1\n              dup1\n              0x02\n              add\n              0x14\n              swap1\n              sload\n              swap1\n              0x0100\n              exp\n              swap1\n              div\n              0xff\n              and\n              swap1\n              dup1\n              0x03\n              add\n              sload\n              swap1\n              dup1\n              0x04\n              add\n              sload\n              swap1\n              pop\n              dup7\n              jump\t// out\n                /* \"Idea.sol\":3078:3483  function createRequest(... */\n            tag_91:\n                /* \"Idea.sol\":1785:1792  manager */\n              0x08\n              0x00\n              swap1\n              sload\n              swap1\n              0x0100\n              exp\n              swap1\n              div\n              0xffffffffffffffffffffffffffffffffffffffff\n              and\n                /* \"Idea.sol\":1771:1792  msg.sender == manager */\n              0xffffffffffffffffffffffffffffffffffffffff\n              and\n                /* \"Idea.sol\":1771:1781  msg.sender */\n              caller\n                /* \"Idea.sol\":1771:1792  msg.sender == manager */\n              0xffffffffffffffffffffffffffffffffffffffff\n              and\n              eq\n                /* \"Idea.sol\":1763:1793  require(msg.sender == manager) */\n              tag_169\n              jumpi\n              0x00\n              dup1\n              revert\n            tag_169:\n                /* \"Idea.sol\":3241:3258  Request storage r */\n              0x00\n                /* \"Idea.sol\":3261:3269  requests */\n              0x07\n                /* \"Idea.sol\":3261:3284  requests[numRequests++] */\n              0x00\n                /* \"Idea.sol\":3270:3281  numRequests */\n              0x06\n              0x00\n                /* \"Idea.sol\":3270:3283  numRequests++ */\n              dup2\n              sload\n              dup1\n              swap3\n              swap2\n              swap1\n              tag_171\n              swap1\n              tag_172\n              jump\t// in\n            tag_171:\n              swap2\n              swap1\n              pop\n              sstore\n                /* \"Idea.sol\":3261:3284  requests[numRequests++] */\n              dup2\n              mstore\n              0x20\n              add\n              swap1\n              dup2\n              mstore\n              0x20\n              add\n              0x00\n              keccak256\n                /* \"Idea.sol\":3241:3284  Request storage r = requests[numRequests++] */\n              swap1\n              pop\n                /* \"Idea.sol\":3310:3328  requestDescription */\n              dup4\n                /* \"Idea.sol\":3294:3295  r */\n              dup2\n                /* \"Idea.sol\":3294:3307  r.description */\n              0x00\n              add\n                /* \"Idea.sol\":3294:3328  r.description = requestDescription */\n              swap1\n              dup1\n              mload\n              swap1\n              0x20\n              add\n              swap1\n              tag_173\n              swap3\n              swap2\n              swap1\n              tag_174\n              jump\t// in\n            tag_173:\n              pop\n                /* \"Idea.sol\":3348:3353  value */\n              dup3\n                /* \"Idea.sol\":3338:3339  r */\n              dup2\n                /* \"Idea.sol\":3338:3345  r.value */\n              0x01\n              add\n                /* \"Idea.sol\":3338:3353  r.value = value */\n              dup2\n              swap1\n              sstore\n              pop\n                /* \"Idea.sol\":3377:3386  recipient */\n              dup2\n                /* \"Idea.sol\":3363:3364  r */\n              dup2\n                /* \"Idea.sol\":3363:3374  r.recipient */\n              0x02\n              add\n              0x00\n                /* \"Idea.sol\":3363:3386  r.recipient = recipient */\n              0x0100\n              exp\n              dup2\n              sload\n              dup2\n              0xffffffffffffffffffffffffffffffffffffffff\n              mul\n              not\n              and\n              swap1\n              dup4\n              0xffffffffffffffffffffffffffffffffffffffff\n              and\n              mul\n              or\n              swap1\n              sstore\n              pop\n                /* \"Idea.sol\":3409:3414  false */\n              0x00\n                /* \"Idea.sol\":3396:3397  r */\n              dup2\n                /* \"Idea.sol\":3396:3406  r.complete */\n              0x02\n              add\n              0x14\n                /* \"Idea.sol\":3396:3414  r.complete = false */\n              0x0100\n              exp\n              dup2\n              sload\n              dup2\n              0xff\n              mul\n              not\n              and\n              swap1\n              dup4\n              iszero\n              iszero\n              mul\n              or\n              swap1\n              sstore\n              pop\n                /* \"Idea.sol\":3436:3437  0 */\n              0x00\n                /* \"Idea.sol\":3424:3425  r */\n              dup2\n                /* \"Idea.sol\":3424:3433  r.credits */\n              0x03\n              add\n                /* \"Idea.sol\":3424:3437  r.credits = 0 */\n              dup2\n              swap1\n              sstore\n              pop\n                /* \"Idea.sol\":3461:3476  block.timestamp */\n              timestamp\n                /* \"Idea.sol\":3447:3448  r */\n              dup2\n                /* \"Idea.sol\":3447:3458  r.createdAt */\n              0x04\n              add\n                /* \"Idea.sol\":3447:3476  r.createdAt = block.timestamp */\n              dup2\n              swap1\n              sstore\n              pop\n                /* \"Idea.sol\":1803:1804  _ */\n              pop\n                /* \"Idea.sol\":3078:3483  function createRequest(... */\n              pop\n              pop\n              pop\n              jump\t// out\n                /* \"Idea.sol\":1429:1455  uint256 public numRequests */\n            tag_94:\n              sload(0x06)\n              dup2\n              jump\t// out\n                /* \"Idea.sol\":1318:1340  string public imageURL */\n            tag_98:\n              0x03\n              dup1\n              sload\n              tag_175\n              swap1\n              tag_126\n              jump\t// in\n            tag_175:\n              dup1\n              0x1f\n              add\n              0x20\n              dup1\n              swap2\n              div\n              mul\n              0x20\n              add\n              mload(0x40)\n              swap1\n              dup2\n              add\n              0x40\n              mstore\n              dup1\n              swap3\n              swap2\n              swap1\n              dup2\n              dup2\n              mstore\n              0x20\n              add\n              dup3\n              dup1\n              sload\n              tag_176\n              swap1\n              tag_126\n              jump\t// in\n            tag_176:\n              dup1\n              iszero\n              tag_177\n              jumpi\n              dup1\n              0x1f\n              lt\n              tag_178\n              jumpi\n              0x0100\n              dup1\n              dup4\n              sload\n              div\n              mul\n              dup4\n              mstore\n              swap2\n              0x20\n              add\n              swap2\n              jump(tag_177)\n            tag_178:\n              dup3\n              add\n              swap2\n              swap1\n              0x00\n              mstore\n              keccak256(0x00, 0x20)\n              swap1\n            tag_179:\n              dup2\n              sload\n              dup2\n              mstore\n              swap1\n              0x01\n              add\n              swap1\n              0x20\n              add\n              dup1\n              dup4\n              gt\n              tag_179\n              jumpi\n              dup3\n              swap1\n              sub\n              0x1f\n              and\n              dup3\n              add\n              swap2\n            tag_177:\n              pop\n              pop\n              pop\n              pop\n              pop\n              dup2\n              jump\t// out\n                /* \"Idea.sol\":1376:1398  bool public isDonation */\n            tag_102:\n              0x04\n              0x01\n              swap1\n              sload\n              swap1\n              0x0100\n              exp\n              swap1\n              div\n              0xff\n              and\n              dup2\n              jump\t// out\n                /* \"Idea.sol\":2495:3072  function contribute() public payable {... */\n            tag_106:\n                /* \"Idea.sol\":2563:2577  oneCreditValue */\n              sload(0x0b)\n                /* \"Idea.sol\":2550:2559  msg.value */\n              callvalue\n                /* \"Idea.sol\":2550:2577  msg.value >= oneCreditValue */\n              lt\n              iszero\n                /* \"Idea.sol\":2542:2578  require(msg.value >= oneCreditValue) */\n              tag_181\n              jumpi\n              0x00\n              dup1\n              revert\n            tag_181:\n                /* \"Idea.sol\":2618:2619  0 */\n              0x00\n                /* \"Idea.sol\":2593:2602  approvers */\n              0x0a\n                /* \"Idea.sol\":2593:2614  approvers[msg.sender] */\n              0x00\n                /* \"Idea.sol\":2603:2613  msg.sender */\n              caller\n                /* \"Idea.sol\":2593:2614  approvers[msg.sender] */\n              0xffffffffffffffffffffffffffffffffffffffff\n              and\n              0xffffffffffffffffffffffffffffffffffffffff\n              and\n              dup2\n              mstore\n              0x20\n              add\n              swap1\n              dup2\n              mstore\n              0x20\n              add\n              0x00\n              keccak256\n              sload\n                /* \"Idea.sol\":2593:2619  approvers[msg.sender] == 0 */\n              eq\n                /* \"Idea.sol\":2589:2666  if (approvers[msg.sender] == 0) {... */\n              iszero\n              tag_182\n              jumpi\n                /* \"Idea.sol\":2635:2653  numUniqueApprovers */\n              0x09\n              0x00\n                /* \"Idea.sol\":2635:2655  numUniqueApprovers++ */\n              dup2\n              sload\n              dup1\n              swap3\n              swap2\n              swap1\n              tag_183\n              swap1\n              tag_172\n              jump\t// in\n            tag_183:\n              swap2\n              swap1\n              pop\n              sstore\n              pop\n                /* \"Idea.sol\":2589:2666  if (approvers[msg.sender] == 0) {... */\n            tag_182:\n                /* \"Idea.sol\":2676:2689  uint256 value */\n              0x00\n                /* \"Idea.sol\":2704:2718  oneCreditValue */\n              sload(0x0b)\n                /* \"Idea.sol\":2692:2701  msg.value */\n              callvalue\n                /* \"Idea.sol\":2692:2718  msg.value / oneCreditValue */\n              tag_184\n              swap2\n              swap1\n              tag_120\n              jump\t// in\n            tag_184:\n                /* \"Idea.sol\":2676:2718  uint256 value = msg.value / oneCreditValue */\n              swap1\n              pop\n                /* \"Idea.sol\":2753:2758  value */\n              dup1\n                /* \"Idea.sol\":2728:2737  approvers */\n              0x0a\n                /* \"Idea.sol\":2728:2749  approvers[msg.sender] */\n              0x00\n                /* \"Idea.sol\":2738:2748  msg.sender */\n              caller\n                /* \"Idea.sol\":2728:2749  approvers[msg.sender] */\n              0xffffffffffffffffffffffffffffffffffffffff\n              and\n              0xffffffffffffffffffffffffffffffffffffffff\n              and\n              dup2\n              mstore\n              0x20\n              add\n              swap1\n              dup2\n              mstore\n              0x20\n              add\n              0x00\n              keccak256\n              0x00\n                /* \"Idea.sol\":2728:2758  approvers[msg.sender] += value */\n              dup3\n              dup3\n              sload\n              tag_185\n              swap2\n              swap1\n              tag_186\n              jump\t// in\n            tag_185:\n              swap3\n              pop\n              pop\n              dup2\n              swap1\n              sstore\n              pop\n                /* \"Idea.sol\":2779:2784  value */\n              dup1\n                /* \"Idea.sol\":2768:2775  credits */\n              0x0c\n              0x00\n                /* \"Idea.sol\":2768:2784  credits += value */\n              dup3\n              dup3\n              sload\n              tag_187\n              swap2\n              swap1\n              tag_186\n              jump\t// in\n            tag_187:\n              swap3\n              pop\n              pop\n              dup2\n              swap1\n              sstore\n              pop\n                /* \"Idea.sol\":2827:2841  uint256 change */\n              0x00\n                /* \"Idea.sol\":2856:2870  oneCreditValue */\n              sload(0x0b)\n                /* \"Idea.sol\":2844:2853  msg.value */\n              callvalue\n                /* \"Idea.sol\":2844:2870  msg.value % oneCreditValue */\n              tag_188\n              swap2\n              swap1\n              tag_189\n              jump\t// in\n            tag_188:\n                /* \"Idea.sol\":2827:2870  uint256 change = msg.value % oneCreditValue */\n              swap1\n              pop\n                /* \"Idea.sol\":2943:2944  0 */\n              0x00\n                /* \"Idea.sol\":2933:2939  change */\n              dup2\n                /* \"Idea.sol\":2933:2944  change != 0 */\n              eq\n                /* \"Idea.sol\":2929:3066  if (change != 0) {... */\n              tag_190\n              jumpi\n                /* \"Idea.sol\":2960:2989  address payable senderAddress */\n              0x00\n                /* \"Idea.sol\":3000:3010  msg.sender */\n              caller\n                /* \"Idea.sol\":2960:3011  address payable senderAddress = payable(msg.sender) */\n              swap1\n              pop\n                /* \"Idea.sol\":3025:3038  senderAddress */\n              dup1\n                /* \"Idea.sol\":3025:3047  senderAddress.transfer */\n              0xffffffffffffffffffffffffffffffffffffffff\n              and\n                /* \"Idea.sol\":3025:3055  senderAddress.transfer(change) */\n              0x08fc\n                /* \"Idea.sol\":3048:3054  change */\n              dup4\n                /* \"Idea.sol\":3025:3055  senderAddress.transfer(change) */\n              swap1\n              dup2\n              iszero\n              mul\n              swap1\n              mload(0x40)\n              0x00\n              mload(0x40)\n              dup1\n              dup4\n              sub\n              dup2\n              dup6\n              dup9\n              dup9\n              call\n              swap4\n              pop\n              pop\n              pop\n              pop\n              iszero\n              dup1\n              iszero\n              tag_192\n              jumpi\n              returndatasize\n              0x00\n              dup1\n              returndatacopy\n              revert(0x00, returndatasize)\n            tag_192:\n              pop\n                /* \"Idea.sol\":2929:3066  if (change != 0) {... */\n              pop\n            tag_190:\n                /* \"Idea.sol\":2495:3072  function contribute() public payable {... */\n              pop\n              pop\n              jump\t// out\n                /* \"Idea.sol\":3489:3784  function approveRequest(uint256 index) public {... */\n            tag_110:\n                /* \"Idea.sol\":3545:3568  Request storage request */\n              0x00\n                /* \"Idea.sol\":3571:3579  requests */\n              0x07\n                /* \"Idea.sol\":3571:3586  requests[index] */\n              0x00\n                /* \"Idea.sol\":3580:3585  index */\n              dup4\n                /* \"Idea.sol\":3571:3586  requests[index] */\n              dup2\n              mstore\n              0x20\n              add\n              swap1\n              dup2\n              mstore\n              0x20\n              add\n              0x00\n              keccak256\n                /* \"Idea.sol\":3545:3586  Request storage request = requests[index] */\n              swap1\n              pop\n                /* \"Idea.sol\":3629:3630  0 */\n              0x00\n                /* \"Idea.sol\":3605:3614  approvers */\n              0x0a\n                /* \"Idea.sol\":3605:3626  approvers[msg.sender] */\n              0x00\n                /* \"Idea.sol\":3615:3625  msg.sender */\n              caller\n                /* \"Idea.sol\":3605:3626  approvers[msg.sender] */\n              0xffffffffffffffffffffffffffffffffffffffff\n              and\n              0xffffffffffffffffffffffffffffffffffffffff\n              and\n              dup2\n              mstore\n              0x20\n              add\n              swap1\n              dup2\n              mstore\n              0x20\n              add\n              0x00\n              keccak256\n              sload\n                /* \"Idea.sol\":3605:3630  approvers[msg.sender] > 0 */\n              gt\n                /* \"Idea.sol\":3597:3631  require(approvers[msg.sender] > 0) */\n              tag_194\n              jumpi\n              0x00\n              dup1\n              revert\n            tag_194:\n                /* \"Idea.sol\":3650:3657  request */\n              dup1\n                /* \"Idea.sol\":3650:3667  request.approvals */\n              0x05\n              add\n                /* \"Idea.sol\":3650:3679  request.approvals[msg.sender] */\n              0x00\n                /* \"Idea.sol\":3668:3678  msg.sender */\n              caller\n                /* \"Idea.sol\":3650:3679  request.approvals[msg.sender] */\n              0xffffffffffffffffffffffffffffffffffffffff\n              and\n              0xffffffffffffffffffffffffffffffffffffffff\n              and\n              dup2\n              mstore\n              0x20\n              add\n              swap1\n              dup2\n              mstore\n              0x20\n              add\n              0x00\n              keccak256\n              0x00\n              swap1\n              sload\n              swap1\n              0x0100\n              exp\n              swap1\n              div\n              0xff\n              and\n                /* \"Idea.sol\":3649:3679  !request.approvals[msg.sender] */\n              iszero\n                /* \"Idea.sol\":3641:3680  require(!request.approvals[msg.sender]) */\n              tag_195\n              jumpi\n              0x00\n              dup1\n              revert\n            tag_195:\n                /* \"Idea.sol\":3723:3727  true */\n              0x01\n                /* \"Idea.sol\":3691:3698  request */\n              dup2\n                /* \"Idea.sol\":3691:3708  request.approvals */\n              0x05\n              add\n                /* \"Idea.sol\":3691:3720  request.approvals[msg.sender] */\n              0x00\n                /* \"Idea.sol\":3709:3719  msg.sender */\n              caller\n                /* \"Idea.sol\":3691:3720  request.approvals[msg.sender] */\n              0xffffffffffffffffffffffffffffffffffffffff\n              and\n              0xffffffffffffffffffffffffffffffffffffffff\n              and\n              dup2\n              mstore\n              0x20\n              add\n              swap1\n              dup2\n              mstore\n              0x20\n              add\n              0x00\n              keccak256\n              0x00\n                /* \"Idea.sol\":3691:3727  request.approvals[msg.sender] = true */\n              0x0100\n              exp\n              dup2\n              sload\n              dup2\n              0xff\n              mul\n              not\n              and\n              swap1\n              dup4\n              iszero\n              iszero\n              mul\n              or\n              swap1\n              sstore\n              pop\n                /* \"Idea.sol\":3756:3765  approvers */\n              0x0a\n                /* \"Idea.sol\":3756:3777  approvers[msg.sender] */\n              0x00\n                /* \"Idea.sol\":3766:3776  msg.sender */\n              caller\n                /* \"Idea.sol\":3756:3777  approvers[msg.sender] */\n              0xffffffffffffffffffffffffffffffffffffffff\n              and\n              0xffffffffffffffffffffffffffffffffffffffff\n              and\n              dup2\n              mstore\n              0x20\n              add\n              swap1\n              dup2\n              mstore\n              0x20\n              add\n              0x00\n              keccak256\n              sload\n                /* \"Idea.sol\":3737:3744  request */\n              dup2\n                /* \"Idea.sol\":3737:3752  request.credits */\n              0x03\n              add\n              0x00\n                /* \"Idea.sol\":3737:3777  request.credits += approvers[msg.sender] */\n              dup3\n              dup3\n              sload\n              tag_196\n              swap2\n              swap1\n              tag_186\n              jump\t// in\n            tag_196:\n              swap3\n              pop\n              pop\n              dup2\n              swap1\n              sstore\n              pop\n                /* \"Idea.sol\":3489:3784  function approveRequest(uint256 index) public {... */\n              pop\n              pop\n              jump\t// out\n                /* \"Idea.sol\":1346:1370  Category public category */\n            tag_113:\n              0x04\n              0x00\n              swap1\n              sload\n              swap1\n              0x0100\n              exp\n              swap1\n              div\n              0xff\n              and\n              dup2\n              jump\t// out\n            tag_174:\n              dup3\n              dup1\n              sload\n              tag_197\n              swap1\n              tag_126\n              jump\t// in\n            tag_197:\n              swap1\n              0x00\n              mstore\n              keccak256(0x00, 0x20)\n              swap1\n              0x1f\n              add\n              0x20\n              swap1\n              div\n              dup2\n              add\n              swap3\n              dup3\n              tag_199\n              jumpi\n              0x00\n              dup6\n              sstore\n              jump(tag_198)\n            tag_199:\n              dup3\n              0x1f\n              lt\n              tag_200\n              jumpi\n              dup1\n              mload\n              not(0xff)\n              and\n              dup4\n              dup1\n              add\n              or\n              dup6\n              sstore\n              jump(tag_198)\n            tag_200:\n              dup3\n              dup1\n              add\n              0x01\n              add\n              dup6\n              sstore\n              dup3\n              iszero\n              tag_198\n              jumpi\n              swap2\n              dup3\n              add\n            tag_201:\n              dup3\n              dup2\n              gt\n              iszero\n              tag_202\n              jumpi\n              dup3\n              mload\n              dup3\n              sstore\n              swap2\n              0x20\n              add\n              swap2\n              swap1\n              0x01\n              add\n              swap1\n              jump(tag_201)\n            tag_202:\n            tag_198:\n              pop\n              swap1\n              pop\n              tag_203\n              swap2\n              swap1\n              tag_204\n              jump\t// in\n            tag_203:\n              pop\n              swap1\n              jump\t// out\n            tag_204:\n            tag_205:\n              dup1\n              dup3\n              gt\n              iszero\n              tag_206\n              jumpi\n              0x00\n              dup2\n              0x00\n              swap1\n              sstore\n              pop\n              0x01\n              add\n              jump(tag_205)\n            tag_206:\n              pop\n              swap1\n              jump\t// out\n                /* \"#utility.yul\":7:352   */\n            tag_208:\n              0x00\n                /* \"#utility.yul\":110:176   */\n              tag_210\n                /* \"#utility.yul\":126:175   */\n              tag_211\n                /* \"#utility.yul\":168:174   */\n              dup5\n                /* \"#utility.yul\":126:175   */\n              tag_212\n              jump\t// in\n            tag_211:\n                /* \"#utility.yul\":110:176   */\n              tag_213\n              jump\t// in\n            tag_210:\n                /* \"#utility.yul\":101:176   */\n              swap1\n              pop\n                /* \"#utility.yul\":199:205   */\n              dup3\n                /* \"#utility.yul\":192:197   */\n              dup2\n                /* \"#utility.yul\":185:206   */\n              mstore\n                /* \"#utility.yul\":237:241   */\n              0x20\n                /* \"#utility.yul\":230:235   */\n              dup2\n                /* \"#utility.yul\":226:242   */\n              add\n                /* \"#utility.yul\":275:278   */\n              dup5\n                /* \"#utility.yul\":266:272   */\n              dup5\n                /* \"#utility.yul\":261:264   */\n              dup5\n                /* \"#utility.yul\":257:273   */\n              add\n                /* \"#utility.yul\":254:279   */\n              gt\n                /* \"#utility.yul\":251:253   */\n              iszero\n              tag_214\n              jumpi\n                /* \"#utility.yul\":292:293   */\n              0x00\n                /* \"#utility.yul\":289:290   */\n              dup1\n                /* \"#utility.yul\":282:294   */\n              revert\n                /* \"#utility.yul\":251:253   */\n            tag_214:\n                /* \"#utility.yul\":305:346   */\n              tag_215\n                /* \"#utility.yul\":339:345   */\n              dup5\n                /* \"#utility.yul\":334:337   */\n              dup3\n                /* \"#utility.yul\":329:332   */\n              dup6\n                /* \"#utility.yul\":305:346   */\n              tag_216\n              jump\t// in\n            tag_215:\n                /* \"#utility.yul\":91:352   */\n              pop\n              swap4\n              swap3\n              pop\n              pop\n              pop\n              jump\t// out\n                /* \"#utility.yul\":358:497   */\n            tag_217:\n              0x00\n                /* \"#utility.yul\":442:448   */\n              dup2\n                /* \"#utility.yul\":429:449   */\n              calldataload\n                /* \"#utility.yul\":420:449   */\n              swap1\n              pop\n                /* \"#utility.yul\":458:491   */\n              tag_219\n                /* \"#utility.yul\":485:490   */\n              dup2\n                /* \"#utility.yul\":458:491   */\n              tag_220\n              jump\t// in\n            tag_219:\n                /* \"#utility.yul\":410:497   */\n              swap3\n              swap2\n              pop\n              pop\n              jump\t// out\n                /* \"#utility.yul\":503:658   */\n            tag_221:\n              0x00\n                /* \"#utility.yul\":595:601   */\n              dup2\n                /* \"#utility.yul\":582:602   */\n              calldataload\n                /* \"#utility.yul\":573:602   */\n              swap1\n              pop\n                /* \"#utility.yul\":611:652   */\n              tag_223\n                /* \"#utility.yul\":646:651   */\n              dup2\n                /* \"#utility.yul\":611:652   */\n              tag_224\n              jump\t// in\n            tag_223:\n                /* \"#utility.yul\":563:658   */\n              swap3\n              swap2\n              pop\n              pop\n              jump\t// out\n                /* \"#utility.yul\":678:951   */\n            tag_225:\n              0x00\n                /* \"#utility.yul\":783:786   */\n              dup3\n                /* \"#utility.yul\":776:780   */\n              0x1f\n                /* \"#utility.yul\":768:774   */\n              dup4\n                /* \"#utility.yul\":764:781   */\n              add\n                /* \"#utility.yul\":760:787   */\n              slt\n                /* \"#utility.yul\":750:752   */\n              tag_227\n              jumpi\n                /* \"#utility.yul\":801:802   */\n              0x00\n                /* \"#utility.yul\":798:799   */\n              dup1\n                /* \"#utility.yul\":791:803   */\n              revert\n                /* \"#utility.yul\":750:752   */\n            tag_227:\n                /* \"#utility.yul\":841:847   */\n              dup2\n                /* \"#utility.yul\":828:848   */\n              calldataload\n                /* \"#utility.yul\":866:945   */\n              tag_228\n                /* \"#utility.yul\":941:944   */\n              dup5\n                /* \"#utility.yul\":933:939   */\n              dup3\n                /* \"#utility.yul\":926:930   */\n              0x20\n                /* \"#utility.yul\":918:924   */\n              dup7\n                /* \"#utility.yul\":914:931   */\n              add\n                /* \"#utility.yul\":866:945   */\n              tag_208\n              jump\t// in\n            tag_228:\n                /* \"#utility.yul\":857:945   */\n              swap2\n              pop\n                /* \"#utility.yul\":740:951   */\n              pop\n              swap3\n              swap2\n              pop\n              pop\n              jump\t// out\n                /* \"#utility.yul\":957:1096   */\n            tag_229:\n              0x00\n                /* \"#utility.yul\":1041:1047   */\n              dup2\n                /* \"#utility.yul\":1028:1048   */\n              calldataload\n                /* \"#utility.yul\":1019:1048   */\n              swap1\n              pop\n                /* \"#utility.yul\":1057:1090   */\n              tag_231\n                /* \"#utility.yul\":1084:1089   */\n              dup2\n                /* \"#utility.yul\":1057:1090   */\n              tag_232\n              jump\t// in\n            tag_231:\n                /* \"#utility.yul\":1009:1096   */\n              swap3\n              swap2\n              pop\n              pop\n              jump\t// out\n                /* \"#utility.yul\":1102:1364   */\n            tag_43:\n              0x00\n                /* \"#utility.yul\":1210:1212   */\n              0x20\n                /* \"#utility.yul\":1198:1207   */\n              dup3\n                /* \"#utility.yul\":1189:1196   */\n              dup5\n                /* \"#utility.yul\":1185:1208   */\n              sub\n                /* \"#utility.yul\":1181:1213   */\n              slt\n                /* \"#utility.yul\":1178:1180   */\n              iszero\n              tag_234\n              jumpi\n                /* \"#utility.yul\":1226:1227   */\n              0x00\n                /* \"#utility.yul\":1223:1224   */\n              dup1\n                /* \"#utility.yul\":1216:1228   */\n              revert\n                /* \"#utility.yul\":1178:1180   */\n            tag_234:\n                /* \"#utility.yul\":1269:1270   */\n              0x00\n                /* \"#utility.yul\":1294:1347   */\n              tag_235\n                /* \"#utility.yul\":1339:1346   */\n              dup5\n                /* \"#utility.yul\":1330:1336   */\n              dup3\n                /* \"#utility.yul\":1319:1328   */\n              dup6\n                /* \"#utility.yul\":1315:1337   */\n              add\n                /* \"#utility.yul\":1294:1347   */\n              tag_217\n              jump\t// in\n            tag_235:\n                /* \"#utility.yul\":1284:1347   */\n              swap2\n              pop\n                /* \"#utility.yul\":1240:1357   */\n              pop\n                /* \"#utility.yul\":1168:1364   */\n              swap3\n              swap2\n              pop\n              pop\n              jump\t// out\n                /* \"#utility.yul\":1370:2051   */\n            tag_90:\n              0x00\n              dup1\n              0x00\n                /* \"#utility.yul\":1530:1532   */\n              0x60\n                /* \"#utility.yul\":1518:1527   */\n              dup5\n                /* \"#utility.yul\":1509:1516   */\n              dup7\n                /* \"#utility.yul\":1505:1528   */\n              sub\n                /* \"#utility.yul\":1501:1533   */\n              slt\n                /* \"#utility.yul\":1498:1500   */\n              iszero\n              tag_237\n              jumpi\n                /* \"#utility.yul\":1546:1547   */\n              0x00\n                /* \"#utility.yul\":1543:1544   */\n              dup1\n                /* \"#utility.yul\":1536:1548   */\n              revert\n                /* \"#utility.yul\":1498:1500   */\n            tag_237:\n                /* \"#utility.yul\":1617:1618   */\n              0x00\n                /* \"#utility.yul\":1606:1615   */\n              dup5\n                /* \"#utility.yul\":1602:1619   */\n              add\n                /* \"#utility.yul\":1589:1620   */\n              calldataload\n                /* \"#utility.yul\":1647:1665   */\n              0xffffffffffffffff\n                /* \"#utility.yul\":1639:1645   */\n              dup2\n                /* \"#utility.yul\":1636:1666   */\n              gt\n                /* \"#utility.yul\":1633:1635   */\n              iszero\n              tag_238\n              jumpi\n                /* \"#utility.yul\":1679:1680   */\n              0x00\n                /* \"#utility.yul\":1676:1677   */\n              dup1\n                /* \"#utility.yul\":1669:1681   */\n              revert\n                /* \"#utility.yul\":1633:1635   */\n            tag_238:\n                /* \"#utility.yul\":1707:1770   */\n              tag_239\n                /* \"#utility.yul\":1762:1769   */\n              dup7\n                /* \"#utility.yul\":1753:1759   */\n              dup3\n                /* \"#utility.yul\":1742:1751   */\n              dup8\n                /* \"#utility.yul\":1738:1760   */\n              add\n                /* \"#utility.yul\":1707:1770   */\n              tag_225\n              jump\t// in\n            tag_239:\n                /* \"#utility.yul\":1697:1770   */\n              swap4\n              pop\n                /* \"#utility.yul\":1560:1780   */\n              pop\n                /* \"#utility.yul\":1819:1821   */\n              0x20\n                /* \"#utility.yul\":1845:1898   */\n              tag_240\n                /* \"#utility.yul\":1890:1897   */\n              dup7\n                /* \"#utility.yul\":1881:1887   */\n              dup3\n                /* \"#utility.yul\":1870:1879   */\n              dup8\n                /* \"#utility.yul\":1866:1888   */\n              add\n                /* \"#utility.yul\":1845:1898   */\n              tag_229\n              jump\t// in\n            tag_240:\n                /* \"#utility.yul\":1835:1898   */\n              swap3\n              pop\n                /* \"#utility.yul\":1790:1908   */\n              pop\n                /* \"#utility.yul\":1947:1949   */\n              0x40\n                /* \"#utility.yul\":1973:2034   */\n              tag_241\n                /* \"#utility.yul\":2026:2033   */\n              dup7\n                /* \"#utility.yul\":2017:2023   */\n              dup3\n                /* \"#utility.yul\":2006:2015   */\n              dup8\n                /* \"#utility.yul\":2002:2024   */\n              add\n                /* \"#utility.yul\":1973:2034   */\n              tag_221\n              jump\t// in\n            tag_241:\n                /* \"#utility.yul\":1963:2034   */\n              swap2\n              pop\n                /* \"#utility.yul\":1918:2044   */\n              pop\n                /* \"#utility.yul\":1488:2051   */\n              swap3\n              pop\n              swap3\n              pop\n              swap3\n              jump\t// out\n                /* \"#utility.yul\":2057:2319   */\n            tag_28:\n              0x00\n                /* \"#utility.yul\":2165:2167   */\n              0x20\n                /* \"#utility.yul\":2153:2162   */\n              dup3\n                /* \"#utility.yul\":2144:2151   */\n              dup5\n                /* \"#utility.yul\":2140:2163   */\n              sub\n                /* \"#utility.yul\":2136:2168   */\n              slt\n                /* \"#utility.yul\":2133:2135   */\n              iszero\n              tag_243\n              jumpi\n                /* \"#utility.yul\":2181:2182   */\n              0x00\n                /* \"#utility.yul\":2178:2179   */\n              dup1\n                /* \"#utility.yul\":2171:2183   */\n              revert\n                /* \"#utility.yul\":2133:2135   */\n            tag_243:\n                /* \"#utility.yul\":2224:2225   */\n              0x00\n                /* \"#utility.yul\":2249:2302   */\n              tag_244\n                /* \"#utility.yul\":2294:2301   */\n              dup5\n                /* \"#utility.yul\":2285:2291   */\n              dup3\n                /* \"#utility.yul\":2274:2283   */\n              dup6\n                /* \"#utility.yul\":2270:2292   */\n              add\n                /* \"#utility.yul\":2249:2302   */\n              tag_229\n              jump\t// in\n            tag_244:\n                /* \"#utility.yul\":2239:2302   */\n              swap2\n              pop\n                /* \"#utility.yul\":2195:2312   */\n              pop\n                /* \"#utility.yul\":2123:2319   */\n              swap3\n              swap2\n              pop\n              pop\n              jump\t// out\n                /* \"#utility.yul\":2325:2467   */\n            tag_245:\n                /* \"#utility.yul\":2428:2460   */\n              tag_247\n                /* \"#utility.yul\":2454:2459   */\n              dup2\n                /* \"#utility.yul\":2428:2460   */\n              tag_248\n              jump\t// in\n            tag_247:\n                /* \"#utility.yul\":2423:2426   */\n              dup3\n                /* \"#utility.yul\":2416:2461   */\n              mstore\n                /* \"#utility.yul\":2406:2467   */\n              pop\n              pop\n              jump\t// out\n                /* \"#utility.yul\":2473:2591   */\n            tag_249:\n                /* \"#utility.yul\":2560:2584   */\n              tag_251\n                /* \"#utility.yul\":2578:2583   */\n              dup2\n                /* \"#utility.yul\":2560:2584   */\n              tag_252\n              jump\t// in\n            tag_251:\n                /* \"#utility.yul\":2555:2558   */\n              dup3\n                /* \"#utility.yul\":2548:2585   */\n              mstore\n                /* \"#utility.yul\":2538:2591   */\n              pop\n              pop\n              jump\t// out\n                /* \"#utility.yul\":2597:2706   */\n            tag_253:\n                /* \"#utility.yul\":2678:2699   */\n              tag_255\n                /* \"#utility.yul\":2693:2698   */\n              dup2\n                /* \"#utility.yul\":2678:2699   */\n              tag_256\n              jump\t// in\n            tag_255:\n                /* \"#utility.yul\":2673:2676   */\n              dup3\n                /* \"#utility.yul\":2666:2700   */\n              mstore\n                /* \"#utility.yul\":2656:2706   */\n              pop\n              pop\n              jump\t// out\n                /* \"#utility.yul\":2712:2861   */\n            tag_257:\n                /* \"#utility.yul\":2808:2854   */\n              tag_259\n                /* \"#utility.yul\":2848:2853   */\n              dup2\n                /* \"#utility.yul\":2808:2854   */\n              tag_260\n              jump\t// in\n            tag_259:\n                /* \"#utility.yul\":2803:2806   */\n              dup3\n                /* \"#utility.yul\":2796:2855   */\n              mstore\n                /* \"#utility.yul\":2786:2861   */\n              pop\n              pop\n              jump\t// out\n                /* \"#utility.yul\":2867:3231   */\n            tag_261:\n              0x00\n                /* \"#utility.yul\":2983:3022   */\n              tag_263\n                /* \"#utility.yul\":3016:3021   */\n              dup3\n                /* \"#utility.yul\":2983:3022   */\n              tag_264\n              jump\t// in\n            tag_263:\n                /* \"#utility.yul\":3038:3109   */\n              tag_265\n                /* \"#utility.yul\":3102:3108   */\n              dup2\n                /* \"#utility.yul\":3097:3100   */\n              dup6\n                /* \"#utility.yul\":3038:3109   */\n              tag_266\n              jump\t// in\n            tag_265:\n                /* \"#utility.yul\":3031:3109   */\n              swap4\n              pop\n                /* \"#utility.yul\":3118:3170   */\n              tag_267\n                /* \"#utility.yul\":3163:3169   */\n              dup2\n                /* \"#utility.yul\":3158:3161   */\n              dup6\n                /* \"#utility.yul\":3151:3155   */\n              0x20\n                /* \"#utility.yul\":3144:3149   */\n              dup7\n                /* \"#utility.yul\":3140:3156   */\n              add\n                /* \"#utility.yul\":3118:3170   */\n              tag_268\n              jump\t// in\n            tag_267:\n                /* \"#utility.yul\":3195:3224   */\n              tag_269\n                /* \"#utility.yul\":3217:3223   */\n              dup2\n                /* \"#utility.yul\":3195:3224   */\n              tag_270\n              jump\t// in\n            tag_269:\n                /* \"#utility.yul\":3190:3193   */\n              dup5\n                /* \"#utility.yul\":3186:3225   */\n              add\n                /* \"#utility.yul\":3179:3225   */\n              swap2\n              pop\n                /* \"#utility.yul\":2959:3231   */\n              pop\n              swap3\n              swap2\n              pop\n              pop\n              jump\t// out\n                /* \"#utility.yul\":3237:3355   */\n            tag_271:\n                /* \"#utility.yul\":3324:3348   */\n              tag_273\n                /* \"#utility.yul\":3342:3347   */\n              dup2\n                /* \"#utility.yul\":3324:3348   */\n              tag_274\n              jump\t// in\n            tag_273:\n                /* \"#utility.yul\":3319:3322   */\n              dup3\n                /* \"#utility.yul\":3312:3349   */\n              mstore\n                /* \"#utility.yul\":3302:3355   */\n              pop\n              pop\n              jump\t// out\n                /* \"#utility.yul\":3361:3583   */\n            tag_63:\n              0x00\n                /* \"#utility.yul\":3492:3494   */\n              0x20\n                /* \"#utility.yul\":3481:3490   */\n              dup3\n                /* \"#utility.yul\":3477:3495   */\n              add\n                /* \"#utility.yul\":3469:3495   */\n              swap1\n              pop\n                /* \"#utility.yul\":3505:3576   */\n              tag_276\n                /* \"#utility.yul\":3573:3574   */\n              0x00\n                /* \"#utility.yul\":3562:3571   */\n              dup4\n                /* \"#utility.yul\":3558:3575   */\n              add\n                /* \"#utility.yul\":3549:3555   */\n              dup5\n                /* \"#utility.yul\":3505:3576   */\n              tag_249\n              jump\t// in\n            tag_276:\n                /* \"#utility.yul\":3459:3583   */\n              swap3\n              swap2\n              pop\n              pop\n              jump\t// out\n                /* \"#utility.yul\":3589:3799   */\n            tag_104:\n              0x00\n                /* \"#utility.yul\":3714:3716   */\n              0x20\n                /* \"#utility.yul\":3703:3712   */\n              dup3\n                /* \"#utility.yul\":3699:3717   */\n              add\n                /* \"#utility.yul\":3691:3717   */\n              swap1\n              pop\n                /* \"#utility.yul\":3727:3792   */\n              tag_278\n                /* \"#utility.yul\":3789:3790   */\n              0x00\n                /* \"#utility.yul\":3778:3787   */\n              dup4\n                /* \"#utility.yul\":3774:3791   */\n              add\n                /* \"#utility.yul\":3765:3771   */\n              dup5\n                /* \"#utility.yul\":3727:3792   */\n              tag_253\n              jump\t// in\n            tag_278:\n                /* \"#utility.yul\":3681:3799   */\n              swap3\n              swap2\n              pop\n              pop\n              jump\t// out\n                /* \"#utility.yul\":3805:4045   */\n            tag_115:\n              0x00\n                /* \"#utility.yul\":3945:3947   */\n              0x20\n                /* \"#utility.yul\":3934:3943   */\n              dup3\n                /* \"#utility.yul\":3930:3948   */\n              add\n                /* \"#utility.yul\":3922:3948   */\n              swap1\n              pop\n                /* \"#utility.yul\":3958:4038   */\n              tag_280\n                /* \"#utility.yul\":4035:4036   */\n              0x00\n                /* \"#utility.yul\":4024:4033   */\n              dup4\n                /* \"#utility.yul\":4020:4037   */\n              add\n                /* \"#utility.yul\":4011:4017   */\n              dup5\n                /* \"#utility.yul\":3958:4038   */\n              tag_257\n              jump\t// in\n            tag_280:\n                /* \"#utility.yul\":3912:4045   */\n              swap3\n              swap2\n              pop\n              pop\n              jump\t// out\n                /* \"#utility.yul\":4051:4364   */\n            tag_34:\n              0x00\n                /* \"#utility.yul\":4202:4204   */\n              0x20\n                /* \"#utility.yul\":4191:4200   */\n              dup3\n                /* \"#utility.yul\":4187:4205   */\n              add\n                /* \"#utility.yul\":4179:4205   */\n              swap1\n              pop\n                /* \"#utility.yul\":4251:4260   */\n              dup2\n                /* \"#utility.yul\":4245:4249   */\n              dup2\n                /* \"#utility.yul\":4241:4261   */\n              sub\n                /* \"#utility.yul\":4237:4238   */\n              0x00\n                /* \"#utility.yul\":4226:4235   */\n              dup4\n                /* \"#utility.yul\":4222:4239   */\n              add\n                /* \"#utility.yul\":4215:4262   */\n              mstore\n                /* \"#utility.yul\":4279:4357   */\n              tag_282\n                /* \"#utility.yul\":4352:4356   */\n              dup2\n                /* \"#utility.yul\":4343:4349   */\n              dup5\n                /* \"#utility.yul\":4279:4357   */\n              tag_261\n              jump\t// in\n            tag_282:\n                /* \"#utility.yul\":4271:4357   */\n              swap1\n              pop\n                /* \"#utility.yul\":4169:4364   */\n              swap3\n              swap2\n              pop\n              pop\n              jump\t// out\n                /* \"#utility.yul\":4370:5757   */\n            tag_58:\n              0x00\n                /* \"#utility.yul\":4788:4791   */\n              0x0120\n                /* \"#utility.yul\":4777:4786   */\n              dup3\n                /* \"#utility.yul\":4773:4792   */\n              add\n                /* \"#utility.yul\":4765:4792   */\n              swap1\n              pop\n                /* \"#utility.yul\":4838:4847   */\n              dup2\n                /* \"#utility.yul\":4832:4836   */\n              dup2\n                /* \"#utility.yul\":4828:4848   */\n              sub\n                /* \"#utility.yul\":4824:4825   */\n              0x00\n                /* \"#utility.yul\":4813:4822   */\n              dup4\n                /* \"#utility.yul\":4809:4826   */\n              add\n                /* \"#utility.yul\":4802:4849   */\n              mstore\n                /* \"#utility.yul\":4866:4944   */\n              tag_284\n                /* \"#utility.yul\":4939:4943   */\n              dup2\n                /* \"#utility.yul\":4930:4936   */\n              dup13\n                /* \"#utility.yul\":4866:4944   */\n              tag_261\n              jump\t// in\n            tag_284:\n                /* \"#utility.yul\":4858:4944   */\n              swap1\n              pop\n                /* \"#utility.yul\":4991:5000   */\n              dup2\n                /* \"#utility.yul\":4985:4989   */\n              dup2\n                /* \"#utility.yul\":4981:5001   */\n              sub\n                /* \"#utility.yul\":4976:4978   */\n              0x20\n                /* \"#utility.yul\":4965:4974   */\n              dup4\n                /* \"#utility.yul\":4961:4979   */\n              add\n                /* \"#utility.yul\":4954:5002   */\n              mstore\n                /* \"#utility.yul\":5019:5097   */\n              tag_285\n                /* \"#utility.yul\":5092:5096   */\n              dup2\n                /* \"#utility.yul\":5083:5089   */\n              dup12\n                /* \"#utility.yul\":5019:5097   */\n              tag_261\n              jump\t// in\n            tag_285:\n                /* \"#utility.yul\":5011:5097   */\n              swap1\n              pop\n                /* \"#utility.yul\":5144:5153   */\n              dup2\n                /* \"#utility.yul\":5138:5142   */\n              dup2\n                /* \"#utility.yul\":5134:5154   */\n              sub\n                /* \"#utility.yul\":5129:5131   */\n              0x40\n                /* \"#utility.yul\":5118:5127   */\n              dup4\n                /* \"#utility.yul\":5114:5132   */\n              add\n                /* \"#utility.yul\":5107:5155   */\n              mstore\n                /* \"#utility.yul\":5172:5250   */\n              tag_286\n                /* \"#utility.yul\":5245:5249   */\n              dup2\n                /* \"#utility.yul\":5236:5242   */\n              dup11\n                /* \"#utility.yul\":5172:5250   */\n              tag_261\n              jump\t// in\n            tag_286:\n                /* \"#utility.yul\":5164:5250   */\n              swap1\n              pop\n                /* \"#utility.yul\":5260:5341   */\n              tag_287\n                /* \"#utility.yul\":5337:5339   */\n              0x60\n                /* \"#utility.yul\":5326:5335   */\n              dup4\n                /* \"#utility.yul\":5322:5340   */\n              add\n                /* \"#utility.yul\":5313:5319   */\n              dup10\n                /* \"#utility.yul\":5260:5341   */\n              tag_257\n              jump\t// in\n            tag_287:\n                /* \"#utility.yul\":5351:5418   */\n              tag_288\n                /* \"#utility.yul\":5413:5416   */\n              0x80\n                /* \"#utility.yul\":5402:5411   */\n              dup4\n                /* \"#utility.yul\":5398:5417   */\n              add\n                /* \"#utility.yul\":5389:5395   */\n              dup9\n                /* \"#utility.yul\":5351:5418   */\n              tag_253\n              jump\t// in\n            tag_288:\n                /* \"#utility.yul\":5428:5501   */\n              tag_289\n                /* \"#utility.yul\":5496:5499   */\n              0xa0\n                /* \"#utility.yul\":5485:5494   */\n              dup4\n                /* \"#utility.yul\":5481:5500   */\n              add\n                /* \"#utility.yul\":5472:5478   */\n              dup8\n                /* \"#utility.yul\":5428:5501   */\n              tag_271\n              jump\t// in\n            tag_289:\n                /* \"#utility.yul\":5511:5584   */\n              tag_290\n                /* \"#utility.yul\":5579:5582   */\n              0xc0\n                /* \"#utility.yul\":5568:5577   */\n              dup4\n                /* \"#utility.yul\":5564:5583   */\n              add\n                /* \"#utility.yul\":5555:5561   */\n              dup7\n                /* \"#utility.yul\":5511:5584   */\n              tag_271\n              jump\t// in\n            tag_290:\n                /* \"#utility.yul\":5594:5667   */\n              tag_291\n                /* \"#utility.yul\":5662:5665   */\n              0xe0\n                /* \"#utility.yul\":5651:5660   */\n              dup4\n                /* \"#utility.yul\":5647:5666   */\n              add\n                /* \"#utility.yul\":5638:5644   */\n              dup6\n                /* \"#utility.yul\":5594:5667   */\n              tag_271\n              jump\t// in\n            tag_291:\n                /* \"#utility.yul\":5677:5750   */\n              tag_292\n                /* \"#utility.yul\":5745:5748   */\n              0x0100\n                /* \"#utility.yul\":5734:5743   */\n              dup4\n                /* \"#utility.yul\":5730:5749   */\n              add\n                /* \"#utility.yul\":5721:5727   */\n              dup5\n                /* \"#utility.yul\":5677:5750   */\n              tag_271\n              jump\t// in\n            tag_292:\n                /* \"#utility.yul\":4755:5757   */\n              swap11\n              swap10\n              pop\n              pop\n              pop\n              pop\n              pop\n              pop\n              pop\n              pop\n              pop\n              pop\n              jump\t// out\n                /* \"#utility.yul\":5763:6649   */\n            tag_86:\n              0x00\n                /* \"#utility.yul\":6064:6067   */\n              0xc0\n                /* \"#utility.yul\":6053:6062   */\n              dup3\n                /* \"#utility.yul\":6049:6068   */\n              add\n                /* \"#utility.yul\":6041:6068   */\n              swap1\n              pop\n                /* \"#utility.yul\":6114:6123   */\n              dup2\n                /* \"#utility.yul\":6108:6112   */\n              dup2\n                /* \"#utility.yul\":6104:6124   */\n              sub\n                /* \"#utility.yul\":6100:6101   */\n              0x00\n                /* \"#utility.yul\":6089:6098   */\n              dup4\n                /* \"#utility.yul\":6085:6102   */\n              add\n                /* \"#utility.yul\":6078:6125   */\n              mstore\n                /* \"#utility.yul\":6142:6220   */\n              tag_294\n                /* \"#utility.yul\":6215:6219   */\n              dup2\n                /* \"#utility.yul\":6206:6212   */\n              dup10\n                /* \"#utility.yul\":6142:6220   */\n              tag_261\n              jump\t// in\n            tag_294:\n                /* \"#utility.yul\":6134:6220   */\n              swap1\n              pop\n                /* \"#utility.yul\":6230:6302   */\n              tag_295\n                /* \"#utility.yul\":6298:6300   */\n              0x20\n                /* \"#utility.yul\":6287:6296   */\n              dup4\n                /* \"#utility.yul\":6283:6301   */\n              add\n                /* \"#utility.yul\":6274:6280   */\n              dup9\n                /* \"#utility.yul\":6230:6302   */\n              tag_271\n              jump\t// in\n            tag_295:\n                /* \"#utility.yul\":6312:6400   */\n              tag_296\n                /* \"#utility.yul\":6396:6398   */\n              0x40\n                /* \"#utility.yul\":6385:6394   */\n              dup4\n                /* \"#utility.yul\":6381:6399   */\n              add\n                /* \"#utility.yul\":6372:6378   */\n              dup8\n                /* \"#utility.yul\":6312:6400   */\n              tag_245\n              jump\t// in\n            tag_296:\n                /* \"#utility.yul\":6410:6476   */\n              tag_297\n                /* \"#utility.yul\":6472:6474   */\n              0x60\n                /* \"#utility.yul\":6461:6470   */\n              dup4\n                /* \"#utility.yul\":6457:6475   */\n              add\n                /* \"#utility.yul\":6448:6454   */\n              dup7\n                /* \"#utility.yul\":6410:6476   */\n              tag_253\n              jump\t// in\n            tag_297:\n                /* \"#utility.yul\":6486:6559   */\n              tag_298\n                /* \"#utility.yul\":6554:6557   */\n              0x80\n                /* \"#utility.yul\":6543:6552   */\n              dup4\n                /* \"#utility.yul\":6539:6558   */\n              add\n                /* \"#utility.yul\":6530:6536   */\n              dup6\n                /* \"#utility.yul\":6486:6559   */\n              tag_271\n              jump\t// in\n            tag_298:\n                /* \"#utility.yul\":6569:6642   */\n              tag_299\n                /* \"#utility.yul\":6637:6640   */\n              0xa0\n                /* \"#utility.yul\":6626:6635   */\n              dup4\n                /* \"#utility.yul\":6622:6641   */\n              add\n                /* \"#utility.yul\":6613:6619   */\n              dup5\n                /* \"#utility.yul\":6569:6642   */\n              tag_271\n              jump\t// in\n            tag_299:\n                /* \"#utility.yul\":6031:6649   */\n              swap8\n              swap7\n              pop\n              pop\n              pop\n              pop\n              pop\n              pop\n              pop\n              jump\t// out\n                /* \"#utility.yul\":6655:7299   */\n            tag_72:\n              0x00\n                /* \"#utility.yul\":6890:6893   */\n              0x80\n                /* \"#utility.yul\":6879:6888   */\n              dup3\n                /* \"#utility.yul\":6875:6894   */\n              add\n                /* \"#utility.yul\":6867:6894   */\n              swap1\n              pop\n                /* \"#utility.yul\":6940:6949   */\n              dup2\n                /* \"#utility.yul\":6934:6938   */\n              dup2\n                /* \"#utility.yul\":6930:6950   */\n              sub\n                /* \"#utility.yul\":6926:6927   */\n              0x00\n                /* \"#utility.yul\":6915:6924   */\n              dup4\n                /* \"#utility.yul\":6911:6928   */\n              add\n                /* \"#utility.yul\":6904:6951   */\n              mstore\n                /* \"#utility.yul\":6968:7046   */\n              tag_301\n                /* \"#utility.yul\":7041:7045   */\n              dup2\n                /* \"#utility.yul\":7032:7038   */\n              dup8\n                /* \"#utility.yul\":6968:7046   */\n              tag_261\n              jump\t// in\n            tag_301:\n                /* \"#utility.yul\":6960:7046   */\n              swap1\n              pop\n                /* \"#utility.yul\":7056:7128   */\n              tag_302\n                /* \"#utility.yul\":7124:7126   */\n              0x20\n                /* \"#utility.yul\":7113:7122   */\n              dup4\n                /* \"#utility.yul\":7109:7127   */\n              add\n                /* \"#utility.yul\":7100:7106   */\n              dup7\n                /* \"#utility.yul\":7056:7128   */\n              tag_271\n              jump\t// in\n            tag_302:\n                /* \"#utility.yul\":7138:7210   */\n              tag_303\n                /* \"#utility.yul\":7206:7208   */\n              0x40\n                /* \"#utility.yul\":7195:7204   */\n              dup4\n                /* \"#utility.yul\":7191:7209   */\n              add\n                /* \"#utility.yul\":7182:7188   */\n              dup6\n                /* \"#utility.yul\":7138:7210   */\n              tag_271\n              jump\t// in\n            tag_303:\n                /* \"#utility.yul\":7220:7292   */\n              tag_304\n                /* \"#utility.yul\":7288:7290   */\n              0x60\n                /* \"#utility.yul\":7277:7286   */\n              dup4\n                /* \"#utility.yul\":7273:7291   */\n              add\n                /* \"#utility.yul\":7264:7270   */\n              dup5\n                /* \"#utility.yul\":7220:7292   */\n              tag_249\n              jump\t// in\n            tag_304:\n                /* \"#utility.yul\":6857:7299   */\n              swap6\n              swap5\n              pop\n              pop\n              pop\n              pop\n              pop\n              jump\t// out\n                /* \"#utility.yul\":7305:7527   */\n            tag_39:\n              0x00\n                /* \"#utility.yul\":7436:7438   */\n              0x20\n                /* \"#utility.yul\":7425:7434   */\n              dup3\n                /* \"#utility.yul\":7421:7439   */\n              add\n                /* \"#utility.yul\":7413:7439   */\n              swap1\n              pop\n                /* \"#utility.yul\":7449:7520   */\n              tag_306\n                /* \"#utility.yul\":7517:7518   */\n              0x00\n                /* \"#utility.yul\":7506:7515   */\n              dup4\n                /* \"#utility.yul\":7502:7519   */\n              add\n                /* \"#utility.yul\":7493:7499   */\n              dup5\n                /* \"#utility.yul\":7449:7520   */\n              tag_271\n              jump\t// in\n            tag_306:\n                /* \"#utility.yul\":7403:7527   */\n              swap3\n              swap2\n              pop\n              pop\n              jump\t// out\n                /* \"#utility.yul\":7533:7662   */\n            tag_213:\n              0x00\n                /* \"#utility.yul\":7594:7614   */\n              tag_308\n              tag_309\n              jump\t// in\n            tag_308:\n                /* \"#utility.yul\":7584:7614   */\n              swap1\n              pop\n                /* \"#utility.yul\":7623:7656   */\n              tag_310\n                /* \"#utility.yul\":7651:7655   */\n              dup3\n                /* \"#utility.yul\":7643:7649   */\n              dup3\n                /* \"#utility.yul\":7623:7656   */\n              tag_311\n              jump\t// in\n            tag_310:\n                /* \"#utility.yul\":7574:7662   */\n              swap2\n              swap1\n              pop\n              jump\t// out\n                /* \"#utility.yul\":7668:7743   */\n            tag_309:\n              0x00\n                /* \"#utility.yul\":7734:7736   */\n              0x40\n                /* \"#utility.yul\":7728:7737   */\n              mload\n                /* \"#utility.yul\":7718:7737   */\n              swap1\n              pop\n                /* \"#utility.yul\":7708:7743   */\n              swap1\n              jump\t// out\n                /* \"#utility.yul\":7749:8057   */\n            tag_212:\n              0x00\n                /* \"#utility.yul\":7901:7919   */\n              0xffffffffffffffff\n                /* \"#utility.yul\":7893:7899   */\n              dup3\n                /* \"#utility.yul\":7890:7920   */\n              gt\n                /* \"#utility.yul\":7887:7889   */\n              iszero\n              tag_314\n              jumpi\n                /* \"#utility.yul\":7923:7941   */\n              tag_315\n              tag_316\n              jump\t// in\n            tag_315:\n                /* \"#utility.yul\":7887:7889   */\n            tag_314:\n                /* \"#utility.yul\":7961:7990   */\n              tag_317\n                /* \"#utility.yul\":7983:7989   */\n              dup3\n                /* \"#utility.yul\":7961:7990   */\n              tag_270\n              jump\t// in\n            tag_317:\n                /* \"#utility.yul\":7953:7990   */\n              swap1\n              pop\n                /* \"#utility.yul\":8045:8049   */\n              0x20\n                /* \"#utility.yul\":8039:8043   */\n              dup2\n                /* \"#utility.yul\":8035:8050   */\n              add\n                /* \"#utility.yul\":8027:8050   */\n              swap1\n              pop\n                /* \"#utility.yul\":7816:8057   */\n              swap2\n              swap1\n              pop\n              jump\t// out\n                /* \"#utility.yul\":8063:8162   */\n            tag_264:\n              0x00\n                /* \"#utility.yul\":8149:8154   */\n              dup2\n                /* \"#utility.yul\":8143:8155   */\n              mload\n                /* \"#utility.yul\":8133:8155   */\n              swap1\n              pop\n                /* \"#utility.yul\":8122:8162   */\n              swap2\n              swap1\n              pop\n              jump\t// out\n                /* \"#utility.yul\":8168:8337   */\n            tag_266:\n              0x00\n                /* \"#utility.yul\":8286:8292   */\n              dup3\n                /* \"#utility.yul\":8281:8284   */\n              dup3\n                /* \"#utility.yul\":8274:8293   */\n              mstore\n                /* \"#utility.yul\":8326:8330   */\n              0x20\n                /* \"#utility.yul\":8321:8324   */\n              dup3\n                /* \"#utility.yul\":8317:8331   */\n              add\n                /* \"#utility.yul\":8302:8331   */\n              swap1\n              pop\n                /* \"#utility.yul\":8264:8337   */\n              swap3\n              swap2\n              pop\n              pop\n              jump\t// out\n                /* \"#utility.yul\":8343:8648   */\n            tag_186:\n              0x00\n                /* \"#utility.yul\":8402:8422   */\n              tag_321\n                /* \"#utility.yul\":8420:8421   */\n              dup3\n                /* \"#utility.yul\":8402:8422   */\n              tag_274\n              jump\t// in\n            tag_321:\n                /* \"#utility.yul\":8397:8422   */\n              swap2\n              pop\n                /* \"#utility.yul\":8436:8456   */\n              tag_322\n                /* \"#utility.yul\":8454:8455   */\n              dup4\n                /* \"#utility.yul\":8436:8456   */\n              tag_274\n              jump\t// in\n            tag_322:\n                /* \"#utility.yul\":8431:8456   */\n              swap3\n              pop\n                /* \"#utility.yul\":8590:8591   */\n              dup3\n                /* \"#utility.yul\":8522:8588   */\n              0xffffffffffffffffffffffffffffffffffffffffffffffffffffffffffffffff\n                /* \"#utility.yul\":8518:8592   */\n              sub\n                /* \"#utility.yul\":8515:8516   */\n              dup3\n                /* \"#utility.yul\":8512:8593   */\n              gt\n                /* \"#utility.yul\":8509:8511   */\n              iszero\n              tag_323\n              jumpi\n                /* \"#utility.yul\":8596:8614   */\n              tag_324\n              tag_325\n              jump\t// in\n            tag_324:\n                /* \"#utility.yul\":8509:8511   */\n            tag_323:\n                /* \"#utility.yul\":8640:8641   */\n              dup3\n                /* \"#utility.yul\":8637:8638   */\n              dup3\n                /* \"#utility.yul\":8633:8642   */\n              add\n                /* \"#utility.yul\":8626:8642   */\n              swap1\n              pop\n                /* \"#utility.yul\":8387:8648   */\n              swap3\n              swap2\n              pop\n              pop\n              jump\t// out\n                /* \"#utility.yul\":8654:8839   */\n            tag_120:\n              0x00\n                /* \"#utility.yul\":8711:8731   */\n              tag_327\n                /* \"#utility.yul\":8729:8730   */\n              dup3\n                /* \"#utility.yul\":8711:8731   */\n              tag_274\n              jump\t// in\n            tag_327:\n                /* \"#utility.yul\":8706:8731   */\n              swap2\n              pop\n                /* \"#utility.yul\":8745:8765   */\n              tag_328\n                /* \"#utility.yul\":8763:8764   */\n              dup4\n                /* \"#utility.yul\":8745:8765   */\n              tag_274\n              jump\t// in\n            tag_328:\n                /* \"#utility.yul\":8740:8765   */\n              swap3\n              pop\n                /* \"#utility.yul\":8784:8785   */\n              dup3\n                /* \"#utility.yul\":8774:8776   */\n              tag_329\n              jumpi\n                /* \"#utility.yul\":8789:8807   */\n              tag_330\n              tag_331\n              jump\t// in\n            tag_330:\n                /* \"#utility.yul\":8774:8776   */\n            tag_329:\n                /* \"#utility.yul\":8831:8832   */\n              dup3\n                /* \"#utility.yul\":8828:8829   */\n              dup3\n                /* \"#utility.yul\":8824:8833   */\n              div\n                /* \"#utility.yul\":8819:8833   */\n              swap1\n              pop\n                /* \"#utility.yul\":8696:8839   */\n              swap3\n              swap2\n              pop\n              pop\n              jump\t// out\n                /* \"#utility.yul\":8845:8941   */\n            tag_252:\n              0x00\n                /* \"#utility.yul\":8911:8935   */\n              tag_333\n                /* \"#utility.yul\":8929:8934   */\n              dup3\n                /* \"#utility.yul\":8911:8935   */\n              tag_334\n              jump\t// in\n            tag_333:\n                /* \"#utility.yul\":8900:8935   */\n              swap1\n              pop\n                /* \"#utility.yul\":8890:8941   */\n              swap2\n              swap1\n              pop\n              jump\t// out\n                /* \"#utility.yul\":8947:9051   */\n            tag_248:\n              0x00\n                /* \"#utility.yul\":9021:9045   */\n              tag_336\n                /* \"#utility.yul\":9039:9044   */\n              dup3\n                /* \"#utility.yul\":9021:9045   */\n              tag_334\n              jump\t// in\n            tag_336:\n                /* \"#utility.yul\":9010:9045   */\n              swap1\n              pop\n                /* \"#utility.yul\":9000:9051   */\n              swap2\n              swap1\n              pop\n              jump\t// out\n                /* \"#utility.yul\":9057:9147   */\n            tag_256:\n              0x00\n                /* \"#utility.yul\":9134:9139   */\n              dup2\n                /* \"#utility.yul\":9127:9140   */\n              iszero\n                /* \"#utility.yul\":9120:9141   */\n              iszero\n                /* \"#utility.yul\":9109:9141   */\n              swap1\n              pop\n                /* \"#utility.yul\":9099:9147   */\n              swap2\n              swap1\n              pop\n              jump\t// out\n                /* \"#utility.yul\":9153:9286   */\n            tag_338:\n              0x00\n                /* \"#utility.yul\":9230:9235   */\n              dup2\n                /* \"#utility.yul\":9219:9235   */\n              swap1\n              pop\n                /* \"#utility.yul\":9236:9280   */\n              tag_340\n                /* \"#utility.yul\":9274:9279   */\n              dup3\n                /* \"#utility.yul\":9236:9280   */\n              tag_341\n              jump\t// in\n            tag_340:\n                /* \"#utility.yul\":9209:9286   */\n              swap2\n              swap1\n              pop\n              jump\t// out\n                /* \"#utility.yul\":9292:9418   */\n            tag_334:\n              0x00\n                /* \"#utility.yul\":9369:9411   */\n              0xffffffffffffffffffffffffffffffffffffffff\n                /* \"#utility.yul\":9362:9367   */\n              dup3\n                /* \"#utility.yul\":9358:9412   */\n              and\n                /* \"#utility.yul\":9347:9412   */\n              swap1\n              pop\n                /* \"#utility.yul\":9337:9418   */\n              swap2\n              swap1\n              pop\n              jump\t// out\n                /* \"#utility.yul\":9424:9501   */\n            tag_274:\n              0x00\n                /* \"#utility.yul\":9490:9495   */\n              dup2\n                /* \"#utility.yul\":9479:9495   */\n              swap1\n              pop\n                /* \"#utility.yul\":9469:9501   */\n              swap2\n              swap1\n              pop\n              jump\t// out\n                /* \"#utility.yul\":9507:9640   */\n            tag_260:\n              0x00\n                /* \"#utility.yul\":9599:9634   */\n              tag_345\n                /* \"#utility.yul\":9628:9633   */\n              dup3\n                /* \"#utility.yul\":9599:9634   */\n              tag_338\n              jump\t// in\n            tag_345:\n                /* \"#utility.yul\":9586:9634   */\n              swap1\n              pop\n                /* \"#utility.yul\":9576:9640   */\n              swap2\n              swap1\n              pop\n              jump\t// out\n                /* \"#utility.yul\":9646:9800   */\n            tag_216:\n                /* \"#utility.yul\":9730:9736   */\n              dup3\n                /* \"#utility.yul\":9725:9728   */\n              dup2\n                /* \"#utility.yul\":9720:9723   */\n              dup4\n                /* \"#utility.yul\":9707:9737   */\n              calldatacopy\n                /* \"#utility.yul\":9792:9793   */\n              0x00\n                /* \"#utility.yul\":9783:9789   */\n              dup4\n                /* \"#utility.yul\":9778:9781   */\n              dup4\n                /* \"#utility.yul\":9774:9790   */\n              add\n                /* \"#utility.yul\":9767:9794   */\n              mstore\n                /* \"#utility.yul\":9697:9800   */\n              pop\n              pop\n              pop\n              jump\t// out\n                /* \"#utility.yul\":9806:10113   */\n            tag_268:\n                /* \"#utility.yul\":9874:9875   */\n              0x00\n                /* \"#utility.yul\":9884:9997   */\n            tag_348:\n                /* \"#utility.yul\":9898:9904   */\n              dup4\n                /* \"#utility.yul\":9895:9896   */\n              dup2\n                /* \"#utility.yul\":9892:9905   */\n              lt\n                /* \"#utility.yul\":9884:9997   */\n              iszero\n              tag_350\n              jumpi\n                /* \"#utility.yul\":9983:9984   */\n              dup1\n                /* \"#utility.yul\":9978:9981   */\n              dup3\n                /* \"#utility.yul\":9974:9985   */\n              add\n                /* \"#utility.yul\":9968:9986   */\n              mload\n                /* \"#utility.yul\":9964:9965   */\n              dup2\n                /* \"#utility.yul\":9959:9962   */\n              dup5\n                /* \"#utility.yul\":9955:9966   */\n              add\n                /* \"#utility.yul\":9948:9987   */\n              mstore\n                /* \"#utility.yul\":9920:9922   */\n              0x20\n                /* \"#utility.yul\":9917:9918   */\n              dup2\n                /* \"#utility.yul\":9913:9923   */\n              add\n                /* \"#utility.yul\":9908:9923   */\n              swap1\n              pop\n                /* \"#utility.yul\":9884:9997   */\n              jump(tag_348)\n            tag_350:\n                /* \"#utility.yul\":10015:10021   */\n              dup4\n                /* \"#utility.yul\":10012:10013   */\n              dup2\n                /* \"#utility.yul\":10009:10022   */\n              gt\n                /* \"#utility.yul\":10006:10008   */\n              iszero\n              tag_351\n              jumpi\n                /* \"#utility.yul\":10095:10096   */\n              0x00\n                /* \"#utility.yul\":10086:10092   */\n              dup5\n                /* \"#utility.yul\":10081:10084   */\n              dup5\n                /* \"#utility.yul\":10077:10093   */\n              add\n                /* \"#utility.yul\":10070:10097   */\n              mstore\n                /* \"#utility.yul\":10006:10008   */\n            tag_351:\n                /* \"#utility.yul\":9855:10113   */\n              pop\n              pop\n              pop\n              pop\n              jump\t// out\n                /* \"#utility.yul\":10119:10439   */\n            tag_126:\n              0x00\n                /* \"#utility.yul\":10200:10201   */\n              0x02\n                /* \"#utility.yul\":10194:10198   */\n              dup3\n                /* \"#utility.yul\":10190:10202   */\n              div\n                /* \"#utility.yul\":10180:10202   */\n              swap1\n              pop\n                /* \"#utility.yul\":10247:10248   */\n              0x01\n                /* \"#utility.yul\":10241:10245   */\n              dup3\n                /* \"#utility.yul\":10237:10249   */\n              and\n                /* \"#utility.yul\":10268:10286   */\n              dup1\n                /* \"#utility.yul\":10258:10260   */\n              tag_353\n              jumpi\n                /* \"#utility.yul\":10324:10328   */\n              0x7f\n                /* \"#utility.yul\":10316:10322   */\n              dup3\n                /* \"#utility.yul\":10312:10329   */\n              and\n                /* \"#utility.yul\":10302:10329   */\n              swap2\n              pop\n                /* \"#utility.yul\":10258:10260   */\n            tag_353:\n                /* \"#utility.yul\":10386:10388   */\n              0x20\n                /* \"#utility.yul\":10378:10384   */\n              dup3\n                /* \"#utility.yul\":10375:10389   */\n              lt\n                /* \"#utility.yul\":10355:10373   */\n              dup2\n                /* \"#utility.yul\":10352:10390   */\n              eq\n                /* \"#utility.yul\":10349:10351   */\n              iszero\n              tag_354\n              jumpi\n                /* \"#utility.yul\":10405:10423   */\n              tag_355\n              tag_356\n              jump\t// in\n            tag_355:\n                /* \"#utility.yul\":10349:10351   */\n            tag_354:\n                /* \"#utility.yul\":10170:10439   */\n              pop\n              swap2\n              swap1\n              pop\n              jump\t// out\n                /* \"#utility.yul\":10445:10726   */\n            tag_311:\n                /* \"#utility.yul\":10528:10555   */\n              tag_358\n                /* \"#utility.yul\":10550:10554   */\n              dup3\n                /* \"#utility.yul\":10528:10555   */\n              tag_270\n              jump\t// in\n            tag_358:\n                /* \"#utility.yul\":10520:10526   */\n              dup2\n                /* \"#utility.yul\":10516:10556   */\n              add\n                /* \"#utility.yul\":10658:10664   */\n              dup2\n                /* \"#utility.yul\":10646:10656   */\n              dup2\n                /* \"#utility.yul\":10643:10665   */\n              lt\n                /* \"#utility.yul\":10622:10640   */\n              0xffffffffffffffff\n                /* \"#utility.yul\":10610:10620   */\n              dup3\n                /* \"#utility.yul\":10607:10641   */\n              gt\n                /* \"#utility.yul\":10604:10666   */\n              or\n                /* \"#utility.yul\":10601:10603   */\n              iszero\n              tag_359\n              jumpi\n                /* \"#utility.yul\":10669:10687   */\n              tag_360\n              tag_316\n              jump\t// in\n            tag_360:\n                /* \"#utility.yul\":10601:10603   */\n            tag_359:\n                /* \"#utility.yul\":10709:10719   */\n              dup1\n                /* \"#utility.yul\":10705:10707   */\n              0x40\n                /* \"#utility.yul\":10698:10720   */\n              mstore\n                /* \"#utility.yul\":10488:10726   */\n              pop\n              pop\n              pop\n              jump\t// out\n                /* \"#utility.yul\":10732:10965   */\n            tag_172:\n              0x00\n                /* \"#utility.yul\":10794:10818   */\n              tag_362\n                /* \"#utility.yul\":10812:10817   */\n              dup3\n                /* \"#utility.yul\":10794:10818   */\n              tag_274\n              jump\t// in\n            tag_362:\n                /* \"#utility.yul\":10785:10818   */\n              swap2\n              pop\n                /* \"#utility.yul\":10840:10906   */\n              0xffffffffffffffffffffffffffffffffffffffffffffffffffffffffffffffff\n                /* \"#utility.yul\":10833:10838   */\n              dup3\n                /* \"#utility.yul\":10830:10907   */\n              eq\n                /* \"#utility.yul\":10827:10829   */\n              iszero\n              tag_363\n              jumpi\n                /* \"#utility.yul\":10910:10928   */\n              tag_364\n              tag_325\n              jump\t// in\n            tag_364:\n                /* \"#utility.yul\":10827:10829   */\n            tag_363:\n                /* \"#utility.yul\":10957:10958   */\n              0x01\n                /* \"#utility.yul\":10950:10955   */\n              dup3\n                /* \"#utility.yul\":10946:10959   */\n              add\n                /* \"#utility.yul\":10939:10959   */\n              swap1\n              pop\n                /* \"#utility.yul\":10775:10965   */\n              swap2\n              swap1\n              pop\n              jump\t// out\n                /* \"#utility.yul\":10971:11147   */\n            tag_189:\n              0x00\n                /* \"#utility.yul\":11020:11040   */\n              tag_366\n                /* \"#utility.yul\":11038:11039   */\n              dup3\n                /* \"#utility.yul\":11020:11040   */\n              tag_274\n              jump\t// in\n            tag_366:\n                /* \"#utility.yul\":11015:11040   */\n              swap2\n              pop\n                /* \"#utility.yul\":11054:11074   */\n              tag_367\n                /* \"#utility.yul\":11072:11073   */\n              dup4\n                /* \"#utility.yul\":11054:11074   */\n              tag_274\n              jump\t// in\n            tag_367:\n                /* \"#utility.yul\":11049:11074   */\n              swap3\n              pop\n                /* \"#utility.yul\":11093:11094   */\n              dup3\n                /* \"#utility.yul\":11083:11085   */\n              tag_368\n              jumpi\n                /* \"#utility.yul\":11098:11116   */\n              tag_369\n              tag_331\n              jump\t// in\n            tag_369:\n                /* \"#utility.yul\":11083:11085   */\n            tag_368:\n                /* \"#utility.yul\":11139:11140   */\n              dup3\n                /* \"#utility.yul\":11136:11137   */\n              dup3\n                /* \"#utility.yul\":11132:11141   */\n              mod\n                /* \"#utility.yul\":11127:11141   */\n              swap1\n              pop\n                /* \"#utility.yul\":11005:11147   */\n              swap3\n              swap2\n              pop\n              pop\n              jump\t// out\n                /* \"#utility.yul\":11153:11333   */\n            tag_325:\n                /* \"#utility.yul\":11201:11278   */\n              0x4e487b7100000000000000000000000000000000000000000000000000000000\n                /* \"#utility.yul\":11198:11199   */\n              0x00\n                /* \"#utility.yul\":11191:11279   */\n              mstore\n                /* \"#utility.yul\":11298:11302   */\n              0x11\n                /* \"#utility.yul\":11295:11296   */\n              0x04\n                /* \"#utility.yul\":11288:11303   */\n              mstore\n                /* \"#utility.yul\":11322:11326   */\n              0x24\n                /* \"#utility.yul\":11319:11320   */\n              0x00\n                /* \"#utility.yul\":11312:11327   */\n              revert\n                /* \"#utility.yul\":11339:11519   */\n            tag_331:\n                /* \"#utility.yul\":11387:11464   */\n              0x4e487b7100000000000000000000000000000000000000000000000000000000\n                /* \"#utility.yul\":11384:11385   */\n              0x00\n                /* \"#utility.yul\":11377:11465   */\n              mstore\n                /* \"#utility.yul\":11484:11488   */\n              0x12\n                /* \"#utility.yul\":11481:11482   */\n              0x04\n                /* \"#utility.yul\":11474:11489   */\n              mstore\n                /* \"#utility.yul\":11508:11512   */\n              0x24\n                /* \"#utility.yul\":11505:11506   */\n              0x00\n                /* \"#utility.yul\":11498:11513   */\n              revert\n                /* \"#utility.yul\":11525:11705   */\n            tag_372:\n                /* \"#utility.yul\":11573:11650   */\n              0x4e487b7100000000000000000000000000000000000000000000000000000000\n                /* \"#utility.yul\":11570:11571   */\n              0x00\n                /* \"#utility.yul\":11563:11651   */\n              mstore\n                /* \"#utility.yul\":11670:11674   */\n              0x21\n                /* \"#utility.yul\":11667:11668   */\n              0x04\n                /* \"#utility.yul\":11660:11675   */\n              mstore\n                /* \"#utility.yul\":11694:11698   */\n              0x24\n                /* \"#utility.yul\":11691:11692   */\n              0x00\n                /* \"#utility.yul\":11684:11699   */\n              revert\n                /* \"#utility.yul\":11711:11891   */\n            tag_356:\n                /* \"#utility.yul\":11759:11836   */\n              0x4e487b7100000000000000000000000000000000000000000000000000000000\n                /* \"#utility.yul\":11756:11757   */\n              0x00\n                /* \"#utility.yul\":11749:11837   */\n              mstore\n                /* \"#utility.yul\":11856:11860   */\n              0x22\n                /* \"#utility.yul\":11853:11854   */\n              0x04\n                /* \"#utility.yul\":11846:11861   */\n              mstore\n                /* \"#utility.yul\":11880:11884   */\n              0x24\n                /* \"#utility.yul\":11877:11878   */\n              0x00\n                /* \"#utility.yul\":11870:11885   */\n              revert\n                /* \"#utility.yul\":11897:12077   */\n            tag_316:\n                /* \"#utility.yul\":11945:12022   */\n              0x4e487b7100000000000000000000000000000000000000000000000000000000\n                /* \"#utility.yul\":11942:11943   */\n              0x00\n                /* \"#utility.yul\":11935:12023   */\n              mstore\n                /* \"#utility.yul\":12042:12046   */\n              0x41\n                /* \"#utility.yul\":12039:12040   */\n              0x04\n                /* \"#utility.yul\":12032:12047   */\n              mstore\n                /* \"#utility.yul\":12066:12070   */\n              0x24\n                /* \"#utility.yul\":12063:12064   */\n              0x00\n                /* \"#utility.yul\":12056:12071   */\n              revert\n                /* \"#utility.yul\":12083:12185   */\n            tag_270:\n              0x00\n                /* \"#utility.yul\":12175:12177   */\n              0x1f\n                /* \"#utility.yul\":12171:12178   */\n              not\n                /* \"#utility.yul\":12166:12168   */\n              0x1f\n                /* \"#utility.yul\":12159:12164   */\n              dup4\n                /* \"#utility.yul\":12155:12169   */\n              add\n                /* \"#utility.yul\":12151:12179   */\n              and\n                /* \"#utility.yul\":12141:12179   */\n              swap1\n              pop\n                /* \"#utility.yul\":12131:12185   */\n              swap2\n              swap1\n              pop\n              jump\t// out\n                /* \"#utility.yul\":12191:12307   */\n            tag_341:\n                /* \"#utility.yul\":12275:12276   */\n              0x07\n                /* \"#utility.yul\":12268:12273   */\n              dup2\n                /* \"#utility.yul\":12265:12277   */\n              lt\n                /* \"#utility.yul\":12255:12257   */\n              tag_378\n              jumpi\n                /* \"#utility.yul\":12281:12299   */\n              tag_379\n              tag_372\n              jump\t// in\n            tag_379:\n                /* \"#utility.yul\":12255:12257   */\n            tag_378:\n                /* \"#utility.yul\":12245:12307   */\n              pop\n              jump\t// out\n                /* \"#utility.yul\":12313:12435   */\n            tag_220:\n                /* \"#utility.yul\":12386:12410   */\n              tag_381\n                /* \"#utility.yul\":12404:12409   */\n              dup2\n                /* \"#utility.yul\":12386:12410   */\n              tag_252\n              jump\t// in\n            tag_381:\n                /* \"#utility.yul\":12379:12384   */\n              dup2\n                /* \"#utility.yul\":12376:12411   */\n              eq\n                /* \"#utility.yul\":12366:12368   */\n              tag_382\n              jumpi\n                /* \"#utility.yul\":12425:12426   */\n              0x00\n                /* \"#utility.yul\":12422:12423   */\n              dup1\n                /* \"#utility.yul\":12415:12427   */\n              revert\n                /* \"#utility.yul\":12366:12368   */\n            tag_382:\n                /* \"#utility.yul\":12356:12435   */\n              pop\n              jump\t// out\n                /* \"#utility.yul\":12441:12579   */\n            tag_224:\n                /* \"#utility.yul\":12522:12554   */\n              tag_384\n                /* \"#utility.yul\":12548:12553   */\n              dup2\n                /* \"#utility.yul\":12522:12554   */\n              tag_248\n              jump\t// in\n            tag_384:\n                /* \"#utility.yul\":12515:12520   */\n              dup2\n                /* \"#utility.yul\":12512:12555   */\n              eq\n                /* \"#utility.yul\":12502:12504   */\n              tag_385\n              jumpi\n                /* \"#utility.yul\":12569:12570   */\n              0x00\n                /* \"#utility.yul\":12566:12567   */\n              dup1\n                /* \"#utility.yul\":12559:12571   */\n              revert\n                /* \"#utility.yul\":12502:12504   */\n            tag_385:\n                /* \"#utility.yul\":12492:12579   */\n              pop\n              jump\t// out\n                /* \"#utility.yul\":12585:12707   */\n            tag_232:\n                /* \"#utility.yul\":12658:12682   */\n              tag_387\n                /* \"#utility.yul\":12676:12681   */\n              dup2\n                /* \"#utility.yul\":12658:12682   */\n              tag_274\n              jump\t// in\n            tag_387:\n                /* \"#utility.yul\":12651:12656   */\n              dup2\n                /* \"#utility.yul\":12648:12683   */\n              eq\n                /* \"#utility.yul\":12638:12640   */\n              tag_388\n              jumpi\n                /* \"#utility.yul\":12697:12698   */\n              0x00\n                /* \"#utility.yul\":12694:12695   */\n              dup1\n                /* \"#utility.yul\":12687:12699   */\n              revert\n                /* \"#utility.yul\":12638:12640   */\n            tag_388:\n                /* \"#utility.yul\":12628:12707   */\n              pop\n              jump\t// out\n\n            auxdata: 0xa264697066735822122073e8c87da59ff30d1bc27de8c56d76c5e3cdd126287d05f39485a9fee625d6fb64736f6c63430008030033\n        }\n    }\n\n    auxdata: 0xa2646970667358221220362459bb11a1aca4928d614723f677c3b81bf70c05e12580b07757ad47ac5cb264736f6c63430008030033\n}\n","bytecode":{"linkReferences":{},"object":"608060405234801561001057600080fd5b50612865806100206000396000f3fe60806040523480156200001157600080fd5b5060043610620000465760003560e01c8063855b6e9e146200004b578063e4293559146200006b578063f739bf4d146200008d575b600080fd5b6200006960048036038101906200006391906200033f565b620000c3565b005b620000756200017e565b60405162000084919062000591565b60405180910390f35b620000ab6004803603810190620000a5919062000313565b6200020e565b604051620000ba9190620005b5565b60405180910390f35b6000888888888888888833604051620000dc906200024e565b620000f099989796959493929190620005d2565b604051809103906000f0801580156200010d573d6000803e3d6000fd5b5090506000819080600181540180825580915050600190039060005260206000200160009091909190916101000a81548173ffffffffffffffffffffffffffffffffffffffff021916908373ffffffffffffffffffffffffffffffffffffffff160217905550505050505050505050565b606060008054806020026020016040519081016040528092919081815260200182805480156200020457602002820191906000526020600020905b8160009054906101000a900473ffffffffffffffffffffffffffffffffffffffff1673ffffffffffffffffffffffffffffffffffffffff1681526020019060010190808311620001b9575b5050505050905090565b600081815481106200021f57600080fd5b906000526020600020016000915054906101000a900473ffffffffffffffffffffffffffffffffffffffff1681565b611f0d806200092383390190565b6000620002736200026d84620006b6565b6200068d565b9050828152602081018484840111156200028c57600080fd5b62000299848285620007dc565b509392505050565b600081359050620002b281620008dd565b92915050565b600081359050620002c981620008f7565b92915050565b600082601f830112620002e157600080fd5b8135620002f38482602086016200025c565b91505092915050565b6000813590506200030d8162000908565b92915050565b6000602082840312156200032657600080fd5b60006200033684828501620002fc565b91505092915050565b600080600080600080600080610100898b0312156200035d57600080fd5b60006200036d8b828c01620002fc565b9850506020620003808b828c01620002fc565b975050604089013567ffffffffffffffff8111156200039e57600080fd5b620003ac8b828c01620002cf565b965050606089013567ffffffffffffffff811115620003ca57600080fd5b620003d88b828c01620002cf565b955050608089013567ffffffffffffffff811115620003f657600080fd5b620004048b828c01620002cf565b94505060a089013567ffffffffffffffff8111156200042257600080fd5b620004308b828c01620002cf565b93505060c0620004438b828c01620002b8565b92505060e0620004568b828c01620002a1565b9150509295985092959890939650565b60006200047483836200050c565b60208301905092915050565b6200048b8162000741565b82525050565b60006200049e82620006fc565b620004aa81856200071f565b9350620004b783620006ec565b8060005b83811015620004ee578151620004d2888262000466565b9750620004df8362000712565b925050600181019050620004bb565b5085935050505092915050565b620005068162000755565b82525050565b6200051781620007a0565b82525050565b6200052881620007a0565b82525050565b6200053981620007c8565b82525050565b60006200054c8262000707565b62000558818562000730565b93506200056a818560208601620007eb565b6200057581620008b5565b840191505092915050565b6200058b8162000796565b82525050565b60006020820190508181036000830152620005ad818462000491565b905092915050565b6000602082019050620005cc60008301846200051d565b92915050565b600061012082019050620005ea600083018c62000580565b620005f9602083018b62000580565b81810360408301526200060d818a6200053f565b905081810360608301526200062381896200053f565b905081810360808301526200063981886200053f565b905081810360a08301526200064f81876200053f565b90506200066060c08301866200052e565b6200066f60e0830185620004fb565b6200067f61010083018462000480565b9a9950505050505050505050565b600062000699620006ac565b9050620006a7828262000821565b919050565b6000604051905090565b600067ffffffffffffffff821115620006d457620006d362000886565b5b620006df82620008b5565b9050602081019050919050565b6000819050602082019050919050565b600081519050919050565b600081519050919050565b6000602082019050919050565b600082825260208201905092915050565b600082825260208201905092915050565b60006200074e8262000776565b9050919050565b60008115159050919050565b60008190506200077182620008c6565b919050565b600073ffffffffffffffffffffffffffffffffffffffff82169050919050565b6000819050919050565b6000620007ad82620007b4565b9050919050565b6000620007c18262000776565b9050919050565b6000620007d58262000761565b9050919050565b82818337600083830152505050565b60005b838110156200080b578082015181840152602081019050620007ee565b838111156200081b576000848401525b50505050565b6200082c82620008b5565b810181811067ffffffffffffffff821117156200084e576200084d62000886565b5b80604052505050565b7f4e487b7100000000000000000000000000000000000000000000000000000000600052602160045260246000fd5b7f4e487b7100000000000000000000000000000000000000000000000000000000600052604160045260246000fd5b6000601f19601f8301169050919050565b60078110620008da57620008d962000857565b5b50565b620008e88162000755565b8114620008f457600080fd5b50565b600781106200090557600080fd5b50565b620009138162000796565b81146200091f57600080fd5b5056fe60806040523480156200001157600080fd5b5060405162001f0d38038062001f0d8339818101604052810190620000379190620002e9565b80600860006101000a81548173ffffffffffffffffffffffffffffffffffffffff021916908373ffffffffffffffffffffffffffffffffffffffff16021790555088600b8190555087600d8190555086600090805190602001906200009e9291906200016b565b508560019080519060200190620000b79291906200016b565b508460029080519060200190620000d09291906200016b565b508360039080519060200190620000e99291906200016b565b5082600460006101000a81548160ff0219169083600681111562000136577f4e487b7100000000000000000000000000000000000000000000000000000000600052602160045260246000fd5b021790555081600460016101000a81548160ff021916908315150217905550426005819055505050505050505050506200063f565b828054620001799062000505565b90600052602060002090601f0160209004810192826200019d5760008555620001e9565b82601f10620001b857805160ff1916838001178555620001e9565b82800160010185558215620001e9579182015b82811115620001e8578251825591602001919060010190620001cb565b5b509050620001f89190620001fc565b5090565b5b8082111562000217576000816000905550600101620001fd565b5090565b6000620002326200022c846200044f565b62000426565b9050828152602081018484840111156200024b57600080fd5b62000258848285620004cf565b509392505050565b6000815190506200027181620005e0565b92915050565b6000815190506200028881620005fa565b92915050565b6000815190506200029f8162000614565b92915050565b600082601f830112620002b757600080fd5b8151620002c98482602086016200021b565b91505092915050565b600081519050620002e38162000625565b92915050565b60008060008060008060008060006101208a8c0312156200030957600080fd5b6000620003198c828d01620002d2565b99505060206200032c8c828d01620002d2565b98505060408a015167ffffffffffffffff8111156200034a57600080fd5b620003588c828d01620002a5565b97505060608a015167ffffffffffffffff8111156200037657600080fd5b620003848c828d01620002a5565b96505060808a015167ffffffffffffffff811115620003a257600080fd5b620003b08c828d01620002a5565b95505060a08a015167ffffffffffffffff811115620003ce57600080fd5b620003dc8c828d01620002a5565b94505060c0620003ef8c828d016200028e565b93505060e0620004028c828d0162000277565b925050610100620004168c828d0162000260565b9150509295985092959850929598565b60006200043262000445565b90506200044082826200053b565b919050565b6000604051905090565b600067ffffffffffffffff8211156200046d576200046c620005a0565b5b6200047882620005cf565b9050602081019050919050565b60006200049282620004a5565b9050919050565b60008115159050919050565b600073ffffffffffffffffffffffffffffffffffffffff82169050919050565b6000819050919050565b60005b83811015620004ef578082015181840152602081019050620004d2565b83811115620004ff576000848401525b50505050565b600060028204905060018216806200051e57607f821691505b6020821081141562000535576200053462000571565b5b50919050565b6200054682620005cf565b810181811067ffffffffffffffff82111715620005685762000567620005a0565b5b80604052505050565b7f4e487b7100000000000000000000000000000000000000000000000000000000600052602260045260246000fd5b7f4e487b7100000000000000000000000000000000000000000000000000000000600052604160045260246000fd5b6000601f19601f8301169050919050565b620005eb8162000485565b8114620005f757600080fd5b50565b620006058162000499565b81146200061157600080fd5b50565b600781106200062257600080fd5b50565b6200063081620004c5565b81146200063c57600080fd5b50565b6118be806200064f6000396000f3fe60806040526004361061011f5760003560e01c80637284e416116100a0578063b90497e011610064578063b90497e0146103d9578063d107013314610404578063d7bb99ba1461042f578063d7d1bbdb14610439578063ef430aa6146104625761011f565b80637284e416146102ed5780637554e42f1461031857806381d12c58146103435780638a9cfd55146103855780639fb42b1f146103ae5761011f565b806326540fd2116100e757806326540fd21461020b5780634051ddac14610236578063481c6a751461026957806359af7a13146102945780636a24a938146102bf5761011f565b8063034410061461012457806306fdde031461014d57806309e7d837146101785780630a144391146101a35780631da98960146101e0575b600080fd5b34801561013057600080fd5b5061014b6004803603810190610146919061120b565b61048d565b005b34801561015957600080fd5b506101626105c8565b60405161016f9190611309565b60405180910390f35b34801561018457600080fd5b5061018d610656565b60405161019a9190611481565b60405180910390f35b3480156101af57600080fd5b506101ca60048036038101906101c5919061117b565b61065c565b6040516101d79190611481565b60405180910390f35b3480156101ec57600080fd5b506101f5610674565b6040516102029190611309565b60405180910390f35b34801561021757600080fd5b50610220610702565b60405161022d9190611481565b60405180910390f35b34801561024257600080fd5b5061024b610708565b6040516102609998979695949392919061132b565b60405180910390f35b34801561027557600080fd5b5061027e610909565b60405161028b91906112b8565b60405180910390f35b3480156102a057600080fd5b506102a961092f565b6040516102b69190611481565b60405180910390f35b3480156102cb57600080fd5b506102d4610935565b6040516102e49493929190611435565b60405180910390f35b3480156102f957600080fd5b506103026109ff565b60405161030f9190611309565b60405180910390f35b34801561032457600080fd5b5061032d610a8d565b60405161033a9190611481565b60405180910390f35b34801561034f57600080fd5b5061036a6004803603810190610365919061120b565b610a93565b60405161037c969594939291906113cd565b60405180910390f35b34801561039157600080fd5b506103ac60048036038101906103a791906111a4565b610b84565b005b3480156103ba57600080fd5b506103c3610ca6565b6040516103d09190611481565b60405180910390f35b3480156103e557600080fd5b506103ee610cac565b6040516103fb9190611309565b60405180910390f35b34801561041057600080fd5b50610419610d3a565b60405161042691906112d3565b60405180910390f35b610437610d4d565b005b34801561044557600080fd5b50610460600480360381019061045b919061120b565b610eaa565b005b34801561046e57600080fd5b5061047761101e565b60405161048491906112ee565b60405180910390f35b600860009054906101000a900473ffffffffffffffffffffffffffffffffffffffff1673ffffffffffffffffffffffffffffffffffffffff163373ffffffffffffffffffffffffffffffffffffffff16146104e757600080fd5b60006007600083815260200190815260200160002090506002600c5461050d9190611564565b81600301541161051c57600080fd5b8060020160149054906101000a900460ff161561053857600080fd5b8060020160009054906101000a900473ffffffffffffffffffffffffffffffffffffffff1673ffffffffffffffffffffffffffffffffffffffff166108fc82600101549081150290604051600060405180830381858888f193505050501580156105a6573d6000803e3d6000fd5b5060018160020160146101000a81548160ff0219169083151502179055505050565b600080546105d590611656565b80601f016020809104026020016040519081016040528092919081815260200182805461060190611656565b801561064e5780601f106106235761010080835404028352916020019161064e565b820191906000526020600020905b81548152906001019060200180831161063157829003601f168201915b505050505081565b600d5481565b600a6020528060005260406000206000915090505481565b6001805461068190611656565b80601f01602080910402602001604051908101604052809291908181526020018280546106ad90611656565b80156106fa5780601f106106cf576101008083540402835291602001916106fa565b820191906000526020600020905b8154815290600101906020018083116106dd57829003601f168201915b505050505081565b600c5481565b6060806060600080600080600080600060016003600460009054906101000a900460ff16600460019054906101000a900460ff16600b54600c54600554600d5488805461075490611656565b80601f016020809104026020016040519081016040528092919081815260200182805461078090611656565b80156107cd5780601f106107a2576101008083540402835291602001916107cd565b820191906000526020600020905b8154815290600101906020018083116107b057829003601f168201915b505050505098508780546107e090611656565b80601f016020809104026020016040519081016040528092919081815260200182805461080c90611656565b80156108595780601f1061082e57610100808354040283529160200191610859565b820191906000526020600020905b81548152906001019060200180831161083c57829003601f168201915b5050505050975086805461086c90611656565b80601f016020809104026020016040519081016040528092919081815260200182805461089890611656565b80156108e55780601f106108ba576101008083540402835291602001916108e5565b820191906000526020600020905b8154815290600101906020018083116108c857829003601f168201915b50505050509650985098509850985098509850985098509850909192939495969798565b600860009054906101000a900473ffffffffffffffffffffffffffffffffffffffff1681565b600b5481565b60606000806000600260065447600860009054906101000a900473ffffffffffffffffffffffffffffffffffffffff1683805461097190611656565b80601f016020809104026020016040519081016040528092919081815260200182805461099d90611656565b80156109ea5780601f106109bf576101008083540402835291602001916109ea565b820191906000526020600020905b8154815290600101906020018083116109cd57829003601f168201915b50505050509350935093509350935090919293565b60028054610a0c90611656565b80601f0160208091040260200160405190810160405280929190818152602001828054610a3890611656565b8015610a855780601f10610a5a57610100808354040283529160200191610a85565b820191906000526020600020905b815481529060010190602001808311610a6857829003601f168201915b505050505081565b60095481565b6007602052806000526040600020600091509050806000018054610ab690611656565b80601f0160208091040260200160405190810160405280929190818152602001828054610ae290611656565b8015610b2f5780601f10610b0457610100808354040283529160200191610b2f565b820191906000526020600020905b815481529060010190602001808311610b1257829003601f168201915b5050505050908060010154908060020160009054906101000a900473ffffffffffffffffffffffffffffffffffffffff16908060020160149054906101000a900460ff16908060030154908060040154905086565b600860009054906101000a900473ffffffffffffffffffffffffffffffffffffffff1673ffffffffffffffffffffffffffffffffffffffff163373ffffffffffffffffffffffffffffffffffffffff1614610bde57600080fd5b60006007600060066000815480929190610bf7906116b9565b919050558152602001908152602001600020905083816000019080519060200190610c23929190611031565b50828160010181905550818160020160006101000a81548173ffffffffffffffffffffffffffffffffffffffff021916908373ffffffffffffffffffffffffffffffffffffffff16021790555060008160020160146101000a81548160ff0219169083151502179055506000816003018190555042816004018190555050505050565b60065481565b60038054610cb990611656565b80601f0160208091040260200160405190810160405280929190818152602001828054610ce590611656565b8015610d325780601f10610d0757610100808354040283529160200191610d32565b820191906000526020600020905b815481529060010190602001808311610d1557829003601f168201915b505050505081565b600460019054906101000a900460ff1681565b600b54341015610d5c57600080fd5b6000600a60003373ffffffffffffffffffffffffffffffffffffffff1673ffffffffffffffffffffffffffffffffffffffff168152602001908152602001600020541415610dbd5760096000815480929190610db7906116b9565b91905055505b6000600b5434610dcd9190611564565b905080600a60003373ffffffffffffffffffffffffffffffffffffffff1673ffffffffffffffffffffffffffffffffffffffff1681526020019081526020016000206000828254610e1e919061150e565b9250508190555080600c6000828254610e37919061150e565b925050819055506000600b5434610e4e9190611702565b905060008114610ea65760003390508073ffffffffffffffffffffffffffffffffffffffff166108fc839081150290604051600060405180830381858888f19350505050158015610ea3573d6000803e3d6000fd5b50505b5050565b60006007600083815260200190815260200160002090506000600a60003373ffffffffffffffffffffffffffffffffffffffff1673ffffffffffffffffffffffffffffffffffffffff1681526020019081526020016000205411610f0d57600080fd5b8060050160003373ffffffffffffffffffffffffffffffffffffffff1673ffffffffffffffffffffffffffffffffffffffff16815260200190815260200160002060009054906101000a900460ff1615610f6657600080fd5b60018160050160003373ffffffffffffffffffffffffffffffffffffffff1673ffffffffffffffffffffffffffffffffffffffff16815260200190815260200160002060006101000a81548160ff021916908315150217905550600a60003373ffffffffffffffffffffffffffffffffffffffff1673ffffffffffffffffffffffffffffffffffffffff16815260200190815260200160002054816003016000828254611013919061150e565b925050819055505050565b600460009054906101000a900460ff1681565b82805461103d90611656565b90600052602060002090601f01602090048101928261105f57600085556110a6565b82601f1061107857805160ff19168380011785556110a6565b828001600101855582156110a6579182015b828111156110a557825182559160200191906001019061108a565b5b5090506110b391906110b7565b5090565b5b808211156110d05760008160009055506001016110b8565b5090565b60006110e76110e2846114c1565b61149c565b9050828152602081018484840111156110ff57600080fd5b61110a848285611614565b509392505050565b60008135905061112181611843565b92915050565b6000813590506111368161185a565b92915050565b600082601f83011261114d57600080fd5b813561115d8482602086016110d4565b91505092915050565b60008135905061117581611871565b92915050565b60006020828403121561118d57600080fd5b600061119b84828501611112565b91505092915050565b6000806000606084860312156111b957600080fd5b600084013567ffffffffffffffff8111156111d357600080fd5b6111df8682870161113c565b93505060206111f086828701611166565b925050604061120186828701611127565b9150509250925092565b60006020828403121561121d57600080fd5b600061122b84828501611166565b91505092915050565b61123d816115a7565b82525050565b61124c81611595565b82525050565b61125b816115b9565b82525050565b61126a81611602565b82525050565b600061127b826114f2565b61128581856114fd565b9350611295818560208601611623565b61129e8161181e565b840191505092915050565b6112b2816115f8565b82525050565b60006020820190506112cd6000830184611243565b92915050565b60006020820190506112e86000830184611252565b92915050565b60006020820190506113036000830184611261565b92915050565b600060208201905081810360008301526113238184611270565b905092915050565b6000610120820190508181036000830152611346818c611270565b9050818103602083015261135a818b611270565b9050818103604083015261136e818a611270565b905061137d6060830189611261565b61138a6080830188611252565b61139760a08301876112a9565b6113a460c08301866112a9565b6113b160e08301856112a9565b6113bf6101008301846112a9565b9a9950505050505050505050565b600060c08201905081810360008301526113e78189611270565b90506113f660208301886112a9565b6114036040830187611234565b6114106060830186611252565b61141d60808301856112a9565b61142a60a08301846112a9565b979650505050505050565b6000608082019050818103600083015261144f8187611270565b905061145e60208301866112a9565b61146b60408301856112a9565b6114786060830184611243565b95945050505050565b600060208201905061149660008301846112a9565b92915050565b60006114a66114b7565b90506114b28282611688565b919050565b6000604051905090565b600067ffffffffffffffff8211156114dc576114db6117ef565b5b6114e58261181e565b9050602081019050919050565b600081519050919050565b600082825260208201905092915050565b6000611519826115f8565b9150611524836115f8565b9250827fffffffffffffffffffffffffffffffffffffffffffffffffffffffffffffffff0382111561155957611558611733565b5b828201905092915050565b600061156f826115f8565b915061157a836115f8565b92508261158a57611589611762565b5b828204905092915050565b60006115a0826115d8565b9050919050565b60006115b2826115d8565b9050919050565b60008115159050919050565b60008190506115d38261182f565b919050565b600073ffffffffffffffffffffffffffffffffffffffff82169050919050565b6000819050919050565b600061160d826115c5565b9050919050565b82818337600083830152505050565b60005b83811015611641578082015181840152602081019050611626565b83811115611650576000848401525b50505050565b6000600282049050600182168061166e57607f821691505b60208210811415611682576116816117c0565b5b50919050565b6116918261181e565b810181811067ffffffffffffffff821117156116b0576116af6117ef565b5b80604052505050565b60006116c4826115f8565b91507fffffffffffffffffffffffffffffffffffffffffffffffffffffffffffffffff8214156116f7576116f6611733565b5b600182019050919050565b600061170d826115f8565b9150611718836115f8565b92508261172857611727611762565b5b828206905092915050565b7f4e487b7100000000000000000000000000000000000000000000000000000000600052601160045260246000fd5b7f4e487b7100000000000000000000000000000000000000000000000000000000600052601260045260246000fd5b7f4e487b7100000000000000000000000000000000000000000000000000000000600052602160045260246000fd5b7f4e487b7100000000000000000000000000000000000000000000000000000000600052602260045260246000fd5b7f4e487b7100000000000000000000000000000000000000000000000000000000600052604160045260246000fd5b6000601f19601f8301169050919050565b600781106118405761183f611791565b5b50565b61184c81611595565b811461185757600080fd5b50565b611863816115a7565b811461186e57600080fd5b50565b61187a816115f8565b811461188557600080fd5b5056fea264697066735822122073e8c87da59ff30d1bc27de8c56d76c5e3cdd126287d05f39485a9fee625d6fb64736f6c63430008030033a2646970667358221220362459bb11a1aca4928d614723f677c3b81bf70c05e12580b07757ad47ac5cb264736f6c63430008030033","opcodes":"PUSH1 0x80 PUSH1 0x40 MSTORE CALLVALUE DUP1 ISZERO PUSH2 0x10 JUMPI PUSH1 0x0 DUP1 REVERT JUMPDEST POP PUSH2 0x2865 DUP1 PUSH2 0x20 PUSH1 0x0 CODECOPY PUSH1 0x0 RETURN INVALID PUSH1 0x80 PUSH1 0x40 MSTORE CALLVALUE DUP1 ISZERO PUSH3 0x11 JUMPI PUSH1 0x0 DUP1 REVERT JUMPDEST POP PUSH1 0x4 CALLDATASIZE LT PUSH3 0x46 JUMPI PUSH1 0x0 CALLDATALOAD PUSH1 0xE0 SHR DUP1 PUSH4 0x855B6E9E EQ PUSH3 0x4B JUMPI DUP1 PUSH4 0xE4293559 EQ PUSH3 0x6B JUMPI DUP1 PUSH4 0xF739BF4D EQ PUSH3 0x8D JUMPI JUMPDEST PUSH1 0x0 DUP1 REVERT JUMPDEST PUSH3 0x69 PUSH1 0x4 DUP1 CALLDATASIZE SUB DUP2 ADD SWAP1 PUSH3 0x63 SWAP2 SWAP1 PUSH3 0x33F JUMP JUMPDEST PUSH3 0xC3 JUMP JUMPDEST STOP JUMPDEST PUSH3 0x75 PUSH3 0x17E JUMP JUMPDEST PUSH1 0x40 MLOAD PUSH3 0x84 SWAP2 SWAP1 PUSH3 0x591 JUMP JUMPDEST PUSH1 0x40 MLOAD DUP1 SWAP2 SUB SWAP1 RETURN JUMPDEST PUSH3 0xAB PUSH1 0x4 DUP1 CALLDATASIZE SUB DUP2 ADD SWAP1 PUSH3 0xA5 SWAP2 SWAP1 PUSH3 0x313 JUMP JUMPDEST PUSH3 0x20E JUMP JUMPDEST PUSH1 0x40 MLOAD PUSH3 0xBA SWAP2 SWAP1 PUSH3 0x5B5 JUMP JUMPDEST PUSH1 0x40 MLOAD DUP1 SWAP2 SUB SWAP1 RETURN JUMPDEST PUSH1 0x0 DUP9 DUP9 DUP9 DUP9 DUP9 DUP9 DUP9 DUP9 CALLER PUSH1 0x40 MLOAD PUSH3 0xDC SWAP1 PUSH3 0x24E JUMP JUMPDEST PUSH3 0xF0 SWAP10 SWAP9 SWAP8 SWAP7 SWAP6 SWAP5 SWAP4 SWAP3 SWAP2 SWAP1 PUSH3 0x5D2 JUMP JUMPDEST PUSH1 0x40 MLOAD DUP1 SWAP2 SUB SWAP1 PUSH1 0x0 CREATE DUP1 ISZERO DUP1 ISZERO PUSH3 0x10D JUMPI RETURNDATASIZE PUSH1 0x0 DUP1 RETURNDATACOPY RETURNDATASIZE PUSH1 0x0 REVERT JUMPDEST POP SWAP1 POP PUSH1 0x0 DUP2 SWAP1 DUP1 PUSH1 0x1 DUP2 SLOAD ADD DUP1 DUP3 SSTORE DUP1 SWAP2 POP POP PUSH1 0x1 SWAP1 SUB SWAP1 PUSH1 0x0 MSTORE PUSH1 0x20 PUSH1 0x0 KECCAK256 ADD PUSH1 0x0 SWAP1 SWAP2 SWAP1 SWAP2 SWAP1 SWAP2 PUSH2 0x100 EXP DUP2 SLOAD DUP2 PUSH20 0xFFFFFFFFFFFFFFFFFFFFFFFFFFFFFFFFFFFFFFFF MUL NOT AND SWAP1 DUP4 PUSH20 0xFFFFFFFFFFFFFFFFFFFFFFFFFFFFFFFFFFFFFFFF AND MUL OR SWAP1 SSTORE POP POP POP POP POP POP POP POP POP POP JUMP JUMPDEST PUSH1 0x60 PUSH1 0x0 DUP1 SLOAD DUP1 PUSH1 0x20 MUL PUSH1 0x20 ADD PUSH1 0x40 MLOAD SWAP1 DUP2 ADD PUSH1 0x40 MSTORE DUP1 SWAP3 SWAP2 SWAP1 DUP2 DUP2 MSTORE PUSH1 0x20 ADD DUP3 DUP1 SLOAD DUP1 ISZERO PUSH3 0x204 JUMPI PUSH1 0x20 MUL DUP3 ADD SWAP2 SWAP1 PUSH1 0x0 MSTORE PUSH1 0x20 PUSH1 0x0 KECCAK256 SWAP1 JUMPDEST DUP2 PUSH1 0x0 SWAP1 SLOAD SWAP1 PUSH2 0x100 EXP SWAP1 DIV PUSH20 0xFFFFFFFFFFFFFFFFFFFFFFFFFFFFFFFFFFFFFFFF AND PUSH20 0xFFFFFFFFFFFFFFFFFFFFFFFFFFFFFFFFFFFFFFFF AND DUP2 MSTORE PUSH1 0x20 ADD SWAP1 PUSH1 0x1 ADD SWAP1 DUP1 DUP4 GT PUSH3 0x1B9 JUMPI JUMPDEST POP POP POP POP POP SWAP1 POP SWAP1 JUMP JUMPDEST PUSH1 0x0 DUP2 DUP2 SLOAD DUP2 LT PUSH3 0x21F JUMPI PUSH1 0x0 DUP1 REVERT JUMPDEST SWAP1 PUSH1 0x0 MSTORE PUSH1 0x20 PUSH1 0x0 KECCAK256 ADD PUSH1 0x0 SWAP2 POP SLOAD SWAP1 PUSH2 0x100 EXP SWAP1 DIV PUSH20 0xFFFFFFFFFFFFFFFFFFFFFFFFFFFFFFFFFFFFFFFF AND DUP2 JUMP JUMPDEST PUSH2 0x1F0D DUP1 PUSH3 0x923 DUP4 CODECOPY ADD SWAP1 JUMP JUMPDEST PUSH1 0x0 PUSH3 0x273 PUSH3 0x26D DUP5 PUSH3 0x6B6 JUMP JUMPDEST PUSH3 0x68D JUMP JUMPDEST SWAP1 POP DUP3 DUP2 MSTORE PUSH1 0x20 DUP2 ADD DUP5 DUP5 DUP5 ADD GT ISZERO PUSH3 0x28C JUMPI PUSH1 0x0 DUP1 REVERT JUMPDEST PUSH3 0x299 DUP5 DUP3 DUP6 PUSH3 0x7DC JUMP JUMPDEST POP SWAP4 SWAP3 POP POP POP JUMP JUMPDEST PUSH1 0x0 DUP2 CALLDATALOAD SWAP1 POP PUSH3 0x2B2 DUP2 PUSH3 0x8DD JUMP JUMPDEST SWAP3 SWAP2 POP POP JUMP JUMPDEST PUSH1 0x0 DUP2 CALLDATALOAD SWAP1 POP PUSH3 0x2C9 DUP2 PUSH3 0x8F7 JUMP JUMPDEST SWAP3 SWAP2 POP POP JUMP JUMPDEST PUSH1 0x0 DUP3 PUSH1 0x1F DUP4 ADD SLT PUSH3 0x2E1 JUMPI PUSH1 0x0 DUP1 REVERT JUMPDEST DUP2 CALLDATALOAD PUSH3 0x2F3 DUP5 DUP3 PUSH1 0x20 DUP7 ADD PUSH3 0x25C JUMP JUMPDEST SWAP2 POP POP SWAP3 SWAP2 POP POP JUMP JUMPDEST PUSH1 0x0 DUP2 CALLDATALOAD SWAP1 POP PUSH3 0x30D DUP2 PUSH3 0x908 JUMP JUMPDEST SWAP3 SWAP2 POP POP JUMP JUMPDEST PUSH1 0x0 PUSH1 0x20 DUP3 DUP5 SUB SLT ISZERO PUSH3 0x326 JUMPI PUSH1 0x0 DUP1 REVERT JUMPDEST PUSH1 0x0 PUSH3 0x336 DUP5 DUP3 DUP6 ADD PUSH3 0x2FC JUMP JUMPDEST SWAP2 POP POP SWAP3 SWAP2 POP POP JUMP JUMPDEST PUSH1 0x0 DUP1 PUSH1 0x0 DUP1 PUSH1 0x0 DUP1 PUSH1 0x0 DUP1 PUSH2 0x100 DUP10 DUP12 SUB SLT ISZERO PUSH3 0x35D JUMPI PUSH1 0x0 DUP1 REVERT JUMPDEST PUSH1 0x0 PUSH3 0x36D DUP12 DUP3 DUP13 ADD PUSH3 0x2FC JUMP JUMPDEST SWAP9 POP POP PUSH1 0x20 PUSH3 0x380 DUP12 DUP3 DUP13 ADD PUSH3 0x2FC JUMP JUMPDEST SWAP8 POP POP PUSH1 0x40 DUP10 ADD CALLDATALOAD PUSH8 0xFFFFFFFFFFFFFFFF DUP2 GT ISZERO PUSH3 0x39E JUMPI PUSH1 0x0 DUP1 REVERT JUMPDEST PUSH3 0x3AC DUP12 DUP3 DUP13 ADD PUSH3 0x2CF JUMP JUMPDEST SWAP7 POP POP PUSH1 0x60 DUP10 ADD CALLDATALOAD PUSH8 0xFFFFFFFFFFFFFFFF DUP2 GT ISZERO PUSH3 0x3CA JUMPI PUSH1 0x0 DUP1 REVERT JUMPDEST PUSH3 0x3D8 DUP12 DUP3 DUP13 ADD PUSH3 0x2CF JUMP JUMPDEST SWAP6 POP POP PUSH1 0x80 DUP10 ADD CALLDATALOAD PUSH8 0xFFFFFFFFFFFFFFFF DUP2 GT ISZERO PUSH3 0x3F6 JUMPI PUSH1 0x0 DUP1 REVERT JUMPDEST PUSH3 0x404 DUP12 DUP3 DUP13 ADD PUSH3 0x2CF JUMP JUMPDEST SWAP5 POP POP PUSH1 0xA0 DUP10 ADD CALLDATALOAD PUSH8 0xFFFFFFFFFFFFFFFF DUP2 GT ISZERO PUSH3 0x422 JUMPI PUSH1 0x0 DUP1 REVERT JUMPDEST PUSH3 0x430 DUP12 DUP3 DUP13 ADD PUSH3 0x2CF JUMP JUMPDEST SWAP4 POP POP PUSH1 0xC0 PUSH3 0x443 DUP12 DUP3 DUP13 ADD PUSH3 0x2B8 JUMP JUMPDEST SWAP3 POP POP PUSH1 0xE0 PUSH3 0x456 DUP12 DUP3 DUP13 ADD PUSH3 0x2A1 JUMP JUMPDEST SWAP2 POP POP SWAP3 SWAP6 SWAP9 POP SWAP3 SWAP6 SWAP9 SWAP1 SWAP4 SWAP7 POP JUMP JUMPDEST PUSH1 0x0 PUSH3 0x474 DUP4 DUP4 PUSH3 0x50C JUMP JUMPDEST PUSH1 0x20 DUP4 ADD SWAP1 POP SWAP3 SWAP2 POP POP JUMP JUMPDEST PUSH3 0x48B DUP2 PUSH3 0x741 JUMP JUMPDEST DUP3 MSTORE POP POP JUMP JUMPDEST PUSH1 0x0 PUSH3 0x49E DUP3 PUSH3 0x6FC JUMP JUMPDEST PUSH3 0x4AA DUP2 DUP6 PUSH3 0x71F JUMP JUMPDEST SWAP4 POP PUSH3 0x4B7 DUP4 PUSH3 0x6EC JUMP JUMPDEST DUP1 PUSH1 0x0 JUMPDEST DUP4 DUP2 LT ISZERO PUSH3 0x4EE JUMPI DUP2 MLOAD PUSH3 0x4D2 DUP9 DUP3 PUSH3 0x466 JUMP JUMPDEST SWAP8 POP PUSH3 0x4DF DUP4 PUSH3 0x712 JUMP JUMPDEST SWAP3 POP POP PUSH1 0x1 DUP2 ADD SWAP1 POP PUSH3 0x4BB JUMP JUMPDEST POP DUP6 SWAP4 POP POP POP POP SWAP3 SWAP2 POP POP JUMP JUMPDEST PUSH3 0x506 DUP2 PUSH3 0x755 JUMP JUMPDEST DUP3 MSTORE POP POP JUMP JUMPDEST PUSH3 0x517 DUP2 PUSH3 0x7A0 JUMP JUMPDEST DUP3 MSTORE POP POP JUMP JUMPDEST PUSH3 0x528 DUP2 PUSH3 0x7A0 JUMP JUMPDEST DUP3 MSTORE POP POP JUMP JUMPDEST PUSH3 0x539 DUP2 PUSH3 0x7C8 JUMP JUMPDEST DUP3 MSTORE POP POP JUMP JUMPDEST PUSH1 0x0 PUSH3 0x54C DUP3 PUSH3 0x707 JUMP JUMPDEST PUSH3 0x558 DUP2 DUP6 PUSH3 0x730 JUMP JUMPDEST SWAP4 POP PUSH3 0x56A DUP2 DUP6 PUSH1 0x20 DUP7 ADD PUSH3 0x7EB JUMP JUMPDEST PUSH3 0x575 DUP2 PUSH3 0x8B5 JUMP JUMPDEST DUP5 ADD SWAP2 POP POP SWAP3 SWAP2 POP POP JUMP JUMPDEST PUSH3 0x58B DUP2 PUSH3 0x796 JUMP JUMPDEST DUP3 MSTORE POP POP JUMP JUMPDEST PUSH1 0x0 PUSH1 0x20 DUP3 ADD SWAP1 POP DUP2 DUP2 SUB PUSH1 0x0 DUP4 ADD MSTORE PUSH3 0x5AD DUP2 DUP5 PUSH3 0x491 JUMP JUMPDEST SWAP1 POP SWAP3 SWAP2 POP POP JUMP JUMPDEST PUSH1 0x0 PUSH1 0x20 DUP3 ADD SWAP1 POP PUSH3 0x5CC PUSH1 0x0 DUP4 ADD DUP5 PUSH3 0x51D JUMP JUMPDEST SWAP3 SWAP2 POP POP JUMP JUMPDEST PUSH1 0x0 PUSH2 0x120 DUP3 ADD SWAP1 POP PUSH3 0x5EA PUSH1 0x0 DUP4 ADD DUP13 PUSH3 0x580 JUMP JUMPDEST PUSH3 0x5F9 PUSH1 0x20 DUP4 ADD DUP12 PUSH3 0x580 JUMP JUMPDEST DUP2 DUP2 SUB PUSH1 0x40 DUP4 ADD MSTORE PUSH3 0x60D DUP2 DUP11 PUSH3 0x53F JUMP JUMPDEST SWAP1 POP DUP2 DUP2 SUB PUSH1 0x60 DUP4 ADD MSTORE PUSH3 0x623 DUP2 DUP10 PUSH3 0x53F JUMP JUMPDEST SWAP1 POP DUP2 DUP2 SUB PUSH1 0x80 DUP4 ADD MSTORE PUSH3 0x639 DUP2 DUP9 PUSH3 0x53F JUMP JUMPDEST SWAP1 POP DUP2 DUP2 SUB PUSH1 0xA0 DUP4 ADD MSTORE PUSH3 0x64F DUP2 DUP8 PUSH3 0x53F JUMP JUMPDEST SWAP1 POP PUSH3 0x660 PUSH1 0xC0 DUP4 ADD DUP7 PUSH3 0x52E JUMP JUMPDEST PUSH3 0x66F PUSH1 0xE0 DUP4 ADD DUP6 PUSH3 0x4FB JUMP JUMPDEST PUSH3 0x67F PUSH2 0x100 DUP4 ADD DUP5 PUSH3 0x480 JUMP JUMPDEST SWAP11 SWAP10 POP POP POP POP POP POP POP POP POP POP JUMP JUMPDEST PUSH1 0x0 PUSH3 0x699 PUSH3 0x6AC JUMP JUMPDEST SWAP1 POP PUSH3 0x6A7 DUP3 DUP3 PUSH3 0x821 JUMP JUMPDEST SWAP2 SWAP1 POP JUMP JUMPDEST PUSH1 0x0 PUSH1 0x40 MLOAD SWAP1 POP SWAP1 JUMP JUMPDEST PUSH1 0x0 PUSH8 0xFFFFFFFFFFFFFFFF DUP3 GT ISZERO PUSH3 0x6D4 JUMPI PUSH3 0x6D3 PUSH3 0x886 JUMP JUMPDEST JUMPDEST PUSH3 0x6DF DUP3 PUSH3 0x8B5 JUMP JUMPDEST SWAP1 POP PUSH1 0x20 DUP2 ADD SWAP1 POP SWAP2 SWAP1 POP JUMP JUMPDEST PUSH1 0x0 DUP2 SWAP1 POP PUSH1 0x20 DUP3 ADD SWAP1 POP SWAP2 SWAP1 POP JUMP JUMPDEST PUSH1 0x0 DUP2 MLOAD SWAP1 POP SWAP2 SWAP1 POP JUMP JUMPDEST PUSH1 0x0 DUP2 MLOAD SWAP1 POP SWAP2 SWAP1 POP JUMP JUMPDEST PUSH1 0x0 PUSH1 0x20 DUP3 ADD SWAP1 POP SWAP2 SWAP1 POP JUMP JUMPDEST PUSH1 0x0 DUP3 DUP3 MSTORE PUSH1 0x20 DUP3 ADD SWAP1 POP SWAP3 SWAP2 POP POP JUMP JUMPDEST PUSH1 0x0 DUP3 DUP3 MSTORE PUSH1 0x20 DUP3 ADD SWAP1 POP SWAP3 SWAP2 POP POP JUMP JUMPDEST PUSH1 0x0 PUSH3 0x74E DUP3 PUSH3 0x776 JUMP JUMPDEST SWAP1 POP SWAP2 SWAP1 POP JUMP JUMPDEST PUSH1 0x0 DUP2 ISZERO ISZERO SWAP1 POP SWAP2 SWAP1 POP JUMP JUMPDEST PUSH1 0x0 DUP2 SWAP1 POP PUSH3 0x771 DUP3 PUSH3 0x8C6 JUMP JUMPDEST SWAP2 SWAP1 POP JUMP JUMPDEST PUSH1 0x0 PUSH20 0xFFFFFFFFFFFFFFFFFFFFFFFFFFFFFFFFFFFFFFFF DUP3 AND SWAP1 POP SWAP2 SWAP1 POP JUMP JUMPDEST PUSH1 0x0 DUP2 SWAP1 POP SWAP2 SWAP1 POP JUMP JUMPDEST PUSH1 0x0 PUSH3 0x7AD DUP3 PUSH3 0x7B4 JUMP JUMPDEST SWAP1 POP SWAP2 SWAP1 POP JUMP JUMPDEST PUSH1 0x0 PUSH3 0x7C1 DUP3 PUSH3 0x776 JUMP JUMPDEST SWAP1 POP SWAP2 SWAP1 POP JUMP JUMPDEST PUSH1 0x0 PUSH3 0x7D5 DUP3 PUSH3 0x761 JUMP JUMPDEST SWAP1 POP SWAP2 SWAP1 POP JUMP JUMPDEST DUP3 DUP2 DUP4 CALLDATACOPY PUSH1 0x0 DUP4 DUP4 ADD MSTORE POP POP POP JUMP JUMPDEST PUSH1 0x0 JUMPDEST DUP4 DUP2 LT ISZERO PUSH3 0x80B JUMPI DUP1 DUP3 ADD MLOAD DUP2 DUP5 ADD MSTORE PUSH1 0x20 DUP2 ADD SWAP1 POP PUSH3 0x7EE JUMP JUMPDEST DUP4 DUP2 GT ISZERO PUSH3 0x81B JUMPI PUSH1 0x0 DUP5 DUP5 ADD MSTORE JUMPDEST POP POP POP POP JUMP JUMPDEST PUSH3 0x82C DUP3 PUSH3 0x8B5 JUMP JUMPDEST DUP2 ADD DUP2 DUP2 LT PUSH8 0xFFFFFFFFFFFFFFFF DUP3 GT OR ISZERO PUSH3 0x84E JUMPI PUSH3 0x84D PUSH3 0x886 JUMP JUMPDEST JUMPDEST DUP1 PUSH1 0x40 MSTORE POP POP POP JUMP JUMPDEST PUSH32 0x4E487B7100000000000000000000000000000000000000000000000000000000 PUSH1 0x0 MSTORE PUSH1 0x21 PUSH1 0x4 MSTORE PUSH1 0x24 PUSH1 0x0 REVERT JUMPDEST PUSH32 0x4E487B7100000000000000000000000000000000000000000000000000000000 PUSH1 0x0 MSTORE PUSH1 0x41 PUSH1 0x4 MSTORE PUSH1 0x24 PUSH1 0x0 REVERT JUMPDEST PUSH1 0x0 PUSH1 0x1F NOT PUSH1 0x1F DUP4 ADD AND SWAP1 POP SWAP2 SWAP1 POP JUMP JUMPDEST PUSH1 0x7 DUP2 LT PUSH3 0x8DA JUMPI PUSH3 0x8D9 PUSH3 0x857 JUMP JUMPDEST JUMPDEST POP JUMP JUMPDEST PUSH3 0x8E8 DUP2 PUSH3 0x755 JUMP JUMPDEST DUP2 EQ PUSH3 0x8F4 JUMPI PUSH1 0x0 DUP1 REVERT JUMPDEST POP JUMP JUMPDEST PUSH1 0x7 DUP2 LT PUSH3 0x905 JUMPI PUSH1 0x0 DUP1 REVERT JUMPDEST POP JUMP JUMPDEST PUSH3 0x913 DUP2 PUSH3 0x796 JUMP JUMPDEST DUP2 EQ PUSH3 0x91F JUMPI PUSH1 0x0 DUP1 REVERT JUMPDEST POP JUMP INVALID PUSH1 0x80 PUSH1 0x40 MSTORE CALLVALUE DUP1 ISZERO PUSH3 0x11 JUMPI PUSH1 0x0 DUP1 REVERT JUMPDEST POP PUSH1 0x40 MLOAD PUSH3 0x1F0D CODESIZE SUB DUP1 PUSH3 0x1F0D DUP4 CODECOPY DUP2 DUP2 ADD PUSH1 0x40 MSTORE DUP2 ADD SWAP1 PUSH3 0x37 SWAP2 SWAP1 PUSH3 0x2E9 JUMP JUMPDEST DUP1 PUSH1 0x8 PUSH1 0x0 PUSH2 0x100 EXP DUP2 SLOAD DUP2 PUSH20 0xFFFFFFFFFFFFFFFFFFFFFFFFFFFFFFFFFFFFFFFF MUL NOT AND SWAP1 DUP4 PUSH20 0xFFFFFFFFFFFFFFFFFFFFFFFFFFFFFFFFFFFFFFFF AND MUL OR SWAP1 SSTORE POP DUP9 PUSH1 0xB DUP2 SWAP1 SSTORE POP DUP8 PUSH1 0xD DUP2 SWAP1 SSTORE POP DUP7 PUSH1 0x0 SWAP1 DUP1 MLOAD SWAP1 PUSH1 0x20 ADD SWAP1 PUSH3 0x9E SWAP3 SWAP2 SWAP1 PUSH3 0x16B JUMP JUMPDEST POP DUP6 PUSH1 0x1 SWAP1 DUP1 MLOAD SWAP1 PUSH1 0x20 ADD SWAP1 PUSH3 0xB7 SWAP3 SWAP2 SWAP1 PUSH3 0x16B JUMP JUMPDEST POP DUP5 PUSH1 0x2 SWAP1 DUP1 MLOAD SWAP1 PUSH1 0x20 ADD SWAP1 PUSH3 0xD0 SWAP3 SWAP2 SWAP1 PUSH3 0x16B JUMP JUMPDEST POP DUP4 PUSH1 0x3 SWAP1 DUP1 MLOAD SWAP1 PUSH1 0x20 ADD SWAP1 PUSH3 0xE9 SWAP3 SWAP2 SWAP1 PUSH3 0x16B JUMP JUMPDEST POP DUP3 PUSH1 0x4 PUSH1 0x0 PUSH2 0x100 EXP DUP2 SLOAD DUP2 PUSH1 0xFF MUL NOT AND SWAP1 DUP4 PUSH1 0x6 DUP2 GT ISZERO PUSH3 0x136 JUMPI PUSH32 0x4E487B7100000000000000000000000000000000000000000000000000000000 PUSH1 0x0 MSTORE PUSH1 0x21 PUSH1 0x4 MSTORE PUSH1 0x24 PUSH1 0x0 REVERT JUMPDEST MUL OR SWAP1 SSTORE POP DUP2 PUSH1 0x4 PUSH1 0x1 PUSH2 0x100 EXP DUP2 SLOAD DUP2 PUSH1 0xFF MUL NOT AND SWAP1 DUP4 ISZERO ISZERO MUL OR SWAP1 SSTORE POP TIMESTAMP PUSH1 0x5 DUP2 SWAP1 SSTORE POP POP POP POP POP POP POP POP POP POP PUSH3 0x63F JUMP JUMPDEST DUP3 DUP1 SLOAD PUSH3 0x179 SWAP1 PUSH3 0x505 JUMP JUMPDEST SWAP1 PUSH1 0x0 MSTORE PUSH1 0x20 PUSH1 0x0 KECCAK256 SWAP1 PUSH1 0x1F ADD PUSH1 0x20 SWAP1 DIV DUP2 ADD SWAP3 DUP3 PUSH3 0x19D JUMPI PUSH1 0x0 DUP6 SSTORE PUSH3 0x1E9 JUMP JUMPDEST DUP3 PUSH1 0x1F LT PUSH3 0x1B8 JUMPI DUP1 MLOAD PUSH1 0xFF NOT AND DUP4 DUP1 ADD OR DUP6 SSTORE PUSH3 0x1E9 JUMP JUMPDEST DUP3 DUP1 ADD PUSH1 0x1 ADD DUP6 SSTORE DUP3 ISZERO PUSH3 0x1E9 JUMPI SWAP2 DUP3 ADD JUMPDEST DUP3 DUP2 GT ISZERO PUSH3 0x1E8 JUMPI DUP3 MLOAD DUP3 SSTORE SWAP2 PUSH1 0x20 ADD SWAP2 SWAP1 PUSH1 0x1 ADD SWAP1 PUSH3 0x1CB JUMP JUMPDEST JUMPDEST POP SWAP1 POP PUSH3 0x1F8 SWAP2 SWAP1 PUSH3 0x1FC JUMP JUMPDEST POP SWAP1 JUMP JUMPDEST JUMPDEST DUP1 DUP3 GT ISZERO PUSH3 0x217 JUMPI PUSH1 0x0 DUP2 PUSH1 0x0 SWAP1 SSTORE POP PUSH1 0x1 ADD PUSH3 0x1FD JUMP JUMPDEST POP SWAP1 JUMP JUMPDEST PUSH1 0x0 PUSH3 0x232 PUSH3 0x22C DUP5 PUSH3 0x44F JUMP JUMPDEST PUSH3 0x426 JUMP JUMPDEST SWAP1 POP DUP3 DUP2 MSTORE PUSH1 0x20 DUP2 ADD DUP5 DUP5 DUP5 ADD GT ISZERO PUSH3 0x24B JUMPI PUSH1 0x0 DUP1 REVERT JUMPDEST PUSH3 0x258 DUP5 DUP3 DUP6 PUSH3 0x4CF JUMP JUMPDEST POP SWAP4 SWAP3 POP POP POP JUMP JUMPDEST PUSH1 0x0 DUP2 MLOAD SWAP1 POP PUSH3 0x271 DUP2 PUSH3 0x5E0 JUMP JUMPDEST SWAP3 SWAP2 POP POP JUMP JUMPDEST PUSH1 0x0 DUP2 MLOAD SWAP1 POP PUSH3 0x288 DUP2 PUSH3 0x5FA JUMP JUMPDEST SWAP3 SWAP2 POP POP JUMP JUMPDEST PUSH1 0x0 DUP2 MLOAD SWAP1 POP PUSH3 0x29F DUP2 PUSH3 0x614 JUMP JUMPDEST SWAP3 SWAP2 POP POP JUMP JUMPDEST PUSH1 0x0 DUP3 PUSH1 0x1F DUP4 ADD SLT PUSH3 0x2B7 JUMPI PUSH1 0x0 DUP1 REVERT JUMPDEST DUP2 MLOAD PUSH3 0x2C9 DUP5 DUP3 PUSH1 0x20 DUP7 ADD PUSH3 0x21B JUMP JUMPDEST SWAP2 POP POP SWAP3 SWAP2 POP POP JUMP JUMPDEST PUSH1 0x0 DUP2 MLOAD SWAP1 POP PUSH3 0x2E3 DUP2 PUSH3 0x625 JUMP JUMPDEST SWAP3 SWAP2 POP POP JUMP JUMPDEST PUSH1 0x0 DUP1 PUSH1 0x0 DUP1 PUSH1 0x0 DUP1 PUSH1 0x0 DUP1 PUSH1 0x0 PUSH2 0x120 DUP11 DUP13 SUB SLT ISZERO PUSH3 0x309 JUMPI PUSH1 0x0 DUP1 REVERT JUMPDEST PUSH1 0x0 PUSH3 0x319 DUP13 DUP3 DUP14 ADD PUSH3 0x2D2 JUMP JUMPDEST SWAP10 POP POP PUSH1 0x20 PUSH3 0x32C DUP13 DUP3 DUP14 ADD PUSH3 0x2D2 JUMP JUMPDEST SWAP9 POP POP PUSH1 0x40 DUP11 ADD MLOAD PUSH8 0xFFFFFFFFFFFFFFFF DUP2 GT ISZERO PUSH3 0x34A JUMPI PUSH1 0x0 DUP1 REVERT JUMPDEST PUSH3 0x358 DUP13 DUP3 DUP14 ADD PUSH3 0x2A5 JUMP JUMPDEST SWAP8 POP POP PUSH1 0x60 DUP11 ADD MLOAD PUSH8 0xFFFFFFFFFFFFFFFF DUP2 GT ISZERO PUSH3 0x376 JUMPI PUSH1 0x0 DUP1 REVERT JUMPDEST PUSH3 0x384 DUP13 DUP3 DUP14 ADD PUSH3 0x2A5 JUMP JUMPDEST SWAP7 POP POP PUSH1 0x80 DUP11 ADD MLOAD PUSH8 0xFFFFFFFFFFFFFFFF DUP2 GT ISZERO PUSH3 0x3A2 JUMPI PUSH1 0x0 DUP1 REVERT JUMPDEST PUSH3 0x3B0 DUP13 DUP3 DUP14 ADD PUSH3 0x2A5 JUMP JUMPDEST SWAP6 POP POP PUSH1 0xA0 DUP11 ADD MLOAD PUSH8 0xFFFFFFFFFFFFFFFF DUP2 GT ISZERO PUSH3 0x3CE JUMPI PUSH1 0x0 DUP1 REVERT JUMPDEST PUSH3 0x3DC DUP13 DUP3 DUP14 ADD PUSH3 0x2A5 JUMP JUMPDEST SWAP5 POP POP PUSH1 0xC0 PUSH3 0x3EF DUP13 DUP3 DUP14 ADD PUSH3 0x28E JUMP JUMPDEST SWAP4 POP POP PUSH1 0xE0 PUSH3 0x402 DUP13 DUP3 DUP14 ADD PUSH3 0x277 JUMP JUMPDEST SWAP3 POP POP PUSH2 0x100 PUSH3 0x416 DUP13 DUP3 DUP14 ADD PUSH3 0x260 JUMP JUMPDEST SWAP2 POP POP SWAP3 SWAP6 SWAP9 POP SWAP3 SWAP6 SWAP9 POP SWAP3 SWAP6 SWAP9 JUMP JUMPDEST PUSH1 0x0 PUSH3 0x432 PUSH3 0x445 JUMP JUMPDEST SWAP1 POP PUSH3 0x440 DUP3 DUP3 PUSH3 0x53B JUMP JUMPDEST SWAP2 SWAP1 POP JUMP JUMPDEST PUSH1 0x0 PUSH1 0x40 MLOAD SWAP1 POP SWAP1 JUMP JUMPDEST PUSH1 0x0 PUSH8 0xFFFFFFFFFFFFFFFF DUP3 GT ISZERO PUSH3 0x46D JUMPI PUSH3 0x46C PUSH3 0x5A0 JUMP JUMPDEST JUMPDEST PUSH3 0x478 DUP3 PUSH3 0x5CF JUMP JUMPDEST SWAP1 POP PUSH1 0x20 DUP2 ADD SWAP1 POP SWAP2 SWAP1 POP JUMP JUMPDEST PUSH1 0x0 PUSH3 0x492 DUP3 PUSH3 0x4A5 JUMP JUMPDEST SWAP1 POP SWAP2 SWAP1 POP JUMP JUMPDEST PUSH1 0x0 DUP2 ISZERO ISZERO SWAP1 POP SWAP2 SWAP1 POP JUMP JUMPDEST PUSH1 0x0 PUSH20 0xFFFFFFFFFFFFFFFFFFFFFFFFFFFFFFFFFFFFFFFF DUP3 AND SWAP1 POP SWAP2 SWAP1 POP JUMP JUMPDEST PUSH1 0x0 DUP2 SWAP1 POP SWAP2 SWAP1 POP JUMP JUMPDEST PUSH1 0x0 JUMPDEST DUP4 DUP2 LT ISZERO PUSH3 0x4EF JUMPI DUP1 DUP3 ADD MLOAD DUP2 DUP5 ADD MSTORE PUSH1 0x20 DUP2 ADD SWAP1 POP PUSH3 0x4D2 JUMP JUMPDEST DUP4 DUP2 GT ISZERO PUSH3 0x4FF JUMPI PUSH1 0x0 DUP5 DUP5 ADD MSTORE JUMPDEST POP POP POP POP JUMP JUMPDEST PUSH1 0x0 PUSH1 0x2 DUP3 DIV SWAP1 POP PUSH1 0x1 DUP3 AND DUP1 PUSH3 0x51E JUMPI PUSH1 0x7F DUP3 AND SWAP2 POP JUMPDEST PUSH1 0x20 DUP3 LT DUP2 EQ ISZERO PUSH3 0x535 JUMPI PUSH3 0x534 PUSH3 0x571 JUMP JUMPDEST JUMPDEST POP SWAP2 SWAP1 POP JUMP JUMPDEST PUSH3 0x546 DUP3 PUSH3 0x5CF JUMP JUMPDEST DUP2 ADD DUP2 DUP2 LT PUSH8 0xFFFFFFFFFFFFFFFF DUP3 GT OR ISZERO PUSH3 0x568 JUMPI PUSH3 0x567 PUSH3 0x5A0 JUMP JUMPDEST JUMPDEST DUP1 PUSH1 0x40 MSTORE POP POP POP JUMP JUMPDEST PUSH32 0x4E487B7100000000000000000000000000000000000000000000000000000000 PUSH1 0x0 MSTORE PUSH1 0x22 PUSH1 0x4 MSTORE PUSH1 0x24 PUSH1 0x0 REVERT JUMPDEST PUSH32 0x4E487B7100000000000000000000000000000000000000000000000000000000 PUSH1 0x0 MSTORE PUSH1 0x41 PUSH1 0x4 MSTORE PUSH1 0x24 PUSH1 0x0 REVERT JUMPDEST PUSH1 0x0 PUSH1 0x1F NOT PUSH1 0x1F DUP4 ADD AND SWAP1 POP SWAP2 SWAP1 POP JUMP JUMPDEST PUSH3 0x5EB DUP2 PUSH3 0x485 JUMP JUMPDEST DUP2 EQ PUSH3 0x5F7 JUMPI PUSH1 0x0 DUP1 REVERT JUMPDEST POP JUMP JUMPDEST PUSH3 0x605 DUP2 PUSH3 0x499 JUMP JUMPDEST DUP2 EQ PUSH3 0x611 JUMPI PUSH1 0x0 DUP1 REVERT JUMPDEST POP JUMP JUMPDEST PUSH1 0x7 DUP2 LT PUSH3 0x622 JUMPI PUSH1 0x0 DUP1 REVERT JUMPDEST POP JUMP JUMPDEST PUSH3 0x630 DUP2 PUSH3 0x4C5 JUMP JUMPDEST DUP2 EQ PUSH3 0x63C JUMPI PUSH1 0x0 DUP1 REVERT JUMPDEST POP JUMP JUMPDEST PUSH2 0x18BE DUP1 PUSH3 0x64F PUSH1 0x0 CODECOPY PUSH1 0x0 RETURN INVALID PUSH1 0x80 PUSH1 0x40 MSTORE PUSH1 0x4 CALLDATASIZE LT PUSH2 0x11F JUMPI PUSH1 0x0 CALLDATALOAD PUSH1 0xE0 SHR DUP1 PUSH4 0x7284E416 GT PUSH2 0xA0 JUMPI DUP1 PUSH4 0xB90497E0 GT PUSH2 0x64 JUMPI DUP1 PUSH4 0xB90497E0 EQ PUSH2 0x3D9 JUMPI DUP1 PUSH4 0xD1070133 EQ PUSH2 0x404 JUMPI DUP1 PUSH4 0xD7BB99BA EQ PUSH2 0x42F JUMPI DUP1 PUSH4 0xD7D1BBDB EQ PUSH2 0x439 JUMPI DUP1 PUSH4 0xEF430AA6 EQ PUSH2 0x462 JUMPI PUSH2 0x11F JUMP JUMPDEST DUP1 PUSH4 0x7284E416 EQ PUSH2 0x2ED JUMPI DUP1 PUSH4 0x7554E42F EQ PUSH2 0x318 JUMPI DUP1 PUSH4 0x81D12C58 EQ PUSH2 0x343 JUMPI DUP1 PUSH4 0x8A9CFD55 EQ PUSH2 0x385 JUMPI DUP1 PUSH4 0x9FB42B1F EQ PUSH2 0x3AE JUMPI PUSH2 0x11F JUMP JUMPDEST DUP1 PUSH4 0x26540FD2 GT PUSH2 0xE7 JUMPI DUP1 PUSH4 0x26540FD2 EQ PUSH2 0x20B JUMPI DUP1 PUSH4 0x4051DDAC EQ PUSH2 0x236 JUMPI DUP1 PUSH4 0x481C6A75 EQ PUSH2 0x269 JUMPI DUP1 PUSH4 0x59AF7A13 EQ PUSH2 0x294 JUMPI DUP1 PUSH4 0x6A24A938 EQ PUSH2 0x2BF JUMPI PUSH2 0x11F JUMP JUMPDEST DUP1 PUSH4 0x3441006 EQ PUSH2 0x124 JUMPI DUP1 PUSH4 0x6FDDE03 EQ PUSH2 0x14D JUMPI DUP1 PUSH4 0x9E7D837 EQ PUSH2 0x178 JUMPI DUP1 PUSH4 0xA144391 EQ PUSH2 0x1A3 JUMPI DUP1 PUSH4 0x1DA98960 EQ PUSH2 0x1E0 JUMPI JUMPDEST PUSH1 0x0 DUP1 REVERT JUMPDEST CALLVALUE DUP1 ISZERO PUSH2 0x130 JUMPI PUSH1 0x0 DUP1 REVERT JUMPDEST POP PUSH2 0x14B PUSH1 0x4 DUP1 CALLDATASIZE SUB DUP2 ADD SWAP1 PUSH2 0x146 SWAP2 SWAP1 PUSH2 0x120B JUMP JUMPDEST PUSH2 0x48D JUMP JUMPDEST STOP JUMPDEST CALLVALUE DUP1 ISZERO PUSH2 0x159 JUMPI PUSH1 0x0 DUP1 REVERT JUMPDEST POP PUSH2 0x162 PUSH2 0x5C8 JUMP JUMPDEST PUSH1 0x40 MLOAD PUSH2 0x16F SWAP2 SWAP1 PUSH2 0x1309 JUMP JUMPDEST PUSH1 0x40 MLOAD DUP1 SWAP2 SUB SWAP1 RETURN JUMPDEST CALLVALUE DUP1 ISZERO PUSH2 0x184 JUMPI PUSH1 0x0 DUP1 REVERT JUMPDEST POP PUSH2 0x18D PUSH2 0x656 JUMP JUMPDEST PUSH1 0x40 MLOAD PUSH2 0x19A SWAP2 SWAP1 PUSH2 0x1481 JUMP JUMPDEST PUSH1 0x40 MLOAD DUP1 SWAP2 SUB SWAP1 RETURN JUMPDEST CALLVALUE DUP1 ISZERO PUSH2 0x1AF JUMPI PUSH1 0x0 DUP1 REVERT JUMPDEST POP PUSH2 0x1CA PUSH1 0x4 DUP1 CALLDATASIZE SUB DUP2 ADD SWAP1 PUSH2 0x1C5 SWAP2 SWAP1 PUSH2 0x117B JUMP JUMPDEST PUSH2 0x65C JUMP JUMPDEST PUSH1 0x40 MLOAD PUSH2 0x1D7 SWAP2 SWAP1 PUSH2 0x1481 JUMP JUMPDEST PUSH1 0x40 MLOAD DUP1 SWAP2 SUB SWAP1 RETURN JUMPDEST CALLVALUE DUP1 ISZERO PUSH2 0x1EC JUMPI PUSH1 0x0 DUP1 REVERT JUMPDEST POP PUSH2 0x1F5 PUSH2 0x674 JUMP JUMPDEST PUSH1 0x40 MLOAD PUSH2 0x202 SWAP2 SWAP1 PUSH2 0x1309 JUMP JUMPDEST PUSH1 0x40 MLOAD DUP1 SWAP2 SUB SWAP1 RETURN JUMPDEST CALLVALUE DUP1 ISZERO PUSH2 0x217 JUMPI PUSH1 0x0 DUP1 REVERT JUMPDEST POP PUSH2 0x220 PUSH2 0x702 JUMP JUMPDEST PUSH1 0x40 MLOAD PUSH2 0x22D SWAP2 SWAP1 PUSH2 0x1481 JUMP JUMPDEST PUSH1 0x40 MLOAD DUP1 SWAP2 SUB SWAP1 RETURN JUMPDEST CALLVALUE DUP1 ISZERO PUSH2 0x242 JUMPI PUSH1 0x0 DUP1 REVERT JUMPDEST POP PUSH2 0x24B PUSH2 0x708 JUMP JUMPDEST PUSH1 0x40 MLOAD PUSH2 0x260 SWAP10 SWAP9 SWAP8 SWAP7 SWAP6 SWAP5 SWAP4 SWAP3 SWAP2 SWAP1 PUSH2 0x132B JUMP JUMPDEST PUSH1 0x40 MLOAD DUP1 SWAP2 SUB SWAP1 RETURN JUMPDEST CALLVALUE DUP1 ISZERO PUSH2 0x275 JUMPI PUSH1 0x0 DUP1 REVERT JUMPDEST POP PUSH2 0x27E PUSH2 0x909 JUMP JUMPDEST PUSH1 0x40 MLOAD PUSH2 0x28B SWAP2 SWAP1 PUSH2 0x12B8 JUMP JUMPDEST PUSH1 0x40 MLOAD DUP1 SWAP2 SUB SWAP1 RETURN JUMPDEST CALLVALUE DUP1 ISZERO PUSH2 0x2A0 JUMPI PUSH1 0x0 DUP1 REVERT JUMPDEST POP PUSH2 0x2A9 PUSH2 0x92F JUMP JUMPDEST PUSH1 0x40 MLOAD PUSH2 0x2B6 SWAP2 SWAP1 PUSH2 0x1481 JUMP JUMPDEST PUSH1 0x40 MLOAD DUP1 SWAP2 SUB SWAP1 RETURN JUMPDEST CALLVALUE DUP1 ISZERO PUSH2 0x2CB JUMPI PUSH1 0x0 DUP1 REVERT JUMPDEST POP PUSH2 0x2D4 PUSH2 0x935 JUMP JUMPDEST PUSH1 0x40 MLOAD PUSH2 0x2E4 SWAP5 SWAP4 SWAP3 SWAP2 SWAP1 PUSH2 0x1435 JUMP JUMPDEST PUSH1 0x40 MLOAD DUP1 SWAP2 SUB SWAP1 RETURN JUMPDEST CALLVALUE DUP1 ISZERO PUSH2 0x2F9 JUMPI PUSH1 0x0 DUP1 REVERT JUMPDEST POP PUSH2 0x302 PUSH2 0x9FF JUMP JUMPDEST PUSH1 0x40 MLOAD PUSH2 0x30F SWAP2 SWAP1 PUSH2 0x1309 JUMP JUMPDEST PUSH1 0x40 MLOAD DUP1 SWAP2 SUB SWAP1 RETURN JUMPDEST CALLVALUE DUP1 ISZERO PUSH2 0x324 JUMPI PUSH1 0x0 DUP1 REVERT JUMPDEST POP PUSH2 0x32D PUSH2 0xA8D JUMP JUMPDEST PUSH1 0x40 MLOAD PUSH2 0x33A SWAP2 SWAP1 PUSH2 0x1481 JUMP JUMPDEST PUSH1 0x40 MLOAD DUP1 SWAP2 SUB SWAP1 RETURN JUMPDEST CALLVALUE DUP1 ISZERO PUSH2 0x34F JUMPI PUSH1 0x0 DUP1 REVERT JUMPDEST POP PUSH2 0x36A PUSH1 0x4 DUP1 CALLDATASIZE SUB DUP2 ADD SWAP1 PUSH2 0x365 SWAP2 SWAP1 PUSH2 0x120B JUMP JUMPDEST PUSH2 0xA93 JUMP JUMPDEST PUSH1 0x40 MLOAD PUSH2 0x37C SWAP7 SWAP6 SWAP5 SWAP4 SWAP3 SWAP2 SWAP1 PUSH2 0x13CD JUMP JUMPDEST PUSH1 0x40 MLOAD DUP1 SWAP2 SUB SWAP1 RETURN JUMPDEST CALLVALUE DUP1 ISZERO PUSH2 0x391 JUMPI PUSH1 0x0 DUP1 REVERT JUMPDEST POP PUSH2 0x3AC PUSH1 0x4 DUP1 CALLDATASIZE SUB DUP2 ADD SWAP1 PUSH2 0x3A7 SWAP2 SWAP1 PUSH2 0x11A4 JUMP JUMPDEST PUSH2 0xB84 JUMP JUMPDEST STOP JUMPDEST CALLVALUE DUP1 ISZERO PUSH2 0x3BA JUMPI PUSH1 0x0 DUP1 REVERT JUMPDEST POP PUSH2 0x3C3 PUSH2 0xCA6 JUMP JUMPDEST PUSH1 0x40 MLOAD PUSH2 0x3D0 SWAP2 SWAP1 PUSH2 0x1481 JUMP JUMPDEST PUSH1 0x40 MLOAD DUP1 SWAP2 SUB SWAP1 RETURN JUMPDEST CALLVALUE DUP1 ISZERO PUSH2 0x3E5 JUMPI PUSH1 0x0 DUP1 REVERT JUMPDEST POP PUSH2 0x3EE PUSH2 0xCAC JUMP JUMPDEST PUSH1 0x40 MLOAD PUSH2 0x3FB SWAP2 SWAP1 PUSH2 0x1309 JUMP JUMPDEST PUSH1 0x40 MLOAD DUP1 SWAP2 SUB SWAP1 RETURN JUMPDEST CALLVALUE DUP1 ISZERO PUSH2 0x410 JUMPI PUSH1 0x0 DUP1 REVERT JUMPDEST POP PUSH2 0x419 PUSH2 0xD3A JUMP JUMPDEST PUSH1 0x40 MLOAD PUSH2 0x426 SWAP2 SWAP1 PUSH2 0x12D3 JUMP JUMPDEST PUSH1 0x40 MLOAD DUP1 SWAP2 SUB SWAP1 RETURN JUMPDEST PUSH2 0x437 PUSH2 0xD4D JUMP JUMPDEST STOP JUMPDEST CALLVALUE DUP1 ISZERO PUSH2 0x445 JUMPI PUSH1 0x0 DUP1 REVERT JUMPDEST POP PUSH2 0x460 PUSH1 0x4 DUP1 CALLDATASIZE SUB DUP2 ADD SWAP1 PUSH2 0x45B SWAP2 SWAP1 PUSH2 0x120B JUMP JUMPDEST PUSH2 0xEAA JUMP JUMPDEST STOP JUMPDEST CALLVALUE DUP1 ISZERO PUSH2 0x46E JUMPI PUSH1 0x0 DUP1 REVERT JUMPDEST POP PUSH2 0x477 PUSH2 0x101E JUMP JUMPDEST PUSH1 0x40 MLOAD PUSH2 0x484 SWAP2 SWAP1 PUSH2 0x12EE JUMP JUMPDEST PUSH1 0x40 MLOAD DUP1 SWAP2 SUB SWAP1 RETURN JUMPDEST PUSH1 0x8 PUSH1 0x0 SWAP1 SLOAD SWAP1 PUSH2 0x100 EXP SWAP1 DIV PUSH20 0xFFFFFFFFFFFFFFFFFFFFFFFFFFFFFFFFFFFFFFFF AND PUSH20 0xFFFFFFFFFFFFFFFFFFFFFFFFFFFFFFFFFFFFFFFF AND CALLER PUSH20 0xFFFFFFFFFFFFFFFFFFFFFFFFFFFFFFFFFFFFFFFF AND EQ PUSH2 0x4E7 JUMPI PUSH1 0x0 DUP1 REVERT JUMPDEST PUSH1 0x0 PUSH1 0x7 PUSH1 0x0 DUP4 DUP2 MSTORE PUSH1 0x20 ADD SWAP1 DUP2 MSTORE PUSH1 0x20 ADD PUSH1 0x0 KECCAK256 SWAP1 POP PUSH1 0x2 PUSH1 0xC SLOAD PUSH2 0x50D SWAP2 SWAP1 PUSH2 0x1564 JUMP JUMPDEST DUP2 PUSH1 0x3 ADD SLOAD GT PUSH2 0x51C JUMPI PUSH1 0x0 DUP1 REVERT JUMPDEST DUP1 PUSH1 0x2 ADD PUSH1 0x14 SWAP1 SLOAD SWAP1 PUSH2 0x100 EXP SWAP1 DIV PUSH1 0xFF AND ISZERO PUSH2 0x538 JUMPI PUSH1 0x0 DUP1 REVERT JUMPDEST DUP1 PUSH1 0x2 ADD PUSH1 0x0 SWAP1 SLOAD SWAP1 PUSH2 0x100 EXP SWAP1 DIV PUSH20 0xFFFFFFFFFFFFFFFFFFFFFFFFFFFFFFFFFFFFFFFF AND PUSH20 0xFFFFFFFFFFFFFFFFFFFFFFFFFFFFFFFFFFFFFFFF AND PUSH2 0x8FC DUP3 PUSH1 0x1 ADD SLOAD SWAP1 DUP2 ISZERO MUL SWAP1 PUSH1 0x40 MLOAD PUSH1 0x0 PUSH1 0x40 MLOAD DUP1 DUP4 SUB DUP2 DUP6 DUP9 DUP9 CALL SWAP4 POP POP POP POP ISZERO DUP1 ISZERO PUSH2 0x5A6 JUMPI RETURNDATASIZE PUSH1 0x0 DUP1 RETURNDATACOPY RETURNDATASIZE PUSH1 0x0 REVERT JUMPDEST POP PUSH1 0x1 DUP2 PUSH1 0x2 ADD PUSH1 0x14 PUSH2 0x100 EXP DUP2 SLOAD DUP2 PUSH1 0xFF MUL NOT AND SWAP1 DUP4 ISZERO ISZERO MUL OR SWAP1 SSTORE POP POP POP JUMP JUMPDEST PUSH1 0x0 DUP1 SLOAD PUSH2 0x5D5 SWAP1 PUSH2 0x1656 JUMP JUMPDEST DUP1 PUSH1 0x1F ADD PUSH1 0x20 DUP1 SWAP2 DIV MUL PUSH1 0x20 ADD PUSH1 0x40 MLOAD SWAP1 DUP2 ADD PUSH1 0x40 MSTORE DUP1 SWAP3 SWAP2 SWAP1 DUP2 DUP2 MSTORE PUSH1 0x20 ADD DUP3 DUP1 SLOAD PUSH2 0x601 SWAP1 PUSH2 0x1656 JUMP JUMPDEST DUP1 ISZERO PUSH2 0x64E JUMPI DUP1 PUSH1 0x1F LT PUSH2 0x623 JUMPI PUSH2 0x100 DUP1 DUP4 SLOAD DIV MUL DUP4 MSTORE SWAP2 PUSH1 0x20 ADD SWAP2 PUSH2 0x64E JUMP JUMPDEST DUP3 ADD SWAP2 SWAP1 PUSH1 0x0 MSTORE PUSH1 0x20 PUSH1 0x0 KECCAK256 SWAP1 JUMPDEST DUP2 SLOAD DUP2 MSTORE SWAP1 PUSH1 0x1 ADD SWAP1 PUSH1 0x20 ADD DUP1 DUP4 GT PUSH2 0x631 JUMPI DUP3 SWAP1 SUB PUSH1 0x1F AND DUP3 ADD SWAP2 JUMPDEST POP POP POP POP POP DUP2 JUMP JUMPDEST PUSH1 0xD SLOAD DUP2 JUMP JUMPDEST PUSH1 0xA PUSH1 0x20 MSTORE DUP1 PUSH1 0x0 MSTORE PUSH1 0x40 PUSH1 0x0 KECCAK256 PUSH1 0x0 SWAP2 POP SWAP1 POP SLOAD DUP2 JUMP JUMPDEST PUSH1 0x1 DUP1 SLOAD PUSH2 0x681 SWAP1 PUSH2 0x1656 JUMP JUMPDEST DUP1 PUSH1 0x1F ADD PUSH1 0x20 DUP1 SWAP2 DIV MUL PUSH1 0x20 ADD PUSH1 0x40 MLOAD SWAP1 DUP2 ADD PUSH1 0x40 MSTORE DUP1 SWAP3 SWAP2 SWAP1 DUP2 DUP2 MSTORE PUSH1 0x20 ADD DUP3 DUP1 SLOAD PUSH2 0x6AD SWAP1 PUSH2 0x1656 JUMP JUMPDEST DUP1 ISZERO PUSH2 0x6FA JUMPI DUP1 PUSH1 0x1F LT PUSH2 0x6CF JUMPI PUSH2 0x100 DUP1 DUP4 SLOAD DIV MUL DUP4 MSTORE SWAP2 PUSH1 0x20 ADD SWAP2 PUSH2 0x6FA JUMP JUMPDEST DUP3 ADD SWAP2 SWAP1 PUSH1 0x0 MSTORE PUSH1 0x20 PUSH1 0x0 KECCAK256 SWAP1 JUMPDEST DUP2 SLOAD DUP2 MSTORE SWAP1 PUSH1 0x1 ADD SWAP1 PUSH1 0x20 ADD DUP1 DUP4 GT PUSH2 0x6DD JUMPI DUP3 SWAP1 SUB PUSH1 0x1F AND DUP3 ADD SWAP2 JUMPDEST POP POP POP POP POP DUP2 JUMP JUMPDEST PUSH1 0xC SLOAD DUP2 JUMP JUMPDEST PUSH1 0x60 DUP1 PUSH1 0x60 PUSH1 0x0 DUP1 PUSH1 0x0 DUP1 PUSH1 0x0 DUP1 PUSH1 0x0 PUSH1 0x1 PUSH1 0x3 PUSH1 0x4 PUSH1 0x0 SWAP1 SLOAD SWAP1 PUSH2 0x100 EXP SWAP1 DIV PUSH1 0xFF AND PUSH1 0x4 PUSH1 0x1 SWAP1 SLOAD SWAP1 PUSH2 0x100 EXP SWAP1 DIV PUSH1 0xFF AND PUSH1 0xB SLOAD PUSH1 0xC SLOAD PUSH1 0x5 SLOAD PUSH1 0xD SLOAD DUP9 DUP1 SLOAD PUSH2 0x754 SWAP1 PUSH2 0x1656 JUMP JUMPDEST DUP1 PUSH1 0x1F ADD PUSH1 0x20 DUP1 SWAP2 DIV MUL PUSH1 0x20 ADD PUSH1 0x40 MLOAD SWAP1 DUP2 ADD PUSH1 0x40 MSTORE DUP1 SWAP3 SWAP2 SWAP1 DUP2 DUP2 MSTORE PUSH1 0x20 ADD DUP3 DUP1 SLOAD PUSH2 0x780 SWAP1 PUSH2 0x1656 JUMP JUMPDEST DUP1 ISZERO PUSH2 0x7CD JUMPI DUP1 PUSH1 0x1F LT PUSH2 0x7A2 JUMPI PUSH2 0x100 DUP1 DUP4 SLOAD DIV MUL DUP4 MSTORE SWAP2 PUSH1 0x20 ADD SWAP2 PUSH2 0x7CD JUMP JUMPDEST DUP3 ADD SWAP2 SWAP1 PUSH1 0x0 MSTORE PUSH1 0x20 PUSH1 0x0 KECCAK256 SWAP1 JUMPDEST DUP2 SLOAD DUP2 MSTORE SWAP1 PUSH1 0x1 ADD SWAP1 PUSH1 0x20 ADD DUP1 DUP4 GT PUSH2 0x7B0 JUMPI DUP3 SWAP1 SUB PUSH1 0x1F AND DUP3 ADD SWAP2 JUMPDEST POP POP POP POP POP SWAP9 POP DUP8 DUP1 SLOAD PUSH2 0x7E0 SWAP1 PUSH2 0x1656 JUMP JUMPDEST DUP1 PUSH1 0x1F ADD PUSH1 0x20 DUP1 SWAP2 DIV MUL PUSH1 0x20 ADD PUSH1 0x40 MLOAD SWAP1 DUP2 ADD PUSH1 0x40 MSTORE DUP1 SWAP3 SWAP2 SWAP1 DUP2 DUP2 MSTORE PUSH1 0x20 ADD DUP3 DUP1 SLOAD PUSH2 0x80C SWAP1 PUSH2 0x1656 JUMP JUMPDEST DUP1 ISZERO PUSH2 0x859 JUMPI DUP1 PUSH1 0x1F LT PUSH2 0x82E JUMPI PUSH2 0x100 DUP1 DUP4 SLOAD DIV MUL DUP4 MSTORE SWAP2 PUSH1 0x20 ADD SWAP2 PUSH2 0x859 JUMP JUMPDEST DUP3 ADD SWAP2 SWAP1 PUSH1 0x0 MSTORE PUSH1 0x20 PUSH1 0x0 KECCAK256 SWAP1 JUMPDEST DUP2 SLOAD DUP2 MSTORE SWAP1 PUSH1 0x1 ADD SWAP1 PUSH1 0x20 ADD DUP1 DUP4 GT PUSH2 0x83C JUMPI DUP3 SWAP1 SUB PUSH1 0x1F AND DUP3 ADD SWAP2 JUMPDEST POP POP POP POP POP SWAP8 POP DUP7 DUP1 SLOAD PUSH2 0x86C SWAP1 PUSH2 0x1656 JUMP JUMPDEST DUP1 PUSH1 0x1F ADD PUSH1 0x20 DUP1 SWAP2 DIV MUL PUSH1 0x20 ADD PUSH1 0x40 MLOAD SWAP1 DUP2 ADD PUSH1 0x40 MSTORE DUP1 SWAP3 SWAP2 SWAP1 DUP2 DUP2 MSTORE PUSH1 0x20 ADD DUP3 DUP1 SLOAD PUSH2 0x898 SWAP1 PUSH2 0x1656 JUMP JUMPDEST DUP1 ISZERO PUSH2 0x8E5 JUMPI DUP1 PUSH1 0x1F LT PUSH2 0x8BA JUMPI PUSH2 0x100 DUP1 DUP4 SLOAD DIV MUL DUP4 MSTORE SWAP2 PUSH1 0x20 ADD SWAP2 PUSH2 0x8E5 JUMP JUMPDEST DUP3 ADD SWAP2 SWAP1 PUSH1 0x0 MSTORE PUSH1 0x20 PUSH1 0x0 KECCAK256 SWAP1 JUMPDEST DUP2 SLOAD DUP2 MSTORE SWAP1 PUSH1 0x1 ADD SWAP1 PUSH1 0x20 ADD DUP1 DUP4 GT PUSH2 0x8C8 JUMPI DUP3 SWAP1 SUB PUSH1 0x1F AND DUP3 ADD SWAP2 JUMPDEST POP POP POP POP POP SWAP7 POP SWAP9 POP SWAP9 POP SWAP9 POP SWAP9 POP SWAP9 POP SWAP9 POP SWAP9 POP SWAP9 POP SWAP9 POP SWAP1 SWAP2 SWAP3 SWAP4 SWAP5 SWAP6 SWAP7 SWAP8 SWAP9 JUMP JUMPDEST PUSH1 0x8 PUSH1 0x0 SWAP1 SLOAD SWAP1 PUSH2 0x100 EXP SWAP1 DIV PUSH20 0xFFFFFFFFFFFFFFFFFFFFFFFFFFFFFFFFFFFFFFFF AND DUP2 JUMP JUMPDEST PUSH1 0xB SLOAD DUP2 JUMP JUMPDEST PUSH1 0x60 PUSH1 0x0 DUP1 PUSH1 0x0 PUSH1 0x2 PUSH1 0x6 SLOAD SELFBALANCE PUSH1 0x8 PUSH1 0x0 SWAP1 SLOAD SWAP1 PUSH2 0x100 EXP SWAP1 DIV PUSH20 0xFFFFFFFFFFFFFFFFFFFFFFFFFFFFFFFFFFFFFFFF AND DUP4 DUP1 SLOAD PUSH2 0x971 SWAP1 PUSH2 0x1656 JUMP JUMPDEST DUP1 PUSH1 0x1F ADD PUSH1 0x20 DUP1 SWAP2 DIV MUL PUSH1 0x20 ADD PUSH1 0x40 MLOAD SWAP1 DUP2 ADD PUSH1 0x40 MSTORE DUP1 SWAP3 SWAP2 SWAP1 DUP2 DUP2 MSTORE PUSH1 0x20 ADD DUP3 DUP1 SLOAD PUSH2 0x99D SWAP1 PUSH2 0x1656 JUMP JUMPDEST DUP1 ISZERO PUSH2 0x9EA JUMPI DUP1 PUSH1 0x1F LT PUSH2 0x9BF JUMPI PUSH2 0x100 DUP1 DUP4 SLOAD DIV MUL DUP4 MSTORE SWAP2 PUSH1 0x20 ADD SWAP2 PUSH2 0x9EA JUMP JUMPDEST DUP3 ADD SWAP2 SWAP1 PUSH1 0x0 MSTORE PUSH1 0x20 PUSH1 0x0 KECCAK256 SWAP1 JUMPDEST DUP2 SLOAD DUP2 MSTORE SWAP1 PUSH1 0x1 ADD SWAP1 PUSH1 0x20 ADD DUP1 DUP4 GT PUSH2 0x9CD JUMPI DUP3 SWAP1 SUB PUSH1 0x1F AND DUP3 ADD SWAP2 JUMPDEST POP POP POP POP POP SWAP4 POP SWAP4 POP SWAP4 POP SWAP4 POP SWAP4 POP SWAP1 SWAP2 SWAP3 SWAP4 JUMP JUMPDEST PUSH1 0x2 DUP1 SLOAD PUSH2 0xA0C SWAP1 PUSH2 0x1656 JUMP JUMPDEST DUP1 PUSH1 0x1F ADD PUSH1 0x20 DUP1 SWAP2 DIV MUL PUSH1 0x20 ADD PUSH1 0x40 MLOAD SWAP1 DUP2 ADD PUSH1 0x40 MSTORE DUP1 SWAP3 SWAP2 SWAP1 DUP2 DUP2 MSTORE PUSH1 0x20 ADD DUP3 DUP1 SLOAD PUSH2 0xA38 SWAP1 PUSH2 0x1656 JUMP JUMPDEST DUP1 ISZERO PUSH2 0xA85 JUMPI DUP1 PUSH1 0x1F LT PUSH2 0xA5A JUMPI PUSH2 0x100 DUP1 DUP4 SLOAD DIV MUL DUP4 MSTORE SWAP2 PUSH1 0x20 ADD SWAP2 PUSH2 0xA85 JUMP JUMPDEST DUP3 ADD SWAP2 SWAP1 PUSH1 0x0 MSTORE PUSH1 0x20 PUSH1 0x0 KECCAK256 SWAP1 JUMPDEST DUP2 SLOAD DUP2 MSTORE SWAP1 PUSH1 0x1 ADD SWAP1 PUSH1 0x20 ADD DUP1 DUP4 GT PUSH2 0xA68 JUMPI DUP3 SWAP1 SUB PUSH1 0x1F AND DUP3 ADD SWAP2 JUMPDEST POP POP POP POP POP DUP2 JUMP JUMPDEST PUSH1 0x9 SLOAD DUP2 JUMP JUMPDEST PUSH1 0x7 PUSH1 0x20 MSTORE DUP1 PUSH1 0x0 MSTORE PUSH1 0x40 PUSH1 0x0 KECCAK256 PUSH1 0x0 SWAP2 POP SWAP1 POP DUP1 PUSH1 0x0 ADD DUP1 SLOAD PUSH2 0xAB6 SWAP1 PUSH2 0x1656 JUMP JUMPDEST DUP1 PUSH1 0x1F ADD PUSH1 0x20 DUP1 SWAP2 DIV MUL PUSH1 0x20 ADD PUSH1 0x40 MLOAD SWAP1 DUP2 ADD PUSH1 0x40 MSTORE DUP1 SWAP3 SWAP2 SWAP1 DUP2 DUP2 MSTORE PUSH1 0x20 ADD DUP3 DUP1 SLOAD PUSH2 0xAE2 SWAP1 PUSH2 0x1656 JUMP JUMPDEST DUP1 ISZERO PUSH2 0xB2F JUMPI DUP1 PUSH1 0x1F LT PUSH2 0xB04 JUMPI PUSH2 0x100 DUP1 DUP4 SLOAD DIV MUL DUP4 MSTORE SWAP2 PUSH1 0x20 ADD SWAP2 PUSH2 0xB2F JUMP JUMPDEST DUP3 ADD SWAP2 SWAP1 PUSH1 0x0 MSTORE PUSH1 0x20 PUSH1 0x0 KECCAK256 SWAP1 JUMPDEST DUP2 SLOAD DUP2 MSTORE SWAP1 PUSH1 0x1 ADD SWAP1 PUSH1 0x20 ADD DUP1 DUP4 GT PUSH2 0xB12 JUMPI DUP3 SWAP1 SUB PUSH1 0x1F AND DUP3 ADD SWAP2 JUMPDEST POP POP POP POP POP SWAP1 DUP1 PUSH1 0x1 ADD SLOAD SWAP1 DUP1 PUSH1 0x2 ADD PUSH1 0x0 SWAP1 SLOAD SWAP1 PUSH2 0x100 EXP SWAP1 DIV PUSH20 0xFFFFFFFFFFFFFFFFFFFFFFFFFFFFFFFFFFFFFFFF AND SWAP1 DUP1 PUSH1 0x2 ADD PUSH1 0x14 SWAP1 SLOAD SWAP1 PUSH2 0x100 EXP SWAP1 DIV PUSH1 0xFF AND SWAP1 DUP1 PUSH1 0x3 ADD SLOAD SWAP1 DUP1 PUSH1 0x4 ADD SLOAD SWAP1 POP DUP7 JUMP JUMPDEST PUSH1 0x8 PUSH1 0x0 SWAP1 SLOAD SWAP1 PUSH2 0x100 EXP SWAP1 DIV PUSH20 0xFFFFFFFFFFFFFFFFFFFFFFFFFFFFFFFFFFFFFFFF AND PUSH20 0xFFFFFFFFFFFFFFFFFFFFFFFFFFFFFFFFFFFFFFFF AND CALLER PUSH20 0xFFFFFFFFFFFFFFFFFFFFFFFFFFFFFFFFFFFFFFFF AND EQ PUSH2 0xBDE JUMPI PUSH1 0x0 DUP1 REVERT JUMPDEST PUSH1 0x0 PUSH1 0x7 PUSH1 0x0 PUSH1 0x6 PUSH1 0x0 DUP2 SLOAD DUP1 SWAP3 SWAP2 SWAP1 PUSH2 0xBF7 SWAP1 PUSH2 0x16B9 JUMP JUMPDEST SWAP2 SWAP1 POP SSTORE DUP2 MSTORE PUSH1 0x20 ADD SWAP1 DUP2 MSTORE PUSH1 0x20 ADD PUSH1 0x0 KECCAK256 SWAP1 POP DUP4 DUP2 PUSH1 0x0 ADD SWAP1 DUP1 MLOAD SWAP1 PUSH1 0x20 ADD SWAP1 PUSH2 0xC23 SWAP3 SWAP2 SWAP1 PUSH2 0x1031 JUMP JUMPDEST POP DUP3 DUP2 PUSH1 0x1 ADD DUP2 SWAP1 SSTORE POP DUP2 DUP2 PUSH1 0x2 ADD PUSH1 0x0 PUSH2 0x100 EXP DUP2 SLOAD DUP2 PUSH20 0xFFFFFFFFFFFFFFFFFFFFFFFFFFFFFFFFFFFFFFFF MUL NOT AND SWAP1 DUP4 PUSH20 0xFFFFFFFFFFFFFFFFFFFFFFFFFFFFFFFFFFFFFFFF AND MUL OR SWAP1 SSTORE POP PUSH1 0x0 DUP2 PUSH1 0x2 ADD PUSH1 0x14 PUSH2 0x100 EXP DUP2 SLOAD DUP2 PUSH1 0xFF MUL NOT AND SWAP1 DUP4 ISZERO ISZERO MUL OR SWAP1 SSTORE POP PUSH1 0x0 DUP2 PUSH1 0x3 ADD DUP2 SWAP1 SSTORE POP TIMESTAMP DUP2 PUSH1 0x4 ADD DUP2 SWAP1 SSTORE POP POP POP POP POP JUMP JUMPDEST PUSH1 0x6 SLOAD DUP2 JUMP JUMPDEST PUSH1 0x3 DUP1 SLOAD PUSH2 0xCB9 SWAP1 PUSH2 0x1656 JUMP JUMPDEST DUP1 PUSH1 0x1F ADD PUSH1 0x20 DUP1 SWAP2 DIV MUL PUSH1 0x20 ADD PUSH1 0x40 MLOAD SWAP1 DUP2 ADD PUSH1 0x40 MSTORE DUP1 SWAP3 SWAP2 SWAP1 DUP2 DUP2 MSTORE PUSH1 0x20 ADD DUP3 DUP1 SLOAD PUSH2 0xCE5 SWAP1 PUSH2 0x1656 JUMP JUMPDEST DUP1 ISZERO PUSH2 0xD32 JUMPI DUP1 PUSH1 0x1F LT PUSH2 0xD07 JUMPI PUSH2 0x100 DUP1 DUP4 SLOAD DIV MUL DUP4 MSTORE SWAP2 PUSH1 0x20 ADD SWAP2 PUSH2 0xD32 JUMP JUMPDEST DUP3 ADD SWAP2 SWAP1 PUSH1 0x0 MSTORE PUSH1 0x20 PUSH1 0x0 KECCAK256 SWAP1 JUMPDEST DUP2 SLOAD DUP2 MSTORE SWAP1 PUSH1 0x1 ADD SWAP1 PUSH1 0x20 ADD DUP1 DUP4 GT PUSH2 0xD15 JUMPI DUP3 SWAP1 SUB PUSH1 0x1F AND DUP3 ADD SWAP2 JUMPDEST POP POP POP POP POP DUP2 JUMP JUMPDEST PUSH1 0x4 PUSH1 0x1 SWAP1 SLOAD SWAP1 PUSH2 0x100 EXP SWAP1 DIV PUSH1 0xFF AND DUP2 JUMP JUMPDEST PUSH1 0xB SLOAD CALLVALUE LT ISZERO PUSH2 0xD5C JUMPI PUSH1 0x0 DUP1 REVERT JUMPDEST PUSH1 0x0 PUSH1 0xA PUSH1 0x0 CALLER PUSH20 0xFFFFFFFFFFFFFFFFFFFFFFFFFFFFFFFFFFFFFFFF AND PUSH20 0xFFFFFFFFFFFFFFFFFFFFFFFFFFFFFFFFFFFFFFFF AND DUP2 MSTORE PUSH1 0x20 ADD SWAP1 DUP2 MSTORE PUSH1 0x20 ADD PUSH1 0x0 KECCAK256 SLOAD EQ ISZERO PUSH2 0xDBD JUMPI PUSH1 0x9 PUSH1 0x0 DUP2 SLOAD DUP1 SWAP3 SWAP2 SWAP1 PUSH2 0xDB7 SWAP1 PUSH2 0x16B9 JUMP JUMPDEST SWAP2 SWAP1 POP SSTORE POP JUMPDEST PUSH1 0x0 PUSH1 0xB SLOAD CALLVALUE PUSH2 0xDCD SWAP2 SWAP1 PUSH2 0x1564 JUMP JUMPDEST SWAP1 POP DUP1 PUSH1 0xA PUSH1 0x0 CALLER PUSH20 0xFFFFFFFFFFFFFFFFFFFFFFFFFFFFFFFFFFFFFFFF AND PUSH20 0xFFFFFFFFFFFFFFFFFFFFFFFFFFFFFFFFFFFFFFFF AND DUP2 MSTORE PUSH1 0x20 ADD SWAP1 DUP2 MSTORE PUSH1 0x20 ADD PUSH1 0x0 KECCAK256 PUSH1 0x0 DUP3 DUP3 SLOAD PUSH2 0xE1E SWAP2 SWAP1 PUSH2 0x150E JUMP JUMPDEST SWAP3 POP POP DUP2 SWAP1 SSTORE POP DUP1 PUSH1 0xC PUSH1 0x0 DUP3 DUP3 SLOAD PUSH2 0xE37 SWAP2 SWAP1 PUSH2 0x150E JUMP JUMPDEST SWAP3 POP POP DUP2 SWAP1 SSTORE POP PUSH1 0x0 PUSH1 0xB SLOAD CALLVALUE PUSH2 0xE4E SWAP2 SWAP1 PUSH2 0x1702 JUMP JUMPDEST SWAP1 POP PUSH1 0x0 DUP2 EQ PUSH2 0xEA6 JUMPI PUSH1 0x0 CALLER SWAP1 POP DUP1 PUSH20 0xFFFFFFFFFFFFFFFFFFFFFFFFFFFFFFFFFFFFFFFF AND PUSH2 0x8FC DUP4 SWAP1 DUP2 ISZERO MUL SWAP1 PUSH1 0x40 MLOAD PUSH1 0x0 PUSH1 0x40 MLOAD DUP1 DUP4 SUB DUP2 DUP6 DUP9 DUP9 CALL SWAP4 POP POP POP POP ISZERO DUP1 ISZERO PUSH2 0xEA3 JUMPI RETURNDATASIZE PUSH1 0x0 DUP1 RETURNDATACOPY RETURNDATASIZE PUSH1 0x0 REVERT JUMPDEST POP POP JUMPDEST POP POP JUMP JUMPDEST PUSH1 0x0 PUSH1 0x7 PUSH1 0x0 DUP4 DUP2 MSTORE PUSH1 0x20 ADD SWAP1 DUP2 MSTORE PUSH1 0x20 ADD PUSH1 0x0 KECCAK256 SWAP1 POP PUSH1 0x0 PUSH1 0xA PUSH1 0x0 CALLER PUSH20 0xFFFFFFFFFFFFFFFFFFFFFFFFFFFFFFFFFFFFFFFF AND PUSH20 0xFFFFFFFFFFFFFFFFFFFFFFFFFFFFFFFFFFFFFFFF AND DUP2 MSTORE PUSH1 0x20 ADD SWAP1 DUP2 MSTORE PUSH1 0x20 ADD PUSH1 0x0 KECCAK256 SLOAD GT PUSH2 0xF0D JUMPI PUSH1 0x0 DUP1 REVERT JUMPDEST DUP1 PUSH1 0x5 ADD PUSH1 0x0 CALLER PUSH20 0xFFFFFFFFFFFFFFFFFFFFFFFFFFFFFFFFFFFFFFFF AND PUSH20 0xFFFFFFFFFFFFFFFFFFFFFFFFFFFFFFFFFFFFFFFF AND DUP2 MSTORE PUSH1 0x20 ADD SWAP1 DUP2 MSTORE PUSH1 0x20 ADD PUSH1 0x0 KECCAK256 PUSH1 0x0 SWAP1 SLOAD SWAP1 PUSH2 0x100 EXP SWAP1 DIV PUSH1 0xFF AND ISZERO PUSH2 0xF66 JUMPI PUSH1 0x0 DUP1 REVERT JUMPDEST PUSH1 0x1 DUP2 PUSH1 0x5 ADD PUSH1 0x0 CALLER PUSH20 0xFFFFFFFFFFFFFFFFFFFFFFFFFFFFFFFFFFFFFFFF AND PUSH20 0xFFFFFFFFFFFFFFFFFFFFFFFFFFFFFFFFFFFFFFFF AND DUP2 MSTORE PUSH1 0x20 ADD SWAP1 DUP2 MSTORE PUSH1 0x20 ADD PUSH1 0x0 KECCAK256 PUSH1 0x0 PUSH2 0x100 EXP DUP2 SLOAD DUP2 PUSH1 0xFF MUL NOT AND SWAP1 DUP4 ISZERO ISZERO MUL OR SWAP1 SSTORE POP PUSH1 0xA PUSH1 0x0 CALLER PUSH20 0xFFFFFFFFFFFFFFFFFFFFFFFFFFFFFFFFFFFFFFFF AND PUSH20 0xFFFFFFFFFFFFFFFFFFFFFFFFFFFFFFFFFFFFFFFF AND DUP2 MSTORE PUSH1 0x20 ADD SWAP1 DUP2 MSTORE PUSH1 0x20 ADD PUSH1 0x0 KECCAK256 SLOAD DUP2 PUSH1 0x3 ADD PUSH1 0x0 DUP3 DUP3 SLOAD PUSH2 0x1013 SWAP2 SWAP1 PUSH2 0x150E JUMP JUMPDEST SWAP3 POP POP DUP2 SWAP1 SSTORE POP POP POP JUMP JUMPDEST PUSH1 0x4 PUSH1 0x0 SWAP1 SLOAD SWAP1 PUSH2 0x100 EXP SWAP1 DIV PUSH1 0xFF AND DUP2 JUMP JUMPDEST DUP3 DUP1 SLOAD PUSH2 0x103D SWAP1 PUSH2 0x1656 JUMP JUMPDEST SWAP1 PUSH1 0x0 MSTORE PUSH1 0x20 PUSH1 0x0 KECCAK256 SWAP1 PUSH1 0x1F ADD PUSH1 0x20 SWAP1 DIV DUP2 ADD SWAP3 DUP3 PUSH2 0x105F JUMPI PUSH1 0x0 DUP6 SSTORE PUSH2 0x10A6 JUMP JUMPDEST DUP3 PUSH1 0x1F LT PUSH2 0x1078 JUMPI DUP1 MLOAD PUSH1 0xFF NOT AND DUP4 DUP1 ADD OR DUP6 SSTORE PUSH2 0x10A6 JUMP JUMPDEST DUP3 DUP1 ADD PUSH1 0x1 ADD DUP6 SSTORE DUP3 ISZERO PUSH2 0x10A6 JUMPI SWAP2 DUP3 ADD JUMPDEST DUP3 DUP2 GT ISZERO PUSH2 0x10A5 JUMPI DUP3 MLOAD DUP3 SSTORE SWAP2 PUSH1 0x20 ADD SWAP2 SWAP1 PUSH1 0x1 ADD SWAP1 PUSH2 0x108A JUMP JUMPDEST JUMPDEST POP SWAP1 POP PUSH2 0x10B3 SWAP2 SWAP1 PUSH2 0x10B7 JUMP JUMPDEST POP SWAP1 JUMP JUMPDEST JUMPDEST DUP1 DUP3 GT ISZERO PUSH2 0x10D0 JUMPI PUSH1 0x0 DUP2 PUSH1 0x0 SWAP1 SSTORE POP PUSH1 0x1 ADD PUSH2 0x10B8 JUMP JUMPDEST POP SWAP1 JUMP JUMPDEST PUSH1 0x0 PUSH2 0x10E7 PUSH2 0x10E2 DUP5 PUSH2 0x14C1 JUMP JUMPDEST PUSH2 0x149C JUMP JUMPDEST SWAP1 POP DUP3 DUP2 MSTORE PUSH1 0x20 DUP2 ADD DUP5 DUP5 DUP5 ADD GT ISZERO PUSH2 0x10FF JUMPI PUSH1 0x0 DUP1 REVERT JUMPDEST PUSH2 0x110A DUP5 DUP3 DUP6 PUSH2 0x1614 JUMP JUMPDEST POP SWAP4 SWAP3 POP POP POP JUMP JUMPDEST PUSH1 0x0 DUP2 CALLDATALOAD SWAP1 POP PUSH2 0x1121 DUP2 PUSH2 0x1843 JUMP JUMPDEST SWAP3 SWAP2 POP POP JUMP JUMPDEST PUSH1 0x0 DUP2 CALLDATALOAD SWAP1 POP PUSH2 0x1136 DUP2 PUSH2 0x185A JUMP JUMPDEST SWAP3 SWAP2 POP POP JUMP JUMPDEST PUSH1 0x0 DUP3 PUSH1 0x1F DUP4 ADD SLT PUSH2 0x114D JUMPI PUSH1 0x0 DUP1 REVERT JUMPDEST DUP2 CALLDATALOAD PUSH2 0x115D DUP5 DUP3 PUSH1 0x20 DUP7 ADD PUSH2 0x10D4 JUMP JUMPDEST SWAP2 POP POP SWAP3 SWAP2 POP POP JUMP JUMPDEST PUSH1 0x0 DUP2 CALLDATALOAD SWAP1 POP PUSH2 0x1175 DUP2 PUSH2 0x1871 JUMP JUMPDEST SWAP3 SWAP2 POP POP JUMP JUMPDEST PUSH1 0x0 PUSH1 0x20 DUP3 DUP5 SUB SLT ISZERO PUSH2 0x118D JUMPI PUSH1 0x0 DUP1 REVERT JUMPDEST PUSH1 0x0 PUSH2 0x119B DUP5 DUP3 DUP6 ADD PUSH2 0x1112 JUMP JUMPDEST SWAP2 POP POP SWAP3 SWAP2 POP POP JUMP JUMPDEST PUSH1 0x0 DUP1 PUSH1 0x0 PUSH1 0x60 DUP5 DUP7 SUB SLT ISZERO PUSH2 0x11B9 JUMPI PUSH1 0x0 DUP1 REVERT JUMPDEST PUSH1 0x0 DUP5 ADD CALLDATALOAD PUSH8 0xFFFFFFFFFFFFFFFF DUP2 GT ISZERO PUSH2 0x11D3 JUMPI PUSH1 0x0 DUP1 REVERT JUMPDEST PUSH2 0x11DF DUP7 DUP3 DUP8 ADD PUSH2 0x113C JUMP JUMPDEST SWAP4 POP POP PUSH1 0x20 PUSH2 0x11F0 DUP7 DUP3 DUP8 ADD PUSH2 0x1166 JUMP JUMPDEST SWAP3 POP POP PUSH1 0x40 PUSH2 0x1201 DUP7 DUP3 DUP8 ADD PUSH2 0x1127 JUMP JUMPDEST SWAP2 POP POP SWAP3 POP SWAP3 POP SWAP3 JUMP JUMPDEST PUSH1 0x0 PUSH1 0x20 DUP3 DUP5 SUB SLT ISZERO PUSH2 0x121D JUMPI PUSH1 0x0 DUP1 REVERT JUMPDEST PUSH1 0x0 PUSH2 0x122B DUP5 DUP3 DUP6 ADD PUSH2 0x1166 JUMP JUMPDEST SWAP2 POP POP SWAP3 SWAP2 POP POP JUMP JUMPDEST PUSH2 0x123D DUP2 PUSH2 0x15A7 JUMP JUMPDEST DUP3 MSTORE POP POP JUMP JUMPDEST PUSH2 0x124C DUP2 PUSH2 0x1595 JUMP JUMPDEST DUP3 MSTORE POP POP JUMP JUMPDEST PUSH2 0x125B DUP2 PUSH2 0x15B9 JUMP JUMPDEST DUP3 MSTORE POP POP JUMP JUMPDEST PUSH2 0x126A DUP2 PUSH2 0x1602 JUMP JUMPDEST DUP3 MSTORE POP POP JUMP JUMPDEST PUSH1 0x0 PUSH2 0x127B DUP3 PUSH2 0x14F2 JUMP JUMPDEST PUSH2 0x1285 DUP2 DUP6 PUSH2 0x14FD JUMP JUMPDEST SWAP4 POP PUSH2 0x1295 DUP2 DUP6 PUSH1 0x20 DUP7 ADD PUSH2 0x1623 JUMP JUMPDEST PUSH2 0x129E DUP2 PUSH2 0x181E JUMP JUMPDEST DUP5 ADD SWAP2 POP POP SWAP3 SWAP2 POP POP JUMP JUMPDEST PUSH2 0x12B2 DUP2 PUSH2 0x15F8 JUMP JUMPDEST DUP3 MSTORE POP POP JUMP JUMPDEST PUSH1 0x0 PUSH1 0x20 DUP3 ADD SWAP1 POP PUSH2 0x12CD PUSH1 0x0 DUP4 ADD DUP5 PUSH2 0x1243 JUMP JUMPDEST SWAP3 SWAP2 POP POP JUMP JUMPDEST PUSH1 0x0 PUSH1 0x20 DUP3 ADD SWAP1 POP PUSH2 0x12E8 PUSH1 0x0 DUP4 ADD DUP5 PUSH2 0x1252 JUMP JUMPDEST SWAP3 SWAP2 POP POP JUMP JUMPDEST PUSH1 0x0 PUSH1 0x20 DUP3 ADD SWAP1 POP PUSH2 0x1303 PUSH1 0x0 DUP4 ADD DUP5 PUSH2 0x1261 JUMP JUMPDEST SWAP3 SWAP2 POP POP JUMP JUMPDEST PUSH1 0x0 PUSH1 0x20 DUP3 ADD SWAP1 POP DUP2 DUP2 SUB PUSH1 0x0 DUP4 ADD MSTORE PUSH2 0x1323 DUP2 DUP5 PUSH2 0x1270 JUMP JUMPDEST SWAP1 POP SWAP3 SWAP2 POP POP JUMP JUMPDEST PUSH1 0x0 PUSH2 0x120 DUP3 ADD SWAP1 POP DUP2 DUP2 SUB PUSH1 0x0 DUP4 ADD MSTORE PUSH2 0x1346 DUP2 DUP13 PUSH2 0x1270 JUMP JUMPDEST SWAP1 POP DUP2 DUP2 SUB PUSH1 0x20 DUP4 ADD MSTORE PUSH2 0x135A DUP2 DUP12 PUSH2 0x1270 JUMP JUMPDEST SWAP1 POP DUP2 DUP2 SUB PUSH1 0x40 DUP4 ADD MSTORE PUSH2 0x136E DUP2 DUP11 PUSH2 0x1270 JUMP JUMPDEST SWAP1 POP PUSH2 0x137D PUSH1 0x60 DUP4 ADD DUP10 PUSH2 0x1261 JUMP JUMPDEST PUSH2 0x138A PUSH1 0x80 DUP4 ADD DUP9 PUSH2 0x1252 JUMP JUMPDEST PUSH2 0x1397 PUSH1 0xA0 DUP4 ADD DUP8 PUSH2 0x12A9 JUMP JUMPDEST PUSH2 0x13A4 PUSH1 0xC0 DUP4 ADD DUP7 PUSH2 0x12A9 JUMP JUMPDEST PUSH2 0x13B1 PUSH1 0xE0 DUP4 ADD DUP6 PUSH2 0x12A9 JUMP JUMPDEST PUSH2 0x13BF PUSH2 0x100 DUP4 ADD DUP5 PUSH2 0x12A9 JUMP JUMPDEST SWAP11 SWAP10 POP POP POP POP POP POP POP POP POP POP JUMP JUMPDEST PUSH1 0x0 PUSH1 0xC0 DUP3 ADD SWAP1 POP DUP2 DUP2 SUB PUSH1 0x0 DUP4 ADD MSTORE PUSH2 0x13E7 DUP2 DUP10 PUSH2 0x1270 JUMP JUMPDEST SWAP1 POP PUSH2 0x13F6 PUSH1 0x20 DUP4 ADD DUP9 PUSH2 0x12A9 JUMP JUMPDEST PUSH2 0x1403 PUSH1 0x40 DUP4 ADD DUP8 PUSH2 0x1234 JUMP JUMPDEST PUSH2 0x1410 PUSH1 0x60 DUP4 ADD DUP7 PUSH2 0x1252 JUMP JUMPDEST PUSH2 0x141D PUSH1 0x80 DUP4 ADD DUP6 PUSH2 0x12A9 JUMP JUMPDEST PUSH2 0x142A PUSH1 0xA0 DUP4 ADD DUP5 PUSH2 0x12A9 JUMP JUMPDEST SWAP8 SWAP7 POP POP POP POP POP POP POP JUMP JUMPDEST PUSH1 0x0 PUSH1 0x80 DUP3 ADD SWAP1 POP DUP2 DUP2 SUB PUSH1 0x0 DUP4 ADD MSTORE PUSH2 0x144F DUP2 DUP8 PUSH2 0x1270 JUMP JUMPDEST SWAP1 POP PUSH2 0x145E PUSH1 0x20 DUP4 ADD DUP7 PUSH2 0x12A9 JUMP JUMPDEST PUSH2 0x146B PUSH1 0x40 DUP4 ADD DUP6 PUSH2 0x12A9 JUMP JUMPDEST PUSH2 0x1478 PUSH1 0x60 DUP4 ADD DUP5 PUSH2 0x1243 JUMP JUMPDEST SWAP6 SWAP5 POP POP POP POP POP JUMP JUMPDEST PUSH1 0x0 PUSH1 0x20 DUP3 ADD SWAP1 POP PUSH2 0x1496 PUSH1 0x0 DUP4 ADD DUP5 PUSH2 0x12A9 JUMP JUMPDEST SWAP3 SWAP2 POP POP JUMP JUMPDEST PUSH1 0x0 PUSH2 0x14A6 PUSH2 0x14B7 JUMP JUMPDEST SWAP1 POP PUSH2 0x14B2 DUP3 DUP3 PUSH2 0x1688 JUMP JUMPDEST SWAP2 SWAP1 POP JUMP JUMPDEST PUSH1 0x0 PUSH1 0x40 MLOAD SWAP1 POP SWAP1 JUMP JUMPDEST PUSH1 0x0 PUSH8 0xFFFFFFFFFFFFFFFF DUP3 GT ISZERO PUSH2 0x14DC JUMPI PUSH2 0x14DB PUSH2 0x17EF JUMP JUMPDEST JUMPDEST PUSH2 0x14E5 DUP3 PUSH2 0x181E JUMP JUMPDEST SWAP1 POP PUSH1 0x20 DUP2 ADD SWAP1 POP SWAP2 SWAP1 POP JUMP JUMPDEST PUSH1 0x0 DUP2 MLOAD SWAP1 POP SWAP2 SWAP1 POP JUMP JUMPDEST PUSH1 0x0 DUP3 DUP3 MSTORE PUSH1 0x20 DUP3 ADD SWAP1 POP SWAP3 SWAP2 POP POP JUMP JUMPDEST PUSH1 0x0 PUSH2 0x1519 DUP3 PUSH2 0x15F8 JUMP JUMPDEST SWAP2 POP PUSH2 0x1524 DUP4 PUSH2 0x15F8 JUMP JUMPDEST SWAP3 POP DUP3 PUSH32 0xFFFFFFFFFFFFFFFFFFFFFFFFFFFFFFFFFFFFFFFFFFFFFFFFFFFFFFFFFFFFFFFF SUB DUP3 GT ISZERO PUSH2 0x1559 JUMPI PUSH2 0x1558 PUSH2 0x1733 JUMP JUMPDEST JUMPDEST DUP3 DUP3 ADD SWAP1 POP SWAP3 SWAP2 POP POP JUMP JUMPDEST PUSH1 0x0 PUSH2 0x156F DUP3 PUSH2 0x15F8 JUMP JUMPDEST SWAP2 POP PUSH2 0x157A DUP4 PUSH2 0x15F8 JUMP JUMPDEST SWAP3 POP DUP3 PUSH2 0x158A JUMPI PUSH2 0x1589 PUSH2 0x1762 JUMP JUMPDEST JUMPDEST DUP3 DUP3 DIV SWAP1 POP SWAP3 SWAP2 POP POP JUMP JUMPDEST PUSH1 0x0 PUSH2 0x15A0 DUP3 PUSH2 0x15D8 JUMP JUMPDEST SWAP1 POP SWAP2 SWAP1 POP JUMP JUMPDEST PUSH1 0x0 PUSH2 0x15B2 DUP3 PUSH2 0x15D8 JUMP JUMPDEST SWAP1 POP SWAP2 SWAP1 POP JUMP JUMPDEST PUSH1 0x0 DUP2 ISZERO ISZERO SWAP1 POP SWAP2 SWAP1 POP JUMP JUMPDEST PUSH1 0x0 DUP2 SWAP1 POP PUSH2 0x15D3 DUP3 PUSH2 0x182F JUMP JUMPDEST SWAP2 SWAP1 POP JUMP JUMPDEST PUSH1 0x0 PUSH20 0xFFFFFFFFFFFFFFFFFFFFFFFFFFFFFFFFFFFFFFFF DUP3 AND SWAP1 POP SWAP2 SWAP1 POP JUMP JUMPDEST PUSH1 0x0 DUP2 SWAP1 POP SWAP2 SWAP1 POP JUMP JUMPDEST PUSH1 0x0 PUSH2 0x160D DUP3 PUSH2 0x15C5 JUMP JUMPDEST SWAP1 POP SWAP2 SWAP1 POP JUMP JUMPDEST DUP3 DUP2 DUP4 CALLDATACOPY PUSH1 0x0 DUP4 DUP4 ADD MSTORE POP POP POP JUMP JUMPDEST PUSH1 0x0 JUMPDEST DUP4 DUP2 LT ISZERO PUSH2 0x1641 JUMPI DUP1 DUP3 ADD MLOAD DUP2 DUP5 ADD MSTORE PUSH1 0x20 DUP2 ADD SWAP1 POP PUSH2 0x1626 JUMP JUMPDEST DUP4 DUP2 GT ISZERO PUSH2 0x1650 JUMPI PUSH1 0x0 DUP5 DUP5 ADD MSTORE JUMPDEST POP POP POP POP JUMP JUMPDEST PUSH1 0x0 PUSH1 0x2 DUP3 DIV SWAP1 POP PUSH1 0x1 DUP3 AND DUP1 PUSH2 0x166E JUMPI PUSH1 0x7F DUP3 AND SWAP2 POP JUMPDEST PUSH1 0x20 DUP3 LT DUP2 EQ ISZERO PUSH2 0x1682 JUMPI PUSH2 0x1681 PUSH2 0x17C0 JUMP JUMPDEST JUMPDEST POP SWAP2 SWAP1 POP JUMP JUMPDEST PUSH2 0x1691 DUP3 PUSH2 0x181E JUMP JUMPDEST DUP2 ADD DUP2 DUP2 LT PUSH8 0xFFFFFFFFFFFFFFFF DUP3 GT OR ISZERO PUSH2 0x16B0 JUMPI PUSH2 0x16AF PUSH2 0x17EF JUMP JUMPDEST JUMPDEST DUP1 PUSH1 0x40 MSTORE POP POP POP JUMP JUMPDEST PUSH1 0x0 PUSH2 0x16C4 DUP3 PUSH2 0x15F8 JUMP JUMPDEST SWAP2 POP PUSH32 0xFFFFFFFFFFFFFFFFFFFFFFFFFFFFFFFFFFFFFFFFFFFFFFFFFFFFFFFFFFFFFFFF DUP3 EQ ISZERO PUSH2 0x16F7 JUMPI PUSH2 0x16F6 PUSH2 0x1733 JUMP JUMPDEST JUMPDEST PUSH1 0x1 DUP3 ADD SWAP1 POP SWAP2 SWAP1 POP JUMP JUMPDEST PUSH1 0x0 PUSH2 0x170D DUP3 PUSH2 0x15F8 JUMP JUMPDEST SWAP2 POP PUSH2 0x1718 DUP4 PUSH2 0x15F8 JUMP JUMPDEST SWAP3 POP DUP3 PUSH2 0x1728 JUMPI PUSH2 0x1727 PUSH2 0x1762 JUMP JUMPDEST JUMPDEST DUP3 DUP3 MOD SWAP1 POP SWAP3 SWAP2 POP POP JUMP JUMPDEST PUSH32 0x4E487B7100000000000000000000000000000000000000000000000000000000 PUSH1 0x0 MSTORE PUSH1 0x11 PUSH1 0x4 MSTORE PUSH1 0x24 PUSH1 0x0 REVERT JUMPDEST PUSH32 0x4E487B7100000000000000000000000000000000000000000000000000000000 PUSH1 0x0 MSTORE PUSH1 0x12 PUSH1 0x4 MSTORE PUSH1 0x24 PUSH1 0x0 REVERT JUMPDEST PUSH32 0x4E487B7100000000000000000000000000000000000000000000000000000000 PUSH1 0x0 MSTORE PUSH1 0x21 PUSH1 0x4 MSTORE PUSH1 0x24 PUSH1 0x0 REVERT JUMPDEST PUSH32 0x4E487B7100000000000000000000000000000000000000000000000000000000 PUSH1 0x0 MSTORE PUSH1 0x22 PUSH1 0x4 MSTORE PUSH1 0x24 PUSH1 0x0 REVERT JUMPDEST PUSH32 0x4E487B7100000000000000000000000000000000000000000000000000000000 PUSH1 0x0 MSTORE PUSH1 0x41 PUSH1 0x4 MSTORE PUSH1 0x24 PUSH1 0x0 REVERT JUMPDEST PUSH1 0x0 PUSH1 0x1F NOT PUSH1 0x1F DUP4 ADD AND SWAP1 POP SWAP2 SWAP1 POP JUMP JUMPDEST PUSH1 0x7 DUP2 LT PUSH2 0x1840 JUMPI PUSH2 0x183F PUSH2 0x1791 JUMP JUMPDEST JUMPDEST POP JUMP JUMPDEST PUSH2 0x184C DUP2 PUSH2 0x1595 JUMP JUMPDEST DUP2 EQ PUSH2 0x1857 JUMPI PUSH1 0x0 DUP1 REVERT JUMPDEST POP JUMP JUMPDEST PUSH2 0x1863 DUP2 PUSH2 0x15A7 JUMP JUMPDEST DUP2 EQ PUSH2 0x186E JUMPI PUSH1 0x0 DUP1 REVERT JUMPDEST POP JUMP JUMPDEST PUSH2 0x187A DUP2 PUSH2 0x15F8 JUMP JUMPDEST DUP2 EQ PUSH2 0x1885 JUMPI PUSH1 0x0 DUP1 REVERT JUMPDEST POP JUMP INVALID LOG2 PUSH5 0x6970667358 0x22 SLT KECCAK256 PUSH20 0xE8C87DA59FF30D1BC27DE8C56D76C5E3CDD12628 PUSH30 0x5F39485A9FEE625D6FB64736F6C63430008030033A26469706673582212 KECCAK256 CALLDATASIZE 0x24 MSIZE 0xBB GT LOG1 0xAC LOG4 SWAP3 DUP14 PUSH2 0x4723 0xF6 PUSH24 0xC3B81BF70C05E12580B07757AD47AC5CB264736F6C634300 ADDMOD SUB STOP CALLER "},"gasEstimates":{"creation":{"codeDepositCost":"2068200","executionCost":"2200","totalCost":"2070400"},"external":{"createIdea(uint256,uint256,string,string,string,string,uint8,bool)":"infinite","deployedIdeas(uint256)":"2421","getDeployedIdeas()":"infinite"}},"methodIdentifiers":{"createIdea(uint256,uint256,string,string,string,string,uint8,bool)":"855b6e9e","deployedIdeas(uint256)":"f739bf4d","getDeployedIdeas()":"e4293559"}},"storageLayout":{"storage":[{"astId":5,"contract":"Idea.sol:IdeaFactory","label":"deployedIdeas","offset":0,"slot":"0","type":"t_array(t_contract(Idea)472)dyn_storage"}],"types":{"t_array(t_contract(Idea)472)dyn_storage":{"base":"t_contract(Idea)472","encoding":"dynamic_array","label":"contract Idea[]","numberOfBytes":"32"},"t_contract(Idea)472":{"encoding":"inplace","label":"contract Idea","numberOfBytes":"20"}}},"userdoc":{"kind":"user","methods":{},"version":1}}