{"abi":[{"inputs":[{"internalType":"uint256","name":"creditValue","type":"uint256"},{"internalType":"string","name":"ideaName","type":"string"},{"internalType":"string","name":"ideaShortDescription","type":"string"},{"internalType":"string","name":"ideaDescription","type":"string"},{"internalType":"string","name":"ideaImageURL","type":"string"},{"internalType":"address","name":"sender","type":"address"}],"stateMutability":"nonpayable","type":"constructor"},{"inputs":[{"internalType":"uint256","name":"index","type":"uint256"}],"name":"approveRequest","outputs":[],"stateMutability":"nonpayable","type":"function"},{"inputs":[{"internalType":"address","name":"","type":"address"}],"name":"approvers","outputs":[{"internalType":"uint256","name":"","type":"uint256"}],"stateMutability":"view","type":"function"},{"inputs":[],"name":"contribute","outputs":[],"stateMutability":"payable","type":"function"},{"inputs":[{"internalType":"string","name":"description","type":"string"},{"internalType":"uint256","name":"value","type":"uint256"},{"internalType":"address payable","name":"recipient","type":"address"}],"name":"createRequest","outputs":[],"stateMutability":"nonpayable","type":"function"},{"inputs":[],"name":"credits","outputs":[{"internalType":"uint256","name":"","type":"uint256"}],"stateMutability":"view","type":"function"},{"inputs":[],"name":"description","outputs":[{"internalType":"string","name":"","type":"string"}],"stateMutability":"view","type":"function"},{"inputs":[{"internalType":"uint256","name":"index","type":"uint256"}],"name":"finalizeRequest","outputs":[],"stateMutability":"nonpayable","type":"function"},{"inputs":[],"name":"getSummary","outputs":[{"internalType":"string","name":"","type":"string"},{"internalType":"string","name":"","type":"string"},{"internalType":"string","name":"","type":"string"},{"internalType":"string","name":"","type":"string"},{"internalType":"uint256","name":"","type":"uint256"},{"internalType":"uint256","name":"","type":"uint256"},{"internalType":"uint256","name":"","type":"uint256"},{"internalType":"uint256","name":"","type":"uint256"},{"internalType":"address","name":"","type":"address"},{"internalType":"address","name":"","type":"address"}],"stateMutability":"view","type":"function"},{"inputs":[],"name":"imageURL","outputs":[{"internalType":"string","name":"","type":"string"}],"stateMutability":"view","type":"function"},{"inputs":[],"name":"manager","outputs":[{"internalType":"address","name":"","type":"address"}],"stateMutability":"view","type":"function"},{"inputs":[],"name":"name","outputs":[{"internalType":"string","name":"","type":"string"}],"stateMutability":"view","type":"function"},{"inputs":[],"name":"numRequests","outputs":[{"internalType":"uint256","name":"","type":"uint256"}],"stateMutability":"view","type":"function"},{"inputs":[],"name":"numUniqueApprovers","outputs":[{"internalType":"uint256","name":"","type":"uint256"}],"stateMutability":"view","type":"function"},{"inputs":[],"name":"oneCreditValue","outputs":[{"internalType":"uint256","name":"","type":"uint256"}],"stateMutability":"view","type":"function"},{"inputs":[{"internalType":"uint256","name":"","type":"uint256"}],"name":"requests","outputs":[{"internalType":"string","name":"description","type":"string"},{"internalType":"uint256","name":"value","type":"uint256"},{"internalType":"address payable","name":"recipient","type":"address"},{"internalType":"bool","name":"complete","type":"bool"},{"internalType":"uint256","name":"credits","type":"uint256"}],"stateMutability":"view","type":"function"},{"inputs":[],"name":"shortDescription","outputs":[{"internalType":"string","name":"","type":"string"}],"stateMutability":"view","type":"function"}],"devdoc":{"kind":"dev","methods":{},"version":1},"evm":{"assembly":"    /* \"Idea.sol\":486:3551  contract Idea {... */\n  mstore(0x40, 0x80)\n    /* \"Idea.sol\":1187:1569  constructor(uint creditValue, string memory ideaName, string memory ideaShortDescription, string memory ideaDescription, string memory ideaImageURL, address sender) {... */\n  callvalue\n  dup1\n  iszero\n  tag_1\n  jumpi\n  0x00\n  dup1\n  revert\ntag_1:\n  pop\n  mload(0x40)\n  sub(codesize, bytecodeSize)\n  dup1\n  bytecodeSize\n  dup4\n  codecopy\n  dup2\n  dup2\n  add\n  0x40\n  mstore\n  dup2\n  add\n  swap1\n  tag_2\n  swap2\n  swap1\n  tag_3\n  jump\t// in\ntag_2:\n    /* \"Idea.sol\":1372:1378  sender */\n  dup1\n    /* \"Idea.sol\":1362:1369  manager */\n  0x06\n  0x00\n    /* \"Idea.sol\":1362:1378  manager = sender */\n  0x0100\n  exp\n  dup2\n  sload\n  dup2\n  0xffffffffffffffffffffffffffffffffffffffff\n  mul\n  not\n  and\n  swap1\n  dup4\n  0xffffffffffffffffffffffffffffffffffffffff\n  and\n  mul\n  or\n  swap1\n  sstore\n  pop\n    /* \"Idea.sol\":1405:1416  creditValue */\n  dup6\n    /* \"Idea.sol\":1388:1402  oneCreditValue */\n  0x09\n    /* \"Idea.sol\":1388:1416  oneCreditValue = creditValue */\n  dup2\n  swap1\n  sstore\n  pop\n    /* \"Idea.sol\":1433:1441  ideaName */\n  dup5\n    /* \"Idea.sol\":1426:1430  name */\n  0x00\n    /* \"Idea.sol\":1426:1441  name = ideaName */\n  swap1\n  dup1\n  mload\n  swap1\n  0x20\n  add\n  swap1\n  tag_6\n  swap3\n  swap2\n  swap1\n  tag_7\n  jump\t// in\ntag_6:\n  pop\n    /* \"Idea.sol\":1470:1490  ideaShortDescription */\n  dup4\n    /* \"Idea.sol\":1451:1467  shortDescription */\n  0x01\n    /* \"Idea.sol\":1451:1490  shortDescription = ideaShortDescription */\n  swap1\n  dup1\n  mload\n  swap1\n  0x20\n  add\n  swap1\n  tag_8\n  swap3\n  swap2\n  swap1\n  tag_7\n  jump\t// in\ntag_8:\n  pop\n    /* \"Idea.sol\":1514:1529  ideaDescription */\n  dup3\n    /* \"Idea.sol\":1500:1511  description */\n  0x02\n    /* \"Idea.sol\":1500:1529  description = ideaDescription */\n  swap1\n  dup1\n  mload\n  swap1\n  0x20\n  add\n  swap1\n  tag_9\n  swap3\n  swap2\n  swap1\n  tag_7\n  jump\t// in\ntag_9:\n  pop\n    /* \"Idea.sol\":1550:1562  ideaImageURL */\n  dup2\n    /* \"Idea.sol\":1539:1547  imageURL */\n  0x03\n    /* \"Idea.sol\":1539:1562  imageURL = ideaImageURL */\n  swap1\n  dup1\n  mload\n  swap1\n  0x20\n  add\n  swap1\n  tag_10\n  swap3\n  swap2\n  swap1\n  tag_7\n  jump\t// in\ntag_10:\n  pop\n    /* \"Idea.sol\":1187:1569  constructor(uint creditValue, string memory ideaName, string memory ideaShortDescription, string memory ideaDescription, string memory ideaImageURL, address sender) {... */\n  pop\n  pop\n  pop\n  pop\n  pop\n  pop\n    /* \"Idea.sol\":486:3551  contract Idea {... */\n  jump(tag_11)\ntag_7:\n  dup3\n  dup1\n  sload\n  tag_12\n  swap1\n  tag_13\n  jump\t// in\ntag_12:\n  swap1\n  0x00\n  mstore\n  keccak256(0x00, 0x20)\n  swap1\n  0x1f\n  add\n  0x20\n  swap1\n  div\n  dup2\n  add\n  swap3\n  dup3\n  tag_15\n  jumpi\n  0x00\n  dup6\n  sstore\n  jump(tag_14)\ntag_15:\n  dup3\n  0x1f\n  lt\n  tag_16\n  jumpi\n  dup1\n  mload\n  not(0xff)\n  and\n  dup4\n  dup1\n  add\n  or\n  dup6\n  sstore\n  jump(tag_14)\ntag_16:\n  dup3\n  dup1\n  add\n  0x01\n  add\n  dup6\n  sstore\n  dup3\n  iszero\n  tag_14\n  jumpi\n  swap2\n  dup3\n  add\ntag_17:\n  dup3\n  dup2\n  gt\n  iszero\n  tag_18\n  jumpi\n  dup3\n  mload\n  dup3\n  sstore\n  swap2\n  0x20\n  add\n  swap2\n  swap1\n  0x01\n  add\n  swap1\n  jump(tag_17)\ntag_18:\ntag_14:\n  pop\n  swap1\n  pop\n  tag_19\n  swap2\n  swap1\n  tag_20\n  jump\t// in\ntag_19:\n  pop\n  swap1\n  jump\t// out\ntag_20:\ntag_21:\n  dup1\n  dup3\n  gt\n  iszero\n  tag_22\n  jumpi\n  0x00\n  dup2\n  0x00\n  swap1\n  sstore\n  pop\n  0x01\n  add\n  jump(tag_21)\ntag_22:\n  pop\n  swap1\n  jump\t// out\n    /* \"#utility.yul\":7:361   */\ntag_24:\n  0x00\n    /* \"#utility.yul\":121:187   */\n  tag_26\n    /* \"#utility.yul\":137:186   */\n  tag_27\n    /* \"#utility.yul\":179:185   */\n  dup5\n    /* \"#utility.yul\":137:186   */\n  tag_28\n  jump\t// in\ntag_27:\n    /* \"#utility.yul\":121:187   */\n  tag_29\n  jump\t// in\ntag_26:\n    /* \"#utility.yul\":112:187   */\n  swap1\n  pop\n    /* \"#utility.yul\":210:216   */\n  dup3\n    /* \"#utility.yul\":203:208   */\n  dup2\n    /* \"#utility.yul\":196:217   */\n  mstore\n    /* \"#utility.yul\":248:252   */\n  0x20\n    /* \"#utility.yul\":241:246   */\n  dup2\n    /* \"#utility.yul\":237:253   */\n  add\n    /* \"#utility.yul\":286:289   */\n  dup5\n    /* \"#utility.yul\":277:283   */\n  dup5\n    /* \"#utility.yul\":272:275   */\n  dup5\n    /* \"#utility.yul\":268:284   */\n  add\n    /* \"#utility.yul\":265:290   */\n  gt\n    /* \"#utility.yul\":262:264   */\n  iszero\n  tag_30\n  jumpi\n    /* \"#utility.yul\":303:304   */\n  0x00\n    /* \"#utility.yul\":300:301   */\n  dup1\n    /* \"#utility.yul\":293:305   */\n  revert\n    /* \"#utility.yul\":262:264   */\ntag_30:\n    /* \"#utility.yul\":316:355   */\n  tag_31\n    /* \"#utility.yul\":348:354   */\n  dup5\n    /* \"#utility.yul\":343:346   */\n  dup3\n    /* \"#utility.yul\":338:341   */\n  dup6\n    /* \"#utility.yul\":316:355   */\n  tag_32\n  jump\t// in\ntag_31:\n    /* \"#utility.yul\":102:361   */\n  pop\n  swap4\n  swap3\n  pop\n  pop\n  pop\n  jump\t// out\n    /* \"#utility.yul\":367:510   */\ntag_33:\n  0x00\n    /* \"#utility.yul\":455:461   */\n  dup2\n    /* \"#utility.yul\":449:462   */\n  mload\n    /* \"#utility.yul\":440:462   */\n  swap1\n  pop\n    /* \"#utility.yul\":471:504   */\n  tag_35\n    /* \"#utility.yul\":498:503   */\n  dup2\n    /* \"#utility.yul\":471:504   */\n  tag_36\n  jump\t// in\ntag_35:\n    /* \"#utility.yul\":430:510   */\n  swap3\n  swap2\n  pop\n  pop\n  jump\t// out\n    /* \"#utility.yul\":530:818   */\ntag_37:\n  0x00\n    /* \"#utility.yul\":646:649   */\n  dup3\n    /* \"#utility.yul\":639:643   */\n  0x1f\n    /* \"#utility.yul\":631:637   */\n  dup4\n    /* \"#utility.yul\":627:644   */\n  add\n    /* \"#utility.yul\":623:650   */\n  slt\n    /* \"#utility.yul\":613:615   */\n  tag_39\n  jumpi\n    /* \"#utility.yul\":664:665   */\n  0x00\n    /* \"#utility.yul\":661:662   */\n  dup1\n    /* \"#utility.yul\":654:666   */\n  revert\n    /* \"#utility.yul\":613:615   */\ntag_39:\n    /* \"#utility.yul\":697:703   */\n  dup2\n    /* \"#utility.yul\":691:704   */\n  mload\n    /* \"#utility.yul\":722:812   */\n  tag_40\n    /* \"#utility.yul\":808:811   */\n  dup5\n    /* \"#utility.yul\":800:806   */\n  dup3\n    /* \"#utility.yul\":793:797   */\n  0x20\n    /* \"#utility.yul\":785:791   */\n  dup7\n    /* \"#utility.yul\":781:798   */\n  add\n    /* \"#utility.yul\":722:812   */\n  tag_24\n  jump\t// in\ntag_40:\n    /* \"#utility.yul\":713:812   */\n  swap2\n  pop\n    /* \"#utility.yul\":603:818   */\n  pop\n  swap3\n  swap2\n  pop\n  pop\n  jump\t// out\n    /* \"#utility.yul\":824:967   */\ntag_41:\n  0x00\n    /* \"#utility.yul\":912:918   */\n  dup2\n    /* \"#utility.yul\":906:919   */\n  mload\n    /* \"#utility.yul\":897:919   */\n  swap1\n  pop\n    /* \"#utility.yul\":928:961   */\n  tag_43\n    /* \"#utility.yul\":955:960   */\n  dup2\n    /* \"#utility.yul\":928:961   */\n  tag_44\n  jump\t// in\ntag_43:\n    /* \"#utility.yul\":887:967   */\n  swap3\n  swap2\n  pop\n  pop\n  jump\t// out\n    /* \"#utility.yul\":973:2464   */\ntag_3:\n  0x00\n  dup1\n  0x00\n  dup1\n  0x00\n  dup1\n    /* \"#utility.yul\":1217:1220   */\n  0xc0\n    /* \"#utility.yul\":1205:1214   */\n  dup8\n    /* \"#utility.yul\":1196:1203   */\n  dup10\n    /* \"#utility.yul\":1192:1215   */\n  sub\n    /* \"#utility.yul\":1188:1221   */\n  slt\n    /* \"#utility.yul\":1185:1187   */\n  iszero\n  tag_46\n  jumpi\n    /* \"#utility.yul\":1234:1235   */\n  0x00\n    /* \"#utility.yul\":1231:1232   */\n  dup1\n    /* \"#utility.yul\":1224:1236   */\n  revert\n    /* \"#utility.yul\":1185:1187   */\ntag_46:\n    /* \"#utility.yul\":1277:1278   */\n  0x00\n    /* \"#utility.yul\":1302:1366   */\n  tag_47\n    /* \"#utility.yul\":1358:1365   */\n  dup10\n    /* \"#utility.yul\":1349:1355   */\n  dup3\n    /* \"#utility.yul\":1338:1347   */\n  dup11\n    /* \"#utility.yul\":1334:1356   */\n  add\n    /* \"#utility.yul\":1302:1366   */\n  tag_41\n  jump\t// in\ntag_47:\n    /* \"#utility.yul\":1292:1366   */\n  swap7\n  pop\n    /* \"#utility.yul\":1248:1376   */\n  pop\n    /* \"#utility.yul\":1436:1438   */\n  0x20\n    /* \"#utility.yul\":1425:1434   */\n  dup8\n    /* \"#utility.yul\":1421:1439   */\n  add\n    /* \"#utility.yul\":1415:1440   */\n  mload\n    /* \"#utility.yul\":1467:1485   */\n  0xffffffffffffffff\n    /* \"#utility.yul\":1459:1465   */\n  dup2\n    /* \"#utility.yul\":1456:1486   */\n  gt\n    /* \"#utility.yul\":1453:1455   */\n  iszero\n  tag_48\n  jumpi\n    /* \"#utility.yul\":1499:1500   */\n  0x00\n    /* \"#utility.yul\":1496:1497   */\n  dup1\n    /* \"#utility.yul\":1489:1501   */\n  revert\n    /* \"#utility.yul\":1453:1455   */\ntag_48:\n    /* \"#utility.yul\":1527:1601   */\n  tag_49\n    /* \"#utility.yul\":1593:1600   */\n  dup10\n    /* \"#utility.yul\":1584:1590   */\n  dup3\n    /* \"#utility.yul\":1573:1582   */\n  dup11\n    /* \"#utility.yul\":1569:1591   */\n  add\n    /* \"#utility.yul\":1527:1601   */\n  tag_37\n  jump\t// in\ntag_49:\n    /* \"#utility.yul\":1517:1601   */\n  swap6\n  pop\n    /* \"#utility.yul\":1386:1611   */\n  pop\n    /* \"#utility.yul\":1671:1673   */\n  0x40\n    /* \"#utility.yul\":1660:1669   */\n  dup8\n    /* \"#utility.yul\":1656:1674   */\n  add\n    /* \"#utility.yul\":1650:1675   */\n  mload\n    /* \"#utility.yul\":1702:1720   */\n  0xffffffffffffffff\n    /* \"#utility.yul\":1694:1700   */\n  dup2\n    /* \"#utility.yul\":1691:1721   */\n  gt\n    /* \"#utility.yul\":1688:1690   */\n  iszero\n  tag_50\n  jumpi\n    /* \"#utility.yul\":1734:1735   */\n  0x00\n    /* \"#utility.yul\":1731:1732   */\n  dup1\n    /* \"#utility.yul\":1724:1736   */\n  revert\n    /* \"#utility.yul\":1688:1690   */\ntag_50:\n    /* \"#utility.yul\":1762:1836   */\n  tag_51\n    /* \"#utility.yul\":1828:1835   */\n  dup10\n    /* \"#utility.yul\":1819:1825   */\n  dup3\n    /* \"#utility.yul\":1808:1817   */\n  dup11\n    /* \"#utility.yul\":1804:1826   */\n  add\n    /* \"#utility.yul\":1762:1836   */\n  tag_37\n  jump\t// in\ntag_51:\n    /* \"#utility.yul\":1752:1836   */\n  swap5\n  pop\n    /* \"#utility.yul\":1621:1846   */\n  pop\n    /* \"#utility.yul\":1906:1908   */\n  0x60\n    /* \"#utility.yul\":1895:1904   */\n  dup8\n    /* \"#utility.yul\":1891:1909   */\n  add\n    /* \"#utility.yul\":1885:1910   */\n  mload\n    /* \"#utility.yul\":1937:1955   */\n  0xffffffffffffffff\n    /* \"#utility.yul\":1929:1935   */\n  dup2\n    /* \"#utility.yul\":1926:1956   */\n  gt\n    /* \"#utility.yul\":1923:1925   */\n  iszero\n  tag_52\n  jumpi\n    /* \"#utility.yul\":1969:1970   */\n  0x00\n    /* \"#utility.yul\":1966:1967   */\n  dup1\n    /* \"#utility.yul\":1959:1971   */\n  revert\n    /* \"#utility.yul\":1923:1925   */\ntag_52:\n    /* \"#utility.yul\":1997:2071   */\n  tag_53\n    /* \"#utility.yul\":2063:2070   */\n  dup10\n    /* \"#utility.yul\":2054:2060   */\n  dup3\n    /* \"#utility.yul\":2043:2052   */\n  dup11\n    /* \"#utility.yul\":2039:2061   */\n  add\n    /* \"#utility.yul\":1997:2071   */\n  tag_37\n  jump\t// in\ntag_53:\n    /* \"#utility.yul\":1987:2071   */\n  swap4\n  pop\n    /* \"#utility.yul\":1856:2081   */\n  pop\n    /* \"#utility.yul\":2141:2144   */\n  0x80\n    /* \"#utility.yul\":2130:2139   */\n  dup8\n    /* \"#utility.yul\":2126:2145   */\n  add\n    /* \"#utility.yul\":2120:2146   */\n  mload\n    /* \"#utility.yul\":2173:2191   */\n  0xffffffffffffffff\n    /* \"#utility.yul\":2165:2171   */\n  dup2\n    /* \"#utility.yul\":2162:2192   */\n  gt\n    /* \"#utility.yul\":2159:2161   */\n  iszero\n  tag_54\n  jumpi\n    /* \"#utility.yul\":2205:2206   */\n  0x00\n    /* \"#utility.yul\":2202:2203   */\n  dup1\n    /* \"#utility.yul\":2195:2207   */\n  revert\n    /* \"#utility.yul\":2159:2161   */\ntag_54:\n    /* \"#utility.yul\":2233:2307   */\n  tag_55\n    /* \"#utility.yul\":2299:2306   */\n  dup10\n    /* \"#utility.yul\":2290:2296   */\n  dup3\n    /* \"#utility.yul\":2279:2288   */\n  dup11\n    /* \"#utility.yul\":2275:2297   */\n  add\n    /* \"#utility.yul\":2233:2307   */\n  tag_37\n  jump\t// in\ntag_55:\n    /* \"#utility.yul\":2223:2307   */\n  swap3\n  pop\n    /* \"#utility.yul\":2091:2317   */\n  pop\n    /* \"#utility.yul\":2356:2359   */\n  0xa0\n    /* \"#utility.yul\":2383:2447   */\n  tag_56\n    /* \"#utility.yul\":2439:2446   */\n  dup10\n    /* \"#utility.yul\":2430:2436   */\n  dup3\n    /* \"#utility.yul\":2419:2428   */\n  dup11\n    /* \"#utility.yul\":2415:2437   */\n  add\n    /* \"#utility.yul\":2383:2447   */\n  tag_33\n  jump\t// in\ntag_56:\n    /* \"#utility.yul\":2373:2447   */\n  swap2\n  pop\n    /* \"#utility.yul\":2327:2457   */\n  pop\n    /* \"#utility.yul\":1175:2464   */\n  swap3\n  swap6\n  pop\n  swap3\n  swap6\n  pop\n  swap3\n  swap6\n  jump\t// out\n    /* \"#utility.yul\":2470:2599   */\ntag_29:\n  0x00\n    /* \"#utility.yul\":2531:2551   */\n  tag_58\n  tag_59\n  jump\t// in\ntag_58:\n    /* \"#utility.yul\":2521:2551   */\n  swap1\n  pop\n    /* \"#utility.yul\":2560:2593   */\n  tag_60\n    /* \"#utility.yul\":2588:2592   */\n  dup3\n    /* \"#utility.yul\":2580:2586   */\n  dup3\n    /* \"#utility.yul\":2560:2593   */\n  tag_61\n  jump\t// in\ntag_60:\n    /* \"#utility.yul\":2511:2599   */\n  swap2\n  swap1\n  pop\n  jump\t// out\n    /* \"#utility.yul\":2605:2680   */\ntag_59:\n  0x00\n    /* \"#utility.yul\":2671:2673   */\n  0x40\n    /* \"#utility.yul\":2665:2674   */\n  mload\n    /* \"#utility.yul\":2655:2674   */\n  swap1\n  pop\n    /* \"#utility.yul\":2645:2680   */\n  swap1\n  jump\t// out\n    /* \"#utility.yul\":2686:2994   */\ntag_28:\n  0x00\n    /* \"#utility.yul\":2838:2856   */\n  0xffffffffffffffff\n    /* \"#utility.yul\":2830:2836   */\n  dup3\n    /* \"#utility.yul\":2827:2857   */\n  gt\n    /* \"#utility.yul\":2824:2826   */\n  iszero\n  tag_64\n  jumpi\n    /* \"#utility.yul\":2860:2878   */\n  tag_65\n  tag_66\n  jump\t// in\ntag_65:\n    /* \"#utility.yul\":2824:2826   */\ntag_64:\n    /* \"#utility.yul\":2898:2927   */\n  tag_67\n    /* \"#utility.yul\":2920:2926   */\n  dup3\n    /* \"#utility.yul\":2898:2927   */\n  tag_68\n  jump\t// in\ntag_67:\n    /* \"#utility.yul\":2890:2927   */\n  swap1\n  pop\n    /* \"#utility.yul\":2982:2986   */\n  0x20\n    /* \"#utility.yul\":2976:2980   */\n  dup2\n    /* \"#utility.yul\":2972:2987   */\n  add\n    /* \"#utility.yul\":2964:2987   */\n  swap1\n  pop\n    /* \"#utility.yul\":2753:2994   */\n  swap2\n  swap1\n  pop\n  jump\t// out\n    /* \"#utility.yul\":3000:3096   */\ntag_69:\n  0x00\n    /* \"#utility.yul\":3066:3090   */\n  tag_71\n    /* \"#utility.yul\":3084:3089   */\n  dup3\n    /* \"#utility.yul\":3066:3090   */\n  tag_72\n  jump\t// in\ntag_71:\n    /* \"#utility.yul\":3055:3090   */\n  swap1\n  pop\n    /* \"#utility.yul\":3045:3096   */\n  swap2\n  swap1\n  pop\n  jump\t// out\n    /* \"#utility.yul\":3102:3228   */\ntag_72:\n  0x00\n    /* \"#utility.yul\":3179:3221   */\n  0xffffffffffffffffffffffffffffffffffffffff\n    /* \"#utility.yul\":3172:3177   */\n  dup3\n    /* \"#utility.yul\":3168:3222   */\n  and\n    /* \"#utility.yul\":3157:3222   */\n  swap1\n  pop\n    /* \"#utility.yul\":3147:3228   */\n  swap2\n  swap1\n  pop\n  jump\t// out\n    /* \"#utility.yul\":3234:3311   */\ntag_74:\n  0x00\n    /* \"#utility.yul\":3300:3305   */\n  dup2\n    /* \"#utility.yul\":3289:3305   */\n  swap1\n  pop\n    /* \"#utility.yul\":3279:3311   */\n  swap2\n  swap1\n  pop\n  jump\t// out\n    /* \"#utility.yul\":3317:3624   */\ntag_32:\n    /* \"#utility.yul\":3385:3386   */\n  0x00\n    /* \"#utility.yul\":3395:3508   */\ntag_77:\n    /* \"#utility.yul\":3409:3415   */\n  dup4\n    /* \"#utility.yul\":3406:3407   */\n  dup2\n    /* \"#utility.yul\":3403:3416   */\n  lt\n    /* \"#utility.yul\":3395:3508   */\n  iszero\n  tag_79\n  jumpi\n    /* \"#utility.yul\":3494:3495   */\n  dup1\n    /* \"#utility.yul\":3489:3492   */\n  dup3\n    /* \"#utility.yul\":3485:3496   */\n  add\n    /* \"#utility.yul\":3479:3497   */\n  mload\n    /* \"#utility.yul\":3475:3476   */\n  dup2\n    /* \"#utility.yul\":3470:3473   */\n  dup5\n    /* \"#utility.yul\":3466:3477   */\n  add\n    /* \"#utility.yul\":3459:3498   */\n  mstore\n    /* \"#utility.yul\":3431:3433   */\n  0x20\n    /* \"#utility.yul\":3428:3429   */\n  dup2\n    /* \"#utility.yul\":3424:3434   */\n  add\n    /* \"#utility.yul\":3419:3434   */\n  swap1\n  pop\n    /* \"#utility.yul\":3395:3508   */\n  jump(tag_77)\ntag_79:\n    /* \"#utility.yul\":3526:3532   */\n  dup4\n    /* \"#utility.yul\":3523:3524   */\n  dup2\n    /* \"#utility.yul\":3520:3533   */\n  gt\n    /* \"#utility.yul\":3517:3519   */\n  iszero\n  tag_80\n  jumpi\n    /* \"#utility.yul\":3606:3607   */\n  0x00\n    /* \"#utility.yul\":3597:3603   */\n  dup5\n    /* \"#utility.yul\":3592:3595   */\n  dup5\n    /* \"#utility.yul\":3588:3604   */\n  add\n    /* \"#utility.yul\":3581:3608   */\n  mstore\n    /* \"#utility.yul\":3517:3519   */\ntag_80:\n    /* \"#utility.yul\":3366:3624   */\n  pop\n  pop\n  pop\n  pop\n  jump\t// out\n    /* \"#utility.yul\":3630:3950   */\ntag_13:\n  0x00\n    /* \"#utility.yul\":3711:3712   */\n  0x02\n    /* \"#utility.yul\":3705:3709   */\n  dup3\n    /* \"#utility.yul\":3701:3713   */\n  div\n    /* \"#utility.yul\":3691:3713   */\n  swap1\n  pop\n    /* \"#utility.yul\":3758:3759   */\n  0x01\n    /* \"#utility.yul\":3752:3756   */\n  dup3\n    /* \"#utility.yul\":3748:3760   */\n  and\n    /* \"#utility.yul\":3779:3797   */\n  dup1\n    /* \"#utility.yul\":3769:3771   */\n  tag_82\n  jumpi\n    /* \"#utility.yul\":3835:3839   */\n  0x7f\n    /* \"#utility.yul\":3827:3833   */\n  dup3\n    /* \"#utility.yul\":3823:3840   */\n  and\n    /* \"#utility.yul\":3813:3840   */\n  swap2\n  pop\n    /* \"#utility.yul\":3769:3771   */\ntag_82:\n    /* \"#utility.yul\":3897:3899   */\n  0x20\n    /* \"#utility.yul\":3889:3895   */\n  dup3\n    /* \"#utility.yul\":3886:3900   */\n  lt\n    /* \"#utility.yul\":3866:3884   */\n  dup2\n    /* \"#utility.yul\":3863:3901   */\n  eq\n    /* \"#utility.yul\":3860:3862   */\n  iszero\n  tag_83\n  jumpi\n    /* \"#utility.yul\":3916:3934   */\n  tag_84\n  tag_85\n  jump\t// in\ntag_84:\n    /* \"#utility.yul\":3860:3862   */\ntag_83:\n    /* \"#utility.yul\":3681:3950   */\n  pop\n  swap2\n  swap1\n  pop\n  jump\t// out\n    /* \"#utility.yul\":3956:4237   */\ntag_61:\n    /* \"#utility.yul\":4039:4066   */\n  tag_87\n    /* \"#utility.yul\":4061:4065   */\n  dup3\n    /* \"#utility.yul\":4039:4066   */\n  tag_68\n  jump\t// in\ntag_87:\n    /* \"#utility.yul\":4031:4037   */\n  dup2\n    /* \"#utility.yul\":4027:4067   */\n  add\n    /* \"#utility.yul\":4169:4175   */\n  dup2\n    /* \"#utility.yul\":4157:4167   */\n  dup2\n    /* \"#utility.yul\":4154:4176   */\n  lt\n    /* \"#utility.yul\":4133:4151   */\n  0xffffffffffffffff\n    /* \"#utility.yul\":4121:4131   */\n  dup3\n    /* \"#utility.yul\":4118:4152   */\n  gt\n    /* \"#utility.yul\":4115:4177   */\n  or\n    /* \"#utility.yul\":4112:4114   */\n  iszero\n  tag_88\n  jumpi\n    /* \"#utility.yul\":4180:4198   */\n  tag_89\n  tag_66\n  jump\t// in\ntag_89:\n    /* \"#utility.yul\":4112:4114   */\ntag_88:\n    /* \"#utility.yul\":4220:4230   */\n  dup1\n    /* \"#utility.yul\":4216:4218   */\n  0x40\n    /* \"#utility.yul\":4209:4231   */\n  mstore\n    /* \"#utility.yul\":3999:4237   */\n  pop\n  pop\n  pop\n  jump\t// out\n    /* \"#utility.yul\":4243:4423   */\ntag_85:\n    /* \"#utility.yul\":4291:4368   */\n  0x4e487b7100000000000000000000000000000000000000000000000000000000\n    /* \"#utility.yul\":4288:4289   */\n  0x00\n    /* \"#utility.yul\":4281:4369   */\n  mstore\n    /* \"#utility.yul\":4388:4392   */\n  0x22\n    /* \"#utility.yul\":4385:4386   */\n  0x04\n    /* \"#utility.yul\":4378:4393   */\n  mstore\n    /* \"#utility.yul\":4412:4416   */\n  0x24\n    /* \"#utility.yul\":4409:4410   */\n  0x00\n    /* \"#utility.yul\":4402:4417   */\n  revert\n    /* \"#utility.yul\":4429:4609   */\ntag_66:\n    /* \"#utility.yul\":4477:4554   */\n  0x4e487b7100000000000000000000000000000000000000000000000000000000\n    /* \"#utility.yul\":4474:4475   */\n  0x00\n    /* \"#utility.yul\":4467:4555   */\n  mstore\n    /* \"#utility.yul\":4574:4578   */\n  0x41\n    /* \"#utility.yul\":4571:4572   */\n  0x04\n    /* \"#utility.yul\":4564:4579   */\n  mstore\n    /* \"#utility.yul\":4598:4602   */\n  0x24\n    /* \"#utility.yul\":4595:4596   */\n  0x00\n    /* \"#utility.yul\":4588:4603   */\n  revert\n    /* \"#utility.yul\":4615:4717   */\ntag_68:\n  0x00\n    /* \"#utility.yul\":4707:4709   */\n  0x1f\n    /* \"#utility.yul\":4703:4710   */\n  not\n    /* \"#utility.yul\":4698:4700   */\n  0x1f\n    /* \"#utility.yul\":4691:4696   */\n  dup4\n    /* \"#utility.yul\":4687:4701   */\n  add\n    /* \"#utility.yul\":4683:4711   */\n  and\n    /* \"#utility.yul\":4673:4711   */\n  swap1\n  pop\n    /* \"#utility.yul\":4663:4717   */\n  swap2\n  swap1\n  pop\n  jump\t// out\n    /* \"#utility.yul\":4723:4845   */\ntag_36:\n    /* \"#utility.yul\":4796:4820   */\n  tag_94\n    /* \"#utility.yul\":4814:4819   */\n  dup2\n    /* \"#utility.yul\":4796:4820   */\n  tag_69\n  jump\t// in\ntag_94:\n    /* \"#utility.yul\":4789:4794   */\n  dup2\n    /* \"#utility.yul\":4786:4821   */\n  eq\n    /* \"#utility.yul\":4776:4778   */\n  tag_95\n  jumpi\n    /* \"#utility.yul\":4835:4836   */\n  0x00\n    /* \"#utility.yul\":4832:4833   */\n  dup1\n    /* \"#utility.yul\":4825:4837   */\n  revert\n    /* \"#utility.yul\":4776:4778   */\ntag_95:\n    /* \"#utility.yul\":4766:4845   */\n  pop\n  jump\t// out\n    /* \"#utility.yul\":4851:4973   */\ntag_44:\n    /* \"#utility.yul\":4924:4948   */\n  tag_97\n    /* \"#utility.yul\":4942:4947   */\n  dup2\n    /* \"#utility.yul\":4924:4948   */\n  tag_74\n  jump\t// in\ntag_97:\n    /* \"#utility.yul\":4917:4922   */\n  dup2\n    /* \"#utility.yul\":4914:4949   */\n  eq\n    /* \"#utility.yul\":4904:4906   */\n  tag_98\n  jumpi\n    /* \"#utility.yul\":4963:4964   */\n  0x00\n    /* \"#utility.yul\":4960:4961   */\n  dup1\n    /* \"#utility.yul\":4953:4965   */\n  revert\n    /* \"#utility.yul\":4904:4906   */\ntag_98:\n    /* \"#utility.yul\":4894:4973   */\n  pop\n  jump\t// out\n    /* \"Idea.sol\":486:3551  contract Idea {... */\ntag_11:\n  dataSize(sub_0)\n  dup1\n  dataOffset(sub_0)\n  0x00\n  codecopy\n  0x00\n  return\nstop\n\nsub_0: assembly {\n        /* \"Idea.sol\":486:3551  contract Idea {... */\n      mstore(0x40, 0x80)\n      jumpi(tag_1, lt(calldatasize, 0x04))\n      shr(0xe0, calldataload(0x00))\n      dup1\n      0x7284e416\n      gt\n      tag_18\n      jumpi\n      dup1\n      0x9fb42b1f\n      gt\n      tag_19\n      jumpi\n      dup1\n      0x9fb42b1f\n      eq\n      tag_14\n      jumpi\n      dup1\n      0xb90497e0\n      eq\n      tag_15\n      jumpi\n      dup1\n      0xd7bb99ba\n      eq\n      tag_16\n      jumpi\n      dup1\n      0xd7d1bbdb\n      eq\n      tag_17\n      jumpi\n      jump(tag_1)\n    tag_19:\n      dup1\n      0x7284e416\n      eq\n      tag_10\n      jumpi\n      dup1\n      0x7554e42f\n      eq\n      tag_11\n      jumpi\n      dup1\n      0x81d12c58\n      eq\n      tag_12\n      jumpi\n      dup1\n      0x8a9cfd55\n      eq\n      tag_13\n      jumpi\n      jump(tag_1)\n    tag_18:\n      dup1\n      0x26540fd2\n      gt\n      tag_20\n      jumpi\n      dup1\n      0x26540fd2\n      eq\n      tag_6\n      jumpi\n      dup1\n      0x4051ddac\n      eq\n      tag_7\n      jumpi\n      dup1\n      0x481c6a75\n      eq\n      tag_8\n      jumpi\n      dup1\n      0x59af7a13\n      eq\n      tag_9\n      jumpi\n      jump(tag_1)\n    tag_20:\n      dup1\n      0x03441006\n      eq\n      tag_2\n      jumpi\n      dup1\n      0x06fdde03\n      eq\n      tag_3\n      jumpi\n      dup1\n      0x0a144391\n      eq\n      tag_4\n      jumpi\n      dup1\n      0x1da98960\n      eq\n      tag_5\n      jumpi\n    tag_1:\n      0x00\n      dup1\n      revert\n        /* \"Idea.sol\":2803:3094  function finalizeRequest(uint index) public allowOnlyManager {... */\n    tag_2:\n      callvalue\n      dup1\n      iszero\n      tag_21\n      jumpi\n      0x00\n      dup1\n      revert\n    tag_21:\n      pop\n      tag_22\n      0x04\n      dup1\n      calldatasize\n      sub\n      dup2\n      add\n      swap1\n      tag_23\n      swap2\n      swap1\n      tag_24\n      jump\t// in\n    tag_23:\n      tag_25\n      jump\t// in\n    tag_22:\n      stop\n        /* \"Idea.sol\":711:729  string public name */\n    tag_3:\n      callvalue\n      dup1\n      iszero\n      tag_26\n      jumpi\n      0x00\n      dup1\n      revert\n    tag_26:\n      pop\n      tag_27\n      tag_28\n      jump\t// in\n    tag_27:\n      mload(0x40)\n      tag_29\n      swap2\n      swap1\n      tag_30\n      jump\t// in\n    tag_29:\n      mload(0x40)\n      dup1\n      swap2\n      sub\n      swap1\n      return\n        /* \"Idea.sol\":985:1026  mapping(address => uint) public approvers */\n    tag_4:\n      callvalue\n      dup1\n      iszero\n      tag_31\n      jumpi\n      0x00\n      dup1\n      revert\n    tag_31:\n      pop\n      tag_32\n      0x04\n      dup1\n      calldatasize\n      sub\n      dup2\n      add\n      swap1\n      tag_33\n      swap2\n      swap1\n      tag_34\n      jump\t// in\n    tag_33:\n      tag_35\n      jump\t// in\n    tag_32:\n      mload(0x40)\n      tag_36\n      swap2\n      swap1\n      tag_37\n      jump\t// in\n    tag_36:\n      mload(0x40)\n      dup1\n      swap2\n      sub\n      swap1\n      return\n        /* \"Idea.sol\":735:765  string public shortDescription */\n    tag_5:\n      callvalue\n      dup1\n      iszero\n      tag_38\n      jumpi\n      0x00\n      dup1\n      revert\n    tag_38:\n      pop\n      tag_39\n      tag_40\n      jump\t// in\n    tag_39:\n      mload(0x40)\n      tag_41\n      swap2\n      swap1\n      tag_30\n      jump\t// in\n    tag_41:\n      mload(0x40)\n      dup1\n      swap2\n      sub\n      swap1\n      return\n        /* \"Idea.sol\":1065:1084  uint public credits */\n    tag_6:\n      callvalue\n      dup1\n      iszero\n      tag_42\n      jumpi\n      0x00\n      dup1\n      revert\n    tag_42:\n      pop\n      tag_43\n      tag_44\n      jump\t// in\n    tag_43:\n      mload(0x40)\n      tag_45\n      swap2\n      swap1\n      tag_37\n      jump\t// in\n    tag_45:\n      mload(0x40)\n      dup1\n      swap2\n      sub\n      swap1\n      return\n        /* \"Idea.sol\":3104:3549  function getSummary() public view returns (... */\n    tag_7:\n      callvalue\n      dup1\n      iszero\n      tag_46\n      jumpi\n      0x00\n      dup1\n      revert\n    tag_46:\n      pop\n      tag_47\n      tag_48\n      jump\t// in\n    tag_47:\n      mload(0x40)\n      tag_49\n      swap11\n      swap10\n      swap9\n      swap8\n      swap7\n      swap6\n      swap5\n      swap4\n      swap3\n      swap2\n      swap1\n      tag_50\n      jump\t// in\n    tag_49:\n      mload(0x40)\n      dup1\n      swap2\n      sub\n      swap1\n      return\n        /* \"Idea.sol\":916:938  address public manager */\n    tag_8:\n      callvalue\n      dup1\n      iszero\n      tag_51\n      jumpi\n      0x00\n      dup1\n      revert\n    tag_51:\n      pop\n      tag_52\n      tag_53\n      jump\t// in\n    tag_52:\n      mload(0x40)\n      tag_54\n      swap2\n      swap1\n      tag_55\n      jump\t// in\n    tag_54:\n      mload(0x40)\n      dup1\n      swap2\n      sub\n      swap1\n      return\n        /* \"Idea.sol\":1033:1059  uint public oneCreditValue */\n    tag_9:\n      callvalue\n      dup1\n      iszero\n      tag_56\n      jumpi\n      0x00\n      dup1\n      revert\n    tag_56:\n      pop\n      tag_57\n      tag_58\n      jump\t// in\n    tag_57:\n      mload(0x40)\n      tag_59\n      swap2\n      swap1\n      tag_37\n      jump\t// in\n    tag_59:\n      mload(0x40)\n      dup1\n      swap2\n      sub\n      swap1\n      return\n        /* \"Idea.sol\":771:796  string public description */\n    tag_10:\n      callvalue\n      dup1\n      iszero\n      tag_60\n      jumpi\n      0x00\n      dup1\n      revert\n    tag_60:\n      pop\n      tag_61\n      tag_62\n      jump\t// in\n    tag_61:\n      mload(0x40)\n      tag_63\n      swap2\n      swap1\n      tag_30\n      jump\t// in\n    tag_63:\n      mload(0x40)\n      dup1\n      swap2\n      sub\n      swap1\n      return\n        /* \"Idea.sol\":949:979  uint public numUniqueApprovers */\n    tag_11:\n      callvalue\n      dup1\n      iszero\n      tag_64\n      jumpi\n      0x00\n      dup1\n      revert\n    tag_64:\n      pop\n      tag_65\n      tag_66\n      jump\t// in\n    tag_65:\n      mload(0x40)\n      tag_67\n      swap2\n      swap1\n      tag_37\n      jump\t// in\n    tag_67:\n      mload(0x40)\n      dup1\n      swap2\n      sub\n      swap1\n      return\n        /* \"Idea.sol\":864:905  mapping (uint => Request) public requests */\n    tag_12:\n      callvalue\n      dup1\n      iszero\n      tag_68\n      jumpi\n      0x00\n      dup1\n      revert\n    tag_68:\n      pop\n      tag_69\n      0x04\n      dup1\n      calldatasize\n      sub\n      dup2\n      add\n      swap1\n      tag_70\n      swap2\n      swap1\n      tag_24\n      jump\t// in\n    tag_70:\n      tag_71\n      jump\t// in\n    tag_69:\n      mload(0x40)\n      tag_72\n      swap6\n      swap5\n      swap4\n      swap3\n      swap2\n      swap1\n      tag_73\n      jump\t// in\n    tag_72:\n      mload(0x40)\n      dup1\n      swap2\n      sub\n      swap1\n      return\n        /* \"Idea.sol\":2176:2495  function createRequest(string memory description, uint value, address payable recipient) public allowOnlyManager {... */\n    tag_13:\n      callvalue\n      dup1\n      iszero\n      tag_74\n      jumpi\n      0x00\n      dup1\n      revert\n    tag_74:\n      pop\n      tag_75\n      0x04\n      dup1\n      calldatasize\n      sub\n      dup2\n      add\n      swap1\n      tag_76\n      swap2\n      swap1\n      tag_77\n      jump\t// in\n    tag_76:\n      tag_78\n      jump\t// in\n    tag_75:\n      stop\n        /* \"Idea.sol\":835:858  uint public numRequests */\n    tag_14:\n      callvalue\n      dup1\n      iszero\n      tag_79\n      jumpi\n      0x00\n      dup1\n      revert\n    tag_79:\n      pop\n      tag_80\n      tag_81\n      jump\t// in\n    tag_80:\n      mload(0x40)\n      tag_82\n      swap2\n      swap1\n      tag_37\n      jump\t// in\n    tag_82:\n      mload(0x40)\n      dup1\n      swap2\n      sub\n      swap1\n      return\n        /* \"Idea.sol\":802:824  string public imageURL */\n    tag_15:\n      callvalue\n      dup1\n      iszero\n      tag_83\n      jumpi\n      0x00\n      dup1\n      revert\n    tag_83:\n      pop\n      tag_84\n      tag_85\n      jump\t// in\n    tag_84:\n      mload(0x40)\n      tag_86\n      swap2\n      swap1\n      tag_30\n      jump\t// in\n    tag_86:\n      mload(0x40)\n      dup1\n      swap2\n      sub\n      swap1\n      return\n        /* \"Idea.sol\":1579:2166  function contribute() public payable {... */\n    tag_16:\n      tag_87\n      tag_88\n      jump\t// in\n    tag_87:\n      stop\n        /* \"Idea.sol\":2505:2797  function approveRequest(uint index) public {... */\n    tag_17:\n      callvalue\n      dup1\n      iszero\n      tag_89\n      jumpi\n      0x00\n      dup1\n      revert\n    tag_89:\n      pop\n      tag_90\n      0x04\n      dup1\n      calldatasize\n      sub\n      dup2\n      add\n      swap1\n      tag_91\n      swap2\n      swap1\n      tag_24\n      jump\t// in\n    tag_91:\n      tag_92\n      jump\t// in\n    tag_90:\n      stop\n        /* \"Idea.sol\":2803:3094  function finalizeRequest(uint index) public allowOnlyManager {... */\n    tag_25:\n        /* \"Idea.sol\":1151:1158  manager */\n      0x06\n      0x00\n      swap1\n      sload\n      swap1\n      0x0100\n      exp\n      swap1\n      div\n      0xffffffffffffffffffffffffffffffffffffffff\n      and\n        /* \"Idea.sol\":1137:1158  msg.sender == manager */\n      0xffffffffffffffffffffffffffffffffffffffff\n      and\n        /* \"Idea.sol\":1137:1147  msg.sender */\n      caller\n        /* \"Idea.sol\":1137:1158  msg.sender == manager */\n      0xffffffffffffffffffffffffffffffffffffffff\n      and\n      eq\n        /* \"Idea.sol\":1129:1159  require(msg.sender == manager) */\n      tag_94\n      jumpi\n      0x00\n      dup1\n      revert\n    tag_94:\n        /* \"Idea.sol\":2874:2897  Request storage request */\n      0x00\n        /* \"Idea.sol\":2900:2908  requests */\n      0x05\n        /* \"Idea.sol\":2900:2915  requests[index] */\n      0x00\n        /* \"Idea.sol\":2909:2914  index */\n      dup4\n        /* \"Idea.sol\":2900:2915  requests[index] */\n      dup2\n      mstore\n      0x20\n      add\n      swap1\n      dup2\n      mstore\n      0x20\n      add\n      0x00\n      keccak256\n        /* \"Idea.sol\":2874:2915  Request storage request = requests[index] */\n      swap1\n      pop\n        /* \"Idea.sol\":2963:2964  2 */\n      0x02\n        /* \"Idea.sol\":2953:2960  credits */\n      sload(0x0a)\n        /* \"Idea.sol\":2953:2964  credits / 2 */\n      tag_96\n      swap2\n      swap1\n      tag_97\n      jump\t// in\n    tag_96:\n        /* \"Idea.sol\":2934:2941  request */\n      dup2\n        /* \"Idea.sol\":2934:2949  request.credits */\n      0x03\n      add\n      sload\n        /* \"Idea.sol\":2934:2965  request.credits > (credits / 2) */\n      gt\n        /* \"Idea.sol\":2926:2966  require(request.credits > (credits / 2)) */\n      tag_98\n      jumpi\n      0x00\n      dup1\n      revert\n    tag_98:\n        /* \"Idea.sol\":2985:2992  request */\n      dup1\n        /* \"Idea.sol\":2985:3001  request.complete */\n      0x02\n      add\n      0x14\n      swap1\n      sload\n      swap1\n      0x0100\n      exp\n      swap1\n      div\n      0xff\n      and\n        /* \"Idea.sol\":2984:3001  !request.complete */\n      iszero\n        /* \"Idea.sol\":2976:3002  require(!request.complete) */\n      tag_99\n      jumpi\n      0x00\n      dup1\n      revert\n    tag_99:\n        /* \"Idea.sol\":3013:3020  request */\n      dup1\n        /* \"Idea.sol\":3013:3030  request.recipient */\n      0x02\n      add\n      0x00\n      swap1\n      sload\n      swap1\n      0x0100\n      exp\n      swap1\n      div\n      0xffffffffffffffffffffffffffffffffffffffff\n      and\n        /* \"Idea.sol\":3013:3039  request.recipient.transfer */\n      0xffffffffffffffffffffffffffffffffffffffff\n      and\n        /* \"Idea.sol\":3013:3054  request.recipient.transfer(request.value) */\n      0x08fc\n        /* \"Idea.sol\":3040:3047  request */\n      dup3\n        /* \"Idea.sol\":3040:3053  request.value */\n      0x01\n      add\n      sload\n        /* \"Idea.sol\":3013:3054  request.recipient.transfer(request.value) */\n      swap1\n      dup2\n      iszero\n      mul\n      swap1\n      mload(0x40)\n      0x00\n      mload(0x40)\n      dup1\n      dup4\n      sub\n      dup2\n      dup6\n      dup9\n      dup9\n      call\n      swap4\n      pop\n      pop\n      pop\n      pop\n      iszero\n      dup1\n      iszero\n      tag_101\n      jumpi\n      returndatasize\n      0x00\n      dup1\n      returndatacopy\n      revert(0x00, returndatasize)\n    tag_101:\n      pop\n        /* \"Idea.sol\":3083:3087  true */\n      0x01\n        /* \"Idea.sol\":3064:3071  request */\n      dup2\n        /* \"Idea.sol\":3064:3080  request.complete */\n      0x02\n      add\n      0x14\n        /* \"Idea.sol\":3064:3087  request.complete = true */\n      0x0100\n      exp\n      dup2\n      sload\n      dup2\n      0xff\n      mul\n      not\n      and\n      swap1\n      dup4\n      iszero\n      iszero\n      mul\n      or\n      swap1\n      sstore\n      pop\n        /* \"Idea.sol\":1169:1170  _ */\n      pop\n        /* \"Idea.sol\":2803:3094  function finalizeRequest(uint index) public allowOnlyManager {... */\n      pop\n      jump\t// out\n        /* \"Idea.sol\":711:729  string public name */\n    tag_28:\n      0x00\n      dup1\n      sload\n      tag_102\n      swap1\n      tag_103\n      jump\t// in\n    tag_102:\n      dup1\n      0x1f\n      add\n      0x20\n      dup1\n      swap2\n      div\n      mul\n      0x20\n      add\n      mload(0x40)\n      swap1\n      dup2\n      add\n      0x40\n      mstore\n      dup1\n      swap3\n      swap2\n      swap1\n      dup2\n      dup2\n      mstore\n      0x20\n      add\n      dup3\n      dup1\n      sload\n      tag_104\n      swap1\n      tag_103\n      jump\t// in\n    tag_104:\n      dup1\n      iszero\n      tag_105\n      jumpi\n      dup1\n      0x1f\n      lt\n      tag_106\n      jumpi\n      0x0100\n      dup1\n      dup4\n      sload\n      div\n      mul\n      dup4\n      mstore\n      swap2\n      0x20\n      add\n      swap2\n      jump(tag_105)\n    tag_106:\n      dup3\n      add\n      swap2\n      swap1\n      0x00\n      mstore\n      keccak256(0x00, 0x20)\n      swap1\n    tag_107:\n      dup2\n      sload\n      dup2\n      mstore\n      swap1\n      0x01\n      add\n      swap1\n      0x20\n      add\n      dup1\n      dup4\n      gt\n      tag_107\n      jumpi\n      dup3\n      swap1\n      sub\n      0x1f\n      and\n      dup3\n      add\n      swap2\n    tag_105:\n      pop\n      pop\n      pop\n      pop\n      pop\n      dup2\n      jump\t// out\n        /* \"Idea.sol\":985:1026  mapping(address => uint) public approvers */\n    tag_35:\n      mstore(0x20, 0x08)\n      dup1\n      0x00\n      mstore\n      keccak256(0x00, 0x40)\n      0x00\n      swap2\n      pop\n      swap1\n      pop\n      sload\n      dup2\n      jump\t// out\n        /* \"Idea.sol\":735:765  string public shortDescription */\n    tag_40:\n      0x01\n      dup1\n      sload\n      tag_108\n      swap1\n      tag_103\n      jump\t// in\n    tag_108:\n      dup1\n      0x1f\n      add\n      0x20\n      dup1\n      swap2\n      div\n      mul\n      0x20\n      add\n      mload(0x40)\n      swap1\n      dup2\n      add\n      0x40\n      mstore\n      dup1\n      swap3\n      swap2\n      swap1\n      dup2\n      dup2\n      mstore\n      0x20\n      add\n      dup3\n      dup1\n      sload\n      tag_109\n      swap1\n      tag_103\n      jump\t// in\n    tag_109:\n      dup1\n      iszero\n      tag_110\n      jumpi\n      dup1\n      0x1f\n      lt\n      tag_111\n      jumpi\n      0x0100\n      dup1\n      dup4\n      sload\n      div\n      mul\n      dup4\n      mstore\n      swap2\n      0x20\n      add\n      swap2\n      jump(tag_110)\n    tag_111:\n      dup3\n      add\n      swap2\n      swap1\n      0x00\n      mstore\n      keccak256(0x00, 0x20)\n      swap1\n    tag_112:\n      dup2\n      sload\n      dup2\n      mstore\n      swap1\n      0x01\n      add\n      swap1\n      0x20\n      add\n      dup1\n      dup4\n      gt\n      tag_112\n      jumpi\n      dup3\n      swap1\n      sub\n      0x1f\n      and\n      dup3\n      add\n      swap2\n    tag_110:\n      pop\n      pop\n      pop\n      pop\n      pop\n      dup2\n      jump\t// out\n        /* \"Idea.sol\":1065:1084  uint public credits */\n    tag_44:\n      sload(0x0a)\n      dup2\n      jump\t// out\n        /* \"Idea.sol\":3104:3549  function getSummary() public view returns (... */\n    tag_48:\n        /* \"Idea.sol\":3154:3167  string memory */\n      0x60\n        /* \"Idea.sol\":3169:3182  string memory */\n      dup1\n        /* \"Idea.sol\":3184:3197  string memory */\n      0x60\n        /* \"Idea.sol\":3199:3212  string memory */\n      dup1\n        /* \"Idea.sol\":3214:3218  uint */\n      0x00\n        /* \"Idea.sol\":3220:3224  uint */\n      dup1\n        /* \"Idea.sol\":3226:3230  uint */\n      0x00\n        /* \"Idea.sol\":3232:3236  uint */\n      dup1\n        /* \"Idea.sol\":3238:3245  address */\n      0x00\n        /* \"Idea.sol\":3247:3254  address */\n      dup1\n        /* \"Idea.sol\":3294:3298  name */\n      0x00\n        /* \"Idea.sol\":3312:3328  shortDescription */\n      0x01\n        /* \"Idea.sol\":3342:3353  description */\n      0x02\n        /* \"Idea.sol\":3367:3375  imageURL */\n      0x03\n        /* \"Idea.sol\":3389:3403  oneCreditValue */\n      sload(0x09)\n        /* \"Idea.sol\":3417:3438  address(this).balance */\n      selfbalance\n        /* \"Idea.sol\":3452:3463  numRequests */\n      sload(0x04)\n        /* \"Idea.sol\":3477:3484  credits */\n      sload(0x0a)\n        /* \"Idea.sol\":3506:3510  this */\n      address\n        /* \"Idea.sol\":3525:3532  manager */\n      0x06\n      0x00\n      swap1\n      sload\n      swap1\n      0x0100\n      exp\n      swap1\n      div\n      0xffffffffffffffffffffffffffffffffffffffff\n      and\n        /* \"Idea.sol\":3273:3542  return (... */\n      dup10\n      dup1\n      sload\n      tag_114\n      swap1\n      tag_103\n      jump\t// in\n    tag_114:\n      dup1\n      0x1f\n      add\n      0x20\n      dup1\n      swap2\n      div\n      mul\n      0x20\n      add\n      mload(0x40)\n      swap1\n      dup2\n      add\n      0x40\n      mstore\n      dup1\n      swap3\n      swap2\n      swap1\n      dup2\n      dup2\n      mstore\n      0x20\n      add\n      dup3\n      dup1\n      sload\n      tag_115\n      swap1\n      tag_103\n      jump\t// in\n    tag_115:\n      dup1\n      iszero\n      tag_116\n      jumpi\n      dup1\n      0x1f\n      lt\n      tag_117\n      jumpi\n      0x0100\n      dup1\n      dup4\n      sload\n      div\n      mul\n      dup4\n      mstore\n      swap2\n      0x20\n      add\n      swap2\n      jump(tag_116)\n    tag_117:\n      dup3\n      add\n      swap2\n      swap1\n      0x00\n      mstore\n      keccak256(0x00, 0x20)\n      swap1\n    tag_118:\n      dup2\n      sload\n      dup2\n      mstore\n      swap1\n      0x01\n      add\n      swap1\n      0x20\n      add\n      dup1\n      dup4\n      gt\n      tag_118\n      jumpi\n      dup3\n      swap1\n      sub\n      0x1f\n      and\n      dup3\n      add\n      swap2\n    tag_116:\n      pop\n      pop\n      pop\n      pop\n      pop\n      swap10\n      pop\n      dup9\n      dup1\n      sload\n      tag_119\n      swap1\n      tag_103\n      jump\t// in\n    tag_119:\n      dup1\n      0x1f\n      add\n      0x20\n      dup1\n      swap2\n      div\n      mul\n      0x20\n      add\n      mload(0x40)\n      swap1\n      dup2\n      add\n      0x40\n      mstore\n      dup1\n      swap3\n      swap2\n      swap1\n      dup2\n      dup2\n      mstore\n      0x20\n      add\n      dup3\n      dup1\n      sload\n      tag_120\n      swap1\n      tag_103\n      jump\t// in\n    tag_120:\n      dup1\n      iszero\n      tag_121\n      jumpi\n      dup1\n      0x1f\n      lt\n      tag_122\n      jumpi\n      0x0100\n      dup1\n      dup4\n      sload\n      div\n      mul\n      dup4\n      mstore\n      swap2\n      0x20\n      add\n      swap2\n      jump(tag_121)\n    tag_122:\n      dup3\n      add\n      swap2\n      swap1\n      0x00\n      mstore\n      keccak256(0x00, 0x20)\n      swap1\n    tag_123:\n      dup2\n      sload\n      dup2\n      mstore\n      swap1\n      0x01\n      add\n      swap1\n      0x20\n      add\n      dup1\n      dup4\n      gt\n      tag_123\n      jumpi\n      dup3\n      swap1\n      sub\n      0x1f\n      and\n      dup3\n      add\n      swap2\n    tag_121:\n      pop\n      pop\n      pop\n      pop\n      pop\n      swap9\n      pop\n      dup8\n      dup1\n      sload\n      tag_124\n      swap1\n      tag_103\n      jump\t// in\n    tag_124:\n      dup1\n      0x1f\n      add\n      0x20\n      dup1\n      swap2\n      div\n      mul\n      0x20\n      add\n      mload(0x40)\n      swap1\n      dup2\n      add\n      0x40\n      mstore\n      dup1\n      swap3\n      swap2\n      swap1\n      dup2\n      dup2\n      mstore\n      0x20\n      add\n      dup3\n      dup1\n      sload\n      tag_125\n      swap1\n      tag_103\n      jump\t// in\n    tag_125:\n      dup1\n      iszero\n      tag_126\n      jumpi\n      dup1\n      0x1f\n      lt\n      tag_127\n      jumpi\n      0x0100\n      dup1\n      dup4\n      sload\n      div\n      mul\n      dup4\n      mstore\n      swap2\n      0x20\n      add\n      swap2\n      jump(tag_126)\n    tag_127:\n      dup3\n      add\n      swap2\n      swap1\n      0x00\n      mstore\n      keccak256(0x00, 0x20)\n      swap1\n    tag_128:\n      dup2\n      sload\n      dup2\n      mstore\n      swap1\n      0x01\n      add\n      swap1\n      0x20\n      add\n      dup1\n      dup4\n      gt\n      tag_128\n      jumpi\n      dup3\n      swap1\n      sub\n      0x1f\n      and\n      dup3\n      add\n      swap2\n    tag_126:\n      pop\n      pop\n      pop\n      pop\n      pop\n      swap8\n      pop\n      dup7\n      dup1\n      sload\n      tag_129\n      swap1\n      tag_103\n      jump\t// in\n    tag_129:\n      dup1\n      0x1f\n      add\n      0x20\n      dup1\n      swap2\n      div\n      mul\n      0x20\n      add\n      mload(0x40)\n      swap1\n      dup2\n      add\n      0x40\n      mstore\n      dup1\n      swap3\n      swap2\n      swap1\n      dup2\n      dup2\n      mstore\n      0x20\n      add\n      dup3\n      dup1\n      sload\n      tag_130\n      swap1\n      tag_103\n      jump\t// in\n    tag_130:\n      dup1\n      iszero\n      tag_131\n      jumpi\n      dup1\n      0x1f\n      lt\n      tag_132\n      jumpi\n      0x0100\n      dup1\n      dup4\n      sload\n      div\n      mul\n      dup4\n      mstore\n      swap2\n      0x20\n      add\n      swap2\n      jump(tag_131)\n    tag_132:\n      dup3\n      add\n      swap2\n      swap1\n      0x00\n      mstore\n      keccak256(0x00, 0x20)\n      swap1\n    tag_133:\n      dup2\n      sload\n      dup2\n      mstore\n      swap1\n      0x01\n      add\n      swap1\n      0x20\n      add\n      dup1\n      dup4\n      gt\n      tag_133\n      jumpi\n      dup3\n      swap1\n      sub\n      0x1f\n      and\n      dup3\n      add\n      swap2\n    tag_131:\n      pop\n      pop\n      pop\n      pop\n      pop\n      swap7\n      pop\n      swap10\n      pop\n      swap10\n      pop\n      swap10\n      pop\n      swap10\n      pop\n      swap10\n      pop\n      swap10\n      pop\n      swap10\n      pop\n      swap10\n      pop\n      swap10\n      pop\n      swap10\n      pop\n        /* \"Idea.sol\":3104:3549  function getSummary() public view returns (... */\n      swap1\n      swap2\n      swap3\n      swap4\n      swap5\n      swap6\n      swap7\n      swap8\n      swap9\n      swap10\n      jump\t// out\n        /* \"Idea.sol\":916:938  address public manager */\n    tag_53:\n      0x06\n      0x00\n      swap1\n      sload\n      swap1\n      0x0100\n      exp\n      swap1\n      div\n      0xffffffffffffffffffffffffffffffffffffffff\n      and\n      dup2\n      jump\t// out\n        /* \"Idea.sol\":1033:1059  uint public oneCreditValue */\n    tag_58:\n      sload(0x09)\n      dup2\n      jump\t// out\n        /* \"Idea.sol\":771:796  string public description */\n    tag_62:\n      0x02\n      dup1\n      sload\n      tag_134\n      swap1\n      tag_103\n      jump\t// in\n    tag_134:\n      dup1\n      0x1f\n      add\n      0x20\n      dup1\n      swap2\n      div\n      mul\n      0x20\n      add\n      mload(0x40)\n      swap1\n      dup2\n      add\n      0x40\n      mstore\n      dup1\n      swap3\n      swap2\n      swap1\n      dup2\n      dup2\n      mstore\n      0x20\n      add\n      dup3\n      dup1\n      sload\n      tag_135\n      swap1\n      tag_103\n      jump\t// in\n    tag_135:\n      dup1\n      iszero\n      tag_136\n      jumpi\n      dup1\n      0x1f\n      lt\n      tag_137\n      jumpi\n      0x0100\n      dup1\n      dup4\n      sload\n      div\n      mul\n      dup4\n      mstore\n      swap2\n      0x20\n      add\n      swap2\n      jump(tag_136)\n    tag_137:\n      dup3\n      add\n      swap2\n      swap1\n      0x00\n      mstore\n      keccak256(0x00, 0x20)\n      swap1\n    tag_138:\n      dup2\n      sload\n      dup2\n      mstore\n      swap1\n      0x01\n      add\n      swap1\n      0x20\n      add\n      dup1\n      dup4\n      gt\n      tag_138\n      jumpi\n      dup3\n      swap1\n      sub\n      0x1f\n      and\n      dup3\n      add\n      swap2\n    tag_136:\n      pop\n      pop\n      pop\n      pop\n      pop\n      dup2\n      jump\t// out\n        /* \"Idea.sol\":949:979  uint public numUniqueApprovers */\n    tag_66:\n      sload(0x07)\n      dup2\n      jump\t// out\n        /* \"Idea.sol\":864:905  mapping (uint => Request) public requests */\n    tag_71:\n      mstore(0x20, 0x05)\n      dup1\n      0x00\n      mstore\n      keccak256(0x00, 0x40)\n      0x00\n      swap2\n      pop\n      swap1\n      pop\n      dup1\n      0x00\n      add\n      dup1\n      sload\n      tag_139\n      swap1\n      tag_103\n      jump\t// in\n    tag_139:\n      dup1\n      0x1f\n      add\n      0x20\n      dup1\n      swap2\n      div\n      mul\n      0x20\n      add\n      mload(0x40)\n      swap1\n      dup2\n      add\n      0x40\n      mstore\n      dup1\n      swap3\n      swap2\n      swap1\n      dup2\n      dup2\n      mstore\n      0x20\n      add\n      dup3\n      dup1\n      sload\n      tag_140\n      swap1\n      tag_103\n      jump\t// in\n    tag_140:\n      dup1\n      iszero\n      tag_141\n      jumpi\n      dup1\n      0x1f\n      lt\n      tag_142\n      jumpi\n      0x0100\n      dup1\n      dup4\n      sload\n      div\n      mul\n      dup4\n      mstore\n      swap2\n      0x20\n      add\n      swap2\n      jump(tag_141)\n    tag_142:\n      dup3\n      add\n      swap2\n      swap1\n      0x00\n      mstore\n      keccak256(0x00, 0x20)\n      swap1\n    tag_143:\n      dup2\n      sload\n      dup2\n      mstore\n      swap1\n      0x01\n      add\n      swap1\n      0x20\n      add\n      dup1\n      dup4\n      gt\n      tag_143\n      jumpi\n      dup3\n      swap1\n      sub\n      0x1f\n      and\n      dup3\n      add\n      swap2\n    tag_141:\n      pop\n      pop\n      pop\n      pop\n      pop\n      swap1\n      dup1\n      0x01\n      add\n      sload\n      swap1\n      dup1\n      0x02\n      add\n      0x00\n      swap1\n      sload\n      swap1\n      0x0100\n      exp\n      swap1\n      div\n      0xffffffffffffffffffffffffffffffffffffffff\n      and\n      swap1\n      dup1\n      0x02\n      add\n      0x14\n      swap1\n      sload\n      swap1\n      0x0100\n      exp\n      swap1\n      div\n      0xff\n      and\n      swap1\n      dup1\n      0x03\n      add\n      sload\n      swap1\n      pop\n      dup6\n      jump\t// out\n        /* \"Idea.sol\":2176:2495  function createRequest(string memory description, uint value, address payable recipient) public allowOnlyManager {... */\n    tag_78:\n        /* \"Idea.sol\":1151:1158  manager */\n      0x06\n      0x00\n      swap1\n      sload\n      swap1\n      0x0100\n      exp\n      swap1\n      div\n      0xffffffffffffffffffffffffffffffffffffffff\n      and\n        /* \"Idea.sol\":1137:1158  msg.sender == manager */\n      0xffffffffffffffffffffffffffffffffffffffff\n      and\n        /* \"Idea.sol\":1137:1147  msg.sender */\n      caller\n        /* \"Idea.sol\":1137:1158  msg.sender == manager */\n      0xffffffffffffffffffffffffffffffffffffffff\n      and\n      eq\n        /* \"Idea.sol\":1129:1159  require(msg.sender == manager) */\n      tag_145\n      jumpi\n      0x00\n      dup1\n      revert\n    tag_145:\n        /* \"Idea.sol\":2299:2316  Request storage r */\n      0x00\n        /* \"Idea.sol\":2319:2327  requests */\n      0x05\n        /* \"Idea.sol\":2319:2342  requests[numRequests++] */\n      0x00\n        /* \"Idea.sol\":2328:2339  numRequests */\n      0x04\n      0x00\n        /* \"Idea.sol\":2328:2341  numRequests++ */\n      dup2\n      sload\n      dup1\n      swap3\n      swap2\n      swap1\n      tag_147\n      swap1\n      tag_148\n      jump\t// in\n    tag_147:\n      swap2\n      swap1\n      pop\n      sstore\n        /* \"Idea.sol\":2319:2342  requests[numRequests++] */\n      dup2\n      mstore\n      0x20\n      add\n      swap1\n      dup2\n      mstore\n      0x20\n      add\n      0x00\n      keccak256\n        /* \"Idea.sol\":2299:2342  Request storage r = requests[numRequests++] */\n      swap1\n      pop\n        /* \"Idea.sol\":2368:2379  description */\n      dup4\n        /* \"Idea.sol\":2352:2353  r */\n      dup2\n        /* \"Idea.sol\":2352:2365  r.description */\n      0x00\n      add\n        /* \"Idea.sol\":2352:2379  r.description = description */\n      swap1\n      dup1\n      mload\n      swap1\n      0x20\n      add\n      swap1\n      tag_149\n      swap3\n      swap2\n      swap1\n      tag_150\n      jump\t// in\n    tag_149:\n      pop\n        /* \"Idea.sol\":2399:2404  value */\n      dup3\n        /* \"Idea.sol\":2389:2390  r */\n      dup2\n        /* \"Idea.sol\":2389:2396  r.value */\n      0x01\n      add\n        /* \"Idea.sol\":2389:2404  r.value = value */\n      dup2\n      swap1\n      sstore\n      pop\n        /* \"Idea.sol\":2428:2437  recipient */\n      dup2\n        /* \"Idea.sol\":2414:2415  r */\n      dup2\n        /* \"Idea.sol\":2414:2425  r.recipient */\n      0x02\n      add\n      0x00\n        /* \"Idea.sol\":2414:2437  r.recipient = recipient */\n      0x0100\n      exp\n      dup2\n      sload\n      dup2\n      0xffffffffffffffffffffffffffffffffffffffff\n      mul\n      not\n      and\n      swap1\n      dup4\n      0xffffffffffffffffffffffffffffffffffffffff\n      and\n      mul\n      or\n      swap1\n      sstore\n      pop\n        /* \"Idea.sol\":2460:2465  false */\n      0x00\n        /* \"Idea.sol\":2447:2448  r */\n      dup2\n        /* \"Idea.sol\":2447:2457  r.complete */\n      0x02\n      add\n      0x14\n        /* \"Idea.sol\":2447:2465  r.complete = false */\n      0x0100\n      exp\n      dup2\n      sload\n      dup2\n      0xff\n      mul\n      not\n      and\n      swap1\n      dup4\n      iszero\n      iszero\n      mul\n      or\n      swap1\n      sstore\n      pop\n        /* \"Idea.sol\":2487:2488  0 */\n      0x00\n        /* \"Idea.sol\":2475:2476  r */\n      dup2\n        /* \"Idea.sol\":2475:2484  r.credits */\n      0x03\n      add\n        /* \"Idea.sol\":2475:2488  r.credits = 0 */\n      dup2\n      swap1\n      sstore\n      pop\n        /* \"Idea.sol\":1169:1170  _ */\n      pop\n        /* \"Idea.sol\":2176:2495  function createRequest(string memory description, uint value, address payable recipient) public allowOnlyManager {... */\n      pop\n      pop\n      pop\n      jump\t// out\n        /* \"Idea.sol\":835:858  uint public numRequests */\n    tag_81:\n      sload(0x04)\n      dup2\n      jump\t// out\n        /* \"Idea.sol\":802:824  string public imageURL */\n    tag_85:\n      0x03\n      dup1\n      sload\n      tag_151\n      swap1\n      tag_103\n      jump\t// in\n    tag_151:\n      dup1\n      0x1f\n      add\n      0x20\n      dup1\n      swap2\n      div\n      mul\n      0x20\n      add\n      mload(0x40)\n      swap1\n      dup2\n      add\n      0x40\n      mstore\n      dup1\n      swap3\n      swap2\n      swap1\n      dup2\n      dup2\n      mstore\n      0x20\n      add\n      dup3\n      dup1\n      sload\n      tag_152\n      swap1\n      tag_103\n      jump\t// in\n    tag_152:\n      dup1\n      iszero\n      tag_153\n      jumpi\n      dup1\n      0x1f\n      lt\n      tag_154\n      jumpi\n      0x0100\n      dup1\n      dup4\n      sload\n      div\n      mul\n      dup4\n      mstore\n      swap2\n      0x20\n      add\n      swap2\n      jump(tag_153)\n    tag_154:\n      dup3\n      add\n      swap2\n      swap1\n      0x00\n      mstore\n      keccak256(0x00, 0x20)\n      swap1\n    tag_155:\n      dup2\n      sload\n      dup2\n      mstore\n      swap1\n      0x01\n      add\n      swap1\n      0x20\n      add\n      dup1\n      dup4\n      gt\n      tag_155\n      jumpi\n      dup3\n      swap1\n      sub\n      0x1f\n      and\n      dup3\n      add\n      swap2\n    tag_153:\n      pop\n      pop\n      pop\n      pop\n      pop\n      dup2\n      jump\t// out\n        /* \"Idea.sol\":1579:2166  function contribute() public payable {... */\n    tag_88:\n        /* \"Idea.sol\":1647:1661  oneCreditValue */\n      sload(0x09)\n        /* \"Idea.sol\":1634:1643  msg.value */\n      callvalue\n        /* \"Idea.sol\":1634:1661  msg.value >= oneCreditValue */\n      lt\n      iszero\n        /* \"Idea.sol\":1626:1662  require(msg.value >= oneCreditValue) */\n      tag_157\n      jumpi\n      0x00\n      dup1\n      revert\n    tag_157:\n        /* \"Idea.sol\":1701:1702  0 */\n      0x00\n        /* \"Idea.sol\":1676:1685  approvers */\n      0x08\n        /* \"Idea.sol\":1676:1697  approvers[msg.sender] */\n      0x00\n        /* \"Idea.sol\":1686:1696  msg.sender */\n      caller\n        /* \"Idea.sol\":1676:1697  approvers[msg.sender] */\n      0xffffffffffffffffffffffffffffffffffffffff\n      and\n      0xffffffffffffffffffffffffffffffffffffffff\n      and\n      dup2\n      mstore\n      0x20\n      add\n      swap1\n      dup2\n      mstore\n      0x20\n      add\n      0x00\n      keccak256\n      sload\n        /* \"Idea.sol\":1676:1702  approvers[msg.sender] == 0 */\n      eq\n        /* \"Idea.sol\":1673:1749  if(approvers[msg.sender] == 0) {... */\n      iszero\n      tag_158\n      jumpi\n        /* \"Idea.sol\":1718:1736  numUniqueApprovers */\n      0x07\n      0x00\n        /* \"Idea.sol\":1718:1738  numUniqueApprovers++ */\n      dup2\n      sload\n      dup1\n      swap3\n      swap2\n      swap1\n      tag_159\n      swap1\n      tag_148\n      jump\t// in\n    tag_159:\n      swap2\n      swap1\n      pop\n      sstore\n      pop\n        /* \"Idea.sol\":1673:1749  if(approvers[msg.sender] == 0) {... */\n    tag_158:\n        /* \"Idea.sol\":1760:1770  uint value */\n      0x00\n        /* \"Idea.sol\":1785:1799  oneCreditValue */\n      sload(0x09)\n        /* \"Idea.sol\":1773:1782  msg.value */\n      callvalue\n        /* \"Idea.sol\":1773:1799  msg.value / oneCreditValue */\n      tag_160\n      swap2\n      swap1\n      tag_97\n      jump\t// in\n    tag_160:\n        /* \"Idea.sol\":1760:1799  uint value = msg.value / oneCreditValue */\n      swap1\n      pop\n        /* \"Idea.sol\":1834:1839  value */\n      dup1\n        /* \"Idea.sol\":1809:1818  approvers */\n      0x08\n        /* \"Idea.sol\":1809:1830  approvers[msg.sender] */\n      0x00\n        /* \"Idea.sol\":1819:1829  msg.sender */\n      caller\n        /* \"Idea.sol\":1809:1830  approvers[msg.sender] */\n      0xffffffffffffffffffffffffffffffffffffffff\n      and\n      0xffffffffffffffffffffffffffffffffffffffff\n      and\n      dup2\n      mstore\n      0x20\n      add\n      swap1\n      dup2\n      mstore\n      0x20\n      add\n      0x00\n      keccak256\n      0x00\n        /* \"Idea.sol\":1809:1839  approvers[msg.sender] += value */\n      dup3\n      dup3\n      sload\n      tag_161\n      swap2\n      swap1\n      tag_162\n      jump\t// in\n    tag_161:\n      swap3\n      pop\n      pop\n      dup2\n      swap1\n      sstore\n      pop\n        /* \"Idea.sol\":1860:1865  value */\n      dup1\n        /* \"Idea.sol\":1849:1856  credits */\n      0x0a\n      0x00\n        /* \"Idea.sol\":1849:1865  credits += value */\n      dup3\n      dup3\n      sload\n      tag_163\n      swap2\n      swap1\n      tag_162\n      jump\t// in\n    tag_163:\n      swap3\n      pop\n      pop\n      dup2\n      swap1\n      sstore\n      pop\n        /* \"Idea.sol\":1917:1928  uint change */\n      0x00\n        /* \"Idea.sol\":1943:1957  oneCreditValue */\n      sload(0x09)\n        /* \"Idea.sol\":1931:1940  msg.value */\n      callvalue\n        /* \"Idea.sol\":1931:1957  msg.value % oneCreditValue */\n      tag_164\n      swap2\n      swap1\n      tag_165\n      jump\t// in\n    tag_164:\n        /* \"Idea.sol\":1917:1957  uint change = msg.value % oneCreditValue */\n      swap1\n      pop\n        /* \"Idea.sol\":2037:2038  0 */\n      0x00\n        /* \"Idea.sol\":2027:2033  change */\n      dup2\n        /* \"Idea.sol\":2027:2038  change != 0 */\n      eq\n        /* \"Idea.sol\":2024:2160  if(change != 0) {... */\n      tag_166\n      jumpi\n        /* \"Idea.sol\":2054:2083  address payable senderAddress */\n      0x00\n        /* \"Idea.sol\":2094:2104  msg.sender */\n      caller\n        /* \"Idea.sol\":2054:2105  address payable senderAddress = payable(msg.sender) */\n      swap1\n      pop\n        /* \"Idea.sol\":2119:2132  senderAddress */\n      dup1\n        /* \"Idea.sol\":2119:2141  senderAddress.transfer */\n      0xffffffffffffffffffffffffffffffffffffffff\n      and\n        /* \"Idea.sol\":2119:2149  senderAddress.transfer(change) */\n      0x08fc\n        /* \"Idea.sol\":2142:2148  change */\n      dup4\n        /* \"Idea.sol\":2119:2149  senderAddress.transfer(change) */\n      swap1\n      dup2\n      iszero\n      mul\n      swap1\n      mload(0x40)\n      0x00\n      mload(0x40)\n      dup1\n      dup4\n      sub\n      dup2\n      dup6\n      dup9\n      dup9\n      call\n      swap4\n      pop\n      pop\n      pop\n      pop\n      iszero\n      dup1\n      iszero\n      tag_168\n      jumpi\n      returndatasize\n      0x00\n      dup1\n      returndatacopy\n      revert(0x00, returndatasize)\n    tag_168:\n      pop\n        /* \"Idea.sol\":2024:2160  if(change != 0) {... */\n      pop\n    tag_166:\n        /* \"Idea.sol\":1579:2166  function contribute() public payable {... */\n      pop\n      pop\n      jump\t// out\n        /* \"Idea.sol\":2505:2797  function approveRequest(uint index) public {... */\n    tag_92:\n        /* \"Idea.sol\":2558:2581  Request storage request */\n      0x00\n        /* \"Idea.sol\":2584:2592  requests */\n      0x05\n        /* \"Idea.sol\":2584:2599  requests[index] */\n      0x00\n        /* \"Idea.sol\":2593:2598  index */\n      dup4\n        /* \"Idea.sol\":2584:2599  requests[index] */\n      dup2\n      mstore\n      0x20\n      add\n      swap1\n      dup2\n      mstore\n      0x20\n      add\n      0x00\n      keccak256\n        /* \"Idea.sol\":2558:2599  Request storage request = requests[index] */\n      swap1\n      pop\n        /* \"Idea.sol\":2642:2643  0 */\n      0x00\n        /* \"Idea.sol\":2618:2627  approvers */\n      0x08\n        /* \"Idea.sol\":2618:2639  approvers[msg.sender] */\n      0x00\n        /* \"Idea.sol\":2628:2638  msg.sender */\n      caller\n        /* \"Idea.sol\":2618:2639  approvers[msg.sender] */\n      0xffffffffffffffffffffffffffffffffffffffff\n      and\n      0xffffffffffffffffffffffffffffffffffffffff\n      and\n      dup2\n      mstore\n      0x20\n      add\n      swap1\n      dup2\n      mstore\n      0x20\n      add\n      0x00\n      keccak256\n      sload\n        /* \"Idea.sol\":2618:2643  approvers[msg.sender] > 0 */\n      gt\n        /* \"Idea.sol\":2610:2644  require(approvers[msg.sender] > 0) */\n      tag_170\n      jumpi\n      0x00\n      dup1\n      revert\n    tag_170:\n        /* \"Idea.sol\":2663:2670  request */\n      dup1\n        /* \"Idea.sol\":2663:2680  request.approvals */\n      0x04\n      add\n        /* \"Idea.sol\":2663:2692  request.approvals[msg.sender] */\n      0x00\n        /* \"Idea.sol\":2681:2691  msg.sender */\n      caller\n        /* \"Idea.sol\":2663:2692  request.approvals[msg.sender] */\n      0xffffffffffffffffffffffffffffffffffffffff\n      and\n      0xffffffffffffffffffffffffffffffffffffffff\n      and\n      dup2\n      mstore\n      0x20\n      add\n      swap1\n      dup2\n      mstore\n      0x20\n      add\n      0x00\n      keccak256\n      0x00\n      swap1\n      sload\n      swap1\n      0x0100\n      exp\n      swap1\n      div\n      0xff\n      and\n        /* \"Idea.sol\":2662:2692  !request.approvals[msg.sender] */\n      iszero\n        /* \"Idea.sol\":2654:2693  require(!request.approvals[msg.sender]) */\n      tag_171\n      jumpi\n      0x00\n      dup1\n      revert\n    tag_171:\n        /* \"Idea.sol\":2736:2740  true */\n      0x01\n        /* \"Idea.sol\":2704:2711  request */\n      dup2\n        /* \"Idea.sol\":2704:2721  request.approvals */\n      0x04\n      add\n        /* \"Idea.sol\":2704:2733  request.approvals[msg.sender] */\n      0x00\n        /* \"Idea.sol\":2722:2732  msg.sender */\n      caller\n        /* \"Idea.sol\":2704:2733  request.approvals[msg.sender] */\n      0xffffffffffffffffffffffffffffffffffffffff\n      and\n      0xffffffffffffffffffffffffffffffffffffffff\n      and\n      dup2\n      mstore\n      0x20\n      add\n      swap1\n      dup2\n      mstore\n      0x20\n      add\n      0x00\n      keccak256\n      0x00\n        /* \"Idea.sol\":2704:2740  request.approvals[msg.sender] = true */\n      0x0100\n      exp\n      dup2\n      sload\n      dup2\n      0xff\n      mul\n      not\n      and\n      swap1\n      dup4\n      iszero\n      iszero\n      mul\n      or\n      swap1\n      sstore\n      pop\n        /* \"Idea.sol\":2769:2778  approvers */\n      0x08\n        /* \"Idea.sol\":2769:2790  approvers[msg.sender] */\n      0x00\n        /* \"Idea.sol\":2779:2789  msg.sender */\n      caller\n        /* \"Idea.sol\":2769:2790  approvers[msg.sender] */\n      0xffffffffffffffffffffffffffffffffffffffff\n      and\n      0xffffffffffffffffffffffffffffffffffffffff\n      and\n      dup2\n      mstore\n      0x20\n      add\n      swap1\n      dup2\n      mstore\n      0x20\n      add\n      0x00\n      keccak256\n      sload\n        /* \"Idea.sol\":2750:2757  request */\n      dup2\n        /* \"Idea.sol\":2750:2765  request.credits */\n      0x03\n      add\n      0x00\n        /* \"Idea.sol\":2750:2790  request.credits += approvers[msg.sender] */\n      dup3\n      dup3\n      sload\n      tag_172\n      swap2\n      swap1\n      tag_162\n      jump\t// in\n    tag_172:\n      swap3\n      pop\n      pop\n      dup2\n      swap1\n      sstore\n      pop\n        /* \"Idea.sol\":2505:2797  function approveRequest(uint index) public {... */\n      pop\n      pop\n      jump\t// out\n    tag_150:\n      dup3\n      dup1\n      sload\n      tag_173\n      swap1\n      tag_103\n      jump\t// in\n    tag_173:\n      swap1\n      0x00\n      mstore\n      keccak256(0x00, 0x20)\n      swap1\n      0x1f\n      add\n      0x20\n      swap1\n      div\n      dup2\n      add\n      swap3\n      dup3\n      tag_175\n      jumpi\n      0x00\n      dup6\n      sstore\n      jump(tag_174)\n    tag_175:\n      dup3\n      0x1f\n      lt\n      tag_176\n      jumpi\n      dup1\n      mload\n      not(0xff)\n      and\n      dup4\n      dup1\n      add\n      or\n      dup6\n      sstore\n      jump(tag_174)\n    tag_176:\n      dup3\n      dup1\n      add\n      0x01\n      add\n      dup6\n      sstore\n      dup3\n      iszero\n      tag_174\n      jumpi\n      swap2\n      dup3\n      add\n    tag_177:\n      dup3\n      dup2\n      gt\n      iszero\n      tag_178\n      jumpi\n      dup3\n      mload\n      dup3\n      sstore\n      swap2\n      0x20\n      add\n      swap2\n      swap1\n      0x01\n      add\n      swap1\n      jump(tag_177)\n    tag_178:\n    tag_174:\n      pop\n      swap1\n      pop\n      tag_179\n      swap2\n      swap1\n      tag_180\n      jump\t// in\n    tag_179:\n      pop\n      swap1\n      jump\t// out\n    tag_180:\n    tag_181:\n      dup1\n      dup3\n      gt\n      iszero\n      tag_182\n      jumpi\n      0x00\n      dup2\n      0x00\n      swap1\n      sstore\n      pop\n      0x01\n      add\n      jump(tag_181)\n    tag_182:\n      pop\n      swap1\n      jump\t// out\n        /* \"#utility.yul\":7:352   */\n    tag_184:\n      0x00\n        /* \"#utility.yul\":110:176   */\n      tag_186\n        /* \"#utility.yul\":126:175   */\n      tag_187\n        /* \"#utility.yul\":168:174   */\n      dup5\n        /* \"#utility.yul\":126:175   */\n      tag_188\n      jump\t// in\n    tag_187:\n        /* \"#utility.yul\":110:176   */\n      tag_189\n      jump\t// in\n    tag_186:\n        /* \"#utility.yul\":101:176   */\n      swap1\n      pop\n        /* \"#utility.yul\":199:205   */\n      dup3\n        /* \"#utility.yul\":192:197   */\n      dup2\n        /* \"#utility.yul\":185:206   */\n      mstore\n        /* \"#utility.yul\":237:241   */\n      0x20\n        /* \"#utility.yul\":230:235   */\n      dup2\n        /* \"#utility.yul\":226:242   */\n      add\n        /* \"#utility.yul\":275:278   */\n      dup5\n        /* \"#utility.yul\":266:272   */\n      dup5\n        /* \"#utility.yul\":261:264   */\n      dup5\n        /* \"#utility.yul\":257:273   */\n      add\n        /* \"#utility.yul\":254:279   */\n      gt\n        /* \"#utility.yul\":251:253   */\n      iszero\n      tag_190\n      jumpi\n        /* \"#utility.yul\":292:293   */\n      0x00\n        /* \"#utility.yul\":289:290   */\n      dup1\n        /* \"#utility.yul\":282:294   */\n      revert\n        /* \"#utility.yul\":251:253   */\n    tag_190:\n        /* \"#utility.yul\":305:346   */\n      tag_191\n        /* \"#utility.yul\":339:345   */\n      dup5\n        /* \"#utility.yul\":334:337   */\n      dup3\n        /* \"#utility.yul\":329:332   */\n      dup6\n        /* \"#utility.yul\":305:346   */\n      tag_192\n      jump\t// in\n    tag_191:\n        /* \"#utility.yul\":91:352   */\n      pop\n      swap4\n      swap3\n      pop\n      pop\n      pop\n      jump\t// out\n        /* \"#utility.yul\":358:497   */\n    tag_193:\n      0x00\n        /* \"#utility.yul\":442:448   */\n      dup2\n        /* \"#utility.yul\":429:449   */\n      calldataload\n        /* \"#utility.yul\":420:449   */\n      swap1\n      pop\n        /* \"#utility.yul\":458:491   */\n      tag_195\n        /* \"#utility.yul\":485:490   */\n      dup2\n        /* \"#utility.yul\":458:491   */\n      tag_196\n      jump\t// in\n    tag_195:\n        /* \"#utility.yul\":410:497   */\n      swap3\n      swap2\n      pop\n      pop\n      jump\t// out\n        /* \"#utility.yul\":503:658   */\n    tag_197:\n      0x00\n        /* \"#utility.yul\":595:601   */\n      dup2\n        /* \"#utility.yul\":582:602   */\n      calldataload\n        /* \"#utility.yul\":573:602   */\n      swap1\n      pop\n        /* \"#utility.yul\":611:652   */\n      tag_199\n        /* \"#utility.yul\":646:651   */\n      dup2\n        /* \"#utility.yul\":611:652   */\n      tag_200\n      jump\t// in\n    tag_199:\n        /* \"#utility.yul\":563:658   */\n      swap3\n      swap2\n      pop\n      pop\n      jump\t// out\n        /* \"#utility.yul\":678:951   */\n    tag_201:\n      0x00\n        /* \"#utility.yul\":783:786   */\n      dup3\n        /* \"#utility.yul\":776:780   */\n      0x1f\n        /* \"#utility.yul\":768:774   */\n      dup4\n        /* \"#utility.yul\":764:781   */\n      add\n        /* \"#utility.yul\":760:787   */\n      slt\n        /* \"#utility.yul\":750:752   */\n      tag_203\n      jumpi\n        /* \"#utility.yul\":801:802   */\n      0x00\n        /* \"#utility.yul\":798:799   */\n      dup1\n        /* \"#utility.yul\":791:803   */\n      revert\n        /* \"#utility.yul\":750:752   */\n    tag_203:\n        /* \"#utility.yul\":841:847   */\n      dup2\n        /* \"#utility.yul\":828:848   */\n      calldataload\n        /* \"#utility.yul\":866:945   */\n      tag_204\n        /* \"#utility.yul\":941:944   */\n      dup5\n        /* \"#utility.yul\":933:939   */\n      dup3\n        /* \"#utility.yul\":926:930   */\n      0x20\n        /* \"#utility.yul\":918:924   */\n      dup7\n        /* \"#utility.yul\":914:931   */\n      add\n        /* \"#utility.yul\":866:945   */\n      tag_184\n      jump\t// in\n    tag_204:\n        /* \"#utility.yul\":857:945   */\n      swap2\n      pop\n        /* \"#utility.yul\":740:951   */\n      pop\n      swap3\n      swap2\n      pop\n      pop\n      jump\t// out\n        /* \"#utility.yul\":957:1096   */\n    tag_205:\n      0x00\n        /* \"#utility.yul\":1041:1047   */\n      dup2\n        /* \"#utility.yul\":1028:1048   */\n      calldataload\n        /* \"#utility.yul\":1019:1048   */\n      swap1\n      pop\n        /* \"#utility.yul\":1057:1090   */\n      tag_207\n        /* \"#utility.yul\":1084:1089   */\n      dup2\n        /* \"#utility.yul\":1057:1090   */\n      tag_208\n      jump\t// in\n    tag_207:\n        /* \"#utility.yul\":1009:1096   */\n      swap3\n      swap2\n      pop\n      pop\n      jump\t// out\n        /* \"#utility.yul\":1102:1364   */\n    tag_34:\n      0x00\n        /* \"#utility.yul\":1210:1212   */\n      0x20\n        /* \"#utility.yul\":1198:1207   */\n      dup3\n        /* \"#utility.yul\":1189:1196   */\n      dup5\n        /* \"#utility.yul\":1185:1208   */\n      sub\n        /* \"#utility.yul\":1181:1213   */\n      slt\n        /* \"#utility.yul\":1178:1180   */\n      iszero\n      tag_210\n      jumpi\n        /* \"#utility.yul\":1226:1227   */\n      0x00\n        /* \"#utility.yul\":1223:1224   */\n      dup1\n        /* \"#utility.yul\":1216:1228   */\n      revert\n        /* \"#utility.yul\":1178:1180   */\n    tag_210:\n        /* \"#utility.yul\":1269:1270   */\n      0x00\n        /* \"#utility.yul\":1294:1347   */\n      tag_211\n        /* \"#utility.yul\":1339:1346   */\n      dup5\n        /* \"#utility.yul\":1330:1336   */\n      dup3\n        /* \"#utility.yul\":1319:1328   */\n      dup6\n        /* \"#utility.yul\":1315:1337   */\n      add\n        /* \"#utility.yul\":1294:1347   */\n      tag_193\n      jump\t// in\n    tag_211:\n        /* \"#utility.yul\":1284:1347   */\n      swap2\n      pop\n        /* \"#utility.yul\":1240:1357   */\n      pop\n        /* \"#utility.yul\":1168:1364   */\n      swap3\n      swap2\n      pop\n      pop\n      jump\t// out\n        /* \"#utility.yul\":1370:2051   */\n    tag_77:\n      0x00\n      dup1\n      0x00\n        /* \"#utility.yul\":1530:1532   */\n      0x60\n        /* \"#utility.yul\":1518:1527   */\n      dup5\n        /* \"#utility.yul\":1509:1516   */\n      dup7\n        /* \"#utility.yul\":1505:1528   */\n      sub\n        /* \"#utility.yul\":1501:1533   */\n      slt\n        /* \"#utility.yul\":1498:1500   */\n      iszero\n      tag_213\n      jumpi\n        /* \"#utility.yul\":1546:1547   */\n      0x00\n        /* \"#utility.yul\":1543:1544   */\n      dup1\n        /* \"#utility.yul\":1536:1548   */\n      revert\n        /* \"#utility.yul\":1498:1500   */\n    tag_213:\n        /* \"#utility.yul\":1617:1618   */\n      0x00\n        /* \"#utility.yul\":1606:1615   */\n      dup5\n        /* \"#utility.yul\":1602:1619   */\n      add\n        /* \"#utility.yul\":1589:1620   */\n      calldataload\n        /* \"#utility.yul\":1647:1665   */\n      0xffffffffffffffff\n        /* \"#utility.yul\":1639:1645   */\n      dup2\n        /* \"#utility.yul\":1636:1666   */\n      gt\n        /* \"#utility.yul\":1633:1635   */\n      iszero\n      tag_214\n      jumpi\n        /* \"#utility.yul\":1679:1680   */\n      0x00\n        /* \"#utility.yul\":1676:1677   */\n      dup1\n        /* \"#utility.yul\":1669:1681   */\n      revert\n        /* \"#utility.yul\":1633:1635   */\n    tag_214:\n        /* \"#utility.yul\":1707:1770   */\n      tag_215\n        /* \"#utility.yul\":1762:1769   */\n      dup7\n        /* \"#utility.yul\":1753:1759   */\n      dup3\n        /* \"#utility.yul\":1742:1751   */\n      dup8\n        /* \"#utility.yul\":1738:1760   */\n      add\n        /* \"#utility.yul\":1707:1770   */\n      tag_201\n      jump\t// in\n    tag_215:\n        /* \"#utility.yul\":1697:1770   */\n      swap4\n      pop\n        /* \"#utility.yul\":1560:1780   */\n      pop\n        /* \"#utility.yul\":1819:1821   */\n      0x20\n        /* \"#utility.yul\":1845:1898   */\n      tag_216\n        /* \"#utility.yul\":1890:1897   */\n      dup7\n        /* \"#utility.yul\":1881:1887   */\n      dup3\n        /* \"#utility.yul\":1870:1879   */\n      dup8\n        /* \"#utility.yul\":1866:1888   */\n      add\n        /* \"#utility.yul\":1845:1898   */\n      tag_205\n      jump\t// in\n    tag_216:\n        /* \"#utility.yul\":1835:1898   */\n      swap3\n      pop\n        /* \"#utility.yul\":1790:1908   */\n      pop\n        /* \"#utility.yul\":1947:1949   */\n      0x40\n        /* \"#utility.yul\":1973:2034   */\n      tag_217\n        /* \"#utility.yul\":2026:2033   */\n      dup7\n        /* \"#utility.yul\":2017:2023   */\n      dup3\n        /* \"#utility.yul\":2006:2015   */\n      dup8\n        /* \"#utility.yul\":2002:2024   */\n      add\n        /* \"#utility.yul\":1973:2034   */\n      tag_197\n      jump\t// in\n    tag_217:\n        /* \"#utility.yul\":1963:2034   */\n      swap2\n      pop\n        /* \"#utility.yul\":1918:2044   */\n      pop\n        /* \"#utility.yul\":1488:2051   */\n      swap3\n      pop\n      swap3\n      pop\n      swap3\n      jump\t// out\n        /* \"#utility.yul\":2057:2319   */\n    tag_24:\n      0x00\n        /* \"#utility.yul\":2165:2167   */\n      0x20\n        /* \"#utility.yul\":2153:2162   */\n      dup3\n        /* \"#utility.yul\":2144:2151   */\n      dup5\n        /* \"#utility.yul\":2140:2163   */\n      sub\n        /* \"#utility.yul\":2136:2168   */\n      slt\n        /* \"#utility.yul\":2133:2135   */\n      iszero\n      tag_219\n      jumpi\n        /* \"#utility.yul\":2181:2182   */\n      0x00\n        /* \"#utility.yul\":2178:2179   */\n      dup1\n        /* \"#utility.yul\":2171:2183   */\n      revert\n        /* \"#utility.yul\":2133:2135   */\n    tag_219:\n        /* \"#utility.yul\":2224:2225   */\n      0x00\n        /* \"#utility.yul\":2249:2302   */\n      tag_220\n        /* \"#utility.yul\":2294:2301   */\n      dup5\n        /* \"#utility.yul\":2285:2291   */\n      dup3\n        /* \"#utility.yul\":2274:2283   */\n      dup6\n        /* \"#utility.yul\":2270:2292   */\n      add\n        /* \"#utility.yul\":2249:2302   */\n      tag_205\n      jump\t// in\n    tag_220:\n        /* \"#utility.yul\":2239:2302   */\n      swap2\n      pop\n        /* \"#utility.yul\":2195:2312   */\n      pop\n        /* \"#utility.yul\":2123:2319   */\n      swap3\n      swap2\n      pop\n      pop\n      jump\t// out\n        /* \"#utility.yul\":2325:2467   */\n    tag_221:\n        /* \"#utility.yul\":2428:2460   */\n      tag_223\n        /* \"#utility.yul\":2454:2459   */\n      dup2\n        /* \"#utility.yul\":2428:2460   */\n      tag_224\n      jump\t// in\n    tag_223:\n        /* \"#utility.yul\":2423:2426   */\n      dup3\n        /* \"#utility.yul\":2416:2461   */\n      mstore\n        /* \"#utility.yul\":2406:2467   */\n      pop\n      pop\n      jump\t// out\n        /* \"#utility.yul\":2473:2591   */\n    tag_225:\n        /* \"#utility.yul\":2560:2584   */\n      tag_227\n        /* \"#utility.yul\":2578:2583   */\n      dup2\n        /* \"#utility.yul\":2560:2584   */\n      tag_228\n      jump\t// in\n    tag_227:\n        /* \"#utility.yul\":2555:2558   */\n      dup3\n        /* \"#utility.yul\":2548:2585   */\n      mstore\n        /* \"#utility.yul\":2538:2591   */\n      pop\n      pop\n      jump\t// out\n        /* \"#utility.yul\":2597:2706   */\n    tag_229:\n        /* \"#utility.yul\":2678:2699   */\n      tag_231\n        /* \"#utility.yul\":2693:2698   */\n      dup2\n        /* \"#utility.yul\":2678:2699   */\n      tag_232\n      jump\t// in\n    tag_231:\n        /* \"#utility.yul\":2673:2676   */\n      dup3\n        /* \"#utility.yul\":2666:2700   */\n      mstore\n        /* \"#utility.yul\":2656:2706   */\n      pop\n      pop\n      jump\t// out\n        /* \"#utility.yul\":2712:3076   */\n    tag_233:\n      0x00\n        /* \"#utility.yul\":2828:2867   */\n      tag_235\n        /* \"#utility.yul\":2861:2866   */\n      dup3\n        /* \"#utility.yul\":2828:2867   */\n      tag_236\n      jump\t// in\n    tag_235:\n        /* \"#utility.yul\":2883:2954   */\n      tag_237\n        /* \"#utility.yul\":2947:2953   */\n      dup2\n        /* \"#utility.yul\":2942:2945   */\n      dup6\n        /* \"#utility.yul\":2883:2954   */\n      tag_238\n      jump\t// in\n    tag_237:\n        /* \"#utility.yul\":2876:2954   */\n      swap4\n      pop\n        /* \"#utility.yul\":2963:3015   */\n      tag_239\n        /* \"#utility.yul\":3008:3014   */\n      dup2\n        /* \"#utility.yul\":3003:3006   */\n      dup6\n        /* \"#utility.yul\":2996:3000   */\n      0x20\n        /* \"#utility.yul\":2989:2994   */\n      dup7\n        /* \"#utility.yul\":2985:3001   */\n      add\n        /* \"#utility.yul\":2963:3015   */\n      tag_240\n      jump\t// in\n    tag_239:\n        /* \"#utility.yul\":3040:3069   */\n      tag_241\n        /* \"#utility.yul\":3062:3068   */\n      dup2\n        /* \"#utility.yul\":3040:3069   */\n      tag_242\n      jump\t// in\n    tag_241:\n        /* \"#utility.yul\":3035:3038   */\n      dup5\n        /* \"#utility.yul\":3031:3070   */\n      add\n        /* \"#utility.yul\":3024:3070   */\n      swap2\n      pop\n        /* \"#utility.yul\":2804:3076   */\n      pop\n      swap3\n      swap2\n      pop\n      pop\n      jump\t// out\n        /* \"#utility.yul\":3082:3200   */\n    tag_243:\n        /* \"#utility.yul\":3169:3193   */\n      tag_245\n        /* \"#utility.yul\":3187:3192   */\n      dup2\n        /* \"#utility.yul\":3169:3193   */\n      tag_246\n      jump\t// in\n    tag_245:\n        /* \"#utility.yul\":3164:3167   */\n      dup3\n        /* \"#utility.yul\":3157:3194   */\n      mstore\n        /* \"#utility.yul\":3147:3200   */\n      pop\n      pop\n      jump\t// out\n        /* \"#utility.yul\":3206:3428   */\n    tag_55:\n      0x00\n        /* \"#utility.yul\":3337:3339   */\n      0x20\n        /* \"#utility.yul\":3326:3335   */\n      dup3\n        /* \"#utility.yul\":3322:3340   */\n      add\n        /* \"#utility.yul\":3314:3340   */\n      swap1\n      pop\n        /* \"#utility.yul\":3350:3421   */\n      tag_248\n        /* \"#utility.yul\":3418:3419   */\n      0x00\n        /* \"#utility.yul\":3407:3416   */\n      dup4\n        /* \"#utility.yul\":3403:3420   */\n      add\n        /* \"#utility.yul\":3394:3400   */\n      dup5\n        /* \"#utility.yul\":3350:3421   */\n      tag_225\n      jump\t// in\n    tag_248:\n        /* \"#utility.yul\":3304:3428   */\n      swap3\n      swap2\n      pop\n      pop\n      jump\t// out\n        /* \"#utility.yul\":3434:3747   */\n    tag_30:\n      0x00\n        /* \"#utility.yul\":3585:3587   */\n      0x20\n        /* \"#utility.yul\":3574:3583   */\n      dup3\n        /* \"#utility.yul\":3570:3588   */\n      add\n        /* \"#utility.yul\":3562:3588   */\n      swap1\n      pop\n        /* \"#utility.yul\":3634:3643   */\n      dup2\n        /* \"#utility.yul\":3628:3632   */\n      dup2\n        /* \"#utility.yul\":3624:3644   */\n      sub\n        /* \"#utility.yul\":3620:3621   */\n      0x00\n        /* \"#utility.yul\":3609:3618   */\n      dup4\n        /* \"#utility.yul\":3605:3622   */\n      add\n        /* \"#utility.yul\":3598:3645   */\n      mstore\n        /* \"#utility.yul\":3662:3740   */\n      tag_250\n        /* \"#utility.yul\":3735:3739   */\n      dup2\n        /* \"#utility.yul\":3726:3732   */\n      dup5\n        /* \"#utility.yul\":3662:3740   */\n      tag_233\n      jump\t// in\n    tag_250:\n        /* \"#utility.yul\":3654:3740   */\n      swap1\n      pop\n        /* \"#utility.yul\":3552:3747   */\n      swap3\n      swap2\n      pop\n      pop\n      jump\t// out\n        /* \"#utility.yul\":3753:5336   */\n    tag_50:\n      0x00\n        /* \"#utility.yul\":4216:4219   */\n      0x0140\n        /* \"#utility.yul\":4205:4214   */\n      dup3\n        /* \"#utility.yul\":4201:4220   */\n      add\n        /* \"#utility.yul\":4193:4220   */\n      swap1\n      pop\n        /* \"#utility.yul\":4266:4275   */\n      dup2\n        /* \"#utility.yul\":4260:4264   */\n      dup2\n        /* \"#utility.yul\":4256:4276   */\n      sub\n        /* \"#utility.yul\":4252:4253   */\n      0x00\n        /* \"#utility.yul\":4241:4250   */\n      dup4\n        /* \"#utility.yul\":4237:4254   */\n      add\n        /* \"#utility.yul\":4230:4277   */\n      mstore\n        /* \"#utility.yul\":4294:4372   */\n      tag_252\n        /* \"#utility.yul\":4367:4371   */\n      dup2\n        /* \"#utility.yul\":4358:4364   */\n      dup14\n        /* \"#utility.yul\":4294:4372   */\n      tag_233\n      jump\t// in\n    tag_252:\n        /* \"#utility.yul\":4286:4372   */\n      swap1\n      pop\n        /* \"#utility.yul\":4419:4428   */\n      dup2\n        /* \"#utility.yul\":4413:4417   */\n      dup2\n        /* \"#utility.yul\":4409:4429   */\n      sub\n        /* \"#utility.yul\":4404:4406   */\n      0x20\n        /* \"#utility.yul\":4393:4402   */\n      dup4\n        /* \"#utility.yul\":4389:4407   */\n      add\n        /* \"#utility.yul\":4382:4430   */\n      mstore\n        /* \"#utility.yul\":4447:4525   */\n      tag_253\n        /* \"#utility.yul\":4520:4524   */\n      dup2\n        /* \"#utility.yul\":4511:4517   */\n      dup13\n        /* \"#utility.yul\":4447:4525   */\n      tag_233\n      jump\t// in\n    tag_253:\n        /* \"#utility.yul\":4439:4525   */\n      swap1\n      pop\n        /* \"#utility.yul\":4572:4581   */\n      dup2\n        /* \"#utility.yul\":4566:4570   */\n      dup2\n        /* \"#utility.yul\":4562:4582   */\n      sub\n        /* \"#utility.yul\":4557:4559   */\n      0x40\n        /* \"#utility.yul\":4546:4555   */\n      dup4\n        /* \"#utility.yul\":4542:4560   */\n      add\n        /* \"#utility.yul\":4535:4583   */\n      mstore\n        /* \"#utility.yul\":4600:4678   */\n      tag_254\n        /* \"#utility.yul\":4673:4677   */\n      dup2\n        /* \"#utility.yul\":4664:4670   */\n      dup12\n        /* \"#utility.yul\":4600:4678   */\n      tag_233\n      jump\t// in\n    tag_254:\n        /* \"#utility.yul\":4592:4678   */\n      swap1\n      pop\n        /* \"#utility.yul\":4725:4734   */\n      dup2\n        /* \"#utility.yul\":4719:4723   */\n      dup2\n        /* \"#utility.yul\":4715:4735   */\n      sub\n        /* \"#utility.yul\":4710:4712   */\n      0x60\n        /* \"#utility.yul\":4699:4708   */\n      dup4\n        /* \"#utility.yul\":4695:4713   */\n      add\n        /* \"#utility.yul\":4688:4736   */\n      mstore\n        /* \"#utility.yul\":4753:4831   */\n      tag_255\n        /* \"#utility.yul\":4826:4830   */\n      dup2\n        /* \"#utility.yul\":4817:4823   */\n      dup11\n        /* \"#utility.yul\":4753:4831   */\n      tag_233\n      jump\t// in\n    tag_255:\n        /* \"#utility.yul\":4745:4831   */\n      swap1\n      pop\n        /* \"#utility.yul\":4841:4914   */\n      tag_256\n        /* \"#utility.yul\":4909:4912   */\n      0x80\n        /* \"#utility.yul\":4898:4907   */\n      dup4\n        /* \"#utility.yul\":4894:4913   */\n      add\n        /* \"#utility.yul\":4885:4891   */\n      dup10\n        /* \"#utility.yul\":4841:4914   */\n      tag_243\n      jump\t// in\n    tag_256:\n        /* \"#utility.yul\":4924:4997   */\n      tag_257\n        /* \"#utility.yul\":4992:4995   */\n      0xa0\n        /* \"#utility.yul\":4981:4990   */\n      dup4\n        /* \"#utility.yul\":4977:4996   */\n      add\n        /* \"#utility.yul\":4968:4974   */\n      dup9\n        /* \"#utility.yul\":4924:4997   */\n      tag_243\n      jump\t// in\n    tag_257:\n        /* \"#utility.yul\":5007:5080   */\n      tag_258\n        /* \"#utility.yul\":5075:5078   */\n      0xc0\n        /* \"#utility.yul\":5064:5073   */\n      dup4\n        /* \"#utility.yul\":5060:5079   */\n      add\n        /* \"#utility.yul\":5051:5057   */\n      dup8\n        /* \"#utility.yul\":5007:5080   */\n      tag_243\n      jump\t// in\n    tag_258:\n        /* \"#utility.yul\":5090:5163   */\n      tag_259\n        /* \"#utility.yul\":5158:5161   */\n      0xe0\n        /* \"#utility.yul\":5147:5156   */\n      dup4\n        /* \"#utility.yul\":5143:5162   */\n      add\n        /* \"#utility.yul\":5134:5140   */\n      dup7\n        /* \"#utility.yul\":5090:5163   */\n      tag_243\n      jump\t// in\n    tag_259:\n        /* \"#utility.yul\":5173:5246   */\n      tag_260\n        /* \"#utility.yul\":5241:5244   */\n      0x0100\n        /* \"#utility.yul\":5230:5239   */\n      dup4\n        /* \"#utility.yul\":5226:5245   */\n      add\n        /* \"#utility.yul\":5217:5223   */\n      dup6\n        /* \"#utility.yul\":5173:5246   */\n      tag_225\n      jump\t// in\n    tag_260:\n        /* \"#utility.yul\":5256:5329   */\n      tag_261\n        /* \"#utility.yul\":5324:5327   */\n      0x0120\n        /* \"#utility.yul\":5313:5322   */\n      dup4\n        /* \"#utility.yul\":5309:5328   */\n      add\n        /* \"#utility.yul\":5300:5306   */\n      dup5\n        /* \"#utility.yul\":5256:5329   */\n      tag_225\n      jump\t// in\n    tag_261:\n        /* \"#utility.yul\":4183:5336   */\n      swap12\n      swap11\n      pop\n      pop\n      pop\n      pop\n      pop\n      pop\n      pop\n      pop\n      pop\n      pop\n      pop\n      jump\t// out\n        /* \"#utility.yul\":5342:6117   */\n    tag_73:\n      0x00\n        /* \"#utility.yul\":5615:5618   */\n      0xa0\n        /* \"#utility.yul\":5604:5613   */\n      dup3\n        /* \"#utility.yul\":5600:5619   */\n      add\n        /* \"#utility.yul\":5592:5619   */\n      swap1\n      pop\n        /* \"#utility.yul\":5665:5674   */\n      dup2\n        /* \"#utility.yul\":5659:5663   */\n      dup2\n        /* \"#utility.yul\":5655:5675   */\n      sub\n        /* \"#utility.yul\":5651:5652   */\n      0x00\n        /* \"#utility.yul\":5640:5649   */\n      dup4\n        /* \"#utility.yul\":5636:5653   */\n      add\n        /* \"#utility.yul\":5629:5676   */\n      mstore\n        /* \"#utility.yul\":5693:5771   */\n      tag_263\n        /* \"#utility.yul\":5766:5770   */\n      dup2\n        /* \"#utility.yul\":5757:5763   */\n      dup9\n        /* \"#utility.yul\":5693:5771   */\n      tag_233\n      jump\t// in\n    tag_263:\n        /* \"#utility.yul\":5685:5771   */\n      swap1\n      pop\n        /* \"#utility.yul\":5781:5853   */\n      tag_264\n        /* \"#utility.yul\":5849:5851   */\n      0x20\n        /* \"#utility.yul\":5838:5847   */\n      dup4\n        /* \"#utility.yul\":5834:5852   */\n      add\n        /* \"#utility.yul\":5825:5831   */\n      dup8\n        /* \"#utility.yul\":5781:5853   */\n      tag_243\n      jump\t// in\n    tag_264:\n        /* \"#utility.yul\":5863:5951   */\n      tag_265\n        /* \"#utility.yul\":5947:5949   */\n      0x40\n        /* \"#utility.yul\":5936:5945   */\n      dup4\n        /* \"#utility.yul\":5932:5950   */\n      add\n        /* \"#utility.yul\":5923:5929   */\n      dup7\n        /* \"#utility.yul\":5863:5951   */\n      tag_221\n      jump\t// in\n    tag_265:\n        /* \"#utility.yul\":5961:6027   */\n      tag_266\n        /* \"#utility.yul\":6023:6025   */\n      0x60\n        /* \"#utility.yul\":6012:6021   */\n      dup4\n        /* \"#utility.yul\":6008:6026   */\n      add\n        /* \"#utility.yul\":5999:6005   */\n      dup6\n        /* \"#utility.yul\":5961:6027   */\n      tag_229\n      jump\t// in\n    tag_266:\n        /* \"#utility.yul\":6037:6110   */\n      tag_267\n        /* \"#utility.yul\":6105:6108   */\n      0x80\n        /* \"#utility.yul\":6094:6103   */\n      dup4\n        /* \"#utility.yul\":6090:6109   */\n      add\n        /* \"#utility.yul\":6081:6087   */\n      dup5\n        /* \"#utility.yul\":6037:6110   */\n      tag_243\n      jump\t// in\n    tag_267:\n        /* \"#utility.yul\":5582:6117   */\n      swap7\n      swap6\n      pop\n      pop\n      pop\n      pop\n      pop\n      pop\n      jump\t// out\n        /* \"#utility.yul\":6123:6345   */\n    tag_37:\n      0x00\n        /* \"#utility.yul\":6254:6256   */\n      0x20\n        /* \"#utility.yul\":6243:6252   */\n      dup3\n        /* \"#utility.yul\":6239:6257   */\n      add\n        /* \"#utility.yul\":6231:6257   */\n      swap1\n      pop\n        /* \"#utility.yul\":6267:6338   */\n      tag_269\n        /* \"#utility.yul\":6335:6336   */\n      0x00\n        /* \"#utility.yul\":6324:6333   */\n      dup4\n        /* \"#utility.yul\":6320:6337   */\n      add\n        /* \"#utility.yul\":6311:6317   */\n      dup5\n        /* \"#utility.yul\":6267:6338   */\n      tag_243\n      jump\t// in\n    tag_269:\n        /* \"#utility.yul\":6221:6345   */\n      swap3\n      swap2\n      pop\n      pop\n      jump\t// out\n        /* \"#utility.yul\":6351:6480   */\n    tag_189:\n      0x00\n        /* \"#utility.yul\":6412:6432   */\n      tag_271\n      tag_272\n      jump\t// in\n    tag_271:\n        /* \"#utility.yul\":6402:6432   */\n      swap1\n      pop\n        /* \"#utility.yul\":6441:6474   */\n      tag_273\n        /* \"#utility.yul\":6469:6473   */\n      dup3\n        /* \"#utility.yul\":6461:6467   */\n      dup3\n        /* \"#utility.yul\":6441:6474   */\n      tag_274\n      jump\t// in\n    tag_273:\n        /* \"#utility.yul\":6392:6480   */\n      swap2\n      swap1\n      pop\n      jump\t// out\n        /* \"#utility.yul\":6486:6561   */\n    tag_272:\n      0x00\n        /* \"#utility.yul\":6552:6554   */\n      0x40\n        /* \"#utility.yul\":6546:6555   */\n      mload\n        /* \"#utility.yul\":6536:6555   */\n      swap1\n      pop\n        /* \"#utility.yul\":6526:6561   */\n      swap1\n      jump\t// out\n        /* \"#utility.yul\":6567:6875   */\n    tag_188:\n      0x00\n        /* \"#utility.yul\":6719:6737   */\n      0xffffffffffffffff\n        /* \"#utility.yul\":6711:6717   */\n      dup3\n        /* \"#utility.yul\":6708:6738   */\n      gt\n        /* \"#utility.yul\":6705:6707   */\n      iszero\n      tag_277\n      jumpi\n        /* \"#utility.yul\":6741:6759   */\n      tag_278\n      tag_279\n      jump\t// in\n    tag_278:\n        /* \"#utility.yul\":6705:6707   */\n    tag_277:\n        /* \"#utility.yul\":6779:6808   */\n      tag_280\n        /* \"#utility.yul\":6801:6807   */\n      dup3\n        /* \"#utility.yul\":6779:6808   */\n      tag_242\n      jump\t// in\n    tag_280:\n        /* \"#utility.yul\":6771:6808   */\n      swap1\n      pop\n        /* \"#utility.yul\":6863:6867   */\n      0x20\n        /* \"#utility.yul\":6857:6861   */\n      dup2\n        /* \"#utility.yul\":6853:6868   */\n      add\n        /* \"#utility.yul\":6845:6868   */\n      swap1\n      pop\n        /* \"#utility.yul\":6634:6875   */\n      swap2\n      swap1\n      pop\n      jump\t// out\n        /* \"#utility.yul\":6881:6980   */\n    tag_236:\n      0x00\n        /* \"#utility.yul\":6967:6972   */\n      dup2\n        /* \"#utility.yul\":6961:6973   */\n      mload\n        /* \"#utility.yul\":6951:6973   */\n      swap1\n      pop\n        /* \"#utility.yul\":6940:6980   */\n      swap2\n      swap1\n      pop\n      jump\t// out\n        /* \"#utility.yul\":6986:7155   */\n    tag_238:\n      0x00\n        /* \"#utility.yul\":7104:7110   */\n      dup3\n        /* \"#utility.yul\":7099:7102   */\n      dup3\n        /* \"#utility.yul\":7092:7111   */\n      mstore\n        /* \"#utility.yul\":7144:7148   */\n      0x20\n        /* \"#utility.yul\":7139:7142   */\n      dup3\n        /* \"#utility.yul\":7135:7149   */\n      add\n        /* \"#utility.yul\":7120:7149   */\n      swap1\n      pop\n        /* \"#utility.yul\":7082:7155   */\n      swap3\n      swap2\n      pop\n      pop\n      jump\t// out\n        /* \"#utility.yul\":7161:7466   */\n    tag_162:\n      0x00\n        /* \"#utility.yul\":7220:7240   */\n      tag_284\n        /* \"#utility.yul\":7238:7239   */\n      dup3\n        /* \"#utility.yul\":7220:7240   */\n      tag_246\n      jump\t// in\n    tag_284:\n        /* \"#utility.yul\":7215:7240   */\n      swap2\n      pop\n        /* \"#utility.yul\":7254:7274   */\n      tag_285\n        /* \"#utility.yul\":7272:7273   */\n      dup4\n        /* \"#utility.yul\":7254:7274   */\n      tag_246\n      jump\t// in\n    tag_285:\n        /* \"#utility.yul\":7249:7274   */\n      swap3\n      pop\n        /* \"#utility.yul\":7408:7409   */\n      dup3\n        /* \"#utility.yul\":7340:7406   */\n      0xffffffffffffffffffffffffffffffffffffffffffffffffffffffffffffffff\n        /* \"#utility.yul\":7336:7410   */\n      sub\n        /* \"#utility.yul\":7333:7334   */\n      dup3\n        /* \"#utility.yul\":7330:7411   */\n      gt\n        /* \"#utility.yul\":7327:7329   */\n      iszero\n      tag_286\n      jumpi\n        /* \"#utility.yul\":7414:7432   */\n      tag_287\n      tag_288\n      jump\t// in\n    tag_287:\n        /* \"#utility.yul\":7327:7329   */\n    tag_286:\n        /* \"#utility.yul\":7458:7459   */\n      dup3\n        /* \"#utility.yul\":7455:7456   */\n      dup3\n        /* \"#utility.yul\":7451:7460   */\n      add\n        /* \"#utility.yul\":7444:7460   */\n      swap1\n      pop\n        /* \"#utility.yul\":7205:7466   */\n      swap3\n      swap2\n      pop\n      pop\n      jump\t// out\n        /* \"#utility.yul\":7472:7657   */\n    tag_97:\n      0x00\n        /* \"#utility.yul\":7529:7549   */\n      tag_290\n        /* \"#utility.yul\":7547:7548   */\n      dup3\n        /* \"#utility.yul\":7529:7549   */\n      tag_246\n      jump\t// in\n    tag_290:\n        /* \"#utility.yul\":7524:7549   */\n      swap2\n      pop\n        /* \"#utility.yul\":7563:7583   */\n      tag_291\n        /* \"#utility.yul\":7581:7582   */\n      dup4\n        /* \"#utility.yul\":7563:7583   */\n      tag_246\n      jump\t// in\n    tag_291:\n        /* \"#utility.yul\":7558:7583   */\n      swap3\n      pop\n        /* \"#utility.yul\":7602:7603   */\n      dup3\n        /* \"#utility.yul\":7592:7594   */\n      tag_292\n      jumpi\n        /* \"#utility.yul\":7607:7625   */\n      tag_293\n      tag_294\n      jump\t// in\n    tag_293:\n        /* \"#utility.yul\":7592:7594   */\n    tag_292:\n        /* \"#utility.yul\":7649:7650   */\n      dup3\n        /* \"#utility.yul\":7646:7647   */\n      dup3\n        /* \"#utility.yul\":7642:7651   */\n      div\n        /* \"#utility.yul\":7637:7651   */\n      swap1\n      pop\n        /* \"#utility.yul\":7514:7657   */\n      swap3\n      swap2\n      pop\n      pop\n      jump\t// out\n        /* \"#utility.yul\":7663:7759   */\n    tag_228:\n      0x00\n        /* \"#utility.yul\":7729:7753   */\n      tag_296\n        /* \"#utility.yul\":7747:7752   */\n      dup3\n        /* \"#utility.yul\":7729:7753   */\n      tag_297\n      jump\t// in\n    tag_296:\n        /* \"#utility.yul\":7718:7753   */\n      swap1\n      pop\n        /* \"#utility.yul\":7708:7759   */\n      swap2\n      swap1\n      pop\n      jump\t// out\n        /* \"#utility.yul\":7765:7869   */\n    tag_224:\n      0x00\n        /* \"#utility.yul\":7839:7863   */\n      tag_299\n        /* \"#utility.yul\":7857:7862   */\n      dup3\n        /* \"#utility.yul\":7839:7863   */\n      tag_297\n      jump\t// in\n    tag_299:\n        /* \"#utility.yul\":7828:7863   */\n      swap1\n      pop\n        /* \"#utility.yul\":7818:7869   */\n      swap2\n      swap1\n      pop\n      jump\t// out\n        /* \"#utility.yul\":7875:7965   */\n    tag_232:\n      0x00\n        /* \"#utility.yul\":7952:7957   */\n      dup2\n        /* \"#utility.yul\":7945:7958   */\n      iszero\n        /* \"#utility.yul\":7938:7959   */\n      iszero\n        /* \"#utility.yul\":7927:7959   */\n      swap1\n      pop\n        /* \"#utility.yul\":7917:7965   */\n      swap2\n      swap1\n      pop\n      jump\t// out\n        /* \"#utility.yul\":7971:8097   */\n    tag_297:\n      0x00\n        /* \"#utility.yul\":8048:8090   */\n      0xffffffffffffffffffffffffffffffffffffffff\n        /* \"#utility.yul\":8041:8046   */\n      dup3\n        /* \"#utility.yul\":8037:8091   */\n      and\n        /* \"#utility.yul\":8026:8091   */\n      swap1\n      pop\n        /* \"#utility.yul\":8016:8097   */\n      swap2\n      swap1\n      pop\n      jump\t// out\n        /* \"#utility.yul\":8103:8180   */\n    tag_246:\n      0x00\n        /* \"#utility.yul\":8169:8174   */\n      dup2\n        /* \"#utility.yul\":8158:8174   */\n      swap1\n      pop\n        /* \"#utility.yul\":8148:8180   */\n      swap2\n      swap1\n      pop\n      jump\t// out\n        /* \"#utility.yul\":8186:8340   */\n    tag_192:\n        /* \"#utility.yul\":8270:8276   */\n      dup3\n        /* \"#utility.yul\":8265:8268   */\n      dup2\n        /* \"#utility.yul\":8260:8263   */\n      dup4\n        /* \"#utility.yul\":8247:8277   */\n      calldatacopy\n        /* \"#utility.yul\":8332:8333   */\n      0x00\n        /* \"#utility.yul\":8323:8329   */\n      dup4\n        /* \"#utility.yul\":8318:8321   */\n      dup4\n        /* \"#utility.yul\":8314:8330   */\n      add\n        /* \"#utility.yul\":8307:8334   */\n      mstore\n        /* \"#utility.yul\":8237:8340   */\n      pop\n      pop\n      pop\n      jump\t// out\n        /* \"#utility.yul\":8346:8653   */\n    tag_240:\n        /* \"#utility.yul\":8414:8415   */\n      0x00\n        /* \"#utility.yul\":8424:8537   */\n    tag_305:\n        /* \"#utility.yul\":8438:8444   */\n      dup4\n        /* \"#utility.yul\":8435:8436   */\n      dup2\n        /* \"#utility.yul\":8432:8445   */\n      lt\n        /* \"#utility.yul\":8424:8537   */\n      iszero\n      tag_307\n      jumpi\n        /* \"#utility.yul\":8523:8524   */\n      dup1\n        /* \"#utility.yul\":8518:8521   */\n      dup3\n        /* \"#utility.yul\":8514:8525   */\n      add\n        /* \"#utility.yul\":8508:8526   */\n      mload\n        /* \"#utility.yul\":8504:8505   */\n      dup2\n        /* \"#utility.yul\":8499:8502   */\n      dup5\n        /* \"#utility.yul\":8495:8506   */\n      add\n        /* \"#utility.yul\":8488:8527   */\n      mstore\n        /* \"#utility.yul\":8460:8462   */\n      0x20\n        /* \"#utility.yul\":8457:8458   */\n      dup2\n        /* \"#utility.yul\":8453:8463   */\n      add\n        /* \"#utility.yul\":8448:8463   */\n      swap1\n      pop\n        /* \"#utility.yul\":8424:8537   */\n      jump(tag_305)\n    tag_307:\n        /* \"#utility.yul\":8555:8561   */\n      dup4\n        /* \"#utility.yul\":8552:8553   */\n      dup2\n        /* \"#utility.yul\":8549:8562   */\n      gt\n        /* \"#utility.yul\":8546:8548   */\n      iszero\n      tag_308\n      jumpi\n        /* \"#utility.yul\":8635:8636   */\n      0x00\n        /* \"#utility.yul\":8626:8632   */\n      dup5\n        /* \"#utility.yul\":8621:8624   */\n      dup5\n        /* \"#utility.yul\":8617:8633   */\n      add\n        /* \"#utility.yul\":8610:8637   */\n      mstore\n        /* \"#utility.yul\":8546:8548   */\n    tag_308:\n        /* \"#utility.yul\":8395:8653   */\n      pop\n      pop\n      pop\n      pop\n      jump\t// out\n        /* \"#utility.yul\":8659:8979   */\n    tag_103:\n      0x00\n        /* \"#utility.yul\":8740:8741   */\n      0x02\n        /* \"#utility.yul\":8734:8738   */\n      dup3\n        /* \"#utility.yul\":8730:8742   */\n      div\n        /* \"#utility.yul\":8720:8742   */\n      swap1\n      pop\n        /* \"#utility.yul\":8787:8788   */\n      0x01\n        /* \"#utility.yul\":8781:8785   */\n      dup3\n        /* \"#utility.yul\":8777:8789   */\n      and\n        /* \"#utility.yul\":8808:8826   */\n      dup1\n        /* \"#utility.yul\":8798:8800   */\n      tag_310\n      jumpi\n        /* \"#utility.yul\":8864:8868   */\n      0x7f\n        /* \"#utility.yul\":8856:8862   */\n      dup3\n        /* \"#utility.yul\":8852:8869   */\n      and\n        /* \"#utility.yul\":8842:8869   */\n      swap2\n      pop\n        /* \"#utility.yul\":8798:8800   */\n    tag_310:\n        /* \"#utility.yul\":8926:8928   */\n      0x20\n        /* \"#utility.yul\":8918:8924   */\n      dup3\n        /* \"#utility.yul\":8915:8929   */\n      lt\n        /* \"#utility.yul\":8895:8913   */\n      dup2\n        /* \"#utility.yul\":8892:8930   */\n      eq\n        /* \"#utility.yul\":8889:8891   */\n      iszero\n      tag_311\n      jumpi\n        /* \"#utility.yul\":8945:8963   */\n      tag_312\n      tag_313\n      jump\t// in\n    tag_312:\n        /* \"#utility.yul\":8889:8891   */\n    tag_311:\n        /* \"#utility.yul\":8710:8979   */\n      pop\n      swap2\n      swap1\n      pop\n      jump\t// out\n        /* \"#utility.yul\":8985:9266   */\n    tag_274:\n        /* \"#utility.yul\":9068:9095   */\n      tag_315\n        /* \"#utility.yul\":9090:9094   */\n      dup3\n        /* \"#utility.yul\":9068:9095   */\n      tag_242\n      jump\t// in\n    tag_315:\n        /* \"#utility.yul\":9060:9066   */\n      dup2\n        /* \"#utility.yul\":9056:9096   */\n      add\n        /* \"#utility.yul\":9198:9204   */\n      dup2\n        /* \"#utility.yul\":9186:9196   */\n      dup2\n        /* \"#utility.yul\":9183:9205   */\n      lt\n        /* \"#utility.yul\":9162:9180   */\n      0xffffffffffffffff\n        /* \"#utility.yul\":9150:9160   */\n      dup3\n        /* \"#utility.yul\":9147:9181   */\n      gt\n        /* \"#utility.yul\":9144:9206   */\n      or\n        /* \"#utility.yul\":9141:9143   */\n      iszero\n      tag_316\n      jumpi\n        /* \"#utility.yul\":9209:9227   */\n      tag_317\n      tag_279\n      jump\t// in\n    tag_317:\n        /* \"#utility.yul\":9141:9143   */\n    tag_316:\n        /* \"#utility.yul\":9249:9259   */\n      dup1\n        /* \"#utility.yul\":9245:9247   */\n      0x40\n        /* \"#utility.yul\":9238:9260   */\n      mstore\n        /* \"#utility.yul\":9028:9266   */\n      pop\n      pop\n      pop\n      jump\t// out\n        /* \"#utility.yul\":9272:9505   */\n    tag_148:\n      0x00\n        /* \"#utility.yul\":9334:9358   */\n      tag_319\n        /* \"#utility.yul\":9352:9357   */\n      dup3\n        /* \"#utility.yul\":9334:9358   */\n      tag_246\n      jump\t// in\n    tag_319:\n        /* \"#utility.yul\":9325:9358   */\n      swap2\n      pop\n        /* \"#utility.yul\":9380:9446   */\n      0xffffffffffffffffffffffffffffffffffffffffffffffffffffffffffffffff\n        /* \"#utility.yul\":9373:9378   */\n      dup3\n        /* \"#utility.yul\":9370:9447   */\n      eq\n        /* \"#utility.yul\":9367:9369   */\n      iszero\n      tag_320\n      jumpi\n        /* \"#utility.yul\":9450:9468   */\n      tag_321\n      tag_288\n      jump\t// in\n    tag_321:\n        /* \"#utility.yul\":9367:9369   */\n    tag_320:\n        /* \"#utility.yul\":9497:9498   */\n      0x01\n        /* \"#utility.yul\":9490:9495   */\n      dup3\n        /* \"#utility.yul\":9486:9499   */\n      add\n        /* \"#utility.yul\":9479:9499   */\n      swap1\n      pop\n        /* \"#utility.yul\":9315:9505   */\n      swap2\n      swap1\n      pop\n      jump\t// out\n        /* \"#utility.yul\":9511:9687   */\n    tag_165:\n      0x00\n        /* \"#utility.yul\":9560:9580   */\n      tag_323\n        /* \"#utility.yul\":9578:9579   */\n      dup3\n        /* \"#utility.yul\":9560:9580   */\n      tag_246\n      jump\t// in\n    tag_323:\n        /* \"#utility.yul\":9555:9580   */\n      swap2\n      pop\n        /* \"#utility.yul\":9594:9614   */\n      tag_324\n        /* \"#utility.yul\":9612:9613   */\n      dup4\n        /* \"#utility.yul\":9594:9614   */\n      tag_246\n      jump\t// in\n    tag_324:\n        /* \"#utility.yul\":9589:9614   */\n      swap3\n      pop\n        /* \"#utility.yul\":9633:9634   */\n      dup3\n        /* \"#utility.yul\":9623:9625   */\n      tag_325\n      jumpi\n        /* \"#utility.yul\":9638:9656   */\n      tag_326\n      tag_294\n      jump\t// in\n    tag_326:\n        /* \"#utility.yul\":9623:9625   */\n    tag_325:\n        /* \"#utility.yul\":9679:9680   */\n      dup3\n        /* \"#utility.yul\":9676:9677   */\n      dup3\n        /* \"#utility.yul\":9672:9681   */\n      mod\n        /* \"#utility.yul\":9667:9681   */\n      swap1\n      pop\n        /* \"#utility.yul\":9545:9687   */\n      swap3\n      swap2\n      pop\n      pop\n      jump\t// out\n        /* \"#utility.yul\":9693:9873   */\n    tag_288:\n        /* \"#utility.yul\":9741:9818   */\n      0x4e487b7100000000000000000000000000000000000000000000000000000000\n        /* \"#utility.yul\":9738:9739   */\n      0x00\n        /* \"#utility.yul\":9731:9819   */\n      mstore\n        /* \"#utility.yul\":9838:9842   */\n      0x11\n        /* \"#utility.yul\":9835:9836   */\n      0x04\n        /* \"#utility.yul\":9828:9843   */\n      mstore\n        /* \"#utility.yul\":9862:9866   */\n      0x24\n        /* \"#utility.yul\":9859:9860   */\n      0x00\n        /* \"#utility.yul\":9852:9867   */\n      revert\n        /* \"#utility.yul\":9879:10059   */\n    tag_294:\n        /* \"#utility.yul\":9927:10004   */\n      0x4e487b7100000000000000000000000000000000000000000000000000000000\n        /* \"#utility.yul\":9924:9925   */\n      0x00\n        /* \"#utility.yul\":9917:10005   */\n      mstore\n        /* \"#utility.yul\":10024:10028   */\n      0x12\n        /* \"#utility.yul\":10021:10022   */\n      0x04\n        /* \"#utility.yul\":10014:10029   */\n      mstore\n        /* \"#utility.yul\":10048:10052   */\n      0x24\n        /* \"#utility.yul\":10045:10046   */\n      0x00\n        /* \"#utility.yul\":10038:10053   */\n      revert\n        /* \"#utility.yul\":10065:10245   */\n    tag_313:\n        /* \"#utility.yul\":10113:10190   */\n      0x4e487b7100000000000000000000000000000000000000000000000000000000\n        /* \"#utility.yul\":10110:10111   */\n      0x00\n        /* \"#utility.yul\":10103:10191   */\n      mstore\n        /* \"#utility.yul\":10210:10214   */\n      0x22\n        /* \"#utility.yul\":10207:10208   */\n      0x04\n        /* \"#utility.yul\":10200:10215   */\n      mstore\n        /* \"#utility.yul\":10234:10238   */\n      0x24\n        /* \"#utility.yul\":10231:10232   */\n      0x00\n        /* \"#utility.yul\":10224:10239   */\n      revert\n        /* \"#utility.yul\":10251:10431   */\n    tag_279:\n        /* \"#utility.yul\":10299:10376   */\n      0x4e487b7100000000000000000000000000000000000000000000000000000000\n        /* \"#utility.yul\":10296:10297   */\n      0x00\n        /* \"#utility.yul\":10289:10377   */\n      mstore\n        /* \"#utility.yul\":10396:10400   */\n      0x41\n        /* \"#utility.yul\":10393:10394   */\n      0x04\n        /* \"#utility.yul\":10386:10401   */\n      mstore\n        /* \"#utility.yul\":10420:10424   */\n      0x24\n        /* \"#utility.yul\":10417:10418   */\n      0x00\n        /* \"#utility.yul\":10410:10425   */\n      revert\n        /* \"#utility.yul\":10437:10539   */\n    tag_242:\n      0x00\n        /* \"#utility.yul\":10529:10531   */\n      0x1f\n        /* \"#utility.yul\":10525:10532   */\n      not\n        /* \"#utility.yul\":10520:10522   */\n      0x1f\n        /* \"#utility.yul\":10513:10518   */\n      dup4\n        /* \"#utility.yul\":10509:10523   */\n      add\n        /* \"#utility.yul\":10505:10533   */\n      and\n        /* \"#utility.yul\":10495:10533   */\n      swap1\n      pop\n        /* \"#utility.yul\":10485:10539   */\n      swap2\n      swap1\n      pop\n      jump\t// out\n        /* \"#utility.yul\":10545:10667   */\n    tag_196:\n        /* \"#utility.yul\":10618:10642   */\n      tag_333\n        /* \"#utility.yul\":10636:10641   */\n      dup2\n        /* \"#utility.yul\":10618:10642   */\n      tag_228\n      jump\t// in\n    tag_333:\n        /* \"#utility.yul\":10611:10616   */\n      dup2\n        /* \"#utility.yul\":10608:10643   */\n      eq\n        /* \"#utility.yul\":10598:10600   */\n      tag_334\n      jumpi\n        /* \"#utility.yul\":10657:10658   */\n      0x00\n        /* \"#utility.yul\":10654:10655   */\n      dup1\n        /* \"#utility.yul\":10647:10659   */\n      revert\n        /* \"#utility.yul\":10598:10600   */\n    tag_334:\n        /* \"#utility.yul\":10588:10667   */\n      pop\n      jump\t// out\n        /* \"#utility.yul\":10673:10811   */\n    tag_200:\n        /* \"#utility.yul\":10754:10786   */\n      tag_336\n        /* \"#utility.yul\":10780:10785   */\n      dup2\n        /* \"#utility.yul\":10754:10786   */\n      tag_224\n      jump\t// in\n    tag_336:\n        /* \"#utility.yul\":10747:10752   */\n      dup2\n        /* \"#utility.yul\":10744:10787   */\n      eq\n        /* \"#utility.yul\":10734:10736   */\n      tag_337\n      jumpi\n        /* \"#utility.yul\":10801:10802   */\n      0x00\n        /* \"#utility.yul\":10798:10799   */\n      dup1\n        /* \"#utility.yul\":10791:10803   */\n      revert\n        /* \"#utility.yul\":10734:10736   */\n    tag_337:\n        /* \"#utility.yul\":10724:10811   */\n      pop\n      jump\t// out\n        /* \"#utility.yul\":10817:10939   */\n    tag_208:\n        /* \"#utility.yul\":10890:10914   */\n      tag_339\n        /* \"#utility.yul\":10908:10913   */\n      dup2\n        /* \"#utility.yul\":10890:10914   */\n      tag_246\n      jump\t// in\n    tag_339:\n        /* \"#utility.yul\":10883:10888   */\n      dup2\n        /* \"#utility.yul\":10880:10915   */\n      eq\n        /* \"#utility.yul\":10870:10872   */\n      tag_340\n      jumpi\n        /* \"#utility.yul\":10929:10930   */\n      0x00\n        /* \"#utility.yul\":10926:10927   */\n      dup1\n        /* \"#utility.yul\":10919:10931   */\n      revert\n        /* \"#utility.yul\":10870:10872   */\n    tag_340:\n        /* \"#utility.yul\":10860:10939   */\n      pop\n      jump\t// out\n\n    auxdata: 0xa264697066735822122024ccf2d4ecc17b53c3758d6d22eaf176dc8e4adb5b16f30d94b161289bb2029364736f6c63430008030033\n}\n","bytecode":{"linkReferences":{},"object":"60806040523480156200001157600080fd5b5060405162001bac38038062001bac83398181016040528101906200003791906200023f565b80600660006101000a81548173ffffffffffffffffffffffffffffffffffffffff021916908373ffffffffffffffffffffffffffffffffffffffff16021790555085600981905550846000908051906020019062000097929190620000ef565b508360019080519060200190620000b0929190620000ef565b508260029080519060200190620000c9929190620000ef565b508160039080519060200190620000e2929190620000ef565b505050505050506200051b565b828054620000fd906200040c565b90600052602060002090601f0160209004810192826200012157600085556200016d565b82601f106200013c57805160ff19168380011785556200016d565b828001600101855582156200016d579182015b828111156200016c5782518255916020019190600101906200014f565b5b5090506200017c919062000180565b5090565b5b808211156200019b57600081600090555060010162000181565b5090565b6000620001b6620001b08462000362565b62000339565b905082815260208101848484011115620001cf57600080fd5b620001dc848285620003d6565b509392505050565b600081519050620001f581620004e7565b92915050565b600082601f8301126200020d57600080fd5b81516200021f8482602086016200019f565b91505092915050565b600081519050620002398162000501565b92915050565b60008060008060008060c087890312156200025957600080fd5b60006200026989828a0162000228565b965050602087015167ffffffffffffffff8111156200028757600080fd5b6200029589828a01620001fb565b955050604087015167ffffffffffffffff811115620002b357600080fd5b620002c189828a01620001fb565b945050606087015167ffffffffffffffff811115620002df57600080fd5b620002ed89828a01620001fb565b935050608087015167ffffffffffffffff8111156200030b57600080fd5b6200031989828a01620001fb565b92505060a06200032c89828a01620001e4565b9150509295509295509295565b60006200034562000358565b905062000353828262000442565b919050565b6000604051905090565b600067ffffffffffffffff82111562000380576200037f620004a7565b5b6200038b82620004d6565b9050602081019050919050565b6000620003a582620003ac565b9050919050565b600073ffffffffffffffffffffffffffffffffffffffff82169050919050565b6000819050919050565b60005b83811015620003f6578082015181840152602081019050620003d9565b8381111562000406576000848401525b50505050565b600060028204905060018216806200042557607f821691505b602082108114156200043c576200043b62000478565b5b50919050565b6200044d82620004d6565b810181811067ffffffffffffffff821117156200046f576200046e620004a7565b5b80604052505050565b7f4e487b7100000000000000000000000000000000000000000000000000000000600052602260045260246000fd5b7f4e487b7100000000000000000000000000000000000000000000000000000000600052604160045260246000fd5b6000601f19601f8301169050919050565b620004f28162000398565b8114620004fe57600080fd5b50565b6200050c81620003cc565b81146200051857600080fd5b50565b611681806200052b6000396000f3fe6080604052600436106100f35760003560e01c80637284e4161161008a5780639fb42b1f116100595780639fb42b1f14610329578063b90497e014610354578063d7bb99ba1461037f578063d7d1bbdb14610389576100f3565b80637284e416146102695780637554e42f1461029457806381d12c58146102bf5780638a9cfd5514610300576100f3565b806326540fd2116100c657806326540fd2146101b45780634051ddac146101df578063481c6a751461021357806359af7a131461023e576100f3565b806303441006146100f857806306fdde03146101215780630a1443911461014c5780631da9896014610189575b600080fd5b34801561010457600080fd5b5061011f600480360381019061011a91906110bf565b6103b2565b005b34801561012d57600080fd5b506101366104ed565b6040516101439190611178565b60405180910390f35b34801561015857600080fd5b50610173600480360381019061016e919061102f565b61057b565b60405161018091906112ac565b60405180910390f35b34801561019557600080fd5b5061019e610593565b6040516101ab9190611178565b60405180910390f35b3480156101c057600080fd5b506101c9610621565b6040516101d691906112ac565b60405180910390f35b3480156101eb57600080fd5b506101f4610627565b60405161020a9a9998979695949392919061119a565b60405180910390f35b34801561021f57600080fd5b506102286108bc565b604051610235919061115d565b60405180910390f35b34801561024a57600080fd5b506102536108e2565b60405161026091906112ac565b60405180910390f35b34801561027557600080fd5b5061027e6108e8565b60405161028b9190611178565b60405180910390f35b3480156102a057600080fd5b506102a9610976565b6040516102b691906112ac565b60405180910390f35b3480156102cb57600080fd5b506102e660048036038101906102e191906110bf565b61097c565b6040516102f7959493929190611252565b60405180910390f35b34801561030c57600080fd5b5061032760048036038101906103229190611058565b610a67565b005b34801561033557600080fd5b5061033e610b80565b60405161034b91906112ac565b60405180910390f35b34801561036057600080fd5b50610369610b86565b6040516103769190611178565b60405180910390f35b610387610c14565b005b34801561039557600080fd5b506103b060048036038101906103ab91906110bf565b610d71565b005b600660009054906101000a900473ffffffffffffffffffffffffffffffffffffffff1673ffffffffffffffffffffffffffffffffffffffff163373ffffffffffffffffffffffffffffffffffffffff161461040c57600080fd5b60006005600083815260200190815260200160002090506002600a54610432919061138f565b81600301541161044157600080fd5b8060020160149054906101000a900460ff161561045d57600080fd5b8060020160009054906101000a900473ffffffffffffffffffffffffffffffffffffffff1673ffffffffffffffffffffffffffffffffffffffff166108fc82600101549081150290604051600060405180830381858888f193505050501580156104cb573d6000803e3d6000fd5b5060018160020160146101000a81548160ff0219169083151502179055505050565b600080546104fa9061145c565b80601f01602080910402602001604051908101604052809291908181526020018280546105269061145c565b80156105735780601f1061054857610100808354040283529160200191610573565b820191906000526020600020905b81548152906001019060200180831161055657829003601f168201915b505050505081565b60086020528060005260406000206000915090505481565b600180546105a09061145c565b80601f01602080910402602001604051908101604052809291908181526020018280546105cc9061145c565b80156106195780601f106105ee57610100808354040283529160200191610619565b820191906000526020600020905b8154815290600101906020018083116105fc57829003601f168201915b505050505081565b600a5481565b606080606080600080600080600080600060016002600360095447600454600a5430600660009054906101000a900473ffffffffffffffffffffffffffffffffffffffff168980546106789061145c565b80601f01602080910402602001604051908101604052809291908181526020018280546106a49061145c565b80156106f15780601f106106c6576101008083540402835291602001916106f1565b820191906000526020600020905b8154815290600101906020018083116106d457829003601f168201915b505050505099508880546107049061145c565b80601f01602080910402602001604051908101604052809291908181526020018280546107309061145c565b801561077d5780601f106107525761010080835404028352916020019161077d565b820191906000526020600020905b81548152906001019060200180831161076057829003601f168201915b505050505098508780546107909061145c565b80601f01602080910402602001604051908101604052809291908181526020018280546107bc9061145c565b80156108095780601f106107de57610100808354040283529160200191610809565b820191906000526020600020905b8154815290600101906020018083116107ec57829003601f168201915b5050505050975086805461081c9061145c565b80601f01602080910402602001604051908101604052809291908181526020018280546108489061145c565b80156108955780601f1061086a57610100808354040283529160200191610895565b820191906000526020600020905b81548152906001019060200180831161087857829003601f168201915b50505050509650995099509950995099509950995099509950995090919293949596979899565b600660009054906101000a900473ffffffffffffffffffffffffffffffffffffffff1681565b60095481565b600280546108f59061145c565b80601f01602080910402602001604051908101604052809291908181526020018280546109219061145c565b801561096e5780601f106109435761010080835404028352916020019161096e565b820191906000526020600020905b81548152906001019060200180831161095157829003601f168201915b505050505081565b60075481565b600560205280600052604060002060009150905080600001805461099f9061145c565b80601f01602080910402602001604051908101604052809291908181526020018280546109cb9061145c565b8015610a185780601f106109ed57610100808354040283529160200191610a18565b820191906000526020600020905b8154815290600101906020018083116109fb57829003601f168201915b5050505050908060010154908060020160009054906101000a900473ffffffffffffffffffffffffffffffffffffffff16908060020160149054906101000a900460ff16908060030154905085565b600660009054906101000a900473ffffffffffffffffffffffffffffffffffffffff1673ffffffffffffffffffffffffffffffffffffffff163373ffffffffffffffffffffffffffffffffffffffff1614610ac157600080fd5b60006005600060046000815480929190610ada906114bf565b919050558152602001908152602001600020905083816000019080519060200190610b06929190610ee5565b50828160010181905550818160020160006101000a81548173ffffffffffffffffffffffffffffffffffffffff021916908373ffffffffffffffffffffffffffffffffffffffff16021790555060008160020160146101000a81548160ff0219169083151502179055506000816003018190555050505050565b60045481565b60038054610b939061145c565b80601f0160208091040260200160405190810160405280929190818152602001828054610bbf9061145c565b8015610c0c5780601f10610be157610100808354040283529160200191610c0c565b820191906000526020600020905b815481529060010190602001808311610bef57829003601f168201915b505050505081565b600954341015610c2357600080fd5b6000600860003373ffffffffffffffffffffffffffffffffffffffff1673ffffffffffffffffffffffffffffffffffffffff168152602001908152602001600020541415610c845760076000815480929190610c7e906114bf565b91905055505b600060095434610c94919061138f565b905080600860003373ffffffffffffffffffffffffffffffffffffffff1673ffffffffffffffffffffffffffffffffffffffff1681526020019081526020016000206000828254610ce59190611339565b9250508190555080600a6000828254610cfe9190611339565b92505081905550600060095434610d159190611508565b905060008114610d6d5760003390508073ffffffffffffffffffffffffffffffffffffffff166108fc839081150290604051600060405180830381858888f19350505050158015610d6a573d6000803e3d6000fd5b50505b5050565b60006005600083815260200190815260200160002090506000600860003373ffffffffffffffffffffffffffffffffffffffff1673ffffffffffffffffffffffffffffffffffffffff1681526020019081526020016000205411610dd457600080fd5b8060040160003373ffffffffffffffffffffffffffffffffffffffff1673ffffffffffffffffffffffffffffffffffffffff16815260200190815260200160002060009054906101000a900460ff1615610e2d57600080fd5b60018160040160003373ffffffffffffffffffffffffffffffffffffffff1673ffffffffffffffffffffffffffffffffffffffff16815260200190815260200160002060006101000a81548160ff021916908315150217905550600860003373ffffffffffffffffffffffffffffffffffffffff1673ffffffffffffffffffffffffffffffffffffffff16815260200190815260200160002054816003016000828254610eda9190611339565b925050819055505050565b828054610ef19061145c565b90600052602060002090601f016020900481019282610f135760008555610f5a565b82601f10610f2c57805160ff1916838001178555610f5a565b82800160010185558215610f5a579182015b82811115610f59578251825591602001919060010190610f3e565b5b509050610f679190610f6b565b5090565b5b80821115610f84576000816000905550600101610f6c565b5090565b6000610f9b610f96846112ec565b6112c7565b905082815260208101848484011115610fb357600080fd5b610fbe84828561141a565b509392505050565b600081359050610fd581611606565b92915050565b600081359050610fea8161161d565b92915050565b600082601f83011261100157600080fd5b8135611011848260208601610f88565b91505092915050565b60008135905061102981611634565b92915050565b60006020828403121561104157600080fd5b600061104f84828501610fc6565b91505092915050565b60008060006060848603121561106d57600080fd5b600084013567ffffffffffffffff81111561108757600080fd5b61109386828701610ff0565b93505060206110a48682870161101a565b92505060406110b586828701610fdb565b9150509250925092565b6000602082840312156110d157600080fd5b60006110df8482850161101a565b91505092915050565b6110f1816113d2565b82525050565b611100816113c0565b82525050565b61110f816113e4565b82525050565b60006111208261131d565b61112a8185611328565b935061113a818560208601611429565b611143816115f5565b840191505092915050565b61115781611410565b82525050565b600060208201905061117260008301846110f7565b92915050565b600060208201905081810360008301526111928184611115565b905092915050565b60006101408201905081810360008301526111b5818d611115565b905081810360208301526111c9818c611115565b905081810360408301526111dd818b611115565b905081810360608301526111f1818a611115565b9050611200608083018961114e565b61120d60a083018861114e565b61121a60c083018761114e565b61122760e083018661114e565b6112356101008301856110f7565b6112436101208301846110f7565b9b9a5050505050505050505050565b600060a082019050818103600083015261126c8188611115565b905061127b602083018761114e565b61128860408301866110e8565b6112956060830185611106565b6112a2608083018461114e565b9695505050505050565b60006020820190506112c1600083018461114e565b92915050565b60006112d16112e2565b90506112dd828261148e565b919050565b6000604051905090565b600067ffffffffffffffff821115611307576113066115c6565b5b611310826115f5565b9050602081019050919050565b600081519050919050565b600082825260208201905092915050565b600061134482611410565b915061134f83611410565b9250827fffffffffffffffffffffffffffffffffffffffffffffffffffffffffffffffff0382111561138457611383611539565b5b828201905092915050565b600061139a82611410565b91506113a583611410565b9250826113b5576113b4611568565b5b828204905092915050565b60006113cb826113f0565b9050919050565b60006113dd826113f0565b9050919050565b60008115159050919050565b600073ffffffffffffffffffffffffffffffffffffffff82169050919050565b6000819050919050565b82818337600083830152505050565b60005b8381101561144757808201518184015260208101905061142c565b83811115611456576000848401525b50505050565b6000600282049050600182168061147457607f821691505b6020821081141561148857611487611597565b5b50919050565b611497826115f5565b810181811067ffffffffffffffff821117156114b6576114b56115c6565b5b80604052505050565b60006114ca82611410565b91507fffffffffffffffffffffffffffffffffffffffffffffffffffffffffffffffff8214156114fd576114fc611539565b5b600182019050919050565b600061151382611410565b915061151e83611410565b92508261152e5761152d611568565b5b828206905092915050565b7f4e487b7100000000000000000000000000000000000000000000000000000000600052601160045260246000fd5b7f4e487b7100000000000000000000000000000000000000000000000000000000600052601260045260246000fd5b7f4e487b7100000000000000000000000000000000000000000000000000000000600052602260045260246000fd5b7f4e487b7100000000000000000000000000000000000000000000000000000000600052604160045260246000fd5b6000601f19601f8301169050919050565b61160f816113c0565b811461161a57600080fd5b50565b611626816113d2565b811461163157600080fd5b50565b61163d81611410565b811461164857600080fd5b5056fea264697066735822122024ccf2d4ecc17b53c3758d6d22eaf176dc8e4adb5b16f30d94b161289bb2029364736f6c63430008030033","opcodes":"PUSH1 0x80 PUSH1 0x40 MSTORE CALLVALUE DUP1 ISZERO PUSH3 0x11 JUMPI PUSH1 0x0 DUP1 REVERT JUMPDEST POP PUSH1 0x40 MLOAD PUSH3 0x1BAC CODESIZE SUB DUP1 PUSH3 0x1BAC DUP4 CODECOPY DUP2 DUP2 ADD PUSH1 0x40 MSTORE DUP2 ADD SWAP1 PUSH3 0x37 SWAP2 SWAP1 PUSH3 0x23F JUMP JUMPDEST DUP1 PUSH1 0x6 PUSH1 0x0 PUSH2 0x100 EXP DUP2 SLOAD DUP2 PUSH20 0xFFFFFFFFFFFFFFFFFFFFFFFFFFFFFFFFFFFFFFFF MUL NOT AND SWAP1 DUP4 PUSH20 0xFFFFFFFFFFFFFFFFFFFFFFFFFFFFFFFFFFFFFFFF AND MUL OR SWAP1 SSTORE POP DUP6 PUSH1 0x9 DUP2 SWAP1 SSTORE POP DUP5 PUSH1 0x0 SWAP1 DUP1 MLOAD SWAP1 PUSH1 0x20 ADD SWAP1 PUSH3 0x97 SWAP3 SWAP2 SWAP1 PUSH3 0xEF JUMP JUMPDEST POP DUP4 PUSH1 0x1 SWAP1 DUP1 MLOAD SWAP1 PUSH1 0x20 ADD SWAP1 PUSH3 0xB0 SWAP3 SWAP2 SWAP1 PUSH3 0xEF JUMP JUMPDEST POP DUP3 PUSH1 0x2 SWAP1 DUP1 MLOAD SWAP1 PUSH1 0x20 ADD SWAP1 PUSH3 0xC9 SWAP3 SWAP2 SWAP1 PUSH3 0xEF JUMP JUMPDEST POP DUP2 PUSH1 0x3 SWAP1 DUP1 MLOAD SWAP1 PUSH1 0x20 ADD SWAP1 PUSH3 0xE2 SWAP3 SWAP2 SWAP1 PUSH3 0xEF JUMP JUMPDEST POP POP POP POP POP POP POP PUSH3 0x51B JUMP JUMPDEST DUP3 DUP1 SLOAD PUSH3 0xFD SWAP1 PUSH3 0x40C JUMP JUMPDEST SWAP1 PUSH1 0x0 MSTORE PUSH1 0x20 PUSH1 0x0 KECCAK256 SWAP1 PUSH1 0x1F ADD PUSH1 0x20 SWAP1 DIV DUP2 ADD SWAP3 DUP3 PUSH3 0x121 JUMPI PUSH1 0x0 DUP6 SSTORE PUSH3 0x16D JUMP JUMPDEST DUP3 PUSH1 0x1F LT PUSH3 0x13C JUMPI DUP1 MLOAD PUSH1 0xFF NOT AND DUP4 DUP1 ADD OR DUP6 SSTORE PUSH3 0x16D JUMP JUMPDEST DUP3 DUP1 ADD PUSH1 0x1 ADD DUP6 SSTORE DUP3 ISZERO PUSH3 0x16D JUMPI SWAP2 DUP3 ADD JUMPDEST DUP3 DUP2 GT ISZERO PUSH3 0x16C JUMPI DUP3 MLOAD DUP3 SSTORE SWAP2 PUSH1 0x20 ADD SWAP2 SWAP1 PUSH1 0x1 ADD SWAP1 PUSH3 0x14F JUMP JUMPDEST JUMPDEST POP SWAP1 POP PUSH3 0x17C SWAP2 SWAP1 PUSH3 0x180 JUMP JUMPDEST POP SWAP1 JUMP JUMPDEST JUMPDEST DUP1 DUP3 GT ISZERO PUSH3 0x19B JUMPI PUSH1 0x0 DUP2 PUSH1 0x0 SWAP1 SSTORE POP PUSH1 0x1 ADD PUSH3 0x181 JUMP JUMPDEST POP SWAP1 JUMP JUMPDEST PUSH1 0x0 PUSH3 0x1B6 PUSH3 0x1B0 DUP5 PUSH3 0x362 JUMP JUMPDEST PUSH3 0x339 JUMP JUMPDEST SWAP1 POP DUP3 DUP2 MSTORE PUSH1 0x20 DUP2 ADD DUP5 DUP5 DUP5 ADD GT ISZERO PUSH3 0x1CF JUMPI PUSH1 0x0 DUP1 REVERT JUMPDEST PUSH3 0x1DC DUP5 DUP3 DUP6 PUSH3 0x3D6 JUMP JUMPDEST POP SWAP4 SWAP3 POP POP POP JUMP JUMPDEST PUSH1 0x0 DUP2 MLOAD SWAP1 POP PUSH3 0x1F5 DUP2 PUSH3 0x4E7 JUMP JUMPDEST SWAP3 SWAP2 POP POP JUMP JUMPDEST PUSH1 0x0 DUP3 PUSH1 0x1F DUP4 ADD SLT PUSH3 0x20D JUMPI PUSH1 0x0 DUP1 REVERT JUMPDEST DUP2 MLOAD PUSH3 0x21F DUP5 DUP3 PUSH1 0x20 DUP7 ADD PUSH3 0x19F JUMP JUMPDEST SWAP2 POP POP SWAP3 SWAP2 POP POP JUMP JUMPDEST PUSH1 0x0 DUP2 MLOAD SWAP1 POP PUSH3 0x239 DUP2 PUSH3 0x501 JUMP JUMPDEST SWAP3 SWAP2 POP POP JUMP JUMPDEST PUSH1 0x0 DUP1 PUSH1 0x0 DUP1 PUSH1 0x0 DUP1 PUSH1 0xC0 DUP8 DUP10 SUB SLT ISZERO PUSH3 0x259 JUMPI PUSH1 0x0 DUP1 REVERT JUMPDEST PUSH1 0x0 PUSH3 0x269 DUP10 DUP3 DUP11 ADD PUSH3 0x228 JUMP JUMPDEST SWAP7 POP POP PUSH1 0x20 DUP8 ADD MLOAD PUSH8 0xFFFFFFFFFFFFFFFF DUP2 GT ISZERO PUSH3 0x287 JUMPI PUSH1 0x0 DUP1 REVERT JUMPDEST PUSH3 0x295 DUP10 DUP3 DUP11 ADD PUSH3 0x1FB JUMP JUMPDEST SWAP6 POP POP PUSH1 0x40 DUP8 ADD MLOAD PUSH8 0xFFFFFFFFFFFFFFFF DUP2 GT ISZERO PUSH3 0x2B3 JUMPI PUSH1 0x0 DUP1 REVERT JUMPDEST PUSH3 0x2C1 DUP10 DUP3 DUP11 ADD PUSH3 0x1FB JUMP JUMPDEST SWAP5 POP POP PUSH1 0x60 DUP8 ADD MLOAD PUSH8 0xFFFFFFFFFFFFFFFF DUP2 GT ISZERO PUSH3 0x2DF JUMPI PUSH1 0x0 DUP1 REVERT JUMPDEST PUSH3 0x2ED DUP10 DUP3 DUP11 ADD PUSH3 0x1FB JUMP JUMPDEST SWAP4 POP POP PUSH1 0x80 DUP8 ADD MLOAD PUSH8 0xFFFFFFFFFFFFFFFF DUP2 GT ISZERO PUSH3 0x30B JUMPI PUSH1 0x0 DUP1 REVERT JUMPDEST PUSH3 0x319 DUP10 DUP3 DUP11 ADD PUSH3 0x1FB JUMP JUMPDEST SWAP3 POP POP PUSH1 0xA0 PUSH3 0x32C DUP10 DUP3 DUP11 ADD PUSH3 0x1E4 JUMP JUMPDEST SWAP2 POP POP SWAP3 SWAP6 POP SWAP3 SWAP6 POP SWAP3 SWAP6 JUMP JUMPDEST PUSH1 0x0 PUSH3 0x345 PUSH3 0x358 JUMP JUMPDEST SWAP1 POP PUSH3 0x353 DUP3 DUP3 PUSH3 0x442 JUMP JUMPDEST SWAP2 SWAP1 POP JUMP JUMPDEST PUSH1 0x0 PUSH1 0x40 MLOAD SWAP1 POP SWAP1 JUMP JUMPDEST PUSH1 0x0 PUSH8 0xFFFFFFFFFFFFFFFF DUP3 GT ISZERO PUSH3 0x380 JUMPI PUSH3 0x37F PUSH3 0x4A7 JUMP JUMPDEST JUMPDEST PUSH3 0x38B DUP3 PUSH3 0x4D6 JUMP JUMPDEST SWAP1 POP PUSH1 0x20 DUP2 ADD SWAP1 POP SWAP2 SWAP1 POP JUMP JUMPDEST PUSH1 0x0 PUSH3 0x3A5 DUP3 PUSH3 0x3AC JUMP JUMPDEST SWAP1 POP SWAP2 SWAP1 POP JUMP JUMPDEST PUSH1 0x0 PUSH20 0xFFFFFFFFFFFFFFFFFFFFFFFFFFFFFFFFFFFFFFFF DUP3 AND SWAP1 POP SWAP2 SWAP1 POP JUMP JUMPDEST PUSH1 0x0 DUP2 SWAP1 POP SWAP2 SWAP1 POP JUMP JUMPDEST PUSH1 0x0 JUMPDEST DUP4 DUP2 LT ISZERO PUSH3 0x3F6 JUMPI DUP1 DUP3 ADD MLOAD DUP2 DUP5 ADD MSTORE PUSH1 0x20 DUP2 ADD SWAP1 POP PUSH3 0x3D9 JUMP JUMPDEST DUP4 DUP2 GT ISZERO PUSH3 0x406 JUMPI PUSH1 0x0 DUP5 DUP5 ADD MSTORE JUMPDEST POP POP POP POP JUMP JUMPDEST PUSH1 0x0 PUSH1 0x2 DUP3 DIV SWAP1 POP PUSH1 0x1 DUP3 AND DUP1 PUSH3 0x425 JUMPI PUSH1 0x7F DUP3 AND SWAP2 POP JUMPDEST PUSH1 0x20 DUP3 LT DUP2 EQ ISZERO PUSH3 0x43C JUMPI PUSH3 0x43B PUSH3 0x478 JUMP JUMPDEST JUMPDEST POP SWAP2 SWAP1 POP JUMP JUMPDEST PUSH3 0x44D DUP3 PUSH3 0x4D6 JUMP JUMPDEST DUP2 ADD DUP2 DUP2 LT PUSH8 0xFFFFFFFFFFFFFFFF DUP3 GT OR ISZERO PUSH3 0x46F JUMPI PUSH3 0x46E PUSH3 0x4A7 JUMP JUMPDEST JUMPDEST DUP1 PUSH1 0x40 MSTORE POP POP POP JUMP JUMPDEST PUSH32 0x4E487B7100000000000000000000000000000000000000000000000000000000 PUSH1 0x0 MSTORE PUSH1 0x22 PUSH1 0x4 MSTORE PUSH1 0x24 PUSH1 0x0 REVERT JUMPDEST PUSH32 0x4E487B7100000000000000000000000000000000000000000000000000000000 PUSH1 0x0 MSTORE PUSH1 0x41 PUSH1 0x4 MSTORE PUSH1 0x24 PUSH1 0x0 REVERT JUMPDEST PUSH1 0x0 PUSH1 0x1F NOT PUSH1 0x1F DUP4 ADD AND SWAP1 POP SWAP2 SWAP1 POP JUMP JUMPDEST PUSH3 0x4F2 DUP2 PUSH3 0x398 JUMP JUMPDEST DUP2 EQ PUSH3 0x4FE JUMPI PUSH1 0x0 DUP1 REVERT JUMPDEST POP JUMP JUMPDEST PUSH3 0x50C DUP2 PUSH3 0x3CC JUMP JUMPDEST DUP2 EQ PUSH3 0x518 JUMPI PUSH1 0x0 DUP1 REVERT JUMPDEST POP JUMP JUMPDEST PUSH2 0x1681 DUP1 PUSH3 0x52B PUSH1 0x0 CODECOPY PUSH1 0x0 RETURN INVALID PUSH1 0x80 PUSH1 0x40 MSTORE PUSH1 0x4 CALLDATASIZE LT PUSH2 0xF3 JUMPI PUSH1 0x0 CALLDATALOAD PUSH1 0xE0 SHR DUP1 PUSH4 0x7284E416 GT PUSH2 0x8A JUMPI DUP1 PUSH4 0x9FB42B1F GT PUSH2 0x59 JUMPI DUP1 PUSH4 0x9FB42B1F EQ PUSH2 0x329 JUMPI DUP1 PUSH4 0xB90497E0 EQ PUSH2 0x354 JUMPI DUP1 PUSH4 0xD7BB99BA EQ PUSH2 0x37F JUMPI DUP1 PUSH4 0xD7D1BBDB EQ PUSH2 0x389 JUMPI PUSH2 0xF3 JUMP JUMPDEST DUP1 PUSH4 0x7284E416 EQ PUSH2 0x269 JUMPI DUP1 PUSH4 0x7554E42F EQ PUSH2 0x294 JUMPI DUP1 PUSH4 0x81D12C58 EQ PUSH2 0x2BF JUMPI DUP1 PUSH4 0x8A9CFD55 EQ PUSH2 0x300 JUMPI PUSH2 0xF3 JUMP JUMPDEST DUP1 PUSH4 0x26540FD2 GT PUSH2 0xC6 JUMPI DUP1 PUSH4 0x26540FD2 EQ PUSH2 0x1B4 JUMPI DUP1 PUSH4 0x4051DDAC EQ PUSH2 0x1DF JUMPI DUP1 PUSH4 0x481C6A75 EQ PUSH2 0x213 JUMPI DUP1 PUSH4 0x59AF7A13 EQ PUSH2 0x23E JUMPI PUSH2 0xF3 JUMP JUMPDEST DUP1 PUSH4 0x3441006 EQ PUSH2 0xF8 JUMPI DUP1 PUSH4 0x6FDDE03 EQ PUSH2 0x121 JUMPI DUP1 PUSH4 0xA144391 EQ PUSH2 0x14C JUMPI DUP1 PUSH4 0x1DA98960 EQ PUSH2 0x189 JUMPI JUMPDEST PUSH1 0x0 DUP1 REVERT JUMPDEST CALLVALUE DUP1 ISZERO PUSH2 0x104 JUMPI PUSH1 0x0 DUP1 REVERT JUMPDEST POP PUSH2 0x11F PUSH1 0x4 DUP1 CALLDATASIZE SUB DUP2 ADD SWAP1 PUSH2 0x11A SWAP2 SWAP1 PUSH2 0x10BF JUMP JUMPDEST PUSH2 0x3B2 JUMP JUMPDEST STOP JUMPDEST CALLVALUE DUP1 ISZERO PUSH2 0x12D JUMPI PUSH1 0x0 DUP1 REVERT JUMPDEST POP PUSH2 0x136 PUSH2 0x4ED JUMP JUMPDEST PUSH1 0x40 MLOAD PUSH2 0x143 SWAP2 SWAP1 PUSH2 0x1178 JUMP JUMPDEST PUSH1 0x40 MLOAD DUP1 SWAP2 SUB SWAP1 RETURN JUMPDEST CALLVALUE DUP1 ISZERO PUSH2 0x158 JUMPI PUSH1 0x0 DUP1 REVERT JUMPDEST POP PUSH2 0x173 PUSH1 0x4 DUP1 CALLDATASIZE SUB DUP2 ADD SWAP1 PUSH2 0x16E SWAP2 SWAP1 PUSH2 0x102F JUMP JUMPDEST PUSH2 0x57B JUMP JUMPDEST PUSH1 0x40 MLOAD PUSH2 0x180 SWAP2 SWAP1 PUSH2 0x12AC JUMP JUMPDEST PUSH1 0x40 MLOAD DUP1 SWAP2 SUB SWAP1 RETURN JUMPDEST CALLVALUE DUP1 ISZERO PUSH2 0x195 JUMPI PUSH1 0x0 DUP1 REVERT JUMPDEST POP PUSH2 0x19E PUSH2 0x593 JUMP JUMPDEST PUSH1 0x40 MLOAD PUSH2 0x1AB SWAP2 SWAP1 PUSH2 0x1178 JUMP JUMPDEST PUSH1 0x40 MLOAD DUP1 SWAP2 SUB SWAP1 RETURN JUMPDEST CALLVALUE DUP1 ISZERO PUSH2 0x1C0 JUMPI PUSH1 0x0 DUP1 REVERT JUMPDEST POP PUSH2 0x1C9 PUSH2 0x621 JUMP JUMPDEST PUSH1 0x40 MLOAD PUSH2 0x1D6 SWAP2 SWAP1 PUSH2 0x12AC JUMP JUMPDEST PUSH1 0x40 MLOAD DUP1 SWAP2 SUB SWAP1 RETURN JUMPDEST CALLVALUE DUP1 ISZERO PUSH2 0x1EB JUMPI PUSH1 0x0 DUP1 REVERT JUMPDEST POP PUSH2 0x1F4 PUSH2 0x627 JUMP JUMPDEST PUSH1 0x40 MLOAD PUSH2 0x20A SWAP11 SWAP10 SWAP9 SWAP8 SWAP7 SWAP6 SWAP5 SWAP4 SWAP3 SWAP2 SWAP1 PUSH2 0x119A JUMP JUMPDEST PUSH1 0x40 MLOAD DUP1 SWAP2 SUB SWAP1 RETURN JUMPDEST CALLVALUE DUP1 ISZERO PUSH2 0x21F JUMPI PUSH1 0x0 DUP1 REVERT JUMPDEST POP PUSH2 0x228 PUSH2 0x8BC JUMP JUMPDEST PUSH1 0x40 MLOAD PUSH2 0x235 SWAP2 SWAP1 PUSH2 0x115D JUMP JUMPDEST PUSH1 0x40 MLOAD DUP1 SWAP2 SUB SWAP1 RETURN JUMPDEST CALLVALUE DUP1 ISZERO PUSH2 0x24A JUMPI PUSH1 0x0 DUP1 REVERT JUMPDEST POP PUSH2 0x253 PUSH2 0x8E2 JUMP JUMPDEST PUSH1 0x40 MLOAD PUSH2 0x260 SWAP2 SWAP1 PUSH2 0x12AC JUMP JUMPDEST PUSH1 0x40 MLOAD DUP1 SWAP2 SUB SWAP1 RETURN JUMPDEST CALLVALUE DUP1 ISZERO PUSH2 0x275 JUMPI PUSH1 0x0 DUP1 REVERT JUMPDEST POP PUSH2 0x27E PUSH2 0x8E8 JUMP JUMPDEST PUSH1 0x40 MLOAD PUSH2 0x28B SWAP2 SWAP1 PUSH2 0x1178 JUMP JUMPDEST PUSH1 0x40 MLOAD DUP1 SWAP2 SUB SWAP1 RETURN JUMPDEST CALLVALUE DUP1 ISZERO PUSH2 0x2A0 JUMPI PUSH1 0x0 DUP1 REVERT JUMPDEST POP PUSH2 0x2A9 PUSH2 0x976 JUMP JUMPDEST PUSH1 0x40 MLOAD PUSH2 0x2B6 SWAP2 SWAP1 PUSH2 0x12AC JUMP JUMPDEST PUSH1 0x40 MLOAD DUP1 SWAP2 SUB SWAP1 RETURN JUMPDEST CALLVALUE DUP1 ISZERO PUSH2 0x2CB JUMPI PUSH1 0x0 DUP1 REVERT JUMPDEST POP PUSH2 0x2E6 PUSH1 0x4 DUP1 CALLDATASIZE SUB DUP2 ADD SWAP1 PUSH2 0x2E1 SWAP2 SWAP1 PUSH2 0x10BF JUMP JUMPDEST PUSH2 0x97C JUMP JUMPDEST PUSH1 0x40 MLOAD PUSH2 0x2F7 SWAP6 SWAP5 SWAP4 SWAP3 SWAP2 SWAP1 PUSH2 0x1252 JUMP JUMPDEST PUSH1 0x40 MLOAD DUP1 SWAP2 SUB SWAP1 RETURN JUMPDEST CALLVALUE DUP1 ISZERO PUSH2 0x30C JUMPI PUSH1 0x0 DUP1 REVERT JUMPDEST POP PUSH2 0x327 PUSH1 0x4 DUP1 CALLDATASIZE SUB DUP2 ADD SWAP1 PUSH2 0x322 SWAP2 SWAP1 PUSH2 0x1058 JUMP JUMPDEST PUSH2 0xA67 JUMP JUMPDEST STOP JUMPDEST CALLVALUE DUP1 ISZERO PUSH2 0x335 JUMPI PUSH1 0x0 DUP1 REVERT JUMPDEST POP PUSH2 0x33E PUSH2 0xB80 JUMP JUMPDEST PUSH1 0x40 MLOAD PUSH2 0x34B SWAP2 SWAP1 PUSH2 0x12AC JUMP JUMPDEST PUSH1 0x40 MLOAD DUP1 SWAP2 SUB SWAP1 RETURN JUMPDEST CALLVALUE DUP1 ISZERO PUSH2 0x360 JUMPI PUSH1 0x0 DUP1 REVERT JUMPDEST POP PUSH2 0x369 PUSH2 0xB86 JUMP JUMPDEST PUSH1 0x40 MLOAD PUSH2 0x376 SWAP2 SWAP1 PUSH2 0x1178 JUMP JUMPDEST PUSH1 0x40 MLOAD DUP1 SWAP2 SUB SWAP1 RETURN JUMPDEST PUSH2 0x387 PUSH2 0xC14 JUMP JUMPDEST STOP JUMPDEST CALLVALUE DUP1 ISZERO PUSH2 0x395 JUMPI PUSH1 0x0 DUP1 REVERT JUMPDEST POP PUSH2 0x3B0 PUSH1 0x4 DUP1 CALLDATASIZE SUB DUP2 ADD SWAP1 PUSH2 0x3AB SWAP2 SWAP1 PUSH2 0x10BF JUMP JUMPDEST PUSH2 0xD71 JUMP JUMPDEST STOP JUMPDEST PUSH1 0x6 PUSH1 0x0 SWAP1 SLOAD SWAP1 PUSH2 0x100 EXP SWAP1 DIV PUSH20 0xFFFFFFFFFFFFFFFFFFFFFFFFFFFFFFFFFFFFFFFF AND PUSH20 0xFFFFFFFFFFFFFFFFFFFFFFFFFFFFFFFFFFFFFFFF AND CALLER PUSH20 0xFFFFFFFFFFFFFFFFFFFFFFFFFFFFFFFFFFFFFFFF AND EQ PUSH2 0x40C JUMPI PUSH1 0x0 DUP1 REVERT JUMPDEST PUSH1 0x0 PUSH1 0x5 PUSH1 0x0 DUP4 DUP2 MSTORE PUSH1 0x20 ADD SWAP1 DUP2 MSTORE PUSH1 0x20 ADD PUSH1 0x0 KECCAK256 SWAP1 POP PUSH1 0x2 PUSH1 0xA SLOAD PUSH2 0x432 SWAP2 SWAP1 PUSH2 0x138F JUMP JUMPDEST DUP2 PUSH1 0x3 ADD SLOAD GT PUSH2 0x441 JUMPI PUSH1 0x0 DUP1 REVERT JUMPDEST DUP1 PUSH1 0x2 ADD PUSH1 0x14 SWAP1 SLOAD SWAP1 PUSH2 0x100 EXP SWAP1 DIV PUSH1 0xFF AND ISZERO PUSH2 0x45D JUMPI PUSH1 0x0 DUP1 REVERT JUMPDEST DUP1 PUSH1 0x2 ADD PUSH1 0x0 SWAP1 SLOAD SWAP1 PUSH2 0x100 EXP SWAP1 DIV PUSH20 0xFFFFFFFFFFFFFFFFFFFFFFFFFFFFFFFFFFFFFFFF AND PUSH20 0xFFFFFFFFFFFFFFFFFFFFFFFFFFFFFFFFFFFFFFFF AND PUSH2 0x8FC DUP3 PUSH1 0x1 ADD SLOAD SWAP1 DUP2 ISZERO MUL SWAP1 PUSH1 0x40 MLOAD PUSH1 0x0 PUSH1 0x40 MLOAD DUP1 DUP4 SUB DUP2 DUP6 DUP9 DUP9 CALL SWAP4 POP POP POP POP ISZERO DUP1 ISZERO PUSH2 0x4CB JUMPI RETURNDATASIZE PUSH1 0x0 DUP1 RETURNDATACOPY RETURNDATASIZE PUSH1 0x0 REVERT JUMPDEST POP PUSH1 0x1 DUP2 PUSH1 0x2 ADD PUSH1 0x14 PUSH2 0x100 EXP DUP2 SLOAD DUP2 PUSH1 0xFF MUL NOT AND SWAP1 DUP4 ISZERO ISZERO MUL OR SWAP1 SSTORE POP POP POP JUMP JUMPDEST PUSH1 0x0 DUP1 SLOAD PUSH2 0x4FA SWAP1 PUSH2 0x145C JUMP JUMPDEST DUP1 PUSH1 0x1F ADD PUSH1 0x20 DUP1 SWAP2 DIV MUL PUSH1 0x20 ADD PUSH1 0x40 MLOAD SWAP1 DUP2 ADD PUSH1 0x40 MSTORE DUP1 SWAP3 SWAP2 SWAP1 DUP2 DUP2 MSTORE PUSH1 0x20 ADD DUP3 DUP1 SLOAD PUSH2 0x526 SWAP1 PUSH2 0x145C JUMP JUMPDEST DUP1 ISZERO PUSH2 0x573 JUMPI DUP1 PUSH1 0x1F LT PUSH2 0x548 JUMPI PUSH2 0x100 DUP1 DUP4 SLOAD DIV MUL DUP4 MSTORE SWAP2 PUSH1 0x20 ADD SWAP2 PUSH2 0x573 JUMP JUMPDEST DUP3 ADD SWAP2 SWAP1 PUSH1 0x0 MSTORE PUSH1 0x20 PUSH1 0x0 KECCAK256 SWAP1 JUMPDEST DUP2 SLOAD DUP2 MSTORE SWAP1 PUSH1 0x1 ADD SWAP1 PUSH1 0x20 ADD DUP1 DUP4 GT PUSH2 0x556 JUMPI DUP3 SWAP1 SUB PUSH1 0x1F AND DUP3 ADD SWAP2 JUMPDEST POP POP POP POP POP DUP2 JUMP JUMPDEST PUSH1 0x8 PUSH1 0x20 MSTORE DUP1 PUSH1 0x0 MSTORE PUSH1 0x40 PUSH1 0x0 KECCAK256 PUSH1 0x0 SWAP2 POP SWAP1 POP SLOAD DUP2 JUMP JUMPDEST PUSH1 0x1 DUP1 SLOAD PUSH2 0x5A0 SWAP1 PUSH2 0x145C JUMP JUMPDEST DUP1 PUSH1 0x1F ADD PUSH1 0x20 DUP1 SWAP2 DIV MUL PUSH1 0x20 ADD PUSH1 0x40 MLOAD SWAP1 DUP2 ADD PUSH1 0x40 MSTORE DUP1 SWAP3 SWAP2 SWAP1 DUP2 DUP2 MSTORE PUSH1 0x20 ADD DUP3 DUP1 SLOAD PUSH2 0x5CC SWAP1 PUSH2 0x145C JUMP JUMPDEST DUP1 ISZERO PUSH2 0x619 JUMPI DUP1 PUSH1 0x1F LT PUSH2 0x5EE JUMPI PUSH2 0x100 DUP1 DUP4 SLOAD DIV MUL DUP4 MSTORE SWAP2 PUSH1 0x20 ADD SWAP2 PUSH2 0x619 JUMP JUMPDEST DUP3 ADD SWAP2 SWAP1 PUSH1 0x0 MSTORE PUSH1 0x20 PUSH1 0x0 KECCAK256 SWAP1 JUMPDEST DUP2 SLOAD DUP2 MSTORE SWAP1 PUSH1 0x1 ADD SWAP1 PUSH1 0x20 ADD DUP1 DUP4 GT PUSH2 0x5FC JUMPI DUP3 SWAP1 SUB PUSH1 0x1F AND DUP3 ADD SWAP2 JUMPDEST POP POP POP POP POP DUP2 JUMP JUMPDEST PUSH1 0xA SLOAD DUP2 JUMP JUMPDEST PUSH1 0x60 DUP1 PUSH1 0x60 DUP1 PUSH1 0x0 DUP1 PUSH1 0x0 DUP1 PUSH1 0x0 DUP1 PUSH1 0x0 PUSH1 0x1 PUSH1 0x2 PUSH1 0x3 PUSH1 0x9 SLOAD SELFBALANCE PUSH1 0x4 SLOAD PUSH1 0xA SLOAD ADDRESS PUSH1 0x6 PUSH1 0x0 SWAP1 SLOAD SWAP1 PUSH2 0x100 EXP SWAP1 DIV PUSH20 0xFFFFFFFFFFFFFFFFFFFFFFFFFFFFFFFFFFFFFFFF AND DUP10 DUP1 SLOAD PUSH2 0x678 SWAP1 PUSH2 0x145C JUMP JUMPDEST DUP1 PUSH1 0x1F ADD PUSH1 0x20 DUP1 SWAP2 DIV MUL PUSH1 0x20 ADD PUSH1 0x40 MLOAD SWAP1 DUP2 ADD PUSH1 0x40 MSTORE DUP1 SWAP3 SWAP2 SWAP1 DUP2 DUP2 MSTORE PUSH1 0x20 ADD DUP3 DUP1 SLOAD PUSH2 0x6A4 SWAP1 PUSH2 0x145C JUMP JUMPDEST DUP1 ISZERO PUSH2 0x6F1 JUMPI DUP1 PUSH1 0x1F LT PUSH2 0x6C6 JUMPI PUSH2 0x100 DUP1 DUP4 SLOAD DIV MUL DUP4 MSTORE SWAP2 PUSH1 0x20 ADD SWAP2 PUSH2 0x6F1 JUMP JUMPDEST DUP3 ADD SWAP2 SWAP1 PUSH1 0x0 MSTORE PUSH1 0x20 PUSH1 0x0 KECCAK256 SWAP1 JUMPDEST DUP2 SLOAD DUP2 MSTORE SWAP1 PUSH1 0x1 ADD SWAP1 PUSH1 0x20 ADD DUP1 DUP4 GT PUSH2 0x6D4 JUMPI DUP3 SWAP1 SUB PUSH1 0x1F AND DUP3 ADD SWAP2 JUMPDEST POP POP POP POP POP SWAP10 POP DUP9 DUP1 SLOAD PUSH2 0x704 SWAP1 PUSH2 0x145C JUMP JUMPDEST DUP1 PUSH1 0x1F ADD PUSH1 0x20 DUP1 SWAP2 DIV MUL PUSH1 0x20 ADD PUSH1 0x40 MLOAD SWAP1 DUP2 ADD PUSH1 0x40 MSTORE DUP1 SWAP3 SWAP2 SWAP1 DUP2 DUP2 MSTORE PUSH1 0x20 ADD DUP3 DUP1 SLOAD PUSH2 0x730 SWAP1 PUSH2 0x145C JUMP JUMPDEST DUP1 ISZERO PUSH2 0x77D JUMPI DUP1 PUSH1 0x1F LT PUSH2 0x752 JUMPI PUSH2 0x100 DUP1 DUP4 SLOAD DIV MUL DUP4 MSTORE SWAP2 PUSH1 0x20 ADD SWAP2 PUSH2 0x77D JUMP JUMPDEST DUP3 ADD SWAP2 SWAP1 PUSH1 0x0 MSTORE PUSH1 0x20 PUSH1 0x0 KECCAK256 SWAP1 JUMPDEST DUP2 SLOAD DUP2 MSTORE SWAP1 PUSH1 0x1 ADD SWAP1 PUSH1 0x20 ADD DUP1 DUP4 GT PUSH2 0x760 JUMPI DUP3 SWAP1 SUB PUSH1 0x1F AND DUP3 ADD SWAP2 JUMPDEST POP POP POP POP POP SWAP9 POP DUP8 DUP1 SLOAD PUSH2 0x790 SWAP1 PUSH2 0x145C JUMP JUMPDEST DUP1 PUSH1 0x1F ADD PUSH1 0x20 DUP1 SWAP2 DIV MUL PUSH1 0x20 ADD PUSH1 0x40 MLOAD SWAP1 DUP2 ADD PUSH1 0x40 MSTORE DUP1 SWAP3 SWAP2 SWAP1 DUP2 DUP2 MSTORE PUSH1 0x20 ADD DUP3 DUP1 SLOAD PUSH2 0x7BC SWAP1 PUSH2 0x145C JUMP JUMPDEST DUP1 ISZERO PUSH2 0x809 JUMPI DUP1 PUSH1 0x1F LT PUSH2 0x7DE JUMPI PUSH2 0x100 DUP1 DUP4 SLOAD DIV MUL DUP4 MSTORE SWAP2 PUSH1 0x20 ADD SWAP2 PUSH2 0x809 JUMP JUMPDEST DUP3 ADD SWAP2 SWAP1 PUSH1 0x0 MSTORE PUSH1 0x20 PUSH1 0x0 KECCAK256 SWAP1 JUMPDEST DUP2 SLOAD DUP2 MSTORE SWAP1 PUSH1 0x1 ADD SWAP1 PUSH1 0x20 ADD DUP1 DUP4 GT PUSH2 0x7EC JUMPI DUP3 SWAP1 SUB PUSH1 0x1F AND DUP3 ADD SWAP2 JUMPDEST POP POP POP POP POP SWAP8 POP DUP7 DUP1 SLOAD PUSH2 0x81C SWAP1 PUSH2 0x145C JUMP JUMPDEST DUP1 PUSH1 0x1F ADD PUSH1 0x20 DUP1 SWAP2 DIV MUL PUSH1 0x20 ADD PUSH1 0x40 MLOAD SWAP1 DUP2 ADD PUSH1 0x40 MSTORE DUP1 SWAP3 SWAP2 SWAP1 DUP2 DUP2 MSTORE PUSH1 0x20 ADD DUP3 DUP1 SLOAD PUSH2 0x848 SWAP1 PUSH2 0x145C JUMP JUMPDEST DUP1 ISZERO PUSH2 0x895 JUMPI DUP1 PUSH1 0x1F LT PUSH2 0x86A JUMPI PUSH2 0x100 DUP1 DUP4 SLOAD DIV MUL DUP4 MSTORE SWAP2 PUSH1 0x20 ADD SWAP2 PUSH2 0x895 JUMP JUMPDEST DUP3 ADD SWAP2 SWAP1 PUSH1 0x0 MSTORE PUSH1 0x20 PUSH1 0x0 KECCAK256 SWAP1 JUMPDEST DUP2 SLOAD DUP2 MSTORE SWAP1 PUSH1 0x1 ADD SWAP1 PUSH1 0x20 ADD DUP1 DUP4 GT PUSH2 0x878 JUMPI DUP3 SWAP1 SUB PUSH1 0x1F AND DUP3 ADD SWAP2 JUMPDEST POP POP POP POP POP SWAP7 POP SWAP10 POP SWAP10 POP SWAP10 POP SWAP10 POP SWAP10 POP SWAP10 POP SWAP10 POP SWAP10 POP SWAP10 POP SWAP10 POP SWAP1 SWAP2 SWAP3 SWAP4 SWAP5 SWAP6 SWAP7 SWAP8 SWAP9 SWAP10 JUMP JUMPDEST PUSH1 0x6 PUSH1 0x0 SWAP1 SLOAD SWAP1 PUSH2 0x100 EXP SWAP1 DIV PUSH20 0xFFFFFFFFFFFFFFFFFFFFFFFFFFFFFFFFFFFFFFFF AND DUP2 JUMP JUMPDEST PUSH1 0x9 SLOAD DUP2 JUMP JUMPDEST PUSH1 0x2 DUP1 SLOAD PUSH2 0x8F5 SWAP1 PUSH2 0x145C JUMP JUMPDEST DUP1 PUSH1 0x1F ADD PUSH1 0x20 DUP1 SWAP2 DIV MUL PUSH1 0x20 ADD PUSH1 0x40 MLOAD SWAP1 DUP2 ADD PUSH1 0x40 MSTORE DUP1 SWAP3 SWAP2 SWAP1 DUP2 DUP2 MSTORE PUSH1 0x20 ADD DUP3 DUP1 SLOAD PUSH2 0x921 SWAP1 PUSH2 0x145C JUMP JUMPDEST DUP1 ISZERO PUSH2 0x96E JUMPI DUP1 PUSH1 0x1F LT PUSH2 0x943 JUMPI PUSH2 0x100 DUP1 DUP4 SLOAD DIV MUL DUP4 MSTORE SWAP2 PUSH1 0x20 ADD SWAP2 PUSH2 0x96E JUMP JUMPDEST DUP3 ADD SWAP2 SWAP1 PUSH1 0x0 MSTORE PUSH1 0x20 PUSH1 0x0 KECCAK256 SWAP1 JUMPDEST DUP2 SLOAD DUP2 MSTORE SWAP1 PUSH1 0x1 ADD SWAP1 PUSH1 0x20 ADD DUP1 DUP4 GT PUSH2 0x951 JUMPI DUP3 SWAP1 SUB PUSH1 0x1F AND DUP3 ADD SWAP2 JUMPDEST POP POP POP POP POP DUP2 JUMP JUMPDEST PUSH1 0x7 SLOAD DUP2 JUMP JUMPDEST PUSH1 0x5 PUSH1 0x20 MSTORE DUP1 PUSH1 0x0 MSTORE PUSH1 0x40 PUSH1 0x0 KECCAK256 PUSH1 0x0 SWAP2 POP SWAP1 POP DUP1 PUSH1 0x0 ADD DUP1 SLOAD PUSH2 0x99F SWAP1 PUSH2 0x145C JUMP JUMPDEST DUP1 PUSH1 0x1F ADD PUSH1 0x20 DUP1 SWAP2 DIV MUL PUSH1 0x20 ADD PUSH1 0x40 MLOAD SWAP1 DUP2 ADD PUSH1 0x40 MSTORE DUP1 SWAP3 SWAP2 SWAP1 DUP2 DUP2 MSTORE PUSH1 0x20 ADD DUP3 DUP1 SLOAD PUSH2 0x9CB SWAP1 PUSH2 0x145C JUMP JUMPDEST DUP1 ISZERO PUSH2 0xA18 JUMPI DUP1 PUSH1 0x1F LT PUSH2 0x9ED JUMPI PUSH2 0x100 DUP1 DUP4 SLOAD DIV MUL DUP4 MSTORE SWAP2 PUSH1 0x20 ADD SWAP2 PUSH2 0xA18 JUMP JUMPDEST DUP3 ADD SWAP2 SWAP1 PUSH1 0x0 MSTORE PUSH1 0x20 PUSH1 0x0 KECCAK256 SWAP1 JUMPDEST DUP2 SLOAD DUP2 MSTORE SWAP1 PUSH1 0x1 ADD SWAP1 PUSH1 0x20 ADD DUP1 DUP4 GT PUSH2 0x9FB JUMPI DUP3 SWAP1 SUB PUSH1 0x1F AND DUP3 ADD SWAP2 JUMPDEST POP POP POP POP POP SWAP1 DUP1 PUSH1 0x1 ADD SLOAD SWAP1 DUP1 PUSH1 0x2 ADD PUSH1 0x0 SWAP1 SLOAD SWAP1 PUSH2 0x100 EXP SWAP1 DIV PUSH20 0xFFFFFFFFFFFFFFFFFFFFFFFFFFFFFFFFFFFFFFFF AND SWAP1 DUP1 PUSH1 0x2 ADD PUSH1 0x14 SWAP1 SLOAD SWAP1 PUSH2 0x100 EXP SWAP1 DIV PUSH1 0xFF AND SWAP1 DUP1 PUSH1 0x3 ADD SLOAD SWAP1 POP DUP6 JUMP JUMPDEST PUSH1 0x6 PUSH1 0x0 SWAP1 SLOAD SWAP1 PUSH2 0x100 EXP SWAP1 DIV PUSH20 0xFFFFFFFFFFFFFFFFFFFFFFFFFFFFFFFFFFFFFFFF AND PUSH20 0xFFFFFFFFFFFFFFFFFFFFFFFFFFFFFFFFFFFFFFFF AND CALLER PUSH20 0xFFFFFFFFFFFFFFFFFFFFFFFFFFFFFFFFFFFFFFFF AND EQ PUSH2 0xAC1 JUMPI PUSH1 0x0 DUP1 REVERT JUMPDEST PUSH1 0x0 PUSH1 0x5 PUSH1 0x0 PUSH1 0x4 PUSH1 0x0 DUP2 SLOAD DUP1 SWAP3 SWAP2 SWAP1 PUSH2 0xADA SWAP1 PUSH2 0x14BF JUMP JUMPDEST SWAP2 SWAP1 POP SSTORE DUP2 MSTORE PUSH1 0x20 ADD SWAP1 DUP2 MSTORE PUSH1 0x20 ADD PUSH1 0x0 KECCAK256 SWAP1 POP DUP4 DUP2 PUSH1 0x0 ADD SWAP1 DUP1 MLOAD SWAP1 PUSH1 0x20 ADD SWAP1 PUSH2 0xB06 SWAP3 SWAP2 SWAP1 PUSH2 0xEE5 JUMP JUMPDEST POP DUP3 DUP2 PUSH1 0x1 ADD DUP2 SWAP1 SSTORE POP DUP2 DUP2 PUSH1 0x2 ADD PUSH1 0x0 PUSH2 0x100 EXP DUP2 SLOAD DUP2 PUSH20 0xFFFFFFFFFFFFFFFFFFFFFFFFFFFFFFFFFFFFFFFF MUL NOT AND SWAP1 DUP4 PUSH20 0xFFFFFFFFFFFFFFFFFFFFFFFFFFFFFFFFFFFFFFFF AND MUL OR SWAP1 SSTORE POP PUSH1 0x0 DUP2 PUSH1 0x2 ADD PUSH1 0x14 PUSH2 0x100 EXP DUP2 SLOAD DUP2 PUSH1 0xFF MUL NOT AND SWAP1 DUP4 ISZERO ISZERO MUL OR SWAP1 SSTORE POP PUSH1 0x0 DUP2 PUSH1 0x3 ADD DUP2 SWAP1 SSTORE POP POP POP POP POP JUMP JUMPDEST PUSH1 0x4 SLOAD DUP2 JUMP JUMPDEST PUSH1 0x3 DUP1 SLOAD PUSH2 0xB93 SWAP1 PUSH2 0x145C JUMP JUMPDEST DUP1 PUSH1 0x1F ADD PUSH1 0x20 DUP1 SWAP2 DIV MUL PUSH1 0x20 ADD PUSH1 0x40 MLOAD SWAP1 DUP2 ADD PUSH1 0x40 MSTORE DUP1 SWAP3 SWAP2 SWAP1 DUP2 DUP2 MSTORE PUSH1 0x20 ADD DUP3 DUP1 SLOAD PUSH2 0xBBF SWAP1 PUSH2 0x145C JUMP JUMPDEST DUP1 ISZERO PUSH2 0xC0C JUMPI DUP1 PUSH1 0x1F LT PUSH2 0xBE1 JUMPI PUSH2 0x100 DUP1 DUP4 SLOAD DIV MUL DUP4 MSTORE SWAP2 PUSH1 0x20 ADD SWAP2 PUSH2 0xC0C JUMP JUMPDEST DUP3 ADD SWAP2 SWAP1 PUSH1 0x0 MSTORE PUSH1 0x20 PUSH1 0x0 KECCAK256 SWAP1 JUMPDEST DUP2 SLOAD DUP2 MSTORE SWAP1 PUSH1 0x1 ADD SWAP1 PUSH1 0x20 ADD DUP1 DUP4 GT PUSH2 0xBEF JUMPI DUP3 SWAP1 SUB PUSH1 0x1F AND DUP3 ADD SWAP2 JUMPDEST POP POP POP POP POP DUP2 JUMP JUMPDEST PUSH1 0x9 SLOAD CALLVALUE LT ISZERO PUSH2 0xC23 JUMPI PUSH1 0x0 DUP1 REVERT JUMPDEST PUSH1 0x0 PUSH1 0x8 PUSH1 0x0 CALLER PUSH20 0xFFFFFFFFFFFFFFFFFFFFFFFFFFFFFFFFFFFFFFFF AND PUSH20 0xFFFFFFFFFFFFFFFFFFFFFFFFFFFFFFFFFFFFFFFF AND DUP2 MSTORE PUSH1 0x20 ADD SWAP1 DUP2 MSTORE PUSH1 0x20 ADD PUSH1 0x0 KECCAK256 SLOAD EQ ISZERO PUSH2 0xC84 JUMPI PUSH1 0x7 PUSH1 0x0 DUP2 SLOAD DUP1 SWAP3 SWAP2 SWAP1 PUSH2 0xC7E SWAP1 PUSH2 0x14BF JUMP JUMPDEST SWAP2 SWAP1 POP SSTORE POP JUMPDEST PUSH1 0x0 PUSH1 0x9 SLOAD CALLVALUE PUSH2 0xC94 SWAP2 SWAP1 PUSH2 0x138F JUMP JUMPDEST SWAP1 POP DUP1 PUSH1 0x8 PUSH1 0x0 CALLER PUSH20 0xFFFFFFFFFFFFFFFFFFFFFFFFFFFFFFFFFFFFFFFF AND PUSH20 0xFFFFFFFFFFFFFFFFFFFFFFFFFFFFFFFFFFFFFFFF AND DUP2 MSTORE PUSH1 0x20 ADD SWAP1 DUP2 MSTORE PUSH1 0x20 ADD PUSH1 0x0 KECCAK256 PUSH1 0x0 DUP3 DUP3 SLOAD PUSH2 0xCE5 SWAP2 SWAP1 PUSH2 0x1339 JUMP JUMPDEST SWAP3 POP POP DUP2 SWAP1 SSTORE POP DUP1 PUSH1 0xA PUSH1 0x0 DUP3 DUP3 SLOAD PUSH2 0xCFE SWAP2 SWAP1 PUSH2 0x1339 JUMP JUMPDEST SWAP3 POP POP DUP2 SWAP1 SSTORE POP PUSH1 0x0 PUSH1 0x9 SLOAD CALLVALUE PUSH2 0xD15 SWAP2 SWAP1 PUSH2 0x1508 JUMP JUMPDEST SWAP1 POP PUSH1 0x0 DUP2 EQ PUSH2 0xD6D JUMPI PUSH1 0x0 CALLER SWAP1 POP DUP1 PUSH20 0xFFFFFFFFFFFFFFFFFFFFFFFFFFFFFFFFFFFFFFFF AND PUSH2 0x8FC DUP4 SWAP1 DUP2 ISZERO MUL SWAP1 PUSH1 0x40 MLOAD PUSH1 0x0 PUSH1 0x40 MLOAD DUP1 DUP4 SUB DUP2 DUP6 DUP9 DUP9 CALL SWAP4 POP POP POP POP ISZERO DUP1 ISZERO PUSH2 0xD6A JUMPI RETURNDATASIZE PUSH1 0x0 DUP1 RETURNDATACOPY RETURNDATASIZE PUSH1 0x0 REVERT JUMPDEST POP POP JUMPDEST POP POP JUMP JUMPDEST PUSH1 0x0 PUSH1 0x5 PUSH1 0x0 DUP4 DUP2 MSTORE PUSH1 0x20 ADD SWAP1 DUP2 MSTORE PUSH1 0x20 ADD PUSH1 0x0 KECCAK256 SWAP1 POP PUSH1 0x0 PUSH1 0x8 PUSH1 0x0 CALLER PUSH20 0xFFFFFFFFFFFFFFFFFFFFFFFFFFFFFFFFFFFFFFFF AND PUSH20 0xFFFFFFFFFFFFFFFFFFFFFFFFFFFFFFFFFFFFFFFF AND DUP2 MSTORE PUSH1 0x20 ADD SWAP1 DUP2 MSTORE PUSH1 0x20 ADD PUSH1 0x0 KECCAK256 SLOAD GT PUSH2 0xDD4 JUMPI PUSH1 0x0 DUP1 REVERT JUMPDEST DUP1 PUSH1 0x4 ADD PUSH1 0x0 CALLER PUSH20 0xFFFFFFFFFFFFFFFFFFFFFFFFFFFFFFFFFFFFFFFF AND PUSH20 0xFFFFFFFFFFFFFFFFFFFFFFFFFFFFFFFFFFFFFFFF AND DUP2 MSTORE PUSH1 0x20 ADD SWAP1 DUP2 MSTORE PUSH1 0x20 ADD PUSH1 0x0 KECCAK256 PUSH1 0x0 SWAP1 SLOAD SWAP1 PUSH2 0x100 EXP SWAP1 DIV PUSH1 0xFF AND ISZERO PUSH2 0xE2D JUMPI PUSH1 0x0 DUP1 REVERT JUMPDEST PUSH1 0x1 DUP2 PUSH1 0x4 ADD PUSH1 0x0 CALLER PUSH20 0xFFFFFFFFFFFFFFFFFFFFFFFFFFFFFFFFFFFFFFFF AND PUSH20 0xFFFFFFFFFFFFFFFFFFFFFFFFFFFFFFFFFFFFFFFF AND DUP2 MSTORE PUSH1 0x20 ADD SWAP1 DUP2 MSTORE PUSH1 0x20 ADD PUSH1 0x0 KECCAK256 PUSH1 0x0 PUSH2 0x100 EXP DUP2 SLOAD DUP2 PUSH1 0xFF MUL NOT AND SWAP1 DUP4 ISZERO ISZERO MUL OR SWAP1 SSTORE POP PUSH1 0x8 PUSH1 0x0 CALLER PUSH20 0xFFFFFFFFFFFFFFFFFFFFFFFFFFFFFFFFFFFFFFFF AND PUSH20 0xFFFFFFFFFFFFFFFFFFFFFFFFFFFFFFFFFFFFFFFF AND DUP2 MSTORE PUSH1 0x20 ADD SWAP1 DUP2 MSTORE PUSH1 0x20 ADD PUSH1 0x0 KECCAK256 SLOAD DUP2 PUSH1 0x3 ADD PUSH1 0x0 DUP3 DUP3 SLOAD PUSH2 0xEDA SWAP2 SWAP1 PUSH2 0x1339 JUMP JUMPDEST SWAP3 POP POP DUP2 SWAP1 SSTORE POP POP POP JUMP JUMPDEST DUP3 DUP1 SLOAD PUSH2 0xEF1 SWAP1 PUSH2 0x145C JUMP JUMPDEST SWAP1 PUSH1 0x0 MSTORE PUSH1 0x20 PUSH1 0x0 KECCAK256 SWAP1 PUSH1 0x1F ADD PUSH1 0x20 SWAP1 DIV DUP2 ADD SWAP3 DUP3 PUSH2 0xF13 JUMPI PUSH1 0x0 DUP6 SSTORE PUSH2 0xF5A JUMP JUMPDEST DUP3 PUSH1 0x1F LT PUSH2 0xF2C JUMPI DUP1 MLOAD PUSH1 0xFF NOT AND DUP4 DUP1 ADD OR DUP6 SSTORE PUSH2 0xF5A JUMP JUMPDEST DUP3 DUP1 ADD PUSH1 0x1 ADD DUP6 SSTORE DUP3 ISZERO PUSH2 0xF5A JUMPI SWAP2 DUP3 ADD JUMPDEST DUP3 DUP2 GT ISZERO PUSH2 0xF59 JUMPI DUP3 MLOAD DUP3 SSTORE SWAP2 PUSH1 0x20 ADD SWAP2 SWAP1 PUSH1 0x1 ADD SWAP1 PUSH2 0xF3E JUMP JUMPDEST JUMPDEST POP SWAP1 POP PUSH2 0xF67 SWAP2 SWAP1 PUSH2 0xF6B JUMP JUMPDEST POP SWAP1 JUMP JUMPDEST JUMPDEST DUP1 DUP3 GT ISZERO PUSH2 0xF84 JUMPI PUSH1 0x0 DUP2 PUSH1 0x0 SWAP1 SSTORE POP PUSH1 0x1 ADD PUSH2 0xF6C JUMP JUMPDEST POP SWAP1 JUMP JUMPDEST PUSH1 0x0 PUSH2 0xF9B PUSH2 0xF96 DUP5 PUSH2 0x12EC JUMP JUMPDEST PUSH2 0x12C7 JUMP JUMPDEST SWAP1 POP DUP3 DUP2 MSTORE PUSH1 0x20 DUP2 ADD DUP5 DUP5 DUP5 ADD GT ISZERO PUSH2 0xFB3 JUMPI PUSH1 0x0 DUP1 REVERT JUMPDEST PUSH2 0xFBE DUP5 DUP3 DUP6 PUSH2 0x141A JUMP JUMPDEST POP SWAP4 SWAP3 POP POP POP JUMP JUMPDEST PUSH1 0x0 DUP2 CALLDATALOAD SWAP1 POP PUSH2 0xFD5 DUP2 PUSH2 0x1606 JUMP JUMPDEST SWAP3 SWAP2 POP POP JUMP JUMPDEST PUSH1 0x0 DUP2 CALLDATALOAD SWAP1 POP PUSH2 0xFEA DUP2 PUSH2 0x161D JUMP JUMPDEST SWAP3 SWAP2 POP POP JUMP JUMPDEST PUSH1 0x0 DUP3 PUSH1 0x1F DUP4 ADD SLT PUSH2 0x1001 JUMPI PUSH1 0x0 DUP1 REVERT JUMPDEST DUP2 CALLDATALOAD PUSH2 0x1011 DUP5 DUP3 PUSH1 0x20 DUP7 ADD PUSH2 0xF88 JUMP JUMPDEST SWAP2 POP POP SWAP3 SWAP2 POP POP JUMP JUMPDEST PUSH1 0x0 DUP2 CALLDATALOAD SWAP1 POP PUSH2 0x1029 DUP2 PUSH2 0x1634 JUMP JUMPDEST SWAP3 SWAP2 POP POP JUMP JUMPDEST PUSH1 0x0 PUSH1 0x20 DUP3 DUP5 SUB SLT ISZERO PUSH2 0x1041 JUMPI PUSH1 0x0 DUP1 REVERT JUMPDEST PUSH1 0x0 PUSH2 0x104F DUP5 DUP3 DUP6 ADD PUSH2 0xFC6 JUMP JUMPDEST SWAP2 POP POP SWAP3 SWAP2 POP POP JUMP JUMPDEST PUSH1 0x0 DUP1 PUSH1 0x0 PUSH1 0x60 DUP5 DUP7 SUB SLT ISZERO PUSH2 0x106D JUMPI PUSH1 0x0 DUP1 REVERT JUMPDEST PUSH1 0x0 DUP5 ADD CALLDATALOAD PUSH8 0xFFFFFFFFFFFFFFFF DUP2 GT ISZERO PUSH2 0x1087 JUMPI PUSH1 0x0 DUP1 REVERT JUMPDEST PUSH2 0x1093 DUP7 DUP3 DUP8 ADD PUSH2 0xFF0 JUMP JUMPDEST SWAP4 POP POP PUSH1 0x20 PUSH2 0x10A4 DUP7 DUP3 DUP8 ADD PUSH2 0x101A JUMP JUMPDEST SWAP3 POP POP PUSH1 0x40 PUSH2 0x10B5 DUP7 DUP3 DUP8 ADD PUSH2 0xFDB JUMP JUMPDEST SWAP2 POP POP SWAP3 POP SWAP3 POP SWAP3 JUMP JUMPDEST PUSH1 0x0 PUSH1 0x20 DUP3 DUP5 SUB SLT ISZERO PUSH2 0x10D1 JUMPI PUSH1 0x0 DUP1 REVERT JUMPDEST PUSH1 0x0 PUSH2 0x10DF DUP5 DUP3 DUP6 ADD PUSH2 0x101A JUMP JUMPDEST SWAP2 POP POP SWAP3 SWAP2 POP POP JUMP JUMPDEST PUSH2 0x10F1 DUP2 PUSH2 0x13D2 JUMP JUMPDEST DUP3 MSTORE POP POP JUMP JUMPDEST PUSH2 0x1100 DUP2 PUSH2 0x13C0 JUMP JUMPDEST DUP3 MSTORE POP POP JUMP JUMPDEST PUSH2 0x110F DUP2 PUSH2 0x13E4 JUMP JUMPDEST DUP3 MSTORE POP POP JUMP JUMPDEST PUSH1 0x0 PUSH2 0x1120 DUP3 PUSH2 0x131D JUMP JUMPDEST PUSH2 0x112A DUP2 DUP6 PUSH2 0x1328 JUMP JUMPDEST SWAP4 POP PUSH2 0x113A DUP2 DUP6 PUSH1 0x20 DUP7 ADD PUSH2 0x1429 JUMP JUMPDEST PUSH2 0x1143 DUP2 PUSH2 0x15F5 JUMP JUMPDEST DUP5 ADD SWAP2 POP POP SWAP3 SWAP2 POP POP JUMP JUMPDEST PUSH2 0x1157 DUP2 PUSH2 0x1410 JUMP JUMPDEST DUP3 MSTORE POP POP JUMP JUMPDEST PUSH1 0x0 PUSH1 0x20 DUP3 ADD SWAP1 POP PUSH2 0x1172 PUSH1 0x0 DUP4 ADD DUP5 PUSH2 0x10F7 JUMP JUMPDEST SWAP3 SWAP2 POP POP JUMP JUMPDEST PUSH1 0x0 PUSH1 0x20 DUP3 ADD SWAP1 POP DUP2 DUP2 SUB PUSH1 0x0 DUP4 ADD MSTORE PUSH2 0x1192 DUP2 DUP5 PUSH2 0x1115 JUMP JUMPDEST SWAP1 POP SWAP3 SWAP2 POP POP JUMP JUMPDEST PUSH1 0x0 PUSH2 0x140 DUP3 ADD SWAP1 POP DUP2 DUP2 SUB PUSH1 0x0 DUP4 ADD MSTORE PUSH2 0x11B5 DUP2 DUP14 PUSH2 0x1115 JUMP JUMPDEST SWAP1 POP DUP2 DUP2 SUB PUSH1 0x20 DUP4 ADD MSTORE PUSH2 0x11C9 DUP2 DUP13 PUSH2 0x1115 JUMP JUMPDEST SWAP1 POP DUP2 DUP2 SUB PUSH1 0x40 DUP4 ADD MSTORE PUSH2 0x11DD DUP2 DUP12 PUSH2 0x1115 JUMP JUMPDEST SWAP1 POP DUP2 DUP2 SUB PUSH1 0x60 DUP4 ADD MSTORE PUSH2 0x11F1 DUP2 DUP11 PUSH2 0x1115 JUMP JUMPDEST SWAP1 POP PUSH2 0x1200 PUSH1 0x80 DUP4 ADD DUP10 PUSH2 0x114E JUMP JUMPDEST PUSH2 0x120D PUSH1 0xA0 DUP4 ADD DUP9 PUSH2 0x114E JUMP JUMPDEST PUSH2 0x121A PUSH1 0xC0 DUP4 ADD DUP8 PUSH2 0x114E JUMP JUMPDEST PUSH2 0x1227 PUSH1 0xE0 DUP4 ADD DUP7 PUSH2 0x114E JUMP JUMPDEST PUSH2 0x1235 PUSH2 0x100 DUP4 ADD DUP6 PUSH2 0x10F7 JUMP JUMPDEST PUSH2 0x1243 PUSH2 0x120 DUP4 ADD DUP5 PUSH2 0x10F7 JUMP JUMPDEST SWAP12 SWAP11 POP POP POP POP POP POP POP POP POP POP POP JUMP JUMPDEST PUSH1 0x0 PUSH1 0xA0 DUP3 ADD SWAP1 POP DUP2 DUP2 SUB PUSH1 0x0 DUP4 ADD MSTORE PUSH2 0x126C DUP2 DUP9 PUSH2 0x1115 JUMP JUMPDEST SWAP1 POP PUSH2 0x127B PUSH1 0x20 DUP4 ADD DUP8 PUSH2 0x114E JUMP JUMPDEST PUSH2 0x1288 PUSH1 0x40 DUP4 ADD DUP7 PUSH2 0x10E8 JUMP JUMPDEST PUSH2 0x1295 PUSH1 0x60 DUP4 ADD DUP6 PUSH2 0x1106 JUMP JUMPDEST PUSH2 0x12A2 PUSH1 0x80 DUP4 ADD DUP5 PUSH2 0x114E JUMP JUMPDEST SWAP7 SWAP6 POP POP POP POP POP POP JUMP JUMPDEST PUSH1 0x0 PUSH1 0x20 DUP3 ADD SWAP1 POP PUSH2 0x12C1 PUSH1 0x0 DUP4 ADD DUP5 PUSH2 0x114E JUMP JUMPDEST SWAP3 SWAP2 POP POP JUMP JUMPDEST PUSH1 0x0 PUSH2 0x12D1 PUSH2 0x12E2 JUMP JUMPDEST SWAP1 POP PUSH2 0x12DD DUP3 DUP3 PUSH2 0x148E JUMP JUMPDEST SWAP2 SWAP1 POP JUMP JUMPDEST PUSH1 0x0 PUSH1 0x40 MLOAD SWAP1 POP SWAP1 JUMP JUMPDEST PUSH1 0x0 PUSH8 0xFFFFFFFFFFFFFFFF DUP3 GT ISZERO PUSH2 0x1307 JUMPI PUSH2 0x1306 PUSH2 0x15C6 JUMP JUMPDEST JUMPDEST PUSH2 0x1310 DUP3 PUSH2 0x15F5 JUMP JUMPDEST SWAP1 POP PUSH1 0x20 DUP2 ADD SWAP1 POP SWAP2 SWAP1 POP JUMP JUMPDEST PUSH1 0x0 DUP2 MLOAD SWAP1 POP SWAP2 SWAP1 POP JUMP JUMPDEST PUSH1 0x0 DUP3 DUP3 MSTORE PUSH1 0x20 DUP3 ADD SWAP1 POP SWAP3 SWAP2 POP POP JUMP JUMPDEST PUSH1 0x0 PUSH2 0x1344 DUP3 PUSH2 0x1410 JUMP JUMPDEST SWAP2 POP PUSH2 0x134F DUP4 PUSH2 0x1410 JUMP JUMPDEST SWAP3 POP DUP3 PUSH32 0xFFFFFFFFFFFFFFFFFFFFFFFFFFFFFFFFFFFFFFFFFFFFFFFFFFFFFFFFFFFFFFFF SUB DUP3 GT ISZERO PUSH2 0x1384 JUMPI PUSH2 0x1383 PUSH2 0x1539 JUMP JUMPDEST JUMPDEST DUP3 DUP3 ADD SWAP1 POP SWAP3 SWAP2 POP POP JUMP JUMPDEST PUSH1 0x0 PUSH2 0x139A DUP3 PUSH2 0x1410 JUMP JUMPDEST SWAP2 POP PUSH2 0x13A5 DUP4 PUSH2 0x1410 JUMP JUMPDEST SWAP3 POP DUP3 PUSH2 0x13B5 JUMPI PUSH2 0x13B4 PUSH2 0x1568 JUMP JUMPDEST JUMPDEST DUP3 DUP3 DIV SWAP1 POP SWAP3 SWAP2 POP POP JUMP JUMPDEST PUSH1 0x0 PUSH2 0x13CB DUP3 PUSH2 0x13F0 JUMP JUMPDEST SWAP1 POP SWAP2 SWAP1 POP JUMP JUMPDEST PUSH1 0x0 PUSH2 0x13DD DUP3 PUSH2 0x13F0 JUMP JUMPDEST SWAP1 POP SWAP2 SWAP1 POP JUMP JUMPDEST PUSH1 0x0 DUP2 ISZERO ISZERO SWAP1 POP SWAP2 SWAP1 POP JUMP JUMPDEST PUSH1 0x0 PUSH20 0xFFFFFFFFFFFFFFFFFFFFFFFFFFFFFFFFFFFFFFFF DUP3 AND SWAP1 POP SWAP2 SWAP1 POP JUMP JUMPDEST PUSH1 0x0 DUP2 SWAP1 POP SWAP2 SWAP1 POP JUMP JUMPDEST DUP3 DUP2 DUP4 CALLDATACOPY PUSH1 0x0 DUP4 DUP4 ADD MSTORE POP POP POP JUMP JUMPDEST PUSH1 0x0 JUMPDEST DUP4 DUP2 LT ISZERO PUSH2 0x1447 JUMPI DUP1 DUP3 ADD MLOAD DUP2 DUP5 ADD MSTORE PUSH1 0x20 DUP2 ADD SWAP1 POP PUSH2 0x142C JUMP JUMPDEST DUP4 DUP2 GT ISZERO PUSH2 0x1456 JUMPI PUSH1 0x0 DUP5 DUP5 ADD MSTORE JUMPDEST POP POP POP POP JUMP JUMPDEST PUSH1 0x0 PUSH1 0x2 DUP3 DIV SWAP1 POP PUSH1 0x1 DUP3 AND DUP1 PUSH2 0x1474 JUMPI PUSH1 0x7F DUP3 AND SWAP2 POP JUMPDEST PUSH1 0x20 DUP3 LT DUP2 EQ ISZERO PUSH2 0x1488 JUMPI PUSH2 0x1487 PUSH2 0x1597 JUMP JUMPDEST JUMPDEST POP SWAP2 SWAP1 POP JUMP JUMPDEST PUSH2 0x1497 DUP3 PUSH2 0x15F5 JUMP JUMPDEST DUP2 ADD DUP2 DUP2 LT PUSH8 0xFFFFFFFFFFFFFFFF DUP3 GT OR ISZERO PUSH2 0x14B6 JUMPI PUSH2 0x14B5 PUSH2 0x15C6 JUMP JUMPDEST JUMPDEST DUP1 PUSH1 0x40 MSTORE POP POP POP JUMP JUMPDEST PUSH1 0x0 PUSH2 0x14CA DUP3 PUSH2 0x1410 JUMP JUMPDEST SWAP2 POP PUSH32 0xFFFFFFFFFFFFFFFFFFFFFFFFFFFFFFFFFFFFFFFFFFFFFFFFFFFFFFFFFFFFFFFF DUP3 EQ ISZERO PUSH2 0x14FD JUMPI PUSH2 0x14FC PUSH2 0x1539 JUMP JUMPDEST JUMPDEST PUSH1 0x1 DUP3 ADD SWAP1 POP SWAP2 SWAP1 POP JUMP JUMPDEST PUSH1 0x0 PUSH2 0x1513 DUP3 PUSH2 0x1410 JUMP JUMPDEST SWAP2 POP PUSH2 0x151E DUP4 PUSH2 0x1410 JUMP JUMPDEST SWAP3 POP DUP3 PUSH2 0x152E JUMPI PUSH2 0x152D PUSH2 0x1568 JUMP JUMPDEST JUMPDEST DUP3 DUP3 MOD SWAP1 POP SWAP3 SWAP2 POP POP JUMP JUMPDEST PUSH32 0x4E487B7100000000000000000000000000000000000000000000000000000000 PUSH1 0x0 MSTORE PUSH1 0x11 PUSH1 0x4 MSTORE PUSH1 0x24 PUSH1 0x0 REVERT JUMPDEST PUSH32 0x4E487B7100000000000000000000000000000000000000000000000000000000 PUSH1 0x0 MSTORE PUSH1 0x12 PUSH1 0x4 MSTORE PUSH1 0x24 PUSH1 0x0 REVERT JUMPDEST PUSH32 0x4E487B7100000000000000000000000000000000000000000000000000000000 PUSH1 0x0 MSTORE PUSH1 0x22 PUSH1 0x4 MSTORE PUSH1 0x24 PUSH1 0x0 REVERT JUMPDEST PUSH32 0x4E487B7100000000000000000000000000000000000000000000000000000000 PUSH1 0x0 MSTORE PUSH1 0x41 PUSH1 0x4 MSTORE PUSH1 0x24 PUSH1 0x0 REVERT JUMPDEST PUSH1 0x0 PUSH1 0x1F NOT PUSH1 0x1F DUP4 ADD AND SWAP1 POP SWAP2 SWAP1 POP JUMP JUMPDEST PUSH2 0x160F DUP2 PUSH2 0x13C0 JUMP JUMPDEST DUP2 EQ PUSH2 0x161A JUMPI PUSH1 0x0 DUP1 REVERT JUMPDEST POP JUMP JUMPDEST PUSH2 0x1626 DUP2 PUSH2 0x13D2 JUMP JUMPDEST DUP2 EQ PUSH2 0x1631 JUMPI PUSH1 0x0 DUP1 REVERT JUMPDEST POP JUMP JUMPDEST PUSH2 0x163D DUP2 PUSH2 0x1410 JUMP JUMPDEST DUP2 EQ PUSH2 0x1648 JUMPI PUSH1 0x0 DUP1 REVERT JUMPDEST POP JUMP INVALID LOG2 PUSH5 0x6970667358 0x22 SLT KECCAK256 0x24 0xCC CALLCODE 0xD4 0xEC 0xC1 PUSH28 0x53C3758D6D22EAF176DC8E4ADB5B16F30D94B161289BB2029364736F PUSH13 0x63430008030033000000000000 "},"gasEstimates":{"creation":{"codeDepositCost":"1152200","executionCost":"infinite","totalCost":"infinite"},"external":{"approveRequest(uint256)":"infinite","approvers(address)":"1582","contribute()":"infinite","createRequest(string,uint256,address)":"infinite","credits()":"1152","description()":"infinite","finalizeRequest(uint256)":"infinite","getSummary()":"infinite","imageURL()":"infinite","manager()":"1281","name()":"infinite","numRequests()":"1151","numUniqueApprovers()":"1174","oneCreditValue()":"1218","requests(uint256)":"infinite","shortDescription()":"infinite"}},"methodIdentifiers":{"approveRequest(uint256)":"d7d1bbdb","approvers(address)":"0a144391","contribute()":"d7bb99ba","createRequest(string,uint256,address)":"8a9cfd55","credits()":"26540fd2","description()":"7284e416","finalizeRequest(uint256)":"03441006","getSummary()":"4051ddac","imageURL()":"b90497e0","manager()":"481c6a75","name()":"06fdde03","numRequests()":"9fb42b1f","numUniqueApprovers()":"7554e42f","oneCreditValue()":"59af7a13","requests(uint256)":"81d12c58","shortDescription()":"1da98960"}},"storageLayout":{"storage":[{"astId":68,"contract":"Idea.sol:Idea","label":"name","offset":0,"slot":"0","type":"t_string_storage"},{"astId":70,"contract":"Idea.sol:Idea","label":"shortDescription","offset":0,"slot":"1","type":"t_string_storage"},{"astId":72,"contract":"Idea.sol:Idea","label":"description","offset":0,"slot":"2","type":"t_string_storage"},{"astId":74,"contract":"Idea.sol:Idea","label":"imageURL","offset":0,"slot":"3","type":"t_string_storage"},{"astId":76,"contract":"Idea.sol:Idea","label":"numRequests","offset":0,"slot":"4","type":"t_uint256"},{"astId":81,"contract":"Idea.sol:Idea","label":"requests","offset":0,"slot":"5","type":"t_mapping(t_uint256,t_struct(Request)66_storage)"},{"astId":83,"contract":"Idea.sol:Idea","label":"manager","offset":0,"slot":"6","type":"t_address"},{"astId":85,"contract":"Idea.sol:Idea","label":"numUniqueApprovers","offset":0,"slot":"7","type":"t_uint256"},{"astId":89,"contract":"Idea.sol:Idea","label":"approvers","offset":0,"slot":"8","type":"t_mapping(t_address,t_uint256)"},{"astId":91,"contract":"Idea.sol:Idea","label":"oneCreditValue","offset":0,"slot":"9","type":"t_uint256"},{"astId":93,"contract":"Idea.sol:Idea","label":"credits","offset":0,"slot":"10","type":"t_uint256"}],"types":{"t_address":{"encoding":"inplace","label":"address","numberOfBytes":"20"},"t_address_payable":{"encoding":"inplace","label":"address payable","numberOfBytes":"20"},"t_bool":{"encoding":"inplace","label":"bool","numberOfBytes":"1"},"t_mapping(t_address,t_bool)":{"encoding":"mapping","key":"t_address","label":"mapping(address => bool)","numberOfBytes":"32","value":"t_bool"},"t_mapping(t_address,t_uint256)":{"encoding":"mapping","key":"t_address","label":"mapping(address => uint256)","numberOfBytes":"32","value":"t_uint256"},"t_mapping(t_uint256,t_struct(Request)66_storage)":{"encoding":"mapping","key":"t_uint256","label":"mapping(uint256 => struct Idea.Request)","numberOfBytes":"32","value":"t_struct(Request)66_storage"},"t_string_storage":{"encoding":"bytes","label":"string","numberOfBytes":"32"},"t_struct(Request)66_storage":{"encoding":"inplace","label":"struct Idea.Request","members":[{"astId":53,"contract":"Idea.sol:Idea","label":"description","offset":0,"slot":"0","type":"t_string_storage"},{"astId":55,"contract":"Idea.sol:Idea","label":"value","offset":0,"slot":"1","type":"t_uint256"},{"astId":57,"contract":"Idea.sol:Idea","label":"recipient","offset":0,"slot":"2","type":"t_address_payable"},{"astId":59,"contract":"Idea.sol:Idea","label":"complete","offset":20,"slot":"2","type":"t_bool"},{"astId":61,"contract":"Idea.sol:Idea","label":"credits","offset":0,"slot":"3","type":"t_uint256"},{"astId":65,"contract":"Idea.sol:Idea","label":"approvals","offset":0,"slot":"4","type":"t_mapping(t_address,t_bool)"}],"numberOfBytes":"160"},"t_uint256":{"encoding":"inplace","label":"uint256","numberOfBytes":"32"}}},"userdoc":{"kind":"user","methods":{},"version":1}}