{"abi":[{"inputs":[{"internalType":"uint256","name":"creditValue","type":"uint256"},{"internalType":"string","name":"ideaName","type":"string"},{"internalType":"string","name":"ideaShortDescription","type":"string"},{"internalType":"string","name":"ideaDescription","type":"string"},{"internalType":"address","name":"sender","type":"address"}],"stateMutability":"nonpayable","type":"constructor"},{"inputs":[{"internalType":"uint256","name":"index","type":"uint256"}],"name":"approveRequest","outputs":[],"stateMutability":"nonpayable","type":"function"},{"inputs":[{"internalType":"address","name":"","type":"address"}],"name":"approvers","outputs":[{"internalType":"uint256","name":"","type":"uint256"}],"stateMutability":"view","type":"function"},{"inputs":[],"name":"contribute","outputs":[],"stateMutability":"payable","type":"function"},{"inputs":[{"internalType":"string","name":"description","type":"string"},{"internalType":"uint256","name":"value","type":"uint256"},{"internalType":"address payable","name":"recipient","type":"address"}],"name":"createRequest","outputs":[],"stateMutability":"nonpayable","type":"function"},{"inputs":[],"name":"credits","outputs":[{"internalType":"uint256","name":"","type":"uint256"}],"stateMutability":"view","type":"function"},{"inputs":[],"name":"description","outputs":[{"internalType":"string","name":"","type":"string"}],"stateMutability":"view","type":"function"},{"inputs":[{"internalType":"uint256","name":"index","type":"uint256"}],"name":"finalizeRequest","outputs":[],"stateMutability":"nonpayable","type":"function"},{"inputs":[],"name":"getSummary","outputs":[{"internalType":"string","name":"","type":"string"},{"internalType":"string","name":"","type":"string"},{"internalType":"string","name":"","type":"string"},{"internalType":"uint256","name":"","type":"uint256"},{"internalType":"uint256","name":"","type":"uint256"},{"internalType":"uint256","name":"","type":"uint256"},{"internalType":"uint256","name":"","type":"uint256"},{"internalType":"address","name":"","type":"address"}],"stateMutability":"view","type":"function"},{"inputs":[],"name":"manager","outputs":[{"internalType":"address","name":"","type":"address"}],"stateMutability":"view","type":"function"},{"inputs":[],"name":"name","outputs":[{"internalType":"string","name":"","type":"string"}],"stateMutability":"view","type":"function"},{"inputs":[],"name":"numRequests","outputs":[{"internalType":"uint256","name":"","type":"uint256"}],"stateMutability":"view","type":"function"},{"inputs":[],"name":"numUniqueApprovers","outputs":[{"internalType":"uint256","name":"","type":"uint256"}],"stateMutability":"view","type":"function"},{"inputs":[],"name":"oneCreditValue","outputs":[{"internalType":"uint256","name":"","type":"uint256"}],"stateMutability":"view","type":"function"},{"inputs":[{"internalType":"uint256","name":"","type":"uint256"}],"name":"requests","outputs":[{"internalType":"string","name":"description","type":"string"},{"internalType":"uint256","name":"value","type":"uint256"},{"internalType":"address payable","name":"recipient","type":"address"},{"internalType":"bool","name":"complete","type":"bool"},{"internalType":"uint256","name":"credits","type":"uint256"}],"stateMutability":"view","type":"function"},{"inputs":[],"name":"shortDescription","outputs":[{"internalType":"string","name":"","type":"string"}],"stateMutability":"view","type":"function"}],"devdoc":{"kind":"dev","methods":{},"version":1},"evm":{"assembly":"    /* \"Idea.sol\":453:3361  contract Idea {... */\n  mstore(0x40, 0x80)\n    /* \"Idea.sol\":1131:1452  constructor(uint creditValue, string memory ideaName, string memory ideaShortDescription, string memory ideaDescription, address sender) {... */\n  callvalue\n  dup1\n  iszero\n  tag_1\n  jumpi\n  0x00\n  dup1\n  revert\ntag_1:\n  pop\n  mload(0x40)\n  sub(codesize, bytecodeSize)\n  dup1\n  bytecodeSize\n  dup4\n  codecopy\n  dup2\n  dup2\n  add\n  0x40\n  mstore\n  dup2\n  add\n  swap1\n  tag_2\n  swap2\n  swap1\n  tag_3\n  jump\t// in\ntag_2:\n    /* \"Idea.sol\":1288:1294  sender */\n  dup1\n    /* \"Idea.sol\":1278:1285  manager */\n  0x05\n  0x00\n    /* \"Idea.sol\":1278:1294  manager = sender */\n  0x0100\n  exp\n  dup2\n  sload\n  dup2\n  0xffffffffffffffffffffffffffffffffffffffff\n  mul\n  not\n  and\n  swap1\n  dup4\n  0xffffffffffffffffffffffffffffffffffffffff\n  and\n  mul\n  or\n  swap1\n  sstore\n  pop\n    /* \"Idea.sol\":1321:1332  creditValue */\n  dup5\n    /* \"Idea.sol\":1304:1318  oneCreditValue */\n  0x08\n    /* \"Idea.sol\":1304:1332  oneCreditValue = creditValue */\n  dup2\n  swap1\n  sstore\n  pop\n    /* \"Idea.sol\":1349:1357  ideaName */\n  dup4\n    /* \"Idea.sol\":1342:1346  name */\n  0x00\n    /* \"Idea.sol\":1342:1357  name = ideaName */\n  swap1\n  dup1\n  mload\n  swap1\n  0x20\n  add\n  swap1\n  tag_6\n  swap3\n  swap2\n  swap1\n  tag_7\n  jump\t// in\ntag_6:\n  pop\n    /* \"Idea.sol\":1386:1406  ideaShortDescription */\n  dup3\n    /* \"Idea.sol\":1367:1383  shortDescription */\n  0x01\n    /* \"Idea.sol\":1367:1406  shortDescription = ideaShortDescription */\n  swap1\n  dup1\n  mload\n  swap1\n  0x20\n  add\n  swap1\n  tag_8\n  swap3\n  swap2\n  swap1\n  tag_7\n  jump\t// in\ntag_8:\n  pop\n    /* \"Idea.sol\":1430:1445  ideaDescription */\n  dup2\n    /* \"Idea.sol\":1416:1427  description */\n  0x02\n    /* \"Idea.sol\":1416:1445  description = ideaDescription */\n  swap1\n  dup1\n  mload\n  swap1\n  0x20\n  add\n  swap1\n  tag_9\n  swap3\n  swap2\n  swap1\n  tag_7\n  jump\t// in\ntag_9:\n  pop\n    /* \"Idea.sol\":1131:1452  constructor(uint creditValue, string memory ideaName, string memory ideaShortDescription, string memory ideaDescription, address sender) {... */\n  pop\n  pop\n  pop\n  pop\n  pop\n    /* \"Idea.sol\":453:3361  contract Idea {... */\n  jump(tag_10)\ntag_7:\n  dup3\n  dup1\n  sload\n  tag_11\n  swap1\n  tag_12\n  jump\t// in\ntag_11:\n  swap1\n  0x00\n  mstore\n  keccak256(0x00, 0x20)\n  swap1\n  0x1f\n  add\n  0x20\n  swap1\n  div\n  dup2\n  add\n  swap3\n  dup3\n  tag_14\n  jumpi\n  0x00\n  dup6\n  sstore\n  jump(tag_13)\ntag_14:\n  dup3\n  0x1f\n  lt\n  tag_15\n  jumpi\n  dup1\n  mload\n  not(0xff)\n  and\n  dup4\n  dup1\n  add\n  or\n  dup6\n  sstore\n  jump(tag_13)\ntag_15:\n  dup3\n  dup1\n  add\n  0x01\n  add\n  dup6\n  sstore\n  dup3\n  iszero\n  tag_13\n  jumpi\n  swap2\n  dup3\n  add\ntag_16:\n  dup3\n  dup2\n  gt\n  iszero\n  tag_17\n  jumpi\n  dup3\n  mload\n  dup3\n  sstore\n  swap2\n  0x20\n  add\n  swap2\n  swap1\n  0x01\n  add\n  swap1\n  jump(tag_16)\ntag_17:\ntag_13:\n  pop\n  swap1\n  pop\n  tag_18\n  swap2\n  swap1\n  tag_19\n  jump\t// in\ntag_18:\n  pop\n  swap1\n  jump\t// out\ntag_19:\ntag_20:\n  dup1\n  dup3\n  gt\n  iszero\n  tag_21\n  jumpi\n  0x00\n  dup2\n  0x00\n  swap1\n  sstore\n  pop\n  0x01\n  add\n  jump(tag_20)\ntag_21:\n  pop\n  swap1\n  jump\t// out\n    /* \"#utility.yul\":7:361   */\ntag_23:\n  0x00\n    /* \"#utility.yul\":121:187   */\n  tag_25\n    /* \"#utility.yul\":137:186   */\n  tag_26\n    /* \"#utility.yul\":179:185   */\n  dup5\n    /* \"#utility.yul\":137:186   */\n  tag_27\n  jump\t// in\ntag_26:\n    /* \"#utility.yul\":121:187   */\n  tag_28\n  jump\t// in\ntag_25:\n    /* \"#utility.yul\":112:187   */\n  swap1\n  pop\n    /* \"#utility.yul\":210:216   */\n  dup3\n    /* \"#utility.yul\":203:208   */\n  dup2\n    /* \"#utility.yul\":196:217   */\n  mstore\n    /* \"#utility.yul\":248:252   */\n  0x20\n    /* \"#utility.yul\":241:246   */\n  dup2\n    /* \"#utility.yul\":237:253   */\n  add\n    /* \"#utility.yul\":286:289   */\n  dup5\n    /* \"#utility.yul\":277:283   */\n  dup5\n    /* \"#utility.yul\":272:275   */\n  dup5\n    /* \"#utility.yul\":268:284   */\n  add\n    /* \"#utility.yul\":265:290   */\n  gt\n    /* \"#utility.yul\":262:264   */\n  iszero\n  tag_29\n  jumpi\n    /* \"#utility.yul\":303:304   */\n  0x00\n    /* \"#utility.yul\":300:301   */\n  dup1\n    /* \"#utility.yul\":293:305   */\n  revert\n    /* \"#utility.yul\":262:264   */\ntag_29:\n    /* \"#utility.yul\":316:355   */\n  tag_30\n    /* \"#utility.yul\":348:354   */\n  dup5\n    /* \"#utility.yul\":343:346   */\n  dup3\n    /* \"#utility.yul\":338:341   */\n  dup6\n    /* \"#utility.yul\":316:355   */\n  tag_31\n  jump\t// in\ntag_30:\n    /* \"#utility.yul\":102:361   */\n  pop\n  swap4\n  swap3\n  pop\n  pop\n  pop\n  jump\t// out\n    /* \"#utility.yul\":367:510   */\ntag_32:\n  0x00\n    /* \"#utility.yul\":455:461   */\n  dup2\n    /* \"#utility.yul\":449:462   */\n  mload\n    /* \"#utility.yul\":440:462   */\n  swap1\n  pop\n    /* \"#utility.yul\":471:504   */\n  tag_34\n    /* \"#utility.yul\":498:503   */\n  dup2\n    /* \"#utility.yul\":471:504   */\n  tag_35\n  jump\t// in\ntag_34:\n    /* \"#utility.yul\":430:510   */\n  swap3\n  swap2\n  pop\n  pop\n  jump\t// out\n    /* \"#utility.yul\":530:818   */\ntag_36:\n  0x00\n    /* \"#utility.yul\":646:649   */\n  dup3\n    /* \"#utility.yul\":639:643   */\n  0x1f\n    /* \"#utility.yul\":631:637   */\n  dup4\n    /* \"#utility.yul\":627:644   */\n  add\n    /* \"#utility.yul\":623:650   */\n  slt\n    /* \"#utility.yul\":613:615   */\n  tag_38\n  jumpi\n    /* \"#utility.yul\":664:665   */\n  0x00\n    /* \"#utility.yul\":661:662   */\n  dup1\n    /* \"#utility.yul\":654:666   */\n  revert\n    /* \"#utility.yul\":613:615   */\ntag_38:\n    /* \"#utility.yul\":697:703   */\n  dup2\n    /* \"#utility.yul\":691:704   */\n  mload\n    /* \"#utility.yul\":722:812   */\n  tag_39\n    /* \"#utility.yul\":808:811   */\n  dup5\n    /* \"#utility.yul\":800:806   */\n  dup3\n    /* \"#utility.yul\":793:797   */\n  0x20\n    /* \"#utility.yul\":785:791   */\n  dup7\n    /* \"#utility.yul\":781:798   */\n  add\n    /* \"#utility.yul\":722:812   */\n  tag_23\n  jump\t// in\ntag_39:\n    /* \"#utility.yul\":713:812   */\n  swap2\n  pop\n    /* \"#utility.yul\":603:818   */\n  pop\n  swap3\n  swap2\n  pop\n  pop\n  jump\t// out\n    /* \"#utility.yul\":824:967   */\ntag_40:\n  0x00\n    /* \"#utility.yul\":912:918   */\n  dup2\n    /* \"#utility.yul\":906:919   */\n  mload\n    /* \"#utility.yul\":897:919   */\n  swap1\n  pop\n    /* \"#utility.yul\":928:961   */\n  tag_42\n    /* \"#utility.yul\":955:960   */\n  dup2\n    /* \"#utility.yul\":928:961   */\n  tag_43\n  jump\t// in\ntag_42:\n    /* \"#utility.yul\":887:967   */\n  swap3\n  swap2\n  pop\n  pop\n  jump\t// out\n    /* \"#utility.yul\":973:2201   */\ntag_3:\n  0x00\n  dup1\n  0x00\n  dup1\n  0x00\n    /* \"#utility.yul\":1190:1193   */\n  0xa0\n    /* \"#utility.yul\":1178:1187   */\n  dup7\n    /* \"#utility.yul\":1169:1176   */\n  dup9\n    /* \"#utility.yul\":1165:1188   */\n  sub\n    /* \"#utility.yul\":1161:1194   */\n  slt\n    /* \"#utility.yul\":1158:1160   */\n  iszero\n  tag_45\n  jumpi\n    /* \"#utility.yul\":1207:1208   */\n  0x00\n    /* \"#utility.yul\":1204:1205   */\n  dup1\n    /* \"#utility.yul\":1197:1209   */\n  revert\n    /* \"#utility.yul\":1158:1160   */\ntag_45:\n    /* \"#utility.yul\":1250:1251   */\n  0x00\n    /* \"#utility.yul\":1275:1339   */\n  tag_46\n    /* \"#utility.yul\":1331:1338   */\n  dup9\n    /* \"#utility.yul\":1322:1328   */\n  dup3\n    /* \"#utility.yul\":1311:1320   */\n  dup10\n    /* \"#utility.yul\":1307:1329   */\n  add\n    /* \"#utility.yul\":1275:1339   */\n  tag_40\n  jump\t// in\ntag_46:\n    /* \"#utility.yul\":1265:1339   */\n  swap6\n  pop\n    /* \"#utility.yul\":1221:1349   */\n  pop\n    /* \"#utility.yul\":1409:1411   */\n  0x20\n    /* \"#utility.yul\":1398:1407   */\n  dup7\n    /* \"#utility.yul\":1394:1412   */\n  add\n    /* \"#utility.yul\":1388:1413   */\n  mload\n    /* \"#utility.yul\":1440:1458   */\n  0xffffffffffffffff\n    /* \"#utility.yul\":1432:1438   */\n  dup2\n    /* \"#utility.yul\":1429:1459   */\n  gt\n    /* \"#utility.yul\":1426:1428   */\n  iszero\n  tag_47\n  jumpi\n    /* \"#utility.yul\":1472:1473   */\n  0x00\n    /* \"#utility.yul\":1469:1470   */\n  dup1\n    /* \"#utility.yul\":1462:1474   */\n  revert\n    /* \"#utility.yul\":1426:1428   */\ntag_47:\n    /* \"#utility.yul\":1500:1574   */\n  tag_48\n    /* \"#utility.yul\":1566:1573   */\n  dup9\n    /* \"#utility.yul\":1557:1563   */\n  dup3\n    /* \"#utility.yul\":1546:1555   */\n  dup10\n    /* \"#utility.yul\":1542:1564   */\n  add\n    /* \"#utility.yul\":1500:1574   */\n  tag_36\n  jump\t// in\ntag_48:\n    /* \"#utility.yul\":1490:1574   */\n  swap5\n  pop\n    /* \"#utility.yul\":1359:1584   */\n  pop\n    /* \"#utility.yul\":1644:1646   */\n  0x40\n    /* \"#utility.yul\":1633:1642   */\n  dup7\n    /* \"#utility.yul\":1629:1647   */\n  add\n    /* \"#utility.yul\":1623:1648   */\n  mload\n    /* \"#utility.yul\":1675:1693   */\n  0xffffffffffffffff\n    /* \"#utility.yul\":1667:1673   */\n  dup2\n    /* \"#utility.yul\":1664:1694   */\n  gt\n    /* \"#utility.yul\":1661:1663   */\n  iszero\n  tag_49\n  jumpi\n    /* \"#utility.yul\":1707:1708   */\n  0x00\n    /* \"#utility.yul\":1704:1705   */\n  dup1\n    /* \"#utility.yul\":1697:1709   */\n  revert\n    /* \"#utility.yul\":1661:1663   */\ntag_49:\n    /* \"#utility.yul\":1735:1809   */\n  tag_50\n    /* \"#utility.yul\":1801:1808   */\n  dup9\n    /* \"#utility.yul\":1792:1798   */\n  dup3\n    /* \"#utility.yul\":1781:1790   */\n  dup10\n    /* \"#utility.yul\":1777:1799   */\n  add\n    /* \"#utility.yul\":1735:1809   */\n  tag_36\n  jump\t// in\ntag_50:\n    /* \"#utility.yul\":1725:1809   */\n  swap4\n  pop\n    /* \"#utility.yul\":1594:1819   */\n  pop\n    /* \"#utility.yul\":1879:1881   */\n  0x60\n    /* \"#utility.yul\":1868:1877   */\n  dup7\n    /* \"#utility.yul\":1864:1882   */\n  add\n    /* \"#utility.yul\":1858:1883   */\n  mload\n    /* \"#utility.yul\":1910:1928   */\n  0xffffffffffffffff\n    /* \"#utility.yul\":1902:1908   */\n  dup2\n    /* \"#utility.yul\":1899:1929   */\n  gt\n    /* \"#utility.yul\":1896:1898   */\n  iszero\n  tag_51\n  jumpi\n    /* \"#utility.yul\":1942:1943   */\n  0x00\n    /* \"#utility.yul\":1939:1940   */\n  dup1\n    /* \"#utility.yul\":1932:1944   */\n  revert\n    /* \"#utility.yul\":1896:1898   */\ntag_51:\n    /* \"#utility.yul\":1970:2044   */\n  tag_52\n    /* \"#utility.yul\":2036:2043   */\n  dup9\n    /* \"#utility.yul\":2027:2033   */\n  dup3\n    /* \"#utility.yul\":2016:2025   */\n  dup10\n    /* \"#utility.yul\":2012:2034   */\n  add\n    /* \"#utility.yul\":1970:2044   */\n  tag_36\n  jump\t// in\ntag_52:\n    /* \"#utility.yul\":1960:2044   */\n  swap3\n  pop\n    /* \"#utility.yul\":1829:2054   */\n  pop\n    /* \"#utility.yul\":2093:2096   */\n  0x80\n    /* \"#utility.yul\":2120:2184   */\n  tag_53\n    /* \"#utility.yul\":2176:2183   */\n  dup9\n    /* \"#utility.yul\":2167:2173   */\n  dup3\n    /* \"#utility.yul\":2156:2165   */\n  dup10\n    /* \"#utility.yul\":2152:2174   */\n  add\n    /* \"#utility.yul\":2120:2184   */\n  tag_32\n  jump\t// in\ntag_53:\n    /* \"#utility.yul\":2110:2184   */\n  swap2\n  pop\n    /* \"#utility.yul\":2064:2194   */\n  pop\n    /* \"#utility.yul\":1148:2201   */\n  swap3\n  swap6\n  pop\n  swap3\n  swap6\n  swap1\n  swap4\n  pop\n  jump\t// out\n    /* \"#utility.yul\":2207:2336   */\ntag_28:\n  0x00\n    /* \"#utility.yul\":2268:2288   */\n  tag_55\n  tag_56\n  jump\t// in\ntag_55:\n    /* \"#utility.yul\":2258:2288   */\n  swap1\n  pop\n    /* \"#utility.yul\":2297:2330   */\n  tag_57\n    /* \"#utility.yul\":2325:2329   */\n  dup3\n    /* \"#utility.yul\":2317:2323   */\n  dup3\n    /* \"#utility.yul\":2297:2330   */\n  tag_58\n  jump\t// in\ntag_57:\n    /* \"#utility.yul\":2248:2336   */\n  swap2\n  swap1\n  pop\n  jump\t// out\n    /* \"#utility.yul\":2342:2417   */\ntag_56:\n  0x00\n    /* \"#utility.yul\":2408:2410   */\n  0x40\n    /* \"#utility.yul\":2402:2411   */\n  mload\n    /* \"#utility.yul\":2392:2411   */\n  swap1\n  pop\n    /* \"#utility.yul\":2382:2417   */\n  swap1\n  jump\t// out\n    /* \"#utility.yul\":2423:2731   */\ntag_27:\n  0x00\n    /* \"#utility.yul\":2575:2593   */\n  0xffffffffffffffff\n    /* \"#utility.yul\":2567:2573   */\n  dup3\n    /* \"#utility.yul\":2564:2594   */\n  gt\n    /* \"#utility.yul\":2561:2563   */\n  iszero\n  tag_61\n  jumpi\n    /* \"#utility.yul\":2597:2615   */\n  tag_62\n  tag_63\n  jump\t// in\ntag_62:\n    /* \"#utility.yul\":2561:2563   */\ntag_61:\n    /* \"#utility.yul\":2635:2664   */\n  tag_64\n    /* \"#utility.yul\":2657:2663   */\n  dup3\n    /* \"#utility.yul\":2635:2664   */\n  tag_65\n  jump\t// in\ntag_64:\n    /* \"#utility.yul\":2627:2664   */\n  swap1\n  pop\n    /* \"#utility.yul\":2719:2723   */\n  0x20\n    /* \"#utility.yul\":2713:2717   */\n  dup2\n    /* \"#utility.yul\":2709:2724   */\n  add\n    /* \"#utility.yul\":2701:2724   */\n  swap1\n  pop\n    /* \"#utility.yul\":2490:2731   */\n  swap2\n  swap1\n  pop\n  jump\t// out\n    /* \"#utility.yul\":2737:2833   */\ntag_66:\n  0x00\n    /* \"#utility.yul\":2803:2827   */\n  tag_68\n    /* \"#utility.yul\":2821:2826   */\n  dup3\n    /* \"#utility.yul\":2803:2827   */\n  tag_69\n  jump\t// in\ntag_68:\n    /* \"#utility.yul\":2792:2827   */\n  swap1\n  pop\n    /* \"#utility.yul\":2782:2833   */\n  swap2\n  swap1\n  pop\n  jump\t// out\n    /* \"#utility.yul\":2839:2965   */\ntag_69:\n  0x00\n    /* \"#utility.yul\":2916:2958   */\n  0xffffffffffffffffffffffffffffffffffffffff\n    /* \"#utility.yul\":2909:2914   */\n  dup3\n    /* \"#utility.yul\":2905:2959   */\n  and\n    /* \"#utility.yul\":2894:2959   */\n  swap1\n  pop\n    /* \"#utility.yul\":2884:2965   */\n  swap2\n  swap1\n  pop\n  jump\t// out\n    /* \"#utility.yul\":2971:3048   */\ntag_71:\n  0x00\n    /* \"#utility.yul\":3037:3042   */\n  dup2\n    /* \"#utility.yul\":3026:3042   */\n  swap1\n  pop\n    /* \"#utility.yul\":3016:3048   */\n  swap2\n  swap1\n  pop\n  jump\t// out\n    /* \"#utility.yul\":3054:3361   */\ntag_31:\n    /* \"#utility.yul\":3122:3123   */\n  0x00\n    /* \"#utility.yul\":3132:3245   */\ntag_74:\n    /* \"#utility.yul\":3146:3152   */\n  dup4\n    /* \"#utility.yul\":3143:3144   */\n  dup2\n    /* \"#utility.yul\":3140:3153   */\n  lt\n    /* \"#utility.yul\":3132:3245   */\n  iszero\n  tag_76\n  jumpi\n    /* \"#utility.yul\":3231:3232   */\n  dup1\n    /* \"#utility.yul\":3226:3229   */\n  dup3\n    /* \"#utility.yul\":3222:3233   */\n  add\n    /* \"#utility.yul\":3216:3234   */\n  mload\n    /* \"#utility.yul\":3212:3213   */\n  dup2\n    /* \"#utility.yul\":3207:3210   */\n  dup5\n    /* \"#utility.yul\":3203:3214   */\n  add\n    /* \"#utility.yul\":3196:3235   */\n  mstore\n    /* \"#utility.yul\":3168:3170   */\n  0x20\n    /* \"#utility.yul\":3165:3166   */\n  dup2\n    /* \"#utility.yul\":3161:3171   */\n  add\n    /* \"#utility.yul\":3156:3171   */\n  swap1\n  pop\n    /* \"#utility.yul\":3132:3245   */\n  jump(tag_74)\ntag_76:\n    /* \"#utility.yul\":3263:3269   */\n  dup4\n    /* \"#utility.yul\":3260:3261   */\n  dup2\n    /* \"#utility.yul\":3257:3270   */\n  gt\n    /* \"#utility.yul\":3254:3256   */\n  iszero\n  tag_77\n  jumpi\n    /* \"#utility.yul\":3343:3344   */\n  0x00\n    /* \"#utility.yul\":3334:3340   */\n  dup5\n    /* \"#utility.yul\":3329:3332   */\n  dup5\n    /* \"#utility.yul\":3325:3341   */\n  add\n    /* \"#utility.yul\":3318:3345   */\n  mstore\n    /* \"#utility.yul\":3254:3256   */\ntag_77:\n    /* \"#utility.yul\":3103:3361   */\n  pop\n  pop\n  pop\n  pop\n  jump\t// out\n    /* \"#utility.yul\":3367:3687   */\ntag_12:\n  0x00\n    /* \"#utility.yul\":3448:3449   */\n  0x02\n    /* \"#utility.yul\":3442:3446   */\n  dup3\n    /* \"#utility.yul\":3438:3450   */\n  div\n    /* \"#utility.yul\":3428:3450   */\n  swap1\n  pop\n    /* \"#utility.yul\":3495:3496   */\n  0x01\n    /* \"#utility.yul\":3489:3493   */\n  dup3\n    /* \"#utility.yul\":3485:3497   */\n  and\n    /* \"#utility.yul\":3516:3534   */\n  dup1\n    /* \"#utility.yul\":3506:3508   */\n  tag_79\n  jumpi\n    /* \"#utility.yul\":3572:3576   */\n  0x7f\n    /* \"#utility.yul\":3564:3570   */\n  dup3\n    /* \"#utility.yul\":3560:3577   */\n  and\n    /* \"#utility.yul\":3550:3577   */\n  swap2\n  pop\n    /* \"#utility.yul\":3506:3508   */\ntag_79:\n    /* \"#utility.yul\":3634:3636   */\n  0x20\n    /* \"#utility.yul\":3626:3632   */\n  dup3\n    /* \"#utility.yul\":3623:3637   */\n  lt\n    /* \"#utility.yul\":3603:3621   */\n  dup2\n    /* \"#utility.yul\":3600:3638   */\n  eq\n    /* \"#utility.yul\":3597:3599   */\n  iszero\n  tag_80\n  jumpi\n    /* \"#utility.yul\":3653:3671   */\n  tag_81\n  tag_82\n  jump\t// in\ntag_81:\n    /* \"#utility.yul\":3597:3599   */\ntag_80:\n    /* \"#utility.yul\":3418:3687   */\n  pop\n  swap2\n  swap1\n  pop\n  jump\t// out\n    /* \"#utility.yul\":3693:3974   */\ntag_58:\n    /* \"#utility.yul\":3776:3803   */\n  tag_84\n    /* \"#utility.yul\":3798:3802   */\n  dup3\n    /* \"#utility.yul\":3776:3803   */\n  tag_65\n  jump\t// in\ntag_84:\n    /* \"#utility.yul\":3768:3774   */\n  dup2\n    /* \"#utility.yul\":3764:3804   */\n  add\n    /* \"#utility.yul\":3906:3912   */\n  dup2\n    /* \"#utility.yul\":3894:3904   */\n  dup2\n    /* \"#utility.yul\":3891:3913   */\n  lt\n    /* \"#utility.yul\":3870:3888   */\n  0xffffffffffffffff\n    /* \"#utility.yul\":3858:3868   */\n  dup3\n    /* \"#utility.yul\":3855:3889   */\n  gt\n    /* \"#utility.yul\":3852:3914   */\n  or\n    /* \"#utility.yul\":3849:3851   */\n  iszero\n  tag_85\n  jumpi\n    /* \"#utility.yul\":3917:3935   */\n  tag_86\n  tag_63\n  jump\t// in\ntag_86:\n    /* \"#utility.yul\":3849:3851   */\ntag_85:\n    /* \"#utility.yul\":3957:3967   */\n  dup1\n    /* \"#utility.yul\":3953:3955   */\n  0x40\n    /* \"#utility.yul\":3946:3968   */\n  mstore\n    /* \"#utility.yul\":3736:3974   */\n  pop\n  pop\n  pop\n  jump\t// out\n    /* \"#utility.yul\":3980:4160   */\ntag_82:\n    /* \"#utility.yul\":4028:4105   */\n  0x4e487b7100000000000000000000000000000000000000000000000000000000\n    /* \"#utility.yul\":4025:4026   */\n  0x00\n    /* \"#utility.yul\":4018:4106   */\n  mstore\n    /* \"#utility.yul\":4125:4129   */\n  0x22\n    /* \"#utility.yul\":4122:4123   */\n  0x04\n    /* \"#utility.yul\":4115:4130   */\n  mstore\n    /* \"#utility.yul\":4149:4153   */\n  0x24\n    /* \"#utility.yul\":4146:4147   */\n  0x00\n    /* \"#utility.yul\":4139:4154   */\n  revert\n    /* \"#utility.yul\":4166:4346   */\ntag_63:\n    /* \"#utility.yul\":4214:4291   */\n  0x4e487b7100000000000000000000000000000000000000000000000000000000\n    /* \"#utility.yul\":4211:4212   */\n  0x00\n    /* \"#utility.yul\":4204:4292   */\n  mstore\n    /* \"#utility.yul\":4311:4315   */\n  0x41\n    /* \"#utility.yul\":4308:4309   */\n  0x04\n    /* \"#utility.yul\":4301:4316   */\n  mstore\n    /* \"#utility.yul\":4335:4339   */\n  0x24\n    /* \"#utility.yul\":4332:4333   */\n  0x00\n    /* \"#utility.yul\":4325:4340   */\n  revert\n    /* \"#utility.yul\":4352:4454   */\ntag_65:\n  0x00\n    /* \"#utility.yul\":4444:4446   */\n  0x1f\n    /* \"#utility.yul\":4440:4447   */\n  not\n    /* \"#utility.yul\":4435:4437   */\n  0x1f\n    /* \"#utility.yul\":4428:4433   */\n  dup4\n    /* \"#utility.yul\":4424:4438   */\n  add\n    /* \"#utility.yul\":4420:4448   */\n  and\n    /* \"#utility.yul\":4410:4448   */\n  swap1\n  pop\n    /* \"#utility.yul\":4400:4454   */\n  swap2\n  swap1\n  pop\n  jump\t// out\n    /* \"#utility.yul\":4460:4582   */\ntag_35:\n    /* \"#utility.yul\":4533:4557   */\n  tag_91\n    /* \"#utility.yul\":4551:4556   */\n  dup2\n    /* \"#utility.yul\":4533:4557   */\n  tag_66\n  jump\t// in\ntag_91:\n    /* \"#utility.yul\":4526:4531   */\n  dup2\n    /* \"#utility.yul\":4523:4558   */\n  eq\n    /* \"#utility.yul\":4513:4515   */\n  tag_92\n  jumpi\n    /* \"#utility.yul\":4572:4573   */\n  0x00\n    /* \"#utility.yul\":4569:4570   */\n  dup1\n    /* \"#utility.yul\":4562:4574   */\n  revert\n    /* \"#utility.yul\":4513:4515   */\ntag_92:\n    /* \"#utility.yul\":4503:4582   */\n  pop\n  jump\t// out\n    /* \"#utility.yul\":4588:4710   */\ntag_43:\n    /* \"#utility.yul\":4661:4685   */\n  tag_94\n    /* \"#utility.yul\":4679:4684   */\n  dup2\n    /* \"#utility.yul\":4661:4685   */\n  tag_71\n  jump\t// in\ntag_94:\n    /* \"#utility.yul\":4654:4659   */\n  dup2\n    /* \"#utility.yul\":4651:4686   */\n  eq\n    /* \"#utility.yul\":4641:4643   */\n  tag_95\n  jumpi\n    /* \"#utility.yul\":4700:4701   */\n  0x00\n    /* \"#utility.yul\":4697:4698   */\n  dup1\n    /* \"#utility.yul\":4690:4702   */\n  revert\n    /* \"#utility.yul\":4641:4643   */\ntag_95:\n    /* \"#utility.yul\":4631:4710   */\n  pop\n  jump\t// out\n    /* \"Idea.sol\":453:3361  contract Idea {... */\ntag_10:\n  dataSize(sub_0)\n  dup1\n  dataOffset(sub_0)\n  0x00\n  codecopy\n  0x00\n  return\nstop\n\nsub_0: assembly {\n        /* \"Idea.sol\":453:3361  contract Idea {... */\n      mstore(0x40, 0x80)\n      jumpi(tag_1, lt(calldatasize, 0x04))\n      shr(0xe0, calldataload(0x00))\n      dup1\n      0x59af7a13\n      gt\n      tag_17\n      jumpi\n      dup1\n      0x8a9cfd55\n      gt\n      tag_18\n      jumpi\n      dup1\n      0x8a9cfd55\n      eq\n      tag_13\n      jumpi\n      dup1\n      0x9fb42b1f\n      eq\n      tag_14\n      jumpi\n      dup1\n      0xd7bb99ba\n      eq\n      tag_15\n      jumpi\n      dup1\n      0xd7d1bbdb\n      eq\n      tag_16\n      jumpi\n      jump(tag_1)\n    tag_18:\n      dup1\n      0x59af7a13\n      eq\n      tag_9\n      jumpi\n      dup1\n      0x7284e416\n      eq\n      tag_10\n      jumpi\n      dup1\n      0x7554e42f\n      eq\n      tag_11\n      jumpi\n      dup1\n      0x81d12c58\n      eq\n      tag_12\n      jumpi\n      jump(tag_1)\n    tag_17:\n      dup1\n      0x1da98960\n      gt\n      tag_19\n      jumpi\n      dup1\n      0x1da98960\n      eq\n      tag_5\n      jumpi\n      dup1\n      0x26540fd2\n      eq\n      tag_6\n      jumpi\n      dup1\n      0x4051ddac\n      eq\n      tag_7\n      jumpi\n      dup1\n      0x481c6a75\n      eq\n      tag_8\n      jumpi\n      jump(tag_1)\n    tag_19:\n      dup1\n      0x03441006\n      eq\n      tag_2\n      jumpi\n      dup1\n      0x06fdde03\n      eq\n      tag_3\n      jumpi\n      dup1\n      0x0a144391\n      eq\n      tag_4\n      jumpi\n    tag_1:\n      0x00\n      dup1\n      revert\n        /* \"Idea.sol\":2686:2977  function finalizeRequest(uint index) public allowOnlyManager {... */\n    tag_2:\n      callvalue\n      dup1\n      iszero\n      tag_20\n      jumpi\n      0x00\n      dup1\n      revert\n    tag_20:\n      pop\n      tag_21\n      0x04\n      dup1\n      calldatasize\n      sub\n      dup2\n      add\n      swap1\n      tag_22\n      swap2\n      swap1\n      tag_23\n      jump\t// in\n    tag_22:\n      tag_24\n      jump\t// in\n    tag_21:\n      stop\n        /* \"Idea.sol\":678:696  string public name */\n    tag_3:\n      callvalue\n      dup1\n      iszero\n      tag_25\n      jumpi\n      0x00\n      dup1\n      revert\n    tag_25:\n      pop\n      tag_26\n      tag_27\n      jump\t// in\n    tag_26:\n      mload(0x40)\n      tag_28\n      swap2\n      swap1\n      tag_29\n      jump\t// in\n    tag_28:\n      mload(0x40)\n      dup1\n      swap2\n      sub\n      swap1\n      return\n        /* \"Idea.sol\":929:970  mapping(address => uint) public approvers */\n    tag_4:\n      callvalue\n      dup1\n      iszero\n      tag_30\n      jumpi\n      0x00\n      dup1\n      revert\n    tag_30:\n      pop\n      tag_31\n      0x04\n      dup1\n      calldatasize\n      sub\n      dup2\n      add\n      swap1\n      tag_32\n      swap2\n      swap1\n      tag_33\n      jump\t// in\n    tag_32:\n      tag_34\n      jump\t// in\n    tag_31:\n      mload(0x40)\n      tag_35\n      swap2\n      swap1\n      tag_36\n      jump\t// in\n    tag_35:\n      mload(0x40)\n      dup1\n      swap2\n      sub\n      swap1\n      return\n        /* \"Idea.sol\":702:732  string public shortDescription */\n    tag_5:\n      callvalue\n      dup1\n      iszero\n      tag_37\n      jumpi\n      0x00\n      dup1\n      revert\n    tag_37:\n      pop\n      tag_38\n      tag_39\n      jump\t// in\n    tag_38:\n      mload(0x40)\n      tag_40\n      swap2\n      swap1\n      tag_29\n      jump\t// in\n    tag_40:\n      mload(0x40)\n      dup1\n      swap2\n      sub\n      swap1\n      return\n        /* \"Idea.sol\":1009:1028  uint public credits */\n    tag_6:\n      callvalue\n      dup1\n      iszero\n      tag_41\n      jumpi\n      0x00\n      dup1\n      revert\n    tag_41:\n      pop\n      tag_42\n      tag_43\n      jump\t// in\n    tag_42:\n      mload(0x40)\n      tag_44\n      swap2\n      swap1\n      tag_36\n      jump\t// in\n    tag_44:\n      mload(0x40)\n      dup1\n      swap2\n      sub\n      swap1\n      return\n        /* \"Idea.sol\":2987:3359  function getSummary() public view returns (... */\n    tag_7:\n      callvalue\n      dup1\n      iszero\n      tag_45\n      jumpi\n      0x00\n      dup1\n      revert\n    tag_45:\n      pop\n      tag_46\n      tag_47\n      jump\t// in\n    tag_46:\n      mload(0x40)\n      tag_48\n      swap9\n      swap8\n      swap7\n      swap6\n      swap5\n      swap4\n      swap3\n      swap2\n      swap1\n      tag_49\n      jump\t// in\n    tag_48:\n      mload(0x40)\n      dup1\n      swap2\n      sub\n      swap1\n      return\n        /* \"Idea.sol\":860:882  address public manager */\n    tag_8:\n      callvalue\n      dup1\n      iszero\n      tag_50\n      jumpi\n      0x00\n      dup1\n      revert\n    tag_50:\n      pop\n      tag_51\n      tag_52\n      jump\t// in\n    tag_51:\n      mload(0x40)\n      tag_53\n      swap2\n      swap1\n      tag_54\n      jump\t// in\n    tag_53:\n      mload(0x40)\n      dup1\n      swap2\n      sub\n      swap1\n      return\n        /* \"Idea.sol\":977:1003  uint public oneCreditValue */\n    tag_9:\n      callvalue\n      dup1\n      iszero\n      tag_55\n      jumpi\n      0x00\n      dup1\n      revert\n    tag_55:\n      pop\n      tag_56\n      tag_57\n      jump\t// in\n    tag_56:\n      mload(0x40)\n      tag_58\n      swap2\n      swap1\n      tag_36\n      jump\t// in\n    tag_58:\n      mload(0x40)\n      dup1\n      swap2\n      sub\n      swap1\n      return\n        /* \"Idea.sol\":738:763  string public description */\n    tag_10:\n      callvalue\n      dup1\n      iszero\n      tag_59\n      jumpi\n      0x00\n      dup1\n      revert\n    tag_59:\n      pop\n      tag_60\n      tag_61\n      jump\t// in\n    tag_60:\n      mload(0x40)\n      tag_62\n      swap2\n      swap1\n      tag_29\n      jump\t// in\n    tag_62:\n      mload(0x40)\n      dup1\n      swap2\n      sub\n      swap1\n      return\n        /* \"Idea.sol\":893:923  uint public numUniqueApprovers */\n    tag_11:\n      callvalue\n      dup1\n      iszero\n      tag_63\n      jumpi\n      0x00\n      dup1\n      revert\n    tag_63:\n      pop\n      tag_64\n      tag_65\n      jump\t// in\n    tag_64:\n      mload(0x40)\n      tag_66\n      swap2\n      swap1\n      tag_36\n      jump\t// in\n    tag_66:\n      mload(0x40)\n      dup1\n      swap2\n      sub\n      swap1\n      return\n        /* \"Idea.sol\":808:849  mapping (uint => Request) public requests */\n    tag_12:\n      callvalue\n      dup1\n      iszero\n      tag_67\n      jumpi\n      0x00\n      dup1\n      revert\n    tag_67:\n      pop\n      tag_68\n      0x04\n      dup1\n      calldatasize\n      sub\n      dup2\n      add\n      swap1\n      tag_69\n      swap2\n      swap1\n      tag_23\n      jump\t// in\n    tag_69:\n      tag_70\n      jump\t// in\n    tag_68:\n      mload(0x40)\n      tag_71\n      swap6\n      swap5\n      swap4\n      swap3\n      swap2\n      swap1\n      tag_72\n      jump\t// in\n    tag_71:\n      mload(0x40)\n      dup1\n      swap2\n      sub\n      swap1\n      return\n        /* \"Idea.sol\":2059:2378  function createRequest(string memory description, uint value, address payable recipient) public allowOnlyManager {... */\n    tag_13:\n      callvalue\n      dup1\n      iszero\n      tag_73\n      jumpi\n      0x00\n      dup1\n      revert\n    tag_73:\n      pop\n      tag_74\n      0x04\n      dup1\n      calldatasize\n      sub\n      dup2\n      add\n      swap1\n      tag_75\n      swap2\n      swap1\n      tag_76\n      jump\t// in\n    tag_75:\n      tag_77\n      jump\t// in\n    tag_74:\n      stop\n        /* \"Idea.sol\":779:802  uint public numRequests */\n    tag_14:\n      callvalue\n      dup1\n      iszero\n      tag_78\n      jumpi\n      0x00\n      dup1\n      revert\n    tag_78:\n      pop\n      tag_79\n      tag_80\n      jump\t// in\n    tag_79:\n      mload(0x40)\n      tag_81\n      swap2\n      swap1\n      tag_36\n      jump\t// in\n    tag_81:\n      mload(0x40)\n      dup1\n      swap2\n      sub\n      swap1\n      return\n        /* \"Idea.sol\":1462:2049  function contribute() public payable {... */\n    tag_15:\n      tag_82\n      tag_83\n      jump\t// in\n    tag_82:\n      stop\n        /* \"Idea.sol\":2388:2680  function approveRequest(uint index) public {... */\n    tag_16:\n      callvalue\n      dup1\n      iszero\n      tag_84\n      jumpi\n      0x00\n      dup1\n      revert\n    tag_84:\n      pop\n      tag_85\n      0x04\n      dup1\n      calldatasize\n      sub\n      dup2\n      add\n      swap1\n      tag_86\n      swap2\n      swap1\n      tag_23\n      jump\t// in\n    tag_86:\n      tag_87\n      jump\t// in\n    tag_85:\n      stop\n        /* \"Idea.sol\":2686:2977  function finalizeRequest(uint index) public allowOnlyManager {... */\n    tag_24:\n        /* \"Idea.sol\":1095:1102  manager */\n      0x05\n      0x00\n      swap1\n      sload\n      swap1\n      0x0100\n      exp\n      swap1\n      div\n      0xffffffffffffffffffffffffffffffffffffffff\n      and\n        /* \"Idea.sol\":1081:1102  msg.sender == manager */\n      0xffffffffffffffffffffffffffffffffffffffff\n      and\n        /* \"Idea.sol\":1081:1091  msg.sender */\n      caller\n        /* \"Idea.sol\":1081:1102  msg.sender == manager */\n      0xffffffffffffffffffffffffffffffffffffffff\n      and\n      eq\n        /* \"Idea.sol\":1073:1103  require(msg.sender == manager) */\n      tag_89\n      jumpi\n      0x00\n      dup1\n      revert\n    tag_89:\n        /* \"Idea.sol\":2757:2780  Request storage request */\n      0x00\n        /* \"Idea.sol\":2783:2791  requests */\n      0x04\n        /* \"Idea.sol\":2783:2798  requests[index] */\n      0x00\n        /* \"Idea.sol\":2792:2797  index */\n      dup4\n        /* \"Idea.sol\":2783:2798  requests[index] */\n      dup2\n      mstore\n      0x20\n      add\n      swap1\n      dup2\n      mstore\n      0x20\n      add\n      0x00\n      keccak256\n        /* \"Idea.sol\":2757:2798  Request storage request = requests[index] */\n      swap1\n      pop\n        /* \"Idea.sol\":2846:2847  2 */\n      0x02\n        /* \"Idea.sol\":2836:2843  credits */\n      sload(0x09)\n        /* \"Idea.sol\":2836:2847  credits / 2 */\n      tag_91\n      swap2\n      swap1\n      tag_92\n      jump\t// in\n    tag_91:\n        /* \"Idea.sol\":2817:2824  request */\n      dup2\n        /* \"Idea.sol\":2817:2832  request.credits */\n      0x03\n      add\n      sload\n        /* \"Idea.sol\":2817:2848  request.credits > (credits / 2) */\n      gt\n        /* \"Idea.sol\":2809:2849  require(request.credits > (credits / 2)) */\n      tag_93\n      jumpi\n      0x00\n      dup1\n      revert\n    tag_93:\n        /* \"Idea.sol\":2868:2875  request */\n      dup1\n        /* \"Idea.sol\":2868:2884  request.complete */\n      0x02\n      add\n      0x14\n      swap1\n      sload\n      swap1\n      0x0100\n      exp\n      swap1\n      div\n      0xff\n      and\n        /* \"Idea.sol\":2867:2884  !request.complete */\n      iszero\n        /* \"Idea.sol\":2859:2885  require(!request.complete) */\n      tag_94\n      jumpi\n      0x00\n      dup1\n      revert\n    tag_94:\n        /* \"Idea.sol\":2896:2903  request */\n      dup1\n        /* \"Idea.sol\":2896:2913  request.recipient */\n      0x02\n      add\n      0x00\n      swap1\n      sload\n      swap1\n      0x0100\n      exp\n      swap1\n      div\n      0xffffffffffffffffffffffffffffffffffffffff\n      and\n        /* \"Idea.sol\":2896:2922  request.recipient.transfer */\n      0xffffffffffffffffffffffffffffffffffffffff\n      and\n        /* \"Idea.sol\":2896:2937  request.recipient.transfer(request.value) */\n      0x08fc\n        /* \"Idea.sol\":2923:2930  request */\n      dup3\n        /* \"Idea.sol\":2923:2936  request.value */\n      0x01\n      add\n      sload\n        /* \"Idea.sol\":2896:2937  request.recipient.transfer(request.value) */\n      swap1\n      dup2\n      iszero\n      mul\n      swap1\n      mload(0x40)\n      0x00\n      mload(0x40)\n      dup1\n      dup4\n      sub\n      dup2\n      dup6\n      dup9\n      dup9\n      call\n      swap4\n      pop\n      pop\n      pop\n      pop\n      iszero\n      dup1\n      iszero\n      tag_96\n      jumpi\n      returndatasize\n      0x00\n      dup1\n      returndatacopy\n      revert(0x00, returndatasize)\n    tag_96:\n      pop\n        /* \"Idea.sol\":2966:2970  true */\n      0x01\n        /* \"Idea.sol\":2947:2954  request */\n      dup2\n        /* \"Idea.sol\":2947:2963  request.complete */\n      0x02\n      add\n      0x14\n        /* \"Idea.sol\":2947:2970  request.complete = true */\n      0x0100\n      exp\n      dup2\n      sload\n      dup2\n      0xff\n      mul\n      not\n      and\n      swap1\n      dup4\n      iszero\n      iszero\n      mul\n      or\n      swap1\n      sstore\n      pop\n        /* \"Idea.sol\":1113:1114  _ */\n      pop\n        /* \"Idea.sol\":2686:2977  function finalizeRequest(uint index) public allowOnlyManager {... */\n      pop\n      jump\t// out\n        /* \"Idea.sol\":678:696  string public name */\n    tag_27:\n      0x00\n      dup1\n      sload\n      tag_97\n      swap1\n      tag_98\n      jump\t// in\n    tag_97:\n      dup1\n      0x1f\n      add\n      0x20\n      dup1\n      swap2\n      div\n      mul\n      0x20\n      add\n      mload(0x40)\n      swap1\n      dup2\n      add\n      0x40\n      mstore\n      dup1\n      swap3\n      swap2\n      swap1\n      dup2\n      dup2\n      mstore\n      0x20\n      add\n      dup3\n      dup1\n      sload\n      tag_99\n      swap1\n      tag_98\n      jump\t// in\n    tag_99:\n      dup1\n      iszero\n      tag_100\n      jumpi\n      dup1\n      0x1f\n      lt\n      tag_101\n      jumpi\n      0x0100\n      dup1\n      dup4\n      sload\n      div\n      mul\n      dup4\n      mstore\n      swap2\n      0x20\n      add\n      swap2\n      jump(tag_100)\n    tag_101:\n      dup3\n      add\n      swap2\n      swap1\n      0x00\n      mstore\n      keccak256(0x00, 0x20)\n      swap1\n    tag_102:\n      dup2\n      sload\n      dup2\n      mstore\n      swap1\n      0x01\n      add\n      swap1\n      0x20\n      add\n      dup1\n      dup4\n      gt\n      tag_102\n      jumpi\n      dup3\n      swap1\n      sub\n      0x1f\n      and\n      dup3\n      add\n      swap2\n    tag_100:\n      pop\n      pop\n      pop\n      pop\n      pop\n      dup2\n      jump\t// out\n        /* \"Idea.sol\":929:970  mapping(address => uint) public approvers */\n    tag_34:\n      mstore(0x20, 0x07)\n      dup1\n      0x00\n      mstore\n      keccak256(0x00, 0x40)\n      0x00\n      swap2\n      pop\n      swap1\n      pop\n      sload\n      dup2\n      jump\t// out\n        /* \"Idea.sol\":702:732  string public shortDescription */\n    tag_39:\n      0x01\n      dup1\n      sload\n      tag_103\n      swap1\n      tag_98\n      jump\t// in\n    tag_103:\n      dup1\n      0x1f\n      add\n      0x20\n      dup1\n      swap2\n      div\n      mul\n      0x20\n      add\n      mload(0x40)\n      swap1\n      dup2\n      add\n      0x40\n      mstore\n      dup1\n      swap3\n      swap2\n      swap1\n      dup2\n      dup2\n      mstore\n      0x20\n      add\n      dup3\n      dup1\n      sload\n      tag_104\n      swap1\n      tag_98\n      jump\t// in\n    tag_104:\n      dup1\n      iszero\n      tag_105\n      jumpi\n      dup1\n      0x1f\n      lt\n      tag_106\n      jumpi\n      0x0100\n      dup1\n      dup4\n      sload\n      div\n      mul\n      dup4\n      mstore\n      swap2\n      0x20\n      add\n      swap2\n      jump(tag_105)\n    tag_106:\n      dup3\n      add\n      swap2\n      swap1\n      0x00\n      mstore\n      keccak256(0x00, 0x20)\n      swap1\n    tag_107:\n      dup2\n      sload\n      dup2\n      mstore\n      swap1\n      0x01\n      add\n      swap1\n      0x20\n      add\n      dup1\n      dup4\n      gt\n      tag_107\n      jumpi\n      dup3\n      swap1\n      sub\n      0x1f\n      and\n      dup3\n      add\n      swap2\n    tag_105:\n      pop\n      pop\n      pop\n      pop\n      pop\n      dup2\n      jump\t// out\n        /* \"Idea.sol\":1009:1028  uint public credits */\n    tag_43:\n      sload(0x09)\n      dup2\n      jump\t// out\n        /* \"Idea.sol\":2987:3359  function getSummary() public view returns (... */\n    tag_47:\n        /* \"Idea.sol\":3037:3050  string memory */\n      0x60\n        /* \"Idea.sol\":3052:3065  string memory */\n      dup1\n        /* \"Idea.sol\":3067:3080  string memory */\n      0x60\n        /* \"Idea.sol\":3082:3086  uint */\n      0x00\n        /* \"Idea.sol\":3088:3092  uint */\n      dup1\n        /* \"Idea.sol\":3094:3098  uint */\n      0x00\n        /* \"Idea.sol\":3100:3104  uint */\n      dup1\n        /* \"Idea.sol\":3106:3113  address */\n      0x00\n        /* \"Idea.sol\":3153:3157  name */\n      dup1\n        /* \"Idea.sol\":3171:3187  shortDescription */\n      0x01\n        /* \"Idea.sol\":3201:3212  description */\n      0x02\n        /* \"Idea.sol\":3226:3240  oneCreditValue */\n      sload(0x08)\n        /* \"Idea.sol\":3254:3275  address(this).balance */\n      selfbalance\n        /* \"Idea.sol\":3289:3300  numRequests */\n      sload(0x03)\n        /* \"Idea.sol\":3314:3321  credits */\n      sload(0x09)\n        /* \"Idea.sol\":3335:3342  manager */\n      0x05\n      0x00\n      swap1\n      sload\n      swap1\n      0x0100\n      exp\n      swap1\n      div\n      0xffffffffffffffffffffffffffffffffffffffff\n      and\n        /* \"Idea.sol\":3132:3352  return (... */\n      dup8\n      dup1\n      sload\n      tag_109\n      swap1\n      tag_98\n      jump\t// in\n    tag_109:\n      dup1\n      0x1f\n      add\n      0x20\n      dup1\n      swap2\n      div\n      mul\n      0x20\n      add\n      mload(0x40)\n      swap1\n      dup2\n      add\n      0x40\n      mstore\n      dup1\n      swap3\n      swap2\n      swap1\n      dup2\n      dup2\n      mstore\n      0x20\n      add\n      dup3\n      dup1\n      sload\n      tag_110\n      swap1\n      tag_98\n      jump\t// in\n    tag_110:\n      dup1\n      iszero\n      tag_111\n      jumpi\n      dup1\n      0x1f\n      lt\n      tag_112\n      jumpi\n      0x0100\n      dup1\n      dup4\n      sload\n      div\n      mul\n      dup4\n      mstore\n      swap2\n      0x20\n      add\n      swap2\n      jump(tag_111)\n    tag_112:\n      dup3\n      add\n      swap2\n      swap1\n      0x00\n      mstore\n      keccak256(0x00, 0x20)\n      swap1\n    tag_113:\n      dup2\n      sload\n      dup2\n      mstore\n      swap1\n      0x01\n      add\n      swap1\n      0x20\n      add\n      dup1\n      dup4\n      gt\n      tag_113\n      jumpi\n      dup3\n      swap1\n      sub\n      0x1f\n      and\n      dup3\n      add\n      swap2\n    tag_111:\n      pop\n      pop\n      pop\n      pop\n      pop\n      swap8\n      pop\n      dup7\n      dup1\n      sload\n      tag_114\n      swap1\n      tag_98\n      jump\t// in\n    tag_114:\n      dup1\n      0x1f\n      add\n      0x20\n      dup1\n      swap2\n      div\n      mul\n      0x20\n      add\n      mload(0x40)\n      swap1\n      dup2\n      add\n      0x40\n      mstore\n      dup1\n      swap3\n      swap2\n      swap1\n      dup2\n      dup2\n      mstore\n      0x20\n      add\n      dup3\n      dup1\n      sload\n      tag_115\n      swap1\n      tag_98\n      jump\t// in\n    tag_115:\n      dup1\n      iszero\n      tag_116\n      jumpi\n      dup1\n      0x1f\n      lt\n      tag_117\n      jumpi\n      0x0100\n      dup1\n      dup4\n      sload\n      div\n      mul\n      dup4\n      mstore\n      swap2\n      0x20\n      add\n      swap2\n      jump(tag_116)\n    tag_117:\n      dup3\n      add\n      swap2\n      swap1\n      0x00\n      mstore\n      keccak256(0x00, 0x20)\n      swap1\n    tag_118:\n      dup2\n      sload\n      dup2\n      mstore\n      swap1\n      0x01\n      add\n      swap1\n      0x20\n      add\n      dup1\n      dup4\n      gt\n      tag_118\n      jumpi\n      dup3\n      swap1\n      sub\n      0x1f\n      and\n      dup3\n      add\n      swap2\n    tag_116:\n      pop\n      pop\n      pop\n      pop\n      pop\n      swap7\n      pop\n      dup6\n      dup1\n      sload\n      tag_119\n      swap1\n      tag_98\n      jump\t// in\n    tag_119:\n      dup1\n      0x1f\n      add\n      0x20\n      dup1\n      swap2\n      div\n      mul\n      0x20\n      add\n      mload(0x40)\n      swap1\n      dup2\n      add\n      0x40\n      mstore\n      dup1\n      swap3\n      swap2\n      swap1\n      dup2\n      dup2\n      mstore\n      0x20\n      add\n      dup3\n      dup1\n      sload\n      tag_120\n      swap1\n      tag_98\n      jump\t// in\n    tag_120:\n      dup1\n      iszero\n      tag_121\n      jumpi\n      dup1\n      0x1f\n      lt\n      tag_122\n      jumpi\n      0x0100\n      dup1\n      dup4\n      sload\n      div\n      mul\n      dup4\n      mstore\n      swap2\n      0x20\n      add\n      swap2\n      jump(tag_121)\n    tag_122:\n      dup3\n      add\n      swap2\n      swap1\n      0x00\n      mstore\n      keccak256(0x00, 0x20)\n      swap1\n    tag_123:\n      dup2\n      sload\n      dup2\n      mstore\n      swap1\n      0x01\n      add\n      swap1\n      0x20\n      add\n      dup1\n      dup4\n      gt\n      tag_123\n      jumpi\n      dup3\n      swap1\n      sub\n      0x1f\n      and\n      dup3\n      add\n      swap2\n    tag_121:\n      pop\n      pop\n      pop\n      pop\n      pop\n      swap6\n      pop\n      swap8\n      pop\n      swap8\n      pop\n      swap8\n      pop\n      swap8\n      pop\n      swap8\n      pop\n      swap8\n      pop\n      swap8\n      pop\n      swap8\n      pop\n        /* \"Idea.sol\":2987:3359  function getSummary() public view returns (... */\n      swap1\n      swap2\n      swap3\n      swap4\n      swap5\n      swap6\n      swap7\n      swap8\n      jump\t// out\n        /* \"Idea.sol\":860:882  address public manager */\n    tag_52:\n      0x05\n      0x00\n      swap1\n      sload\n      swap1\n      0x0100\n      exp\n      swap1\n      div\n      0xffffffffffffffffffffffffffffffffffffffff\n      and\n      dup2\n      jump\t// out\n        /* \"Idea.sol\":977:1003  uint public oneCreditValue */\n    tag_57:\n      sload(0x08)\n      dup2\n      jump\t// out\n        /* \"Idea.sol\":738:763  string public description */\n    tag_61:\n      0x02\n      dup1\n      sload\n      tag_124\n      swap1\n      tag_98\n      jump\t// in\n    tag_124:\n      dup1\n      0x1f\n      add\n      0x20\n      dup1\n      swap2\n      div\n      mul\n      0x20\n      add\n      mload(0x40)\n      swap1\n      dup2\n      add\n      0x40\n      mstore\n      dup1\n      swap3\n      swap2\n      swap1\n      dup2\n      dup2\n      mstore\n      0x20\n      add\n      dup3\n      dup1\n      sload\n      tag_125\n      swap1\n      tag_98\n      jump\t// in\n    tag_125:\n      dup1\n      iszero\n      tag_126\n      jumpi\n      dup1\n      0x1f\n      lt\n      tag_127\n      jumpi\n      0x0100\n      dup1\n      dup4\n      sload\n      div\n      mul\n      dup4\n      mstore\n      swap2\n      0x20\n      add\n      swap2\n      jump(tag_126)\n    tag_127:\n      dup3\n      add\n      swap2\n      swap1\n      0x00\n      mstore\n      keccak256(0x00, 0x20)\n      swap1\n    tag_128:\n      dup2\n      sload\n      dup2\n      mstore\n      swap1\n      0x01\n      add\n      swap1\n      0x20\n      add\n      dup1\n      dup4\n      gt\n      tag_128\n      jumpi\n      dup3\n      swap1\n      sub\n      0x1f\n      and\n      dup3\n      add\n      swap2\n    tag_126:\n      pop\n      pop\n      pop\n      pop\n      pop\n      dup2\n      jump\t// out\n        /* \"Idea.sol\":893:923  uint public numUniqueApprovers */\n    tag_65:\n      sload(0x06)\n      dup2\n      jump\t// out\n        /* \"Idea.sol\":808:849  mapping (uint => Request) public requests */\n    tag_70:\n      mstore(0x20, 0x04)\n      dup1\n      0x00\n      mstore\n      keccak256(0x00, 0x40)\n      0x00\n      swap2\n      pop\n      swap1\n      pop\n      dup1\n      0x00\n      add\n      dup1\n      sload\n      tag_129\n      swap1\n      tag_98\n      jump\t// in\n    tag_129:\n      dup1\n      0x1f\n      add\n      0x20\n      dup1\n      swap2\n      div\n      mul\n      0x20\n      add\n      mload(0x40)\n      swap1\n      dup2\n      add\n      0x40\n      mstore\n      dup1\n      swap3\n      swap2\n      swap1\n      dup2\n      dup2\n      mstore\n      0x20\n      add\n      dup3\n      dup1\n      sload\n      tag_130\n      swap1\n      tag_98\n      jump\t// in\n    tag_130:\n      dup1\n      iszero\n      tag_131\n      jumpi\n      dup1\n      0x1f\n      lt\n      tag_132\n      jumpi\n      0x0100\n      dup1\n      dup4\n      sload\n      div\n      mul\n      dup4\n      mstore\n      swap2\n      0x20\n      add\n      swap2\n      jump(tag_131)\n    tag_132:\n      dup3\n      add\n      swap2\n      swap1\n      0x00\n      mstore\n      keccak256(0x00, 0x20)\n      swap1\n    tag_133:\n      dup2\n      sload\n      dup2\n      mstore\n      swap1\n      0x01\n      add\n      swap1\n      0x20\n      add\n      dup1\n      dup4\n      gt\n      tag_133\n      jumpi\n      dup3\n      swap1\n      sub\n      0x1f\n      and\n      dup3\n      add\n      swap2\n    tag_131:\n      pop\n      pop\n      pop\n      pop\n      pop\n      swap1\n      dup1\n      0x01\n      add\n      sload\n      swap1\n      dup1\n      0x02\n      add\n      0x00\n      swap1\n      sload\n      swap1\n      0x0100\n      exp\n      swap1\n      div\n      0xffffffffffffffffffffffffffffffffffffffff\n      and\n      swap1\n      dup1\n      0x02\n      add\n      0x14\n      swap1\n      sload\n      swap1\n      0x0100\n      exp\n      swap1\n      div\n      0xff\n      and\n      swap1\n      dup1\n      0x03\n      add\n      sload\n      swap1\n      pop\n      dup6\n      jump\t// out\n        /* \"Idea.sol\":2059:2378  function createRequest(string memory description, uint value, address payable recipient) public allowOnlyManager {... */\n    tag_77:\n        /* \"Idea.sol\":1095:1102  manager */\n      0x05\n      0x00\n      swap1\n      sload\n      swap1\n      0x0100\n      exp\n      swap1\n      div\n      0xffffffffffffffffffffffffffffffffffffffff\n      and\n        /* \"Idea.sol\":1081:1102  msg.sender == manager */\n      0xffffffffffffffffffffffffffffffffffffffff\n      and\n        /* \"Idea.sol\":1081:1091  msg.sender */\n      caller\n        /* \"Idea.sol\":1081:1102  msg.sender == manager */\n      0xffffffffffffffffffffffffffffffffffffffff\n      and\n      eq\n        /* \"Idea.sol\":1073:1103  require(msg.sender == manager) */\n      tag_135\n      jumpi\n      0x00\n      dup1\n      revert\n    tag_135:\n        /* \"Idea.sol\":2182:2199  Request storage r */\n      0x00\n        /* \"Idea.sol\":2202:2210  requests */\n      0x04\n        /* \"Idea.sol\":2202:2225  requests[numRequests++] */\n      0x00\n        /* \"Idea.sol\":2211:2222  numRequests */\n      0x03\n      0x00\n        /* \"Idea.sol\":2211:2224  numRequests++ */\n      dup2\n      sload\n      dup1\n      swap3\n      swap2\n      swap1\n      tag_137\n      swap1\n      tag_138\n      jump\t// in\n    tag_137:\n      swap2\n      swap1\n      pop\n      sstore\n        /* \"Idea.sol\":2202:2225  requests[numRequests++] */\n      dup2\n      mstore\n      0x20\n      add\n      swap1\n      dup2\n      mstore\n      0x20\n      add\n      0x00\n      keccak256\n        /* \"Idea.sol\":2182:2225  Request storage r = requests[numRequests++] */\n      swap1\n      pop\n        /* \"Idea.sol\":2251:2262  description */\n      dup4\n        /* \"Idea.sol\":2235:2236  r */\n      dup2\n        /* \"Idea.sol\":2235:2248  r.description */\n      0x00\n      add\n        /* \"Idea.sol\":2235:2262  r.description = description */\n      swap1\n      dup1\n      mload\n      swap1\n      0x20\n      add\n      swap1\n      tag_139\n      swap3\n      swap2\n      swap1\n      tag_140\n      jump\t// in\n    tag_139:\n      pop\n        /* \"Idea.sol\":2282:2287  value */\n      dup3\n        /* \"Idea.sol\":2272:2273  r */\n      dup2\n        /* \"Idea.sol\":2272:2279  r.value */\n      0x01\n      add\n        /* \"Idea.sol\":2272:2287  r.value = value */\n      dup2\n      swap1\n      sstore\n      pop\n        /* \"Idea.sol\":2311:2320  recipient */\n      dup2\n        /* \"Idea.sol\":2297:2298  r */\n      dup2\n        /* \"Idea.sol\":2297:2308  r.recipient */\n      0x02\n      add\n      0x00\n        /* \"Idea.sol\":2297:2320  r.recipient = recipient */\n      0x0100\n      exp\n      dup2\n      sload\n      dup2\n      0xffffffffffffffffffffffffffffffffffffffff\n      mul\n      not\n      and\n      swap1\n      dup4\n      0xffffffffffffffffffffffffffffffffffffffff\n      and\n      mul\n      or\n      swap1\n      sstore\n      pop\n        /* \"Idea.sol\":2343:2348  false */\n      0x00\n        /* \"Idea.sol\":2330:2331  r */\n      dup2\n        /* \"Idea.sol\":2330:2340  r.complete */\n      0x02\n      add\n      0x14\n        /* \"Idea.sol\":2330:2348  r.complete = false */\n      0x0100\n      exp\n      dup2\n      sload\n      dup2\n      0xff\n      mul\n      not\n      and\n      swap1\n      dup4\n      iszero\n      iszero\n      mul\n      or\n      swap1\n      sstore\n      pop\n        /* \"Idea.sol\":2370:2371  0 */\n      0x00\n        /* \"Idea.sol\":2358:2359  r */\n      dup2\n        /* \"Idea.sol\":2358:2367  r.credits */\n      0x03\n      add\n        /* \"Idea.sol\":2358:2371  r.credits = 0 */\n      dup2\n      swap1\n      sstore\n      pop\n        /* \"Idea.sol\":1113:1114  _ */\n      pop\n        /* \"Idea.sol\":2059:2378  function createRequest(string memory description, uint value, address payable recipient) public allowOnlyManager {... */\n      pop\n      pop\n      pop\n      jump\t// out\n        /* \"Idea.sol\":779:802  uint public numRequests */\n    tag_80:\n      sload(0x03)\n      dup2\n      jump\t// out\n        /* \"Idea.sol\":1462:2049  function contribute() public payable {... */\n    tag_83:\n        /* \"Idea.sol\":1530:1544  oneCreditValue */\n      sload(0x08)\n        /* \"Idea.sol\":1517:1526  msg.value */\n      callvalue\n        /* \"Idea.sol\":1517:1544  msg.value >= oneCreditValue */\n      lt\n      iszero\n        /* \"Idea.sol\":1509:1545  require(msg.value >= oneCreditValue) */\n      tag_142\n      jumpi\n      0x00\n      dup1\n      revert\n    tag_142:\n        /* \"Idea.sol\":1584:1585  0 */\n      0x00\n        /* \"Idea.sol\":1559:1568  approvers */\n      0x07\n        /* \"Idea.sol\":1559:1580  approvers[msg.sender] */\n      0x00\n        /* \"Idea.sol\":1569:1579  msg.sender */\n      caller\n        /* \"Idea.sol\":1559:1580  approvers[msg.sender] */\n      0xffffffffffffffffffffffffffffffffffffffff\n      and\n      0xffffffffffffffffffffffffffffffffffffffff\n      and\n      dup2\n      mstore\n      0x20\n      add\n      swap1\n      dup2\n      mstore\n      0x20\n      add\n      0x00\n      keccak256\n      sload\n        /* \"Idea.sol\":1559:1585  approvers[msg.sender] == 0 */\n      eq\n        /* \"Idea.sol\":1556:1632  if(approvers[msg.sender] == 0) {... */\n      iszero\n      tag_143\n      jumpi\n        /* \"Idea.sol\":1601:1619  numUniqueApprovers */\n      0x06\n      0x00\n        /* \"Idea.sol\":1601:1621  numUniqueApprovers++ */\n      dup2\n      sload\n      dup1\n      swap3\n      swap2\n      swap1\n      tag_144\n      swap1\n      tag_138\n      jump\t// in\n    tag_144:\n      swap2\n      swap1\n      pop\n      sstore\n      pop\n        /* \"Idea.sol\":1556:1632  if(approvers[msg.sender] == 0) {... */\n    tag_143:\n        /* \"Idea.sol\":1643:1653  uint value */\n      0x00\n        /* \"Idea.sol\":1668:1682  oneCreditValue */\n      sload(0x08)\n        /* \"Idea.sol\":1656:1665  msg.value */\n      callvalue\n        /* \"Idea.sol\":1656:1682  msg.value / oneCreditValue */\n      tag_145\n      swap2\n      swap1\n      tag_92\n      jump\t// in\n    tag_145:\n        /* \"Idea.sol\":1643:1682  uint value = msg.value / oneCreditValue */\n      swap1\n      pop\n        /* \"Idea.sol\":1717:1722  value */\n      dup1\n        /* \"Idea.sol\":1692:1701  approvers */\n      0x07\n        /* \"Idea.sol\":1692:1713  approvers[msg.sender] */\n      0x00\n        /* \"Idea.sol\":1702:1712  msg.sender */\n      caller\n        /* \"Idea.sol\":1692:1713  approvers[msg.sender] */\n      0xffffffffffffffffffffffffffffffffffffffff\n      and\n      0xffffffffffffffffffffffffffffffffffffffff\n      and\n      dup2\n      mstore\n      0x20\n      add\n      swap1\n      dup2\n      mstore\n      0x20\n      add\n      0x00\n      keccak256\n      0x00\n        /* \"Idea.sol\":1692:1722  approvers[msg.sender] += value */\n      dup3\n      dup3\n      sload\n      tag_146\n      swap2\n      swap1\n      tag_147\n      jump\t// in\n    tag_146:\n      swap3\n      pop\n      pop\n      dup2\n      swap1\n      sstore\n      pop\n        /* \"Idea.sol\":1743:1748  value */\n      dup1\n        /* \"Idea.sol\":1732:1739  credits */\n      0x09\n      0x00\n        /* \"Idea.sol\":1732:1748  credits += value */\n      dup3\n      dup3\n      sload\n      tag_148\n      swap2\n      swap1\n      tag_147\n      jump\t// in\n    tag_148:\n      swap3\n      pop\n      pop\n      dup2\n      swap1\n      sstore\n      pop\n        /* \"Idea.sol\":1800:1811  uint change */\n      0x00\n        /* \"Idea.sol\":1826:1840  oneCreditValue */\n      sload(0x08)\n        /* \"Idea.sol\":1814:1823  msg.value */\n      callvalue\n        /* \"Idea.sol\":1814:1840  msg.value % oneCreditValue */\n      tag_149\n      swap2\n      swap1\n      tag_150\n      jump\t// in\n    tag_149:\n        /* \"Idea.sol\":1800:1840  uint change = msg.value % oneCreditValue */\n      swap1\n      pop\n        /* \"Idea.sol\":1920:1921  0 */\n      0x00\n        /* \"Idea.sol\":1910:1916  change */\n      dup2\n        /* \"Idea.sol\":1910:1921  change != 0 */\n      eq\n        /* \"Idea.sol\":1907:2043  if(change != 0) {... */\n      tag_151\n      jumpi\n        /* \"Idea.sol\":1937:1966  address payable senderAddress */\n      0x00\n        /* \"Idea.sol\":1977:1987  msg.sender */\n      caller\n        /* \"Idea.sol\":1937:1988  address payable senderAddress = payable(msg.sender) */\n      swap1\n      pop\n        /* \"Idea.sol\":2002:2015  senderAddress */\n      dup1\n        /* \"Idea.sol\":2002:2024  senderAddress.transfer */\n      0xffffffffffffffffffffffffffffffffffffffff\n      and\n        /* \"Idea.sol\":2002:2032  senderAddress.transfer(change) */\n      0x08fc\n        /* \"Idea.sol\":2025:2031  change */\n      dup4\n        /* \"Idea.sol\":2002:2032  senderAddress.transfer(change) */\n      swap1\n      dup2\n      iszero\n      mul\n      swap1\n      mload(0x40)\n      0x00\n      mload(0x40)\n      dup1\n      dup4\n      sub\n      dup2\n      dup6\n      dup9\n      dup9\n      call\n      swap4\n      pop\n      pop\n      pop\n      pop\n      iszero\n      dup1\n      iszero\n      tag_153\n      jumpi\n      returndatasize\n      0x00\n      dup1\n      returndatacopy\n      revert(0x00, returndatasize)\n    tag_153:\n      pop\n        /* \"Idea.sol\":1907:2043  if(change != 0) {... */\n      pop\n    tag_151:\n        /* \"Idea.sol\":1462:2049  function contribute() public payable {... */\n      pop\n      pop\n      jump\t// out\n        /* \"Idea.sol\":2388:2680  function approveRequest(uint index) public {... */\n    tag_87:\n        /* \"Idea.sol\":2441:2464  Request storage request */\n      0x00\n        /* \"Idea.sol\":2467:2475  requests */\n      0x04\n        /* \"Idea.sol\":2467:2482  requests[index] */\n      0x00\n        /* \"Idea.sol\":2476:2481  index */\n      dup4\n        /* \"Idea.sol\":2467:2482  requests[index] */\n      dup2\n      mstore\n      0x20\n      add\n      swap1\n      dup2\n      mstore\n      0x20\n      add\n      0x00\n      keccak256\n        /* \"Idea.sol\":2441:2482  Request storage request = requests[index] */\n      swap1\n      pop\n        /* \"Idea.sol\":2525:2526  0 */\n      0x00\n        /* \"Idea.sol\":2501:2510  approvers */\n      0x07\n        /* \"Idea.sol\":2501:2522  approvers[msg.sender] */\n      0x00\n        /* \"Idea.sol\":2511:2521  msg.sender */\n      caller\n        /* \"Idea.sol\":2501:2522  approvers[msg.sender] */\n      0xffffffffffffffffffffffffffffffffffffffff\n      and\n      0xffffffffffffffffffffffffffffffffffffffff\n      and\n      dup2\n      mstore\n      0x20\n      add\n      swap1\n      dup2\n      mstore\n      0x20\n      add\n      0x00\n      keccak256\n      sload\n        /* \"Idea.sol\":2501:2526  approvers[msg.sender] > 0 */\n      gt\n        /* \"Idea.sol\":2493:2527  require(approvers[msg.sender] > 0) */\n      tag_155\n      jumpi\n      0x00\n      dup1\n      revert\n    tag_155:\n        /* \"Idea.sol\":2546:2553  request */\n      dup1\n        /* \"Idea.sol\":2546:2563  request.approvals */\n      0x04\n      add\n        /* \"Idea.sol\":2546:2575  request.approvals[msg.sender] */\n      0x00\n        /* \"Idea.sol\":2564:2574  msg.sender */\n      caller\n        /* \"Idea.sol\":2546:2575  request.approvals[msg.sender] */\n      0xffffffffffffffffffffffffffffffffffffffff\n      and\n      0xffffffffffffffffffffffffffffffffffffffff\n      and\n      dup2\n      mstore\n      0x20\n      add\n      swap1\n      dup2\n      mstore\n      0x20\n      add\n      0x00\n      keccak256\n      0x00\n      swap1\n      sload\n      swap1\n      0x0100\n      exp\n      swap1\n      div\n      0xff\n      and\n        /* \"Idea.sol\":2545:2575  !request.approvals[msg.sender] */\n      iszero\n        /* \"Idea.sol\":2537:2576  require(!request.approvals[msg.sender]) */\n      tag_156\n      jumpi\n      0x00\n      dup1\n      revert\n    tag_156:\n        /* \"Idea.sol\":2619:2623  true */\n      0x01\n        /* \"Idea.sol\":2587:2594  request */\n      dup2\n        /* \"Idea.sol\":2587:2604  request.approvals */\n      0x04\n      add\n        /* \"Idea.sol\":2587:2616  request.approvals[msg.sender] */\n      0x00\n        /* \"Idea.sol\":2605:2615  msg.sender */\n      caller\n        /* \"Idea.sol\":2587:2616  request.approvals[msg.sender] */\n      0xffffffffffffffffffffffffffffffffffffffff\n      and\n      0xffffffffffffffffffffffffffffffffffffffff\n      and\n      dup2\n      mstore\n      0x20\n      add\n      swap1\n      dup2\n      mstore\n      0x20\n      add\n      0x00\n      keccak256\n      0x00\n        /* \"Idea.sol\":2587:2623  request.approvals[msg.sender] = true */\n      0x0100\n      exp\n      dup2\n      sload\n      dup2\n      0xff\n      mul\n      not\n      and\n      swap1\n      dup4\n      iszero\n      iszero\n      mul\n      or\n      swap1\n      sstore\n      pop\n        /* \"Idea.sol\":2652:2661  approvers */\n      0x07\n        /* \"Idea.sol\":2652:2673  approvers[msg.sender] */\n      0x00\n        /* \"Idea.sol\":2662:2672  msg.sender */\n      caller\n        /* \"Idea.sol\":2652:2673  approvers[msg.sender] */\n      0xffffffffffffffffffffffffffffffffffffffff\n      and\n      0xffffffffffffffffffffffffffffffffffffffff\n      and\n      dup2\n      mstore\n      0x20\n      add\n      swap1\n      dup2\n      mstore\n      0x20\n      add\n      0x00\n      keccak256\n      sload\n        /* \"Idea.sol\":2633:2640  request */\n      dup2\n        /* \"Idea.sol\":2633:2648  request.credits */\n      0x03\n      add\n      0x00\n        /* \"Idea.sol\":2633:2673  request.credits += approvers[msg.sender] */\n      dup3\n      dup3\n      sload\n      tag_157\n      swap2\n      swap1\n      tag_147\n      jump\t// in\n    tag_157:\n      swap3\n      pop\n      pop\n      dup2\n      swap1\n      sstore\n      pop\n        /* \"Idea.sol\":2388:2680  function approveRequest(uint index) public {... */\n      pop\n      pop\n      jump\t// out\n    tag_140:\n      dup3\n      dup1\n      sload\n      tag_158\n      swap1\n      tag_98\n      jump\t// in\n    tag_158:\n      swap1\n      0x00\n      mstore\n      keccak256(0x00, 0x20)\n      swap1\n      0x1f\n      add\n      0x20\n      swap1\n      div\n      dup2\n      add\n      swap3\n      dup3\n      tag_160\n      jumpi\n      0x00\n      dup6\n      sstore\n      jump(tag_159)\n    tag_160:\n      dup3\n      0x1f\n      lt\n      tag_161\n      jumpi\n      dup1\n      mload\n      not(0xff)\n      and\n      dup4\n      dup1\n      add\n      or\n      dup6\n      sstore\n      jump(tag_159)\n    tag_161:\n      dup3\n      dup1\n      add\n      0x01\n      add\n      dup6\n      sstore\n      dup3\n      iszero\n      tag_159\n      jumpi\n      swap2\n      dup3\n      add\n    tag_162:\n      dup3\n      dup2\n      gt\n      iszero\n      tag_163\n      jumpi\n      dup3\n      mload\n      dup3\n      sstore\n      swap2\n      0x20\n      add\n      swap2\n      swap1\n      0x01\n      add\n      swap1\n      jump(tag_162)\n    tag_163:\n    tag_159:\n      pop\n      swap1\n      pop\n      tag_164\n      swap2\n      swap1\n      tag_165\n      jump\t// in\n    tag_164:\n      pop\n      swap1\n      jump\t// out\n    tag_165:\n    tag_166:\n      dup1\n      dup3\n      gt\n      iszero\n      tag_167\n      jumpi\n      0x00\n      dup2\n      0x00\n      swap1\n      sstore\n      pop\n      0x01\n      add\n      jump(tag_166)\n    tag_167:\n      pop\n      swap1\n      jump\t// out\n        /* \"#utility.yul\":7:352   */\n    tag_169:\n      0x00\n        /* \"#utility.yul\":110:176   */\n      tag_171\n        /* \"#utility.yul\":126:175   */\n      tag_172\n        /* \"#utility.yul\":168:174   */\n      dup5\n        /* \"#utility.yul\":126:175   */\n      tag_173\n      jump\t// in\n    tag_172:\n        /* \"#utility.yul\":110:176   */\n      tag_174\n      jump\t// in\n    tag_171:\n        /* \"#utility.yul\":101:176   */\n      swap1\n      pop\n        /* \"#utility.yul\":199:205   */\n      dup3\n        /* \"#utility.yul\":192:197   */\n      dup2\n        /* \"#utility.yul\":185:206   */\n      mstore\n        /* \"#utility.yul\":237:241   */\n      0x20\n        /* \"#utility.yul\":230:235   */\n      dup2\n        /* \"#utility.yul\":226:242   */\n      add\n        /* \"#utility.yul\":275:278   */\n      dup5\n        /* \"#utility.yul\":266:272   */\n      dup5\n        /* \"#utility.yul\":261:264   */\n      dup5\n        /* \"#utility.yul\":257:273   */\n      add\n        /* \"#utility.yul\":254:279   */\n      gt\n        /* \"#utility.yul\":251:253   */\n      iszero\n      tag_175\n      jumpi\n        /* \"#utility.yul\":292:293   */\n      0x00\n        /* \"#utility.yul\":289:290   */\n      dup1\n        /* \"#utility.yul\":282:294   */\n      revert\n        /* \"#utility.yul\":251:253   */\n    tag_175:\n        /* \"#utility.yul\":305:346   */\n      tag_176\n        /* \"#utility.yul\":339:345   */\n      dup5\n        /* \"#utility.yul\":334:337   */\n      dup3\n        /* \"#utility.yul\":329:332   */\n      dup6\n        /* \"#utility.yul\":305:346   */\n      tag_177\n      jump\t// in\n    tag_176:\n        /* \"#utility.yul\":91:352   */\n      pop\n      swap4\n      swap3\n      pop\n      pop\n      pop\n      jump\t// out\n        /* \"#utility.yul\":358:497   */\n    tag_178:\n      0x00\n        /* \"#utility.yul\":442:448   */\n      dup2\n        /* \"#utility.yul\":429:449   */\n      calldataload\n        /* \"#utility.yul\":420:449   */\n      swap1\n      pop\n        /* \"#utility.yul\":458:491   */\n      tag_180\n        /* \"#utility.yul\":485:490   */\n      dup2\n        /* \"#utility.yul\":458:491   */\n      tag_181\n      jump\t// in\n    tag_180:\n        /* \"#utility.yul\":410:497   */\n      swap3\n      swap2\n      pop\n      pop\n      jump\t// out\n        /* \"#utility.yul\":503:658   */\n    tag_182:\n      0x00\n        /* \"#utility.yul\":595:601   */\n      dup2\n        /* \"#utility.yul\":582:602   */\n      calldataload\n        /* \"#utility.yul\":573:602   */\n      swap1\n      pop\n        /* \"#utility.yul\":611:652   */\n      tag_184\n        /* \"#utility.yul\":646:651   */\n      dup2\n        /* \"#utility.yul\":611:652   */\n      tag_185\n      jump\t// in\n    tag_184:\n        /* \"#utility.yul\":563:658   */\n      swap3\n      swap2\n      pop\n      pop\n      jump\t// out\n        /* \"#utility.yul\":678:951   */\n    tag_186:\n      0x00\n        /* \"#utility.yul\":783:786   */\n      dup3\n        /* \"#utility.yul\":776:780   */\n      0x1f\n        /* \"#utility.yul\":768:774   */\n      dup4\n        /* \"#utility.yul\":764:781   */\n      add\n        /* \"#utility.yul\":760:787   */\n      slt\n        /* \"#utility.yul\":750:752   */\n      tag_188\n      jumpi\n        /* \"#utility.yul\":801:802   */\n      0x00\n        /* \"#utility.yul\":798:799   */\n      dup1\n        /* \"#utility.yul\":791:803   */\n      revert\n        /* \"#utility.yul\":750:752   */\n    tag_188:\n        /* \"#utility.yul\":841:847   */\n      dup2\n        /* \"#utility.yul\":828:848   */\n      calldataload\n        /* \"#utility.yul\":866:945   */\n      tag_189\n        /* \"#utility.yul\":941:944   */\n      dup5\n        /* \"#utility.yul\":933:939   */\n      dup3\n        /* \"#utility.yul\":926:930   */\n      0x20\n        /* \"#utility.yul\":918:924   */\n      dup7\n        /* \"#utility.yul\":914:931   */\n      add\n        /* \"#utility.yul\":866:945   */\n      tag_169\n      jump\t// in\n    tag_189:\n        /* \"#utility.yul\":857:945   */\n      swap2\n      pop\n        /* \"#utility.yul\":740:951   */\n      pop\n      swap3\n      swap2\n      pop\n      pop\n      jump\t// out\n        /* \"#utility.yul\":957:1096   */\n    tag_190:\n      0x00\n        /* \"#utility.yul\":1041:1047   */\n      dup2\n        /* \"#utility.yul\":1028:1048   */\n      calldataload\n        /* \"#utility.yul\":1019:1048   */\n      swap1\n      pop\n        /* \"#utility.yul\":1057:1090   */\n      tag_192\n        /* \"#utility.yul\":1084:1089   */\n      dup2\n        /* \"#utility.yul\":1057:1090   */\n      tag_193\n      jump\t// in\n    tag_192:\n        /* \"#utility.yul\":1009:1096   */\n      swap3\n      swap2\n      pop\n      pop\n      jump\t// out\n        /* \"#utility.yul\":1102:1364   */\n    tag_33:\n      0x00\n        /* \"#utility.yul\":1210:1212   */\n      0x20\n        /* \"#utility.yul\":1198:1207   */\n      dup3\n        /* \"#utility.yul\":1189:1196   */\n      dup5\n        /* \"#utility.yul\":1185:1208   */\n      sub\n        /* \"#utility.yul\":1181:1213   */\n      slt\n        /* \"#utility.yul\":1178:1180   */\n      iszero\n      tag_195\n      jumpi\n        /* \"#utility.yul\":1226:1227   */\n      0x00\n        /* \"#utility.yul\":1223:1224   */\n      dup1\n        /* \"#utility.yul\":1216:1228   */\n      revert\n        /* \"#utility.yul\":1178:1180   */\n    tag_195:\n        /* \"#utility.yul\":1269:1270   */\n      0x00\n        /* \"#utility.yul\":1294:1347   */\n      tag_196\n        /* \"#utility.yul\":1339:1346   */\n      dup5\n        /* \"#utility.yul\":1330:1336   */\n      dup3\n        /* \"#utility.yul\":1319:1328   */\n      dup6\n        /* \"#utility.yul\":1315:1337   */\n      add\n        /* \"#utility.yul\":1294:1347   */\n      tag_178\n      jump\t// in\n    tag_196:\n        /* \"#utility.yul\":1284:1347   */\n      swap2\n      pop\n        /* \"#utility.yul\":1240:1357   */\n      pop\n        /* \"#utility.yul\":1168:1364   */\n      swap3\n      swap2\n      pop\n      pop\n      jump\t// out\n        /* \"#utility.yul\":1370:2051   */\n    tag_76:\n      0x00\n      dup1\n      0x00\n        /* \"#utility.yul\":1530:1532   */\n      0x60\n        /* \"#utility.yul\":1518:1527   */\n      dup5\n        /* \"#utility.yul\":1509:1516   */\n      dup7\n        /* \"#utility.yul\":1505:1528   */\n      sub\n        /* \"#utility.yul\":1501:1533   */\n      slt\n        /* \"#utility.yul\":1498:1500   */\n      iszero\n      tag_198\n      jumpi\n        /* \"#utility.yul\":1546:1547   */\n      0x00\n        /* \"#utility.yul\":1543:1544   */\n      dup1\n        /* \"#utility.yul\":1536:1548   */\n      revert\n        /* \"#utility.yul\":1498:1500   */\n    tag_198:\n        /* \"#utility.yul\":1617:1618   */\n      0x00\n        /* \"#utility.yul\":1606:1615   */\n      dup5\n        /* \"#utility.yul\":1602:1619   */\n      add\n        /* \"#utility.yul\":1589:1620   */\n      calldataload\n        /* \"#utility.yul\":1647:1665   */\n      0xffffffffffffffff\n        /* \"#utility.yul\":1639:1645   */\n      dup2\n        /* \"#utility.yul\":1636:1666   */\n      gt\n        /* \"#utility.yul\":1633:1635   */\n      iszero\n      tag_199\n      jumpi\n        /* \"#utility.yul\":1679:1680   */\n      0x00\n        /* \"#utility.yul\":1676:1677   */\n      dup1\n        /* \"#utility.yul\":1669:1681   */\n      revert\n        /* \"#utility.yul\":1633:1635   */\n    tag_199:\n        /* \"#utility.yul\":1707:1770   */\n      tag_200\n        /* \"#utility.yul\":1762:1769   */\n      dup7\n        /* \"#utility.yul\":1753:1759   */\n      dup3\n        /* \"#utility.yul\":1742:1751   */\n      dup8\n        /* \"#utility.yul\":1738:1760   */\n      add\n        /* \"#utility.yul\":1707:1770   */\n      tag_186\n      jump\t// in\n    tag_200:\n        /* \"#utility.yul\":1697:1770   */\n      swap4\n      pop\n        /* \"#utility.yul\":1560:1780   */\n      pop\n        /* \"#utility.yul\":1819:1821   */\n      0x20\n        /* \"#utility.yul\":1845:1898   */\n      tag_201\n        /* \"#utility.yul\":1890:1897   */\n      dup7\n        /* \"#utility.yul\":1881:1887   */\n      dup3\n        /* \"#utility.yul\":1870:1879   */\n      dup8\n        /* \"#utility.yul\":1866:1888   */\n      add\n        /* \"#utility.yul\":1845:1898   */\n      tag_190\n      jump\t// in\n    tag_201:\n        /* \"#utility.yul\":1835:1898   */\n      swap3\n      pop\n        /* \"#utility.yul\":1790:1908   */\n      pop\n        /* \"#utility.yul\":1947:1949   */\n      0x40\n        /* \"#utility.yul\":1973:2034   */\n      tag_202\n        /* \"#utility.yul\":2026:2033   */\n      dup7\n        /* \"#utility.yul\":2017:2023   */\n      dup3\n        /* \"#utility.yul\":2006:2015   */\n      dup8\n        /* \"#utility.yul\":2002:2024   */\n      add\n        /* \"#utility.yul\":1973:2034   */\n      tag_182\n      jump\t// in\n    tag_202:\n        /* \"#utility.yul\":1963:2034   */\n      swap2\n      pop\n        /* \"#utility.yul\":1918:2044   */\n      pop\n        /* \"#utility.yul\":1488:2051   */\n      swap3\n      pop\n      swap3\n      pop\n      swap3\n      jump\t// out\n        /* \"#utility.yul\":2057:2319   */\n    tag_23:\n      0x00\n        /* \"#utility.yul\":2165:2167   */\n      0x20\n        /* \"#utility.yul\":2153:2162   */\n      dup3\n        /* \"#utility.yul\":2144:2151   */\n      dup5\n        /* \"#utility.yul\":2140:2163   */\n      sub\n        /* \"#utility.yul\":2136:2168   */\n      slt\n        /* \"#utility.yul\":2133:2135   */\n      iszero\n      tag_204\n      jumpi\n        /* \"#utility.yul\":2181:2182   */\n      0x00\n        /* \"#utility.yul\":2178:2179   */\n      dup1\n        /* \"#utility.yul\":2171:2183   */\n      revert\n        /* \"#utility.yul\":2133:2135   */\n    tag_204:\n        /* \"#utility.yul\":2224:2225   */\n      0x00\n        /* \"#utility.yul\":2249:2302   */\n      tag_205\n        /* \"#utility.yul\":2294:2301   */\n      dup5\n        /* \"#utility.yul\":2285:2291   */\n      dup3\n        /* \"#utility.yul\":2274:2283   */\n      dup6\n        /* \"#utility.yul\":2270:2292   */\n      add\n        /* \"#utility.yul\":2249:2302   */\n      tag_190\n      jump\t// in\n    tag_205:\n        /* \"#utility.yul\":2239:2302   */\n      swap2\n      pop\n        /* \"#utility.yul\":2195:2312   */\n      pop\n        /* \"#utility.yul\":2123:2319   */\n      swap3\n      swap2\n      pop\n      pop\n      jump\t// out\n        /* \"#utility.yul\":2325:2467   */\n    tag_206:\n        /* \"#utility.yul\":2428:2460   */\n      tag_208\n        /* \"#utility.yul\":2454:2459   */\n      dup2\n        /* \"#utility.yul\":2428:2460   */\n      tag_209\n      jump\t// in\n    tag_208:\n        /* \"#utility.yul\":2423:2426   */\n      dup3\n        /* \"#utility.yul\":2416:2461   */\n      mstore\n        /* \"#utility.yul\":2406:2467   */\n      pop\n      pop\n      jump\t// out\n        /* \"#utility.yul\":2473:2591   */\n    tag_210:\n        /* \"#utility.yul\":2560:2584   */\n      tag_212\n        /* \"#utility.yul\":2578:2583   */\n      dup2\n        /* \"#utility.yul\":2560:2584   */\n      tag_213\n      jump\t// in\n    tag_212:\n        /* \"#utility.yul\":2555:2558   */\n      dup3\n        /* \"#utility.yul\":2548:2585   */\n      mstore\n        /* \"#utility.yul\":2538:2591   */\n      pop\n      pop\n      jump\t// out\n        /* \"#utility.yul\":2597:2706   */\n    tag_214:\n        /* \"#utility.yul\":2678:2699   */\n      tag_216\n        /* \"#utility.yul\":2693:2698   */\n      dup2\n        /* \"#utility.yul\":2678:2699   */\n      tag_217\n      jump\t// in\n    tag_216:\n        /* \"#utility.yul\":2673:2676   */\n      dup3\n        /* \"#utility.yul\":2666:2700   */\n      mstore\n        /* \"#utility.yul\":2656:2706   */\n      pop\n      pop\n      jump\t// out\n        /* \"#utility.yul\":2712:3076   */\n    tag_218:\n      0x00\n        /* \"#utility.yul\":2828:2867   */\n      tag_220\n        /* \"#utility.yul\":2861:2866   */\n      dup3\n        /* \"#utility.yul\":2828:2867   */\n      tag_221\n      jump\t// in\n    tag_220:\n        /* \"#utility.yul\":2883:2954   */\n      tag_222\n        /* \"#utility.yul\":2947:2953   */\n      dup2\n        /* \"#utility.yul\":2942:2945   */\n      dup6\n        /* \"#utility.yul\":2883:2954   */\n      tag_223\n      jump\t// in\n    tag_222:\n        /* \"#utility.yul\":2876:2954   */\n      swap4\n      pop\n        /* \"#utility.yul\":2963:3015   */\n      tag_224\n        /* \"#utility.yul\":3008:3014   */\n      dup2\n        /* \"#utility.yul\":3003:3006   */\n      dup6\n        /* \"#utility.yul\":2996:3000   */\n      0x20\n        /* \"#utility.yul\":2989:2994   */\n      dup7\n        /* \"#utility.yul\":2985:3001   */\n      add\n        /* \"#utility.yul\":2963:3015   */\n      tag_225\n      jump\t// in\n    tag_224:\n        /* \"#utility.yul\":3040:3069   */\n      tag_226\n        /* \"#utility.yul\":3062:3068   */\n      dup2\n        /* \"#utility.yul\":3040:3069   */\n      tag_227\n      jump\t// in\n    tag_226:\n        /* \"#utility.yul\":3035:3038   */\n      dup5\n        /* \"#utility.yul\":3031:3070   */\n      add\n        /* \"#utility.yul\":3024:3070   */\n      swap2\n      pop\n        /* \"#utility.yul\":2804:3076   */\n      pop\n      swap3\n      swap2\n      pop\n      pop\n      jump\t// out\n        /* \"#utility.yul\":3082:3200   */\n    tag_228:\n        /* \"#utility.yul\":3169:3193   */\n      tag_230\n        /* \"#utility.yul\":3187:3192   */\n      dup2\n        /* \"#utility.yul\":3169:3193   */\n      tag_231\n      jump\t// in\n    tag_230:\n        /* \"#utility.yul\":3164:3167   */\n      dup3\n        /* \"#utility.yul\":3157:3194   */\n      mstore\n        /* \"#utility.yul\":3147:3200   */\n      pop\n      pop\n      jump\t// out\n        /* \"#utility.yul\":3206:3428   */\n    tag_54:\n      0x00\n        /* \"#utility.yul\":3337:3339   */\n      0x20\n        /* \"#utility.yul\":3326:3335   */\n      dup3\n        /* \"#utility.yul\":3322:3340   */\n      add\n        /* \"#utility.yul\":3314:3340   */\n      swap1\n      pop\n        /* \"#utility.yul\":3350:3421   */\n      tag_233\n        /* \"#utility.yul\":3418:3419   */\n      0x00\n        /* \"#utility.yul\":3407:3416   */\n      dup4\n        /* \"#utility.yul\":3403:3420   */\n      add\n        /* \"#utility.yul\":3394:3400   */\n      dup5\n        /* \"#utility.yul\":3350:3421   */\n      tag_210\n      jump\t// in\n    tag_233:\n        /* \"#utility.yul\":3304:3428   */\n      swap3\n      swap2\n      pop\n      pop\n      jump\t// out\n        /* \"#utility.yul\":3434:3747   */\n    tag_29:\n      0x00\n        /* \"#utility.yul\":3585:3587   */\n      0x20\n        /* \"#utility.yul\":3574:3583   */\n      dup3\n        /* \"#utility.yul\":3570:3588   */\n      add\n        /* \"#utility.yul\":3562:3588   */\n      swap1\n      pop\n        /* \"#utility.yul\":3634:3643   */\n      dup2\n        /* \"#utility.yul\":3628:3632   */\n      dup2\n        /* \"#utility.yul\":3624:3644   */\n      sub\n        /* \"#utility.yul\":3620:3621   */\n      0x00\n        /* \"#utility.yul\":3609:3618   */\n      dup4\n        /* \"#utility.yul\":3605:3622   */\n      add\n        /* \"#utility.yul\":3598:3645   */\n      mstore\n        /* \"#utility.yul\":3662:3740   */\n      tag_235\n        /* \"#utility.yul\":3735:3739   */\n      dup2\n        /* \"#utility.yul\":3726:3732   */\n      dup5\n        /* \"#utility.yul\":3662:3740   */\n      tag_218\n      jump\t// in\n    tag_235:\n        /* \"#utility.yul\":3654:3740   */\n      swap1\n      pop\n        /* \"#utility.yul\":3552:3747   */\n      swap3\n      swap2\n      pop\n      pop\n      jump\t// out\n        /* \"#utility.yul\":3753:5023   */\n    tag_49:\n      0x00\n        /* \"#utility.yul\":4140:4143   */\n      0x0100\n        /* \"#utility.yul\":4129:4138   */\n      dup3\n        /* \"#utility.yul\":4125:4144   */\n      add\n        /* \"#utility.yul\":4117:4144   */\n      swap1\n      pop\n        /* \"#utility.yul\":4190:4199   */\n      dup2\n        /* \"#utility.yul\":4184:4188   */\n      dup2\n        /* \"#utility.yul\":4180:4200   */\n      sub\n        /* \"#utility.yul\":4176:4177   */\n      0x00\n        /* \"#utility.yul\":4165:4174   */\n      dup4\n        /* \"#utility.yul\":4161:4178   */\n      add\n        /* \"#utility.yul\":4154:4201   */\n      mstore\n        /* \"#utility.yul\":4218:4296   */\n      tag_237\n        /* \"#utility.yul\":4291:4295   */\n      dup2\n        /* \"#utility.yul\":4282:4288   */\n      dup12\n        /* \"#utility.yul\":4218:4296   */\n      tag_218\n      jump\t// in\n    tag_237:\n        /* \"#utility.yul\":4210:4296   */\n      swap1\n      pop\n        /* \"#utility.yul\":4343:4352   */\n      dup2\n        /* \"#utility.yul\":4337:4341   */\n      dup2\n        /* \"#utility.yul\":4333:4353   */\n      sub\n        /* \"#utility.yul\":4328:4330   */\n      0x20\n        /* \"#utility.yul\":4317:4326   */\n      dup4\n        /* \"#utility.yul\":4313:4331   */\n      add\n        /* \"#utility.yul\":4306:4354   */\n      mstore\n        /* \"#utility.yul\":4371:4449   */\n      tag_238\n        /* \"#utility.yul\":4444:4448   */\n      dup2\n        /* \"#utility.yul\":4435:4441   */\n      dup11\n        /* \"#utility.yul\":4371:4449   */\n      tag_218\n      jump\t// in\n    tag_238:\n        /* \"#utility.yul\":4363:4449   */\n      swap1\n      pop\n        /* \"#utility.yul\":4496:4505   */\n      dup2\n        /* \"#utility.yul\":4490:4494   */\n      dup2\n        /* \"#utility.yul\":4486:4506   */\n      sub\n        /* \"#utility.yul\":4481:4483   */\n      0x40\n        /* \"#utility.yul\":4470:4479   */\n      dup4\n        /* \"#utility.yul\":4466:4484   */\n      add\n        /* \"#utility.yul\":4459:4507   */\n      mstore\n        /* \"#utility.yul\":4524:4602   */\n      tag_239\n        /* \"#utility.yul\":4597:4601   */\n      dup2\n        /* \"#utility.yul\":4588:4594   */\n      dup10\n        /* \"#utility.yul\":4524:4602   */\n      tag_218\n      jump\t// in\n    tag_239:\n        /* \"#utility.yul\":4516:4602   */\n      swap1\n      pop\n        /* \"#utility.yul\":4612:4684   */\n      tag_240\n        /* \"#utility.yul\":4680:4682   */\n      0x60\n        /* \"#utility.yul\":4669:4678   */\n      dup4\n        /* \"#utility.yul\":4665:4683   */\n      add\n        /* \"#utility.yul\":4656:4662   */\n      dup9\n        /* \"#utility.yul\":4612:4684   */\n      tag_228\n      jump\t// in\n    tag_240:\n        /* \"#utility.yul\":4694:4767   */\n      tag_241\n        /* \"#utility.yul\":4762:4765   */\n      0x80\n        /* \"#utility.yul\":4751:4760   */\n      dup4\n        /* \"#utility.yul\":4747:4766   */\n      add\n        /* \"#utility.yul\":4738:4744   */\n      dup8\n        /* \"#utility.yul\":4694:4767   */\n      tag_228\n      jump\t// in\n    tag_241:\n        /* \"#utility.yul\":4777:4850   */\n      tag_242\n        /* \"#utility.yul\":4845:4848   */\n      0xa0\n        /* \"#utility.yul\":4834:4843   */\n      dup4\n        /* \"#utility.yul\":4830:4849   */\n      add\n        /* \"#utility.yul\":4821:4827   */\n      dup7\n        /* \"#utility.yul\":4777:4850   */\n      tag_228\n      jump\t// in\n    tag_242:\n        /* \"#utility.yul\":4860:4933   */\n      tag_243\n        /* \"#utility.yul\":4928:4931   */\n      0xc0\n        /* \"#utility.yul\":4917:4926   */\n      dup4\n        /* \"#utility.yul\":4913:4932   */\n      add\n        /* \"#utility.yul\":4904:4910   */\n      dup6\n        /* \"#utility.yul\":4860:4933   */\n      tag_228\n      jump\t// in\n    tag_243:\n        /* \"#utility.yul\":4943:5016   */\n      tag_244\n        /* \"#utility.yul\":5011:5014   */\n      0xe0\n        /* \"#utility.yul\":5000:5009   */\n      dup4\n        /* \"#utility.yul\":4996:5015   */\n      add\n        /* \"#utility.yul\":4987:4993   */\n      dup5\n        /* \"#utility.yul\":4943:5016   */\n      tag_210\n      jump\t// in\n    tag_244:\n        /* \"#utility.yul\":4107:5023   */\n      swap10\n      swap9\n      pop\n      pop\n      pop\n      pop\n      pop\n      pop\n      pop\n      pop\n      pop\n      jump\t// out\n        /* \"#utility.yul\":5029:5804   */\n    tag_72:\n      0x00\n        /* \"#utility.yul\":5302:5305   */\n      0xa0\n        /* \"#utility.yul\":5291:5300   */\n      dup3\n        /* \"#utility.yul\":5287:5306   */\n      add\n        /* \"#utility.yul\":5279:5306   */\n      swap1\n      pop\n        /* \"#utility.yul\":5352:5361   */\n      dup2\n        /* \"#utility.yul\":5346:5350   */\n      dup2\n        /* \"#utility.yul\":5342:5362   */\n      sub\n        /* \"#utility.yul\":5338:5339   */\n      0x00\n        /* \"#utility.yul\":5327:5336   */\n      dup4\n        /* \"#utility.yul\":5323:5340   */\n      add\n        /* \"#utility.yul\":5316:5363   */\n      mstore\n        /* \"#utility.yul\":5380:5458   */\n      tag_246\n        /* \"#utility.yul\":5453:5457   */\n      dup2\n        /* \"#utility.yul\":5444:5450   */\n      dup9\n        /* \"#utility.yul\":5380:5458   */\n      tag_218\n      jump\t// in\n    tag_246:\n        /* \"#utility.yul\":5372:5458   */\n      swap1\n      pop\n        /* \"#utility.yul\":5468:5540   */\n      tag_247\n        /* \"#utility.yul\":5536:5538   */\n      0x20\n        /* \"#utility.yul\":5525:5534   */\n      dup4\n        /* \"#utility.yul\":5521:5539   */\n      add\n        /* \"#utility.yul\":5512:5518   */\n      dup8\n        /* \"#utility.yul\":5468:5540   */\n      tag_228\n      jump\t// in\n    tag_247:\n        /* \"#utility.yul\":5550:5638   */\n      tag_248\n        /* \"#utility.yul\":5634:5636   */\n      0x40\n        /* \"#utility.yul\":5623:5632   */\n      dup4\n        /* \"#utility.yul\":5619:5637   */\n      add\n        /* \"#utility.yul\":5610:5616   */\n      dup7\n        /* \"#utility.yul\":5550:5638   */\n      tag_206\n      jump\t// in\n    tag_248:\n        /* \"#utility.yul\":5648:5714   */\n      tag_249\n        /* \"#utility.yul\":5710:5712   */\n      0x60\n        /* \"#utility.yul\":5699:5708   */\n      dup4\n        /* \"#utility.yul\":5695:5713   */\n      add\n        /* \"#utility.yul\":5686:5692   */\n      dup6\n        /* \"#utility.yul\":5648:5714   */\n      tag_214\n      jump\t// in\n    tag_249:\n        /* \"#utility.yul\":5724:5797   */\n      tag_250\n        /* \"#utility.yul\":5792:5795   */\n      0x80\n        /* \"#utility.yul\":5781:5790   */\n      dup4\n        /* \"#utility.yul\":5777:5796   */\n      add\n        /* \"#utility.yul\":5768:5774   */\n      dup5\n        /* \"#utility.yul\":5724:5797   */\n      tag_228\n      jump\t// in\n    tag_250:\n        /* \"#utility.yul\":5269:5804   */\n      swap7\n      swap6\n      pop\n      pop\n      pop\n      pop\n      pop\n      pop\n      jump\t// out\n        /* \"#utility.yul\":5810:6032   */\n    tag_36:\n      0x00\n        /* \"#utility.yul\":5941:5943   */\n      0x20\n        /* \"#utility.yul\":5930:5939   */\n      dup3\n        /* \"#utility.yul\":5926:5944   */\n      add\n        /* \"#utility.yul\":5918:5944   */\n      swap1\n      pop\n        /* \"#utility.yul\":5954:6025   */\n      tag_252\n        /* \"#utility.yul\":6022:6023   */\n      0x00\n        /* \"#utility.yul\":6011:6020   */\n      dup4\n        /* \"#utility.yul\":6007:6024   */\n      add\n        /* \"#utility.yul\":5998:6004   */\n      dup5\n        /* \"#utility.yul\":5954:6025   */\n      tag_228\n      jump\t// in\n    tag_252:\n        /* \"#utility.yul\":5908:6032   */\n      swap3\n      swap2\n      pop\n      pop\n      jump\t// out\n        /* \"#utility.yul\":6038:6167   */\n    tag_174:\n      0x00\n        /* \"#utility.yul\":6099:6119   */\n      tag_254\n      tag_255\n      jump\t// in\n    tag_254:\n        /* \"#utility.yul\":6089:6119   */\n      swap1\n      pop\n        /* \"#utility.yul\":6128:6161   */\n      tag_256\n        /* \"#utility.yul\":6156:6160   */\n      dup3\n        /* \"#utility.yul\":6148:6154   */\n      dup3\n        /* \"#utility.yul\":6128:6161   */\n      tag_257\n      jump\t// in\n    tag_256:\n        /* \"#utility.yul\":6079:6167   */\n      swap2\n      swap1\n      pop\n      jump\t// out\n        /* \"#utility.yul\":6173:6248   */\n    tag_255:\n      0x00\n        /* \"#utility.yul\":6239:6241   */\n      0x40\n        /* \"#utility.yul\":6233:6242   */\n      mload\n        /* \"#utility.yul\":6223:6242   */\n      swap1\n      pop\n        /* \"#utility.yul\":6213:6248   */\n      swap1\n      jump\t// out\n        /* \"#utility.yul\":6254:6562   */\n    tag_173:\n      0x00\n        /* \"#utility.yul\":6406:6424   */\n      0xffffffffffffffff\n        /* \"#utility.yul\":6398:6404   */\n      dup3\n        /* \"#utility.yul\":6395:6425   */\n      gt\n        /* \"#utility.yul\":6392:6394   */\n      iszero\n      tag_260\n      jumpi\n        /* \"#utility.yul\":6428:6446   */\n      tag_261\n      tag_262\n      jump\t// in\n    tag_261:\n        /* \"#utility.yul\":6392:6394   */\n    tag_260:\n        /* \"#utility.yul\":6466:6495   */\n      tag_263\n        /* \"#utility.yul\":6488:6494   */\n      dup3\n        /* \"#utility.yul\":6466:6495   */\n      tag_227\n      jump\t// in\n    tag_263:\n        /* \"#utility.yul\":6458:6495   */\n      swap1\n      pop\n        /* \"#utility.yul\":6550:6554   */\n      0x20\n        /* \"#utility.yul\":6544:6548   */\n      dup2\n        /* \"#utility.yul\":6540:6555   */\n      add\n        /* \"#utility.yul\":6532:6555   */\n      swap1\n      pop\n        /* \"#utility.yul\":6321:6562   */\n      swap2\n      swap1\n      pop\n      jump\t// out\n        /* \"#utility.yul\":6568:6667   */\n    tag_221:\n      0x00\n        /* \"#utility.yul\":6654:6659   */\n      dup2\n        /* \"#utility.yul\":6648:6660   */\n      mload\n        /* \"#utility.yul\":6638:6660   */\n      swap1\n      pop\n        /* \"#utility.yul\":6627:6667   */\n      swap2\n      swap1\n      pop\n      jump\t// out\n        /* \"#utility.yul\":6673:6842   */\n    tag_223:\n      0x00\n        /* \"#utility.yul\":6791:6797   */\n      dup3\n        /* \"#utility.yul\":6786:6789   */\n      dup3\n        /* \"#utility.yul\":6779:6798   */\n      mstore\n        /* \"#utility.yul\":6831:6835   */\n      0x20\n        /* \"#utility.yul\":6826:6829   */\n      dup3\n        /* \"#utility.yul\":6822:6836   */\n      add\n        /* \"#utility.yul\":6807:6836   */\n      swap1\n      pop\n        /* \"#utility.yul\":6769:6842   */\n      swap3\n      swap2\n      pop\n      pop\n      jump\t// out\n        /* \"#utility.yul\":6848:7153   */\n    tag_147:\n      0x00\n        /* \"#utility.yul\":6907:6927   */\n      tag_267\n        /* \"#utility.yul\":6925:6926   */\n      dup3\n        /* \"#utility.yul\":6907:6927   */\n      tag_231\n      jump\t// in\n    tag_267:\n        /* \"#utility.yul\":6902:6927   */\n      swap2\n      pop\n        /* \"#utility.yul\":6941:6961   */\n      tag_268\n        /* \"#utility.yul\":6959:6960   */\n      dup4\n        /* \"#utility.yul\":6941:6961   */\n      tag_231\n      jump\t// in\n    tag_268:\n        /* \"#utility.yul\":6936:6961   */\n      swap3\n      pop\n        /* \"#utility.yul\":7095:7096   */\n      dup3\n        /* \"#utility.yul\":7027:7093   */\n      0xffffffffffffffffffffffffffffffffffffffffffffffffffffffffffffffff\n        /* \"#utility.yul\":7023:7097   */\n      sub\n        /* \"#utility.yul\":7020:7021   */\n      dup3\n        /* \"#utility.yul\":7017:7098   */\n      gt\n        /* \"#utility.yul\":7014:7016   */\n      iszero\n      tag_269\n      jumpi\n        /* \"#utility.yul\":7101:7119   */\n      tag_270\n      tag_271\n      jump\t// in\n    tag_270:\n        /* \"#utility.yul\":7014:7016   */\n    tag_269:\n        /* \"#utility.yul\":7145:7146   */\n      dup3\n        /* \"#utility.yul\":7142:7143   */\n      dup3\n        /* \"#utility.yul\":7138:7147   */\n      add\n        /* \"#utility.yul\":7131:7147   */\n      swap1\n      pop\n        /* \"#utility.yul\":6892:7153   */\n      swap3\n      swap2\n      pop\n      pop\n      jump\t// out\n        /* \"#utility.yul\":7159:7344   */\n    tag_92:\n      0x00\n        /* \"#utility.yul\":7216:7236   */\n      tag_273\n        /* \"#utility.yul\":7234:7235   */\n      dup3\n        /* \"#utility.yul\":7216:7236   */\n      tag_231\n      jump\t// in\n    tag_273:\n        /* \"#utility.yul\":7211:7236   */\n      swap2\n      pop\n        /* \"#utility.yul\":7250:7270   */\n      tag_274\n        /* \"#utility.yul\":7268:7269   */\n      dup4\n        /* \"#utility.yul\":7250:7270   */\n      tag_231\n      jump\t// in\n    tag_274:\n        /* \"#utility.yul\":7245:7270   */\n      swap3\n      pop\n        /* \"#utility.yul\":7289:7290   */\n      dup3\n        /* \"#utility.yul\":7279:7281   */\n      tag_275\n      jumpi\n        /* \"#utility.yul\":7294:7312   */\n      tag_276\n      tag_277\n      jump\t// in\n    tag_276:\n        /* \"#utility.yul\":7279:7281   */\n    tag_275:\n        /* \"#utility.yul\":7336:7337   */\n      dup3\n        /* \"#utility.yul\":7333:7334   */\n      dup3\n        /* \"#utility.yul\":7329:7338   */\n      div\n        /* \"#utility.yul\":7324:7338   */\n      swap1\n      pop\n        /* \"#utility.yul\":7201:7344   */\n      swap3\n      swap2\n      pop\n      pop\n      jump\t// out\n        /* \"#utility.yul\":7350:7446   */\n    tag_213:\n      0x00\n        /* \"#utility.yul\":7416:7440   */\n      tag_279\n        /* \"#utility.yul\":7434:7439   */\n      dup3\n        /* \"#utility.yul\":7416:7440   */\n      tag_280\n      jump\t// in\n    tag_279:\n        /* \"#utility.yul\":7405:7440   */\n      swap1\n      pop\n        /* \"#utility.yul\":7395:7446   */\n      swap2\n      swap1\n      pop\n      jump\t// out\n        /* \"#utility.yul\":7452:7556   */\n    tag_209:\n      0x00\n        /* \"#utility.yul\":7526:7550   */\n      tag_282\n        /* \"#utility.yul\":7544:7549   */\n      dup3\n        /* \"#utility.yul\":7526:7550   */\n      tag_280\n      jump\t// in\n    tag_282:\n        /* \"#utility.yul\":7515:7550   */\n      swap1\n      pop\n        /* \"#utility.yul\":7505:7556   */\n      swap2\n      swap1\n      pop\n      jump\t// out\n        /* \"#utility.yul\":7562:7652   */\n    tag_217:\n      0x00\n        /* \"#utility.yul\":7639:7644   */\n      dup2\n        /* \"#utility.yul\":7632:7645   */\n      iszero\n        /* \"#utility.yul\":7625:7646   */\n      iszero\n        /* \"#utility.yul\":7614:7646   */\n      swap1\n      pop\n        /* \"#utility.yul\":7604:7652   */\n      swap2\n      swap1\n      pop\n      jump\t// out\n        /* \"#utility.yul\":7658:7784   */\n    tag_280:\n      0x00\n        /* \"#utility.yul\":7735:7777   */\n      0xffffffffffffffffffffffffffffffffffffffff\n        /* \"#utility.yul\":7728:7733   */\n      dup3\n        /* \"#utility.yul\":7724:7778   */\n      and\n        /* \"#utility.yul\":7713:7778   */\n      swap1\n      pop\n        /* \"#utility.yul\":7703:7784   */\n      swap2\n      swap1\n      pop\n      jump\t// out\n        /* \"#utility.yul\":7790:7867   */\n    tag_231:\n      0x00\n        /* \"#utility.yul\":7856:7861   */\n      dup2\n        /* \"#utility.yul\":7845:7861   */\n      swap1\n      pop\n        /* \"#utility.yul\":7835:7867   */\n      swap2\n      swap1\n      pop\n      jump\t// out\n        /* \"#utility.yul\":7873:8027   */\n    tag_177:\n        /* \"#utility.yul\":7957:7963   */\n      dup3\n        /* \"#utility.yul\":7952:7955   */\n      dup2\n        /* \"#utility.yul\":7947:7950   */\n      dup4\n        /* \"#utility.yul\":7934:7964   */\n      calldatacopy\n        /* \"#utility.yul\":8019:8020   */\n      0x00\n        /* \"#utility.yul\":8010:8016   */\n      dup4\n        /* \"#utility.yul\":8005:8008   */\n      dup4\n        /* \"#utility.yul\":8001:8017   */\n      add\n        /* \"#utility.yul\":7994:8021   */\n      mstore\n        /* \"#utility.yul\":7924:8027   */\n      pop\n      pop\n      pop\n      jump\t// out\n        /* \"#utility.yul\":8033:8340   */\n    tag_225:\n        /* \"#utility.yul\":8101:8102   */\n      0x00\n        /* \"#utility.yul\":8111:8224   */\n    tag_288:\n        /* \"#utility.yul\":8125:8131   */\n      dup4\n        /* \"#utility.yul\":8122:8123   */\n      dup2\n        /* \"#utility.yul\":8119:8132   */\n      lt\n        /* \"#utility.yul\":8111:8224   */\n      iszero\n      tag_290\n      jumpi\n        /* \"#utility.yul\":8210:8211   */\n      dup1\n        /* \"#utility.yul\":8205:8208   */\n      dup3\n        /* \"#utility.yul\":8201:8212   */\n      add\n        /* \"#utility.yul\":8195:8213   */\n      mload\n        /* \"#utility.yul\":8191:8192   */\n      dup2\n        /* \"#utility.yul\":8186:8189   */\n      dup5\n        /* \"#utility.yul\":8182:8193   */\n      add\n        /* \"#utility.yul\":8175:8214   */\n      mstore\n        /* \"#utility.yul\":8147:8149   */\n      0x20\n        /* \"#utility.yul\":8144:8145   */\n      dup2\n        /* \"#utility.yul\":8140:8150   */\n      add\n        /* \"#utility.yul\":8135:8150   */\n      swap1\n      pop\n        /* \"#utility.yul\":8111:8224   */\n      jump(tag_288)\n    tag_290:\n        /* \"#utility.yul\":8242:8248   */\n      dup4\n        /* \"#utility.yul\":8239:8240   */\n      dup2\n        /* \"#utility.yul\":8236:8249   */\n      gt\n        /* \"#utility.yul\":8233:8235   */\n      iszero\n      tag_291\n      jumpi\n        /* \"#utility.yul\":8322:8323   */\n      0x00\n        /* \"#utility.yul\":8313:8319   */\n      dup5\n        /* \"#utility.yul\":8308:8311   */\n      dup5\n        /* \"#utility.yul\":8304:8320   */\n      add\n        /* \"#utility.yul\":8297:8324   */\n      mstore\n        /* \"#utility.yul\":8233:8235   */\n    tag_291:\n        /* \"#utility.yul\":8082:8340   */\n      pop\n      pop\n      pop\n      pop\n      jump\t// out\n        /* \"#utility.yul\":8346:8666   */\n    tag_98:\n      0x00\n        /* \"#utility.yul\":8427:8428   */\n      0x02\n        /* \"#utility.yul\":8421:8425   */\n      dup3\n        /* \"#utility.yul\":8417:8429   */\n      div\n        /* \"#utility.yul\":8407:8429   */\n      swap1\n      pop\n        /* \"#utility.yul\":8474:8475   */\n      0x01\n        /* \"#utility.yul\":8468:8472   */\n      dup3\n        /* \"#utility.yul\":8464:8476   */\n      and\n        /* \"#utility.yul\":8495:8513   */\n      dup1\n        /* \"#utility.yul\":8485:8487   */\n      tag_293\n      jumpi\n        /* \"#utility.yul\":8551:8555   */\n      0x7f\n        /* \"#utility.yul\":8543:8549   */\n      dup3\n        /* \"#utility.yul\":8539:8556   */\n      and\n        /* \"#utility.yul\":8529:8556   */\n      swap2\n      pop\n        /* \"#utility.yul\":8485:8487   */\n    tag_293:\n        /* \"#utility.yul\":8613:8615   */\n      0x20\n        /* \"#utility.yul\":8605:8611   */\n      dup3\n        /* \"#utility.yul\":8602:8616   */\n      lt\n        /* \"#utility.yul\":8582:8600   */\n      dup2\n        /* \"#utility.yul\":8579:8617   */\n      eq\n        /* \"#utility.yul\":8576:8578   */\n      iszero\n      tag_294\n      jumpi\n        /* \"#utility.yul\":8632:8650   */\n      tag_295\n      tag_296\n      jump\t// in\n    tag_295:\n        /* \"#utility.yul\":8576:8578   */\n    tag_294:\n        /* \"#utility.yul\":8397:8666   */\n      pop\n      swap2\n      swap1\n      pop\n      jump\t// out\n        /* \"#utility.yul\":8672:8953   */\n    tag_257:\n        /* \"#utility.yul\":8755:8782   */\n      tag_298\n        /* \"#utility.yul\":8777:8781   */\n      dup3\n        /* \"#utility.yul\":8755:8782   */\n      tag_227\n      jump\t// in\n    tag_298:\n        /* \"#utility.yul\":8747:8753   */\n      dup2\n        /* \"#utility.yul\":8743:8783   */\n      add\n        /* \"#utility.yul\":8885:8891   */\n      dup2\n        /* \"#utility.yul\":8873:8883   */\n      dup2\n        /* \"#utility.yul\":8870:8892   */\n      lt\n        /* \"#utility.yul\":8849:8867   */\n      0xffffffffffffffff\n        /* \"#utility.yul\":8837:8847   */\n      dup3\n        /* \"#utility.yul\":8834:8868   */\n      gt\n        /* \"#utility.yul\":8831:8893   */\n      or\n        /* \"#utility.yul\":8828:8830   */\n      iszero\n      tag_299\n      jumpi\n        /* \"#utility.yul\":8896:8914   */\n      tag_300\n      tag_262\n      jump\t// in\n    tag_300:\n        /* \"#utility.yul\":8828:8830   */\n    tag_299:\n        /* \"#utility.yul\":8936:8946   */\n      dup1\n        /* \"#utility.yul\":8932:8934   */\n      0x40\n        /* \"#utility.yul\":8925:8947   */\n      mstore\n        /* \"#utility.yul\":8715:8953   */\n      pop\n      pop\n      pop\n      jump\t// out\n        /* \"#utility.yul\":8959:9192   */\n    tag_138:\n      0x00\n        /* \"#utility.yul\":9021:9045   */\n      tag_302\n        /* \"#utility.yul\":9039:9044   */\n      dup3\n        /* \"#utility.yul\":9021:9045   */\n      tag_231\n      jump\t// in\n    tag_302:\n        /* \"#utility.yul\":9012:9045   */\n      swap2\n      pop\n        /* \"#utility.yul\":9067:9133   */\n      0xffffffffffffffffffffffffffffffffffffffffffffffffffffffffffffffff\n        /* \"#utility.yul\":9060:9065   */\n      dup3\n        /* \"#utility.yul\":9057:9134   */\n      eq\n        /* \"#utility.yul\":9054:9056   */\n      iszero\n      tag_303\n      jumpi\n        /* \"#utility.yul\":9137:9155   */\n      tag_304\n      tag_271\n      jump\t// in\n    tag_304:\n        /* \"#utility.yul\":9054:9056   */\n    tag_303:\n        /* \"#utility.yul\":9184:9185   */\n      0x01\n        /* \"#utility.yul\":9177:9182   */\n      dup3\n        /* \"#utility.yul\":9173:9186   */\n      add\n        /* \"#utility.yul\":9166:9186   */\n      swap1\n      pop\n        /* \"#utility.yul\":9002:9192   */\n      swap2\n      swap1\n      pop\n      jump\t// out\n        /* \"#utility.yul\":9198:9374   */\n    tag_150:\n      0x00\n        /* \"#utility.yul\":9247:9267   */\n      tag_306\n        /* \"#utility.yul\":9265:9266   */\n      dup3\n        /* \"#utility.yul\":9247:9267   */\n      tag_231\n      jump\t// in\n    tag_306:\n        /* \"#utility.yul\":9242:9267   */\n      swap2\n      pop\n        /* \"#utility.yul\":9281:9301   */\n      tag_307\n        /* \"#utility.yul\":9299:9300   */\n      dup4\n        /* \"#utility.yul\":9281:9301   */\n      tag_231\n      jump\t// in\n    tag_307:\n        /* \"#utility.yul\":9276:9301   */\n      swap3\n      pop\n        /* \"#utility.yul\":9320:9321   */\n      dup3\n        /* \"#utility.yul\":9310:9312   */\n      tag_308\n      jumpi\n        /* \"#utility.yul\":9325:9343   */\n      tag_309\n      tag_277\n      jump\t// in\n    tag_309:\n        /* \"#utility.yul\":9310:9312   */\n    tag_308:\n        /* \"#utility.yul\":9366:9367   */\n      dup3\n        /* \"#utility.yul\":9363:9364   */\n      dup3\n        /* \"#utility.yul\":9359:9368   */\n      mod\n        /* \"#utility.yul\":9354:9368   */\n      swap1\n      pop\n        /* \"#utility.yul\":9232:9374   */\n      swap3\n      swap2\n      pop\n      pop\n      jump\t// out\n        /* \"#utility.yul\":9380:9560   */\n    tag_271:\n        /* \"#utility.yul\":9428:9505   */\n      0x4e487b7100000000000000000000000000000000000000000000000000000000\n        /* \"#utility.yul\":9425:9426   */\n      0x00\n        /* \"#utility.yul\":9418:9506   */\n      mstore\n        /* \"#utility.yul\":9525:9529   */\n      0x11\n        /* \"#utility.yul\":9522:9523   */\n      0x04\n        /* \"#utility.yul\":9515:9530   */\n      mstore\n        /* \"#utility.yul\":9549:9553   */\n      0x24\n        /* \"#utility.yul\":9546:9547   */\n      0x00\n        /* \"#utility.yul\":9539:9554   */\n      revert\n        /* \"#utility.yul\":9566:9746   */\n    tag_277:\n        /* \"#utility.yul\":9614:9691   */\n      0x4e487b7100000000000000000000000000000000000000000000000000000000\n        /* \"#utility.yul\":9611:9612   */\n      0x00\n        /* \"#utility.yul\":9604:9692   */\n      mstore\n        /* \"#utility.yul\":9711:9715   */\n      0x12\n        /* \"#utility.yul\":9708:9709   */\n      0x04\n        /* \"#utility.yul\":9701:9716   */\n      mstore\n        /* \"#utility.yul\":9735:9739   */\n      0x24\n        /* \"#utility.yul\":9732:9733   */\n      0x00\n        /* \"#utility.yul\":9725:9740   */\n      revert\n        /* \"#utility.yul\":9752:9932   */\n    tag_296:\n        /* \"#utility.yul\":9800:9877   */\n      0x4e487b7100000000000000000000000000000000000000000000000000000000\n        /* \"#utility.yul\":9797:9798   */\n      0x00\n        /* \"#utility.yul\":9790:9878   */\n      mstore\n        /* \"#utility.yul\":9897:9901   */\n      0x22\n        /* \"#utility.yul\":9894:9895   */\n      0x04\n        /* \"#utility.yul\":9887:9902   */\n      mstore\n        /* \"#utility.yul\":9921:9925   */\n      0x24\n        /* \"#utility.yul\":9918:9919   */\n      0x00\n        /* \"#utility.yul\":9911:9926   */\n      revert\n        /* \"#utility.yul\":9938:10118   */\n    tag_262:\n        /* \"#utility.yul\":9986:10063   */\n      0x4e487b7100000000000000000000000000000000000000000000000000000000\n        /* \"#utility.yul\":9983:9984   */\n      0x00\n        /* \"#utility.yul\":9976:10064   */\n      mstore\n        /* \"#utility.yul\":10083:10087   */\n      0x41\n        /* \"#utility.yul\":10080:10081   */\n      0x04\n        /* \"#utility.yul\":10073:10088   */\n      mstore\n        /* \"#utility.yul\":10107:10111   */\n      0x24\n        /* \"#utility.yul\":10104:10105   */\n      0x00\n        /* \"#utility.yul\":10097:10112   */\n      revert\n        /* \"#utility.yul\":10124:10226   */\n    tag_227:\n      0x00\n        /* \"#utility.yul\":10216:10218   */\n      0x1f\n        /* \"#utility.yul\":10212:10219   */\n      not\n        /* \"#utility.yul\":10207:10209   */\n      0x1f\n        /* \"#utility.yul\":10200:10205   */\n      dup4\n        /* \"#utility.yul\":10196:10210   */\n      add\n        /* \"#utility.yul\":10192:10220   */\n      and\n        /* \"#utility.yul\":10182:10220   */\n      swap1\n      pop\n        /* \"#utility.yul\":10172:10226   */\n      swap2\n      swap1\n      pop\n      jump\t// out\n        /* \"#utility.yul\":10232:10354   */\n    tag_181:\n        /* \"#utility.yul\":10305:10329   */\n      tag_316\n        /* \"#utility.yul\":10323:10328   */\n      dup2\n        /* \"#utility.yul\":10305:10329   */\n      tag_213\n      jump\t// in\n    tag_316:\n        /* \"#utility.yul\":10298:10303   */\n      dup2\n        /* \"#utility.yul\":10295:10330   */\n      eq\n        /* \"#utility.yul\":10285:10287   */\n      tag_317\n      jumpi\n        /* \"#utility.yul\":10344:10345   */\n      0x00\n        /* \"#utility.yul\":10341:10342   */\n      dup1\n        /* \"#utility.yul\":10334:10346   */\n      revert\n        /* \"#utility.yul\":10285:10287   */\n    tag_317:\n        /* \"#utility.yul\":10275:10354   */\n      pop\n      jump\t// out\n        /* \"#utility.yul\":10360:10498   */\n    tag_185:\n        /* \"#utility.yul\":10441:10473   */\n      tag_319\n        /* \"#utility.yul\":10467:10472   */\n      dup2\n        /* \"#utility.yul\":10441:10473   */\n      tag_209\n      jump\t// in\n    tag_319:\n        /* \"#utility.yul\":10434:10439   */\n      dup2\n        /* \"#utility.yul\":10431:10474   */\n      eq\n        /* \"#utility.yul\":10421:10423   */\n      tag_320\n      jumpi\n        /* \"#utility.yul\":10488:10489   */\n      0x00\n        /* \"#utility.yul\":10485:10486   */\n      dup1\n        /* \"#utility.yul\":10478:10490   */\n      revert\n        /* \"#utility.yul\":10421:10423   */\n    tag_320:\n        /* \"#utility.yul\":10411:10498   */\n      pop\n      jump\t// out\n        /* \"#utility.yul\":10504:10626   */\n    tag_193:\n        /* \"#utility.yul\":10577:10601   */\n      tag_322\n        /* \"#utility.yul\":10595:10600   */\n      dup2\n        /* \"#utility.yul\":10577:10601   */\n      tag_231\n      jump\t// in\n    tag_322:\n        /* \"#utility.yul\":10570:10575   */\n      dup2\n        /* \"#utility.yul\":10567:10602   */\n      eq\n        /* \"#utility.yul\":10557:10559   */\n      tag_323\n      jumpi\n        /* \"#utility.yul\":10616:10617   */\n      0x00\n        /* \"#utility.yul\":10613:10614   */\n      dup1\n        /* \"#utility.yul\":10606:10618   */\n      revert\n        /* \"#utility.yul\":10557:10559   */\n    tag_323:\n        /* \"#utility.yul\":10547:10626   */\n      pop\n      jump\t// out\n\n    auxdata: 0xa2646970667358221220a88e9716d3435bd94bb11e919d96b873c4aaa78c1b105d9eb5de300eb445ee7764736f6c63430008030033\n}\n","bytecode":{"linkReferences":{},"object":"60806040523480156200001157600080fd5b50604051620019e2380380620019e2833981810160405281019062000037919062000225565b80600560006101000a81548173ffffffffffffffffffffffffffffffffffffffff021916908373ffffffffffffffffffffffffffffffffffffffff16021790555084600881905550836000908051906020019062000097929190620000d5565b508260019080519060200190620000b0929190620000d5565b508160029080519060200190620000c9929190620000d5565b505050505050620004d4565b828054620000e390620003c5565b90600052602060002090601f01602090048101928262000107576000855562000153565b82601f106200012257805160ff191683800117855562000153565b8280016001018555821562000153579182015b828111156200015257825182559160200191906001019062000135565b5b50905062000162919062000166565b5090565b5b808211156200018157600081600090555060010162000167565b5090565b60006200019c62000196846200031b565b620002f2565b905082815260208101848484011115620001b557600080fd5b620001c28482856200038f565b509392505050565b600081519050620001db81620004a0565b92915050565b600082601f830112620001f357600080fd5b81516200020584826020860162000185565b91505092915050565b6000815190506200021f81620004ba565b92915050565b600080600080600060a086880312156200023e57600080fd5b60006200024e888289016200020e565b955050602086015167ffffffffffffffff8111156200026c57600080fd5b6200027a88828901620001e1565b945050604086015167ffffffffffffffff8111156200029857600080fd5b620002a688828901620001e1565b935050606086015167ffffffffffffffff811115620002c457600080fd5b620002d288828901620001e1565b9250506080620002e588828901620001ca565b9150509295509295909350565b6000620002fe62000311565b90506200030c8282620003fb565b919050565b6000604051905090565b600067ffffffffffffffff82111562000339576200033862000460565b5b62000344826200048f565b9050602081019050919050565b60006200035e8262000365565b9050919050565b600073ffffffffffffffffffffffffffffffffffffffff82169050919050565b6000819050919050565b60005b83811015620003af57808201518184015260208101905062000392565b83811115620003bf576000848401525b50505050565b60006002820490506001821680620003de57607f821691505b60208210811415620003f557620003f462000431565b5b50919050565b62000406826200048f565b810181811067ffffffffffffffff8211171562000428576200042762000460565b5b80604052505050565b7f4e487b7100000000000000000000000000000000000000000000000000000000600052602260045260246000fd5b7f4e487b7100000000000000000000000000000000000000000000000000000000600052604160045260246000fd5b6000601f19601f8301169050919050565b620004ab8162000351565b8114620004b757600080fd5b50565b620004c58162000385565b8114620004d157600080fd5b50565b6114fe80620004e46000396000f3fe6080604052600436106100e85760003560e01c806359af7a131161008a5780638a9cfd55116100595780638a9cfd55146102f35780639fb42b1f1461031c578063d7bb99ba14610347578063d7d1bbdb14610351576100e8565b806359af7a13146102315780637284e4161461025c5780637554e42f1461028757806381d12c58146102b2576100e8565b80631da98960116100c65780631da989601461017e57806326540fd2146101a95780634051ddac146101d4578063481c6a7514610206576100e8565b806303441006146100ed57806306fdde03146101165780630a14439114610141575b600080fd5b3480156100f957600080fd5b50610114600480360381019061010f9190610f61565b61037a565b005b34801561012257600080fd5b5061012b6104b5565b604051610138919061101a565b60405180910390f35b34801561014d57600080fd5b5061016860048036038101906101639190610ed1565b610543565b6040516101759190611129565b60405180910390f35b34801561018a57600080fd5b5061019361055b565b6040516101a0919061101a565b60405180910390f35b3480156101b557600080fd5b506101be6105e9565b6040516101cb9190611129565b60405180910390f35b3480156101e057600080fd5b506101e96105ef565b6040516101fd98979695949392919061103c565b60405180910390f35b34801561021257600080fd5b5061021b6107ec565b6040516102289190610fff565b60405180910390f35b34801561023d57600080fd5b50610246610812565b6040516102539190611129565b60405180910390f35b34801561026857600080fd5b50610271610818565b60405161027e919061101a565b60405180910390f35b34801561029357600080fd5b5061029c6108a6565b6040516102a99190611129565b60405180910390f35b3480156102be57600080fd5b506102d960048036038101906102d49190610f61565b6108ac565b6040516102ea9594939291906110cf565b60405180910390f35b3480156102ff57600080fd5b5061031a60048036038101906103159190610efa565b610997565b005b34801561032857600080fd5b50610331610ab0565b60405161033e9190611129565b60405180910390f35b61034f610ab6565b005b34801561035d57600080fd5b5061037860048036038101906103739190610f61565b610c13565b005b600560009054906101000a900473ffffffffffffffffffffffffffffffffffffffff1673ffffffffffffffffffffffffffffffffffffffff163373ffffffffffffffffffffffffffffffffffffffff16146103d457600080fd5b600060046000838152602001908152602001600020905060026009546103fa919061120c565b81600301541161040957600080fd5b8060020160149054906101000a900460ff161561042557600080fd5b8060020160009054906101000a900473ffffffffffffffffffffffffffffffffffffffff1673ffffffffffffffffffffffffffffffffffffffff166108fc82600101549081150290604051600060405180830381858888f19350505050158015610493573d6000803e3d6000fd5b5060018160020160146101000a81548160ff0219169083151502179055505050565b600080546104c2906112d9565b80601f01602080910402602001604051908101604052809291908181526020018280546104ee906112d9565b801561053b5780601f106105105761010080835404028352916020019161053b565b820191906000526020600020905b81548152906001019060200180831161051e57829003601f168201915b505050505081565b60076020528060005260406000206000915090505481565b60018054610568906112d9565b80601f0160208091040260200160405190810160405280929190818152602001828054610594906112d9565b80156105e15780601f106105b6576101008083540402835291602001916105e1565b820191906000526020600020905b8154815290600101906020018083116105c457829003601f168201915b505050505081565b60095481565b60608060606000806000806000806001600260085447600354600954600560009054906101000a900473ffffffffffffffffffffffffffffffffffffffff1687805461063a906112d9565b80601f0160208091040260200160405190810160405280929190818152602001828054610666906112d9565b80156106b35780601f10610688576101008083540402835291602001916106b3565b820191906000526020600020905b81548152906001019060200180831161069657829003601f168201915b505050505097508680546106c6906112d9565b80601f01602080910402602001604051908101604052809291908181526020018280546106f2906112d9565b801561073f5780601f106107145761010080835404028352916020019161073f565b820191906000526020600020905b81548152906001019060200180831161072257829003601f168201915b50505050509650858054610752906112d9565b80601f016020809104026020016040519081016040528092919081815260200182805461077e906112d9565b80156107cb5780601f106107a0576101008083540402835291602001916107cb565b820191906000526020600020905b8154815290600101906020018083116107ae57829003601f168201915b50505050509550975097509750975097509750975097509091929394959697565b600560009054906101000a900473ffffffffffffffffffffffffffffffffffffffff1681565b60085481565b60028054610825906112d9565b80601f0160208091040260200160405190810160405280929190818152602001828054610851906112d9565b801561089e5780601f106108735761010080835404028352916020019161089e565b820191906000526020600020905b81548152906001019060200180831161088157829003601f168201915b505050505081565b60065481565b60046020528060005260406000206000915090508060000180546108cf906112d9565b80601f01602080910402602001604051908101604052809291908181526020018280546108fb906112d9565b80156109485780601f1061091d57610100808354040283529160200191610948565b820191906000526020600020905b81548152906001019060200180831161092b57829003601f168201915b5050505050908060010154908060020160009054906101000a900473ffffffffffffffffffffffffffffffffffffffff16908060020160149054906101000a900460ff16908060030154905085565b600560009054906101000a900473ffffffffffffffffffffffffffffffffffffffff1673ffffffffffffffffffffffffffffffffffffffff163373ffffffffffffffffffffffffffffffffffffffff16146109f157600080fd5b60006004600060036000815480929190610a0a9061133c565b919050558152602001908152602001600020905083816000019080519060200190610a36929190610d87565b50828160010181905550818160020160006101000a81548173ffffffffffffffffffffffffffffffffffffffff021916908373ffffffffffffffffffffffffffffffffffffffff16021790555060008160020160146101000a81548160ff0219169083151502179055506000816003018190555050505050565b60035481565b600854341015610ac557600080fd5b6000600760003373ffffffffffffffffffffffffffffffffffffffff1673ffffffffffffffffffffffffffffffffffffffff168152602001908152602001600020541415610b265760066000815480929190610b209061133c565b91905055505b600060085434610b36919061120c565b905080600760003373ffffffffffffffffffffffffffffffffffffffff1673ffffffffffffffffffffffffffffffffffffffff1681526020019081526020016000206000828254610b8791906111b6565b925050819055508060096000828254610ba091906111b6565b92505081905550600060085434610bb79190611385565b905060008114610c0f5760003390508073ffffffffffffffffffffffffffffffffffffffff166108fc839081150290604051600060405180830381858888f19350505050158015610c0c573d6000803e3d6000fd5b50505b5050565b60006004600083815260200190815260200160002090506000600760003373ffffffffffffffffffffffffffffffffffffffff1673ffffffffffffffffffffffffffffffffffffffff1681526020019081526020016000205411610c7657600080fd5b8060040160003373ffffffffffffffffffffffffffffffffffffffff1673ffffffffffffffffffffffffffffffffffffffff16815260200190815260200160002060009054906101000a900460ff1615610ccf57600080fd5b60018160040160003373ffffffffffffffffffffffffffffffffffffffff1673ffffffffffffffffffffffffffffffffffffffff16815260200190815260200160002060006101000a81548160ff021916908315150217905550600760003373ffffffffffffffffffffffffffffffffffffffff1673ffffffffffffffffffffffffffffffffffffffff16815260200190815260200160002054816003016000828254610d7c91906111b6565b925050819055505050565b828054610d93906112d9565b90600052602060002090601f016020900481019282610db55760008555610dfc565b82601f10610dce57805160ff1916838001178555610dfc565b82800160010185558215610dfc579182015b82811115610dfb578251825591602001919060010190610de0565b5b509050610e099190610e0d565b5090565b5b80821115610e26576000816000905550600101610e0e565b5090565b6000610e3d610e3884611169565b611144565b905082815260208101848484011115610e5557600080fd5b610e60848285611297565b509392505050565b600081359050610e7781611483565b92915050565b600081359050610e8c8161149a565b92915050565b600082601f830112610ea357600080fd5b8135610eb3848260208601610e2a565b91505092915050565b600081359050610ecb816114b1565b92915050565b600060208284031215610ee357600080fd5b6000610ef184828501610e68565b91505092915050565b600080600060608486031215610f0f57600080fd5b600084013567ffffffffffffffff811115610f2957600080fd5b610f3586828701610e92565b9350506020610f4686828701610ebc565b9250506040610f5786828701610e7d565b9150509250925092565b600060208284031215610f7357600080fd5b6000610f8184828501610ebc565b91505092915050565b610f938161124f565b82525050565b610fa28161123d565b82525050565b610fb181611261565b82525050565b6000610fc28261119a565b610fcc81856111a5565b9350610fdc8185602086016112a6565b610fe581611472565b840191505092915050565b610ff98161128d565b82525050565b60006020820190506110146000830184610f99565b92915050565b600060208201905081810360008301526110348184610fb7565b905092915050565b6000610100820190508181036000830152611057818b610fb7565b9050818103602083015261106b818a610fb7565b9050818103604083015261107f8189610fb7565b905061108e6060830188610ff0565b61109b6080830187610ff0565b6110a860a0830186610ff0565b6110b560c0830185610ff0565b6110c260e0830184610f99565b9998505050505050505050565b600060a08201905081810360008301526110e98188610fb7565b90506110f86020830187610ff0565b6111056040830186610f8a565b6111126060830185610fa8565b61111f6080830184610ff0565b9695505050505050565b600060208201905061113e6000830184610ff0565b92915050565b600061114e61115f565b905061115a828261130b565b919050565b6000604051905090565b600067ffffffffffffffff82111561118457611183611443565b5b61118d82611472565b9050602081019050919050565b600081519050919050565b600082825260208201905092915050565b60006111c18261128d565b91506111cc8361128d565b9250827fffffffffffffffffffffffffffffffffffffffffffffffffffffffffffffffff03821115611201576112006113b6565b5b828201905092915050565b60006112178261128d565b91506112228361128d565b925082611232576112316113e5565b5b828204905092915050565b60006112488261126d565b9050919050565b600061125a8261126d565b9050919050565b60008115159050919050565b600073ffffffffffffffffffffffffffffffffffffffff82169050919050565b6000819050919050565b82818337600083830152505050565b60005b838110156112c45780820151818401526020810190506112a9565b838111156112d3576000848401525b50505050565b600060028204905060018216806112f157607f821691505b6020821081141561130557611304611414565b5b50919050565b61131482611472565b810181811067ffffffffffffffff8211171561133357611332611443565b5b80604052505050565b60006113478261128d565b91507fffffffffffffffffffffffffffffffffffffffffffffffffffffffffffffffff82141561137a576113796113b6565b5b600182019050919050565b60006113908261128d565b915061139b8361128d565b9250826113ab576113aa6113e5565b5b828206905092915050565b7f4e487b7100000000000000000000000000000000000000000000000000000000600052601160045260246000fd5b7f4e487b7100000000000000000000000000000000000000000000000000000000600052601260045260246000fd5b7f4e487b7100000000000000000000000000000000000000000000000000000000600052602260045260246000fd5b7f4e487b7100000000000000000000000000000000000000000000000000000000600052604160045260246000fd5b6000601f19601f8301169050919050565b61148c8161123d565b811461149757600080fd5b50565b6114a38161124f565b81146114ae57600080fd5b50565b6114ba8161128d565b81146114c557600080fd5b5056fea2646970667358221220a88e9716d3435bd94bb11e919d96b873c4aaa78c1b105d9eb5de300eb445ee7764736f6c63430008030033","opcodes":"PUSH1 0x80 PUSH1 0x40 MSTORE CALLVALUE DUP1 ISZERO PUSH3 0x11 JUMPI PUSH1 0x0 DUP1 REVERT JUMPDEST POP PUSH1 0x40 MLOAD PUSH3 0x19E2 CODESIZE SUB DUP1 PUSH3 0x19E2 DUP4 CODECOPY DUP2 DUP2 ADD PUSH1 0x40 MSTORE DUP2 ADD SWAP1 PUSH3 0x37 SWAP2 SWAP1 PUSH3 0x225 JUMP JUMPDEST DUP1 PUSH1 0x5 PUSH1 0x0 PUSH2 0x100 EXP DUP2 SLOAD DUP2 PUSH20 0xFFFFFFFFFFFFFFFFFFFFFFFFFFFFFFFFFFFFFFFF MUL NOT AND SWAP1 DUP4 PUSH20 0xFFFFFFFFFFFFFFFFFFFFFFFFFFFFFFFFFFFFFFFF AND MUL OR SWAP1 SSTORE POP DUP5 PUSH1 0x8 DUP2 SWAP1 SSTORE POP DUP4 PUSH1 0x0 SWAP1 DUP1 MLOAD SWAP1 PUSH1 0x20 ADD SWAP1 PUSH3 0x97 SWAP3 SWAP2 SWAP1 PUSH3 0xD5 JUMP JUMPDEST POP DUP3 PUSH1 0x1 SWAP1 DUP1 MLOAD SWAP1 PUSH1 0x20 ADD SWAP1 PUSH3 0xB0 SWAP3 SWAP2 SWAP1 PUSH3 0xD5 JUMP JUMPDEST POP DUP2 PUSH1 0x2 SWAP1 DUP1 MLOAD SWAP1 PUSH1 0x20 ADD SWAP1 PUSH3 0xC9 SWAP3 SWAP2 SWAP1 PUSH3 0xD5 JUMP JUMPDEST POP POP POP POP POP POP PUSH3 0x4D4 JUMP JUMPDEST DUP3 DUP1 SLOAD PUSH3 0xE3 SWAP1 PUSH3 0x3C5 JUMP JUMPDEST SWAP1 PUSH1 0x0 MSTORE PUSH1 0x20 PUSH1 0x0 KECCAK256 SWAP1 PUSH1 0x1F ADD PUSH1 0x20 SWAP1 DIV DUP2 ADD SWAP3 DUP3 PUSH3 0x107 JUMPI PUSH1 0x0 DUP6 SSTORE PUSH3 0x153 JUMP JUMPDEST DUP3 PUSH1 0x1F LT PUSH3 0x122 JUMPI DUP1 MLOAD PUSH1 0xFF NOT AND DUP4 DUP1 ADD OR DUP6 SSTORE PUSH3 0x153 JUMP JUMPDEST DUP3 DUP1 ADD PUSH1 0x1 ADD DUP6 SSTORE DUP3 ISZERO PUSH3 0x153 JUMPI SWAP2 DUP3 ADD JUMPDEST DUP3 DUP2 GT ISZERO PUSH3 0x152 JUMPI DUP3 MLOAD DUP3 SSTORE SWAP2 PUSH1 0x20 ADD SWAP2 SWAP1 PUSH1 0x1 ADD SWAP1 PUSH3 0x135 JUMP JUMPDEST JUMPDEST POP SWAP1 POP PUSH3 0x162 SWAP2 SWAP1 PUSH3 0x166 JUMP JUMPDEST POP SWAP1 JUMP JUMPDEST JUMPDEST DUP1 DUP3 GT ISZERO PUSH3 0x181 JUMPI PUSH1 0x0 DUP2 PUSH1 0x0 SWAP1 SSTORE POP PUSH1 0x1 ADD PUSH3 0x167 JUMP JUMPDEST POP SWAP1 JUMP JUMPDEST PUSH1 0x0 PUSH3 0x19C PUSH3 0x196 DUP5 PUSH3 0x31B JUMP JUMPDEST PUSH3 0x2F2 JUMP JUMPDEST SWAP1 POP DUP3 DUP2 MSTORE PUSH1 0x20 DUP2 ADD DUP5 DUP5 DUP5 ADD GT ISZERO PUSH3 0x1B5 JUMPI PUSH1 0x0 DUP1 REVERT JUMPDEST PUSH3 0x1C2 DUP5 DUP3 DUP6 PUSH3 0x38F JUMP JUMPDEST POP SWAP4 SWAP3 POP POP POP JUMP JUMPDEST PUSH1 0x0 DUP2 MLOAD SWAP1 POP PUSH3 0x1DB DUP2 PUSH3 0x4A0 JUMP JUMPDEST SWAP3 SWAP2 POP POP JUMP JUMPDEST PUSH1 0x0 DUP3 PUSH1 0x1F DUP4 ADD SLT PUSH3 0x1F3 JUMPI PUSH1 0x0 DUP1 REVERT JUMPDEST DUP2 MLOAD PUSH3 0x205 DUP5 DUP3 PUSH1 0x20 DUP7 ADD PUSH3 0x185 JUMP JUMPDEST SWAP2 POP POP SWAP3 SWAP2 POP POP JUMP JUMPDEST PUSH1 0x0 DUP2 MLOAD SWAP1 POP PUSH3 0x21F DUP2 PUSH3 0x4BA JUMP JUMPDEST SWAP3 SWAP2 POP POP JUMP JUMPDEST PUSH1 0x0 DUP1 PUSH1 0x0 DUP1 PUSH1 0x0 PUSH1 0xA0 DUP7 DUP9 SUB SLT ISZERO PUSH3 0x23E JUMPI PUSH1 0x0 DUP1 REVERT JUMPDEST PUSH1 0x0 PUSH3 0x24E DUP9 DUP3 DUP10 ADD PUSH3 0x20E JUMP JUMPDEST SWAP6 POP POP PUSH1 0x20 DUP7 ADD MLOAD PUSH8 0xFFFFFFFFFFFFFFFF DUP2 GT ISZERO PUSH3 0x26C JUMPI PUSH1 0x0 DUP1 REVERT JUMPDEST PUSH3 0x27A DUP9 DUP3 DUP10 ADD PUSH3 0x1E1 JUMP JUMPDEST SWAP5 POP POP PUSH1 0x40 DUP7 ADD MLOAD PUSH8 0xFFFFFFFFFFFFFFFF DUP2 GT ISZERO PUSH3 0x298 JUMPI PUSH1 0x0 DUP1 REVERT JUMPDEST PUSH3 0x2A6 DUP9 DUP3 DUP10 ADD PUSH3 0x1E1 JUMP JUMPDEST SWAP4 POP POP PUSH1 0x60 DUP7 ADD MLOAD PUSH8 0xFFFFFFFFFFFFFFFF DUP2 GT ISZERO PUSH3 0x2C4 JUMPI PUSH1 0x0 DUP1 REVERT JUMPDEST PUSH3 0x2D2 DUP9 DUP3 DUP10 ADD PUSH3 0x1E1 JUMP JUMPDEST SWAP3 POP POP PUSH1 0x80 PUSH3 0x2E5 DUP9 DUP3 DUP10 ADD PUSH3 0x1CA JUMP JUMPDEST SWAP2 POP POP SWAP3 SWAP6 POP SWAP3 SWAP6 SWAP1 SWAP4 POP JUMP JUMPDEST PUSH1 0x0 PUSH3 0x2FE PUSH3 0x311 JUMP JUMPDEST SWAP1 POP PUSH3 0x30C DUP3 DUP3 PUSH3 0x3FB JUMP JUMPDEST SWAP2 SWAP1 POP JUMP JUMPDEST PUSH1 0x0 PUSH1 0x40 MLOAD SWAP1 POP SWAP1 JUMP JUMPDEST PUSH1 0x0 PUSH8 0xFFFFFFFFFFFFFFFF DUP3 GT ISZERO PUSH3 0x339 JUMPI PUSH3 0x338 PUSH3 0x460 JUMP JUMPDEST JUMPDEST PUSH3 0x344 DUP3 PUSH3 0x48F JUMP JUMPDEST SWAP1 POP PUSH1 0x20 DUP2 ADD SWAP1 POP SWAP2 SWAP1 POP JUMP JUMPDEST PUSH1 0x0 PUSH3 0x35E DUP3 PUSH3 0x365 JUMP JUMPDEST SWAP1 POP SWAP2 SWAP1 POP JUMP JUMPDEST PUSH1 0x0 PUSH20 0xFFFFFFFFFFFFFFFFFFFFFFFFFFFFFFFFFFFFFFFF DUP3 AND SWAP1 POP SWAP2 SWAP1 POP JUMP JUMPDEST PUSH1 0x0 DUP2 SWAP1 POP SWAP2 SWAP1 POP JUMP JUMPDEST PUSH1 0x0 JUMPDEST DUP4 DUP2 LT ISZERO PUSH3 0x3AF JUMPI DUP1 DUP3 ADD MLOAD DUP2 DUP5 ADD MSTORE PUSH1 0x20 DUP2 ADD SWAP1 POP PUSH3 0x392 JUMP JUMPDEST DUP4 DUP2 GT ISZERO PUSH3 0x3BF JUMPI PUSH1 0x0 DUP5 DUP5 ADD MSTORE JUMPDEST POP POP POP POP JUMP JUMPDEST PUSH1 0x0 PUSH1 0x2 DUP3 DIV SWAP1 POP PUSH1 0x1 DUP3 AND DUP1 PUSH3 0x3DE JUMPI PUSH1 0x7F DUP3 AND SWAP2 POP JUMPDEST PUSH1 0x20 DUP3 LT DUP2 EQ ISZERO PUSH3 0x3F5 JUMPI PUSH3 0x3F4 PUSH3 0x431 JUMP JUMPDEST JUMPDEST POP SWAP2 SWAP1 POP JUMP JUMPDEST PUSH3 0x406 DUP3 PUSH3 0x48F JUMP JUMPDEST DUP2 ADD DUP2 DUP2 LT PUSH8 0xFFFFFFFFFFFFFFFF DUP3 GT OR ISZERO PUSH3 0x428 JUMPI PUSH3 0x427 PUSH3 0x460 JUMP JUMPDEST JUMPDEST DUP1 PUSH1 0x40 MSTORE POP POP POP JUMP JUMPDEST PUSH32 0x4E487B7100000000000000000000000000000000000000000000000000000000 PUSH1 0x0 MSTORE PUSH1 0x22 PUSH1 0x4 MSTORE PUSH1 0x24 PUSH1 0x0 REVERT JUMPDEST PUSH32 0x4E487B7100000000000000000000000000000000000000000000000000000000 PUSH1 0x0 MSTORE PUSH1 0x41 PUSH1 0x4 MSTORE PUSH1 0x24 PUSH1 0x0 REVERT JUMPDEST PUSH1 0x0 PUSH1 0x1F NOT PUSH1 0x1F DUP4 ADD AND SWAP1 POP SWAP2 SWAP1 POP JUMP JUMPDEST PUSH3 0x4AB DUP2 PUSH3 0x351 JUMP JUMPDEST DUP2 EQ PUSH3 0x4B7 JUMPI PUSH1 0x0 DUP1 REVERT JUMPDEST POP JUMP JUMPDEST PUSH3 0x4C5 DUP2 PUSH3 0x385 JUMP JUMPDEST DUP2 EQ PUSH3 0x4D1 JUMPI PUSH1 0x0 DUP1 REVERT JUMPDEST POP JUMP JUMPDEST PUSH2 0x14FE DUP1 PUSH3 0x4E4 PUSH1 0x0 CODECOPY PUSH1 0x0 RETURN INVALID PUSH1 0x80 PUSH1 0x40 MSTORE PUSH1 0x4 CALLDATASIZE LT PUSH2 0xE8 JUMPI PUSH1 0x0 CALLDATALOAD PUSH1 0xE0 SHR DUP1 PUSH4 0x59AF7A13 GT PUSH2 0x8A JUMPI DUP1 PUSH4 0x8A9CFD55 GT PUSH2 0x59 JUMPI DUP1 PUSH4 0x8A9CFD55 EQ PUSH2 0x2F3 JUMPI DUP1 PUSH4 0x9FB42B1F EQ PUSH2 0x31C JUMPI DUP1 PUSH4 0xD7BB99BA EQ PUSH2 0x347 JUMPI DUP1 PUSH4 0xD7D1BBDB EQ PUSH2 0x351 JUMPI PUSH2 0xE8 JUMP JUMPDEST DUP1 PUSH4 0x59AF7A13 EQ PUSH2 0x231 JUMPI DUP1 PUSH4 0x7284E416 EQ PUSH2 0x25C JUMPI DUP1 PUSH4 0x7554E42F EQ PUSH2 0x287 JUMPI DUP1 PUSH4 0x81D12C58 EQ PUSH2 0x2B2 JUMPI PUSH2 0xE8 JUMP JUMPDEST DUP1 PUSH4 0x1DA98960 GT PUSH2 0xC6 JUMPI DUP1 PUSH4 0x1DA98960 EQ PUSH2 0x17E JUMPI DUP1 PUSH4 0x26540FD2 EQ PUSH2 0x1A9 JUMPI DUP1 PUSH4 0x4051DDAC EQ PUSH2 0x1D4 JUMPI DUP1 PUSH4 0x481C6A75 EQ PUSH2 0x206 JUMPI PUSH2 0xE8 JUMP JUMPDEST DUP1 PUSH4 0x3441006 EQ PUSH2 0xED JUMPI DUP1 PUSH4 0x6FDDE03 EQ PUSH2 0x116 JUMPI DUP1 PUSH4 0xA144391 EQ PUSH2 0x141 JUMPI JUMPDEST PUSH1 0x0 DUP1 REVERT JUMPDEST CALLVALUE DUP1 ISZERO PUSH2 0xF9 JUMPI PUSH1 0x0 DUP1 REVERT JUMPDEST POP PUSH2 0x114 PUSH1 0x4 DUP1 CALLDATASIZE SUB DUP2 ADD SWAP1 PUSH2 0x10F SWAP2 SWAP1 PUSH2 0xF61 JUMP JUMPDEST PUSH2 0x37A JUMP JUMPDEST STOP JUMPDEST CALLVALUE DUP1 ISZERO PUSH2 0x122 JUMPI PUSH1 0x0 DUP1 REVERT JUMPDEST POP PUSH2 0x12B PUSH2 0x4B5 JUMP JUMPDEST PUSH1 0x40 MLOAD PUSH2 0x138 SWAP2 SWAP1 PUSH2 0x101A JUMP JUMPDEST PUSH1 0x40 MLOAD DUP1 SWAP2 SUB SWAP1 RETURN JUMPDEST CALLVALUE DUP1 ISZERO PUSH2 0x14D JUMPI PUSH1 0x0 DUP1 REVERT JUMPDEST POP PUSH2 0x168 PUSH1 0x4 DUP1 CALLDATASIZE SUB DUP2 ADD SWAP1 PUSH2 0x163 SWAP2 SWAP1 PUSH2 0xED1 JUMP JUMPDEST PUSH2 0x543 JUMP JUMPDEST PUSH1 0x40 MLOAD PUSH2 0x175 SWAP2 SWAP1 PUSH2 0x1129 JUMP JUMPDEST PUSH1 0x40 MLOAD DUP1 SWAP2 SUB SWAP1 RETURN JUMPDEST CALLVALUE DUP1 ISZERO PUSH2 0x18A JUMPI PUSH1 0x0 DUP1 REVERT JUMPDEST POP PUSH2 0x193 PUSH2 0x55B JUMP JUMPDEST PUSH1 0x40 MLOAD PUSH2 0x1A0 SWAP2 SWAP1 PUSH2 0x101A JUMP JUMPDEST PUSH1 0x40 MLOAD DUP1 SWAP2 SUB SWAP1 RETURN JUMPDEST CALLVALUE DUP1 ISZERO PUSH2 0x1B5 JUMPI PUSH1 0x0 DUP1 REVERT JUMPDEST POP PUSH2 0x1BE PUSH2 0x5E9 JUMP JUMPDEST PUSH1 0x40 MLOAD PUSH2 0x1CB SWAP2 SWAP1 PUSH2 0x1129 JUMP JUMPDEST PUSH1 0x40 MLOAD DUP1 SWAP2 SUB SWAP1 RETURN JUMPDEST CALLVALUE DUP1 ISZERO PUSH2 0x1E0 JUMPI PUSH1 0x0 DUP1 REVERT JUMPDEST POP PUSH2 0x1E9 PUSH2 0x5EF JUMP JUMPDEST PUSH1 0x40 MLOAD PUSH2 0x1FD SWAP9 SWAP8 SWAP7 SWAP6 SWAP5 SWAP4 SWAP3 SWAP2 SWAP1 PUSH2 0x103C JUMP JUMPDEST PUSH1 0x40 MLOAD DUP1 SWAP2 SUB SWAP1 RETURN JUMPDEST CALLVALUE DUP1 ISZERO PUSH2 0x212 JUMPI PUSH1 0x0 DUP1 REVERT JUMPDEST POP PUSH2 0x21B PUSH2 0x7EC JUMP JUMPDEST PUSH1 0x40 MLOAD PUSH2 0x228 SWAP2 SWAP1 PUSH2 0xFFF JUMP JUMPDEST PUSH1 0x40 MLOAD DUP1 SWAP2 SUB SWAP1 RETURN JUMPDEST CALLVALUE DUP1 ISZERO PUSH2 0x23D JUMPI PUSH1 0x0 DUP1 REVERT JUMPDEST POP PUSH2 0x246 PUSH2 0x812 JUMP JUMPDEST PUSH1 0x40 MLOAD PUSH2 0x253 SWAP2 SWAP1 PUSH2 0x1129 JUMP JUMPDEST PUSH1 0x40 MLOAD DUP1 SWAP2 SUB SWAP1 RETURN JUMPDEST CALLVALUE DUP1 ISZERO PUSH2 0x268 JUMPI PUSH1 0x0 DUP1 REVERT JUMPDEST POP PUSH2 0x271 PUSH2 0x818 JUMP JUMPDEST PUSH1 0x40 MLOAD PUSH2 0x27E SWAP2 SWAP1 PUSH2 0x101A JUMP JUMPDEST PUSH1 0x40 MLOAD DUP1 SWAP2 SUB SWAP1 RETURN JUMPDEST CALLVALUE DUP1 ISZERO PUSH2 0x293 JUMPI PUSH1 0x0 DUP1 REVERT JUMPDEST POP PUSH2 0x29C PUSH2 0x8A6 JUMP JUMPDEST PUSH1 0x40 MLOAD PUSH2 0x2A9 SWAP2 SWAP1 PUSH2 0x1129 JUMP JUMPDEST PUSH1 0x40 MLOAD DUP1 SWAP2 SUB SWAP1 RETURN JUMPDEST CALLVALUE DUP1 ISZERO PUSH2 0x2BE JUMPI PUSH1 0x0 DUP1 REVERT JUMPDEST POP PUSH2 0x2D9 PUSH1 0x4 DUP1 CALLDATASIZE SUB DUP2 ADD SWAP1 PUSH2 0x2D4 SWAP2 SWAP1 PUSH2 0xF61 JUMP JUMPDEST PUSH2 0x8AC JUMP JUMPDEST PUSH1 0x40 MLOAD PUSH2 0x2EA SWAP6 SWAP5 SWAP4 SWAP3 SWAP2 SWAP1 PUSH2 0x10CF JUMP JUMPDEST PUSH1 0x40 MLOAD DUP1 SWAP2 SUB SWAP1 RETURN JUMPDEST CALLVALUE DUP1 ISZERO PUSH2 0x2FF JUMPI PUSH1 0x0 DUP1 REVERT JUMPDEST POP PUSH2 0x31A PUSH1 0x4 DUP1 CALLDATASIZE SUB DUP2 ADD SWAP1 PUSH2 0x315 SWAP2 SWAP1 PUSH2 0xEFA JUMP JUMPDEST PUSH2 0x997 JUMP JUMPDEST STOP JUMPDEST CALLVALUE DUP1 ISZERO PUSH2 0x328 JUMPI PUSH1 0x0 DUP1 REVERT JUMPDEST POP PUSH2 0x331 PUSH2 0xAB0 JUMP JUMPDEST PUSH1 0x40 MLOAD PUSH2 0x33E SWAP2 SWAP1 PUSH2 0x1129 JUMP JUMPDEST PUSH1 0x40 MLOAD DUP1 SWAP2 SUB SWAP1 RETURN JUMPDEST PUSH2 0x34F PUSH2 0xAB6 JUMP JUMPDEST STOP JUMPDEST CALLVALUE DUP1 ISZERO PUSH2 0x35D JUMPI PUSH1 0x0 DUP1 REVERT JUMPDEST POP PUSH2 0x378 PUSH1 0x4 DUP1 CALLDATASIZE SUB DUP2 ADD SWAP1 PUSH2 0x373 SWAP2 SWAP1 PUSH2 0xF61 JUMP JUMPDEST PUSH2 0xC13 JUMP JUMPDEST STOP JUMPDEST PUSH1 0x5 PUSH1 0x0 SWAP1 SLOAD SWAP1 PUSH2 0x100 EXP SWAP1 DIV PUSH20 0xFFFFFFFFFFFFFFFFFFFFFFFFFFFFFFFFFFFFFFFF AND PUSH20 0xFFFFFFFFFFFFFFFFFFFFFFFFFFFFFFFFFFFFFFFF AND CALLER PUSH20 0xFFFFFFFFFFFFFFFFFFFFFFFFFFFFFFFFFFFFFFFF AND EQ PUSH2 0x3D4 JUMPI PUSH1 0x0 DUP1 REVERT JUMPDEST PUSH1 0x0 PUSH1 0x4 PUSH1 0x0 DUP4 DUP2 MSTORE PUSH1 0x20 ADD SWAP1 DUP2 MSTORE PUSH1 0x20 ADD PUSH1 0x0 KECCAK256 SWAP1 POP PUSH1 0x2 PUSH1 0x9 SLOAD PUSH2 0x3FA SWAP2 SWAP1 PUSH2 0x120C JUMP JUMPDEST DUP2 PUSH1 0x3 ADD SLOAD GT PUSH2 0x409 JUMPI PUSH1 0x0 DUP1 REVERT JUMPDEST DUP1 PUSH1 0x2 ADD PUSH1 0x14 SWAP1 SLOAD SWAP1 PUSH2 0x100 EXP SWAP1 DIV PUSH1 0xFF AND ISZERO PUSH2 0x425 JUMPI PUSH1 0x0 DUP1 REVERT JUMPDEST DUP1 PUSH1 0x2 ADD PUSH1 0x0 SWAP1 SLOAD SWAP1 PUSH2 0x100 EXP SWAP1 DIV PUSH20 0xFFFFFFFFFFFFFFFFFFFFFFFFFFFFFFFFFFFFFFFF AND PUSH20 0xFFFFFFFFFFFFFFFFFFFFFFFFFFFFFFFFFFFFFFFF AND PUSH2 0x8FC DUP3 PUSH1 0x1 ADD SLOAD SWAP1 DUP2 ISZERO MUL SWAP1 PUSH1 0x40 MLOAD PUSH1 0x0 PUSH1 0x40 MLOAD DUP1 DUP4 SUB DUP2 DUP6 DUP9 DUP9 CALL SWAP4 POP POP POP POP ISZERO DUP1 ISZERO PUSH2 0x493 JUMPI RETURNDATASIZE PUSH1 0x0 DUP1 RETURNDATACOPY RETURNDATASIZE PUSH1 0x0 REVERT JUMPDEST POP PUSH1 0x1 DUP2 PUSH1 0x2 ADD PUSH1 0x14 PUSH2 0x100 EXP DUP2 SLOAD DUP2 PUSH1 0xFF MUL NOT AND SWAP1 DUP4 ISZERO ISZERO MUL OR SWAP1 SSTORE POP POP POP JUMP JUMPDEST PUSH1 0x0 DUP1 SLOAD PUSH2 0x4C2 SWAP1 PUSH2 0x12D9 JUMP JUMPDEST DUP1 PUSH1 0x1F ADD PUSH1 0x20 DUP1 SWAP2 DIV MUL PUSH1 0x20 ADD PUSH1 0x40 MLOAD SWAP1 DUP2 ADD PUSH1 0x40 MSTORE DUP1 SWAP3 SWAP2 SWAP1 DUP2 DUP2 MSTORE PUSH1 0x20 ADD DUP3 DUP1 SLOAD PUSH2 0x4EE SWAP1 PUSH2 0x12D9 JUMP JUMPDEST DUP1 ISZERO PUSH2 0x53B JUMPI DUP1 PUSH1 0x1F LT PUSH2 0x510 JUMPI PUSH2 0x100 DUP1 DUP4 SLOAD DIV MUL DUP4 MSTORE SWAP2 PUSH1 0x20 ADD SWAP2 PUSH2 0x53B JUMP JUMPDEST DUP3 ADD SWAP2 SWAP1 PUSH1 0x0 MSTORE PUSH1 0x20 PUSH1 0x0 KECCAK256 SWAP1 JUMPDEST DUP2 SLOAD DUP2 MSTORE SWAP1 PUSH1 0x1 ADD SWAP1 PUSH1 0x20 ADD DUP1 DUP4 GT PUSH2 0x51E JUMPI DUP3 SWAP1 SUB PUSH1 0x1F AND DUP3 ADD SWAP2 JUMPDEST POP POP POP POP POP DUP2 JUMP JUMPDEST PUSH1 0x7 PUSH1 0x20 MSTORE DUP1 PUSH1 0x0 MSTORE PUSH1 0x40 PUSH1 0x0 KECCAK256 PUSH1 0x0 SWAP2 POP SWAP1 POP SLOAD DUP2 JUMP JUMPDEST PUSH1 0x1 DUP1 SLOAD PUSH2 0x568 SWAP1 PUSH2 0x12D9 JUMP JUMPDEST DUP1 PUSH1 0x1F ADD PUSH1 0x20 DUP1 SWAP2 DIV MUL PUSH1 0x20 ADD PUSH1 0x40 MLOAD SWAP1 DUP2 ADD PUSH1 0x40 MSTORE DUP1 SWAP3 SWAP2 SWAP1 DUP2 DUP2 MSTORE PUSH1 0x20 ADD DUP3 DUP1 SLOAD PUSH2 0x594 SWAP1 PUSH2 0x12D9 JUMP JUMPDEST DUP1 ISZERO PUSH2 0x5E1 JUMPI DUP1 PUSH1 0x1F LT PUSH2 0x5B6 JUMPI PUSH2 0x100 DUP1 DUP4 SLOAD DIV MUL DUP4 MSTORE SWAP2 PUSH1 0x20 ADD SWAP2 PUSH2 0x5E1 JUMP JUMPDEST DUP3 ADD SWAP2 SWAP1 PUSH1 0x0 MSTORE PUSH1 0x20 PUSH1 0x0 KECCAK256 SWAP1 JUMPDEST DUP2 SLOAD DUP2 MSTORE SWAP1 PUSH1 0x1 ADD SWAP1 PUSH1 0x20 ADD DUP1 DUP4 GT PUSH2 0x5C4 JUMPI DUP3 SWAP1 SUB PUSH1 0x1F AND DUP3 ADD SWAP2 JUMPDEST POP POP POP POP POP DUP2 JUMP JUMPDEST PUSH1 0x9 SLOAD DUP2 JUMP JUMPDEST PUSH1 0x60 DUP1 PUSH1 0x60 PUSH1 0x0 DUP1 PUSH1 0x0 DUP1 PUSH1 0x0 DUP1 PUSH1 0x1 PUSH1 0x2 PUSH1 0x8 SLOAD SELFBALANCE PUSH1 0x3 SLOAD PUSH1 0x9 SLOAD PUSH1 0x5 PUSH1 0x0 SWAP1 SLOAD SWAP1 PUSH2 0x100 EXP SWAP1 DIV PUSH20 0xFFFFFFFFFFFFFFFFFFFFFFFFFFFFFFFFFFFFFFFF AND DUP8 DUP1 SLOAD PUSH2 0x63A SWAP1 PUSH2 0x12D9 JUMP JUMPDEST DUP1 PUSH1 0x1F ADD PUSH1 0x20 DUP1 SWAP2 DIV MUL PUSH1 0x20 ADD PUSH1 0x40 MLOAD SWAP1 DUP2 ADD PUSH1 0x40 MSTORE DUP1 SWAP3 SWAP2 SWAP1 DUP2 DUP2 MSTORE PUSH1 0x20 ADD DUP3 DUP1 SLOAD PUSH2 0x666 SWAP1 PUSH2 0x12D9 JUMP JUMPDEST DUP1 ISZERO PUSH2 0x6B3 JUMPI DUP1 PUSH1 0x1F LT PUSH2 0x688 JUMPI PUSH2 0x100 DUP1 DUP4 SLOAD DIV MUL DUP4 MSTORE SWAP2 PUSH1 0x20 ADD SWAP2 PUSH2 0x6B3 JUMP JUMPDEST DUP3 ADD SWAP2 SWAP1 PUSH1 0x0 MSTORE PUSH1 0x20 PUSH1 0x0 KECCAK256 SWAP1 JUMPDEST DUP2 SLOAD DUP2 MSTORE SWAP1 PUSH1 0x1 ADD SWAP1 PUSH1 0x20 ADD DUP1 DUP4 GT PUSH2 0x696 JUMPI DUP3 SWAP1 SUB PUSH1 0x1F AND DUP3 ADD SWAP2 JUMPDEST POP POP POP POP POP SWAP8 POP DUP7 DUP1 SLOAD PUSH2 0x6C6 SWAP1 PUSH2 0x12D9 JUMP JUMPDEST DUP1 PUSH1 0x1F ADD PUSH1 0x20 DUP1 SWAP2 DIV MUL PUSH1 0x20 ADD PUSH1 0x40 MLOAD SWAP1 DUP2 ADD PUSH1 0x40 MSTORE DUP1 SWAP3 SWAP2 SWAP1 DUP2 DUP2 MSTORE PUSH1 0x20 ADD DUP3 DUP1 SLOAD PUSH2 0x6F2 SWAP1 PUSH2 0x12D9 JUMP JUMPDEST DUP1 ISZERO PUSH2 0x73F JUMPI DUP1 PUSH1 0x1F LT PUSH2 0x714 JUMPI PUSH2 0x100 DUP1 DUP4 SLOAD DIV MUL DUP4 MSTORE SWAP2 PUSH1 0x20 ADD SWAP2 PUSH2 0x73F JUMP JUMPDEST DUP3 ADD SWAP2 SWAP1 PUSH1 0x0 MSTORE PUSH1 0x20 PUSH1 0x0 KECCAK256 SWAP1 JUMPDEST DUP2 SLOAD DUP2 MSTORE SWAP1 PUSH1 0x1 ADD SWAP1 PUSH1 0x20 ADD DUP1 DUP4 GT PUSH2 0x722 JUMPI DUP3 SWAP1 SUB PUSH1 0x1F AND DUP3 ADD SWAP2 JUMPDEST POP POP POP POP POP SWAP7 POP DUP6 DUP1 SLOAD PUSH2 0x752 SWAP1 PUSH2 0x12D9 JUMP JUMPDEST DUP1 PUSH1 0x1F ADD PUSH1 0x20 DUP1 SWAP2 DIV MUL PUSH1 0x20 ADD PUSH1 0x40 MLOAD SWAP1 DUP2 ADD PUSH1 0x40 MSTORE DUP1 SWAP3 SWAP2 SWAP1 DUP2 DUP2 MSTORE PUSH1 0x20 ADD DUP3 DUP1 SLOAD PUSH2 0x77E SWAP1 PUSH2 0x12D9 JUMP JUMPDEST DUP1 ISZERO PUSH2 0x7CB JUMPI DUP1 PUSH1 0x1F LT PUSH2 0x7A0 JUMPI PUSH2 0x100 DUP1 DUP4 SLOAD DIV MUL DUP4 MSTORE SWAP2 PUSH1 0x20 ADD SWAP2 PUSH2 0x7CB JUMP JUMPDEST DUP3 ADD SWAP2 SWAP1 PUSH1 0x0 MSTORE PUSH1 0x20 PUSH1 0x0 KECCAK256 SWAP1 JUMPDEST DUP2 SLOAD DUP2 MSTORE SWAP1 PUSH1 0x1 ADD SWAP1 PUSH1 0x20 ADD DUP1 DUP4 GT PUSH2 0x7AE JUMPI DUP3 SWAP1 SUB PUSH1 0x1F AND DUP3 ADD SWAP2 JUMPDEST POP POP POP POP POP SWAP6 POP SWAP8 POP SWAP8 POP SWAP8 POP SWAP8 POP SWAP8 POP SWAP8 POP SWAP8 POP SWAP8 POP SWAP1 SWAP2 SWAP3 SWAP4 SWAP5 SWAP6 SWAP7 SWAP8 JUMP JUMPDEST PUSH1 0x5 PUSH1 0x0 SWAP1 SLOAD SWAP1 PUSH2 0x100 EXP SWAP1 DIV PUSH20 0xFFFFFFFFFFFFFFFFFFFFFFFFFFFFFFFFFFFFFFFF AND DUP2 JUMP JUMPDEST PUSH1 0x8 SLOAD DUP2 JUMP JUMPDEST PUSH1 0x2 DUP1 SLOAD PUSH2 0x825 SWAP1 PUSH2 0x12D9 JUMP JUMPDEST DUP1 PUSH1 0x1F ADD PUSH1 0x20 DUP1 SWAP2 DIV MUL PUSH1 0x20 ADD PUSH1 0x40 MLOAD SWAP1 DUP2 ADD PUSH1 0x40 MSTORE DUP1 SWAP3 SWAP2 SWAP1 DUP2 DUP2 MSTORE PUSH1 0x20 ADD DUP3 DUP1 SLOAD PUSH2 0x851 SWAP1 PUSH2 0x12D9 JUMP JUMPDEST DUP1 ISZERO PUSH2 0x89E JUMPI DUP1 PUSH1 0x1F LT PUSH2 0x873 JUMPI PUSH2 0x100 DUP1 DUP4 SLOAD DIV MUL DUP4 MSTORE SWAP2 PUSH1 0x20 ADD SWAP2 PUSH2 0x89E JUMP JUMPDEST DUP3 ADD SWAP2 SWAP1 PUSH1 0x0 MSTORE PUSH1 0x20 PUSH1 0x0 KECCAK256 SWAP1 JUMPDEST DUP2 SLOAD DUP2 MSTORE SWAP1 PUSH1 0x1 ADD SWAP1 PUSH1 0x20 ADD DUP1 DUP4 GT PUSH2 0x881 JUMPI DUP3 SWAP1 SUB PUSH1 0x1F AND DUP3 ADD SWAP2 JUMPDEST POP POP POP POP POP DUP2 JUMP JUMPDEST PUSH1 0x6 SLOAD DUP2 JUMP JUMPDEST PUSH1 0x4 PUSH1 0x20 MSTORE DUP1 PUSH1 0x0 MSTORE PUSH1 0x40 PUSH1 0x0 KECCAK256 PUSH1 0x0 SWAP2 POP SWAP1 POP DUP1 PUSH1 0x0 ADD DUP1 SLOAD PUSH2 0x8CF SWAP1 PUSH2 0x12D9 JUMP JUMPDEST DUP1 PUSH1 0x1F ADD PUSH1 0x20 DUP1 SWAP2 DIV MUL PUSH1 0x20 ADD PUSH1 0x40 MLOAD SWAP1 DUP2 ADD PUSH1 0x40 MSTORE DUP1 SWAP3 SWAP2 SWAP1 DUP2 DUP2 MSTORE PUSH1 0x20 ADD DUP3 DUP1 SLOAD PUSH2 0x8FB SWAP1 PUSH2 0x12D9 JUMP JUMPDEST DUP1 ISZERO PUSH2 0x948 JUMPI DUP1 PUSH1 0x1F LT PUSH2 0x91D JUMPI PUSH2 0x100 DUP1 DUP4 SLOAD DIV MUL DUP4 MSTORE SWAP2 PUSH1 0x20 ADD SWAP2 PUSH2 0x948 JUMP JUMPDEST DUP3 ADD SWAP2 SWAP1 PUSH1 0x0 MSTORE PUSH1 0x20 PUSH1 0x0 KECCAK256 SWAP1 JUMPDEST DUP2 SLOAD DUP2 MSTORE SWAP1 PUSH1 0x1 ADD SWAP1 PUSH1 0x20 ADD DUP1 DUP4 GT PUSH2 0x92B JUMPI DUP3 SWAP1 SUB PUSH1 0x1F AND DUP3 ADD SWAP2 JUMPDEST POP POP POP POP POP SWAP1 DUP1 PUSH1 0x1 ADD SLOAD SWAP1 DUP1 PUSH1 0x2 ADD PUSH1 0x0 SWAP1 SLOAD SWAP1 PUSH2 0x100 EXP SWAP1 DIV PUSH20 0xFFFFFFFFFFFFFFFFFFFFFFFFFFFFFFFFFFFFFFFF AND SWAP1 DUP1 PUSH1 0x2 ADD PUSH1 0x14 SWAP1 SLOAD SWAP1 PUSH2 0x100 EXP SWAP1 DIV PUSH1 0xFF AND SWAP1 DUP1 PUSH1 0x3 ADD SLOAD SWAP1 POP DUP6 JUMP JUMPDEST PUSH1 0x5 PUSH1 0x0 SWAP1 SLOAD SWAP1 PUSH2 0x100 EXP SWAP1 DIV PUSH20 0xFFFFFFFFFFFFFFFFFFFFFFFFFFFFFFFFFFFFFFFF AND PUSH20 0xFFFFFFFFFFFFFFFFFFFFFFFFFFFFFFFFFFFFFFFF AND CALLER PUSH20 0xFFFFFFFFFFFFFFFFFFFFFFFFFFFFFFFFFFFFFFFF AND EQ PUSH2 0x9F1 JUMPI PUSH1 0x0 DUP1 REVERT JUMPDEST PUSH1 0x0 PUSH1 0x4 PUSH1 0x0 PUSH1 0x3 PUSH1 0x0 DUP2 SLOAD DUP1 SWAP3 SWAP2 SWAP1 PUSH2 0xA0A SWAP1 PUSH2 0x133C JUMP JUMPDEST SWAP2 SWAP1 POP SSTORE DUP2 MSTORE PUSH1 0x20 ADD SWAP1 DUP2 MSTORE PUSH1 0x20 ADD PUSH1 0x0 KECCAK256 SWAP1 POP DUP4 DUP2 PUSH1 0x0 ADD SWAP1 DUP1 MLOAD SWAP1 PUSH1 0x20 ADD SWAP1 PUSH2 0xA36 SWAP3 SWAP2 SWAP1 PUSH2 0xD87 JUMP JUMPDEST POP DUP3 DUP2 PUSH1 0x1 ADD DUP2 SWAP1 SSTORE POP DUP2 DUP2 PUSH1 0x2 ADD PUSH1 0x0 PUSH2 0x100 EXP DUP2 SLOAD DUP2 PUSH20 0xFFFFFFFFFFFFFFFFFFFFFFFFFFFFFFFFFFFFFFFF MUL NOT AND SWAP1 DUP4 PUSH20 0xFFFFFFFFFFFFFFFFFFFFFFFFFFFFFFFFFFFFFFFF AND MUL OR SWAP1 SSTORE POP PUSH1 0x0 DUP2 PUSH1 0x2 ADD PUSH1 0x14 PUSH2 0x100 EXP DUP2 SLOAD DUP2 PUSH1 0xFF MUL NOT AND SWAP1 DUP4 ISZERO ISZERO MUL OR SWAP1 SSTORE POP PUSH1 0x0 DUP2 PUSH1 0x3 ADD DUP2 SWAP1 SSTORE POP POP POP POP POP JUMP JUMPDEST PUSH1 0x3 SLOAD DUP2 JUMP JUMPDEST PUSH1 0x8 SLOAD CALLVALUE LT ISZERO PUSH2 0xAC5 JUMPI PUSH1 0x0 DUP1 REVERT JUMPDEST PUSH1 0x0 PUSH1 0x7 PUSH1 0x0 CALLER PUSH20 0xFFFFFFFFFFFFFFFFFFFFFFFFFFFFFFFFFFFFFFFF AND PUSH20 0xFFFFFFFFFFFFFFFFFFFFFFFFFFFFFFFFFFFFFFFF AND DUP2 MSTORE PUSH1 0x20 ADD SWAP1 DUP2 MSTORE PUSH1 0x20 ADD PUSH1 0x0 KECCAK256 SLOAD EQ ISZERO PUSH2 0xB26 JUMPI PUSH1 0x6 PUSH1 0x0 DUP2 SLOAD DUP1 SWAP3 SWAP2 SWAP1 PUSH2 0xB20 SWAP1 PUSH2 0x133C JUMP JUMPDEST SWAP2 SWAP1 POP SSTORE POP JUMPDEST PUSH1 0x0 PUSH1 0x8 SLOAD CALLVALUE PUSH2 0xB36 SWAP2 SWAP1 PUSH2 0x120C JUMP JUMPDEST SWAP1 POP DUP1 PUSH1 0x7 PUSH1 0x0 CALLER PUSH20 0xFFFFFFFFFFFFFFFFFFFFFFFFFFFFFFFFFFFFFFFF AND PUSH20 0xFFFFFFFFFFFFFFFFFFFFFFFFFFFFFFFFFFFFFFFF AND DUP2 MSTORE PUSH1 0x20 ADD SWAP1 DUP2 MSTORE PUSH1 0x20 ADD PUSH1 0x0 KECCAK256 PUSH1 0x0 DUP3 DUP3 SLOAD PUSH2 0xB87 SWAP2 SWAP1 PUSH2 0x11B6 JUMP JUMPDEST SWAP3 POP POP DUP2 SWAP1 SSTORE POP DUP1 PUSH1 0x9 PUSH1 0x0 DUP3 DUP3 SLOAD PUSH2 0xBA0 SWAP2 SWAP1 PUSH2 0x11B6 JUMP JUMPDEST SWAP3 POP POP DUP2 SWAP1 SSTORE POP PUSH1 0x0 PUSH1 0x8 SLOAD CALLVALUE PUSH2 0xBB7 SWAP2 SWAP1 PUSH2 0x1385 JUMP JUMPDEST SWAP1 POP PUSH1 0x0 DUP2 EQ PUSH2 0xC0F JUMPI PUSH1 0x0 CALLER SWAP1 POP DUP1 PUSH20 0xFFFFFFFFFFFFFFFFFFFFFFFFFFFFFFFFFFFFFFFF AND PUSH2 0x8FC DUP4 SWAP1 DUP2 ISZERO MUL SWAP1 PUSH1 0x40 MLOAD PUSH1 0x0 PUSH1 0x40 MLOAD DUP1 DUP4 SUB DUP2 DUP6 DUP9 DUP9 CALL SWAP4 POP POP POP POP ISZERO DUP1 ISZERO PUSH2 0xC0C JUMPI RETURNDATASIZE PUSH1 0x0 DUP1 RETURNDATACOPY RETURNDATASIZE PUSH1 0x0 REVERT JUMPDEST POP POP JUMPDEST POP POP JUMP JUMPDEST PUSH1 0x0 PUSH1 0x4 PUSH1 0x0 DUP4 DUP2 MSTORE PUSH1 0x20 ADD SWAP1 DUP2 MSTORE PUSH1 0x20 ADD PUSH1 0x0 KECCAK256 SWAP1 POP PUSH1 0x0 PUSH1 0x7 PUSH1 0x0 CALLER PUSH20 0xFFFFFFFFFFFFFFFFFFFFFFFFFFFFFFFFFFFFFFFF AND PUSH20 0xFFFFFFFFFFFFFFFFFFFFFFFFFFFFFFFFFFFFFFFF AND DUP2 MSTORE PUSH1 0x20 ADD SWAP1 DUP2 MSTORE PUSH1 0x20 ADD PUSH1 0x0 KECCAK256 SLOAD GT PUSH2 0xC76 JUMPI PUSH1 0x0 DUP1 REVERT JUMPDEST DUP1 PUSH1 0x4 ADD PUSH1 0x0 CALLER PUSH20 0xFFFFFFFFFFFFFFFFFFFFFFFFFFFFFFFFFFFFFFFF AND PUSH20 0xFFFFFFFFFFFFFFFFFFFFFFFFFFFFFFFFFFFFFFFF AND DUP2 MSTORE PUSH1 0x20 ADD SWAP1 DUP2 MSTORE PUSH1 0x20 ADD PUSH1 0x0 KECCAK256 PUSH1 0x0 SWAP1 SLOAD SWAP1 PUSH2 0x100 EXP SWAP1 DIV PUSH1 0xFF AND ISZERO PUSH2 0xCCF JUMPI PUSH1 0x0 DUP1 REVERT JUMPDEST PUSH1 0x1 DUP2 PUSH1 0x4 ADD PUSH1 0x0 CALLER PUSH20 0xFFFFFFFFFFFFFFFFFFFFFFFFFFFFFFFFFFFFFFFF AND PUSH20 0xFFFFFFFFFFFFFFFFFFFFFFFFFFFFFFFFFFFFFFFF AND DUP2 MSTORE PUSH1 0x20 ADD SWAP1 DUP2 MSTORE PUSH1 0x20 ADD PUSH1 0x0 KECCAK256 PUSH1 0x0 PUSH2 0x100 EXP DUP2 SLOAD DUP2 PUSH1 0xFF MUL NOT AND SWAP1 DUP4 ISZERO ISZERO MUL OR SWAP1 SSTORE POP PUSH1 0x7 PUSH1 0x0 CALLER PUSH20 0xFFFFFFFFFFFFFFFFFFFFFFFFFFFFFFFFFFFFFFFF AND PUSH20 0xFFFFFFFFFFFFFFFFFFFFFFFFFFFFFFFFFFFFFFFF AND DUP2 MSTORE PUSH1 0x20 ADD SWAP1 DUP2 MSTORE PUSH1 0x20 ADD PUSH1 0x0 KECCAK256 SLOAD DUP2 PUSH1 0x3 ADD PUSH1 0x0 DUP3 DUP3 SLOAD PUSH2 0xD7C SWAP2 SWAP1 PUSH2 0x11B6 JUMP JUMPDEST SWAP3 POP POP DUP2 SWAP1 SSTORE POP POP POP JUMP JUMPDEST DUP3 DUP1 SLOAD PUSH2 0xD93 SWAP1 PUSH2 0x12D9 JUMP JUMPDEST SWAP1 PUSH1 0x0 MSTORE PUSH1 0x20 PUSH1 0x0 KECCAK256 SWAP1 PUSH1 0x1F ADD PUSH1 0x20 SWAP1 DIV DUP2 ADD SWAP3 DUP3 PUSH2 0xDB5 JUMPI PUSH1 0x0 DUP6 SSTORE PUSH2 0xDFC JUMP JUMPDEST DUP3 PUSH1 0x1F LT PUSH2 0xDCE JUMPI DUP1 MLOAD PUSH1 0xFF NOT AND DUP4 DUP1 ADD OR DUP6 SSTORE PUSH2 0xDFC JUMP JUMPDEST DUP3 DUP1 ADD PUSH1 0x1 ADD DUP6 SSTORE DUP3 ISZERO PUSH2 0xDFC JUMPI SWAP2 DUP3 ADD JUMPDEST DUP3 DUP2 GT ISZERO PUSH2 0xDFB JUMPI DUP3 MLOAD DUP3 SSTORE SWAP2 PUSH1 0x20 ADD SWAP2 SWAP1 PUSH1 0x1 ADD SWAP1 PUSH2 0xDE0 JUMP JUMPDEST JUMPDEST POP SWAP1 POP PUSH2 0xE09 SWAP2 SWAP1 PUSH2 0xE0D JUMP JUMPDEST POP SWAP1 JUMP JUMPDEST JUMPDEST DUP1 DUP3 GT ISZERO PUSH2 0xE26 JUMPI PUSH1 0x0 DUP2 PUSH1 0x0 SWAP1 SSTORE POP PUSH1 0x1 ADD PUSH2 0xE0E JUMP JUMPDEST POP SWAP1 JUMP JUMPDEST PUSH1 0x0 PUSH2 0xE3D PUSH2 0xE38 DUP5 PUSH2 0x1169 JUMP JUMPDEST PUSH2 0x1144 JUMP JUMPDEST SWAP1 POP DUP3 DUP2 MSTORE PUSH1 0x20 DUP2 ADD DUP5 DUP5 DUP5 ADD GT ISZERO PUSH2 0xE55 JUMPI PUSH1 0x0 DUP1 REVERT JUMPDEST PUSH2 0xE60 DUP5 DUP3 DUP6 PUSH2 0x1297 JUMP JUMPDEST POP SWAP4 SWAP3 POP POP POP JUMP JUMPDEST PUSH1 0x0 DUP2 CALLDATALOAD SWAP1 POP PUSH2 0xE77 DUP2 PUSH2 0x1483 JUMP JUMPDEST SWAP3 SWAP2 POP POP JUMP JUMPDEST PUSH1 0x0 DUP2 CALLDATALOAD SWAP1 POP PUSH2 0xE8C DUP2 PUSH2 0x149A JUMP JUMPDEST SWAP3 SWAP2 POP POP JUMP JUMPDEST PUSH1 0x0 DUP3 PUSH1 0x1F DUP4 ADD SLT PUSH2 0xEA3 JUMPI PUSH1 0x0 DUP1 REVERT JUMPDEST DUP2 CALLDATALOAD PUSH2 0xEB3 DUP5 DUP3 PUSH1 0x20 DUP7 ADD PUSH2 0xE2A JUMP JUMPDEST SWAP2 POP POP SWAP3 SWAP2 POP POP JUMP JUMPDEST PUSH1 0x0 DUP2 CALLDATALOAD SWAP1 POP PUSH2 0xECB DUP2 PUSH2 0x14B1 JUMP JUMPDEST SWAP3 SWAP2 POP POP JUMP JUMPDEST PUSH1 0x0 PUSH1 0x20 DUP3 DUP5 SUB SLT ISZERO PUSH2 0xEE3 JUMPI PUSH1 0x0 DUP1 REVERT JUMPDEST PUSH1 0x0 PUSH2 0xEF1 DUP5 DUP3 DUP6 ADD PUSH2 0xE68 JUMP JUMPDEST SWAP2 POP POP SWAP3 SWAP2 POP POP JUMP JUMPDEST PUSH1 0x0 DUP1 PUSH1 0x0 PUSH1 0x60 DUP5 DUP7 SUB SLT ISZERO PUSH2 0xF0F JUMPI PUSH1 0x0 DUP1 REVERT JUMPDEST PUSH1 0x0 DUP5 ADD CALLDATALOAD PUSH8 0xFFFFFFFFFFFFFFFF DUP2 GT ISZERO PUSH2 0xF29 JUMPI PUSH1 0x0 DUP1 REVERT JUMPDEST PUSH2 0xF35 DUP7 DUP3 DUP8 ADD PUSH2 0xE92 JUMP JUMPDEST SWAP4 POP POP PUSH1 0x20 PUSH2 0xF46 DUP7 DUP3 DUP8 ADD PUSH2 0xEBC JUMP JUMPDEST SWAP3 POP POP PUSH1 0x40 PUSH2 0xF57 DUP7 DUP3 DUP8 ADD PUSH2 0xE7D JUMP JUMPDEST SWAP2 POP POP SWAP3 POP SWAP3 POP SWAP3 JUMP JUMPDEST PUSH1 0x0 PUSH1 0x20 DUP3 DUP5 SUB SLT ISZERO PUSH2 0xF73 JUMPI PUSH1 0x0 DUP1 REVERT JUMPDEST PUSH1 0x0 PUSH2 0xF81 DUP5 DUP3 DUP6 ADD PUSH2 0xEBC JUMP JUMPDEST SWAP2 POP POP SWAP3 SWAP2 POP POP JUMP JUMPDEST PUSH2 0xF93 DUP2 PUSH2 0x124F JUMP JUMPDEST DUP3 MSTORE POP POP JUMP JUMPDEST PUSH2 0xFA2 DUP2 PUSH2 0x123D JUMP JUMPDEST DUP3 MSTORE POP POP JUMP JUMPDEST PUSH2 0xFB1 DUP2 PUSH2 0x1261 JUMP JUMPDEST DUP3 MSTORE POP POP JUMP JUMPDEST PUSH1 0x0 PUSH2 0xFC2 DUP3 PUSH2 0x119A JUMP JUMPDEST PUSH2 0xFCC DUP2 DUP6 PUSH2 0x11A5 JUMP JUMPDEST SWAP4 POP PUSH2 0xFDC DUP2 DUP6 PUSH1 0x20 DUP7 ADD PUSH2 0x12A6 JUMP JUMPDEST PUSH2 0xFE5 DUP2 PUSH2 0x1472 JUMP JUMPDEST DUP5 ADD SWAP2 POP POP SWAP3 SWAP2 POP POP JUMP JUMPDEST PUSH2 0xFF9 DUP2 PUSH2 0x128D JUMP JUMPDEST DUP3 MSTORE POP POP JUMP JUMPDEST PUSH1 0x0 PUSH1 0x20 DUP3 ADD SWAP1 POP PUSH2 0x1014 PUSH1 0x0 DUP4 ADD DUP5 PUSH2 0xF99 JUMP JUMPDEST SWAP3 SWAP2 POP POP JUMP JUMPDEST PUSH1 0x0 PUSH1 0x20 DUP3 ADD SWAP1 POP DUP2 DUP2 SUB PUSH1 0x0 DUP4 ADD MSTORE PUSH2 0x1034 DUP2 DUP5 PUSH2 0xFB7 JUMP JUMPDEST SWAP1 POP SWAP3 SWAP2 POP POP JUMP JUMPDEST PUSH1 0x0 PUSH2 0x100 DUP3 ADD SWAP1 POP DUP2 DUP2 SUB PUSH1 0x0 DUP4 ADD MSTORE PUSH2 0x1057 DUP2 DUP12 PUSH2 0xFB7 JUMP JUMPDEST SWAP1 POP DUP2 DUP2 SUB PUSH1 0x20 DUP4 ADD MSTORE PUSH2 0x106B DUP2 DUP11 PUSH2 0xFB7 JUMP JUMPDEST SWAP1 POP DUP2 DUP2 SUB PUSH1 0x40 DUP4 ADD MSTORE PUSH2 0x107F DUP2 DUP10 PUSH2 0xFB7 JUMP JUMPDEST SWAP1 POP PUSH2 0x108E PUSH1 0x60 DUP4 ADD DUP9 PUSH2 0xFF0 JUMP JUMPDEST PUSH2 0x109B PUSH1 0x80 DUP4 ADD DUP8 PUSH2 0xFF0 JUMP JUMPDEST PUSH2 0x10A8 PUSH1 0xA0 DUP4 ADD DUP7 PUSH2 0xFF0 JUMP JUMPDEST PUSH2 0x10B5 PUSH1 0xC0 DUP4 ADD DUP6 PUSH2 0xFF0 JUMP JUMPDEST PUSH2 0x10C2 PUSH1 0xE0 DUP4 ADD DUP5 PUSH2 0xF99 JUMP JUMPDEST SWAP10 SWAP9 POP POP POP POP POP POP POP POP POP JUMP JUMPDEST PUSH1 0x0 PUSH1 0xA0 DUP3 ADD SWAP1 POP DUP2 DUP2 SUB PUSH1 0x0 DUP4 ADD MSTORE PUSH2 0x10E9 DUP2 DUP9 PUSH2 0xFB7 JUMP JUMPDEST SWAP1 POP PUSH2 0x10F8 PUSH1 0x20 DUP4 ADD DUP8 PUSH2 0xFF0 JUMP JUMPDEST PUSH2 0x1105 PUSH1 0x40 DUP4 ADD DUP7 PUSH2 0xF8A JUMP JUMPDEST PUSH2 0x1112 PUSH1 0x60 DUP4 ADD DUP6 PUSH2 0xFA8 JUMP JUMPDEST PUSH2 0x111F PUSH1 0x80 DUP4 ADD DUP5 PUSH2 0xFF0 JUMP JUMPDEST SWAP7 SWAP6 POP POP POP POP POP POP JUMP JUMPDEST PUSH1 0x0 PUSH1 0x20 DUP3 ADD SWAP1 POP PUSH2 0x113E PUSH1 0x0 DUP4 ADD DUP5 PUSH2 0xFF0 JUMP JUMPDEST SWAP3 SWAP2 POP POP JUMP JUMPDEST PUSH1 0x0 PUSH2 0x114E PUSH2 0x115F JUMP JUMPDEST SWAP1 POP PUSH2 0x115A DUP3 DUP3 PUSH2 0x130B JUMP JUMPDEST SWAP2 SWAP1 POP JUMP JUMPDEST PUSH1 0x0 PUSH1 0x40 MLOAD SWAP1 POP SWAP1 JUMP JUMPDEST PUSH1 0x0 PUSH8 0xFFFFFFFFFFFFFFFF DUP3 GT ISZERO PUSH2 0x1184 JUMPI PUSH2 0x1183 PUSH2 0x1443 JUMP JUMPDEST JUMPDEST PUSH2 0x118D DUP3 PUSH2 0x1472 JUMP JUMPDEST SWAP1 POP PUSH1 0x20 DUP2 ADD SWAP1 POP SWAP2 SWAP1 POP JUMP JUMPDEST PUSH1 0x0 DUP2 MLOAD SWAP1 POP SWAP2 SWAP1 POP JUMP JUMPDEST PUSH1 0x0 DUP3 DUP3 MSTORE PUSH1 0x20 DUP3 ADD SWAP1 POP SWAP3 SWAP2 POP POP JUMP JUMPDEST PUSH1 0x0 PUSH2 0x11C1 DUP3 PUSH2 0x128D JUMP JUMPDEST SWAP2 POP PUSH2 0x11CC DUP4 PUSH2 0x128D JUMP JUMPDEST SWAP3 POP DUP3 PUSH32 0xFFFFFFFFFFFFFFFFFFFFFFFFFFFFFFFFFFFFFFFFFFFFFFFFFFFFFFFFFFFFFFFF SUB DUP3 GT ISZERO PUSH2 0x1201 JUMPI PUSH2 0x1200 PUSH2 0x13B6 JUMP JUMPDEST JUMPDEST DUP3 DUP3 ADD SWAP1 POP SWAP3 SWAP2 POP POP JUMP JUMPDEST PUSH1 0x0 PUSH2 0x1217 DUP3 PUSH2 0x128D JUMP JUMPDEST SWAP2 POP PUSH2 0x1222 DUP4 PUSH2 0x128D JUMP JUMPDEST SWAP3 POP DUP3 PUSH2 0x1232 JUMPI PUSH2 0x1231 PUSH2 0x13E5 JUMP JUMPDEST JUMPDEST DUP3 DUP3 DIV SWAP1 POP SWAP3 SWAP2 POP POP JUMP JUMPDEST PUSH1 0x0 PUSH2 0x1248 DUP3 PUSH2 0x126D JUMP JUMPDEST SWAP1 POP SWAP2 SWAP1 POP JUMP JUMPDEST PUSH1 0x0 PUSH2 0x125A DUP3 PUSH2 0x126D JUMP JUMPDEST SWAP1 POP SWAP2 SWAP1 POP JUMP JUMPDEST PUSH1 0x0 DUP2 ISZERO ISZERO SWAP1 POP SWAP2 SWAP1 POP JUMP JUMPDEST PUSH1 0x0 PUSH20 0xFFFFFFFFFFFFFFFFFFFFFFFFFFFFFFFFFFFFFFFF DUP3 AND SWAP1 POP SWAP2 SWAP1 POP JUMP JUMPDEST PUSH1 0x0 DUP2 SWAP1 POP SWAP2 SWAP1 POP JUMP JUMPDEST DUP3 DUP2 DUP4 CALLDATACOPY PUSH1 0x0 DUP4 DUP4 ADD MSTORE POP POP POP JUMP JUMPDEST PUSH1 0x0 JUMPDEST DUP4 DUP2 LT ISZERO PUSH2 0x12C4 JUMPI DUP1 DUP3 ADD MLOAD DUP2 DUP5 ADD MSTORE PUSH1 0x20 DUP2 ADD SWAP1 POP PUSH2 0x12A9 JUMP JUMPDEST DUP4 DUP2 GT ISZERO PUSH2 0x12D3 JUMPI PUSH1 0x0 DUP5 DUP5 ADD MSTORE JUMPDEST POP POP POP POP JUMP JUMPDEST PUSH1 0x0 PUSH1 0x2 DUP3 DIV SWAP1 POP PUSH1 0x1 DUP3 AND DUP1 PUSH2 0x12F1 JUMPI PUSH1 0x7F DUP3 AND SWAP2 POP JUMPDEST PUSH1 0x20 DUP3 LT DUP2 EQ ISZERO PUSH2 0x1305 JUMPI PUSH2 0x1304 PUSH2 0x1414 JUMP JUMPDEST JUMPDEST POP SWAP2 SWAP1 POP JUMP JUMPDEST PUSH2 0x1314 DUP3 PUSH2 0x1472 JUMP JUMPDEST DUP2 ADD DUP2 DUP2 LT PUSH8 0xFFFFFFFFFFFFFFFF DUP3 GT OR ISZERO PUSH2 0x1333 JUMPI PUSH2 0x1332 PUSH2 0x1443 JUMP JUMPDEST JUMPDEST DUP1 PUSH1 0x40 MSTORE POP POP POP JUMP JUMPDEST PUSH1 0x0 PUSH2 0x1347 DUP3 PUSH2 0x128D JUMP JUMPDEST SWAP2 POP PUSH32 0xFFFFFFFFFFFFFFFFFFFFFFFFFFFFFFFFFFFFFFFFFFFFFFFFFFFFFFFFFFFFFFFF DUP3 EQ ISZERO PUSH2 0x137A JUMPI PUSH2 0x1379 PUSH2 0x13B6 JUMP JUMPDEST JUMPDEST PUSH1 0x1 DUP3 ADD SWAP1 POP SWAP2 SWAP1 POP JUMP JUMPDEST PUSH1 0x0 PUSH2 0x1390 DUP3 PUSH2 0x128D JUMP JUMPDEST SWAP2 POP PUSH2 0x139B DUP4 PUSH2 0x128D JUMP JUMPDEST SWAP3 POP DUP3 PUSH2 0x13AB JUMPI PUSH2 0x13AA PUSH2 0x13E5 JUMP JUMPDEST JUMPDEST DUP3 DUP3 MOD SWAP1 POP SWAP3 SWAP2 POP POP JUMP JUMPDEST PUSH32 0x4E487B7100000000000000000000000000000000000000000000000000000000 PUSH1 0x0 MSTORE PUSH1 0x11 PUSH1 0x4 MSTORE PUSH1 0x24 PUSH1 0x0 REVERT JUMPDEST PUSH32 0x4E487B7100000000000000000000000000000000000000000000000000000000 PUSH1 0x0 MSTORE PUSH1 0x12 PUSH1 0x4 MSTORE PUSH1 0x24 PUSH1 0x0 REVERT JUMPDEST PUSH32 0x4E487B7100000000000000000000000000000000000000000000000000000000 PUSH1 0x0 MSTORE PUSH1 0x22 PUSH1 0x4 MSTORE PUSH1 0x24 PUSH1 0x0 REVERT JUMPDEST PUSH32 0x4E487B7100000000000000000000000000000000000000000000000000000000 PUSH1 0x0 MSTORE PUSH1 0x41 PUSH1 0x4 MSTORE PUSH1 0x24 PUSH1 0x0 REVERT JUMPDEST PUSH1 0x0 PUSH1 0x1F NOT PUSH1 0x1F DUP4 ADD AND SWAP1 POP SWAP2 SWAP1 POP JUMP JUMPDEST PUSH2 0x148C DUP2 PUSH2 0x123D JUMP JUMPDEST DUP2 EQ PUSH2 0x1497 JUMPI PUSH1 0x0 DUP1 REVERT JUMPDEST POP JUMP JUMPDEST PUSH2 0x14A3 DUP2 PUSH2 0x124F JUMP JUMPDEST DUP2 EQ PUSH2 0x14AE JUMPI PUSH1 0x0 DUP1 REVERT JUMPDEST POP JUMP JUMPDEST PUSH2 0x14BA DUP2 PUSH2 0x128D JUMP JUMPDEST DUP2 EQ PUSH2 0x14C5 JUMPI PUSH1 0x0 DUP1 REVERT JUMPDEST POP JUMP INVALID LOG2 PUSH5 0x6970667358 0x22 SLT KECCAK256 0xA8 DUP15 SWAP8 AND 0xD3 NUMBER JUMPDEST 0xD9 0x4B 0xB1 0x1E SWAP2 SWAP14 SWAP7 0xB8 PUSH20 0xC4AAA78C1B105D9EB5DE300EB445EE7764736F6C PUSH4 0x43000803 STOP CALLER "},"gasEstimates":{"creation":{"codeDepositCost":"1074800","executionCost":"infinite","totalCost":"infinite"},"external":{"approveRequest(uint256)":"infinite","approvers(address)":"1582","contribute()":"infinite","createRequest(string,uint256,address)":"infinite","credits()":"1174","description()":"infinite","finalizeRequest(uint256)":"infinite","getSummary()":"infinite","manager()":"1303","name()":"infinite","numRequests()":"1173","numUniqueApprovers()":"1196","oneCreditValue()":"1152","requests(uint256)":"infinite","shortDescription()":"infinite"}},"methodIdentifiers":{"approveRequest(uint256)":"d7d1bbdb","approvers(address)":"0a144391","contribute()":"d7bb99ba","createRequest(string,uint256,address)":"8a9cfd55","credits()":"26540fd2","description()":"7284e416","finalizeRequest(uint256)":"03441006","getSummary()":"4051ddac","manager()":"481c6a75","name()":"06fdde03","numRequests()":"9fb42b1f","numUniqueApprovers()":"7554e42f","oneCreditValue()":"59af7a13","requests(uint256)":"81d12c58","shortDescription()":"1da98960"}},"storageLayout":{"storage":[{"astId":65,"contract":"Idea.sol:Idea","label":"name","offset":0,"slot":"0","type":"t_string_storage"},{"astId":67,"contract":"Idea.sol:Idea","label":"shortDescription","offset":0,"slot":"1","type":"t_string_storage"},{"astId":69,"contract":"Idea.sol:Idea","label":"description","offset":0,"slot":"2","type":"t_string_storage"},{"astId":71,"contract":"Idea.sol:Idea","label":"numRequests","offset":0,"slot":"3","type":"t_uint256"},{"astId":76,"contract":"Idea.sol:Idea","label":"requests","offset":0,"slot":"4","type":"t_mapping(t_uint256,t_struct(Request)63_storage)"},{"astId":78,"contract":"Idea.sol:Idea","label":"manager","offset":0,"slot":"5","type":"t_address"},{"astId":80,"contract":"Idea.sol:Idea","label":"numUniqueApprovers","offset":0,"slot":"6","type":"t_uint256"},{"astId":84,"contract":"Idea.sol:Idea","label":"approvers","offset":0,"slot":"7","type":"t_mapping(t_address,t_uint256)"},{"astId":86,"contract":"Idea.sol:Idea","label":"oneCreditValue","offset":0,"slot":"8","type":"t_uint256"},{"astId":88,"contract":"Idea.sol:Idea","label":"credits","offset":0,"slot":"9","type":"t_uint256"}],"types":{"t_address":{"encoding":"inplace","label":"address","numberOfBytes":"20"},"t_address_payable":{"encoding":"inplace","label":"address payable","numberOfBytes":"20"},"t_bool":{"encoding":"inplace","label":"bool","numberOfBytes":"1"},"t_mapping(t_address,t_bool)":{"encoding":"mapping","key":"t_address","label":"mapping(address => bool)","numberOfBytes":"32","value":"t_bool"},"t_mapping(t_address,t_uint256)":{"encoding":"mapping","key":"t_address","label":"mapping(address => uint256)","numberOfBytes":"32","value":"t_uint256"},"t_mapping(t_uint256,t_struct(Request)63_storage)":{"encoding":"mapping","key":"t_uint256","label":"mapping(uint256 => struct Idea.Request)","numberOfBytes":"32","value":"t_struct(Request)63_storage"},"t_string_storage":{"encoding":"bytes","label":"string","numberOfBytes":"32"},"t_struct(Request)63_storage":{"encoding":"inplace","label":"struct Idea.Request","members":[{"astId":50,"contract":"Idea.sol:Idea","label":"description","offset":0,"slot":"0","type":"t_string_storage"},{"astId":52,"contract":"Idea.sol:Idea","label":"value","offset":0,"slot":"1","type":"t_uint256"},{"astId":54,"contract":"Idea.sol:Idea","label":"recipient","offset":0,"slot":"2","type":"t_address_payable"},{"astId":56,"contract":"Idea.sol:Idea","label":"complete","offset":20,"slot":"2","type":"t_bool"},{"astId":58,"contract":"Idea.sol:Idea","label":"credits","offset":0,"slot":"3","type":"t_uint256"},{"astId":62,"contract":"Idea.sol:Idea","label":"approvals","offset":0,"slot":"4","type":"t_mapping(t_address,t_bool)"}],"numberOfBytes":"160"},"t_uint256":{"encoding":"inplace","label":"uint256","numberOfBytes":"32"}}},"userdoc":{"kind":"user","methods":{},"version":1}}