{"abi":[{"inputs":[{"internalType":"uint256","name":"minimum","type":"uint256"}],"name":"createCampaign","outputs":[],"stateMutability":"nonpayable","type":"function"},{"inputs":[{"internalType":"uint256","name":"","type":"uint256"}],"name":"deployedIdeas","outputs":[{"internalType":"contract Idea","name":"","type":"address"}],"stateMutability":"view","type":"function"},{"inputs":[],"name":"getDeployedIdeas","outputs":[{"internalType":"contract Idea[]","name":"","type":"address[]"}],"stateMutability":"view","type":"function"}],"devdoc":{"kind":"dev","methods":{},"version":1},"evm":{"assembly":"    /* \"Idea.sol\":25:338  contract IdeaFactory {... */\n  mstore(0x40, 0x80)\n  callvalue\n  dup1\n  iszero\n  tag_1\n  jumpi\n  0x00\n  dup1\n  revert\ntag_1:\n  pop\n  dataSize(sub_0)\n  dup1\n  dataOffset(sub_0)\n  0x00\n  codecopy\n  0x00\n  return\nstop\n\nsub_0: assembly {\n        /* \"Idea.sol\":25:338  contract IdeaFactory {... */\n      mstore(0x40, 0x80)\n      callvalue\n      dup1\n      iszero\n      tag_1\n      jumpi\n      0x00\n      dup1\n      revert\n    tag_1:\n      pop\n      jumpi(tag_2, lt(calldatasize, 0x04))\n      shr(0xe0, calldataload(0x00))\n      dup1\n      0xa3303a75\n      eq\n      tag_3\n      jumpi\n      dup1\n      0xe4293559\n      eq\n      tag_4\n      jumpi\n      dup1\n      0xf739bf4d\n      eq\n      tag_5\n      jumpi\n    tag_2:\n      0x00\n      dup1\n      revert\n        /* \"Idea.sol\":86:229  function createCampaign(uint minimum) public {... */\n    tag_3:\n      tag_6\n      0x04\n      dup1\n      calldatasize\n      sub\n      dup2\n      add\n      swap1\n      tag_7\n      swap2\n      swap1\n      tag_8\n      jump\t// in\n    tag_7:\n      tag_9\n      jump\t// in\n    tag_6:\n      stop\n        /* \"Idea.sol\":235:336  function getDeployedIdeas() public view returns (Idea[] memory) {... */\n    tag_4:\n      tag_10\n      tag_11\n      jump\t// in\n    tag_10:\n      mload(0x40)\n      tag_12\n      swap2\n      swap1\n      tag_13\n      jump\t// in\n    tag_12:\n      mload(0x40)\n      dup1\n      swap2\n      sub\n      swap1\n      return\n        /* \"Idea.sol\":52:79  Idea[] public deployedIdeas */\n    tag_5:\n      tag_14\n      0x04\n      dup1\n      calldatasize\n      sub\n      dup2\n      add\n      swap1\n      tag_15\n      swap2\n      swap1\n      tag_8\n      jump\t// in\n    tag_15:\n      tag_16\n      jump\t// in\n    tag_14:\n      mload(0x40)\n      tag_17\n      swap2\n      swap1\n      tag_18\n      jump\t// in\n    tag_17:\n      mload(0x40)\n      dup1\n      swap2\n      sub\n      swap1\n      return\n        /* \"Idea.sol\":86:229  function createCampaign(uint minimum) public {... */\n    tag_9:\n        /* \"Idea.sol\":141:153  Idea newIdea */\n      0x00\n        /* \"Idea.sol\":165:172  minimum */\n      dup2\n        /* \"Idea.sol\":174:184  msg.sender */\n      caller\n        /* \"Idea.sol\":156:185  new Idea(minimum, msg.sender) */\n      mload(0x40)\n      tag_20\n      swap1\n      tag_21\n      jump\t// in\n    tag_20:\n      tag_22\n      swap3\n      swap2\n      swap1\n      tag_23\n      jump\t// in\n    tag_22:\n      mload(0x40)\n      dup1\n      swap2\n      sub\n      swap1\n      0x00\n      create\n      dup1\n      iszero\n      dup1\n      iszero\n      tag_24\n      jumpi\n      returndatasize\n      0x00\n      dup1\n      returndatacopy\n      revert(0x00, returndatasize)\n    tag_24:\n      pop\n        /* \"Idea.sol\":141:185  Idea newIdea = new Idea(minimum, msg.sender) */\n      swap1\n      pop\n        /* \"Idea.sol\":195:208  deployedIdeas */\n      0x00\n        /* \"Idea.sol\":214:221  newIdea */\n      dup2\n        /* \"Idea.sol\":195:222  deployedIdeas.push(newIdea) */\n      swap1\n      dup1\n      0x01\n      dup2\n      sload\n      add\n      dup1\n      dup3\n      sstore\n      dup1\n      swap2\n      pop\n      pop\n      0x01\n      swap1\n      sub\n      swap1\n      0x00\n      mstore\n      keccak256(0x00, 0x20)\n      add\n      0x00\n      swap1\n      swap2\n      swap1\n      swap2\n      swap1\n      swap2\n      0x0100\n      exp\n      dup2\n      sload\n      dup2\n      0xffffffffffffffffffffffffffffffffffffffff\n      mul\n      not\n      and\n      swap1\n      dup4\n      0xffffffffffffffffffffffffffffffffffffffff\n      and\n      mul\n      or\n      swap1\n      sstore\n      pop\n        /* \"Idea.sol\":86:229  function createCampaign(uint minimum) public {... */\n      pop\n      pop\n      jump\t// out\n        /* \"Idea.sol\":235:336  function getDeployedIdeas() public view returns (Idea[] memory) {... */\n    tag_11:\n        /* \"Idea.sol\":284:297  Idea[] memory */\n      0x60\n        /* \"Idea.sol\":316:329  deployedIdeas */\n      0x00\n        /* \"Idea.sol\":309:329  return deployedIdeas */\n      dup1\n      sload\n      dup1\n      0x20\n      mul\n      0x20\n      add\n      mload(0x40)\n      swap1\n      dup2\n      add\n      0x40\n      mstore\n      dup1\n      swap3\n      swap2\n      swap1\n      dup2\n      dup2\n      mstore\n      0x20\n      add\n      dup3\n      dup1\n      sload\n      dup1\n      iszero\n      tag_27\n      jumpi\n      0x20\n      mul\n      dup3\n      add\n      swap2\n      swap1\n      0x00\n      mstore\n      keccak256(0x00, 0x20)\n      swap1\n    tag_28:\n      dup2\n      0x00\n      swap1\n      sload\n      swap1\n      0x0100\n      exp\n      swap1\n      div\n      0xffffffffffffffffffffffffffffffffffffffff\n      and\n      0xffffffffffffffffffffffffffffffffffffffff\n      and\n      dup2\n      mstore\n      0x20\n      add\n      swap1\n      0x01\n      add\n      swap1\n      dup1\n      dup4\n      gt\n      tag_28\n      jumpi\n    tag_27:\n      pop\n      pop\n      pop\n      pop\n      pop\n      swap1\n      pop\n        /* \"Idea.sol\":235:336  function getDeployedIdeas() public view returns (Idea[] memory) {... */\n      swap1\n      jump\t// out\n        /* \"Idea.sol\":52:79  Idea[] public deployedIdeas */\n    tag_16:\n      0x00\n      dup2\n      dup2\n      sload\n      dup2\n      lt\n      tag_29\n      jumpi\n      0x00\n      dup1\n      revert\n    tag_29:\n      swap1\n      0x00\n      mstore\n      keccak256(0x00, 0x20)\n      add\n      0x00\n      swap2\n      pop\n      sload\n      swap1\n      0x0100\n      exp\n      swap1\n      div\n      0xffffffffffffffffffffffffffffffffffffffff\n      and\n      dup2\n      jump\t// out\n    tag_21:\n      dataSize(sub_0)\n      dup1\n      dataOffset(sub_0)\n      dup4\n      codecopy\n      add\n      swap1\n      jump\t// out\n        /* \"#utility.yul\":7:146   */\n    tag_32:\n      0x00\n        /* \"#utility.yul\":91:97   */\n      dup2\n        /* \"#utility.yul\":78:98   */\n      calldataload\n        /* \"#utility.yul\":69:98   */\n      swap1\n      pop\n        /* \"#utility.yul\":107:140   */\n      tag_34\n        /* \"#utility.yul\":134:139   */\n      dup2\n        /* \"#utility.yul\":107:140   */\n      tag_35\n      jump\t// in\n    tag_34:\n        /* \"#utility.yul\":59:146   */\n      swap3\n      swap2\n      pop\n      pop\n      jump\t// out\n        /* \"#utility.yul\":152:414   */\n    tag_8:\n      0x00\n        /* \"#utility.yul\":260:262   */\n      0x20\n        /* \"#utility.yul\":248:257   */\n      dup3\n        /* \"#utility.yul\":239:246   */\n      dup5\n        /* \"#utility.yul\":235:258   */\n      sub\n        /* \"#utility.yul\":231:263   */\n      slt\n        /* \"#utility.yul\":228:230   */\n      iszero\n      tag_37\n      jumpi\n        /* \"#utility.yul\":276:277   */\n      0x00\n        /* \"#utility.yul\":273:274   */\n      dup1\n        /* \"#utility.yul\":266:278   */\n      revert\n        /* \"#utility.yul\":228:230   */\n    tag_37:\n        /* \"#utility.yul\":319:320   */\n      0x00\n        /* \"#utility.yul\":344:397   */\n      tag_38\n        /* \"#utility.yul\":389:396   */\n      dup5\n        /* \"#utility.yul\":380:386   */\n      dup3\n        /* \"#utility.yul\":369:378   */\n      dup6\n        /* \"#utility.yul\":365:387   */\n      add\n        /* \"#utility.yul\":344:397   */\n      tag_32\n      jump\t// in\n    tag_38:\n        /* \"#utility.yul\":334:397   */\n      swap2\n      pop\n        /* \"#utility.yul\":290:407   */\n      pop\n        /* \"#utility.yul\":218:414   */\n      swap3\n      swap2\n      pop\n      pop\n      jump\t// out\n        /* \"#utility.yul\":420:623   */\n    tag_39:\n      0x00\n        /* \"#utility.yul\":522:580   */\n      tag_41\n        /* \"#utility.yul\":576:579   */\n      dup4\n        /* \"#utility.yul\":568:574   */\n      dup4\n        /* \"#utility.yul\":522:580   */\n      tag_42\n      jump\t// in\n    tag_41:\n        /* \"#utility.yul\":612:616   */\n      0x20\n        /* \"#utility.yul\":607:610   */\n      dup4\n        /* \"#utility.yul\":603:617   */\n      add\n        /* \"#utility.yul\":589:617   */\n      swap1\n      pop\n        /* \"#utility.yul\":512:623   */\n      swap3\n      swap2\n      pop\n      pop\n      jump\t// out\n        /* \"#utility.yul\":629:747   */\n    tag_43:\n        /* \"#utility.yul\":716:740   */\n      tag_45\n        /* \"#utility.yul\":734:739   */\n      dup2\n        /* \"#utility.yul\":716:740   */\n      tag_46\n      jump\t// in\n    tag_45:\n        /* \"#utility.yul\":711:714   */\n      dup3\n        /* \"#utility.yul\":704:741   */\n      mstore\n        /* \"#utility.yul\":694:747   */\n      pop\n      pop\n      jump\t// out\n        /* \"#utility.yul\":789:1581   */\n    tag_47:\n      0x00\n        /* \"#utility.yul\":949:1015   */\n      tag_49\n        /* \"#utility.yul\":1009:1014   */\n      dup3\n        /* \"#utility.yul\":949:1015   */\n      tag_50\n      jump\t// in\n    tag_49:\n        /* \"#utility.yul\":1031:1117   */\n      tag_51\n        /* \"#utility.yul\":1110:1116   */\n      dup2\n        /* \"#utility.yul\":1105:1108   */\n      dup6\n        /* \"#utility.yul\":1031:1117   */\n      tag_52\n      jump\t// in\n    tag_51:\n        /* \"#utility.yul\":1024:1117   */\n      swap4\n      pop\n        /* \"#utility.yul\":1141:1209   */\n      tag_53\n        /* \"#utility.yul\":1203:1208   */\n      dup4\n        /* \"#utility.yul\":1141:1209   */\n      tag_54\n      jump\t// in\n    tag_53:\n        /* \"#utility.yul\":1232:1239   */\n      dup1\n        /* \"#utility.yul\":1263:1264   */\n      0x00\n        /* \"#utility.yul\":1248:1556   */\n    tag_55:\n        /* \"#utility.yul\":1273:1279   */\n      dup4\n        /* \"#utility.yul\":1270:1271   */\n      dup2\n        /* \"#utility.yul\":1267:1280   */\n      lt\n        /* \"#utility.yul\":1248:1556   */\n      iszero\n      tag_57\n      jumpi\n        /* \"#utility.yul\":1349:1355   */\n      dup2\n        /* \"#utility.yul\":1343:1356   */\n      mload\n        /* \"#utility.yul\":1376:1451   */\n      tag_58\n        /* \"#utility.yul\":1447:1450   */\n      dup9\n        /* \"#utility.yul\":1432:1445   */\n      dup3\n        /* \"#utility.yul\":1376:1451   */\n      tag_39\n      jump\t// in\n    tag_58:\n        /* \"#utility.yul\":1369:1451   */\n      swap8\n      pop\n        /* \"#utility.yul\":1474:1546   */\n      tag_59\n        /* \"#utility.yul\":1539:1545   */\n      dup4\n        /* \"#utility.yul\":1474:1546   */\n      tag_60\n      jump\t// in\n    tag_59:\n        /* \"#utility.yul\":1464:1546   */\n      swap3\n      pop\n        /* \"#utility.yul\":1308:1556   */\n      pop\n        /* \"#utility.yul\":1295:1296   */\n      0x01\n        /* \"#utility.yul\":1292:1293   */\n      dup2\n        /* \"#utility.yul\":1288:1297   */\n      add\n        /* \"#utility.yul\":1283:1297   */\n      swap1\n      pop\n        /* \"#utility.yul\":1248:1556   */\n      jump(tag_55)\n    tag_57:\n        /* \"#utility.yul\":1252:1266   */\n      pop\n        /* \"#utility.yul\":1572:1575   */\n      dup6\n        /* \"#utility.yul\":1565:1575   */\n      swap4\n      pop\n        /* \"#utility.yul\":925:1581   */\n      pop\n      pop\n      pop\n      swap3\n      swap2\n      pop\n      pop\n      jump\t// out\n        /* \"#utility.yul\":1587:1732   */\n    tag_42:\n        /* \"#utility.yul\":1676:1725   */\n      tag_62\n        /* \"#utility.yul\":1719:1724   */\n      dup2\n        /* \"#utility.yul\":1676:1725   */\n      tag_63\n      jump\t// in\n    tag_62:\n        /* \"#utility.yul\":1671:1674   */\n      dup3\n        /* \"#utility.yul\":1664:1726   */\n      mstore\n        /* \"#utility.yul\":1654:1732   */\n      pop\n      pop\n      jump\t// out\n        /* \"#utility.yul\":1738:1893   */\n    tag_64:\n        /* \"#utility.yul\":1837:1886   */\n      tag_66\n        /* \"#utility.yul\":1880:1885   */\n      dup2\n        /* \"#utility.yul\":1837:1886   */\n      tag_63\n      jump\t// in\n    tag_66:\n        /* \"#utility.yul\":1832:1835   */\n      dup3\n        /* \"#utility.yul\":1825:1887   */\n      mstore\n        /* \"#utility.yul\":1815:1893   */\n      pop\n      pop\n      jump\t// out\n        /* \"#utility.yul\":1899:2017   */\n    tag_67:\n        /* \"#utility.yul\":1986:2010   */\n      tag_69\n        /* \"#utility.yul\":2004:2009   */\n      dup2\n        /* \"#utility.yul\":1986:2010   */\n      tag_70\n      jump\t// in\n    tag_69:\n        /* \"#utility.yul\":1981:1984   */\n      dup3\n        /* \"#utility.yul\":1974:2011   */\n      mstore\n        /* \"#utility.yul\":1964:2017   */\n      pop\n      pop\n      jump\t// out\n        /* \"#utility.yul\":2023:2420   */\n    tag_13:\n      0x00\n        /* \"#utility.yul\":2216:2218   */\n      0x20\n        /* \"#utility.yul\":2205:2214   */\n      dup3\n        /* \"#utility.yul\":2201:2219   */\n      add\n        /* \"#utility.yul\":2193:2219   */\n      swap1\n      pop\n        /* \"#utility.yul\":2265:2274   */\n      dup2\n        /* \"#utility.yul\":2259:2263   */\n      dup2\n        /* \"#utility.yul\":2255:2275   */\n      sub\n        /* \"#utility.yul\":2251:2252   */\n      0x00\n        /* \"#utility.yul\":2240:2249   */\n      dup4\n        /* \"#utility.yul\":2236:2253   */\n      add\n        /* \"#utility.yul\":2229:2276   */\n      mstore\n        /* \"#utility.yul\":2293:2413   */\n      tag_72\n        /* \"#utility.yul\":2408:2412   */\n      dup2\n        /* \"#utility.yul\":2399:2405   */\n      dup5\n        /* \"#utility.yul\":2293:2413   */\n      tag_47\n      jump\t// in\n    tag_72:\n        /* \"#utility.yul\":2285:2413   */\n      swap1\n      pop\n        /* \"#utility.yul\":2183:2420   */\n      swap3\n      swap2\n      pop\n      pop\n      jump\t// out\n        /* \"#utility.yul\":2426:2672   */\n    tag_18:\n      0x00\n        /* \"#utility.yul\":2569:2571   */\n      0x20\n        /* \"#utility.yul\":2558:2567   */\n      dup3\n        /* \"#utility.yul\":2554:2572   */\n      add\n        /* \"#utility.yul\":2546:2572   */\n      swap1\n      pop\n        /* \"#utility.yul\":2582:2665   */\n      tag_74\n        /* \"#utility.yul\":2662:2663   */\n      0x00\n        /* \"#utility.yul\":2651:2660   */\n      dup4\n        /* \"#utility.yul\":2647:2664   */\n      add\n        /* \"#utility.yul\":2638:2644   */\n      dup5\n        /* \"#utility.yul\":2582:2665   */\n      tag_64\n      jump\t// in\n    tag_74:\n        /* \"#utility.yul\":2536:2672   */\n      swap3\n      swap2\n      pop\n      pop\n      jump\t// out\n        /* \"#utility.yul\":2678:3010   */\n    tag_23:\n      0x00\n        /* \"#utility.yul\":2837:2839   */\n      0x40\n        /* \"#utility.yul\":2826:2835   */\n      dup3\n        /* \"#utility.yul\":2822:2840   */\n      add\n        /* \"#utility.yul\":2814:2840   */\n      swap1\n      pop\n        /* \"#utility.yul\":2850:2921   */\n      tag_76\n        /* \"#utility.yul\":2918:2919   */\n      0x00\n        /* \"#utility.yul\":2907:2916   */\n      dup4\n        /* \"#utility.yul\":2903:2920   */\n      add\n        /* \"#utility.yul\":2894:2900   */\n      dup6\n        /* \"#utility.yul\":2850:2921   */\n      tag_67\n      jump\t// in\n    tag_76:\n        /* \"#utility.yul\":2931:3003   */\n      tag_77\n        /* \"#utility.yul\":2999:3001   */\n      0x20\n        /* \"#utility.yul\":2988:2997   */\n      dup4\n        /* \"#utility.yul\":2984:3002   */\n      add\n        /* \"#utility.yul\":2975:2981   */\n      dup5\n        /* \"#utility.yul\":2931:3003   */\n      tag_43\n      jump\t// in\n    tag_77:\n        /* \"#utility.yul\":2804:3010   */\n      swap4\n      swap3\n      pop\n      pop\n      pop\n      jump\t// out\n        /* \"#utility.yul\":3016:3160   */\n    tag_54:\n      0x00\n        /* \"#utility.yul\":3118:3121   */\n      dup2\n        /* \"#utility.yul\":3110:3121   */\n      swap1\n      pop\n        /* \"#utility.yul\":3148:3152   */\n      0x20\n        /* \"#utility.yul\":3143:3146   */\n      dup3\n        /* \"#utility.yul\":3139:3153   */\n      add\n        /* \"#utility.yul\":3131:3153   */\n      swap1\n      pop\n        /* \"#utility.yul\":3100:3160   */\n      swap2\n      swap1\n      pop\n      jump\t// out\n        /* \"#utility.yul\":3166:3292   */\n    tag_50:\n      0x00\n        /* \"#utility.yul\":3279:3284   */\n      dup2\n        /* \"#utility.yul\":3273:3285   */\n      mload\n        /* \"#utility.yul\":3263:3285   */\n      swap1\n      pop\n        /* \"#utility.yul\":3252:3292   */\n      swap2\n      swap1\n      pop\n      jump\t// out\n        /* \"#utility.yul\":3298:3423   */\n    tag_60:\n      0x00\n        /* \"#utility.yul\":3412:3416   */\n      0x20\n        /* \"#utility.yul\":3407:3410   */\n      dup3\n        /* \"#utility.yul\":3403:3417   */\n      add\n        /* \"#utility.yul\":3395:3417   */\n      swap1\n      pop\n        /* \"#utility.yul\":3385:3423   */\n      swap2\n      swap1\n      pop\n      jump\t// out\n        /* \"#utility.yul\":3429:3613   */\n    tag_52:\n      0x00\n        /* \"#utility.yul\":3562:3568   */\n      dup3\n        /* \"#utility.yul\":3557:3560   */\n      dup3\n        /* \"#utility.yul\":3550:3569   */\n      mstore\n        /* \"#utility.yul\":3602:3606   */\n      0x20\n        /* \"#utility.yul\":3597:3600   */\n      dup3\n        /* \"#utility.yul\":3593:3607   */\n      add\n        /* \"#utility.yul\":3578:3607   */\n      swap1\n      pop\n        /* \"#utility.yul\":3540:3613   */\n      swap3\n      swap2\n      pop\n      pop\n      jump\t// out\n        /* \"#utility.yul\":3619:3715   */\n    tag_46:\n      0x00\n        /* \"#utility.yul\":3685:3709   */\n      tag_83\n        /* \"#utility.yul\":3703:3708   */\n      dup3\n        /* \"#utility.yul\":3685:3709   */\n      tag_84\n      jump\t// in\n    tag_83:\n        /* \"#utility.yul\":3674:3709   */\n      swap1\n      pop\n        /* \"#utility.yul\":3664:3715   */\n      swap2\n      swap1\n      pop\n      jump\t// out\n        /* \"#utility.yul\":3721:3847   */\n    tag_84:\n      0x00\n        /* \"#utility.yul\":3798:3840   */\n      0xffffffffffffffffffffffffffffffffffffffff\n        /* \"#utility.yul\":3791:3796   */\n      dup3\n        /* \"#utility.yul\":3787:3841   */\n      and\n        /* \"#utility.yul\":3776:3841   */\n      swap1\n      pop\n        /* \"#utility.yul\":3766:3847   */\n      swap2\n      swap1\n      pop\n      jump\t// out\n        /* \"#utility.yul\":3853:3930   */\n    tag_70:\n      0x00\n        /* \"#utility.yul\":3919:3924   */\n      dup2\n        /* \"#utility.yul\":3908:3924   */\n      swap1\n      pop\n        /* \"#utility.yul\":3898:3930   */\n      swap2\n      swap1\n      pop\n      jump\t// out\n        /* \"#utility.yul\":3936:4086   */\n    tag_63:\n      0x00\n        /* \"#utility.yul\":4031:4080   */\n      tag_88\n        /* \"#utility.yul\":4074:4079   */\n      dup3\n        /* \"#utility.yul\":4031:4080   */\n      tag_89\n      jump\t// in\n    tag_88:\n        /* \"#utility.yul\":4018:4080   */\n      swap1\n      pop\n        /* \"#utility.yul\":4008:4086   */\n      swap2\n      swap1\n      pop\n      jump\t// out\n        /* \"#utility.yul\":4092:4217   */\n    tag_89:\n      0x00\n        /* \"#utility.yul\":4187:4211   */\n      tag_91\n        /* \"#utility.yul\":4205:4210   */\n      dup3\n        /* \"#utility.yul\":4187:4211   */\n      tag_84\n      jump\t// in\n    tag_91:\n        /* \"#utility.yul\":4174:4211   */\n      swap1\n      pop\n        /* \"#utility.yul\":4164:4217   */\n      swap2\n      swap1\n      pop\n      jump\t// out\n        /* \"#utility.yul\":4223:4345   */\n    tag_35:\n        /* \"#utility.yul\":4296:4320   */\n      tag_93\n        /* \"#utility.yul\":4314:4319   */\n      dup2\n        /* \"#utility.yul\":4296:4320   */\n      tag_70\n      jump\t// in\n    tag_93:\n        /* \"#utility.yul\":4289:4294   */\n      dup2\n        /* \"#utility.yul\":4286:4321   */\n      eq\n        /* \"#utility.yul\":4276:4278   */\n      tag_94\n      jumpi\n        /* \"#utility.yul\":4335:4336   */\n      0x00\n        /* \"#utility.yul\":4332:4333   */\n      dup1\n        /* \"#utility.yul\":4325:4337   */\n      revert\n        /* \"#utility.yul\":4276:4278   */\n    tag_94:\n        /* \"#utility.yul\":4266:4345   */\n      pop\n      jump\t// out\n    stop\n\n    sub_0: assembly {\n            /* \"Idea.sol\":341:2433  contract Idea {... */\n          mstore(0x40, 0x80)\n            /* \"Idea.sol\":876:993  constructor(uint creditValue, address sender) {... */\n          callvalue\n          dup1\n          iszero\n          tag_1\n          jumpi\n          0x00\n          dup1\n          revert\n        tag_1:\n          pop\n          mload(0x40)\n          sub(codesize, bytecodeSize)\n          dup1\n          bytecodeSize\n          dup4\n          codecopy\n          dup2\n          dup2\n          add\n          0x40\n          mstore\n          dup2\n          add\n          swap1\n          tag_2\n          swap2\n          swap1\n          tag_3\n          jump\t// in\n        tag_2:\n            /* \"Idea.sol\":942:948  sender */\n          dup1\n            /* \"Idea.sol\":932:939  manager */\n          0x02\n          0x00\n            /* \"Idea.sol\":932:948  manager = sender */\n          0x0100\n          exp\n          dup2\n          sload\n          dup2\n          0xffffffffffffffffffffffffffffffffffffffff\n          mul\n          not\n          and\n          swap1\n          dup4\n          0xffffffffffffffffffffffffffffffffffffffff\n          and\n          mul\n          or\n          swap1\n          sstore\n          pop\n            /* \"Idea.sol\":975:986  creditValue */\n          dup2\n            /* \"Idea.sol\":958:972  oneCreditValue */\n          0x03\n            /* \"Idea.sol\":958:986  oneCreditValue = creditValue */\n          dup2\n          swap1\n          sstore\n          pop\n            /* \"Idea.sol\":876:993  constructor(uint creditValue, address sender) {... */\n          pop\n          pop\n            /* \"Idea.sol\":341:2433  contract Idea {... */\n          jump(tag_6)\n            /* \"#utility.yul\":7:150   */\n        tag_8:\n          0x00\n            /* \"#utility.yul\":95:101   */\n          dup2\n            /* \"#utility.yul\":89:102   */\n          mload\n            /* \"#utility.yul\":80:102   */\n          swap1\n          pop\n            /* \"#utility.yul\":111:144   */\n          tag_10\n            /* \"#utility.yul\":138:143   */\n          dup2\n            /* \"#utility.yul\":111:144   */\n          tag_11\n          jump\t// in\n        tag_10:\n            /* \"#utility.yul\":70:150   */\n          swap3\n          swap2\n          pop\n          pop\n          jump\t// out\n            /* \"#utility.yul\":156:299   */\n        tag_12:\n          0x00\n            /* \"#utility.yul\":244:250   */\n          dup2\n            /* \"#utility.yul\":238:251   */\n          mload\n            /* \"#utility.yul\":229:251   */\n          swap1\n          pop\n            /* \"#utility.yul\":260:293   */\n          tag_14\n            /* \"#utility.yul\":287:292   */\n          dup2\n            /* \"#utility.yul\":260:293   */\n          tag_15\n          jump\t// in\n        tag_14:\n            /* \"#utility.yul\":219:299   */\n          swap3\n          swap2\n          pop\n          pop\n          jump\t// out\n            /* \"#utility.yul\":305:745   */\n        tag_3:\n          0x00\n          dup1\n            /* \"#utility.yul\":441:443   */\n          0x40\n            /* \"#utility.yul\":429:438   */\n          dup4\n            /* \"#utility.yul\":420:427   */\n          dup6\n            /* \"#utility.yul\":416:439   */\n          sub\n            /* \"#utility.yul\":412:444   */\n          slt\n            /* \"#utility.yul\":409:411   */\n          iszero\n          tag_17\n          jumpi\n            /* \"#utility.yul\":457:458   */\n          0x00\n            /* \"#utility.yul\":454:455   */\n          dup1\n            /* \"#utility.yul\":447:459   */\n          revert\n            /* \"#utility.yul\":409:411   */\n        tag_17:\n            /* \"#utility.yul\":500:501   */\n          0x00\n            /* \"#utility.yul\":525:589   */\n          tag_18\n            /* \"#utility.yul\":581:588   */\n          dup6\n            /* \"#utility.yul\":572:578   */\n          dup3\n            /* \"#utility.yul\":561:570   */\n          dup7\n            /* \"#utility.yul\":557:579   */\n          add\n            /* \"#utility.yul\":525:589   */\n          tag_12\n          jump\t// in\n        tag_18:\n            /* \"#utility.yul\":515:589   */\n          swap3\n          pop\n            /* \"#utility.yul\":471:599   */\n          pop\n            /* \"#utility.yul\":638:640   */\n          0x20\n            /* \"#utility.yul\":664:728   */\n          tag_19\n            /* \"#utility.yul\":720:727   */\n          dup6\n            /* \"#utility.yul\":711:717   */\n          dup3\n            /* \"#utility.yul\":700:709   */\n          dup7\n            /* \"#utility.yul\":696:718   */\n          add\n            /* \"#utility.yul\":664:728   */\n          tag_8\n          jump\t// in\n        tag_19:\n            /* \"#utility.yul\":654:728   */\n          swap2\n          pop\n            /* \"#utility.yul\":609:738   */\n          pop\n            /* \"#utility.yul\":399:745   */\n          swap3\n          pop\n          swap3\n          swap1\n          pop\n          jump\t// out\n            /* \"#utility.yul\":751:847   */\n        tag_20:\n          0x00\n            /* \"#utility.yul\":817:841   */\n          tag_22\n            /* \"#utility.yul\":835:840   */\n          dup3\n            /* \"#utility.yul\":817:841   */\n          tag_23\n          jump\t// in\n        tag_22:\n            /* \"#utility.yul\":806:841   */\n          swap1\n          pop\n            /* \"#utility.yul\":796:847   */\n          swap2\n          swap1\n          pop\n          jump\t// out\n            /* \"#utility.yul\":853:979   */\n        tag_23:\n          0x00\n            /* \"#utility.yul\":930:972   */\n          0xffffffffffffffffffffffffffffffffffffffff\n            /* \"#utility.yul\":923:928   */\n          dup3\n            /* \"#utility.yul\":919:973   */\n          and\n            /* \"#utility.yul\":908:973   */\n          swap1\n          pop\n            /* \"#utility.yul\":898:979   */\n          swap2\n          swap1\n          pop\n          jump\t// out\n            /* \"#utility.yul\":985:1062   */\n        tag_25:\n          0x00\n            /* \"#utility.yul\":1051:1056   */\n          dup2\n            /* \"#utility.yul\":1040:1056   */\n          swap1\n          pop\n            /* \"#utility.yul\":1030:1062   */\n          swap2\n          swap1\n          pop\n          jump\t// out\n            /* \"#utility.yul\":1068:1190   */\n        tag_11:\n            /* \"#utility.yul\":1141:1165   */\n          tag_28\n            /* \"#utility.yul\":1159:1164   */\n          dup2\n            /* \"#utility.yul\":1141:1165   */\n          tag_20\n          jump\t// in\n        tag_28:\n            /* \"#utility.yul\":1134:1139   */\n          dup2\n            /* \"#utility.yul\":1131:1166   */\n          eq\n            /* \"#utility.yul\":1121:1123   */\n          tag_29\n          jumpi\n            /* \"#utility.yul\":1180:1181   */\n          0x00\n            /* \"#utility.yul\":1177:1178   */\n          dup1\n            /* \"#utility.yul\":1170:1182   */\n          revert\n            /* \"#utility.yul\":1121:1123   */\n        tag_29:\n            /* \"#utility.yul\":1111:1190   */\n          pop\n          jump\t// out\n            /* \"#utility.yul\":1196:1318   */\n        tag_15:\n            /* \"#utility.yul\":1269:1293   */\n          tag_31\n            /* \"#utility.yul\":1287:1292   */\n          dup2\n            /* \"#utility.yul\":1269:1293   */\n          tag_25\n          jump\t// in\n        tag_31:\n            /* \"#utility.yul\":1262:1267   */\n          dup2\n            /* \"#utility.yul\":1259:1294   */\n          eq\n            /* \"#utility.yul\":1249:1251   */\n          tag_32\n          jumpi\n            /* \"#utility.yul\":1308:1309   */\n          0x00\n            /* \"#utility.yul\":1305:1306   */\n          dup1\n            /* \"#utility.yul\":1298:1310   */\n          revert\n            /* \"#utility.yul\":1249:1251   */\n        tag_32:\n            /* \"#utility.yul\":1239:1318   */\n          pop\n          jump\t// out\n            /* \"Idea.sol\":341:2433  contract Idea {... */\n        tag_6:\n          dataSize(sub_0)\n          dup1\n          dataOffset(sub_0)\n          0x00\n          codecopy\n          0x00\n          return\n        stop\n\n        sub_0: assembly {\n                /* \"Idea.sol\":341:2433  contract Idea {... */\n              mstore(0x40, 0x80)\n              jumpi(tag_1, lt(calldatasize, 0x04))\n              shr(0xe0, calldataload(0x00))\n              dup1\n              0x81d12c58\n              gt\n              tag_12\n              jumpi\n              dup1\n              0x81d12c58\n              eq\n              tag_7\n              jumpi\n              dup1\n              0x8a9cfd55\n              eq\n              tag_8\n              jumpi\n              dup1\n              0x9fb42b1f\n              eq\n              tag_9\n              jumpi\n              dup1\n              0xd7bb99ba\n              eq\n              tag_10\n              jumpi\n              dup1\n              0xd7d1bbdb\n              eq\n              tag_11\n              jumpi\n              jump(tag_1)\n            tag_12:\n              dup1\n              0x03441006\n              eq\n              tag_2\n              jumpi\n              dup1\n              0x0a144391\n              eq\n              tag_3\n              jumpi\n              dup1\n              0x26540fd2\n              eq\n              tag_4\n              jumpi\n              dup1\n              0x481c6a75\n              eq\n              tag_5\n              jumpi\n              dup1\n              0x59af7a13\n              eq\n              tag_6\n              jumpi\n            tag_1:\n              0x00\n              dup1\n              revert\n                /* \"Idea.sol\":2140:2431  function finalizeRequest(uint index) public allowOnlyManager {... */\n            tag_2:\n              callvalue\n              dup1\n              iszero\n              tag_13\n              jumpi\n              0x00\n              dup1\n              revert\n            tag_13:\n              pop\n              tag_14\n              0x04\n              dup1\n              calldatasize\n              sub\n              dup2\n              add\n              swap1\n              tag_15\n              swap2\n              swap1\n              tag_16\n              jump\t// in\n            tag_15:\n              tag_17\n              jump\t// in\n            tag_14:\n              stop\n                /* \"Idea.sol\":707:748  mapping(address => uint) public approvers */\n            tag_3:\n              callvalue\n              dup1\n              iszero\n              tag_18\n              jumpi\n              0x00\n              dup1\n              revert\n            tag_18:\n              pop\n              tag_19\n              0x04\n              dup1\n              calldatasize\n              sub\n              dup2\n              add\n              swap1\n              tag_20\n              swap2\n              swap1\n              tag_21\n              jump\t// in\n            tag_20:\n              tag_22\n              jump\t// in\n            tag_19:\n              mload(0x40)\n              tag_23\n              swap2\n              swap1\n              tag_24\n              jump\t// in\n            tag_23:\n              mload(0x40)\n              dup1\n              swap2\n              sub\n              swap1\n              return\n                /* \"Idea.sol\":754:773  uint public credits */\n            tag_4:\n              callvalue\n              dup1\n              iszero\n              tag_25\n              jumpi\n              0x00\n              dup1\n              revert\n            tag_25:\n              pop\n              tag_26\n              tag_27\n              jump\t// in\n            tag_26:\n              mload(0x40)\n              tag_28\n              swap2\n              swap1\n              tag_24\n              jump\t// in\n            tag_28:\n              mload(0x40)\n              dup1\n              swap2\n              sub\n              swap1\n              return\n                /* \"Idea.sol\":647:669  address public manager */\n            tag_5:\n              callvalue\n              dup1\n              iszero\n              tag_29\n              jumpi\n              0x00\n              dup1\n              revert\n            tag_29:\n              pop\n              tag_30\n              tag_31\n              jump\t// in\n            tag_30:\n              mload(0x40)\n              tag_32\n              swap2\n              swap1\n              tag_33\n              jump\t// in\n            tag_32:\n              mload(0x40)\n              dup1\n              swap2\n              sub\n              swap1\n              return\n                /* \"Idea.sol\":675:701  uint public oneCreditValue */\n            tag_6:\n              callvalue\n              dup1\n              iszero\n              tag_34\n              jumpi\n              0x00\n              dup1\n              revert\n            tag_34:\n              pop\n              tag_35\n              tag_36\n              jump\t// in\n            tag_35:\n              mload(0x40)\n              tag_37\n              swap2\n              swap1\n              tag_24\n              jump\t// in\n            tag_37:\n              mload(0x40)\n              dup1\n              swap2\n              sub\n              swap1\n              return\n                /* \"Idea.sol\":595:636  mapping (uint => Request) public requests */\n            tag_7:\n              callvalue\n              dup1\n              iszero\n              tag_38\n              jumpi\n              0x00\n              dup1\n              revert\n            tag_38:\n              pop\n              tag_39\n              0x04\n              dup1\n              calldatasize\n              sub\n              dup2\n              add\n              swap1\n              tag_40\n              swap2\n              swap1\n              tag_16\n              jump\t// in\n            tag_40:\n              tag_41\n              jump\t// in\n            tag_39:\n              mload(0x40)\n              tag_42\n              swap6\n              swap5\n              swap4\n              swap3\n              swap2\n              swap1\n              tag_43\n              jump\t// in\n            tag_42:\n              mload(0x40)\n              dup1\n              swap2\n              sub\n              swap1\n              return\n                /* \"Idea.sol\":1513:1832  function createRequest(string memory description, uint value, address payable recipient) public allowOnlyManager {... */\n            tag_8:\n              callvalue\n              dup1\n              iszero\n              tag_44\n              jumpi\n              0x00\n              dup1\n              revert\n            tag_44:\n              pop\n              tag_45\n              0x04\n              dup1\n              calldatasize\n              sub\n              dup2\n              add\n              swap1\n              tag_46\n              swap2\n              swap1\n              tag_47\n              jump\t// in\n            tag_46:\n              tag_48\n              jump\t// in\n            tag_45:\n              stop\n                /* \"Idea.sol\":566:589  uint public numRequests */\n            tag_9:\n              callvalue\n              dup1\n              iszero\n              tag_49\n              jumpi\n              0x00\n              dup1\n              revert\n            tag_49:\n              pop\n              tag_50\n              tag_51\n              jump\t// in\n            tag_50:\n              mload(0x40)\n              tag_52\n              swap2\n              swap1\n              tag_24\n              jump\t// in\n            tag_52:\n              mload(0x40)\n              dup1\n              swap2\n              sub\n              swap1\n              return\n                /* \"Idea.sol\":1003:1503  function contribute() public payable {... */\n            tag_10:\n              tag_53\n              tag_54\n              jump\t// in\n            tag_53:\n              stop\n                /* \"Idea.sol\":1842:2134  function approveRequest(uint index) public {... */\n            tag_11:\n              callvalue\n              dup1\n              iszero\n              tag_55\n              jumpi\n              0x00\n              dup1\n              revert\n            tag_55:\n              pop\n              tag_56\n              0x04\n              dup1\n              calldatasize\n              sub\n              dup2\n              add\n              swap1\n              tag_57\n              swap2\n              swap1\n              tag_16\n              jump\t// in\n            tag_57:\n              tag_58\n              jump\t// in\n            tag_56:\n              stop\n                /* \"Idea.sol\":2140:2431  function finalizeRequest(uint index) public allowOnlyManager {... */\n            tag_17:\n                /* \"Idea.sol\":840:847  manager */\n              0x02\n              0x00\n              swap1\n              sload\n              swap1\n              0x0100\n              exp\n              swap1\n              div\n              0xffffffffffffffffffffffffffffffffffffffff\n              and\n                /* \"Idea.sol\":826:847  msg.sender == manager */\n              0xffffffffffffffffffffffffffffffffffffffff\n              and\n                /* \"Idea.sol\":826:836  msg.sender */\n              caller\n                /* \"Idea.sol\":826:847  msg.sender == manager */\n              0xffffffffffffffffffffffffffffffffffffffff\n              and\n              eq\n                /* \"Idea.sol\":818:848  require(msg.sender == manager) */\n              tag_60\n              jumpi\n              0x00\n              dup1\n              revert\n            tag_60:\n                /* \"Idea.sol\":2211:2234  Request storage request */\n              0x00\n                /* \"Idea.sol\":2237:2245  requests */\n              0x01\n                /* \"Idea.sol\":2237:2252  requests[index] */\n              0x00\n                /* \"Idea.sol\":2246:2251  index */\n              dup4\n                /* \"Idea.sol\":2237:2252  requests[index] */\n              dup2\n              mstore\n              0x20\n              add\n              swap1\n              dup2\n              mstore\n              0x20\n              add\n              0x00\n              keccak256\n                /* \"Idea.sol\":2211:2252  Request storage request = requests[index] */\n              swap1\n              pop\n                /* \"Idea.sol\":2300:2301  2 */\n              0x02\n                /* \"Idea.sol\":2290:2297  credits */\n              sload(0x05)\n                /* \"Idea.sol\":2290:2301  credits / 2 */\n              tag_62\n              swap2\n              swap1\n              tag_63\n              jump\t// in\n            tag_62:\n                /* \"Idea.sol\":2271:2278  request */\n              dup2\n                /* \"Idea.sol\":2271:2286  request.credits */\n              0x03\n              add\n              sload\n                /* \"Idea.sol\":2271:2302  request.credits > (credits / 2) */\n              gt\n                /* \"Idea.sol\":2263:2303  require(request.credits > (credits / 2)) */\n              tag_64\n              jumpi\n              0x00\n              dup1\n              revert\n            tag_64:\n                /* \"Idea.sol\":2322:2329  request */\n              dup1\n                /* \"Idea.sol\":2322:2338  request.complete */\n              0x02\n              add\n              0x14\n              swap1\n              sload\n              swap1\n              0x0100\n              exp\n              swap1\n              div\n              0xff\n              and\n                /* \"Idea.sol\":2321:2338  !request.complete */\n              iszero\n                /* \"Idea.sol\":2313:2339  require(!request.complete) */\n              tag_65\n              jumpi\n              0x00\n              dup1\n              revert\n            tag_65:\n                /* \"Idea.sol\":2350:2357  request */\n              dup1\n                /* \"Idea.sol\":2350:2367  request.recipient */\n              0x02\n              add\n              0x00\n              swap1\n              sload\n              swap1\n              0x0100\n              exp\n              swap1\n              div\n              0xffffffffffffffffffffffffffffffffffffffff\n              and\n                /* \"Idea.sol\":2350:2376  request.recipient.transfer */\n              0xffffffffffffffffffffffffffffffffffffffff\n              and\n                /* \"Idea.sol\":2350:2391  request.recipient.transfer(request.value) */\n              0x08fc\n                /* \"Idea.sol\":2377:2384  request */\n              dup3\n                /* \"Idea.sol\":2377:2390  request.value */\n              0x01\n              add\n              sload\n                /* \"Idea.sol\":2350:2391  request.recipient.transfer(request.value) */\n              swap1\n              dup2\n              iszero\n              mul\n              swap1\n              mload(0x40)\n              0x00\n              mload(0x40)\n              dup1\n              dup4\n              sub\n              dup2\n              dup6\n              dup9\n              dup9\n              call\n              swap4\n              pop\n              pop\n              pop\n              pop\n              iszero\n              dup1\n              iszero\n              tag_67\n              jumpi\n              returndatasize\n              0x00\n              dup1\n              returndatacopy\n              revert(0x00, returndatasize)\n            tag_67:\n              pop\n                /* \"Idea.sol\":2420:2424  true */\n              0x01\n                /* \"Idea.sol\":2401:2408  request */\n              dup2\n                /* \"Idea.sol\":2401:2417  request.complete */\n              0x02\n              add\n              0x14\n                /* \"Idea.sol\":2401:2424  request.complete = true */\n              0x0100\n              exp\n              dup2\n              sload\n              dup2\n              0xff\n              mul\n              not\n              and\n              swap1\n              dup4\n              iszero\n              iszero\n              mul\n              or\n              swap1\n              sstore\n              pop\n                /* \"Idea.sol\":858:859  _ */\n              pop\n                /* \"Idea.sol\":2140:2431  function finalizeRequest(uint index) public allowOnlyManager {... */\n              pop\n              jump\t// out\n                /* \"Idea.sol\":707:748  mapping(address => uint) public approvers */\n            tag_22:\n              mstore(0x20, 0x04)\n              dup1\n              0x00\n              mstore\n              keccak256(0x00, 0x40)\n              0x00\n              swap2\n              pop\n              swap1\n              pop\n              sload\n              dup2\n              jump\t// out\n                /* \"Idea.sol\":754:773  uint public credits */\n            tag_27:\n              sload(0x05)\n              dup2\n              jump\t// out\n                /* \"Idea.sol\":647:669  address public manager */\n            tag_31:\n              0x02\n              0x00\n              swap1\n              sload\n              swap1\n              0x0100\n              exp\n              swap1\n              div\n              0xffffffffffffffffffffffffffffffffffffffff\n              and\n              dup2\n              jump\t// out\n                /* \"Idea.sol\":675:701  uint public oneCreditValue */\n            tag_36:\n              sload(0x03)\n              dup2\n              jump\t// out\n                /* \"Idea.sol\":595:636  mapping (uint => Request) public requests */\n            tag_41:\n              mstore(0x20, 0x01)\n              dup1\n              0x00\n              mstore\n              keccak256(0x00, 0x40)\n              0x00\n              swap2\n              pop\n              swap1\n              pop\n              dup1\n              0x00\n              add\n              dup1\n              sload\n              tag_68\n              swap1\n              tag_69\n              jump\t// in\n            tag_68:\n              dup1\n              0x1f\n              add\n              0x20\n              dup1\n              swap2\n              div\n              mul\n              0x20\n              add\n              mload(0x40)\n              swap1\n              dup2\n              add\n              0x40\n              mstore\n              dup1\n              swap3\n              swap2\n              swap1\n              dup2\n              dup2\n              mstore\n              0x20\n              add\n              dup3\n              dup1\n              sload\n              tag_70\n              swap1\n              tag_69\n              jump\t// in\n            tag_70:\n              dup1\n              iszero\n              tag_71\n              jumpi\n              dup1\n              0x1f\n              lt\n              tag_72\n              jumpi\n              0x0100\n              dup1\n              dup4\n              sload\n              div\n              mul\n              dup4\n              mstore\n              swap2\n              0x20\n              add\n              swap2\n              jump(tag_71)\n            tag_72:\n              dup3\n              add\n              swap2\n              swap1\n              0x00\n              mstore\n              keccak256(0x00, 0x20)\n              swap1\n            tag_73:\n              dup2\n              sload\n              dup2\n              mstore\n              swap1\n              0x01\n              add\n              swap1\n              0x20\n              add\n              dup1\n              dup4\n              gt\n              tag_73\n              jumpi\n              dup3\n              swap1\n              sub\n              0x1f\n              and\n              dup3\n              add\n              swap2\n            tag_71:\n              pop\n              pop\n              pop\n              pop\n              pop\n              swap1\n              dup1\n              0x01\n              add\n              sload\n              swap1\n              dup1\n              0x02\n              add\n              0x00\n              swap1\n              sload\n              swap1\n              0x0100\n              exp\n              swap1\n              div\n              0xffffffffffffffffffffffffffffffffffffffff\n              and\n              swap1\n              dup1\n              0x02\n              add\n              0x14\n              swap1\n              sload\n              swap1\n              0x0100\n              exp\n              swap1\n              div\n              0xff\n              and\n              swap1\n              dup1\n              0x03\n              add\n              sload\n              swap1\n              pop\n              dup6\n              jump\t// out\n                /* \"Idea.sol\":1513:1832  function createRequest(string memory description, uint value, address payable recipient) public allowOnlyManager {... */\n            tag_48:\n                /* \"Idea.sol\":840:847  manager */\n              0x02\n              0x00\n              swap1\n              sload\n              swap1\n              0x0100\n              exp\n              swap1\n              div\n              0xffffffffffffffffffffffffffffffffffffffff\n              and\n                /* \"Idea.sol\":826:847  msg.sender == manager */\n              0xffffffffffffffffffffffffffffffffffffffff\n              and\n                /* \"Idea.sol\":826:836  msg.sender */\n              caller\n                /* \"Idea.sol\":826:847  msg.sender == manager */\n              0xffffffffffffffffffffffffffffffffffffffff\n              and\n              eq\n                /* \"Idea.sol\":818:848  require(msg.sender == manager) */\n              tag_75\n              jumpi\n              0x00\n              dup1\n              revert\n            tag_75:\n                /* \"Idea.sol\":1636:1653  Request storage r */\n              0x00\n                /* \"Idea.sol\":1656:1664  requests */\n              0x01\n                /* \"Idea.sol\":1656:1679  requests[numRequests++] */\n              0x00\n                /* \"Idea.sol\":1665:1676  numRequests */\n              dup1\n              0x00\n                /* \"Idea.sol\":1665:1678  numRequests++ */\n              dup2\n              sload\n              dup1\n              swap3\n              swap2\n              swap1\n              tag_77\n              swap1\n              tag_78\n              jump\t// in\n            tag_77:\n              swap2\n              swap1\n              pop\n              sstore\n                /* \"Idea.sol\":1656:1679  requests[numRequests++] */\n              dup2\n              mstore\n              0x20\n              add\n              swap1\n              dup2\n              mstore\n              0x20\n              add\n              0x00\n              keccak256\n                /* \"Idea.sol\":1636:1679  Request storage r = requests[numRequests++] */\n              swap1\n              pop\n                /* \"Idea.sol\":1705:1716  description */\n              dup4\n                /* \"Idea.sol\":1689:1690  r */\n              dup2\n                /* \"Idea.sol\":1689:1702  r.description */\n              0x00\n              add\n                /* \"Idea.sol\":1689:1716  r.description = description */\n              swap1\n              dup1\n              mload\n              swap1\n              0x20\n              add\n              swap1\n              tag_79\n              swap3\n              swap2\n              swap1\n              tag_80\n              jump\t// in\n            tag_79:\n              pop\n                /* \"Idea.sol\":1736:1741  value */\n              dup3\n                /* \"Idea.sol\":1726:1727  r */\n              dup2\n                /* \"Idea.sol\":1726:1733  r.value */\n              0x01\n              add\n                /* \"Idea.sol\":1726:1741  r.value = value */\n              dup2\n              swap1\n              sstore\n              pop\n                /* \"Idea.sol\":1765:1774  recipient */\n              dup2\n                /* \"Idea.sol\":1751:1752  r */\n              dup2\n                /* \"Idea.sol\":1751:1762  r.recipient */\n              0x02\n              add\n              0x00\n                /* \"Idea.sol\":1751:1774  r.recipient = recipient */\n              0x0100\n              exp\n              dup2\n              sload\n              dup2\n              0xffffffffffffffffffffffffffffffffffffffff\n              mul\n              not\n              and\n              swap1\n              dup4\n              0xffffffffffffffffffffffffffffffffffffffff\n              and\n              mul\n              or\n              swap1\n              sstore\n              pop\n                /* \"Idea.sol\":1797:1802  false */\n              0x00\n                /* \"Idea.sol\":1784:1785  r */\n              dup2\n                /* \"Idea.sol\":1784:1794  r.complete */\n              0x02\n              add\n              0x14\n                /* \"Idea.sol\":1784:1802  r.complete = false */\n              0x0100\n              exp\n              dup2\n              sload\n              dup2\n              0xff\n              mul\n              not\n              and\n              swap1\n              dup4\n              iszero\n              iszero\n              mul\n              or\n              swap1\n              sstore\n              pop\n                /* \"Idea.sol\":1824:1825  0 */\n              0x00\n                /* \"Idea.sol\":1812:1813  r */\n              dup2\n                /* \"Idea.sol\":1812:1821  r.credits */\n              0x03\n              add\n                /* \"Idea.sol\":1812:1825  r.credits = 0 */\n              dup2\n              swap1\n              sstore\n              pop\n                /* \"Idea.sol\":858:859  _ */\n              pop\n                /* \"Idea.sol\":1513:1832  function createRequest(string memory description, uint value, address payable recipient) public allowOnlyManager {... */\n              pop\n              pop\n              pop\n              jump\t// out\n                /* \"Idea.sol\":566:589  uint public numRequests */\n            tag_51:\n              sload(0x00)\n              dup2\n              jump\t// out\n                /* \"Idea.sol\":1003:1503  function contribute() public payable {... */\n            tag_54:\n                /* \"Idea.sol\":1071:1085  oneCreditValue */\n              sload(0x03)\n                /* \"Idea.sol\":1058:1067  msg.value */\n              callvalue\n                /* \"Idea.sol\":1058:1085  msg.value >= oneCreditValue */\n              lt\n              iszero\n                /* \"Idea.sol\":1050:1086  require(msg.value >= oneCreditValue) */\n              tag_82\n              jumpi\n              0x00\n              dup1\n              revert\n            tag_82:\n                /* \"Idea.sol\":1097:1107  uint value */\n              0x00\n                /* \"Idea.sol\":1122:1136  oneCreditValue */\n              sload(0x03)\n                /* \"Idea.sol\":1110:1119  msg.value */\n              callvalue\n                /* \"Idea.sol\":1110:1136  msg.value / oneCreditValue */\n              tag_83\n              swap2\n              swap1\n              tag_63\n              jump\t// in\n            tag_83:\n                /* \"Idea.sol\":1097:1136  uint value = msg.value / oneCreditValue */\n              swap1\n              pop\n                /* \"Idea.sol\":1171:1176  value */\n              dup1\n                /* \"Idea.sol\":1146:1155  approvers */\n              0x04\n                /* \"Idea.sol\":1146:1167  approvers[msg.sender] */\n              0x00\n                /* \"Idea.sol\":1156:1166  msg.sender */\n              caller\n                /* \"Idea.sol\":1146:1167  approvers[msg.sender] */\n              0xffffffffffffffffffffffffffffffffffffffff\n              and\n              0xffffffffffffffffffffffffffffffffffffffff\n              and\n              dup2\n              mstore\n              0x20\n              add\n              swap1\n              dup2\n              mstore\n              0x20\n              add\n              0x00\n              keccak256\n              0x00\n                /* \"Idea.sol\":1146:1176  approvers[msg.sender] += value */\n              dup3\n              dup3\n              sload\n              tag_84\n              swap2\n              swap1\n              tag_85\n              jump\t// in\n            tag_84:\n              swap3\n              pop\n              pop\n              dup2\n              swap1\n              sstore\n              pop\n                /* \"Idea.sol\":1197:1202  value */\n              dup1\n                /* \"Idea.sol\":1186:1193  credits */\n              0x05\n              0x00\n                /* \"Idea.sol\":1186:1202  credits += value */\n              dup3\n              dup3\n              sload\n              tag_86\n              swap2\n              swap1\n              tag_85\n              jump\t// in\n            tag_86:\n              swap3\n              pop\n              pop\n              dup2\n              swap1\n              sstore\n              pop\n                /* \"Idea.sol\":1254:1265  uint change */\n              0x00\n                /* \"Idea.sol\":1280:1294  oneCreditValue */\n              sload(0x03)\n                /* \"Idea.sol\":1268:1277  msg.value */\n              callvalue\n                /* \"Idea.sol\":1268:1294  msg.value % oneCreditValue */\n              tag_87\n              swap2\n              swap1\n              tag_88\n              jump\t// in\n            tag_87:\n                /* \"Idea.sol\":1254:1294  uint change = msg.value % oneCreditValue */\n              swap1\n              pop\n                /* \"Idea.sol\":1374:1375  0 */\n              0x00\n                /* \"Idea.sol\":1364:1370  change */\n              dup2\n                /* \"Idea.sol\":1364:1375  change != 0 */\n              eq\n                /* \"Idea.sol\":1361:1497  if(change != 0) {... */\n              tag_89\n              jumpi\n                /* \"Idea.sol\":1391:1420  address payable senderAddress */\n              0x00\n                /* \"Idea.sol\":1431:1441  msg.sender */\n              caller\n                /* \"Idea.sol\":1391:1442  address payable senderAddress = payable(msg.sender) */\n              swap1\n              pop\n                /* \"Idea.sol\":1456:1469  senderAddress */\n              dup1\n                /* \"Idea.sol\":1456:1478  senderAddress.transfer */\n              0xffffffffffffffffffffffffffffffffffffffff\n              and\n                /* \"Idea.sol\":1456:1486  senderAddress.transfer(change) */\n              0x08fc\n                /* \"Idea.sol\":1479:1485  change */\n              dup4\n                /* \"Idea.sol\":1456:1486  senderAddress.transfer(change) */\n              swap1\n              dup2\n              iszero\n              mul\n              swap1\n              mload(0x40)\n              0x00\n              mload(0x40)\n              dup1\n              dup4\n              sub\n              dup2\n              dup6\n              dup9\n              dup9\n              call\n              swap4\n              pop\n              pop\n              pop\n              pop\n              iszero\n              dup1\n              iszero\n              tag_91\n              jumpi\n              returndatasize\n              0x00\n              dup1\n              returndatacopy\n              revert(0x00, returndatasize)\n            tag_91:\n              pop\n                /* \"Idea.sol\":1361:1497  if(change != 0) {... */\n              pop\n            tag_89:\n                /* \"Idea.sol\":1003:1503  function contribute() public payable {... */\n              pop\n              pop\n              jump\t// out\n                /* \"Idea.sol\":1842:2134  function approveRequest(uint index) public {... */\n            tag_58:\n                /* \"Idea.sol\":1895:1918  Request storage request */\n              0x00\n                /* \"Idea.sol\":1921:1929  requests */\n              0x01\n                /* \"Idea.sol\":1921:1936  requests[index] */\n              0x00\n                /* \"Idea.sol\":1930:1935  index */\n              dup4\n                /* \"Idea.sol\":1921:1936  requests[index] */\n              dup2\n              mstore\n              0x20\n              add\n              swap1\n              dup2\n              mstore\n              0x20\n              add\n              0x00\n              keccak256\n                /* \"Idea.sol\":1895:1936  Request storage request = requests[index] */\n              swap1\n              pop\n                /* \"Idea.sol\":1979:1980  0 */\n              0x00\n                /* \"Idea.sol\":1955:1964  approvers */\n              0x04\n                /* \"Idea.sol\":1955:1976  approvers[msg.sender] */\n              0x00\n                /* \"Idea.sol\":1965:1975  msg.sender */\n              caller\n                /* \"Idea.sol\":1955:1976  approvers[msg.sender] */\n              0xffffffffffffffffffffffffffffffffffffffff\n              and\n              0xffffffffffffffffffffffffffffffffffffffff\n              and\n              dup2\n              mstore\n              0x20\n              add\n              swap1\n              dup2\n              mstore\n              0x20\n              add\n              0x00\n              keccak256\n              sload\n                /* \"Idea.sol\":1955:1980  approvers[msg.sender] > 0 */\n              gt\n                /* \"Idea.sol\":1947:1981  require(approvers[msg.sender] > 0) */\n              tag_93\n              jumpi\n              0x00\n              dup1\n              revert\n            tag_93:\n                /* \"Idea.sol\":2000:2007  request */\n              dup1\n                /* \"Idea.sol\":2000:2017  request.approvals */\n              0x04\n              add\n                /* \"Idea.sol\":2000:2029  request.approvals[msg.sender] */\n              0x00\n                /* \"Idea.sol\":2018:2028  msg.sender */\n              caller\n                /* \"Idea.sol\":2000:2029  request.approvals[msg.sender] */\n              0xffffffffffffffffffffffffffffffffffffffff\n              and\n              0xffffffffffffffffffffffffffffffffffffffff\n              and\n              dup2\n              mstore\n              0x20\n              add\n              swap1\n              dup2\n              mstore\n              0x20\n              add\n              0x00\n              keccak256\n              0x00\n              swap1\n              sload\n              swap1\n              0x0100\n              exp\n              swap1\n              div\n              0xff\n              and\n                /* \"Idea.sol\":1999:2029  !request.approvals[msg.sender] */\n              iszero\n                /* \"Idea.sol\":1991:2030  require(!request.approvals[msg.sender]) */\n              tag_94\n              jumpi\n              0x00\n              dup1\n              revert\n            tag_94:\n                /* \"Idea.sol\":2073:2077  true */\n              0x01\n                /* \"Idea.sol\":2041:2048  request */\n              dup2\n                /* \"Idea.sol\":2041:2058  request.approvals */\n              0x04\n              add\n                /* \"Idea.sol\":2041:2070  request.approvals[msg.sender] */\n              0x00\n                /* \"Idea.sol\":2059:2069  msg.sender */\n              caller\n                /* \"Idea.sol\":2041:2070  request.approvals[msg.sender] */\n              0xffffffffffffffffffffffffffffffffffffffff\n              and\n              0xffffffffffffffffffffffffffffffffffffffff\n              and\n              dup2\n              mstore\n              0x20\n              add\n              swap1\n              dup2\n              mstore\n              0x20\n              add\n              0x00\n              keccak256\n              0x00\n                /* \"Idea.sol\":2041:2077  request.approvals[msg.sender] = true */\n              0x0100\n              exp\n              dup2\n              sload\n              dup2\n              0xff\n              mul\n              not\n              and\n              swap1\n              dup4\n              iszero\n              iszero\n              mul\n              or\n              swap1\n              sstore\n              pop\n                /* \"Idea.sol\":2106:2115  approvers */\n              0x04\n                /* \"Idea.sol\":2106:2127  approvers[msg.sender] */\n              0x00\n                /* \"Idea.sol\":2116:2126  msg.sender */\n              caller\n                /* \"Idea.sol\":2106:2127  approvers[msg.sender] */\n              0xffffffffffffffffffffffffffffffffffffffff\n              and\n              0xffffffffffffffffffffffffffffffffffffffff\n              and\n              dup2\n              mstore\n              0x20\n              add\n              swap1\n              dup2\n              mstore\n              0x20\n              add\n              0x00\n              keccak256\n              sload\n                /* \"Idea.sol\":2087:2094  request */\n              dup2\n                /* \"Idea.sol\":2087:2102  request.credits */\n              0x03\n              add\n              0x00\n                /* \"Idea.sol\":2087:2127  request.credits += approvers[msg.sender] */\n              dup3\n              dup3\n              sload\n              tag_95\n              swap2\n              swap1\n              tag_85\n              jump\t// in\n            tag_95:\n              swap3\n              pop\n              pop\n              dup2\n              swap1\n              sstore\n              pop\n                /* \"Idea.sol\":1842:2134  function approveRequest(uint index) public {... */\n              pop\n              pop\n              jump\t// out\n            tag_80:\n              dup3\n              dup1\n              sload\n              tag_96\n              swap1\n              tag_69\n              jump\t// in\n            tag_96:\n              swap1\n              0x00\n              mstore\n              keccak256(0x00, 0x20)\n              swap1\n              0x1f\n              add\n              0x20\n              swap1\n              div\n              dup2\n              add\n              swap3\n              dup3\n              tag_98\n              jumpi\n              0x00\n              dup6\n              sstore\n              jump(tag_97)\n            tag_98:\n              dup3\n              0x1f\n              lt\n              tag_99\n              jumpi\n              dup1\n              mload\n              not(0xff)\n              and\n              dup4\n              dup1\n              add\n              or\n              dup6\n              sstore\n              jump(tag_97)\n            tag_99:\n              dup3\n              dup1\n              add\n              0x01\n              add\n              dup6\n              sstore\n              dup3\n              iszero\n              tag_97\n              jumpi\n              swap2\n              dup3\n              add\n            tag_100:\n              dup3\n              dup2\n              gt\n              iszero\n              tag_101\n              jumpi\n              dup3\n              mload\n              dup3\n              sstore\n              swap2\n              0x20\n              add\n              swap2\n              swap1\n              0x01\n              add\n              swap1\n              jump(tag_100)\n            tag_101:\n            tag_97:\n              pop\n              swap1\n              pop\n              tag_102\n              swap2\n              swap1\n              tag_103\n              jump\t// in\n            tag_102:\n              pop\n              swap1\n              jump\t// out\n            tag_103:\n            tag_104:\n              dup1\n              dup3\n              gt\n              iszero\n              tag_105\n              jumpi\n              0x00\n              dup2\n              0x00\n              swap1\n              sstore\n              pop\n              0x01\n              add\n              jump(tag_104)\n            tag_105:\n              pop\n              swap1\n              jump\t// out\n                /* \"#utility.yul\":7:352   */\n            tag_107:\n              0x00\n                /* \"#utility.yul\":110:176   */\n              tag_109\n                /* \"#utility.yul\":126:175   */\n              tag_110\n                /* \"#utility.yul\":168:174   */\n              dup5\n                /* \"#utility.yul\":126:175   */\n              tag_111\n              jump\t// in\n            tag_110:\n                /* \"#utility.yul\":110:176   */\n              tag_112\n              jump\t// in\n            tag_109:\n                /* \"#utility.yul\":101:176   */\n              swap1\n              pop\n                /* \"#utility.yul\":199:205   */\n              dup3\n                /* \"#utility.yul\":192:197   */\n              dup2\n                /* \"#utility.yul\":185:206   */\n              mstore\n                /* \"#utility.yul\":237:241   */\n              0x20\n                /* \"#utility.yul\":230:235   */\n              dup2\n                /* \"#utility.yul\":226:242   */\n              add\n                /* \"#utility.yul\":275:278   */\n              dup5\n                /* \"#utility.yul\":266:272   */\n              dup5\n                /* \"#utility.yul\":261:264   */\n              dup5\n                /* \"#utility.yul\":257:273   */\n              add\n                /* \"#utility.yul\":254:279   */\n              gt\n                /* \"#utility.yul\":251:253   */\n              iszero\n              tag_113\n              jumpi\n                /* \"#utility.yul\":292:293   */\n              0x00\n                /* \"#utility.yul\":289:290   */\n              dup1\n                /* \"#utility.yul\":282:294   */\n              revert\n                /* \"#utility.yul\":251:253   */\n            tag_113:\n                /* \"#utility.yul\":305:346   */\n              tag_114\n                /* \"#utility.yul\":339:345   */\n              dup5\n                /* \"#utility.yul\":334:337   */\n              dup3\n                /* \"#utility.yul\":329:332   */\n              dup6\n                /* \"#utility.yul\":305:346   */\n              tag_115\n              jump\t// in\n            tag_114:\n                /* \"#utility.yul\":91:352   */\n              pop\n              swap4\n              swap3\n              pop\n              pop\n              pop\n              jump\t// out\n                /* \"#utility.yul\":358:497   */\n            tag_116:\n              0x00\n                /* \"#utility.yul\":442:448   */\n              dup2\n                /* \"#utility.yul\":429:449   */\n              calldataload\n                /* \"#utility.yul\":420:449   */\n              swap1\n              pop\n                /* \"#utility.yul\":458:491   */\n              tag_118\n                /* \"#utility.yul\":485:490   */\n              dup2\n                /* \"#utility.yul\":458:491   */\n              tag_119\n              jump\t// in\n            tag_118:\n                /* \"#utility.yul\":410:497   */\n              swap3\n              swap2\n              pop\n              pop\n              jump\t// out\n                /* \"#utility.yul\":503:658   */\n            tag_120:\n              0x00\n                /* \"#utility.yul\":595:601   */\n              dup2\n                /* \"#utility.yul\":582:602   */\n              calldataload\n                /* \"#utility.yul\":573:602   */\n              swap1\n              pop\n                /* \"#utility.yul\":611:652   */\n              tag_122\n                /* \"#utility.yul\":646:651   */\n              dup2\n                /* \"#utility.yul\":611:652   */\n              tag_123\n              jump\t// in\n            tag_122:\n                /* \"#utility.yul\":563:658   */\n              swap3\n              swap2\n              pop\n              pop\n              jump\t// out\n                /* \"#utility.yul\":678:951   */\n            tag_124:\n              0x00\n                /* \"#utility.yul\":783:786   */\n              dup3\n                /* \"#utility.yul\":776:780   */\n              0x1f\n                /* \"#utility.yul\":768:774   */\n              dup4\n                /* \"#utility.yul\":764:781   */\n              add\n                /* \"#utility.yul\":760:787   */\n              slt\n                /* \"#utility.yul\":750:752   */\n              tag_126\n              jumpi\n                /* \"#utility.yul\":801:802   */\n              0x00\n                /* \"#utility.yul\":798:799   */\n              dup1\n                /* \"#utility.yul\":791:803   */\n              revert\n                /* \"#utility.yul\":750:752   */\n            tag_126:\n                /* \"#utility.yul\":841:847   */\n              dup2\n                /* \"#utility.yul\":828:848   */\n              calldataload\n                /* \"#utility.yul\":866:945   */\n              tag_127\n                /* \"#utility.yul\":941:944   */\n              dup5\n                /* \"#utility.yul\":933:939   */\n              dup3\n                /* \"#utility.yul\":926:930   */\n              0x20\n                /* \"#utility.yul\":918:924   */\n              dup7\n                /* \"#utility.yul\":914:931   */\n              add\n                /* \"#utility.yul\":866:945   */\n              tag_107\n              jump\t// in\n            tag_127:\n                /* \"#utility.yul\":857:945   */\n              swap2\n              pop\n                /* \"#utility.yul\":740:951   */\n              pop\n              swap3\n              swap2\n              pop\n              pop\n              jump\t// out\n                /* \"#utility.yul\":957:1096   */\n            tag_128:\n              0x00\n                /* \"#utility.yul\":1041:1047   */\n              dup2\n                /* \"#utility.yul\":1028:1048   */\n              calldataload\n                /* \"#utility.yul\":1019:1048   */\n              swap1\n              pop\n                /* \"#utility.yul\":1057:1090   */\n              tag_130\n                /* \"#utility.yul\":1084:1089   */\n              dup2\n                /* \"#utility.yul\":1057:1090   */\n              tag_131\n              jump\t// in\n            tag_130:\n                /* \"#utility.yul\":1009:1096   */\n              swap3\n              swap2\n              pop\n              pop\n              jump\t// out\n                /* \"#utility.yul\":1102:1364   */\n            tag_21:\n              0x00\n                /* \"#utility.yul\":1210:1212   */\n              0x20\n                /* \"#utility.yul\":1198:1207   */\n              dup3\n                /* \"#utility.yul\":1189:1196   */\n              dup5\n                /* \"#utility.yul\":1185:1208   */\n              sub\n                /* \"#utility.yul\":1181:1213   */\n              slt\n                /* \"#utility.yul\":1178:1180   */\n              iszero\n              tag_133\n              jumpi\n                /* \"#utility.yul\":1226:1227   */\n              0x00\n                /* \"#utility.yul\":1223:1224   */\n              dup1\n                /* \"#utility.yul\":1216:1228   */\n              revert\n                /* \"#utility.yul\":1178:1180   */\n            tag_133:\n                /* \"#utility.yul\":1269:1270   */\n              0x00\n                /* \"#utility.yul\":1294:1347   */\n              tag_134\n                /* \"#utility.yul\":1339:1346   */\n              dup5\n                /* \"#utility.yul\":1330:1336   */\n              dup3\n                /* \"#utility.yul\":1319:1328   */\n              dup6\n                /* \"#utility.yul\":1315:1337   */\n              add\n                /* \"#utility.yul\":1294:1347   */\n              tag_116\n              jump\t// in\n            tag_134:\n                /* \"#utility.yul\":1284:1347   */\n              swap2\n              pop\n                /* \"#utility.yul\":1240:1357   */\n              pop\n                /* \"#utility.yul\":1168:1364   */\n              swap3\n              swap2\n              pop\n              pop\n              jump\t// out\n                /* \"#utility.yul\":1370:2051   */\n            tag_47:\n              0x00\n              dup1\n              0x00\n                /* \"#utility.yul\":1530:1532   */\n              0x60\n                /* \"#utility.yul\":1518:1527   */\n              dup5\n                /* \"#utility.yul\":1509:1516   */\n              dup7\n                /* \"#utility.yul\":1505:1528   */\n              sub\n                /* \"#utility.yul\":1501:1533   */\n              slt\n                /* \"#utility.yul\":1498:1500   */\n              iszero\n              tag_136\n              jumpi\n                /* \"#utility.yul\":1546:1547   */\n              0x00\n                /* \"#utility.yul\":1543:1544   */\n              dup1\n                /* \"#utility.yul\":1536:1548   */\n              revert\n                /* \"#utility.yul\":1498:1500   */\n            tag_136:\n                /* \"#utility.yul\":1617:1618   */\n              0x00\n                /* \"#utility.yul\":1606:1615   */\n              dup5\n                /* \"#utility.yul\":1602:1619   */\n              add\n                /* \"#utility.yul\":1589:1620   */\n              calldataload\n                /* \"#utility.yul\":1647:1665   */\n              0xffffffffffffffff\n                /* \"#utility.yul\":1639:1645   */\n              dup2\n                /* \"#utility.yul\":1636:1666   */\n              gt\n                /* \"#utility.yul\":1633:1635   */\n              iszero\n              tag_137\n              jumpi\n                /* \"#utility.yul\":1679:1680   */\n              0x00\n                /* \"#utility.yul\":1676:1677   */\n              dup1\n                /* \"#utility.yul\":1669:1681   */\n              revert\n                /* \"#utility.yul\":1633:1635   */\n            tag_137:\n                /* \"#utility.yul\":1707:1770   */\n              tag_138\n                /* \"#utility.yul\":1762:1769   */\n              dup7\n                /* \"#utility.yul\":1753:1759   */\n              dup3\n                /* \"#utility.yul\":1742:1751   */\n              dup8\n                /* \"#utility.yul\":1738:1760   */\n              add\n                /* \"#utility.yul\":1707:1770   */\n              tag_124\n              jump\t// in\n            tag_138:\n                /* \"#utility.yul\":1697:1770   */\n              swap4\n              pop\n                /* \"#utility.yul\":1560:1780   */\n              pop\n                /* \"#utility.yul\":1819:1821   */\n              0x20\n                /* \"#utility.yul\":1845:1898   */\n              tag_139\n                /* \"#utility.yul\":1890:1897   */\n              dup7\n                /* \"#utility.yul\":1881:1887   */\n              dup3\n                /* \"#utility.yul\":1870:1879   */\n              dup8\n                /* \"#utility.yul\":1866:1888   */\n              add\n                /* \"#utility.yul\":1845:1898   */\n              tag_128\n              jump\t// in\n            tag_139:\n                /* \"#utility.yul\":1835:1898   */\n              swap3\n              pop\n                /* \"#utility.yul\":1790:1908   */\n              pop\n                /* \"#utility.yul\":1947:1949   */\n              0x40\n                /* \"#utility.yul\":1973:2034   */\n              tag_140\n                /* \"#utility.yul\":2026:2033   */\n              dup7\n                /* \"#utility.yul\":2017:2023   */\n              dup3\n                /* \"#utility.yul\":2006:2015   */\n              dup8\n                /* \"#utility.yul\":2002:2024   */\n              add\n                /* \"#utility.yul\":1973:2034   */\n              tag_120\n              jump\t// in\n            tag_140:\n                /* \"#utility.yul\":1963:2034   */\n              swap2\n              pop\n                /* \"#utility.yul\":1918:2044   */\n              pop\n                /* \"#utility.yul\":1488:2051   */\n              swap3\n              pop\n              swap3\n              pop\n              swap3\n              jump\t// out\n                /* \"#utility.yul\":2057:2319   */\n            tag_16:\n              0x00\n                /* \"#utility.yul\":2165:2167   */\n              0x20\n                /* \"#utility.yul\":2153:2162   */\n              dup3\n                /* \"#utility.yul\":2144:2151   */\n              dup5\n                /* \"#utility.yul\":2140:2163   */\n              sub\n                /* \"#utility.yul\":2136:2168   */\n              slt\n                /* \"#utility.yul\":2133:2135   */\n              iszero\n              tag_142\n              jumpi\n                /* \"#utility.yul\":2181:2182   */\n              0x00\n                /* \"#utility.yul\":2178:2179   */\n              dup1\n                /* \"#utility.yul\":2171:2183   */\n              revert\n                /* \"#utility.yul\":2133:2135   */\n            tag_142:\n                /* \"#utility.yul\":2224:2225   */\n              0x00\n                /* \"#utility.yul\":2249:2302   */\n              tag_143\n                /* \"#utility.yul\":2294:2301   */\n              dup5\n                /* \"#utility.yul\":2285:2291   */\n              dup3\n                /* \"#utility.yul\":2274:2283   */\n              dup6\n                /* \"#utility.yul\":2270:2292   */\n              add\n                /* \"#utility.yul\":2249:2302   */\n              tag_128\n              jump\t// in\n            tag_143:\n                /* \"#utility.yul\":2239:2302   */\n              swap2\n              pop\n                /* \"#utility.yul\":2195:2312   */\n              pop\n                /* \"#utility.yul\":2123:2319   */\n              swap3\n              swap2\n              pop\n              pop\n              jump\t// out\n                /* \"#utility.yul\":2325:2467   */\n            tag_144:\n                /* \"#utility.yul\":2428:2460   */\n              tag_146\n                /* \"#utility.yul\":2454:2459   */\n              dup2\n                /* \"#utility.yul\":2428:2460   */\n              tag_147\n              jump\t// in\n            tag_146:\n                /* \"#utility.yul\":2423:2426   */\n              dup3\n                /* \"#utility.yul\":2416:2461   */\n              mstore\n                /* \"#utility.yul\":2406:2467   */\n              pop\n              pop\n              jump\t// out\n                /* \"#utility.yul\":2473:2591   */\n            tag_148:\n                /* \"#utility.yul\":2560:2584   */\n              tag_150\n                /* \"#utility.yul\":2578:2583   */\n              dup2\n                /* \"#utility.yul\":2560:2584   */\n              tag_151\n              jump\t// in\n            tag_150:\n                /* \"#utility.yul\":2555:2558   */\n              dup3\n                /* \"#utility.yul\":2548:2585   */\n              mstore\n                /* \"#utility.yul\":2538:2591   */\n              pop\n              pop\n              jump\t// out\n                /* \"#utility.yul\":2597:2706   */\n            tag_152:\n                /* \"#utility.yul\":2678:2699   */\n              tag_154\n                /* \"#utility.yul\":2693:2698   */\n              dup2\n                /* \"#utility.yul\":2678:2699   */\n              tag_155\n              jump\t// in\n            tag_154:\n                /* \"#utility.yul\":2673:2676   */\n              dup3\n                /* \"#utility.yul\":2666:2700   */\n              mstore\n                /* \"#utility.yul\":2656:2706   */\n              pop\n              pop\n              jump\t// out\n                /* \"#utility.yul\":2712:3076   */\n            tag_156:\n              0x00\n                /* \"#utility.yul\":2828:2867   */\n              tag_158\n                /* \"#utility.yul\":2861:2866   */\n              dup3\n                /* \"#utility.yul\":2828:2867   */\n              tag_159\n              jump\t// in\n            tag_158:\n                /* \"#utility.yul\":2883:2954   */\n              tag_160\n                /* \"#utility.yul\":2947:2953   */\n              dup2\n                /* \"#utility.yul\":2942:2945   */\n              dup6\n                /* \"#utility.yul\":2883:2954   */\n              tag_161\n              jump\t// in\n            tag_160:\n                /* \"#utility.yul\":2876:2954   */\n              swap4\n              pop\n                /* \"#utility.yul\":2963:3015   */\n              tag_162\n                /* \"#utility.yul\":3008:3014   */\n              dup2\n                /* \"#utility.yul\":3003:3006   */\n              dup6\n                /* \"#utility.yul\":2996:3000   */\n              0x20\n                /* \"#utility.yul\":2989:2994   */\n              dup7\n                /* \"#utility.yul\":2985:3001   */\n              add\n                /* \"#utility.yul\":2963:3015   */\n              tag_163\n              jump\t// in\n            tag_162:\n                /* \"#utility.yul\":3040:3069   */\n              tag_164\n                /* \"#utility.yul\":3062:3068   */\n              dup2\n                /* \"#utility.yul\":3040:3069   */\n              tag_165\n              jump\t// in\n            tag_164:\n                /* \"#utility.yul\":3035:3038   */\n              dup5\n                /* \"#utility.yul\":3031:3070   */\n              add\n                /* \"#utility.yul\":3024:3070   */\n              swap2\n              pop\n                /* \"#utility.yul\":2804:3076   */\n              pop\n              swap3\n              swap2\n              pop\n              pop\n              jump\t// out\n                /* \"#utility.yul\":3082:3200   */\n            tag_166:\n                /* \"#utility.yul\":3169:3193   */\n              tag_168\n                /* \"#utility.yul\":3187:3192   */\n              dup2\n                /* \"#utility.yul\":3169:3193   */\n              tag_169\n              jump\t// in\n            tag_168:\n                /* \"#utility.yul\":3164:3167   */\n              dup3\n                /* \"#utility.yul\":3157:3194   */\n              mstore\n                /* \"#utility.yul\":3147:3200   */\n              pop\n              pop\n              jump\t// out\n                /* \"#utility.yul\":3206:3428   */\n            tag_33:\n              0x00\n                /* \"#utility.yul\":3337:3339   */\n              0x20\n                /* \"#utility.yul\":3326:3335   */\n              dup3\n                /* \"#utility.yul\":3322:3340   */\n              add\n                /* \"#utility.yul\":3314:3340   */\n              swap1\n              pop\n                /* \"#utility.yul\":3350:3421   */\n              tag_171\n                /* \"#utility.yul\":3418:3419   */\n              0x00\n                /* \"#utility.yul\":3407:3416   */\n              dup4\n                /* \"#utility.yul\":3403:3420   */\n              add\n                /* \"#utility.yul\":3394:3400   */\n              dup5\n                /* \"#utility.yul\":3350:3421   */\n              tag_148\n              jump\t// in\n            tag_171:\n                /* \"#utility.yul\":3304:3428   */\n              swap3\n              swap2\n              pop\n              pop\n              jump\t// out\n                /* \"#utility.yul\":3434:4209   */\n            tag_43:\n              0x00\n                /* \"#utility.yul\":3707:3710   */\n              0xa0\n                /* \"#utility.yul\":3696:3705   */\n              dup3\n                /* \"#utility.yul\":3692:3711   */\n              add\n                /* \"#utility.yul\":3684:3711   */\n              swap1\n              pop\n                /* \"#utility.yul\":3757:3766   */\n              dup2\n                /* \"#utility.yul\":3751:3755   */\n              dup2\n                /* \"#utility.yul\":3747:3767   */\n              sub\n                /* \"#utility.yul\":3743:3744   */\n              0x00\n                /* \"#utility.yul\":3732:3741   */\n              dup4\n                /* \"#utility.yul\":3728:3745   */\n              add\n                /* \"#utility.yul\":3721:3768   */\n              mstore\n                /* \"#utility.yul\":3785:3863   */\n              tag_173\n                /* \"#utility.yul\":3858:3862   */\n              dup2\n                /* \"#utility.yul\":3849:3855   */\n              dup9\n                /* \"#utility.yul\":3785:3863   */\n              tag_156\n              jump\t// in\n            tag_173:\n                /* \"#utility.yul\":3777:3863   */\n              swap1\n              pop\n                /* \"#utility.yul\":3873:3945   */\n              tag_174\n                /* \"#utility.yul\":3941:3943   */\n              0x20\n                /* \"#utility.yul\":3930:3939   */\n              dup4\n                /* \"#utility.yul\":3926:3944   */\n              add\n                /* \"#utility.yul\":3917:3923   */\n              dup8\n                /* \"#utility.yul\":3873:3945   */\n              tag_166\n              jump\t// in\n            tag_174:\n                /* \"#utility.yul\":3955:4043   */\n              tag_175\n                /* \"#utility.yul\":4039:4041   */\n              0x40\n                /* \"#utility.yul\":4028:4037   */\n              dup4\n                /* \"#utility.yul\":4024:4042   */\n              add\n                /* \"#utility.yul\":4015:4021   */\n              dup7\n                /* \"#utility.yul\":3955:4043   */\n              tag_144\n              jump\t// in\n            tag_175:\n                /* \"#utility.yul\":4053:4119   */\n              tag_176\n                /* \"#utility.yul\":4115:4117   */\n              0x60\n                /* \"#utility.yul\":4104:4113   */\n              dup4\n                /* \"#utility.yul\":4100:4118   */\n              add\n                /* \"#utility.yul\":4091:4097   */\n              dup6\n                /* \"#utility.yul\":4053:4119   */\n              tag_152\n              jump\t// in\n            tag_176:\n                /* \"#utility.yul\":4129:4202   */\n              tag_177\n                /* \"#utility.yul\":4197:4200   */\n              0x80\n                /* \"#utility.yul\":4186:4195   */\n              dup4\n                /* \"#utility.yul\":4182:4201   */\n              add\n                /* \"#utility.yul\":4173:4179   */\n              dup5\n                /* \"#utility.yul\":4129:4202   */\n              tag_166\n              jump\t// in\n            tag_177:\n                /* \"#utility.yul\":3674:4209   */\n              swap7\n              swap6\n              pop\n              pop\n              pop\n              pop\n              pop\n              pop\n              jump\t// out\n                /* \"#utility.yul\":4215:4437   */\n            tag_24:\n              0x00\n                /* \"#utility.yul\":4346:4348   */\n              0x20\n                /* \"#utility.yul\":4335:4344   */\n              dup3\n                /* \"#utility.yul\":4331:4349   */\n              add\n                /* \"#utility.yul\":4323:4349   */\n              swap1\n              pop\n                /* \"#utility.yul\":4359:4430   */\n              tag_179\n                /* \"#utility.yul\":4427:4428   */\n              0x00\n                /* \"#utility.yul\":4416:4425   */\n              dup4\n                /* \"#utility.yul\":4412:4429   */\n              add\n                /* \"#utility.yul\":4403:4409   */\n              dup5\n                /* \"#utility.yul\":4359:4430   */\n              tag_166\n              jump\t// in\n            tag_179:\n                /* \"#utility.yul\":4313:4437   */\n              swap3\n              swap2\n              pop\n              pop\n              jump\t// out\n                /* \"#utility.yul\":4443:4572   */\n            tag_112:\n              0x00\n                /* \"#utility.yul\":4504:4524   */\n              tag_181\n              tag_182\n              jump\t// in\n            tag_181:\n                /* \"#utility.yul\":4494:4524   */\n              swap1\n              pop\n                /* \"#utility.yul\":4533:4566   */\n              tag_183\n                /* \"#utility.yul\":4561:4565   */\n              dup3\n                /* \"#utility.yul\":4553:4559   */\n              dup3\n                /* \"#utility.yul\":4533:4566   */\n              tag_184\n              jump\t// in\n            tag_183:\n                /* \"#utility.yul\":4484:4572   */\n              swap2\n              swap1\n              pop\n              jump\t// out\n                /* \"#utility.yul\":4578:4653   */\n            tag_182:\n              0x00\n                /* \"#utility.yul\":4644:4646   */\n              0x40\n                /* \"#utility.yul\":4638:4647   */\n              mload\n                /* \"#utility.yul\":4628:4647   */\n              swap1\n              pop\n                /* \"#utility.yul\":4618:4653   */\n              swap1\n              jump\t// out\n                /* \"#utility.yul\":4659:4967   */\n            tag_111:\n              0x00\n                /* \"#utility.yul\":4811:4829   */\n              0xffffffffffffffff\n                /* \"#utility.yul\":4803:4809   */\n              dup3\n                /* \"#utility.yul\":4800:4830   */\n              gt\n                /* \"#utility.yul\":4797:4799   */\n              iszero\n              tag_187\n              jumpi\n                /* \"#utility.yul\":4833:4851   */\n              tag_188\n              tag_189\n              jump\t// in\n            tag_188:\n                /* \"#utility.yul\":4797:4799   */\n            tag_187:\n                /* \"#utility.yul\":4871:4900   */\n              tag_190\n                /* \"#utility.yul\":4893:4899   */\n              dup3\n                /* \"#utility.yul\":4871:4900   */\n              tag_165\n              jump\t// in\n            tag_190:\n                /* \"#utility.yul\":4863:4900   */\n              swap1\n              pop\n                /* \"#utility.yul\":4955:4959   */\n              0x20\n                /* \"#utility.yul\":4949:4953   */\n              dup2\n                /* \"#utility.yul\":4945:4960   */\n              add\n                /* \"#utility.yul\":4937:4960   */\n              swap1\n              pop\n                /* \"#utility.yul\":4726:4967   */\n              swap2\n              swap1\n              pop\n              jump\t// out\n                /* \"#utility.yul\":4973:5072   */\n            tag_159:\n              0x00\n                /* \"#utility.yul\":5059:5064   */\n              dup2\n                /* \"#utility.yul\":5053:5065   */\n              mload\n                /* \"#utility.yul\":5043:5065   */\n              swap1\n              pop\n                /* \"#utility.yul\":5032:5072   */\n              swap2\n              swap1\n              pop\n              jump\t// out\n                /* \"#utility.yul\":5078:5247   */\n            tag_161:\n              0x00\n                /* \"#utility.yul\":5196:5202   */\n              dup3\n                /* \"#utility.yul\":5191:5194   */\n              dup3\n                /* \"#utility.yul\":5184:5203   */\n              mstore\n                /* \"#utility.yul\":5236:5240   */\n              0x20\n                /* \"#utility.yul\":5231:5234   */\n              dup3\n                /* \"#utility.yul\":5227:5241   */\n              add\n                /* \"#utility.yul\":5212:5241   */\n              swap1\n              pop\n                /* \"#utility.yul\":5174:5247   */\n              swap3\n              swap2\n              pop\n              pop\n              jump\t// out\n                /* \"#utility.yul\":5253:5558   */\n            tag_85:\n              0x00\n                /* \"#utility.yul\":5312:5332   */\n              tag_194\n                /* \"#utility.yul\":5330:5331   */\n              dup3\n                /* \"#utility.yul\":5312:5332   */\n              tag_169\n              jump\t// in\n            tag_194:\n                /* \"#utility.yul\":5307:5332   */\n              swap2\n              pop\n                /* \"#utility.yul\":5346:5366   */\n              tag_195\n                /* \"#utility.yul\":5364:5365   */\n              dup4\n                /* \"#utility.yul\":5346:5366   */\n              tag_169\n              jump\t// in\n            tag_195:\n                /* \"#utility.yul\":5341:5366   */\n              swap3\n              pop\n                /* \"#utility.yul\":5500:5501   */\n              dup3\n                /* \"#utility.yul\":5432:5498   */\n              0xffffffffffffffffffffffffffffffffffffffffffffffffffffffffffffffff\n                /* \"#utility.yul\":5428:5502   */\n              sub\n                /* \"#utility.yul\":5425:5426   */\n              dup3\n                /* \"#utility.yul\":5422:5503   */\n              gt\n                /* \"#utility.yul\":5419:5421   */\n              iszero\n              tag_196\n              jumpi\n                /* \"#utility.yul\":5506:5524   */\n              tag_197\n              tag_198\n              jump\t// in\n            tag_197:\n                /* \"#utility.yul\":5419:5421   */\n            tag_196:\n                /* \"#utility.yul\":5550:5551   */\n              dup3\n                /* \"#utility.yul\":5547:5548   */\n              dup3\n                /* \"#utility.yul\":5543:5552   */\n              add\n                /* \"#utility.yul\":5536:5552   */\n              swap1\n              pop\n                /* \"#utility.yul\":5297:5558   */\n              swap3\n              swap2\n              pop\n              pop\n              jump\t// out\n                /* \"#utility.yul\":5564:5749   */\n            tag_63:\n              0x00\n                /* \"#utility.yul\":5621:5641   */\n              tag_200\n                /* \"#utility.yul\":5639:5640   */\n              dup3\n                /* \"#utility.yul\":5621:5641   */\n              tag_169\n              jump\t// in\n            tag_200:\n                /* \"#utility.yul\":5616:5641   */\n              swap2\n              pop\n                /* \"#utility.yul\":5655:5675   */\n              tag_201\n                /* \"#utility.yul\":5673:5674   */\n              dup4\n                /* \"#utility.yul\":5655:5675   */\n              tag_169\n              jump\t// in\n            tag_201:\n                /* \"#utility.yul\":5650:5675   */\n              swap3\n              pop\n                /* \"#utility.yul\":5694:5695   */\n              dup3\n                /* \"#utility.yul\":5684:5686   */\n              tag_202\n              jumpi\n                /* \"#utility.yul\":5699:5717   */\n              tag_203\n              tag_204\n              jump\t// in\n            tag_203:\n                /* \"#utility.yul\":5684:5686   */\n            tag_202:\n                /* \"#utility.yul\":5741:5742   */\n              dup3\n                /* \"#utility.yul\":5738:5739   */\n              dup3\n                /* \"#utility.yul\":5734:5743   */\n              div\n                /* \"#utility.yul\":5729:5743   */\n              swap1\n              pop\n                /* \"#utility.yul\":5606:5749   */\n              swap3\n              swap2\n              pop\n              pop\n              jump\t// out\n                /* \"#utility.yul\":5755:5851   */\n            tag_151:\n              0x00\n                /* \"#utility.yul\":5821:5845   */\n              tag_206\n                /* \"#utility.yul\":5839:5844   */\n              dup3\n                /* \"#utility.yul\":5821:5845   */\n              tag_207\n              jump\t// in\n            tag_206:\n                /* \"#utility.yul\":5810:5845   */\n              swap1\n              pop\n                /* \"#utility.yul\":5800:5851   */\n              swap2\n              swap1\n              pop\n              jump\t// out\n                /* \"#utility.yul\":5857:5961   */\n            tag_147:\n              0x00\n                /* \"#utility.yul\":5931:5955   */\n              tag_209\n                /* \"#utility.yul\":5949:5954   */\n              dup3\n                /* \"#utility.yul\":5931:5955   */\n              tag_207\n              jump\t// in\n            tag_209:\n                /* \"#utility.yul\":5920:5955   */\n              swap1\n              pop\n                /* \"#utility.yul\":5910:5961   */\n              swap2\n              swap1\n              pop\n              jump\t// out\n                /* \"#utility.yul\":5967:6057   */\n            tag_155:\n              0x00\n                /* \"#utility.yul\":6044:6049   */\n              dup2\n                /* \"#utility.yul\":6037:6050   */\n              iszero\n                /* \"#utility.yul\":6030:6051   */\n              iszero\n                /* \"#utility.yul\":6019:6051   */\n              swap1\n              pop\n                /* \"#utility.yul\":6009:6057   */\n              swap2\n              swap1\n              pop\n              jump\t// out\n                /* \"#utility.yul\":6063:6189   */\n            tag_207:\n              0x00\n                /* \"#utility.yul\":6140:6182   */\n              0xffffffffffffffffffffffffffffffffffffffff\n                /* \"#utility.yul\":6133:6138   */\n              dup3\n                /* \"#utility.yul\":6129:6183   */\n              and\n                /* \"#utility.yul\":6118:6183   */\n              swap1\n              pop\n                /* \"#utility.yul\":6108:6189   */\n              swap2\n              swap1\n              pop\n              jump\t// out\n                /* \"#utility.yul\":6195:6272   */\n            tag_169:\n              0x00\n                /* \"#utility.yul\":6261:6266   */\n              dup2\n                /* \"#utility.yul\":6250:6266   */\n              swap1\n              pop\n                /* \"#utility.yul\":6240:6272   */\n              swap2\n              swap1\n              pop\n              jump\t// out\n                /* \"#utility.yul\":6278:6432   */\n            tag_115:\n                /* \"#utility.yul\":6362:6368   */\n              dup3\n                /* \"#utility.yul\":6357:6360   */\n              dup2\n                /* \"#utility.yul\":6352:6355   */\n              dup4\n                /* \"#utility.yul\":6339:6369   */\n              calldatacopy\n                /* \"#utility.yul\":6424:6425   */\n              0x00\n                /* \"#utility.yul\":6415:6421   */\n              dup4\n                /* \"#utility.yul\":6410:6413   */\n              dup4\n                /* \"#utility.yul\":6406:6422   */\n              add\n                /* \"#utility.yul\":6399:6426   */\n              mstore\n                /* \"#utility.yul\":6329:6432   */\n              pop\n              pop\n              pop\n              jump\t// out\n                /* \"#utility.yul\":6438:6745   */\n            tag_163:\n                /* \"#utility.yul\":6506:6507   */\n              0x00\n                /* \"#utility.yul\":6516:6629   */\n            tag_215:\n                /* \"#utility.yul\":6530:6536   */\n              dup4\n                /* \"#utility.yul\":6527:6528   */\n              dup2\n                /* \"#utility.yul\":6524:6537   */\n              lt\n                /* \"#utility.yul\":6516:6629   */\n              iszero\n              tag_217\n              jumpi\n                /* \"#utility.yul\":6615:6616   */\n              dup1\n                /* \"#utility.yul\":6610:6613   */\n              dup3\n                /* \"#utility.yul\":6606:6617   */\n              add\n                /* \"#utility.yul\":6600:6618   */\n              mload\n                /* \"#utility.yul\":6596:6597   */\n              dup2\n                /* \"#utility.yul\":6591:6594   */\n              dup5\n                /* \"#utility.yul\":6587:6598   */\n              add\n                /* \"#utility.yul\":6580:6619   */\n              mstore\n                /* \"#utility.yul\":6552:6554   */\n              0x20\n                /* \"#utility.yul\":6549:6550   */\n              dup2\n                /* \"#utility.yul\":6545:6555   */\n              add\n                /* \"#utility.yul\":6540:6555   */\n              swap1\n              pop\n                /* \"#utility.yul\":6516:6629   */\n              jump(tag_215)\n            tag_217:\n                /* \"#utility.yul\":6647:6653   */\n              dup4\n                /* \"#utility.yul\":6644:6645   */\n              dup2\n                /* \"#utility.yul\":6641:6654   */\n              gt\n                /* \"#utility.yul\":6638:6640   */\n              iszero\n              tag_218\n              jumpi\n                /* \"#utility.yul\":6727:6728   */\n              0x00\n                /* \"#utility.yul\":6718:6724   */\n              dup5\n                /* \"#utility.yul\":6713:6716   */\n              dup5\n                /* \"#utility.yul\":6709:6725   */\n              add\n                /* \"#utility.yul\":6702:6729   */\n              mstore\n                /* \"#utility.yul\":6638:6640   */\n            tag_218:\n                /* \"#utility.yul\":6487:6745   */\n              pop\n              pop\n              pop\n              pop\n              jump\t// out\n                /* \"#utility.yul\":6751:7071   */\n            tag_69:\n              0x00\n                /* \"#utility.yul\":6832:6833   */\n              0x02\n                /* \"#utility.yul\":6826:6830   */\n              dup3\n                /* \"#utility.yul\":6822:6834   */\n              div\n                /* \"#utility.yul\":6812:6834   */\n              swap1\n              pop\n                /* \"#utility.yul\":6879:6880   */\n              0x01\n                /* \"#utility.yul\":6873:6877   */\n              dup3\n                /* \"#utility.yul\":6869:6881   */\n              and\n                /* \"#utility.yul\":6900:6918   */\n              dup1\n                /* \"#utility.yul\":6890:6892   */\n              tag_220\n              jumpi\n                /* \"#utility.yul\":6956:6960   */\n              0x7f\n                /* \"#utility.yul\":6948:6954   */\n              dup3\n                /* \"#utility.yul\":6944:6961   */\n              and\n                /* \"#utility.yul\":6934:6961   */\n              swap2\n              pop\n                /* \"#utility.yul\":6890:6892   */\n            tag_220:\n                /* \"#utility.yul\":7018:7020   */\n              0x20\n                /* \"#utility.yul\":7010:7016   */\n              dup3\n                /* \"#utility.yul\":7007:7021   */\n              lt\n                /* \"#utility.yul\":6987:7005   */\n              dup2\n                /* \"#utility.yul\":6984:7022   */\n              eq\n                /* \"#utility.yul\":6981:6983   */\n              iszero\n              tag_221\n              jumpi\n                /* \"#utility.yul\":7037:7055   */\n              tag_222\n              tag_223\n              jump\t// in\n            tag_222:\n                /* \"#utility.yul\":6981:6983   */\n            tag_221:\n                /* \"#utility.yul\":6802:7071   */\n              pop\n              swap2\n              swap1\n              pop\n              jump\t// out\n                /* \"#utility.yul\":7077:7358   */\n            tag_184:\n                /* \"#utility.yul\":7160:7187   */\n              tag_225\n                /* \"#utility.yul\":7182:7186   */\n              dup3\n                /* \"#utility.yul\":7160:7187   */\n              tag_165\n              jump\t// in\n            tag_225:\n                /* \"#utility.yul\":7152:7158   */\n              dup2\n                /* \"#utility.yul\":7148:7188   */\n              add\n                /* \"#utility.yul\":7290:7296   */\n              dup2\n                /* \"#utility.yul\":7278:7288   */\n              dup2\n                /* \"#utility.yul\":7275:7297   */\n              lt\n                /* \"#utility.yul\":7254:7272   */\n              0xffffffffffffffff\n                /* \"#utility.yul\":7242:7252   */\n              dup3\n                /* \"#utility.yul\":7239:7273   */\n              gt\n                /* \"#utility.yul\":7236:7298   */\n              or\n                /* \"#utility.yul\":7233:7235   */\n              iszero\n              tag_226\n              jumpi\n                /* \"#utility.yul\":7301:7319   */\n              tag_227\n              tag_189\n              jump\t// in\n            tag_227:\n                /* \"#utility.yul\":7233:7235   */\n            tag_226:\n                /* \"#utility.yul\":7341:7351   */\n              dup1\n                /* \"#utility.yul\":7337:7339   */\n              0x40\n                /* \"#utility.yul\":7330:7352   */\n              mstore\n                /* \"#utility.yul\":7120:7358   */\n              pop\n              pop\n              pop\n              jump\t// out\n                /* \"#utility.yul\":7364:7597   */\n            tag_78:\n              0x00\n                /* \"#utility.yul\":7426:7450   */\n              tag_229\n                /* \"#utility.yul\":7444:7449   */\n              dup3\n                /* \"#utility.yul\":7426:7450   */\n              tag_169\n              jump\t// in\n            tag_229:\n                /* \"#utility.yul\":7417:7450   */\n              swap2\n              pop\n                /* \"#utility.yul\":7472:7538   */\n              0xffffffffffffffffffffffffffffffffffffffffffffffffffffffffffffffff\n                /* \"#utility.yul\":7465:7470   */\n              dup3\n                /* \"#utility.yul\":7462:7539   */\n              eq\n                /* \"#utility.yul\":7459:7461   */\n              iszero\n              tag_230\n              jumpi\n                /* \"#utility.yul\":7542:7560   */\n              tag_231\n              tag_198\n              jump\t// in\n            tag_231:\n                /* \"#utility.yul\":7459:7461   */\n            tag_230:\n                /* \"#utility.yul\":7589:7590   */\n              0x01\n                /* \"#utility.yul\":7582:7587   */\n              dup3\n                /* \"#utility.yul\":7578:7591   */\n              add\n                /* \"#utility.yul\":7571:7591   */\n              swap1\n              pop\n                /* \"#utility.yul\":7407:7597   */\n              swap2\n              swap1\n              pop\n              jump\t// out\n                /* \"#utility.yul\":7603:7779   */\n            tag_88:\n              0x00\n                /* \"#utility.yul\":7652:7672   */\n              tag_233\n                /* \"#utility.yul\":7670:7671   */\n              dup3\n                /* \"#utility.yul\":7652:7672   */\n              tag_169\n              jump\t// in\n            tag_233:\n                /* \"#utility.yul\":7647:7672   */\n              swap2\n              pop\n                /* \"#utility.yul\":7686:7706   */\n              tag_234\n                /* \"#utility.yul\":7704:7705   */\n              dup4\n                /* \"#utility.yul\":7686:7706   */\n              tag_169\n              jump\t// in\n            tag_234:\n                /* \"#utility.yul\":7681:7706   */\n              swap3\n              pop\n                /* \"#utility.yul\":7725:7726   */\n              dup3\n                /* \"#utility.yul\":7715:7717   */\n              tag_235\n              jumpi\n                /* \"#utility.yul\":7730:7748   */\n              tag_236\n              tag_204\n              jump\t// in\n            tag_236:\n                /* \"#utility.yul\":7715:7717   */\n            tag_235:\n                /* \"#utility.yul\":7771:7772   */\n              dup3\n                /* \"#utility.yul\":7768:7769   */\n              dup3\n                /* \"#utility.yul\":7764:7773   */\n              mod\n                /* \"#utility.yul\":7759:7773   */\n              swap1\n              pop\n                /* \"#utility.yul\":7637:7779   */\n              swap3\n              swap2\n              pop\n              pop\n              jump\t// out\n                /* \"#utility.yul\":7785:7965   */\n            tag_198:\n                /* \"#utility.yul\":7833:7910   */\n              0x4e487b7100000000000000000000000000000000000000000000000000000000\n                /* \"#utility.yul\":7830:7831   */\n              0x00\n                /* \"#utility.yul\":7823:7911   */\n              mstore\n                /* \"#utility.yul\":7930:7934   */\n              0x11\n                /* \"#utility.yul\":7927:7928   */\n              0x04\n                /* \"#utility.yul\":7920:7935   */\n              mstore\n                /* \"#utility.yul\":7954:7958   */\n              0x24\n                /* \"#utility.yul\":7951:7952   */\n              0x00\n                /* \"#utility.yul\":7944:7959   */\n              revert\n                /* \"#utility.yul\":7971:8151   */\n            tag_204:\n                /* \"#utility.yul\":8019:8096   */\n              0x4e487b7100000000000000000000000000000000000000000000000000000000\n                /* \"#utility.yul\":8016:8017   */\n              0x00\n                /* \"#utility.yul\":8009:8097   */\n              mstore\n                /* \"#utility.yul\":8116:8120   */\n              0x12\n                /* \"#utility.yul\":8113:8114   */\n              0x04\n                /* \"#utility.yul\":8106:8121   */\n              mstore\n                /* \"#utility.yul\":8140:8144   */\n              0x24\n                /* \"#utility.yul\":8137:8138   */\n              0x00\n                /* \"#utility.yul\":8130:8145   */\n              revert\n                /* \"#utility.yul\":8157:8337   */\n            tag_223:\n                /* \"#utility.yul\":8205:8282   */\n              0x4e487b7100000000000000000000000000000000000000000000000000000000\n                /* \"#utility.yul\":8202:8203   */\n              0x00\n                /* \"#utility.yul\":8195:8283   */\n              mstore\n                /* \"#utility.yul\":8302:8306   */\n              0x22\n                /* \"#utility.yul\":8299:8300   */\n              0x04\n                /* \"#utility.yul\":8292:8307   */\n              mstore\n                /* \"#utility.yul\":8326:8330   */\n              0x24\n                /* \"#utility.yul\":8323:8324   */\n              0x00\n                /* \"#utility.yul\":8316:8331   */\n              revert\n                /* \"#utility.yul\":8343:8523   */\n            tag_189:\n                /* \"#utility.yul\":8391:8468   */\n              0x4e487b7100000000000000000000000000000000000000000000000000000000\n                /* \"#utility.yul\":8388:8389   */\n              0x00\n                /* \"#utility.yul\":8381:8469   */\n              mstore\n                /* \"#utility.yul\":8488:8492   */\n              0x41\n                /* \"#utility.yul\":8485:8486   */\n              0x04\n                /* \"#utility.yul\":8478:8493   */\n              mstore\n                /* \"#utility.yul\":8512:8516   */\n              0x24\n                /* \"#utility.yul\":8509:8510   */\n              0x00\n                /* \"#utility.yul\":8502:8517   */\n              revert\n                /* \"#utility.yul\":8529:8631   */\n            tag_165:\n              0x00\n                /* \"#utility.yul\":8621:8623   */\n              0x1f\n                /* \"#utility.yul\":8617:8624   */\n              not\n                /* \"#utility.yul\":8612:8614   */\n              0x1f\n                /* \"#utility.yul\":8605:8610   */\n              dup4\n                /* \"#utility.yul\":8601:8615   */\n              add\n                /* \"#utility.yul\":8597:8625   */\n              and\n                /* \"#utility.yul\":8587:8625   */\n              swap1\n              pop\n                /* \"#utility.yul\":8577:8631   */\n              swap2\n              swap1\n              pop\n              jump\t// out\n                /* \"#utility.yul\":8637:8759   */\n            tag_119:\n                /* \"#utility.yul\":8710:8734   */\n              tag_243\n                /* \"#utility.yul\":8728:8733   */\n              dup2\n                /* \"#utility.yul\":8710:8734   */\n              tag_151\n              jump\t// in\n            tag_243:\n                /* \"#utility.yul\":8703:8708   */\n              dup2\n                /* \"#utility.yul\":8700:8735   */\n              eq\n                /* \"#utility.yul\":8690:8692   */\n              tag_244\n              jumpi\n                /* \"#utility.yul\":8749:8750   */\n              0x00\n                /* \"#utility.yul\":8746:8747   */\n              dup1\n                /* \"#utility.yul\":8739:8751   */\n              revert\n                /* \"#utility.yul\":8690:8692   */\n            tag_244:\n                /* \"#utility.yul\":8680:8759   */\n              pop\n              jump\t// out\n                /* \"#utility.yul\":8765:8903   */\n            tag_123:\n                /* \"#utility.yul\":8846:8878   */\n              tag_246\n                /* \"#utility.yul\":8872:8877   */\n              dup2\n                /* \"#utility.yul\":8846:8878   */\n              tag_147\n              jump\t// in\n            tag_246:\n                /* \"#utility.yul\":8839:8844   */\n              dup2\n                /* \"#utility.yul\":8836:8879   */\n              eq\n                /* \"#utility.yul\":8826:8828   */\n              tag_247\n              jumpi\n                /* \"#utility.yul\":8893:8894   */\n              0x00\n                /* \"#utility.yul\":8890:8891   */\n              dup1\n                /* \"#utility.yul\":8883:8895   */\n              revert\n                /* \"#utility.yul\":8826:8828   */\n            tag_247:\n                /* \"#utility.yul\":8816:8903   */\n              pop\n              jump\t// out\n                /* \"#utility.yul\":8909:9031   */\n            tag_131:\n                /* \"#utility.yul\":8982:9006   */\n              tag_249\n                /* \"#utility.yul\":9000:9005   */\n              dup2\n                /* \"#utility.yul\":8982:9006   */\n              tag_169\n              jump\t// in\n            tag_249:\n                /* \"#utility.yul\":8975:8980   */\n              dup2\n                /* \"#utility.yul\":8972:9007   */\n              eq\n                /* \"#utility.yul\":8962:8964   */\n              tag_250\n              jumpi\n                /* \"#utility.yul\":9021:9022   */\n              0x00\n                /* \"#utility.yul\":9018:9019   */\n              dup1\n                /* \"#utility.yul\":9011:9023   */\n              revert\n                /* \"#utility.yul\":8962:8964   */\n            tag_250:\n                /* \"#utility.yul\":8952:9031   */\n              pop\n              jump\t// out\n\n            auxdata: 0xa26469706673582212200262aa1f3d049eb9747d16285e3382d43f6aac80a7b5ef22c9754f26fab7e24764736f6c63430008030033\n        }\n    }\n\n    auxdata: 0xa26469706673582212205d5a7fe926063f32c43e14b50093b7d50e00f60714d5ac49f77feb8e9f27705964736f6c63430008030033\n}\n","bytecode":{"linkReferences":{},"object":"608060405234801561001057600080fd5b506114e4806100206000396000f3fe608060405234801561001057600080fd5b50600436106100415760003560e01c8063a3303a7514610046578063e429355914610062578063f739bf4d14610080575b600080fd5b610060600480360381019061005b9190610240565b6100b0565b005b61006a610151565b604051610077919061031b565b60405180910390f35b61009a60048036038101906100959190610240565b6101df565b6040516100a7919061033d565b60405180910390f35b600081336040516100c09061021e565b6100cb929190610358565b604051809103906000f0801580156100e7573d6000803e3d6000fd5b5090506000819080600181540180825580915050600190039060005260206000200160009091909190916101000a81548173ffffffffffffffffffffffffffffffffffffffff021916908373ffffffffffffffffffffffffffffffffffffffff1602179055505050565b606060008054806020026020016040519081016040528092919081815260200182805480156101d557602002820191906000526020600020905b8160009054906101000a900473ffffffffffffffffffffffffffffffffffffffff1673ffffffffffffffffffffffffffffffffffffffff168152602001906001019080831161018b575b5050505050905090565b600081815481106101ef57600080fd5b906000526020600020016000915054906101000a900473ffffffffffffffffffffffffffffffffffffffff1681565b61107d8061043283390190565b60008135905061023a8161041a565b92915050565b60006020828403121561025257600080fd5b60006102608482850161022b565b91505092915050565b600061027583836102ee565b60208301905092915050565b61028a816103ba565b82525050565b600061029b82610391565b6102a581856103a9565b93506102b083610381565b8060005b838110156102e15781516102c88882610269565b97506102d38361039c565b9250506001810190506102b4565b5085935050505092915050565b6102f7816103f6565b82525050565b610306816103f6565b82525050565b610315816103ec565b82525050565b600060208201905081810360008301526103358184610290565b905092915050565b600060208201905061035260008301846102fd565b92915050565b600060408201905061036d600083018561030c565b61037a6020830184610281565b9392505050565b6000819050602082019050919050565b600081519050919050565b6000602082019050919050565b600082825260208201905092915050565b60006103c5826103cc565b9050919050565b600073ffffffffffffffffffffffffffffffffffffffff82169050919050565b6000819050919050565b600061040182610408565b9050919050565b6000610413826103cc565b9050919050565b610423816103ec565b811461042e57600080fd5b5056fe60806040523480156200001157600080fd5b506040516200107d3803806200107d8339818101604052810190620000379190620000b5565b80600260006101000a81548173ffffffffffffffffffffffffffffffffffffffff021916908373ffffffffffffffffffffffffffffffffffffffff16021790555081600381905550505062000168565b600081519050620000988162000134565b92915050565b600081519050620000af816200014e565b92915050565b60008060408385031215620000c957600080fd5b6000620000d9858286016200009e565b9250506020620000ec8582860162000087565b9150509250929050565b600062000103826200010a565b9050919050565b600073ffffffffffffffffffffffffffffffffffffffff82169050919050565b6000819050919050565b6200013f81620000f6565b81146200014b57600080fd5b50565b62000159816200012a565b81146200016557600080fd5b50565b610f0580620001786000396000f3fe6080604052600436106100915760003560e01c806381d12c581161005957806381d12c581461017d5780638a9cfd55146101be5780639fb42b1f146101e7578063d7bb99ba14610212578063d7d1bbdb1461021c57610091565b806303441006146100965780630a144391146100bf57806326540fd2146100fc578063481c6a751461012757806359af7a1314610152575b600080fd5b3480156100a257600080fd5b506100bd60048036038101906100b89190610a1d565b610245565b005b3480156100cb57600080fd5b506100e660048036038101906100e1919061098d565b610380565b6040516100f39190610b30565b60405180910390f35b34801561010857600080fd5b50610111610398565b60405161011e9190610b30565b60405180910390f35b34801561013357600080fd5b5061013c61039e565b6040516101499190610abb565b60405180910390f35b34801561015e57600080fd5b506101676103c4565b6040516101749190610b30565b60405180910390f35b34801561018957600080fd5b506101a4600480360381019061019f9190610a1d565b6103ca565b6040516101b5959493929190610ad6565b60405180910390f35b3480156101ca57600080fd5b506101e560048036038101906101e091906109b6565b6104b5565b005b3480156101f357600080fd5b506101fc6105cd565b6040516102099190610b30565b60405180910390f35b61021a6105d3565b005b34801561022857600080fd5b50610243600480360381019061023e9190610a1d565b6106cf565b005b600260009054906101000a900473ffffffffffffffffffffffffffffffffffffffff1673ffffffffffffffffffffffffffffffffffffffff163373ffffffffffffffffffffffffffffffffffffffff161461029f57600080fd5b600060016000838152602001908152602001600020905060026005546102c59190610c13565b8160030154116102d457600080fd5b8060020160149054906101000a900460ff16156102f057600080fd5b8060020160009054906101000a900473ffffffffffffffffffffffffffffffffffffffff1673ffffffffffffffffffffffffffffffffffffffff166108fc82600101549081150290604051600060405180830381858888f1935050505015801561035e573d6000803e3d6000fd5b5060018160020160146101000a81548160ff0219169083151502179055505050565b60046020528060005260406000206000915090505481565b60055481565b600260009054906101000a900473ffffffffffffffffffffffffffffffffffffffff1681565b60035481565b60016020528060005260406000206000915090508060000180546103ed90610ce0565b80601f016020809104026020016040519081016040528092919081815260200182805461041990610ce0565b80156104665780601f1061043b57610100808354040283529160200191610466565b820191906000526020600020905b81548152906001019060200180831161044957829003601f168201915b5050505050908060010154908060020160009054906101000a900473ffffffffffffffffffffffffffffffffffffffff16908060020160149054906101000a900460ff16908060030154905085565b600260009054906101000a900473ffffffffffffffffffffffffffffffffffffffff1673ffffffffffffffffffffffffffffffffffffffff163373ffffffffffffffffffffffffffffffffffffffff161461050f57600080fd5b60006001600080600081548092919061052790610d43565b919050558152602001908152602001600020905083816000019080519060200190610553929190610843565b50828160010181905550818160020160006101000a81548173ffffffffffffffffffffffffffffffffffffffff021916908373ffffffffffffffffffffffffffffffffffffffff16021790555060008160020160146101000a81548160ff0219169083151502179055506000816003018190555050505050565b60005481565b6003543410156105e257600080fd5b6000600354346105f29190610c13565b905080600460003373ffffffffffffffffffffffffffffffffffffffff1673ffffffffffffffffffffffffffffffffffffffff16815260200190815260200160002060008282546106439190610bbd565b92505081905550806005600082825461065c9190610bbd565b925050819055506000600354346106739190610d8c565b9050600081146106cb5760003390508073ffffffffffffffffffffffffffffffffffffffff166108fc839081150290604051600060405180830381858888f193505050501580156106c8573d6000803e3d6000fd5b50505b5050565b60006001600083815260200190815260200160002090506000600460003373ffffffffffffffffffffffffffffffffffffffff1673ffffffffffffffffffffffffffffffffffffffff168152602001908152602001600020541161073257600080fd5b8060040160003373ffffffffffffffffffffffffffffffffffffffff1673ffffffffffffffffffffffffffffffffffffffff16815260200190815260200160002060009054906101000a900460ff161561078b57600080fd5b60018160040160003373ffffffffffffffffffffffffffffffffffffffff1673ffffffffffffffffffffffffffffffffffffffff16815260200190815260200160002060006101000a81548160ff021916908315150217905550600460003373ffffffffffffffffffffffffffffffffffffffff1673ffffffffffffffffffffffffffffffffffffffff168152602001908152602001600020548160030160008282546108389190610bbd565b925050819055505050565b82805461084f90610ce0565b90600052602060002090601f01602090048101928261087157600085556108b8565b82601f1061088a57805160ff19168380011785556108b8565b828001600101855582156108b8579182015b828111156108b757825182559160200191906001019061089c565b5b5090506108c591906108c9565b5090565b5b808211156108e25760008160009055506001016108ca565b5090565b60006108f96108f484610b70565b610b4b565b90508281526020810184848401111561091157600080fd5b61091c848285610c9e565b509392505050565b60008135905061093381610e8a565b92915050565b60008135905061094881610ea1565b92915050565b600082601f83011261095f57600080fd5b813561096f8482602086016108e6565b91505092915050565b60008135905061098781610eb8565b92915050565b60006020828403121561099f57600080fd5b60006109ad84828501610924565b91505092915050565b6000806000606084860312156109cb57600080fd5b600084013567ffffffffffffffff8111156109e557600080fd5b6109f18682870161094e565b9350506020610a0286828701610978565b9250506040610a1386828701610939565b9150509250925092565b600060208284031215610a2f57600080fd5b6000610a3d84828501610978565b91505092915050565b610a4f81610c56565b82525050565b610a5e81610c44565b82525050565b610a6d81610c68565b82525050565b6000610a7e82610ba1565b610a888185610bac565b9350610a98818560208601610cad565b610aa181610e79565b840191505092915050565b610ab581610c94565b82525050565b6000602082019050610ad06000830184610a55565b92915050565b600060a0820190508181036000830152610af08188610a73565b9050610aff6020830187610aac565b610b0c6040830186610a46565b610b196060830185610a64565b610b266080830184610aac565b9695505050505050565b6000602082019050610b456000830184610aac565b92915050565b6000610b55610b66565b9050610b618282610d12565b919050565b6000604051905090565b600067ffffffffffffffff821115610b8b57610b8a610e4a565b5b610b9482610e79565b9050602081019050919050565b600081519050919050565b600082825260208201905092915050565b6000610bc882610c94565b9150610bd383610c94565b9250827fffffffffffffffffffffffffffffffffffffffffffffffffffffffffffffffff03821115610c0857610c07610dbd565b5b828201905092915050565b6000610c1e82610c94565b9150610c2983610c94565b925082610c3957610c38610dec565b5b828204905092915050565b6000610c4f82610c74565b9050919050565b6000610c6182610c74565b9050919050565b60008115159050919050565b600073ffffffffffffffffffffffffffffffffffffffff82169050919050565b6000819050919050565b82818337600083830152505050565b60005b83811015610ccb578082015181840152602081019050610cb0565b83811115610cda576000848401525b50505050565b60006002820490506001821680610cf857607f821691505b60208210811415610d0c57610d0b610e1b565b5b50919050565b610d1b82610e79565b810181811067ffffffffffffffff82111715610d3a57610d39610e4a565b5b80604052505050565b6000610d4e82610c94565b91507fffffffffffffffffffffffffffffffffffffffffffffffffffffffffffffffff821415610d8157610d80610dbd565b5b600182019050919050565b6000610d9782610c94565b9150610da283610c94565b925082610db257610db1610dec565b5b828206905092915050565b7f4e487b7100000000000000000000000000000000000000000000000000000000600052601160045260246000fd5b7f4e487b7100000000000000000000000000000000000000000000000000000000600052601260045260246000fd5b7f4e487b7100000000000000000000000000000000000000000000000000000000600052602260045260246000fd5b7f4e487b7100000000000000000000000000000000000000000000000000000000600052604160045260246000fd5b6000601f19601f8301169050919050565b610e9381610c44565b8114610e9e57600080fd5b50565b610eaa81610c56565b8114610eb557600080fd5b50565b610ec181610c94565b8114610ecc57600080fd5b5056fea26469706673582212200262aa1f3d049eb9747d16285e3382d43f6aac80a7b5ef22c9754f26fab7e24764736f6c63430008030033a26469706673582212205d5a7fe926063f32c43e14b50093b7d50e00f60714d5ac49f77feb8e9f27705964736f6c63430008030033","opcodes":"PUSH1 0x80 PUSH1 0x40 MSTORE CALLVALUE DUP1 ISZERO PUSH2 0x10 JUMPI PUSH1 0x0 DUP1 REVERT JUMPDEST POP PUSH2 0x14E4 DUP1 PUSH2 0x20 PUSH1 0x0 CODECOPY PUSH1 0x0 RETURN INVALID PUSH1 0x80 PUSH1 0x40 MSTORE CALLVALUE DUP1 ISZERO PUSH2 0x10 JUMPI PUSH1 0x0 DUP1 REVERT JUMPDEST POP PUSH1 0x4 CALLDATASIZE LT PUSH2 0x41 JUMPI PUSH1 0x0 CALLDATALOAD PUSH1 0xE0 SHR DUP1 PUSH4 0xA3303A75 EQ PUSH2 0x46 JUMPI DUP1 PUSH4 0xE4293559 EQ PUSH2 0x62 JUMPI DUP1 PUSH4 0xF739BF4D EQ PUSH2 0x80 JUMPI JUMPDEST PUSH1 0x0 DUP1 REVERT JUMPDEST PUSH2 0x60 PUSH1 0x4 DUP1 CALLDATASIZE SUB DUP2 ADD SWAP1 PUSH2 0x5B SWAP2 SWAP1 PUSH2 0x240 JUMP JUMPDEST PUSH2 0xB0 JUMP JUMPDEST STOP JUMPDEST PUSH2 0x6A PUSH2 0x151 JUMP JUMPDEST PUSH1 0x40 MLOAD PUSH2 0x77 SWAP2 SWAP1 PUSH2 0x31B JUMP JUMPDEST PUSH1 0x40 MLOAD DUP1 SWAP2 SUB SWAP1 RETURN JUMPDEST PUSH2 0x9A PUSH1 0x4 DUP1 CALLDATASIZE SUB DUP2 ADD SWAP1 PUSH2 0x95 SWAP2 SWAP1 PUSH2 0x240 JUMP JUMPDEST PUSH2 0x1DF JUMP JUMPDEST PUSH1 0x40 MLOAD PUSH2 0xA7 SWAP2 SWAP1 PUSH2 0x33D JUMP JUMPDEST PUSH1 0x40 MLOAD DUP1 SWAP2 SUB SWAP1 RETURN JUMPDEST PUSH1 0x0 DUP2 CALLER PUSH1 0x40 MLOAD PUSH2 0xC0 SWAP1 PUSH2 0x21E JUMP JUMPDEST PUSH2 0xCB SWAP3 SWAP2 SWAP1 PUSH2 0x358 JUMP JUMPDEST PUSH1 0x40 MLOAD DUP1 SWAP2 SUB SWAP1 PUSH1 0x0 CREATE DUP1 ISZERO DUP1 ISZERO PUSH2 0xE7 JUMPI RETURNDATASIZE PUSH1 0x0 DUP1 RETURNDATACOPY RETURNDATASIZE PUSH1 0x0 REVERT JUMPDEST POP SWAP1 POP PUSH1 0x0 DUP2 SWAP1 DUP1 PUSH1 0x1 DUP2 SLOAD ADD DUP1 DUP3 SSTORE DUP1 SWAP2 POP POP PUSH1 0x1 SWAP1 SUB SWAP1 PUSH1 0x0 MSTORE PUSH1 0x20 PUSH1 0x0 KECCAK256 ADD PUSH1 0x0 SWAP1 SWAP2 SWAP1 SWAP2 SWAP1 SWAP2 PUSH2 0x100 EXP DUP2 SLOAD DUP2 PUSH20 0xFFFFFFFFFFFFFFFFFFFFFFFFFFFFFFFFFFFFFFFF MUL NOT AND SWAP1 DUP4 PUSH20 0xFFFFFFFFFFFFFFFFFFFFFFFFFFFFFFFFFFFFFFFF AND MUL OR SWAP1 SSTORE POP POP POP JUMP JUMPDEST PUSH1 0x60 PUSH1 0x0 DUP1 SLOAD DUP1 PUSH1 0x20 MUL PUSH1 0x20 ADD PUSH1 0x40 MLOAD SWAP1 DUP2 ADD PUSH1 0x40 MSTORE DUP1 SWAP3 SWAP2 SWAP1 DUP2 DUP2 MSTORE PUSH1 0x20 ADD DUP3 DUP1 SLOAD DUP1 ISZERO PUSH2 0x1D5 JUMPI PUSH1 0x20 MUL DUP3 ADD SWAP2 SWAP1 PUSH1 0x0 MSTORE PUSH1 0x20 PUSH1 0x0 KECCAK256 SWAP1 JUMPDEST DUP2 PUSH1 0x0 SWAP1 SLOAD SWAP1 PUSH2 0x100 EXP SWAP1 DIV PUSH20 0xFFFFFFFFFFFFFFFFFFFFFFFFFFFFFFFFFFFFFFFF AND PUSH20 0xFFFFFFFFFFFFFFFFFFFFFFFFFFFFFFFFFFFFFFFF AND DUP2 MSTORE PUSH1 0x20 ADD SWAP1 PUSH1 0x1 ADD SWAP1 DUP1 DUP4 GT PUSH2 0x18B JUMPI JUMPDEST POP POP POP POP POP SWAP1 POP SWAP1 JUMP JUMPDEST PUSH1 0x0 DUP2 DUP2 SLOAD DUP2 LT PUSH2 0x1EF JUMPI PUSH1 0x0 DUP1 REVERT JUMPDEST SWAP1 PUSH1 0x0 MSTORE PUSH1 0x20 PUSH1 0x0 KECCAK256 ADD PUSH1 0x0 SWAP2 POP SLOAD SWAP1 PUSH2 0x100 EXP SWAP1 DIV PUSH20 0xFFFFFFFFFFFFFFFFFFFFFFFFFFFFFFFFFFFFFFFF AND DUP2 JUMP JUMPDEST PUSH2 0x107D DUP1 PUSH2 0x432 DUP4 CODECOPY ADD SWAP1 JUMP JUMPDEST PUSH1 0x0 DUP2 CALLDATALOAD SWAP1 POP PUSH2 0x23A DUP2 PUSH2 0x41A JUMP JUMPDEST SWAP3 SWAP2 POP POP JUMP JUMPDEST PUSH1 0x0 PUSH1 0x20 DUP3 DUP5 SUB SLT ISZERO PUSH2 0x252 JUMPI PUSH1 0x0 DUP1 REVERT JUMPDEST PUSH1 0x0 PUSH2 0x260 DUP5 DUP3 DUP6 ADD PUSH2 0x22B JUMP JUMPDEST SWAP2 POP POP SWAP3 SWAP2 POP POP JUMP JUMPDEST PUSH1 0x0 PUSH2 0x275 DUP4 DUP4 PUSH2 0x2EE JUMP JUMPDEST PUSH1 0x20 DUP4 ADD SWAP1 POP SWAP3 SWAP2 POP POP JUMP JUMPDEST PUSH2 0x28A DUP2 PUSH2 0x3BA JUMP JUMPDEST DUP3 MSTORE POP POP JUMP JUMPDEST PUSH1 0x0 PUSH2 0x29B DUP3 PUSH2 0x391 JUMP JUMPDEST PUSH2 0x2A5 DUP2 DUP6 PUSH2 0x3A9 JUMP JUMPDEST SWAP4 POP PUSH2 0x2B0 DUP4 PUSH2 0x381 JUMP JUMPDEST DUP1 PUSH1 0x0 JUMPDEST DUP4 DUP2 LT ISZERO PUSH2 0x2E1 JUMPI DUP2 MLOAD PUSH2 0x2C8 DUP9 DUP3 PUSH2 0x269 JUMP JUMPDEST SWAP8 POP PUSH2 0x2D3 DUP4 PUSH2 0x39C JUMP JUMPDEST SWAP3 POP POP PUSH1 0x1 DUP2 ADD SWAP1 POP PUSH2 0x2B4 JUMP JUMPDEST POP DUP6 SWAP4 POP POP POP POP SWAP3 SWAP2 POP POP JUMP JUMPDEST PUSH2 0x2F7 DUP2 PUSH2 0x3F6 JUMP JUMPDEST DUP3 MSTORE POP POP JUMP JUMPDEST PUSH2 0x306 DUP2 PUSH2 0x3F6 JUMP JUMPDEST DUP3 MSTORE POP POP JUMP JUMPDEST PUSH2 0x315 DUP2 PUSH2 0x3EC JUMP JUMPDEST DUP3 MSTORE POP POP JUMP JUMPDEST PUSH1 0x0 PUSH1 0x20 DUP3 ADD SWAP1 POP DUP2 DUP2 SUB PUSH1 0x0 DUP4 ADD MSTORE PUSH2 0x335 DUP2 DUP5 PUSH2 0x290 JUMP JUMPDEST SWAP1 POP SWAP3 SWAP2 POP POP JUMP JUMPDEST PUSH1 0x0 PUSH1 0x20 DUP3 ADD SWAP1 POP PUSH2 0x352 PUSH1 0x0 DUP4 ADD DUP5 PUSH2 0x2FD JUMP JUMPDEST SWAP3 SWAP2 POP POP JUMP JUMPDEST PUSH1 0x0 PUSH1 0x40 DUP3 ADD SWAP1 POP PUSH2 0x36D PUSH1 0x0 DUP4 ADD DUP6 PUSH2 0x30C JUMP JUMPDEST PUSH2 0x37A PUSH1 0x20 DUP4 ADD DUP5 PUSH2 0x281 JUMP JUMPDEST SWAP4 SWAP3 POP POP POP JUMP JUMPDEST PUSH1 0x0 DUP2 SWAP1 POP PUSH1 0x20 DUP3 ADD SWAP1 POP SWAP2 SWAP1 POP JUMP JUMPDEST PUSH1 0x0 DUP2 MLOAD SWAP1 POP SWAP2 SWAP1 POP JUMP JUMPDEST PUSH1 0x0 PUSH1 0x20 DUP3 ADD SWAP1 POP SWAP2 SWAP1 POP JUMP JUMPDEST PUSH1 0x0 DUP3 DUP3 MSTORE PUSH1 0x20 DUP3 ADD SWAP1 POP SWAP3 SWAP2 POP POP JUMP JUMPDEST PUSH1 0x0 PUSH2 0x3C5 DUP3 PUSH2 0x3CC JUMP JUMPDEST SWAP1 POP SWAP2 SWAP1 POP JUMP JUMPDEST PUSH1 0x0 PUSH20 0xFFFFFFFFFFFFFFFFFFFFFFFFFFFFFFFFFFFFFFFF DUP3 AND SWAP1 POP SWAP2 SWAP1 POP JUMP JUMPDEST PUSH1 0x0 DUP2 SWAP1 POP SWAP2 SWAP1 POP JUMP JUMPDEST PUSH1 0x0 PUSH2 0x401 DUP3 PUSH2 0x408 JUMP JUMPDEST SWAP1 POP SWAP2 SWAP1 POP JUMP JUMPDEST PUSH1 0x0 PUSH2 0x413 DUP3 PUSH2 0x3CC JUMP JUMPDEST SWAP1 POP SWAP2 SWAP1 POP JUMP JUMPDEST PUSH2 0x423 DUP2 PUSH2 0x3EC JUMP JUMPDEST DUP2 EQ PUSH2 0x42E JUMPI PUSH1 0x0 DUP1 REVERT JUMPDEST POP JUMP INVALID PUSH1 0x80 PUSH1 0x40 MSTORE CALLVALUE DUP1 ISZERO PUSH3 0x11 JUMPI PUSH1 0x0 DUP1 REVERT JUMPDEST POP PUSH1 0x40 MLOAD PUSH3 0x107D CODESIZE SUB DUP1 PUSH3 0x107D DUP4 CODECOPY DUP2 DUP2 ADD PUSH1 0x40 MSTORE DUP2 ADD SWAP1 PUSH3 0x37 SWAP2 SWAP1 PUSH3 0xB5 JUMP JUMPDEST DUP1 PUSH1 0x2 PUSH1 0x0 PUSH2 0x100 EXP DUP2 SLOAD DUP2 PUSH20 0xFFFFFFFFFFFFFFFFFFFFFFFFFFFFFFFFFFFFFFFF MUL NOT AND SWAP1 DUP4 PUSH20 0xFFFFFFFFFFFFFFFFFFFFFFFFFFFFFFFFFFFFFFFF AND MUL OR SWAP1 SSTORE POP DUP2 PUSH1 0x3 DUP2 SWAP1 SSTORE POP POP POP PUSH3 0x168 JUMP JUMPDEST PUSH1 0x0 DUP2 MLOAD SWAP1 POP PUSH3 0x98 DUP2 PUSH3 0x134 JUMP JUMPDEST SWAP3 SWAP2 POP POP JUMP JUMPDEST PUSH1 0x0 DUP2 MLOAD SWAP1 POP PUSH3 0xAF DUP2 PUSH3 0x14E JUMP JUMPDEST SWAP3 SWAP2 POP POP JUMP JUMPDEST PUSH1 0x0 DUP1 PUSH1 0x40 DUP4 DUP6 SUB SLT ISZERO PUSH3 0xC9 JUMPI PUSH1 0x0 DUP1 REVERT JUMPDEST PUSH1 0x0 PUSH3 0xD9 DUP6 DUP3 DUP7 ADD PUSH3 0x9E JUMP JUMPDEST SWAP3 POP POP PUSH1 0x20 PUSH3 0xEC DUP6 DUP3 DUP7 ADD PUSH3 0x87 JUMP JUMPDEST SWAP2 POP POP SWAP3 POP SWAP3 SWAP1 POP JUMP JUMPDEST PUSH1 0x0 PUSH3 0x103 DUP3 PUSH3 0x10A JUMP JUMPDEST SWAP1 POP SWAP2 SWAP1 POP JUMP JUMPDEST PUSH1 0x0 PUSH20 0xFFFFFFFFFFFFFFFFFFFFFFFFFFFFFFFFFFFFFFFF DUP3 AND SWAP1 POP SWAP2 SWAP1 POP JUMP JUMPDEST PUSH1 0x0 DUP2 SWAP1 POP SWAP2 SWAP1 POP JUMP JUMPDEST PUSH3 0x13F DUP2 PUSH3 0xF6 JUMP JUMPDEST DUP2 EQ PUSH3 0x14B JUMPI PUSH1 0x0 DUP1 REVERT JUMPDEST POP JUMP JUMPDEST PUSH3 0x159 DUP2 PUSH3 0x12A JUMP JUMPDEST DUP2 EQ PUSH3 0x165 JUMPI PUSH1 0x0 DUP1 REVERT JUMPDEST POP JUMP JUMPDEST PUSH2 0xF05 DUP1 PUSH3 0x178 PUSH1 0x0 CODECOPY PUSH1 0x0 RETURN INVALID PUSH1 0x80 PUSH1 0x40 MSTORE PUSH1 0x4 CALLDATASIZE LT PUSH2 0x91 JUMPI PUSH1 0x0 CALLDATALOAD PUSH1 0xE0 SHR DUP1 PUSH4 0x81D12C58 GT PUSH2 0x59 JUMPI DUP1 PUSH4 0x81D12C58 EQ PUSH2 0x17D JUMPI DUP1 PUSH4 0x8A9CFD55 EQ PUSH2 0x1BE JUMPI DUP1 PUSH4 0x9FB42B1F EQ PUSH2 0x1E7 JUMPI DUP1 PUSH4 0xD7BB99BA EQ PUSH2 0x212 JUMPI DUP1 PUSH4 0xD7D1BBDB EQ PUSH2 0x21C JUMPI PUSH2 0x91 JUMP JUMPDEST DUP1 PUSH4 0x3441006 EQ PUSH2 0x96 JUMPI DUP1 PUSH4 0xA144391 EQ PUSH2 0xBF JUMPI DUP1 PUSH4 0x26540FD2 EQ PUSH2 0xFC JUMPI DUP1 PUSH4 0x481C6A75 EQ PUSH2 0x127 JUMPI DUP1 PUSH4 0x59AF7A13 EQ PUSH2 0x152 JUMPI JUMPDEST PUSH1 0x0 DUP1 REVERT JUMPDEST CALLVALUE DUP1 ISZERO PUSH2 0xA2 JUMPI PUSH1 0x0 DUP1 REVERT JUMPDEST POP PUSH2 0xBD PUSH1 0x4 DUP1 CALLDATASIZE SUB DUP2 ADD SWAP1 PUSH2 0xB8 SWAP2 SWAP1 PUSH2 0xA1D JUMP JUMPDEST PUSH2 0x245 JUMP JUMPDEST STOP JUMPDEST CALLVALUE DUP1 ISZERO PUSH2 0xCB JUMPI PUSH1 0x0 DUP1 REVERT JUMPDEST POP PUSH2 0xE6 PUSH1 0x4 DUP1 CALLDATASIZE SUB DUP2 ADD SWAP1 PUSH2 0xE1 SWAP2 SWAP1 PUSH2 0x98D JUMP JUMPDEST PUSH2 0x380 JUMP JUMPDEST PUSH1 0x40 MLOAD PUSH2 0xF3 SWAP2 SWAP1 PUSH2 0xB30 JUMP JUMPDEST PUSH1 0x40 MLOAD DUP1 SWAP2 SUB SWAP1 RETURN JUMPDEST CALLVALUE DUP1 ISZERO PUSH2 0x108 JUMPI PUSH1 0x0 DUP1 REVERT JUMPDEST POP PUSH2 0x111 PUSH2 0x398 JUMP JUMPDEST PUSH1 0x40 MLOAD PUSH2 0x11E SWAP2 SWAP1 PUSH2 0xB30 JUMP JUMPDEST PUSH1 0x40 MLOAD DUP1 SWAP2 SUB SWAP1 RETURN JUMPDEST CALLVALUE DUP1 ISZERO PUSH2 0x133 JUMPI PUSH1 0x0 DUP1 REVERT JUMPDEST POP PUSH2 0x13C PUSH2 0x39E JUMP JUMPDEST PUSH1 0x40 MLOAD PUSH2 0x149 SWAP2 SWAP1 PUSH2 0xABB JUMP JUMPDEST PUSH1 0x40 MLOAD DUP1 SWAP2 SUB SWAP1 RETURN JUMPDEST CALLVALUE DUP1 ISZERO PUSH2 0x15E JUMPI PUSH1 0x0 DUP1 REVERT JUMPDEST POP PUSH2 0x167 PUSH2 0x3C4 JUMP JUMPDEST PUSH1 0x40 MLOAD PUSH2 0x174 SWAP2 SWAP1 PUSH2 0xB30 JUMP JUMPDEST PUSH1 0x40 MLOAD DUP1 SWAP2 SUB SWAP1 RETURN JUMPDEST CALLVALUE DUP1 ISZERO PUSH2 0x189 JUMPI PUSH1 0x0 DUP1 REVERT JUMPDEST POP PUSH2 0x1A4 PUSH1 0x4 DUP1 CALLDATASIZE SUB DUP2 ADD SWAP1 PUSH2 0x19F SWAP2 SWAP1 PUSH2 0xA1D JUMP JUMPDEST PUSH2 0x3CA JUMP JUMPDEST PUSH1 0x40 MLOAD PUSH2 0x1B5 SWAP6 SWAP5 SWAP4 SWAP3 SWAP2 SWAP1 PUSH2 0xAD6 JUMP JUMPDEST PUSH1 0x40 MLOAD DUP1 SWAP2 SUB SWAP1 RETURN JUMPDEST CALLVALUE DUP1 ISZERO PUSH2 0x1CA JUMPI PUSH1 0x0 DUP1 REVERT JUMPDEST POP PUSH2 0x1E5 PUSH1 0x4 DUP1 CALLDATASIZE SUB DUP2 ADD SWAP1 PUSH2 0x1E0 SWAP2 SWAP1 PUSH2 0x9B6 JUMP JUMPDEST PUSH2 0x4B5 JUMP JUMPDEST STOP JUMPDEST CALLVALUE DUP1 ISZERO PUSH2 0x1F3 JUMPI PUSH1 0x0 DUP1 REVERT JUMPDEST POP PUSH2 0x1FC PUSH2 0x5CD JUMP JUMPDEST PUSH1 0x40 MLOAD PUSH2 0x209 SWAP2 SWAP1 PUSH2 0xB30 JUMP JUMPDEST PUSH1 0x40 MLOAD DUP1 SWAP2 SUB SWAP1 RETURN JUMPDEST PUSH2 0x21A PUSH2 0x5D3 JUMP JUMPDEST STOP JUMPDEST CALLVALUE DUP1 ISZERO PUSH2 0x228 JUMPI PUSH1 0x0 DUP1 REVERT JUMPDEST POP PUSH2 0x243 PUSH1 0x4 DUP1 CALLDATASIZE SUB DUP2 ADD SWAP1 PUSH2 0x23E SWAP2 SWAP1 PUSH2 0xA1D JUMP JUMPDEST PUSH2 0x6CF JUMP JUMPDEST STOP JUMPDEST PUSH1 0x2 PUSH1 0x0 SWAP1 SLOAD SWAP1 PUSH2 0x100 EXP SWAP1 DIV PUSH20 0xFFFFFFFFFFFFFFFFFFFFFFFFFFFFFFFFFFFFFFFF AND PUSH20 0xFFFFFFFFFFFFFFFFFFFFFFFFFFFFFFFFFFFFFFFF AND CALLER PUSH20 0xFFFFFFFFFFFFFFFFFFFFFFFFFFFFFFFFFFFFFFFF AND EQ PUSH2 0x29F JUMPI PUSH1 0x0 DUP1 REVERT JUMPDEST PUSH1 0x0 PUSH1 0x1 PUSH1 0x0 DUP4 DUP2 MSTORE PUSH1 0x20 ADD SWAP1 DUP2 MSTORE PUSH1 0x20 ADD PUSH1 0x0 KECCAK256 SWAP1 POP PUSH1 0x2 PUSH1 0x5 SLOAD PUSH2 0x2C5 SWAP2 SWAP1 PUSH2 0xC13 JUMP JUMPDEST DUP2 PUSH1 0x3 ADD SLOAD GT PUSH2 0x2D4 JUMPI PUSH1 0x0 DUP1 REVERT JUMPDEST DUP1 PUSH1 0x2 ADD PUSH1 0x14 SWAP1 SLOAD SWAP1 PUSH2 0x100 EXP SWAP1 DIV PUSH1 0xFF AND ISZERO PUSH2 0x2F0 JUMPI PUSH1 0x0 DUP1 REVERT JUMPDEST DUP1 PUSH1 0x2 ADD PUSH1 0x0 SWAP1 SLOAD SWAP1 PUSH2 0x100 EXP SWAP1 DIV PUSH20 0xFFFFFFFFFFFFFFFFFFFFFFFFFFFFFFFFFFFFFFFF AND PUSH20 0xFFFFFFFFFFFFFFFFFFFFFFFFFFFFFFFFFFFFFFFF AND PUSH2 0x8FC DUP3 PUSH1 0x1 ADD SLOAD SWAP1 DUP2 ISZERO MUL SWAP1 PUSH1 0x40 MLOAD PUSH1 0x0 PUSH1 0x40 MLOAD DUP1 DUP4 SUB DUP2 DUP6 DUP9 DUP9 CALL SWAP4 POP POP POP POP ISZERO DUP1 ISZERO PUSH2 0x35E JUMPI RETURNDATASIZE PUSH1 0x0 DUP1 RETURNDATACOPY RETURNDATASIZE PUSH1 0x0 REVERT JUMPDEST POP PUSH1 0x1 DUP2 PUSH1 0x2 ADD PUSH1 0x14 PUSH2 0x100 EXP DUP2 SLOAD DUP2 PUSH1 0xFF MUL NOT AND SWAP1 DUP4 ISZERO ISZERO MUL OR SWAP1 SSTORE POP POP POP JUMP JUMPDEST PUSH1 0x4 PUSH1 0x20 MSTORE DUP1 PUSH1 0x0 MSTORE PUSH1 0x40 PUSH1 0x0 KECCAK256 PUSH1 0x0 SWAP2 POP SWAP1 POP SLOAD DUP2 JUMP JUMPDEST PUSH1 0x5 SLOAD DUP2 JUMP JUMPDEST PUSH1 0x2 PUSH1 0x0 SWAP1 SLOAD SWAP1 PUSH2 0x100 EXP SWAP1 DIV PUSH20 0xFFFFFFFFFFFFFFFFFFFFFFFFFFFFFFFFFFFFFFFF AND DUP2 JUMP JUMPDEST PUSH1 0x3 SLOAD DUP2 JUMP JUMPDEST PUSH1 0x1 PUSH1 0x20 MSTORE DUP1 PUSH1 0x0 MSTORE PUSH1 0x40 PUSH1 0x0 KECCAK256 PUSH1 0x0 SWAP2 POP SWAP1 POP DUP1 PUSH1 0x0 ADD DUP1 SLOAD PUSH2 0x3ED SWAP1 PUSH2 0xCE0 JUMP JUMPDEST DUP1 PUSH1 0x1F ADD PUSH1 0x20 DUP1 SWAP2 DIV MUL PUSH1 0x20 ADD PUSH1 0x40 MLOAD SWAP1 DUP2 ADD PUSH1 0x40 MSTORE DUP1 SWAP3 SWAP2 SWAP1 DUP2 DUP2 MSTORE PUSH1 0x20 ADD DUP3 DUP1 SLOAD PUSH2 0x419 SWAP1 PUSH2 0xCE0 JUMP JUMPDEST DUP1 ISZERO PUSH2 0x466 JUMPI DUP1 PUSH1 0x1F LT PUSH2 0x43B JUMPI PUSH2 0x100 DUP1 DUP4 SLOAD DIV MUL DUP4 MSTORE SWAP2 PUSH1 0x20 ADD SWAP2 PUSH2 0x466 JUMP JUMPDEST DUP3 ADD SWAP2 SWAP1 PUSH1 0x0 MSTORE PUSH1 0x20 PUSH1 0x0 KECCAK256 SWAP1 JUMPDEST DUP2 SLOAD DUP2 MSTORE SWAP1 PUSH1 0x1 ADD SWAP1 PUSH1 0x20 ADD DUP1 DUP4 GT PUSH2 0x449 JUMPI DUP3 SWAP1 SUB PUSH1 0x1F AND DUP3 ADD SWAP2 JUMPDEST POP POP POP POP POP SWAP1 DUP1 PUSH1 0x1 ADD SLOAD SWAP1 DUP1 PUSH1 0x2 ADD PUSH1 0x0 SWAP1 SLOAD SWAP1 PUSH2 0x100 EXP SWAP1 DIV PUSH20 0xFFFFFFFFFFFFFFFFFFFFFFFFFFFFFFFFFFFFFFFF AND SWAP1 DUP1 PUSH1 0x2 ADD PUSH1 0x14 SWAP1 SLOAD SWAP1 PUSH2 0x100 EXP SWAP1 DIV PUSH1 0xFF AND SWAP1 DUP1 PUSH1 0x3 ADD SLOAD SWAP1 POP DUP6 JUMP JUMPDEST PUSH1 0x2 PUSH1 0x0 SWAP1 SLOAD SWAP1 PUSH2 0x100 EXP SWAP1 DIV PUSH20 0xFFFFFFFFFFFFFFFFFFFFFFFFFFFFFFFFFFFFFFFF AND PUSH20 0xFFFFFFFFFFFFFFFFFFFFFFFFFFFFFFFFFFFFFFFF AND CALLER PUSH20 0xFFFFFFFFFFFFFFFFFFFFFFFFFFFFFFFFFFFFFFFF AND EQ PUSH2 0x50F JUMPI PUSH1 0x0 DUP1 REVERT JUMPDEST PUSH1 0x0 PUSH1 0x1 PUSH1 0x0 DUP1 PUSH1 0x0 DUP2 SLOAD DUP1 SWAP3 SWAP2 SWAP1 PUSH2 0x527 SWAP1 PUSH2 0xD43 JUMP JUMPDEST SWAP2 SWAP1 POP SSTORE DUP2 MSTORE PUSH1 0x20 ADD SWAP1 DUP2 MSTORE PUSH1 0x20 ADD PUSH1 0x0 KECCAK256 SWAP1 POP DUP4 DUP2 PUSH1 0x0 ADD SWAP1 DUP1 MLOAD SWAP1 PUSH1 0x20 ADD SWAP1 PUSH2 0x553 SWAP3 SWAP2 SWAP1 PUSH2 0x843 JUMP JUMPDEST POP DUP3 DUP2 PUSH1 0x1 ADD DUP2 SWAP1 SSTORE POP DUP2 DUP2 PUSH1 0x2 ADD PUSH1 0x0 PUSH2 0x100 EXP DUP2 SLOAD DUP2 PUSH20 0xFFFFFFFFFFFFFFFFFFFFFFFFFFFFFFFFFFFFFFFF MUL NOT AND SWAP1 DUP4 PUSH20 0xFFFFFFFFFFFFFFFFFFFFFFFFFFFFFFFFFFFFFFFF AND MUL OR SWAP1 SSTORE POP PUSH1 0x0 DUP2 PUSH1 0x2 ADD PUSH1 0x14 PUSH2 0x100 EXP DUP2 SLOAD DUP2 PUSH1 0xFF MUL NOT AND SWAP1 DUP4 ISZERO ISZERO MUL OR SWAP1 SSTORE POP PUSH1 0x0 DUP2 PUSH1 0x3 ADD DUP2 SWAP1 SSTORE POP POP POP POP POP JUMP JUMPDEST PUSH1 0x0 SLOAD DUP2 JUMP JUMPDEST PUSH1 0x3 SLOAD CALLVALUE LT ISZERO PUSH2 0x5E2 JUMPI PUSH1 0x0 DUP1 REVERT JUMPDEST PUSH1 0x0 PUSH1 0x3 SLOAD CALLVALUE PUSH2 0x5F2 SWAP2 SWAP1 PUSH2 0xC13 JUMP JUMPDEST SWAP1 POP DUP1 PUSH1 0x4 PUSH1 0x0 CALLER PUSH20 0xFFFFFFFFFFFFFFFFFFFFFFFFFFFFFFFFFFFFFFFF AND PUSH20 0xFFFFFFFFFFFFFFFFFFFFFFFFFFFFFFFFFFFFFFFF AND DUP2 MSTORE PUSH1 0x20 ADD SWAP1 DUP2 MSTORE PUSH1 0x20 ADD PUSH1 0x0 KECCAK256 PUSH1 0x0 DUP3 DUP3 SLOAD PUSH2 0x643 SWAP2 SWAP1 PUSH2 0xBBD JUMP JUMPDEST SWAP3 POP POP DUP2 SWAP1 SSTORE POP DUP1 PUSH1 0x5 PUSH1 0x0 DUP3 DUP3 SLOAD PUSH2 0x65C SWAP2 SWAP1 PUSH2 0xBBD JUMP JUMPDEST SWAP3 POP POP DUP2 SWAP1 SSTORE POP PUSH1 0x0 PUSH1 0x3 SLOAD CALLVALUE PUSH2 0x673 SWAP2 SWAP1 PUSH2 0xD8C JUMP JUMPDEST SWAP1 POP PUSH1 0x0 DUP2 EQ PUSH2 0x6CB JUMPI PUSH1 0x0 CALLER SWAP1 POP DUP1 PUSH20 0xFFFFFFFFFFFFFFFFFFFFFFFFFFFFFFFFFFFFFFFF AND PUSH2 0x8FC DUP4 SWAP1 DUP2 ISZERO MUL SWAP1 PUSH1 0x40 MLOAD PUSH1 0x0 PUSH1 0x40 MLOAD DUP1 DUP4 SUB DUP2 DUP6 DUP9 DUP9 CALL SWAP4 POP POP POP POP ISZERO DUP1 ISZERO PUSH2 0x6C8 JUMPI RETURNDATASIZE PUSH1 0x0 DUP1 RETURNDATACOPY RETURNDATASIZE PUSH1 0x0 REVERT JUMPDEST POP POP JUMPDEST POP POP JUMP JUMPDEST PUSH1 0x0 PUSH1 0x1 PUSH1 0x0 DUP4 DUP2 MSTORE PUSH1 0x20 ADD SWAP1 DUP2 MSTORE PUSH1 0x20 ADD PUSH1 0x0 KECCAK256 SWAP1 POP PUSH1 0x0 PUSH1 0x4 PUSH1 0x0 CALLER PUSH20 0xFFFFFFFFFFFFFFFFFFFFFFFFFFFFFFFFFFFFFFFF AND PUSH20 0xFFFFFFFFFFFFFFFFFFFFFFFFFFFFFFFFFFFFFFFF AND DUP2 MSTORE PUSH1 0x20 ADD SWAP1 DUP2 MSTORE PUSH1 0x20 ADD PUSH1 0x0 KECCAK256 SLOAD GT PUSH2 0x732 JUMPI PUSH1 0x0 DUP1 REVERT JUMPDEST DUP1 PUSH1 0x4 ADD PUSH1 0x0 CALLER PUSH20 0xFFFFFFFFFFFFFFFFFFFFFFFFFFFFFFFFFFFFFFFF AND PUSH20 0xFFFFFFFFFFFFFFFFFFFFFFFFFFFFFFFFFFFFFFFF AND DUP2 MSTORE PUSH1 0x20 ADD SWAP1 DUP2 MSTORE PUSH1 0x20 ADD PUSH1 0x0 KECCAK256 PUSH1 0x0 SWAP1 SLOAD SWAP1 PUSH2 0x100 EXP SWAP1 DIV PUSH1 0xFF AND ISZERO PUSH2 0x78B JUMPI PUSH1 0x0 DUP1 REVERT JUMPDEST PUSH1 0x1 DUP2 PUSH1 0x4 ADD PUSH1 0x0 CALLER PUSH20 0xFFFFFFFFFFFFFFFFFFFFFFFFFFFFFFFFFFFFFFFF AND PUSH20 0xFFFFFFFFFFFFFFFFFFFFFFFFFFFFFFFFFFFFFFFF AND DUP2 MSTORE PUSH1 0x20 ADD SWAP1 DUP2 MSTORE PUSH1 0x20 ADD PUSH1 0x0 KECCAK256 PUSH1 0x0 PUSH2 0x100 EXP DUP2 SLOAD DUP2 PUSH1 0xFF MUL NOT AND SWAP1 DUP4 ISZERO ISZERO MUL OR SWAP1 SSTORE POP PUSH1 0x4 PUSH1 0x0 CALLER PUSH20 0xFFFFFFFFFFFFFFFFFFFFFFFFFFFFFFFFFFFFFFFF AND PUSH20 0xFFFFFFFFFFFFFFFFFFFFFFFFFFFFFFFFFFFFFFFF AND DUP2 MSTORE PUSH1 0x20 ADD SWAP1 DUP2 MSTORE PUSH1 0x20 ADD PUSH1 0x0 KECCAK256 SLOAD DUP2 PUSH1 0x3 ADD PUSH1 0x0 DUP3 DUP3 SLOAD PUSH2 0x838 SWAP2 SWAP1 PUSH2 0xBBD JUMP JUMPDEST SWAP3 POP POP DUP2 SWAP1 SSTORE POP POP POP JUMP JUMPDEST DUP3 DUP1 SLOAD PUSH2 0x84F SWAP1 PUSH2 0xCE0 JUMP JUMPDEST SWAP1 PUSH1 0x0 MSTORE PUSH1 0x20 PUSH1 0x0 KECCAK256 SWAP1 PUSH1 0x1F ADD PUSH1 0x20 SWAP1 DIV DUP2 ADD SWAP3 DUP3 PUSH2 0x871 JUMPI PUSH1 0x0 DUP6 SSTORE PUSH2 0x8B8 JUMP JUMPDEST DUP3 PUSH1 0x1F LT PUSH2 0x88A JUMPI DUP1 MLOAD PUSH1 0xFF NOT AND DUP4 DUP1 ADD OR DUP6 SSTORE PUSH2 0x8B8 JUMP JUMPDEST DUP3 DUP1 ADD PUSH1 0x1 ADD DUP6 SSTORE DUP3 ISZERO PUSH2 0x8B8 JUMPI SWAP2 DUP3 ADD JUMPDEST DUP3 DUP2 GT ISZERO PUSH2 0x8B7 JUMPI DUP3 MLOAD DUP3 SSTORE SWAP2 PUSH1 0x20 ADD SWAP2 SWAP1 PUSH1 0x1 ADD SWAP1 PUSH2 0x89C JUMP JUMPDEST JUMPDEST POP SWAP1 POP PUSH2 0x8C5 SWAP2 SWAP1 PUSH2 0x8C9 JUMP JUMPDEST POP SWAP1 JUMP JUMPDEST JUMPDEST DUP1 DUP3 GT ISZERO PUSH2 0x8E2 JUMPI PUSH1 0x0 DUP2 PUSH1 0x0 SWAP1 SSTORE POP PUSH1 0x1 ADD PUSH2 0x8CA JUMP JUMPDEST POP SWAP1 JUMP JUMPDEST PUSH1 0x0 PUSH2 0x8F9 PUSH2 0x8F4 DUP5 PUSH2 0xB70 JUMP JUMPDEST PUSH2 0xB4B JUMP JUMPDEST SWAP1 POP DUP3 DUP2 MSTORE PUSH1 0x20 DUP2 ADD DUP5 DUP5 DUP5 ADD GT ISZERO PUSH2 0x911 JUMPI PUSH1 0x0 DUP1 REVERT JUMPDEST PUSH2 0x91C DUP5 DUP3 DUP6 PUSH2 0xC9E JUMP JUMPDEST POP SWAP4 SWAP3 POP POP POP JUMP JUMPDEST PUSH1 0x0 DUP2 CALLDATALOAD SWAP1 POP PUSH2 0x933 DUP2 PUSH2 0xE8A JUMP JUMPDEST SWAP3 SWAP2 POP POP JUMP JUMPDEST PUSH1 0x0 DUP2 CALLDATALOAD SWAP1 POP PUSH2 0x948 DUP2 PUSH2 0xEA1 JUMP JUMPDEST SWAP3 SWAP2 POP POP JUMP JUMPDEST PUSH1 0x0 DUP3 PUSH1 0x1F DUP4 ADD SLT PUSH2 0x95F JUMPI PUSH1 0x0 DUP1 REVERT JUMPDEST DUP2 CALLDATALOAD PUSH2 0x96F DUP5 DUP3 PUSH1 0x20 DUP7 ADD PUSH2 0x8E6 JUMP JUMPDEST SWAP2 POP POP SWAP3 SWAP2 POP POP JUMP JUMPDEST PUSH1 0x0 DUP2 CALLDATALOAD SWAP1 POP PUSH2 0x987 DUP2 PUSH2 0xEB8 JUMP JUMPDEST SWAP3 SWAP2 POP POP JUMP JUMPDEST PUSH1 0x0 PUSH1 0x20 DUP3 DUP5 SUB SLT ISZERO PUSH2 0x99F JUMPI PUSH1 0x0 DUP1 REVERT JUMPDEST PUSH1 0x0 PUSH2 0x9AD DUP5 DUP3 DUP6 ADD PUSH2 0x924 JUMP JUMPDEST SWAP2 POP POP SWAP3 SWAP2 POP POP JUMP JUMPDEST PUSH1 0x0 DUP1 PUSH1 0x0 PUSH1 0x60 DUP5 DUP7 SUB SLT ISZERO PUSH2 0x9CB JUMPI PUSH1 0x0 DUP1 REVERT JUMPDEST PUSH1 0x0 DUP5 ADD CALLDATALOAD PUSH8 0xFFFFFFFFFFFFFFFF DUP2 GT ISZERO PUSH2 0x9E5 JUMPI PUSH1 0x0 DUP1 REVERT JUMPDEST PUSH2 0x9F1 DUP7 DUP3 DUP8 ADD PUSH2 0x94E JUMP JUMPDEST SWAP4 POP POP PUSH1 0x20 PUSH2 0xA02 DUP7 DUP3 DUP8 ADD PUSH2 0x978 JUMP JUMPDEST SWAP3 POP POP PUSH1 0x40 PUSH2 0xA13 DUP7 DUP3 DUP8 ADD PUSH2 0x939 JUMP JUMPDEST SWAP2 POP POP SWAP3 POP SWAP3 POP SWAP3 JUMP JUMPDEST PUSH1 0x0 PUSH1 0x20 DUP3 DUP5 SUB SLT ISZERO PUSH2 0xA2F JUMPI PUSH1 0x0 DUP1 REVERT JUMPDEST PUSH1 0x0 PUSH2 0xA3D DUP5 DUP3 DUP6 ADD PUSH2 0x978 JUMP JUMPDEST SWAP2 POP POP SWAP3 SWAP2 POP POP JUMP JUMPDEST PUSH2 0xA4F DUP2 PUSH2 0xC56 JUMP JUMPDEST DUP3 MSTORE POP POP JUMP JUMPDEST PUSH2 0xA5E DUP2 PUSH2 0xC44 JUMP JUMPDEST DUP3 MSTORE POP POP JUMP JUMPDEST PUSH2 0xA6D DUP2 PUSH2 0xC68 JUMP JUMPDEST DUP3 MSTORE POP POP JUMP JUMPDEST PUSH1 0x0 PUSH2 0xA7E DUP3 PUSH2 0xBA1 JUMP JUMPDEST PUSH2 0xA88 DUP2 DUP6 PUSH2 0xBAC JUMP JUMPDEST SWAP4 POP PUSH2 0xA98 DUP2 DUP6 PUSH1 0x20 DUP7 ADD PUSH2 0xCAD JUMP JUMPDEST PUSH2 0xAA1 DUP2 PUSH2 0xE79 JUMP JUMPDEST DUP5 ADD SWAP2 POP POP SWAP3 SWAP2 POP POP JUMP JUMPDEST PUSH2 0xAB5 DUP2 PUSH2 0xC94 JUMP JUMPDEST DUP3 MSTORE POP POP JUMP JUMPDEST PUSH1 0x0 PUSH1 0x20 DUP3 ADD SWAP1 POP PUSH2 0xAD0 PUSH1 0x0 DUP4 ADD DUP5 PUSH2 0xA55 JUMP JUMPDEST SWAP3 SWAP2 POP POP JUMP JUMPDEST PUSH1 0x0 PUSH1 0xA0 DUP3 ADD SWAP1 POP DUP2 DUP2 SUB PUSH1 0x0 DUP4 ADD MSTORE PUSH2 0xAF0 DUP2 DUP9 PUSH2 0xA73 JUMP JUMPDEST SWAP1 POP PUSH2 0xAFF PUSH1 0x20 DUP4 ADD DUP8 PUSH2 0xAAC JUMP JUMPDEST PUSH2 0xB0C PUSH1 0x40 DUP4 ADD DUP7 PUSH2 0xA46 JUMP JUMPDEST PUSH2 0xB19 PUSH1 0x60 DUP4 ADD DUP6 PUSH2 0xA64 JUMP JUMPDEST PUSH2 0xB26 PUSH1 0x80 DUP4 ADD DUP5 PUSH2 0xAAC JUMP JUMPDEST SWAP7 SWAP6 POP POP POP POP POP POP JUMP JUMPDEST PUSH1 0x0 PUSH1 0x20 DUP3 ADD SWAP1 POP PUSH2 0xB45 PUSH1 0x0 DUP4 ADD DUP5 PUSH2 0xAAC JUMP JUMPDEST SWAP3 SWAP2 POP POP JUMP JUMPDEST PUSH1 0x0 PUSH2 0xB55 PUSH2 0xB66 JUMP JUMPDEST SWAP1 POP PUSH2 0xB61 DUP3 DUP3 PUSH2 0xD12 JUMP JUMPDEST SWAP2 SWAP1 POP JUMP JUMPDEST PUSH1 0x0 PUSH1 0x40 MLOAD SWAP1 POP SWAP1 JUMP JUMPDEST PUSH1 0x0 PUSH8 0xFFFFFFFFFFFFFFFF DUP3 GT ISZERO PUSH2 0xB8B JUMPI PUSH2 0xB8A PUSH2 0xE4A JUMP JUMPDEST JUMPDEST PUSH2 0xB94 DUP3 PUSH2 0xE79 JUMP JUMPDEST SWAP1 POP PUSH1 0x20 DUP2 ADD SWAP1 POP SWAP2 SWAP1 POP JUMP JUMPDEST PUSH1 0x0 DUP2 MLOAD SWAP1 POP SWAP2 SWAP1 POP JUMP JUMPDEST PUSH1 0x0 DUP3 DUP3 MSTORE PUSH1 0x20 DUP3 ADD SWAP1 POP SWAP3 SWAP2 POP POP JUMP JUMPDEST PUSH1 0x0 PUSH2 0xBC8 DUP3 PUSH2 0xC94 JUMP JUMPDEST SWAP2 POP PUSH2 0xBD3 DUP4 PUSH2 0xC94 JUMP JUMPDEST SWAP3 POP DUP3 PUSH32 0xFFFFFFFFFFFFFFFFFFFFFFFFFFFFFFFFFFFFFFFFFFFFFFFFFFFFFFFFFFFFFFFF SUB DUP3 GT ISZERO PUSH2 0xC08 JUMPI PUSH2 0xC07 PUSH2 0xDBD JUMP JUMPDEST JUMPDEST DUP3 DUP3 ADD SWAP1 POP SWAP3 SWAP2 POP POP JUMP JUMPDEST PUSH1 0x0 PUSH2 0xC1E DUP3 PUSH2 0xC94 JUMP JUMPDEST SWAP2 POP PUSH2 0xC29 DUP4 PUSH2 0xC94 JUMP JUMPDEST SWAP3 POP DUP3 PUSH2 0xC39 JUMPI PUSH2 0xC38 PUSH2 0xDEC JUMP JUMPDEST JUMPDEST DUP3 DUP3 DIV SWAP1 POP SWAP3 SWAP2 POP POP JUMP JUMPDEST PUSH1 0x0 PUSH2 0xC4F DUP3 PUSH2 0xC74 JUMP JUMPDEST SWAP1 POP SWAP2 SWAP1 POP JUMP JUMPDEST PUSH1 0x0 PUSH2 0xC61 DUP3 PUSH2 0xC74 JUMP JUMPDEST SWAP1 POP SWAP2 SWAP1 POP JUMP JUMPDEST PUSH1 0x0 DUP2 ISZERO ISZERO SWAP1 POP SWAP2 SWAP1 POP JUMP JUMPDEST PUSH1 0x0 PUSH20 0xFFFFFFFFFFFFFFFFFFFFFFFFFFFFFFFFFFFFFFFF DUP3 AND SWAP1 POP SWAP2 SWAP1 POP JUMP JUMPDEST PUSH1 0x0 DUP2 SWAP1 POP SWAP2 SWAP1 POP JUMP JUMPDEST DUP3 DUP2 DUP4 CALLDATACOPY PUSH1 0x0 DUP4 DUP4 ADD MSTORE POP POP POP JUMP JUMPDEST PUSH1 0x0 JUMPDEST DUP4 DUP2 LT ISZERO PUSH2 0xCCB JUMPI DUP1 DUP3 ADD MLOAD DUP2 DUP5 ADD MSTORE PUSH1 0x20 DUP2 ADD SWAP1 POP PUSH2 0xCB0 JUMP JUMPDEST DUP4 DUP2 GT ISZERO PUSH2 0xCDA JUMPI PUSH1 0x0 DUP5 DUP5 ADD MSTORE JUMPDEST POP POP POP POP JUMP JUMPDEST PUSH1 0x0 PUSH1 0x2 DUP3 DIV SWAP1 POP PUSH1 0x1 DUP3 AND DUP1 PUSH2 0xCF8 JUMPI PUSH1 0x7F DUP3 AND SWAP2 POP JUMPDEST PUSH1 0x20 DUP3 LT DUP2 EQ ISZERO PUSH2 0xD0C JUMPI PUSH2 0xD0B PUSH2 0xE1B JUMP JUMPDEST JUMPDEST POP SWAP2 SWAP1 POP JUMP JUMPDEST PUSH2 0xD1B DUP3 PUSH2 0xE79 JUMP JUMPDEST DUP2 ADD DUP2 DUP2 LT PUSH8 0xFFFFFFFFFFFFFFFF DUP3 GT OR ISZERO PUSH2 0xD3A JUMPI PUSH2 0xD39 PUSH2 0xE4A JUMP JUMPDEST JUMPDEST DUP1 PUSH1 0x40 MSTORE POP POP POP JUMP JUMPDEST PUSH1 0x0 PUSH2 0xD4E DUP3 PUSH2 0xC94 JUMP JUMPDEST SWAP2 POP PUSH32 0xFFFFFFFFFFFFFFFFFFFFFFFFFFFFFFFFFFFFFFFFFFFFFFFFFFFFFFFFFFFFFFFF DUP3 EQ ISZERO PUSH2 0xD81 JUMPI PUSH2 0xD80 PUSH2 0xDBD JUMP JUMPDEST JUMPDEST PUSH1 0x1 DUP3 ADD SWAP1 POP SWAP2 SWAP1 POP JUMP JUMPDEST PUSH1 0x0 PUSH2 0xD97 DUP3 PUSH2 0xC94 JUMP JUMPDEST SWAP2 POP PUSH2 0xDA2 DUP4 PUSH2 0xC94 JUMP JUMPDEST SWAP3 POP DUP3 PUSH2 0xDB2 JUMPI PUSH2 0xDB1 PUSH2 0xDEC JUMP JUMPDEST JUMPDEST DUP3 DUP3 MOD SWAP1 POP SWAP3 SWAP2 POP POP JUMP JUMPDEST PUSH32 0x4E487B7100000000000000000000000000000000000000000000000000000000 PUSH1 0x0 MSTORE PUSH1 0x11 PUSH1 0x4 MSTORE PUSH1 0x24 PUSH1 0x0 REVERT JUMPDEST PUSH32 0x4E487B7100000000000000000000000000000000000000000000000000000000 PUSH1 0x0 MSTORE PUSH1 0x12 PUSH1 0x4 MSTORE PUSH1 0x24 PUSH1 0x0 REVERT JUMPDEST PUSH32 0x4E487B7100000000000000000000000000000000000000000000000000000000 PUSH1 0x0 MSTORE PUSH1 0x22 PUSH1 0x4 MSTORE PUSH1 0x24 PUSH1 0x0 REVERT JUMPDEST PUSH32 0x4E487B7100000000000000000000000000000000000000000000000000000000 PUSH1 0x0 MSTORE PUSH1 0x41 PUSH1 0x4 MSTORE PUSH1 0x24 PUSH1 0x0 REVERT JUMPDEST PUSH1 0x0 PUSH1 0x1F NOT PUSH1 0x1F DUP4 ADD AND SWAP1 POP SWAP2 SWAP1 POP JUMP JUMPDEST PUSH2 0xE93 DUP2 PUSH2 0xC44 JUMP JUMPDEST DUP2 EQ PUSH2 0xE9E JUMPI PUSH1 0x0 DUP1 REVERT JUMPDEST POP JUMP JUMPDEST PUSH2 0xEAA DUP2 PUSH2 0xC56 JUMP JUMPDEST DUP2 EQ PUSH2 0xEB5 JUMPI PUSH1 0x0 DUP1 REVERT JUMPDEST POP JUMP JUMPDEST PUSH2 0xEC1 DUP2 PUSH2 0xC94 JUMP JUMPDEST DUP2 EQ PUSH2 0xECC JUMPI PUSH1 0x0 DUP1 REVERT JUMPDEST POP JUMP INVALID LOG2 PUSH5 0x6970667358 0x22 SLT KECCAK256 MUL PUSH3 0xAA1F3D DIV SWAP15 0xB9 PUSH21 0x7D16285E3382D43F6AAC80A7B5EF22C9754F26FAB7 0xE2 SELFBALANCE PUSH5 0x736F6C6343 STOP ADDMOD SUB STOP CALLER LOG2 PUSH5 0x6970667358 0x22 SLT KECCAK256 0x5D GAS PUSH32 0xE926063F32C43E14B50093B7D50E00F60714D5AC49F77FEB8E9F27705964736F PUSH13 0x63430008030033000000000000 "},"gasEstimates":{"creation":{"codeDepositCost":"1069600","executionCost":"1114","totalCost":"1070714"},"external":{"createCampaign(uint256)":"infinite","deployedIdeas(uint256)":"2421","getDeployedIdeas()":"infinite"}},"methodIdentifiers":{"createCampaign(uint256)":"a3303a75","deployedIdeas(uint256)":"f739bf4d","getDeployedIdeas()":"e4293559"}},"storageLayout":{"storage":[{"astId":5,"contract":"Idea.sol:IdeaFactory","label":"deployedIdeas","offset":0,"slot":"0","type":"t_array(t_contract(Idea)299)dyn_storage"}],"types":{"t_array(t_contract(Idea)299)dyn_storage":{"base":"t_contract(Idea)299","encoding":"dynamic_array","label":"contract Idea[]","numberOfBytes":"32"},"t_contract(Idea)299":{"encoding":"inplace","label":"contract Idea","numberOfBytes":"20"}}},"userdoc":{"kind":"user","methods":{},"version":1}}