{"abi":[{"inputs":[{"internalType":"uint256","name":"minimum","type":"uint256"},{"internalType":"string","name":"name","type":"string"},{"internalType":"string","name":"shortDescription","type":"string"},{"internalType":"string","name":"description","type":"string"}],"name":"createIdea","outputs":[],"stateMutability":"nonpayable","type":"function"},{"inputs":[{"internalType":"uint256","name":"","type":"uint256"}],"name":"deployedIdeas","outputs":[{"internalType":"contract Idea","name":"","type":"address"}],"stateMutability":"view","type":"function"},{"inputs":[],"name":"getDeployedIdeas","outputs":[{"internalType":"contract Idea[]","name":"","type":"address[]"}],"stateMutability":"view","type":"function"}],"devdoc":{"kind":"dev","methods":{},"version":1},"evm":{"assembly":"    /* \"Idea.sol\":25:450  contract IdeaFactory {... */\n  mstore(0x40, 0x80)\n  callvalue\n  dup1\n  iszero\n  tag_1\n  jumpi\n  0x00\n  dup1\n  revert\ntag_1:\n  pop\n  dataSize(sub_0)\n  dup1\n  dataOffset(sub_0)\n  0x00\n  codecopy\n  0x00\n  return\nstop\n\nsub_0: assembly {\n        /* \"Idea.sol\":25:450  contract IdeaFactory {... */\n      mstore(0x40, 0x80)\n      callvalue\n      dup1\n      iszero\n      tag_1\n      jumpi\n      0x00\n      dup1\n      revert\n    tag_1:\n      pop\n      jumpi(tag_2, lt(calldatasize, 0x04))\n      shr(0xe0, calldataload(0x00))\n      dup1\n      0x702107a2\n      eq\n      tag_3\n      jumpi\n      dup1\n      0xe4293559\n      eq\n      tag_4\n      jumpi\n      dup1\n      0xf739bf4d\n      eq\n      tag_5\n      jumpi\n    tag_2:\n      0x00\n      dup1\n      revert\n        /* \"Idea.sol\":86:341  function createIdea(uint minimum, string memory name, string memory shortDescription, string memory description) public {... */\n    tag_3:\n      tag_6\n      0x04\n      dup1\n      calldatasize\n      sub\n      dup2\n      add\n      swap1\n      tag_7\n      swap2\n      swap1\n      tag_8\n      jump\t// in\n    tag_7:\n      tag_9\n      jump\t// in\n    tag_6:\n      stop\n        /* \"Idea.sol\":347:448  function getDeployedIdeas() public view returns (Idea[] memory) {... */\n    tag_4:\n      tag_10\n      tag_11\n      jump\t// in\n    tag_10:\n      mload(0x40)\n      tag_12\n      swap2\n      swap1\n      tag_13\n      jump\t// in\n    tag_12:\n      mload(0x40)\n      dup1\n      swap2\n      sub\n      swap1\n      return\n        /* \"Idea.sol\":52:79  Idea[] public deployedIdeas */\n    tag_5:\n      tag_14\n      0x04\n      dup1\n      calldatasize\n      sub\n      dup2\n      add\n      swap1\n      tag_15\n      swap2\n      swap1\n      tag_16\n      jump\t// in\n    tag_15:\n      tag_17\n      jump\t// in\n    tag_14:\n      mload(0x40)\n      tag_18\n      swap2\n      swap1\n      tag_19\n      jump\t// in\n    tag_18:\n      mload(0x40)\n      dup1\n      swap2\n      sub\n      swap1\n      return\n        /* \"Idea.sol\":86:341  function createIdea(uint minimum, string memory name, string memory shortDescription, string memory description) public {... */\n    tag_9:\n        /* \"Idea.sol\":216:228  Idea newIdea */\n      0x00\n        /* \"Idea.sol\":240:247  minimum */\n      dup5\n        /* \"Idea.sol\":249:253  name */\n      dup5\n        /* \"Idea.sol\":255:271  shortDescription */\n      dup5\n        /* \"Idea.sol\":273:284  description */\n      dup5\n        /* \"Idea.sol\":286:296  msg.sender */\n      caller\n        /* \"Idea.sol\":231:297  new Idea(minimum, name, shortDescription, description, msg.sender) */\n      mload(0x40)\n      tag_21\n      swap1\n      tag_22\n      jump\t// in\n    tag_21:\n      tag_23\n      swap6\n      swap5\n      swap4\n      swap3\n      swap2\n      swap1\n      tag_24\n      jump\t// in\n    tag_23:\n      mload(0x40)\n      dup1\n      swap2\n      sub\n      swap1\n      0x00\n      create\n      dup1\n      iszero\n      dup1\n      iszero\n      tag_25\n      jumpi\n      returndatasize\n      0x00\n      dup1\n      returndatacopy\n      revert(0x00, returndatasize)\n    tag_25:\n      pop\n        /* \"Idea.sol\":216:297  Idea newIdea = new Idea(minimum, name, shortDescription, description, msg.sender) */\n      swap1\n      pop\n        /* \"Idea.sol\":307:320  deployedIdeas */\n      0x00\n        /* \"Idea.sol\":326:333  newIdea */\n      dup2\n        /* \"Idea.sol\":307:334  deployedIdeas.push(newIdea) */\n      swap1\n      dup1\n      0x01\n      dup2\n      sload\n      add\n      dup1\n      dup3\n      sstore\n      dup1\n      swap2\n      pop\n      pop\n      0x01\n      swap1\n      sub\n      swap1\n      0x00\n      mstore\n      keccak256(0x00, 0x20)\n      add\n      0x00\n      swap1\n      swap2\n      swap1\n      swap2\n      swap1\n      swap2\n      0x0100\n      exp\n      dup2\n      sload\n      dup2\n      0xffffffffffffffffffffffffffffffffffffffff\n      mul\n      not\n      and\n      swap1\n      dup4\n      0xffffffffffffffffffffffffffffffffffffffff\n      and\n      mul\n      or\n      swap1\n      sstore\n      pop\n        /* \"Idea.sol\":86:341  function createIdea(uint minimum, string memory name, string memory shortDescription, string memory description) public {... */\n      pop\n      pop\n      pop\n      pop\n      pop\n      jump\t// out\n        /* \"Idea.sol\":347:448  function getDeployedIdeas() public view returns (Idea[] memory) {... */\n    tag_11:\n        /* \"Idea.sol\":396:409  Idea[] memory */\n      0x60\n        /* \"Idea.sol\":428:441  deployedIdeas */\n      0x00\n        /* \"Idea.sol\":421:441  return deployedIdeas */\n      dup1\n      sload\n      dup1\n      0x20\n      mul\n      0x20\n      add\n      mload(0x40)\n      swap1\n      dup2\n      add\n      0x40\n      mstore\n      dup1\n      swap3\n      swap2\n      swap1\n      dup2\n      dup2\n      mstore\n      0x20\n      add\n      dup3\n      dup1\n      sload\n      dup1\n      iszero\n      tag_28\n      jumpi\n      0x20\n      mul\n      dup3\n      add\n      swap2\n      swap1\n      0x00\n      mstore\n      keccak256(0x00, 0x20)\n      swap1\n    tag_29:\n      dup2\n      0x00\n      swap1\n      sload\n      swap1\n      0x0100\n      exp\n      swap1\n      div\n      0xffffffffffffffffffffffffffffffffffffffff\n      and\n      0xffffffffffffffffffffffffffffffffffffffff\n      and\n      dup2\n      mstore\n      0x20\n      add\n      swap1\n      0x01\n      add\n      swap1\n      dup1\n      dup4\n      gt\n      tag_29\n      jumpi\n    tag_28:\n      pop\n      pop\n      pop\n      pop\n      pop\n      swap1\n      pop\n        /* \"Idea.sol\":347:448  function getDeployedIdeas() public view returns (Idea[] memory) {... */\n      swap1\n      jump\t// out\n        /* \"Idea.sol\":52:79  Idea[] public deployedIdeas */\n    tag_17:\n      0x00\n      dup2\n      dup2\n      sload\n      dup2\n      lt\n      tag_30\n      jumpi\n      0x00\n      dup1\n      revert\n    tag_30:\n      swap1\n      0x00\n      mstore\n      keccak256(0x00, 0x20)\n      add\n      0x00\n      swap2\n      pop\n      sload\n      swap1\n      0x0100\n      exp\n      swap1\n      div\n      0xffffffffffffffffffffffffffffffffffffffff\n      and\n      dup2\n      jump\t// out\n    tag_22:\n      dataSize(sub_0)\n      dup1\n      dataOffset(sub_0)\n      dup4\n      codecopy\n      add\n      swap1\n      jump\t// out\n        /* \"#utility.yul\":7:352   */\n    tag_33:\n      0x00\n        /* \"#utility.yul\":110:176   */\n      tag_35\n        /* \"#utility.yul\":126:175   */\n      tag_36\n        /* \"#utility.yul\":168:174   */\n      dup5\n        /* \"#utility.yul\":126:175   */\n      tag_37\n      jump\t// in\n    tag_36:\n        /* \"#utility.yul\":110:176   */\n      tag_38\n      jump\t// in\n    tag_35:\n        /* \"#utility.yul\":101:176   */\n      swap1\n      pop\n        /* \"#utility.yul\":199:205   */\n      dup3\n        /* \"#utility.yul\":192:197   */\n      dup2\n        /* \"#utility.yul\":185:206   */\n      mstore\n        /* \"#utility.yul\":237:241   */\n      0x20\n        /* \"#utility.yul\":230:235   */\n      dup2\n        /* \"#utility.yul\":226:242   */\n      add\n        /* \"#utility.yul\":275:278   */\n      dup5\n        /* \"#utility.yul\":266:272   */\n      dup5\n        /* \"#utility.yul\":261:264   */\n      dup5\n        /* \"#utility.yul\":257:273   */\n      add\n        /* \"#utility.yul\":254:279   */\n      gt\n        /* \"#utility.yul\":251:253   */\n      iszero\n      tag_39\n      jumpi\n        /* \"#utility.yul\":292:293   */\n      0x00\n        /* \"#utility.yul\":289:290   */\n      dup1\n        /* \"#utility.yul\":282:294   */\n      revert\n        /* \"#utility.yul\":251:253   */\n    tag_39:\n        /* \"#utility.yul\":305:346   */\n      tag_40\n        /* \"#utility.yul\":339:345   */\n      dup5\n        /* \"#utility.yul\":334:337   */\n      dup3\n        /* \"#utility.yul\":329:332   */\n      dup6\n        /* \"#utility.yul\":305:346   */\n      tag_41\n      jump\t// in\n    tag_40:\n        /* \"#utility.yul\":91:352   */\n      pop\n      swap4\n      swap3\n      pop\n      pop\n      pop\n      jump\t// out\n        /* \"#utility.yul\":372:645   */\n    tag_42:\n      0x00\n        /* \"#utility.yul\":477:480   */\n      dup3\n        /* \"#utility.yul\":470:474   */\n      0x1f\n        /* \"#utility.yul\":462:468   */\n      dup4\n        /* \"#utility.yul\":458:475   */\n      add\n        /* \"#utility.yul\":454:481   */\n      slt\n        /* \"#utility.yul\":444:446   */\n      tag_44\n      jumpi\n        /* \"#utility.yul\":495:496   */\n      0x00\n        /* \"#utility.yul\":492:493   */\n      dup1\n        /* \"#utility.yul\":485:497   */\n      revert\n        /* \"#utility.yul\":444:446   */\n    tag_44:\n        /* \"#utility.yul\":535:541   */\n      dup2\n        /* \"#utility.yul\":522:542   */\n      calldataload\n        /* \"#utility.yul\":560:639   */\n      tag_45\n        /* \"#utility.yul\":635:638   */\n      dup5\n        /* \"#utility.yul\":627:633   */\n      dup3\n        /* \"#utility.yul\":620:624   */\n      0x20\n        /* \"#utility.yul\":612:618   */\n      dup7\n        /* \"#utility.yul\":608:625   */\n      add\n        /* \"#utility.yul\":560:639   */\n      tag_33\n      jump\t// in\n    tag_45:\n        /* \"#utility.yul\":551:639   */\n      swap2\n      pop\n        /* \"#utility.yul\":434:645   */\n      pop\n      swap3\n      swap2\n      pop\n      pop\n      jump\t// out\n        /* \"#utility.yul\":651:790   */\n    tag_46:\n      0x00\n        /* \"#utility.yul\":735:741   */\n      dup2\n        /* \"#utility.yul\":722:742   */\n      calldataload\n        /* \"#utility.yul\":713:742   */\n      swap1\n      pop\n        /* \"#utility.yul\":751:784   */\n      tag_48\n        /* \"#utility.yul\":778:783   */\n      dup2\n        /* \"#utility.yul\":751:784   */\n      tag_49\n      jump\t// in\n    tag_48:\n        /* \"#utility.yul\":703:790   */\n      swap3\n      swap2\n      pop\n      pop\n      jump\t// out\n        /* \"#utility.yul\":796:1058   */\n    tag_16:\n      0x00\n        /* \"#utility.yul\":904:906   */\n      0x20\n        /* \"#utility.yul\":892:901   */\n      dup3\n        /* \"#utility.yul\":883:890   */\n      dup5\n        /* \"#utility.yul\":879:902   */\n      sub\n        /* \"#utility.yul\":875:907   */\n      slt\n        /* \"#utility.yul\":872:874   */\n      iszero\n      tag_51\n      jumpi\n        /* \"#utility.yul\":920:921   */\n      0x00\n        /* \"#utility.yul\":917:918   */\n      dup1\n        /* \"#utility.yul\":910:922   */\n      revert\n        /* \"#utility.yul\":872:874   */\n    tag_51:\n        /* \"#utility.yul\":963:964   */\n      0x00\n        /* \"#utility.yul\":988:1041   */\n      tag_52\n        /* \"#utility.yul\":1033:1040   */\n      dup5\n        /* \"#utility.yul\":1024:1030   */\n      dup3\n        /* \"#utility.yul\":1013:1022   */\n      dup6\n        /* \"#utility.yul\":1009:1031   */\n      add\n        /* \"#utility.yul\":988:1041   */\n      tag_46\n      jump\t// in\n    tag_52:\n        /* \"#utility.yul\":978:1041   */\n      swap2\n      pop\n        /* \"#utility.yul\":934:1051   */\n      pop\n        /* \"#utility.yul\":862:1058   */\n      swap3\n      swap2\n      pop\n      pop\n      jump\t// out\n        /* \"#utility.yul\":1064:2101   */\n    tag_8:\n      0x00\n      dup1\n      0x00\n      dup1\n        /* \"#utility.yul\":1253:1256   */\n      0x80\n        /* \"#utility.yul\":1241:1250   */\n      dup6\n        /* \"#utility.yul\":1232:1239   */\n      dup8\n        /* \"#utility.yul\":1228:1251   */\n      sub\n        /* \"#utility.yul\":1224:1257   */\n      slt\n        /* \"#utility.yul\":1221:1223   */\n      iszero\n      tag_54\n      jumpi\n        /* \"#utility.yul\":1270:1271   */\n      0x00\n        /* \"#utility.yul\":1267:1268   */\n      dup1\n        /* \"#utility.yul\":1260:1272   */\n      revert\n        /* \"#utility.yul\":1221:1223   */\n    tag_54:\n        /* \"#utility.yul\":1313:1314   */\n      0x00\n        /* \"#utility.yul\":1338:1391   */\n      tag_55\n        /* \"#utility.yul\":1383:1390   */\n      dup8\n        /* \"#utility.yul\":1374:1380   */\n      dup3\n        /* \"#utility.yul\":1363:1372   */\n      dup9\n        /* \"#utility.yul\":1359:1381   */\n      add\n        /* \"#utility.yul\":1338:1391   */\n      tag_46\n      jump\t// in\n    tag_55:\n        /* \"#utility.yul\":1328:1391   */\n      swap5\n      pop\n        /* \"#utility.yul\":1284:1401   */\n      pop\n        /* \"#utility.yul\":1468:1470   */\n      0x20\n        /* \"#utility.yul\":1457:1466   */\n      dup6\n        /* \"#utility.yul\":1453:1471   */\n      add\n        /* \"#utility.yul\":1440:1472   */\n      calldataload\n        /* \"#utility.yul\":1499:1517   */\n      0xffffffffffffffff\n        /* \"#utility.yul\":1491:1497   */\n      dup2\n        /* \"#utility.yul\":1488:1518   */\n      gt\n        /* \"#utility.yul\":1485:1487   */\n      iszero\n      tag_56\n      jumpi\n        /* \"#utility.yul\":1531:1532   */\n      0x00\n        /* \"#utility.yul\":1528:1529   */\n      dup1\n        /* \"#utility.yul\":1521:1533   */\n      revert\n        /* \"#utility.yul\":1485:1487   */\n    tag_56:\n        /* \"#utility.yul\":1559:1622   */\n      tag_57\n        /* \"#utility.yul\":1614:1621   */\n      dup8\n        /* \"#utility.yul\":1605:1611   */\n      dup3\n        /* \"#utility.yul\":1594:1603   */\n      dup9\n        /* \"#utility.yul\":1590:1612   */\n      add\n        /* \"#utility.yul\":1559:1622   */\n      tag_42\n      jump\t// in\n    tag_57:\n        /* \"#utility.yul\":1549:1622   */\n      swap4\n      pop\n        /* \"#utility.yul\":1411:1632   */\n      pop\n        /* \"#utility.yul\":1699:1701   */\n      0x40\n        /* \"#utility.yul\":1688:1697   */\n      dup6\n        /* \"#utility.yul\":1684:1702   */\n      add\n        /* \"#utility.yul\":1671:1703   */\n      calldataload\n        /* \"#utility.yul\":1730:1748   */\n      0xffffffffffffffff\n        /* \"#utility.yul\":1722:1728   */\n      dup2\n        /* \"#utility.yul\":1719:1749   */\n      gt\n        /* \"#utility.yul\":1716:1718   */\n      iszero\n      tag_58\n      jumpi\n        /* \"#utility.yul\":1762:1763   */\n      0x00\n        /* \"#utility.yul\":1759:1760   */\n      dup1\n        /* \"#utility.yul\":1752:1764   */\n      revert\n        /* \"#utility.yul\":1716:1718   */\n    tag_58:\n        /* \"#utility.yul\":1790:1853   */\n      tag_59\n        /* \"#utility.yul\":1845:1852   */\n      dup8\n        /* \"#utility.yul\":1836:1842   */\n      dup3\n        /* \"#utility.yul\":1825:1834   */\n      dup9\n        /* \"#utility.yul\":1821:1843   */\n      add\n        /* \"#utility.yul\":1790:1853   */\n      tag_42\n      jump\t// in\n    tag_59:\n        /* \"#utility.yul\":1780:1853   */\n      swap3\n      pop\n        /* \"#utility.yul\":1642:1863   */\n      pop\n        /* \"#utility.yul\":1930:1932   */\n      0x60\n        /* \"#utility.yul\":1919:1928   */\n      dup6\n        /* \"#utility.yul\":1915:1933   */\n      add\n        /* \"#utility.yul\":1902:1934   */\n      calldataload\n        /* \"#utility.yul\":1961:1979   */\n      0xffffffffffffffff\n        /* \"#utility.yul\":1953:1959   */\n      dup2\n        /* \"#utility.yul\":1950:1980   */\n      gt\n        /* \"#utility.yul\":1947:1949   */\n      iszero\n      tag_60\n      jumpi\n        /* \"#utility.yul\":1993:1994   */\n      0x00\n        /* \"#utility.yul\":1990:1991   */\n      dup1\n        /* \"#utility.yul\":1983:1995   */\n      revert\n        /* \"#utility.yul\":1947:1949   */\n    tag_60:\n        /* \"#utility.yul\":2021:2084   */\n      tag_61\n        /* \"#utility.yul\":2076:2083   */\n      dup8\n        /* \"#utility.yul\":2067:2073   */\n      dup3\n        /* \"#utility.yul\":2056:2065   */\n      dup9\n        /* \"#utility.yul\":2052:2074   */\n      add\n        /* \"#utility.yul\":2021:2084   */\n      tag_42\n      jump\t// in\n    tag_61:\n        /* \"#utility.yul\":2011:2084   */\n      swap2\n      pop\n        /* \"#utility.yul\":1873:2094   */\n      pop\n        /* \"#utility.yul\":1211:2101   */\n      swap3\n      swap6\n      swap2\n      swap5\n      pop\n      swap3\n      pop\n      jump\t// out\n        /* \"#utility.yul\":2107:2310   */\n    tag_62:\n      0x00\n        /* \"#utility.yul\":2209:2267   */\n      tag_64\n        /* \"#utility.yul\":2263:2266   */\n      dup4\n        /* \"#utility.yul\":2255:2261   */\n      dup4\n        /* \"#utility.yul\":2209:2267   */\n      tag_65\n      jump\t// in\n    tag_64:\n        /* \"#utility.yul\":2299:2303   */\n      0x20\n        /* \"#utility.yul\":2294:2297   */\n      dup4\n        /* \"#utility.yul\":2290:2304   */\n      add\n        /* \"#utility.yul\":2276:2304   */\n      swap1\n      pop\n        /* \"#utility.yul\":2199:2310   */\n      swap3\n      swap2\n      pop\n      pop\n      jump\t// out\n        /* \"#utility.yul\":2316:2434   */\n    tag_66:\n        /* \"#utility.yul\":2403:2427   */\n      tag_68\n        /* \"#utility.yul\":2421:2426   */\n      dup2\n        /* \"#utility.yul\":2403:2427   */\n      tag_69\n      jump\t// in\n    tag_68:\n        /* \"#utility.yul\":2398:2401   */\n      dup3\n        /* \"#utility.yul\":2391:2428   */\n      mstore\n        /* \"#utility.yul\":2381:2434   */\n      pop\n      pop\n      jump\t// out\n        /* \"#utility.yul\":2476:3268   */\n    tag_70:\n      0x00\n        /* \"#utility.yul\":2636:2702   */\n      tag_72\n        /* \"#utility.yul\":2696:2701   */\n      dup3\n        /* \"#utility.yul\":2636:2702   */\n      tag_73\n      jump\t// in\n    tag_72:\n        /* \"#utility.yul\":2718:2804   */\n      tag_74\n        /* \"#utility.yul\":2797:2803   */\n      dup2\n        /* \"#utility.yul\":2792:2795   */\n      dup6\n        /* \"#utility.yul\":2718:2804   */\n      tag_75\n      jump\t// in\n    tag_74:\n        /* \"#utility.yul\":2711:2804   */\n      swap4\n      pop\n        /* \"#utility.yul\":2828:2896   */\n      tag_76\n        /* \"#utility.yul\":2890:2895   */\n      dup4\n        /* \"#utility.yul\":2828:2896   */\n      tag_77\n      jump\t// in\n    tag_76:\n        /* \"#utility.yul\":2919:2926   */\n      dup1\n        /* \"#utility.yul\":2950:2951   */\n      0x00\n        /* \"#utility.yul\":2935:3243   */\n    tag_78:\n        /* \"#utility.yul\":2960:2966   */\n      dup4\n        /* \"#utility.yul\":2957:2958   */\n      dup2\n        /* \"#utility.yul\":2954:2967   */\n      lt\n        /* \"#utility.yul\":2935:3243   */\n      iszero\n      tag_80\n      jumpi\n        /* \"#utility.yul\":3036:3042   */\n      dup2\n        /* \"#utility.yul\":3030:3043   */\n      mload\n        /* \"#utility.yul\":3063:3138   */\n      tag_81\n        /* \"#utility.yul\":3134:3137   */\n      dup9\n        /* \"#utility.yul\":3119:3132   */\n      dup3\n        /* \"#utility.yul\":3063:3138   */\n      tag_62\n      jump\t// in\n    tag_81:\n        /* \"#utility.yul\":3056:3138   */\n      swap8\n      pop\n        /* \"#utility.yul\":3161:3233   */\n      tag_82\n        /* \"#utility.yul\":3226:3232   */\n      dup4\n        /* \"#utility.yul\":3161:3233   */\n      tag_83\n      jump\t// in\n    tag_82:\n        /* \"#utility.yul\":3151:3233   */\n      swap3\n      pop\n        /* \"#utility.yul\":2995:3243   */\n      pop\n        /* \"#utility.yul\":2982:2983   */\n      0x01\n        /* \"#utility.yul\":2979:2980   */\n      dup2\n        /* \"#utility.yul\":2975:2984   */\n      add\n        /* \"#utility.yul\":2970:2984   */\n      swap1\n      pop\n        /* \"#utility.yul\":2935:3243   */\n      jump(tag_78)\n    tag_80:\n        /* \"#utility.yul\":2939:2953   */\n      pop\n        /* \"#utility.yul\":3259:3262   */\n      dup6\n        /* \"#utility.yul\":3252:3262   */\n      swap4\n      pop\n        /* \"#utility.yul\":2612:3268   */\n      pop\n      pop\n      pop\n      swap3\n      swap2\n      pop\n      pop\n      jump\t// out\n        /* \"#utility.yul\":3274:3419   */\n    tag_65:\n        /* \"#utility.yul\":3363:3412   */\n      tag_85\n        /* \"#utility.yul\":3406:3411   */\n      dup2\n        /* \"#utility.yul\":3363:3412   */\n      tag_86\n      jump\t// in\n    tag_85:\n        /* \"#utility.yul\":3358:3361   */\n      dup3\n        /* \"#utility.yul\":3351:3413   */\n      mstore\n        /* \"#utility.yul\":3341:3419   */\n      pop\n      pop\n      jump\t// out\n        /* \"#utility.yul\":3425:3580   */\n    tag_87:\n        /* \"#utility.yul\":3524:3573   */\n      tag_89\n        /* \"#utility.yul\":3567:3572   */\n      dup2\n        /* \"#utility.yul\":3524:3573   */\n      tag_86\n      jump\t// in\n    tag_89:\n        /* \"#utility.yul\":3519:3522   */\n      dup3\n        /* \"#utility.yul\":3512:3574   */\n      mstore\n        /* \"#utility.yul\":3502:3580   */\n      pop\n      pop\n      jump\t// out\n        /* \"#utility.yul\":3586:3950   */\n    tag_90:\n      0x00\n        /* \"#utility.yul\":3702:3741   */\n      tag_92\n        /* \"#utility.yul\":3735:3740   */\n      dup3\n        /* \"#utility.yul\":3702:3741   */\n      tag_93\n      jump\t// in\n    tag_92:\n        /* \"#utility.yul\":3757:3828   */\n      tag_94\n        /* \"#utility.yul\":3821:3827   */\n      dup2\n        /* \"#utility.yul\":3816:3819   */\n      dup6\n        /* \"#utility.yul\":3757:3828   */\n      tag_95\n      jump\t// in\n    tag_94:\n        /* \"#utility.yul\":3750:3828   */\n      swap4\n      pop\n        /* \"#utility.yul\":3837:3889   */\n      tag_96\n        /* \"#utility.yul\":3882:3888   */\n      dup2\n        /* \"#utility.yul\":3877:3880   */\n      dup6\n        /* \"#utility.yul\":3870:3874   */\n      0x20\n        /* \"#utility.yul\":3863:3868   */\n      dup7\n        /* \"#utility.yul\":3859:3875   */\n      add\n        /* \"#utility.yul\":3837:3889   */\n      tag_97\n      jump\t// in\n    tag_96:\n        /* \"#utility.yul\":3914:3943   */\n      tag_98\n        /* \"#utility.yul\":3936:3942   */\n      dup2\n        /* \"#utility.yul\":3914:3943   */\n      tag_99\n      jump\t// in\n    tag_98:\n        /* \"#utility.yul\":3909:3912   */\n      dup5\n        /* \"#utility.yul\":3905:3944   */\n      add\n        /* \"#utility.yul\":3898:3944   */\n      swap2\n      pop\n        /* \"#utility.yul\":3678:3950   */\n      pop\n      swap3\n      swap2\n      pop\n      pop\n      jump\t// out\n        /* \"#utility.yul\":3956:4074   */\n    tag_100:\n        /* \"#utility.yul\":4043:4067   */\n      tag_102\n        /* \"#utility.yul\":4061:4066   */\n      dup2\n        /* \"#utility.yul\":4043:4067   */\n      tag_103\n      jump\t// in\n    tag_102:\n        /* \"#utility.yul\":4038:4041   */\n      dup3\n        /* \"#utility.yul\":4031:4068   */\n      mstore\n        /* \"#utility.yul\":4021:4074   */\n      pop\n      pop\n      jump\t// out\n        /* \"#utility.yul\":4080:4477   */\n    tag_13:\n      0x00\n        /* \"#utility.yul\":4273:4275   */\n      0x20\n        /* \"#utility.yul\":4262:4271   */\n      dup3\n        /* \"#utility.yul\":4258:4276   */\n      add\n        /* \"#utility.yul\":4250:4276   */\n      swap1\n      pop\n        /* \"#utility.yul\":4322:4331   */\n      dup2\n        /* \"#utility.yul\":4316:4320   */\n      dup2\n        /* \"#utility.yul\":4312:4332   */\n      sub\n        /* \"#utility.yul\":4308:4309   */\n      0x00\n        /* \"#utility.yul\":4297:4306   */\n      dup4\n        /* \"#utility.yul\":4293:4310   */\n      add\n        /* \"#utility.yul\":4286:4333   */\n      mstore\n        /* \"#utility.yul\":4350:4470   */\n      tag_105\n        /* \"#utility.yul\":4465:4469   */\n      dup2\n        /* \"#utility.yul\":4456:4462   */\n      dup5\n        /* \"#utility.yul\":4350:4470   */\n      tag_70\n      jump\t// in\n    tag_105:\n        /* \"#utility.yul\":4342:4470   */\n      swap1\n      pop\n        /* \"#utility.yul\":4240:4477   */\n      swap3\n      swap2\n      pop\n      pop\n      jump\t// out\n        /* \"#utility.yul\":4483:4729   */\n    tag_19:\n      0x00\n        /* \"#utility.yul\":4626:4628   */\n      0x20\n        /* \"#utility.yul\":4615:4624   */\n      dup3\n        /* \"#utility.yul\":4611:4629   */\n      add\n        /* \"#utility.yul\":4603:4629   */\n      swap1\n      pop\n        /* \"#utility.yul\":4639:4722   */\n      tag_107\n        /* \"#utility.yul\":4719:4720   */\n      0x00\n        /* \"#utility.yul\":4708:4717   */\n      dup4\n        /* \"#utility.yul\":4704:4721   */\n      add\n        /* \"#utility.yul\":4695:4701   */\n      dup5\n        /* \"#utility.yul\":4639:4722   */\n      tag_87\n      jump\t// in\n    tag_107:\n        /* \"#utility.yul\":4593:4729   */\n      swap3\n      swap2\n      pop\n      pop\n      jump\t// out\n        /* \"#utility.yul\":4735:5672   */\n    tag_24:\n      0x00\n        /* \"#utility.yul\":5038:5041   */\n      0xa0\n        /* \"#utility.yul\":5027:5036   */\n      dup3\n        /* \"#utility.yul\":5023:5042   */\n      add\n        /* \"#utility.yul\":5015:5042   */\n      swap1\n      pop\n        /* \"#utility.yul\":5052:5123   */\n      tag_109\n        /* \"#utility.yul\":5120:5121   */\n      0x00\n        /* \"#utility.yul\":5109:5118   */\n      dup4\n        /* \"#utility.yul\":5105:5122   */\n      add\n        /* \"#utility.yul\":5096:5102   */\n      dup9\n        /* \"#utility.yul\":5052:5123   */\n      tag_100\n      jump\t// in\n    tag_109:\n        /* \"#utility.yul\":5170:5179   */\n      dup2\n        /* \"#utility.yul\":5164:5168   */\n      dup2\n        /* \"#utility.yul\":5160:5180   */\n      sub\n        /* \"#utility.yul\":5155:5157   */\n      0x20\n        /* \"#utility.yul\":5144:5153   */\n      dup4\n        /* \"#utility.yul\":5140:5158   */\n      add\n        /* \"#utility.yul\":5133:5181   */\n      mstore\n        /* \"#utility.yul\":5198:5276   */\n      tag_110\n        /* \"#utility.yul\":5271:5275   */\n      dup2\n        /* \"#utility.yul\":5262:5268   */\n      dup8\n        /* \"#utility.yul\":5198:5276   */\n      tag_90\n      jump\t// in\n    tag_110:\n        /* \"#utility.yul\":5190:5276   */\n      swap1\n      pop\n        /* \"#utility.yul\":5323:5332   */\n      dup2\n        /* \"#utility.yul\":5317:5321   */\n      dup2\n        /* \"#utility.yul\":5313:5333   */\n      sub\n        /* \"#utility.yul\":5308:5310   */\n      0x40\n        /* \"#utility.yul\":5297:5306   */\n      dup4\n        /* \"#utility.yul\":5293:5311   */\n      add\n        /* \"#utility.yul\":5286:5334   */\n      mstore\n        /* \"#utility.yul\":5351:5429   */\n      tag_111\n        /* \"#utility.yul\":5424:5428   */\n      dup2\n        /* \"#utility.yul\":5415:5421   */\n      dup7\n        /* \"#utility.yul\":5351:5429   */\n      tag_90\n      jump\t// in\n    tag_111:\n        /* \"#utility.yul\":5343:5429   */\n      swap1\n      pop\n        /* \"#utility.yul\":5476:5485   */\n      dup2\n        /* \"#utility.yul\":5470:5474   */\n      dup2\n        /* \"#utility.yul\":5466:5486   */\n      sub\n        /* \"#utility.yul\":5461:5463   */\n      0x60\n        /* \"#utility.yul\":5450:5459   */\n      dup4\n        /* \"#utility.yul\":5446:5464   */\n      add\n        /* \"#utility.yul\":5439:5487   */\n      mstore\n        /* \"#utility.yul\":5504:5582   */\n      tag_112\n        /* \"#utility.yul\":5577:5581   */\n      dup2\n        /* \"#utility.yul\":5568:5574   */\n      dup6\n        /* \"#utility.yul\":5504:5582   */\n      tag_90\n      jump\t// in\n    tag_112:\n        /* \"#utility.yul\":5496:5582   */\n      swap1\n      pop\n        /* \"#utility.yul\":5592:5665   */\n      tag_113\n        /* \"#utility.yul\":5660:5663   */\n      0x80\n        /* \"#utility.yul\":5649:5658   */\n      dup4\n        /* \"#utility.yul\":5645:5664   */\n      add\n        /* \"#utility.yul\":5636:5642   */\n      dup5\n        /* \"#utility.yul\":5592:5665   */\n      tag_66\n      jump\t// in\n    tag_113:\n        /* \"#utility.yul\":5005:5672   */\n      swap7\n      swap6\n      pop\n      pop\n      pop\n      pop\n      pop\n      pop\n      jump\t// out\n        /* \"#utility.yul\":5678:5807   */\n    tag_38:\n      0x00\n        /* \"#utility.yul\":5739:5759   */\n      tag_115\n      tag_116\n      jump\t// in\n    tag_115:\n        /* \"#utility.yul\":5729:5759   */\n      swap1\n      pop\n        /* \"#utility.yul\":5768:5801   */\n      tag_117\n        /* \"#utility.yul\":5796:5800   */\n      dup3\n        /* \"#utility.yul\":5788:5794   */\n      dup3\n        /* \"#utility.yul\":5768:5801   */\n      tag_118\n      jump\t// in\n    tag_117:\n        /* \"#utility.yul\":5719:5807   */\n      swap2\n      swap1\n      pop\n      jump\t// out\n        /* \"#utility.yul\":5813:5888   */\n    tag_116:\n      0x00\n        /* \"#utility.yul\":5879:5881   */\n      0x40\n        /* \"#utility.yul\":5873:5882   */\n      mload\n        /* \"#utility.yul\":5863:5882   */\n      swap1\n      pop\n        /* \"#utility.yul\":5853:5888   */\n      swap1\n      jump\t// out\n        /* \"#utility.yul\":5894:6202   */\n    tag_37:\n      0x00\n        /* \"#utility.yul\":6046:6064   */\n      0xffffffffffffffff\n        /* \"#utility.yul\":6038:6044   */\n      dup3\n        /* \"#utility.yul\":6035:6065   */\n      gt\n        /* \"#utility.yul\":6032:6034   */\n      iszero\n      tag_121\n      jumpi\n        /* \"#utility.yul\":6068:6086   */\n      tag_122\n      tag_123\n      jump\t// in\n    tag_122:\n        /* \"#utility.yul\":6032:6034   */\n    tag_121:\n        /* \"#utility.yul\":6106:6135   */\n      tag_124\n        /* \"#utility.yul\":6128:6134   */\n      dup3\n        /* \"#utility.yul\":6106:6135   */\n      tag_99\n      jump\t// in\n    tag_124:\n        /* \"#utility.yul\":6098:6135   */\n      swap1\n      pop\n        /* \"#utility.yul\":6190:6194   */\n      0x20\n        /* \"#utility.yul\":6184:6188   */\n      dup2\n        /* \"#utility.yul\":6180:6195   */\n      add\n        /* \"#utility.yul\":6172:6195   */\n      swap1\n      pop\n        /* \"#utility.yul\":5961:6202   */\n      swap2\n      swap1\n      pop\n      jump\t// out\n        /* \"#utility.yul\":6208:6352   */\n    tag_77:\n      0x00\n        /* \"#utility.yul\":6310:6313   */\n      dup2\n        /* \"#utility.yul\":6302:6313   */\n      swap1\n      pop\n        /* \"#utility.yul\":6340:6344   */\n      0x20\n        /* \"#utility.yul\":6335:6338   */\n      dup3\n        /* \"#utility.yul\":6331:6345   */\n      add\n        /* \"#utility.yul\":6323:6345   */\n      swap1\n      pop\n        /* \"#utility.yul\":6292:6352   */\n      swap2\n      swap1\n      pop\n      jump\t// out\n        /* \"#utility.yul\":6358:6484   */\n    tag_73:\n      0x00\n        /* \"#utility.yul\":6471:6476   */\n      dup2\n        /* \"#utility.yul\":6465:6477   */\n      mload\n        /* \"#utility.yul\":6455:6477   */\n      swap1\n      pop\n        /* \"#utility.yul\":6444:6484   */\n      swap2\n      swap1\n      pop\n      jump\t// out\n        /* \"#utility.yul\":6490:6589   */\n    tag_93:\n      0x00\n        /* \"#utility.yul\":6576:6581   */\n      dup2\n        /* \"#utility.yul\":6570:6582   */\n      mload\n        /* \"#utility.yul\":6560:6582   */\n      swap1\n      pop\n        /* \"#utility.yul\":6549:6589   */\n      swap2\n      swap1\n      pop\n      jump\t// out\n        /* \"#utility.yul\":6595:6720   */\n    tag_83:\n      0x00\n        /* \"#utility.yul\":6709:6713   */\n      0x20\n        /* \"#utility.yul\":6704:6707   */\n      dup3\n        /* \"#utility.yul\":6700:6714   */\n      add\n        /* \"#utility.yul\":6692:6714   */\n      swap1\n      pop\n        /* \"#utility.yul\":6682:6720   */\n      swap2\n      swap1\n      pop\n      jump\t// out\n        /* \"#utility.yul\":6726:6910   */\n    tag_75:\n      0x00\n        /* \"#utility.yul\":6859:6865   */\n      dup3\n        /* \"#utility.yul\":6854:6857   */\n      dup3\n        /* \"#utility.yul\":6847:6866   */\n      mstore\n        /* \"#utility.yul\":6899:6903   */\n      0x20\n        /* \"#utility.yul\":6894:6897   */\n      dup3\n        /* \"#utility.yul\":6890:6904   */\n      add\n        /* \"#utility.yul\":6875:6904   */\n      swap1\n      pop\n        /* \"#utility.yul\":6837:6910   */\n      swap3\n      swap2\n      pop\n      pop\n      jump\t// out\n        /* \"#utility.yul\":6916:7085   */\n    tag_95:\n      0x00\n        /* \"#utility.yul\":7034:7040   */\n      dup3\n        /* \"#utility.yul\":7029:7032   */\n      dup3\n        /* \"#utility.yul\":7022:7041   */\n      mstore\n        /* \"#utility.yul\":7074:7078   */\n      0x20\n        /* \"#utility.yul\":7069:7072   */\n      dup3\n        /* \"#utility.yul\":7065:7079   */\n      add\n        /* \"#utility.yul\":7050:7079   */\n      swap1\n      pop\n        /* \"#utility.yul\":7012:7085   */\n      swap3\n      swap2\n      pop\n      pop\n      jump\t// out\n        /* \"#utility.yul\":7091:7187   */\n    tag_69:\n      0x00\n        /* \"#utility.yul\":7157:7181   */\n      tag_132\n        /* \"#utility.yul\":7175:7180   */\n      dup3\n        /* \"#utility.yul\":7157:7181   */\n      tag_133\n      jump\t// in\n    tag_132:\n        /* \"#utility.yul\":7146:7181   */\n      swap1\n      pop\n        /* \"#utility.yul\":7136:7187   */\n      swap2\n      swap1\n      pop\n      jump\t// out\n        /* \"#utility.yul\":7193:7319   */\n    tag_133:\n      0x00\n        /* \"#utility.yul\":7270:7312   */\n      0xffffffffffffffffffffffffffffffffffffffff\n        /* \"#utility.yul\":7263:7268   */\n      dup3\n        /* \"#utility.yul\":7259:7313   */\n      and\n        /* \"#utility.yul\":7248:7313   */\n      swap1\n      pop\n        /* \"#utility.yul\":7238:7319   */\n      swap2\n      swap1\n      pop\n      jump\t// out\n        /* \"#utility.yul\":7325:7402   */\n    tag_103:\n      0x00\n        /* \"#utility.yul\":7391:7396   */\n      dup2\n        /* \"#utility.yul\":7380:7396   */\n      swap1\n      pop\n        /* \"#utility.yul\":7370:7402   */\n      swap2\n      swap1\n      pop\n      jump\t// out\n        /* \"#utility.yul\":7408:7558   */\n    tag_86:\n      0x00\n        /* \"#utility.yul\":7503:7552   */\n      tag_137\n        /* \"#utility.yul\":7546:7551   */\n      dup3\n        /* \"#utility.yul\":7503:7552   */\n      tag_138\n      jump\t// in\n    tag_137:\n        /* \"#utility.yul\":7490:7552   */\n      swap1\n      pop\n        /* \"#utility.yul\":7480:7558   */\n      swap2\n      swap1\n      pop\n      jump\t// out\n        /* \"#utility.yul\":7564:7689   */\n    tag_138:\n      0x00\n        /* \"#utility.yul\":7659:7683   */\n      tag_140\n        /* \"#utility.yul\":7677:7682   */\n      dup3\n        /* \"#utility.yul\":7659:7683   */\n      tag_133\n      jump\t// in\n    tag_140:\n        /* \"#utility.yul\":7646:7683   */\n      swap1\n      pop\n        /* \"#utility.yul\":7636:7689   */\n      swap2\n      swap1\n      pop\n      jump\t// out\n        /* \"#utility.yul\":7695:7849   */\n    tag_41:\n        /* \"#utility.yul\":7779:7785   */\n      dup3\n        /* \"#utility.yul\":7774:7777   */\n      dup2\n        /* \"#utility.yul\":7769:7772   */\n      dup4\n        /* \"#utility.yul\":7756:7786   */\n      calldatacopy\n        /* \"#utility.yul\":7841:7842   */\n      0x00\n        /* \"#utility.yul\":7832:7838   */\n      dup4\n        /* \"#utility.yul\":7827:7830   */\n      dup4\n        /* \"#utility.yul\":7823:7839   */\n      add\n        /* \"#utility.yul\":7816:7843   */\n      mstore\n        /* \"#utility.yul\":7746:7849   */\n      pop\n      pop\n      pop\n      jump\t// out\n        /* \"#utility.yul\":7855:8162   */\n    tag_97:\n        /* \"#utility.yul\":7923:7924   */\n      0x00\n        /* \"#utility.yul\":7933:8046   */\n    tag_143:\n        /* \"#utility.yul\":7947:7953   */\n      dup4\n        /* \"#utility.yul\":7944:7945   */\n      dup2\n        /* \"#utility.yul\":7941:7954   */\n      lt\n        /* \"#utility.yul\":7933:8046   */\n      iszero\n      tag_145\n      jumpi\n        /* \"#utility.yul\":8032:8033   */\n      dup1\n        /* \"#utility.yul\":8027:8030   */\n      dup3\n        /* \"#utility.yul\":8023:8034   */\n      add\n        /* \"#utility.yul\":8017:8035   */\n      mload\n        /* \"#utility.yul\":8013:8014   */\n      dup2\n        /* \"#utility.yul\":8008:8011   */\n      dup5\n        /* \"#utility.yul\":8004:8015   */\n      add\n        /* \"#utility.yul\":7997:8036   */\n      mstore\n        /* \"#utility.yul\":7969:7971   */\n      0x20\n        /* \"#utility.yul\":7966:7967   */\n      dup2\n        /* \"#utility.yul\":7962:7972   */\n      add\n        /* \"#utility.yul\":7957:7972   */\n      swap1\n      pop\n        /* \"#utility.yul\":7933:8046   */\n      jump(tag_143)\n    tag_145:\n        /* \"#utility.yul\":8064:8070   */\n      dup4\n        /* \"#utility.yul\":8061:8062   */\n      dup2\n        /* \"#utility.yul\":8058:8071   */\n      gt\n        /* \"#utility.yul\":8055:8057   */\n      iszero\n      tag_146\n      jumpi\n        /* \"#utility.yul\":8144:8145   */\n      0x00\n        /* \"#utility.yul\":8135:8141   */\n      dup5\n        /* \"#utility.yul\":8130:8133   */\n      dup5\n        /* \"#utility.yul\":8126:8142   */\n      add\n        /* \"#utility.yul\":8119:8146   */\n      mstore\n        /* \"#utility.yul\":8055:8057   */\n    tag_146:\n        /* \"#utility.yul\":7904:8162   */\n      pop\n      pop\n      pop\n      pop\n      jump\t// out\n        /* \"#utility.yul\":8168:8449   */\n    tag_118:\n        /* \"#utility.yul\":8251:8278   */\n      tag_148\n        /* \"#utility.yul\":8273:8277   */\n      dup3\n        /* \"#utility.yul\":8251:8278   */\n      tag_99\n      jump\t// in\n    tag_148:\n        /* \"#utility.yul\":8243:8249   */\n      dup2\n        /* \"#utility.yul\":8239:8279   */\n      add\n        /* \"#utility.yul\":8381:8387   */\n      dup2\n        /* \"#utility.yul\":8369:8379   */\n      dup2\n        /* \"#utility.yul\":8366:8388   */\n      lt\n        /* \"#utility.yul\":8345:8363   */\n      0xffffffffffffffff\n        /* \"#utility.yul\":8333:8343   */\n      dup3\n        /* \"#utility.yul\":8330:8364   */\n      gt\n        /* \"#utility.yul\":8327:8389   */\n      or\n        /* \"#utility.yul\":8324:8326   */\n      iszero\n      tag_149\n      jumpi\n        /* \"#utility.yul\":8392:8410   */\n      tag_150\n      tag_123\n      jump\t// in\n    tag_150:\n        /* \"#utility.yul\":8324:8326   */\n    tag_149:\n        /* \"#utility.yul\":8432:8442   */\n      dup1\n        /* \"#utility.yul\":8428:8430   */\n      0x40\n        /* \"#utility.yul\":8421:8443   */\n      mstore\n        /* \"#utility.yul\":8211:8449   */\n      pop\n      pop\n      pop\n      jump\t// out\n        /* \"#utility.yul\":8455:8635   */\n    tag_123:\n        /* \"#utility.yul\":8503:8580   */\n      0x4e487b7100000000000000000000000000000000000000000000000000000000\n        /* \"#utility.yul\":8500:8501   */\n      0x00\n        /* \"#utility.yul\":8493:8581   */\n      mstore\n        /* \"#utility.yul\":8600:8604   */\n      0x41\n        /* \"#utility.yul\":8597:8598   */\n      0x04\n        /* \"#utility.yul\":8590:8605   */\n      mstore\n        /* \"#utility.yul\":8624:8628   */\n      0x24\n        /* \"#utility.yul\":8621:8622   */\n      0x00\n        /* \"#utility.yul\":8614:8629   */\n      revert\n        /* \"#utility.yul\":8641:8743   */\n    tag_99:\n      0x00\n        /* \"#utility.yul\":8733:8735   */\n      0x1f\n        /* \"#utility.yul\":8729:8736   */\n      not\n        /* \"#utility.yul\":8724:8726   */\n      0x1f\n        /* \"#utility.yul\":8717:8722   */\n      dup4\n        /* \"#utility.yul\":8713:8727   */\n      add\n        /* \"#utility.yul\":8709:8737   */\n      and\n        /* \"#utility.yul\":8699:8737   */\n      swap1\n      pop\n        /* \"#utility.yul\":8689:8743   */\n      swap2\n      swap1\n      pop\n      jump\t// out\n        /* \"#utility.yul\":8749:8871   */\n    tag_49:\n        /* \"#utility.yul\":8822:8846   */\n      tag_154\n        /* \"#utility.yul\":8840:8845   */\n      dup2\n        /* \"#utility.yul\":8822:8846   */\n      tag_103\n      jump\t// in\n    tag_154:\n        /* \"#utility.yul\":8815:8820   */\n      dup2\n        /* \"#utility.yul\":8812:8847   */\n      eq\n        /* \"#utility.yul\":8802:8804   */\n      tag_155\n      jumpi\n        /* \"#utility.yul\":8861:8862   */\n      0x00\n        /* \"#utility.yul\":8858:8859   */\n      dup1\n        /* \"#utility.yul\":8851:8863   */\n      revert\n        /* \"#utility.yul\":8802:8804   */\n    tag_155:\n        /* \"#utility.yul\":8792:8871   */\n      pop\n      jump\t// out\n    stop\n\n    sub_0: assembly {\n            /* \"Idea.sol\":453:2979  contract Idea {... */\n          mstore(0x40, 0x80)\n            /* \"Idea.sol\":1131:1452  constructor(uint creditValue, string memory ideaName, string memory ideaShortDescription, string memory ideaDescription, address sender) {... */\n          callvalue\n          dup1\n          iszero\n          tag_1\n          jumpi\n          0x00\n          dup1\n          revert\n        tag_1:\n          pop\n          mload(0x40)\n          sub(codesize, bytecodeSize)\n          dup1\n          bytecodeSize\n          dup4\n          codecopy\n          dup2\n          dup2\n          add\n          0x40\n          mstore\n          dup2\n          add\n          swap1\n          tag_2\n          swap2\n          swap1\n          tag_3\n          jump\t// in\n        tag_2:\n            /* \"Idea.sol\":1288:1294  sender */\n          dup1\n            /* \"Idea.sol\":1278:1285  manager */\n          0x05\n          0x00\n            /* \"Idea.sol\":1278:1294  manager = sender */\n          0x0100\n          exp\n          dup2\n          sload\n          dup2\n          0xffffffffffffffffffffffffffffffffffffffff\n          mul\n          not\n          and\n          swap1\n          dup4\n          0xffffffffffffffffffffffffffffffffffffffff\n          and\n          mul\n          or\n          swap1\n          sstore\n          pop\n            /* \"Idea.sol\":1321:1332  creditValue */\n          dup5\n            /* \"Idea.sol\":1304:1318  oneCreditValue */\n          0x08\n            /* \"Idea.sol\":1304:1332  oneCreditValue = creditValue */\n          dup2\n          swap1\n          sstore\n          pop\n            /* \"Idea.sol\":1349:1357  ideaName */\n          dup4\n            /* \"Idea.sol\":1342:1346  name */\n          0x00\n            /* \"Idea.sol\":1342:1357  name = ideaName */\n          swap1\n          dup1\n          mload\n          swap1\n          0x20\n          add\n          swap1\n          tag_6\n          swap3\n          swap2\n          swap1\n          tag_7\n          jump\t// in\n        tag_6:\n          pop\n            /* \"Idea.sol\":1386:1406  ideaShortDescription */\n          dup3\n            /* \"Idea.sol\":1367:1383  shortDescription */\n          0x01\n            /* \"Idea.sol\":1367:1406  shortDescription = ideaShortDescription */\n          swap1\n          dup1\n          mload\n          swap1\n          0x20\n          add\n          swap1\n          tag_8\n          swap3\n          swap2\n          swap1\n          tag_7\n          jump\t// in\n        tag_8:\n          pop\n            /* \"Idea.sol\":1430:1445  ideaDescription */\n          dup2\n            /* \"Idea.sol\":1416:1427  description */\n          0x02\n            /* \"Idea.sol\":1416:1445  description = ideaDescription */\n          swap1\n          dup1\n          mload\n          swap1\n          0x20\n          add\n          swap1\n          tag_9\n          swap3\n          swap2\n          swap1\n          tag_7\n          jump\t// in\n        tag_9:\n          pop\n            /* \"Idea.sol\":1131:1452  constructor(uint creditValue, string memory ideaName, string memory ideaShortDescription, string memory ideaDescription, address sender) {... */\n          pop\n          pop\n          pop\n          pop\n          pop\n            /* \"Idea.sol\":453:2979  contract Idea {... */\n          jump(tag_10)\n        tag_7:\n          dup3\n          dup1\n          sload\n          tag_11\n          swap1\n          tag_12\n          jump\t// in\n        tag_11:\n          swap1\n          0x00\n          mstore\n          keccak256(0x00, 0x20)\n          swap1\n          0x1f\n          add\n          0x20\n          swap1\n          div\n          dup2\n          add\n          swap3\n          dup3\n          tag_14\n          jumpi\n          0x00\n          dup6\n          sstore\n          jump(tag_13)\n        tag_14:\n          dup3\n          0x1f\n          lt\n          tag_15\n          jumpi\n          dup1\n          mload\n          not(0xff)\n          and\n          dup4\n          dup1\n          add\n          or\n          dup6\n          sstore\n          jump(tag_13)\n        tag_15:\n          dup3\n          dup1\n          add\n          0x01\n          add\n          dup6\n          sstore\n          dup3\n          iszero\n          tag_13\n          jumpi\n          swap2\n          dup3\n          add\n        tag_16:\n          dup3\n          dup2\n          gt\n          iszero\n          tag_17\n          jumpi\n          dup3\n          mload\n          dup3\n          sstore\n          swap2\n          0x20\n          add\n          swap2\n          swap1\n          0x01\n          add\n          swap1\n          jump(tag_16)\n        tag_17:\n        tag_13:\n          pop\n          swap1\n          pop\n          tag_18\n          swap2\n          swap1\n          tag_19\n          jump\t// in\n        tag_18:\n          pop\n          swap1\n          jump\t// out\n        tag_19:\n        tag_20:\n          dup1\n          dup3\n          gt\n          iszero\n          tag_21\n          jumpi\n          0x00\n          dup2\n          0x00\n          swap1\n          sstore\n          pop\n          0x01\n          add\n          jump(tag_20)\n        tag_21:\n          pop\n          swap1\n          jump\t// out\n            /* \"#utility.yul\":7:361   */\n        tag_23:\n          0x00\n            /* \"#utility.yul\":121:187   */\n          tag_25\n            /* \"#utility.yul\":137:186   */\n          tag_26\n            /* \"#utility.yul\":179:185   */\n          dup5\n            /* \"#utility.yul\":137:186   */\n          tag_27\n          jump\t// in\n        tag_26:\n            /* \"#utility.yul\":121:187   */\n          tag_28\n          jump\t// in\n        tag_25:\n            /* \"#utility.yul\":112:187   */\n          swap1\n          pop\n            /* \"#utility.yul\":210:216   */\n          dup3\n            /* \"#utility.yul\":203:208   */\n          dup2\n            /* \"#utility.yul\":196:217   */\n          mstore\n            /* \"#utility.yul\":248:252   */\n          0x20\n            /* \"#utility.yul\":241:246   */\n          dup2\n            /* \"#utility.yul\":237:253   */\n          add\n            /* \"#utility.yul\":286:289   */\n          dup5\n            /* \"#utility.yul\":277:283   */\n          dup5\n            /* \"#utility.yul\":272:275   */\n          dup5\n            /* \"#utility.yul\":268:284   */\n          add\n            /* \"#utility.yul\":265:290   */\n          gt\n            /* \"#utility.yul\":262:264   */\n          iszero\n          tag_29\n          jumpi\n            /* \"#utility.yul\":303:304   */\n          0x00\n            /* \"#utility.yul\":300:301   */\n          dup1\n            /* \"#utility.yul\":293:305   */\n          revert\n            /* \"#utility.yul\":262:264   */\n        tag_29:\n            /* \"#utility.yul\":316:355   */\n          tag_30\n            /* \"#utility.yul\":348:354   */\n          dup5\n            /* \"#utility.yul\":343:346   */\n          dup3\n            /* \"#utility.yul\":338:341   */\n          dup6\n            /* \"#utility.yul\":316:355   */\n          tag_31\n          jump\t// in\n        tag_30:\n            /* \"#utility.yul\":102:361   */\n          pop\n          swap4\n          swap3\n          pop\n          pop\n          pop\n          jump\t// out\n            /* \"#utility.yul\":367:510   */\n        tag_32:\n          0x00\n            /* \"#utility.yul\":455:461   */\n          dup2\n            /* \"#utility.yul\":449:462   */\n          mload\n            /* \"#utility.yul\":440:462   */\n          swap1\n          pop\n            /* \"#utility.yul\":471:504   */\n          tag_34\n            /* \"#utility.yul\":498:503   */\n          dup2\n            /* \"#utility.yul\":471:504   */\n          tag_35\n          jump\t// in\n        tag_34:\n            /* \"#utility.yul\":430:510   */\n          swap3\n          swap2\n          pop\n          pop\n          jump\t// out\n            /* \"#utility.yul\":530:818   */\n        tag_36:\n          0x00\n            /* \"#utility.yul\":646:649   */\n          dup3\n            /* \"#utility.yul\":639:643   */\n          0x1f\n            /* \"#utility.yul\":631:637   */\n          dup4\n            /* \"#utility.yul\":627:644   */\n          add\n            /* \"#utility.yul\":623:650   */\n          slt\n            /* \"#utility.yul\":613:615   */\n          tag_38\n          jumpi\n            /* \"#utility.yul\":664:665   */\n          0x00\n            /* \"#utility.yul\":661:662   */\n          dup1\n            /* \"#utility.yul\":654:666   */\n          revert\n            /* \"#utility.yul\":613:615   */\n        tag_38:\n            /* \"#utility.yul\":697:703   */\n          dup2\n            /* \"#utility.yul\":691:704   */\n          mload\n            /* \"#utility.yul\":722:812   */\n          tag_39\n            /* \"#utility.yul\":808:811   */\n          dup5\n            /* \"#utility.yul\":800:806   */\n          dup3\n            /* \"#utility.yul\":793:797   */\n          0x20\n            /* \"#utility.yul\":785:791   */\n          dup7\n            /* \"#utility.yul\":781:798   */\n          add\n            /* \"#utility.yul\":722:812   */\n          tag_23\n          jump\t// in\n        tag_39:\n            /* \"#utility.yul\":713:812   */\n          swap2\n          pop\n            /* \"#utility.yul\":603:818   */\n          pop\n          swap3\n          swap2\n          pop\n          pop\n          jump\t// out\n            /* \"#utility.yul\":824:967   */\n        tag_40:\n          0x00\n            /* \"#utility.yul\":912:918   */\n          dup2\n            /* \"#utility.yul\":906:919   */\n          mload\n            /* \"#utility.yul\":897:919   */\n          swap1\n          pop\n            /* \"#utility.yul\":928:961   */\n          tag_42\n            /* \"#utility.yul\":955:960   */\n          dup2\n            /* \"#utility.yul\":928:961   */\n          tag_43\n          jump\t// in\n        tag_42:\n            /* \"#utility.yul\":887:967   */\n          swap3\n          swap2\n          pop\n          pop\n          jump\t// out\n            /* \"#utility.yul\":973:2201   */\n        tag_3:\n          0x00\n          dup1\n          0x00\n          dup1\n          0x00\n            /* \"#utility.yul\":1190:1193   */\n          0xa0\n            /* \"#utility.yul\":1178:1187   */\n          dup7\n            /* \"#utility.yul\":1169:1176   */\n          dup9\n            /* \"#utility.yul\":1165:1188   */\n          sub\n            /* \"#utility.yul\":1161:1194   */\n          slt\n            /* \"#utility.yul\":1158:1160   */\n          iszero\n          tag_45\n          jumpi\n            /* \"#utility.yul\":1207:1208   */\n          0x00\n            /* \"#utility.yul\":1204:1205   */\n          dup1\n            /* \"#utility.yul\":1197:1209   */\n          revert\n            /* \"#utility.yul\":1158:1160   */\n        tag_45:\n            /* \"#utility.yul\":1250:1251   */\n          0x00\n            /* \"#utility.yul\":1275:1339   */\n          tag_46\n            /* \"#utility.yul\":1331:1338   */\n          dup9\n            /* \"#utility.yul\":1322:1328   */\n          dup3\n            /* \"#utility.yul\":1311:1320   */\n          dup10\n            /* \"#utility.yul\":1307:1329   */\n          add\n            /* \"#utility.yul\":1275:1339   */\n          tag_40\n          jump\t// in\n        tag_46:\n            /* \"#utility.yul\":1265:1339   */\n          swap6\n          pop\n            /* \"#utility.yul\":1221:1349   */\n          pop\n            /* \"#utility.yul\":1409:1411   */\n          0x20\n            /* \"#utility.yul\":1398:1407   */\n          dup7\n            /* \"#utility.yul\":1394:1412   */\n          add\n            /* \"#utility.yul\":1388:1413   */\n          mload\n            /* \"#utility.yul\":1440:1458   */\n          0xffffffffffffffff\n            /* \"#utility.yul\":1432:1438   */\n          dup2\n            /* \"#utility.yul\":1429:1459   */\n          gt\n            /* \"#utility.yul\":1426:1428   */\n          iszero\n          tag_47\n          jumpi\n            /* \"#utility.yul\":1472:1473   */\n          0x00\n            /* \"#utility.yul\":1469:1470   */\n          dup1\n            /* \"#utility.yul\":1462:1474   */\n          revert\n            /* \"#utility.yul\":1426:1428   */\n        tag_47:\n            /* \"#utility.yul\":1500:1574   */\n          tag_48\n            /* \"#utility.yul\":1566:1573   */\n          dup9\n            /* \"#utility.yul\":1557:1563   */\n          dup3\n            /* \"#utility.yul\":1546:1555   */\n          dup10\n            /* \"#utility.yul\":1542:1564   */\n          add\n            /* \"#utility.yul\":1500:1574   */\n          tag_36\n          jump\t// in\n        tag_48:\n            /* \"#utility.yul\":1490:1574   */\n          swap5\n          pop\n            /* \"#utility.yul\":1359:1584   */\n          pop\n            /* \"#utility.yul\":1644:1646   */\n          0x40\n            /* \"#utility.yul\":1633:1642   */\n          dup7\n            /* \"#utility.yul\":1629:1647   */\n          add\n            /* \"#utility.yul\":1623:1648   */\n          mload\n            /* \"#utility.yul\":1675:1693   */\n          0xffffffffffffffff\n            /* \"#utility.yul\":1667:1673   */\n          dup2\n            /* \"#utility.yul\":1664:1694   */\n          gt\n            /* \"#utility.yul\":1661:1663   */\n          iszero\n          tag_49\n          jumpi\n            /* \"#utility.yul\":1707:1708   */\n          0x00\n            /* \"#utility.yul\":1704:1705   */\n          dup1\n            /* \"#utility.yul\":1697:1709   */\n          revert\n            /* \"#utility.yul\":1661:1663   */\n        tag_49:\n            /* \"#utility.yul\":1735:1809   */\n          tag_50\n            /* \"#utility.yul\":1801:1808   */\n          dup9\n            /* \"#utility.yul\":1792:1798   */\n          dup3\n            /* \"#utility.yul\":1781:1790   */\n          dup10\n            /* \"#utility.yul\":1777:1799   */\n          add\n            /* \"#utility.yul\":1735:1809   */\n          tag_36\n          jump\t// in\n        tag_50:\n            /* \"#utility.yul\":1725:1809   */\n          swap4\n          pop\n            /* \"#utility.yul\":1594:1819   */\n          pop\n            /* \"#utility.yul\":1879:1881   */\n          0x60\n            /* \"#utility.yul\":1868:1877   */\n          dup7\n            /* \"#utility.yul\":1864:1882   */\n          add\n            /* \"#utility.yul\":1858:1883   */\n          mload\n            /* \"#utility.yul\":1910:1928   */\n          0xffffffffffffffff\n            /* \"#utility.yul\":1902:1908   */\n          dup2\n            /* \"#utility.yul\":1899:1929   */\n          gt\n            /* \"#utility.yul\":1896:1898   */\n          iszero\n          tag_51\n          jumpi\n            /* \"#utility.yul\":1942:1943   */\n          0x00\n            /* \"#utility.yul\":1939:1940   */\n          dup1\n            /* \"#utility.yul\":1932:1944   */\n          revert\n            /* \"#utility.yul\":1896:1898   */\n        tag_51:\n            /* \"#utility.yul\":1970:2044   */\n          tag_52\n            /* \"#utility.yul\":2036:2043   */\n          dup9\n            /* \"#utility.yul\":2027:2033   */\n          dup3\n            /* \"#utility.yul\":2016:2025   */\n          dup10\n            /* \"#utility.yul\":2012:2034   */\n          add\n            /* \"#utility.yul\":1970:2044   */\n          tag_36\n          jump\t// in\n        tag_52:\n            /* \"#utility.yul\":1960:2044   */\n          swap3\n          pop\n            /* \"#utility.yul\":1829:2054   */\n          pop\n            /* \"#utility.yul\":2093:2096   */\n          0x80\n            /* \"#utility.yul\":2120:2184   */\n          tag_53\n            /* \"#utility.yul\":2176:2183   */\n          dup9\n            /* \"#utility.yul\":2167:2173   */\n          dup3\n            /* \"#utility.yul\":2156:2165   */\n          dup10\n            /* \"#utility.yul\":2152:2174   */\n          add\n            /* \"#utility.yul\":2120:2184   */\n          tag_32\n          jump\t// in\n        tag_53:\n            /* \"#utility.yul\":2110:2184   */\n          swap2\n          pop\n            /* \"#utility.yul\":2064:2194   */\n          pop\n            /* \"#utility.yul\":1148:2201   */\n          swap3\n          swap6\n          pop\n          swap3\n          swap6\n          swap1\n          swap4\n          pop\n          jump\t// out\n            /* \"#utility.yul\":2207:2336   */\n        tag_28:\n          0x00\n            /* \"#utility.yul\":2268:2288   */\n          tag_55\n          tag_56\n          jump\t// in\n        tag_55:\n            /* \"#utility.yul\":2258:2288   */\n          swap1\n          pop\n            /* \"#utility.yul\":2297:2330   */\n          tag_57\n            /* \"#utility.yul\":2325:2329   */\n          dup3\n            /* \"#utility.yul\":2317:2323   */\n          dup3\n            /* \"#utility.yul\":2297:2330   */\n          tag_58\n          jump\t// in\n        tag_57:\n            /* \"#utility.yul\":2248:2336   */\n          swap2\n          swap1\n          pop\n          jump\t// out\n            /* \"#utility.yul\":2342:2417   */\n        tag_56:\n          0x00\n            /* \"#utility.yul\":2408:2410   */\n          0x40\n            /* \"#utility.yul\":2402:2411   */\n          mload\n            /* \"#utility.yul\":2392:2411   */\n          swap1\n          pop\n            /* \"#utility.yul\":2382:2417   */\n          swap1\n          jump\t// out\n            /* \"#utility.yul\":2423:2731   */\n        tag_27:\n          0x00\n            /* \"#utility.yul\":2575:2593   */\n          0xffffffffffffffff\n            /* \"#utility.yul\":2567:2573   */\n          dup3\n            /* \"#utility.yul\":2564:2594   */\n          gt\n            /* \"#utility.yul\":2561:2563   */\n          iszero\n          tag_61\n          jumpi\n            /* \"#utility.yul\":2597:2615   */\n          tag_62\n          tag_63\n          jump\t// in\n        tag_62:\n            /* \"#utility.yul\":2561:2563   */\n        tag_61:\n            /* \"#utility.yul\":2635:2664   */\n          tag_64\n            /* \"#utility.yul\":2657:2663   */\n          dup3\n            /* \"#utility.yul\":2635:2664   */\n          tag_65\n          jump\t// in\n        tag_64:\n            /* \"#utility.yul\":2627:2664   */\n          swap1\n          pop\n            /* \"#utility.yul\":2719:2723   */\n          0x20\n            /* \"#utility.yul\":2713:2717   */\n          dup2\n            /* \"#utility.yul\":2709:2724   */\n          add\n            /* \"#utility.yul\":2701:2724   */\n          swap1\n          pop\n            /* \"#utility.yul\":2490:2731   */\n          swap2\n          swap1\n          pop\n          jump\t// out\n            /* \"#utility.yul\":2737:2833   */\n        tag_66:\n          0x00\n            /* \"#utility.yul\":2803:2827   */\n          tag_68\n            /* \"#utility.yul\":2821:2826   */\n          dup3\n            /* \"#utility.yul\":2803:2827   */\n          tag_69\n          jump\t// in\n        tag_68:\n            /* \"#utility.yul\":2792:2827   */\n          swap1\n          pop\n            /* \"#utility.yul\":2782:2833   */\n          swap2\n          swap1\n          pop\n          jump\t// out\n            /* \"#utility.yul\":2839:2965   */\n        tag_69:\n          0x00\n            /* \"#utility.yul\":2916:2958   */\n          0xffffffffffffffffffffffffffffffffffffffff\n            /* \"#utility.yul\":2909:2914   */\n          dup3\n            /* \"#utility.yul\":2905:2959   */\n          and\n            /* \"#utility.yul\":2894:2959   */\n          swap1\n          pop\n            /* \"#utility.yul\":2884:2965   */\n          swap2\n          swap1\n          pop\n          jump\t// out\n            /* \"#utility.yul\":2971:3048   */\n        tag_71:\n          0x00\n            /* \"#utility.yul\":3037:3042   */\n          dup2\n            /* \"#utility.yul\":3026:3042   */\n          swap1\n          pop\n            /* \"#utility.yul\":3016:3048   */\n          swap2\n          swap1\n          pop\n          jump\t// out\n            /* \"#utility.yul\":3054:3361   */\n        tag_31:\n            /* \"#utility.yul\":3122:3123   */\n          0x00\n            /* \"#utility.yul\":3132:3245   */\n        tag_74:\n            /* \"#utility.yul\":3146:3152   */\n          dup4\n            /* \"#utility.yul\":3143:3144   */\n          dup2\n            /* \"#utility.yul\":3140:3153   */\n          lt\n            /* \"#utility.yul\":3132:3245   */\n          iszero\n          tag_76\n          jumpi\n            /* \"#utility.yul\":3231:3232   */\n          dup1\n            /* \"#utility.yul\":3226:3229   */\n          dup3\n            /* \"#utility.yul\":3222:3233   */\n          add\n            /* \"#utility.yul\":3216:3234   */\n          mload\n            /* \"#utility.yul\":3212:3213   */\n          dup2\n            /* \"#utility.yul\":3207:3210   */\n          dup5\n            /* \"#utility.yul\":3203:3214   */\n          add\n            /* \"#utility.yul\":3196:3235   */\n          mstore\n            /* \"#utility.yul\":3168:3170   */\n          0x20\n            /* \"#utility.yul\":3165:3166   */\n          dup2\n            /* \"#utility.yul\":3161:3171   */\n          add\n            /* \"#utility.yul\":3156:3171   */\n          swap1\n          pop\n            /* \"#utility.yul\":3132:3245   */\n          jump(tag_74)\n        tag_76:\n            /* \"#utility.yul\":3263:3269   */\n          dup4\n            /* \"#utility.yul\":3260:3261   */\n          dup2\n            /* \"#utility.yul\":3257:3270   */\n          gt\n            /* \"#utility.yul\":3254:3256   */\n          iszero\n          tag_77\n          jumpi\n            /* \"#utility.yul\":3343:3344   */\n          0x00\n            /* \"#utility.yul\":3334:3340   */\n          dup5\n            /* \"#utility.yul\":3329:3332   */\n          dup5\n            /* \"#utility.yul\":3325:3341   */\n          add\n            /* \"#utility.yul\":3318:3345   */\n          mstore\n            /* \"#utility.yul\":3254:3256   */\n        tag_77:\n            /* \"#utility.yul\":3103:3361   */\n          pop\n          pop\n          pop\n          pop\n          jump\t// out\n            /* \"#utility.yul\":3367:3687   */\n        tag_12:\n          0x00\n            /* \"#utility.yul\":3448:3449   */\n          0x02\n            /* \"#utility.yul\":3442:3446   */\n          dup3\n            /* \"#utility.yul\":3438:3450   */\n          div\n            /* \"#utility.yul\":3428:3450   */\n          swap1\n          pop\n            /* \"#utility.yul\":3495:3496   */\n          0x01\n            /* \"#utility.yul\":3489:3493   */\n          dup3\n            /* \"#utility.yul\":3485:3497   */\n          and\n            /* \"#utility.yul\":3516:3534   */\n          dup1\n            /* \"#utility.yul\":3506:3508   */\n          tag_79\n          jumpi\n            /* \"#utility.yul\":3572:3576   */\n          0x7f\n            /* \"#utility.yul\":3564:3570   */\n          dup3\n            /* \"#utility.yul\":3560:3577   */\n          and\n            /* \"#utility.yul\":3550:3577   */\n          swap2\n          pop\n            /* \"#utility.yul\":3506:3508   */\n        tag_79:\n            /* \"#utility.yul\":3634:3636   */\n          0x20\n            /* \"#utility.yul\":3626:3632   */\n          dup3\n            /* \"#utility.yul\":3623:3637   */\n          lt\n            /* \"#utility.yul\":3603:3621   */\n          dup2\n            /* \"#utility.yul\":3600:3638   */\n          eq\n            /* \"#utility.yul\":3597:3599   */\n          iszero\n          tag_80\n          jumpi\n            /* \"#utility.yul\":3653:3671   */\n          tag_81\n          tag_82\n          jump\t// in\n        tag_81:\n            /* \"#utility.yul\":3597:3599   */\n        tag_80:\n            /* \"#utility.yul\":3418:3687   */\n          pop\n          swap2\n          swap1\n          pop\n          jump\t// out\n            /* \"#utility.yul\":3693:3974   */\n        tag_58:\n            /* \"#utility.yul\":3776:3803   */\n          tag_84\n            /* \"#utility.yul\":3798:3802   */\n          dup3\n            /* \"#utility.yul\":3776:3803   */\n          tag_65\n          jump\t// in\n        tag_84:\n            /* \"#utility.yul\":3768:3774   */\n          dup2\n            /* \"#utility.yul\":3764:3804   */\n          add\n            /* \"#utility.yul\":3906:3912   */\n          dup2\n            /* \"#utility.yul\":3894:3904   */\n          dup2\n            /* \"#utility.yul\":3891:3913   */\n          lt\n            /* \"#utility.yul\":3870:3888   */\n          0xffffffffffffffff\n            /* \"#utility.yul\":3858:3868   */\n          dup3\n            /* \"#utility.yul\":3855:3889   */\n          gt\n            /* \"#utility.yul\":3852:3914   */\n          or\n            /* \"#utility.yul\":3849:3851   */\n          iszero\n          tag_85\n          jumpi\n            /* \"#utility.yul\":3917:3935   */\n          tag_86\n          tag_63\n          jump\t// in\n        tag_86:\n            /* \"#utility.yul\":3849:3851   */\n        tag_85:\n            /* \"#utility.yul\":3957:3967   */\n          dup1\n            /* \"#utility.yul\":3953:3955   */\n          0x40\n            /* \"#utility.yul\":3946:3968   */\n          mstore\n            /* \"#utility.yul\":3736:3974   */\n          pop\n          pop\n          pop\n          jump\t// out\n            /* \"#utility.yul\":3980:4160   */\n        tag_82:\n            /* \"#utility.yul\":4028:4105   */\n          0x4e487b7100000000000000000000000000000000000000000000000000000000\n            /* \"#utility.yul\":4025:4026   */\n          0x00\n            /* \"#utility.yul\":4018:4106   */\n          mstore\n            /* \"#utility.yul\":4125:4129   */\n          0x22\n            /* \"#utility.yul\":4122:4123   */\n          0x04\n            /* \"#utility.yul\":4115:4130   */\n          mstore\n            /* \"#utility.yul\":4149:4153   */\n          0x24\n            /* \"#utility.yul\":4146:4147   */\n          0x00\n            /* \"#utility.yul\":4139:4154   */\n          revert\n            /* \"#utility.yul\":4166:4346   */\n        tag_63:\n            /* \"#utility.yul\":4214:4291   */\n          0x4e487b7100000000000000000000000000000000000000000000000000000000\n            /* \"#utility.yul\":4211:4212   */\n          0x00\n            /* \"#utility.yul\":4204:4292   */\n          mstore\n            /* \"#utility.yul\":4311:4315   */\n          0x41\n            /* \"#utility.yul\":4308:4309   */\n          0x04\n            /* \"#utility.yul\":4301:4316   */\n          mstore\n            /* \"#utility.yul\":4335:4339   */\n          0x24\n            /* \"#utility.yul\":4332:4333   */\n          0x00\n            /* \"#utility.yul\":4325:4340   */\n          revert\n            /* \"#utility.yul\":4352:4454   */\n        tag_65:\n          0x00\n            /* \"#utility.yul\":4444:4446   */\n          0x1f\n            /* \"#utility.yul\":4440:4447   */\n          not\n            /* \"#utility.yul\":4435:4437   */\n          0x1f\n            /* \"#utility.yul\":4428:4433   */\n          dup4\n            /* \"#utility.yul\":4424:4438   */\n          add\n            /* \"#utility.yul\":4420:4448   */\n          and\n            /* \"#utility.yul\":4410:4448   */\n          swap1\n          pop\n            /* \"#utility.yul\":4400:4454   */\n          swap2\n          swap1\n          pop\n          jump\t// out\n            /* \"#utility.yul\":4460:4582   */\n        tag_35:\n            /* \"#utility.yul\":4533:4557   */\n          tag_91\n            /* \"#utility.yul\":4551:4556   */\n          dup2\n            /* \"#utility.yul\":4533:4557   */\n          tag_66\n          jump\t// in\n        tag_91:\n            /* \"#utility.yul\":4526:4531   */\n          dup2\n            /* \"#utility.yul\":4523:4558   */\n          eq\n            /* \"#utility.yul\":4513:4515   */\n          tag_92\n          jumpi\n            /* \"#utility.yul\":4572:4573   */\n          0x00\n            /* \"#utility.yul\":4569:4570   */\n          dup1\n            /* \"#utility.yul\":4562:4574   */\n          revert\n            /* \"#utility.yul\":4513:4515   */\n        tag_92:\n            /* \"#utility.yul\":4503:4582   */\n          pop\n          jump\t// out\n            /* \"#utility.yul\":4588:4710   */\n        tag_43:\n            /* \"#utility.yul\":4661:4685   */\n          tag_94\n            /* \"#utility.yul\":4679:4684   */\n          dup2\n            /* \"#utility.yul\":4661:4685   */\n          tag_71\n          jump\t// in\n        tag_94:\n            /* \"#utility.yul\":4654:4659   */\n          dup2\n            /* \"#utility.yul\":4651:4686   */\n          eq\n            /* \"#utility.yul\":4641:4643   */\n          tag_95\n          jumpi\n            /* \"#utility.yul\":4700:4701   */\n          0x00\n            /* \"#utility.yul\":4697:4698   */\n          dup1\n            /* \"#utility.yul\":4690:4702   */\n          revert\n            /* \"#utility.yul\":4641:4643   */\n        tag_95:\n            /* \"#utility.yul\":4631:4710   */\n          pop\n          jump\t// out\n            /* \"Idea.sol\":453:2979  contract Idea {... */\n        tag_10:\n          dataSize(sub_0)\n          dup1\n          dataOffset(sub_0)\n          0x00\n          codecopy\n          0x00\n          return\n        stop\n\n        sub_0: assembly {\n                /* \"Idea.sol\":453:2979  contract Idea {... */\n              mstore(0x40, 0x80)\n              jumpi(tag_1, lt(calldatasize, 0x04))\n              shr(0xe0, calldataload(0x00))\n              dup1\n              0x7284e416\n              gt\n              tag_16\n              jumpi\n              dup1\n              0x8a9cfd55\n              gt\n              tag_17\n              jumpi\n              dup1\n              0x8a9cfd55\n              eq\n              tag_12\n              jumpi\n              dup1\n              0x9fb42b1f\n              eq\n              tag_13\n              jumpi\n              dup1\n              0xd7bb99ba\n              eq\n              tag_14\n              jumpi\n              dup1\n              0xd7d1bbdb\n              eq\n              tag_15\n              jumpi\n              jump(tag_1)\n            tag_17:\n              dup1\n              0x7284e416\n              eq\n              tag_9\n              jumpi\n              dup1\n              0x7554e42f\n              eq\n              tag_10\n              jumpi\n              dup1\n              0x81d12c58\n              eq\n              tag_11\n              jumpi\n              jump(tag_1)\n            tag_16:\n              dup1\n              0x1da98960\n              gt\n              tag_18\n              jumpi\n              dup1\n              0x1da98960\n              eq\n              tag_5\n              jumpi\n              dup1\n              0x26540fd2\n              eq\n              tag_6\n              jumpi\n              dup1\n              0x481c6a75\n              eq\n              tag_7\n              jumpi\n              dup1\n              0x59af7a13\n              eq\n              tag_8\n              jumpi\n              jump(tag_1)\n            tag_18:\n              dup1\n              0x03441006\n              eq\n              tag_2\n              jumpi\n              dup1\n              0x06fdde03\n              eq\n              tag_3\n              jumpi\n              dup1\n              0x0a144391\n              eq\n              tag_4\n              jumpi\n            tag_1:\n              0x00\n              dup1\n              revert\n                /* \"Idea.sol\":2686:2977  function finalizeRequest(uint index) public allowOnlyManager {... */\n            tag_2:\n              callvalue\n              dup1\n              iszero\n              tag_19\n              jumpi\n              0x00\n              dup1\n              revert\n            tag_19:\n              pop\n              tag_20\n              0x04\n              dup1\n              calldatasize\n              sub\n              dup2\n              add\n              swap1\n              tag_21\n              swap2\n              swap1\n              tag_22\n              jump\t// in\n            tag_21:\n              tag_23\n              jump\t// in\n            tag_20:\n              stop\n                /* \"Idea.sol\":678:696  string public name */\n            tag_3:\n              callvalue\n              dup1\n              iszero\n              tag_24\n              jumpi\n              0x00\n              dup1\n              revert\n            tag_24:\n              pop\n              tag_25\n              tag_26\n              jump\t// in\n            tag_25:\n              mload(0x40)\n              tag_27\n              swap2\n              swap1\n              tag_28\n              jump\t// in\n            tag_27:\n              mload(0x40)\n              dup1\n              swap2\n              sub\n              swap1\n              return\n                /* \"Idea.sol\":929:970  mapping(address => uint) public approvers */\n            tag_4:\n              callvalue\n              dup1\n              iszero\n              tag_29\n              jumpi\n              0x00\n              dup1\n              revert\n            tag_29:\n              pop\n              tag_30\n              0x04\n              dup1\n              calldatasize\n              sub\n              dup2\n              add\n              swap1\n              tag_31\n              swap2\n              swap1\n              tag_32\n              jump\t// in\n            tag_31:\n              tag_33\n              jump\t// in\n            tag_30:\n              mload(0x40)\n              tag_34\n              swap2\n              swap1\n              tag_35\n              jump\t// in\n            tag_34:\n              mload(0x40)\n              dup1\n              swap2\n              sub\n              swap1\n              return\n                /* \"Idea.sol\":702:732  string public shortDescription */\n            tag_5:\n              callvalue\n              dup1\n              iszero\n              tag_36\n              jumpi\n              0x00\n              dup1\n              revert\n            tag_36:\n              pop\n              tag_37\n              tag_38\n              jump\t// in\n            tag_37:\n              mload(0x40)\n              tag_39\n              swap2\n              swap1\n              tag_28\n              jump\t// in\n            tag_39:\n              mload(0x40)\n              dup1\n              swap2\n              sub\n              swap1\n              return\n                /* \"Idea.sol\":1009:1028  uint public credits */\n            tag_6:\n              callvalue\n              dup1\n              iszero\n              tag_40\n              jumpi\n              0x00\n              dup1\n              revert\n            tag_40:\n              pop\n              tag_41\n              tag_42\n              jump\t// in\n            tag_41:\n              mload(0x40)\n              tag_43\n              swap2\n              swap1\n              tag_35\n              jump\t// in\n            tag_43:\n              mload(0x40)\n              dup1\n              swap2\n              sub\n              swap1\n              return\n                /* \"Idea.sol\":860:882  address public manager */\n            tag_7:\n              callvalue\n              dup1\n              iszero\n              tag_44\n              jumpi\n              0x00\n              dup1\n              revert\n            tag_44:\n              pop\n              tag_45\n              tag_46\n              jump\t// in\n            tag_45:\n              mload(0x40)\n              tag_47\n              swap2\n              swap1\n              tag_48\n              jump\t// in\n            tag_47:\n              mload(0x40)\n              dup1\n              swap2\n              sub\n              swap1\n              return\n                /* \"Idea.sol\":977:1003  uint public oneCreditValue */\n            tag_8:\n              callvalue\n              dup1\n              iszero\n              tag_49\n              jumpi\n              0x00\n              dup1\n              revert\n            tag_49:\n              pop\n              tag_50\n              tag_51\n              jump\t// in\n            tag_50:\n              mload(0x40)\n              tag_52\n              swap2\n              swap1\n              tag_35\n              jump\t// in\n            tag_52:\n              mload(0x40)\n              dup1\n              swap2\n              sub\n              swap1\n              return\n                /* \"Idea.sol\":738:763  string public description */\n            tag_9:\n              callvalue\n              dup1\n              iszero\n              tag_53\n              jumpi\n              0x00\n              dup1\n              revert\n            tag_53:\n              pop\n              tag_54\n              tag_55\n              jump\t// in\n            tag_54:\n              mload(0x40)\n              tag_56\n              swap2\n              swap1\n              tag_28\n              jump\t// in\n            tag_56:\n              mload(0x40)\n              dup1\n              swap2\n              sub\n              swap1\n              return\n                /* \"Idea.sol\":893:923  uint public numUniqueApprovers */\n            tag_10:\n              callvalue\n              dup1\n              iszero\n              tag_57\n              jumpi\n              0x00\n              dup1\n              revert\n            tag_57:\n              pop\n              tag_58\n              tag_59\n              jump\t// in\n            tag_58:\n              mload(0x40)\n              tag_60\n              swap2\n              swap1\n              tag_35\n              jump\t// in\n            tag_60:\n              mload(0x40)\n              dup1\n              swap2\n              sub\n              swap1\n              return\n                /* \"Idea.sol\":808:849  mapping (uint => Request) public requests */\n            tag_11:\n              callvalue\n              dup1\n              iszero\n              tag_61\n              jumpi\n              0x00\n              dup1\n              revert\n            tag_61:\n              pop\n              tag_62\n              0x04\n              dup1\n              calldatasize\n              sub\n              dup2\n              add\n              swap1\n              tag_63\n              swap2\n              swap1\n              tag_22\n              jump\t// in\n            tag_63:\n              tag_64\n              jump\t// in\n            tag_62:\n              mload(0x40)\n              tag_65\n              swap6\n              swap5\n              swap4\n              swap3\n              swap2\n              swap1\n              tag_66\n              jump\t// in\n            tag_65:\n              mload(0x40)\n              dup1\n              swap2\n              sub\n              swap1\n              return\n                /* \"Idea.sol\":2059:2378  function createRequest(string memory description, uint value, address payable recipient) public allowOnlyManager {... */\n            tag_12:\n              callvalue\n              dup1\n              iszero\n              tag_67\n              jumpi\n              0x00\n              dup1\n              revert\n            tag_67:\n              pop\n              tag_68\n              0x04\n              dup1\n              calldatasize\n              sub\n              dup2\n              add\n              swap1\n              tag_69\n              swap2\n              swap1\n              tag_70\n              jump\t// in\n            tag_69:\n              tag_71\n              jump\t// in\n            tag_68:\n              stop\n                /* \"Idea.sol\":779:802  uint public numRequests */\n            tag_13:\n              callvalue\n              dup1\n              iszero\n              tag_72\n              jumpi\n              0x00\n              dup1\n              revert\n            tag_72:\n              pop\n              tag_73\n              tag_74\n              jump\t// in\n            tag_73:\n              mload(0x40)\n              tag_75\n              swap2\n              swap1\n              tag_35\n              jump\t// in\n            tag_75:\n              mload(0x40)\n              dup1\n              swap2\n              sub\n              swap1\n              return\n                /* \"Idea.sol\":1462:2049  function contribute() public payable {... */\n            tag_14:\n              tag_76\n              tag_77\n              jump\t// in\n            tag_76:\n              stop\n                /* \"Idea.sol\":2388:2680  function approveRequest(uint index) public {... */\n            tag_15:\n              callvalue\n              dup1\n              iszero\n              tag_78\n              jumpi\n              0x00\n              dup1\n              revert\n            tag_78:\n              pop\n              tag_79\n              0x04\n              dup1\n              calldatasize\n              sub\n              dup2\n              add\n              swap1\n              tag_80\n              swap2\n              swap1\n              tag_22\n              jump\t// in\n            tag_80:\n              tag_81\n              jump\t// in\n            tag_79:\n              stop\n                /* \"Idea.sol\":2686:2977  function finalizeRequest(uint index) public allowOnlyManager {... */\n            tag_23:\n                /* \"Idea.sol\":1095:1102  manager */\n              0x05\n              0x00\n              swap1\n              sload\n              swap1\n              0x0100\n              exp\n              swap1\n              div\n              0xffffffffffffffffffffffffffffffffffffffff\n              and\n                /* \"Idea.sol\":1081:1102  msg.sender == manager */\n              0xffffffffffffffffffffffffffffffffffffffff\n              and\n                /* \"Idea.sol\":1081:1091  msg.sender */\n              caller\n                /* \"Idea.sol\":1081:1102  msg.sender == manager */\n              0xffffffffffffffffffffffffffffffffffffffff\n              and\n              eq\n                /* \"Idea.sol\":1073:1103  require(msg.sender == manager) */\n              tag_83\n              jumpi\n              0x00\n              dup1\n              revert\n            tag_83:\n                /* \"Idea.sol\":2757:2780  Request storage request */\n              0x00\n                /* \"Idea.sol\":2783:2791  requests */\n              0x04\n                /* \"Idea.sol\":2783:2798  requests[index] */\n              0x00\n                /* \"Idea.sol\":2792:2797  index */\n              dup4\n                /* \"Idea.sol\":2783:2798  requests[index] */\n              dup2\n              mstore\n              0x20\n              add\n              swap1\n              dup2\n              mstore\n              0x20\n              add\n              0x00\n              keccak256\n                /* \"Idea.sol\":2757:2798  Request storage request = requests[index] */\n              swap1\n              pop\n                /* \"Idea.sol\":2846:2847  2 */\n              0x02\n                /* \"Idea.sol\":2836:2843  credits */\n              sload(0x09)\n                /* \"Idea.sol\":2836:2847  credits / 2 */\n              tag_85\n              swap2\n              swap1\n              tag_86\n              jump\t// in\n            tag_85:\n                /* \"Idea.sol\":2817:2824  request */\n              dup2\n                /* \"Idea.sol\":2817:2832  request.credits */\n              0x03\n              add\n              sload\n                /* \"Idea.sol\":2817:2848  request.credits > (credits / 2) */\n              gt\n                /* \"Idea.sol\":2809:2849  require(request.credits > (credits / 2)) */\n              tag_87\n              jumpi\n              0x00\n              dup1\n              revert\n            tag_87:\n                /* \"Idea.sol\":2868:2875  request */\n              dup1\n                /* \"Idea.sol\":2868:2884  request.complete */\n              0x02\n              add\n              0x14\n              swap1\n              sload\n              swap1\n              0x0100\n              exp\n              swap1\n              div\n              0xff\n              and\n                /* \"Idea.sol\":2867:2884  !request.complete */\n              iszero\n                /* \"Idea.sol\":2859:2885  require(!request.complete) */\n              tag_88\n              jumpi\n              0x00\n              dup1\n              revert\n            tag_88:\n                /* \"Idea.sol\":2896:2903  request */\n              dup1\n                /* \"Idea.sol\":2896:2913  request.recipient */\n              0x02\n              add\n              0x00\n              swap1\n              sload\n              swap1\n              0x0100\n              exp\n              swap1\n              div\n              0xffffffffffffffffffffffffffffffffffffffff\n              and\n                /* \"Idea.sol\":2896:2922  request.recipient.transfer */\n              0xffffffffffffffffffffffffffffffffffffffff\n              and\n                /* \"Idea.sol\":2896:2937  request.recipient.transfer(request.value) */\n              0x08fc\n                /* \"Idea.sol\":2923:2930  request */\n              dup3\n                /* \"Idea.sol\":2923:2936  request.value */\n              0x01\n              add\n              sload\n                /* \"Idea.sol\":2896:2937  request.recipient.transfer(request.value) */\n              swap1\n              dup2\n              iszero\n              mul\n              swap1\n              mload(0x40)\n              0x00\n              mload(0x40)\n              dup1\n              dup4\n              sub\n              dup2\n              dup6\n              dup9\n              dup9\n              call\n              swap4\n              pop\n              pop\n              pop\n              pop\n              iszero\n              dup1\n              iszero\n              tag_90\n              jumpi\n              returndatasize\n              0x00\n              dup1\n              returndatacopy\n              revert(0x00, returndatasize)\n            tag_90:\n              pop\n                /* \"Idea.sol\":2966:2970  true */\n              0x01\n                /* \"Idea.sol\":2947:2954  request */\n              dup2\n                /* \"Idea.sol\":2947:2963  request.complete */\n              0x02\n              add\n              0x14\n                /* \"Idea.sol\":2947:2970  request.complete = true */\n              0x0100\n              exp\n              dup2\n              sload\n              dup2\n              0xff\n              mul\n              not\n              and\n              swap1\n              dup4\n              iszero\n              iszero\n              mul\n              or\n              swap1\n              sstore\n              pop\n                /* \"Idea.sol\":1113:1114  _ */\n              pop\n                /* \"Idea.sol\":2686:2977  function finalizeRequest(uint index) public allowOnlyManager {... */\n              pop\n              jump\t// out\n                /* \"Idea.sol\":678:696  string public name */\n            tag_26:\n              0x00\n              dup1\n              sload\n              tag_91\n              swap1\n              tag_92\n              jump\t// in\n            tag_91:\n              dup1\n              0x1f\n              add\n              0x20\n              dup1\n              swap2\n              div\n              mul\n              0x20\n              add\n              mload(0x40)\n              swap1\n              dup2\n              add\n              0x40\n              mstore\n              dup1\n              swap3\n              swap2\n              swap1\n              dup2\n              dup2\n              mstore\n              0x20\n              add\n              dup3\n              dup1\n              sload\n              tag_93\n              swap1\n              tag_92\n              jump\t// in\n            tag_93:\n              dup1\n              iszero\n              tag_94\n              jumpi\n              dup1\n              0x1f\n              lt\n              tag_95\n              jumpi\n              0x0100\n              dup1\n              dup4\n              sload\n              div\n              mul\n              dup4\n              mstore\n              swap2\n              0x20\n              add\n              swap2\n              jump(tag_94)\n            tag_95:\n              dup3\n              add\n              swap2\n              swap1\n              0x00\n              mstore\n              keccak256(0x00, 0x20)\n              swap1\n            tag_96:\n              dup2\n              sload\n              dup2\n              mstore\n              swap1\n              0x01\n              add\n              swap1\n              0x20\n              add\n              dup1\n              dup4\n              gt\n              tag_96\n              jumpi\n              dup3\n              swap1\n              sub\n              0x1f\n              and\n              dup3\n              add\n              swap2\n            tag_94:\n              pop\n              pop\n              pop\n              pop\n              pop\n              dup2\n              jump\t// out\n                /* \"Idea.sol\":929:970  mapping(address => uint) public approvers */\n            tag_33:\n              mstore(0x20, 0x07)\n              dup1\n              0x00\n              mstore\n              keccak256(0x00, 0x40)\n              0x00\n              swap2\n              pop\n              swap1\n              pop\n              sload\n              dup2\n              jump\t// out\n                /* \"Idea.sol\":702:732  string public shortDescription */\n            tag_38:\n              0x01\n              dup1\n              sload\n              tag_97\n              swap1\n              tag_92\n              jump\t// in\n            tag_97:\n              dup1\n              0x1f\n              add\n              0x20\n              dup1\n              swap2\n              div\n              mul\n              0x20\n              add\n              mload(0x40)\n              swap1\n              dup2\n              add\n              0x40\n              mstore\n              dup1\n              swap3\n              swap2\n              swap1\n              dup2\n              dup2\n              mstore\n              0x20\n              add\n              dup3\n              dup1\n              sload\n              tag_98\n              swap1\n              tag_92\n              jump\t// in\n            tag_98:\n              dup1\n              iszero\n              tag_99\n              jumpi\n              dup1\n              0x1f\n              lt\n              tag_100\n              jumpi\n              0x0100\n              dup1\n              dup4\n              sload\n              div\n              mul\n              dup4\n              mstore\n              swap2\n              0x20\n              add\n              swap2\n              jump(tag_99)\n            tag_100:\n              dup3\n              add\n              swap2\n              swap1\n              0x00\n              mstore\n              keccak256(0x00, 0x20)\n              swap1\n            tag_101:\n              dup2\n              sload\n              dup2\n              mstore\n              swap1\n              0x01\n              add\n              swap1\n              0x20\n              add\n              dup1\n              dup4\n              gt\n              tag_101\n              jumpi\n              dup3\n              swap1\n              sub\n              0x1f\n              and\n              dup3\n              add\n              swap2\n            tag_99:\n              pop\n              pop\n              pop\n              pop\n              pop\n              dup2\n              jump\t// out\n                /* \"Idea.sol\":1009:1028  uint public credits */\n            tag_42:\n              sload(0x09)\n              dup2\n              jump\t// out\n                /* \"Idea.sol\":860:882  address public manager */\n            tag_46:\n              0x05\n              0x00\n              swap1\n              sload\n              swap1\n              0x0100\n              exp\n              swap1\n              div\n              0xffffffffffffffffffffffffffffffffffffffff\n              and\n              dup2\n              jump\t// out\n                /* \"Idea.sol\":977:1003  uint public oneCreditValue */\n            tag_51:\n              sload(0x08)\n              dup2\n              jump\t// out\n                /* \"Idea.sol\":738:763  string public description */\n            tag_55:\n              0x02\n              dup1\n              sload\n              tag_102\n              swap1\n              tag_92\n              jump\t// in\n            tag_102:\n              dup1\n              0x1f\n              add\n              0x20\n              dup1\n              swap2\n              div\n              mul\n              0x20\n              add\n              mload(0x40)\n              swap1\n              dup2\n              add\n              0x40\n              mstore\n              dup1\n              swap3\n              swap2\n              swap1\n              dup2\n              dup2\n              mstore\n              0x20\n              add\n              dup3\n              dup1\n              sload\n              tag_103\n              swap1\n              tag_92\n              jump\t// in\n            tag_103:\n              dup1\n              iszero\n              tag_104\n              jumpi\n              dup1\n              0x1f\n              lt\n              tag_105\n              jumpi\n              0x0100\n              dup1\n              dup4\n              sload\n              div\n              mul\n              dup4\n              mstore\n              swap2\n              0x20\n              add\n              swap2\n              jump(tag_104)\n            tag_105:\n              dup3\n              add\n              swap2\n              swap1\n              0x00\n              mstore\n              keccak256(0x00, 0x20)\n              swap1\n            tag_106:\n              dup2\n              sload\n              dup2\n              mstore\n              swap1\n              0x01\n              add\n              swap1\n              0x20\n              add\n              dup1\n              dup4\n              gt\n              tag_106\n              jumpi\n              dup3\n              swap1\n              sub\n              0x1f\n              and\n              dup3\n              add\n              swap2\n            tag_104:\n              pop\n              pop\n              pop\n              pop\n              pop\n              dup2\n              jump\t// out\n                /* \"Idea.sol\":893:923  uint public numUniqueApprovers */\n            tag_59:\n              sload(0x06)\n              dup2\n              jump\t// out\n                /* \"Idea.sol\":808:849  mapping (uint => Request) public requests */\n            tag_64:\n              mstore(0x20, 0x04)\n              dup1\n              0x00\n              mstore\n              keccak256(0x00, 0x40)\n              0x00\n              swap2\n              pop\n              swap1\n              pop\n              dup1\n              0x00\n              add\n              dup1\n              sload\n              tag_107\n              swap1\n              tag_92\n              jump\t// in\n            tag_107:\n              dup1\n              0x1f\n              add\n              0x20\n              dup1\n              swap2\n              div\n              mul\n              0x20\n              add\n              mload(0x40)\n              swap1\n              dup2\n              add\n              0x40\n              mstore\n              dup1\n              swap3\n              swap2\n              swap1\n              dup2\n              dup2\n              mstore\n              0x20\n              add\n              dup3\n              dup1\n              sload\n              tag_108\n              swap1\n              tag_92\n              jump\t// in\n            tag_108:\n              dup1\n              iszero\n              tag_109\n              jumpi\n              dup1\n              0x1f\n              lt\n              tag_110\n              jumpi\n              0x0100\n              dup1\n              dup4\n              sload\n              div\n              mul\n              dup4\n              mstore\n              swap2\n              0x20\n              add\n              swap2\n              jump(tag_109)\n            tag_110:\n              dup3\n              add\n              swap2\n              swap1\n              0x00\n              mstore\n              keccak256(0x00, 0x20)\n              swap1\n            tag_111:\n              dup2\n              sload\n              dup2\n              mstore\n              swap1\n              0x01\n              add\n              swap1\n              0x20\n              add\n              dup1\n              dup4\n              gt\n              tag_111\n              jumpi\n              dup3\n              swap1\n              sub\n              0x1f\n              and\n              dup3\n              add\n              swap2\n            tag_109:\n              pop\n              pop\n              pop\n              pop\n              pop\n              swap1\n              dup1\n              0x01\n              add\n              sload\n              swap1\n              dup1\n              0x02\n              add\n              0x00\n              swap1\n              sload\n              swap1\n              0x0100\n              exp\n              swap1\n              div\n              0xffffffffffffffffffffffffffffffffffffffff\n              and\n              swap1\n              dup1\n              0x02\n              add\n              0x14\n              swap1\n              sload\n              swap1\n              0x0100\n              exp\n              swap1\n              div\n              0xff\n              and\n              swap1\n              dup1\n              0x03\n              add\n              sload\n              swap1\n              pop\n              dup6\n              jump\t// out\n                /* \"Idea.sol\":2059:2378  function createRequest(string memory description, uint value, address payable recipient) public allowOnlyManager {... */\n            tag_71:\n                /* \"Idea.sol\":1095:1102  manager */\n              0x05\n              0x00\n              swap1\n              sload\n              swap1\n              0x0100\n              exp\n              swap1\n              div\n              0xffffffffffffffffffffffffffffffffffffffff\n              and\n                /* \"Idea.sol\":1081:1102  msg.sender == manager */\n              0xffffffffffffffffffffffffffffffffffffffff\n              and\n                /* \"Idea.sol\":1081:1091  msg.sender */\n              caller\n                /* \"Idea.sol\":1081:1102  msg.sender == manager */\n              0xffffffffffffffffffffffffffffffffffffffff\n              and\n              eq\n                /* \"Idea.sol\":1073:1103  require(msg.sender == manager) */\n              tag_113\n              jumpi\n              0x00\n              dup1\n              revert\n            tag_113:\n                /* \"Idea.sol\":2182:2199  Request storage r */\n              0x00\n                /* \"Idea.sol\":2202:2210  requests */\n              0x04\n                /* \"Idea.sol\":2202:2225  requests[numRequests++] */\n              0x00\n                /* \"Idea.sol\":2211:2222  numRequests */\n              0x03\n              0x00\n                /* \"Idea.sol\":2211:2224  numRequests++ */\n              dup2\n              sload\n              dup1\n              swap3\n              swap2\n              swap1\n              tag_115\n              swap1\n              tag_116\n              jump\t// in\n            tag_115:\n              swap2\n              swap1\n              pop\n              sstore\n                /* \"Idea.sol\":2202:2225  requests[numRequests++] */\n              dup2\n              mstore\n              0x20\n              add\n              swap1\n              dup2\n              mstore\n              0x20\n              add\n              0x00\n              keccak256\n                /* \"Idea.sol\":2182:2225  Request storage r = requests[numRequests++] */\n              swap1\n              pop\n                /* \"Idea.sol\":2251:2262  description */\n              dup4\n                /* \"Idea.sol\":2235:2236  r */\n              dup2\n                /* \"Idea.sol\":2235:2248  r.description */\n              0x00\n              add\n                /* \"Idea.sol\":2235:2262  r.description = description */\n              swap1\n              dup1\n              mload\n              swap1\n              0x20\n              add\n              swap1\n              tag_117\n              swap3\n              swap2\n              swap1\n              tag_118\n              jump\t// in\n            tag_117:\n              pop\n                /* \"Idea.sol\":2282:2287  value */\n              dup3\n                /* \"Idea.sol\":2272:2273  r */\n              dup2\n                /* \"Idea.sol\":2272:2279  r.value */\n              0x01\n              add\n                /* \"Idea.sol\":2272:2287  r.value = value */\n              dup2\n              swap1\n              sstore\n              pop\n                /* \"Idea.sol\":2311:2320  recipient */\n              dup2\n                /* \"Idea.sol\":2297:2298  r */\n              dup2\n                /* \"Idea.sol\":2297:2308  r.recipient */\n              0x02\n              add\n              0x00\n                /* \"Idea.sol\":2297:2320  r.recipient = recipient */\n              0x0100\n              exp\n              dup2\n              sload\n              dup2\n              0xffffffffffffffffffffffffffffffffffffffff\n              mul\n              not\n              and\n              swap1\n              dup4\n              0xffffffffffffffffffffffffffffffffffffffff\n              and\n              mul\n              or\n              swap1\n              sstore\n              pop\n                /* \"Idea.sol\":2343:2348  false */\n              0x00\n                /* \"Idea.sol\":2330:2331  r */\n              dup2\n                /* \"Idea.sol\":2330:2340  r.complete */\n              0x02\n              add\n              0x14\n                /* \"Idea.sol\":2330:2348  r.complete = false */\n              0x0100\n              exp\n              dup2\n              sload\n              dup2\n              0xff\n              mul\n              not\n              and\n              swap1\n              dup4\n              iszero\n              iszero\n              mul\n              or\n              swap1\n              sstore\n              pop\n                /* \"Idea.sol\":2370:2371  0 */\n              0x00\n                /* \"Idea.sol\":2358:2359  r */\n              dup2\n                /* \"Idea.sol\":2358:2367  r.credits */\n              0x03\n              add\n                /* \"Idea.sol\":2358:2371  r.credits = 0 */\n              dup2\n              swap1\n              sstore\n              pop\n                /* \"Idea.sol\":1113:1114  _ */\n              pop\n                /* \"Idea.sol\":2059:2378  function createRequest(string memory description, uint value, address payable recipient) public allowOnlyManager {... */\n              pop\n              pop\n              pop\n              jump\t// out\n                /* \"Idea.sol\":779:802  uint public numRequests */\n            tag_74:\n              sload(0x03)\n              dup2\n              jump\t// out\n                /* \"Idea.sol\":1462:2049  function contribute() public payable {... */\n            tag_77:\n                /* \"Idea.sol\":1530:1544  oneCreditValue */\n              sload(0x08)\n                /* \"Idea.sol\":1517:1526  msg.value */\n              callvalue\n                /* \"Idea.sol\":1517:1544  msg.value >= oneCreditValue */\n              lt\n              iszero\n                /* \"Idea.sol\":1509:1545  require(msg.value >= oneCreditValue) */\n              tag_120\n              jumpi\n              0x00\n              dup1\n              revert\n            tag_120:\n                /* \"Idea.sol\":1584:1585  0 */\n              0x00\n                /* \"Idea.sol\":1559:1568  approvers */\n              0x07\n                /* \"Idea.sol\":1559:1580  approvers[msg.sender] */\n              0x00\n                /* \"Idea.sol\":1569:1579  msg.sender */\n              caller\n                /* \"Idea.sol\":1559:1580  approvers[msg.sender] */\n              0xffffffffffffffffffffffffffffffffffffffff\n              and\n              0xffffffffffffffffffffffffffffffffffffffff\n              and\n              dup2\n              mstore\n              0x20\n              add\n              swap1\n              dup2\n              mstore\n              0x20\n              add\n              0x00\n              keccak256\n              sload\n                /* \"Idea.sol\":1559:1585  approvers[msg.sender] == 0 */\n              eq\n                /* \"Idea.sol\":1556:1632  if(approvers[msg.sender] == 0) {... */\n              iszero\n              tag_121\n              jumpi\n                /* \"Idea.sol\":1601:1619  numUniqueApprovers */\n              0x06\n              0x00\n                /* \"Idea.sol\":1601:1621  numUniqueApprovers++ */\n              dup2\n              sload\n              dup1\n              swap3\n              swap2\n              swap1\n              tag_122\n              swap1\n              tag_116\n              jump\t// in\n            tag_122:\n              swap2\n              swap1\n              pop\n              sstore\n              pop\n                /* \"Idea.sol\":1556:1632  if(approvers[msg.sender] == 0) {... */\n            tag_121:\n                /* \"Idea.sol\":1643:1653  uint value */\n              0x00\n                /* \"Idea.sol\":1668:1682  oneCreditValue */\n              sload(0x08)\n                /* \"Idea.sol\":1656:1665  msg.value */\n              callvalue\n                /* \"Idea.sol\":1656:1682  msg.value / oneCreditValue */\n              tag_123\n              swap2\n              swap1\n              tag_86\n              jump\t// in\n            tag_123:\n                /* \"Idea.sol\":1643:1682  uint value = msg.value / oneCreditValue */\n              swap1\n              pop\n                /* \"Idea.sol\":1717:1722  value */\n              dup1\n                /* \"Idea.sol\":1692:1701  approvers */\n              0x07\n                /* \"Idea.sol\":1692:1713  approvers[msg.sender] */\n              0x00\n                /* \"Idea.sol\":1702:1712  msg.sender */\n              caller\n                /* \"Idea.sol\":1692:1713  approvers[msg.sender] */\n              0xffffffffffffffffffffffffffffffffffffffff\n              and\n              0xffffffffffffffffffffffffffffffffffffffff\n              and\n              dup2\n              mstore\n              0x20\n              add\n              swap1\n              dup2\n              mstore\n              0x20\n              add\n              0x00\n              keccak256\n              0x00\n                /* \"Idea.sol\":1692:1722  approvers[msg.sender] += value */\n              dup3\n              dup3\n              sload\n              tag_124\n              swap2\n              swap1\n              tag_125\n              jump\t// in\n            tag_124:\n              swap3\n              pop\n              pop\n              dup2\n              swap1\n              sstore\n              pop\n                /* \"Idea.sol\":1743:1748  value */\n              dup1\n                /* \"Idea.sol\":1732:1739  credits */\n              0x09\n              0x00\n                /* \"Idea.sol\":1732:1748  credits += value */\n              dup3\n              dup3\n              sload\n              tag_126\n              swap2\n              swap1\n              tag_125\n              jump\t// in\n            tag_126:\n              swap3\n              pop\n              pop\n              dup2\n              swap1\n              sstore\n              pop\n                /* \"Idea.sol\":1800:1811  uint change */\n              0x00\n                /* \"Idea.sol\":1826:1840  oneCreditValue */\n              sload(0x08)\n                /* \"Idea.sol\":1814:1823  msg.value */\n              callvalue\n                /* \"Idea.sol\":1814:1840  msg.value % oneCreditValue */\n              tag_127\n              swap2\n              swap1\n              tag_128\n              jump\t// in\n            tag_127:\n                /* \"Idea.sol\":1800:1840  uint change = msg.value % oneCreditValue */\n              swap1\n              pop\n                /* \"Idea.sol\":1920:1921  0 */\n              0x00\n                /* \"Idea.sol\":1910:1916  change */\n              dup2\n                /* \"Idea.sol\":1910:1921  change != 0 */\n              eq\n                /* \"Idea.sol\":1907:2043  if(change != 0) {... */\n              tag_129\n              jumpi\n                /* \"Idea.sol\":1937:1966  address payable senderAddress */\n              0x00\n                /* \"Idea.sol\":1977:1987  msg.sender */\n              caller\n                /* \"Idea.sol\":1937:1988  address payable senderAddress = payable(msg.sender) */\n              swap1\n              pop\n                /* \"Idea.sol\":2002:2015  senderAddress */\n              dup1\n                /* \"Idea.sol\":2002:2024  senderAddress.transfer */\n              0xffffffffffffffffffffffffffffffffffffffff\n              and\n                /* \"Idea.sol\":2002:2032  senderAddress.transfer(change) */\n              0x08fc\n                /* \"Idea.sol\":2025:2031  change */\n              dup4\n                /* \"Idea.sol\":2002:2032  senderAddress.transfer(change) */\n              swap1\n              dup2\n              iszero\n              mul\n              swap1\n              mload(0x40)\n              0x00\n              mload(0x40)\n              dup1\n              dup4\n              sub\n              dup2\n              dup6\n              dup9\n              dup9\n              call\n              swap4\n              pop\n              pop\n              pop\n              pop\n              iszero\n              dup1\n              iszero\n              tag_131\n              jumpi\n              returndatasize\n              0x00\n              dup1\n              returndatacopy\n              revert(0x00, returndatasize)\n            tag_131:\n              pop\n                /* \"Idea.sol\":1907:2043  if(change != 0) {... */\n              pop\n            tag_129:\n                /* \"Idea.sol\":1462:2049  function contribute() public payable {... */\n              pop\n              pop\n              jump\t// out\n                /* \"Idea.sol\":2388:2680  function approveRequest(uint index) public {... */\n            tag_81:\n                /* \"Idea.sol\":2441:2464  Request storage request */\n              0x00\n                /* \"Idea.sol\":2467:2475  requests */\n              0x04\n                /* \"Idea.sol\":2467:2482  requests[index] */\n              0x00\n                /* \"Idea.sol\":2476:2481  index */\n              dup4\n                /* \"Idea.sol\":2467:2482  requests[index] */\n              dup2\n              mstore\n              0x20\n              add\n              swap1\n              dup2\n              mstore\n              0x20\n              add\n              0x00\n              keccak256\n                /* \"Idea.sol\":2441:2482  Request storage request = requests[index] */\n              swap1\n              pop\n                /* \"Idea.sol\":2525:2526  0 */\n              0x00\n                /* \"Idea.sol\":2501:2510  approvers */\n              0x07\n                /* \"Idea.sol\":2501:2522  approvers[msg.sender] */\n              0x00\n                /* \"Idea.sol\":2511:2521  msg.sender */\n              caller\n                /* \"Idea.sol\":2501:2522  approvers[msg.sender] */\n              0xffffffffffffffffffffffffffffffffffffffff\n              and\n              0xffffffffffffffffffffffffffffffffffffffff\n              and\n              dup2\n              mstore\n              0x20\n              add\n              swap1\n              dup2\n              mstore\n              0x20\n              add\n              0x00\n              keccak256\n              sload\n                /* \"Idea.sol\":2501:2526  approvers[msg.sender] > 0 */\n              gt\n                /* \"Idea.sol\":2493:2527  require(approvers[msg.sender] > 0) */\n              tag_133\n              jumpi\n              0x00\n              dup1\n              revert\n            tag_133:\n                /* \"Idea.sol\":2546:2553  request */\n              dup1\n                /* \"Idea.sol\":2546:2563  request.approvals */\n              0x04\n              add\n                /* \"Idea.sol\":2546:2575  request.approvals[msg.sender] */\n              0x00\n                /* \"Idea.sol\":2564:2574  msg.sender */\n              caller\n                /* \"Idea.sol\":2546:2575  request.approvals[msg.sender] */\n              0xffffffffffffffffffffffffffffffffffffffff\n              and\n              0xffffffffffffffffffffffffffffffffffffffff\n              and\n              dup2\n              mstore\n              0x20\n              add\n              swap1\n              dup2\n              mstore\n              0x20\n              add\n              0x00\n              keccak256\n              0x00\n              swap1\n              sload\n              swap1\n              0x0100\n              exp\n              swap1\n              div\n              0xff\n              and\n                /* \"Idea.sol\":2545:2575  !request.approvals[msg.sender] */\n              iszero\n                /* \"Idea.sol\":2537:2576  require(!request.approvals[msg.sender]) */\n              tag_134\n              jumpi\n              0x00\n              dup1\n              revert\n            tag_134:\n                /* \"Idea.sol\":2619:2623  true */\n              0x01\n                /* \"Idea.sol\":2587:2594  request */\n              dup2\n                /* \"Idea.sol\":2587:2604  request.approvals */\n              0x04\n              add\n                /* \"Idea.sol\":2587:2616  request.approvals[msg.sender] */\n              0x00\n                /* \"Idea.sol\":2605:2615  msg.sender */\n              caller\n                /* \"Idea.sol\":2587:2616  request.approvals[msg.sender] */\n              0xffffffffffffffffffffffffffffffffffffffff\n              and\n              0xffffffffffffffffffffffffffffffffffffffff\n              and\n              dup2\n              mstore\n              0x20\n              add\n              swap1\n              dup2\n              mstore\n              0x20\n              add\n              0x00\n              keccak256\n              0x00\n                /* \"Idea.sol\":2587:2623  request.approvals[msg.sender] = true */\n              0x0100\n              exp\n              dup2\n              sload\n              dup2\n              0xff\n              mul\n              not\n              and\n              swap1\n              dup4\n              iszero\n              iszero\n              mul\n              or\n              swap1\n              sstore\n              pop\n                /* \"Idea.sol\":2652:2661  approvers */\n              0x07\n                /* \"Idea.sol\":2652:2673  approvers[msg.sender] */\n              0x00\n                /* \"Idea.sol\":2662:2672  msg.sender */\n              caller\n                /* \"Idea.sol\":2652:2673  approvers[msg.sender] */\n              0xffffffffffffffffffffffffffffffffffffffff\n              and\n              0xffffffffffffffffffffffffffffffffffffffff\n              and\n              dup2\n              mstore\n              0x20\n              add\n              swap1\n              dup2\n              mstore\n              0x20\n              add\n              0x00\n              keccak256\n              sload\n                /* \"Idea.sol\":2633:2640  request */\n              dup2\n                /* \"Idea.sol\":2633:2648  request.credits */\n              0x03\n              add\n              0x00\n                /* \"Idea.sol\":2633:2673  request.credits += approvers[msg.sender] */\n              dup3\n              dup3\n              sload\n              tag_135\n              swap2\n              swap1\n              tag_125\n              jump\t// in\n            tag_135:\n              swap3\n              pop\n              pop\n              dup2\n              swap1\n              sstore\n              pop\n                /* \"Idea.sol\":2388:2680  function approveRequest(uint index) public {... */\n              pop\n              pop\n              jump\t// out\n            tag_118:\n              dup3\n              dup1\n              sload\n              tag_136\n              swap1\n              tag_92\n              jump\t// in\n            tag_136:\n              swap1\n              0x00\n              mstore\n              keccak256(0x00, 0x20)\n              swap1\n              0x1f\n              add\n              0x20\n              swap1\n              div\n              dup2\n              add\n              swap3\n              dup3\n              tag_138\n              jumpi\n              0x00\n              dup6\n              sstore\n              jump(tag_137)\n            tag_138:\n              dup3\n              0x1f\n              lt\n              tag_139\n              jumpi\n              dup1\n              mload\n              not(0xff)\n              and\n              dup4\n              dup1\n              add\n              or\n              dup6\n              sstore\n              jump(tag_137)\n            tag_139:\n              dup3\n              dup1\n              add\n              0x01\n              add\n              dup6\n              sstore\n              dup3\n              iszero\n              tag_137\n              jumpi\n              swap2\n              dup3\n              add\n            tag_140:\n              dup3\n              dup2\n              gt\n              iszero\n              tag_141\n              jumpi\n              dup3\n              mload\n              dup3\n              sstore\n              swap2\n              0x20\n              add\n              swap2\n              swap1\n              0x01\n              add\n              swap1\n              jump(tag_140)\n            tag_141:\n            tag_137:\n              pop\n              swap1\n              pop\n              tag_142\n              swap2\n              swap1\n              tag_143\n              jump\t// in\n            tag_142:\n              pop\n              swap1\n              jump\t// out\n            tag_143:\n            tag_144:\n              dup1\n              dup3\n              gt\n              iszero\n              tag_145\n              jumpi\n              0x00\n              dup2\n              0x00\n              swap1\n              sstore\n              pop\n              0x01\n              add\n              jump(tag_144)\n            tag_145:\n              pop\n              swap1\n              jump\t// out\n                /* \"#utility.yul\":7:352   */\n            tag_147:\n              0x00\n                /* \"#utility.yul\":110:176   */\n              tag_149\n                /* \"#utility.yul\":126:175   */\n              tag_150\n                /* \"#utility.yul\":168:174   */\n              dup5\n                /* \"#utility.yul\":126:175   */\n              tag_151\n              jump\t// in\n            tag_150:\n                /* \"#utility.yul\":110:176   */\n              tag_152\n              jump\t// in\n            tag_149:\n                /* \"#utility.yul\":101:176   */\n              swap1\n              pop\n                /* \"#utility.yul\":199:205   */\n              dup3\n                /* \"#utility.yul\":192:197   */\n              dup2\n                /* \"#utility.yul\":185:206   */\n              mstore\n                /* \"#utility.yul\":237:241   */\n              0x20\n                /* \"#utility.yul\":230:235   */\n              dup2\n                /* \"#utility.yul\":226:242   */\n              add\n                /* \"#utility.yul\":275:278   */\n              dup5\n                /* \"#utility.yul\":266:272   */\n              dup5\n                /* \"#utility.yul\":261:264   */\n              dup5\n                /* \"#utility.yul\":257:273   */\n              add\n                /* \"#utility.yul\":254:279   */\n              gt\n                /* \"#utility.yul\":251:253   */\n              iszero\n              tag_153\n              jumpi\n                /* \"#utility.yul\":292:293   */\n              0x00\n                /* \"#utility.yul\":289:290   */\n              dup1\n                /* \"#utility.yul\":282:294   */\n              revert\n                /* \"#utility.yul\":251:253   */\n            tag_153:\n                /* \"#utility.yul\":305:346   */\n              tag_154\n                /* \"#utility.yul\":339:345   */\n              dup5\n                /* \"#utility.yul\":334:337   */\n              dup3\n                /* \"#utility.yul\":329:332   */\n              dup6\n                /* \"#utility.yul\":305:346   */\n              tag_155\n              jump\t// in\n            tag_154:\n                /* \"#utility.yul\":91:352   */\n              pop\n              swap4\n              swap3\n              pop\n              pop\n              pop\n              jump\t// out\n                /* \"#utility.yul\":358:497   */\n            tag_156:\n              0x00\n                /* \"#utility.yul\":442:448   */\n              dup2\n                /* \"#utility.yul\":429:449   */\n              calldataload\n                /* \"#utility.yul\":420:449   */\n              swap1\n              pop\n                /* \"#utility.yul\":458:491   */\n              tag_158\n                /* \"#utility.yul\":485:490   */\n              dup2\n                /* \"#utility.yul\":458:491   */\n              tag_159\n              jump\t// in\n            tag_158:\n                /* \"#utility.yul\":410:497   */\n              swap3\n              swap2\n              pop\n              pop\n              jump\t// out\n                /* \"#utility.yul\":503:658   */\n            tag_160:\n              0x00\n                /* \"#utility.yul\":595:601   */\n              dup2\n                /* \"#utility.yul\":582:602   */\n              calldataload\n                /* \"#utility.yul\":573:602   */\n              swap1\n              pop\n                /* \"#utility.yul\":611:652   */\n              tag_162\n                /* \"#utility.yul\":646:651   */\n              dup2\n                /* \"#utility.yul\":611:652   */\n              tag_163\n              jump\t// in\n            tag_162:\n                /* \"#utility.yul\":563:658   */\n              swap3\n              swap2\n              pop\n              pop\n              jump\t// out\n                /* \"#utility.yul\":678:951   */\n            tag_164:\n              0x00\n                /* \"#utility.yul\":783:786   */\n              dup3\n                /* \"#utility.yul\":776:780   */\n              0x1f\n                /* \"#utility.yul\":768:774   */\n              dup4\n                /* \"#utility.yul\":764:781   */\n              add\n                /* \"#utility.yul\":760:787   */\n              slt\n                /* \"#utility.yul\":750:752   */\n              tag_166\n              jumpi\n                /* \"#utility.yul\":801:802   */\n              0x00\n                /* \"#utility.yul\":798:799   */\n              dup1\n                /* \"#utility.yul\":791:803   */\n              revert\n                /* \"#utility.yul\":750:752   */\n            tag_166:\n                /* \"#utility.yul\":841:847   */\n              dup2\n                /* \"#utility.yul\":828:848   */\n              calldataload\n                /* \"#utility.yul\":866:945   */\n              tag_167\n                /* \"#utility.yul\":941:944   */\n              dup5\n                /* \"#utility.yul\":933:939   */\n              dup3\n                /* \"#utility.yul\":926:930   */\n              0x20\n                /* \"#utility.yul\":918:924   */\n              dup7\n                /* \"#utility.yul\":914:931   */\n              add\n                /* \"#utility.yul\":866:945   */\n              tag_147\n              jump\t// in\n            tag_167:\n                /* \"#utility.yul\":857:945   */\n              swap2\n              pop\n                /* \"#utility.yul\":740:951   */\n              pop\n              swap3\n              swap2\n              pop\n              pop\n              jump\t// out\n                /* \"#utility.yul\":957:1096   */\n            tag_168:\n              0x00\n                /* \"#utility.yul\":1041:1047   */\n              dup2\n                /* \"#utility.yul\":1028:1048   */\n              calldataload\n                /* \"#utility.yul\":1019:1048   */\n              swap1\n              pop\n                /* \"#utility.yul\":1057:1090   */\n              tag_170\n                /* \"#utility.yul\":1084:1089   */\n              dup2\n                /* \"#utility.yul\":1057:1090   */\n              tag_171\n              jump\t// in\n            tag_170:\n                /* \"#utility.yul\":1009:1096   */\n              swap3\n              swap2\n              pop\n              pop\n              jump\t// out\n                /* \"#utility.yul\":1102:1364   */\n            tag_32:\n              0x00\n                /* \"#utility.yul\":1210:1212   */\n              0x20\n                /* \"#utility.yul\":1198:1207   */\n              dup3\n                /* \"#utility.yul\":1189:1196   */\n              dup5\n                /* \"#utility.yul\":1185:1208   */\n              sub\n                /* \"#utility.yul\":1181:1213   */\n              slt\n                /* \"#utility.yul\":1178:1180   */\n              iszero\n              tag_173\n              jumpi\n                /* \"#utility.yul\":1226:1227   */\n              0x00\n                /* \"#utility.yul\":1223:1224   */\n              dup1\n                /* \"#utility.yul\":1216:1228   */\n              revert\n                /* \"#utility.yul\":1178:1180   */\n            tag_173:\n                /* \"#utility.yul\":1269:1270   */\n              0x00\n                /* \"#utility.yul\":1294:1347   */\n              tag_174\n                /* \"#utility.yul\":1339:1346   */\n              dup5\n                /* \"#utility.yul\":1330:1336   */\n              dup3\n                /* \"#utility.yul\":1319:1328   */\n              dup6\n                /* \"#utility.yul\":1315:1337   */\n              add\n                /* \"#utility.yul\":1294:1347   */\n              tag_156\n              jump\t// in\n            tag_174:\n                /* \"#utility.yul\":1284:1347   */\n              swap2\n              pop\n                /* \"#utility.yul\":1240:1357   */\n              pop\n                /* \"#utility.yul\":1168:1364   */\n              swap3\n              swap2\n              pop\n              pop\n              jump\t// out\n                /* \"#utility.yul\":1370:2051   */\n            tag_70:\n              0x00\n              dup1\n              0x00\n                /* \"#utility.yul\":1530:1532   */\n              0x60\n                /* \"#utility.yul\":1518:1527   */\n              dup5\n                /* \"#utility.yul\":1509:1516   */\n              dup7\n                /* \"#utility.yul\":1505:1528   */\n              sub\n                /* \"#utility.yul\":1501:1533   */\n              slt\n                /* \"#utility.yul\":1498:1500   */\n              iszero\n              tag_176\n              jumpi\n                /* \"#utility.yul\":1546:1547   */\n              0x00\n                /* \"#utility.yul\":1543:1544   */\n              dup1\n                /* \"#utility.yul\":1536:1548   */\n              revert\n                /* \"#utility.yul\":1498:1500   */\n            tag_176:\n                /* \"#utility.yul\":1617:1618   */\n              0x00\n                /* \"#utility.yul\":1606:1615   */\n              dup5\n                /* \"#utility.yul\":1602:1619   */\n              add\n                /* \"#utility.yul\":1589:1620   */\n              calldataload\n                /* \"#utility.yul\":1647:1665   */\n              0xffffffffffffffff\n                /* \"#utility.yul\":1639:1645   */\n              dup2\n                /* \"#utility.yul\":1636:1666   */\n              gt\n                /* \"#utility.yul\":1633:1635   */\n              iszero\n              tag_177\n              jumpi\n                /* \"#utility.yul\":1679:1680   */\n              0x00\n                /* \"#utility.yul\":1676:1677   */\n              dup1\n                /* \"#utility.yul\":1669:1681   */\n              revert\n                /* \"#utility.yul\":1633:1635   */\n            tag_177:\n                /* \"#utility.yul\":1707:1770   */\n              tag_178\n                /* \"#utility.yul\":1762:1769   */\n              dup7\n                /* \"#utility.yul\":1753:1759   */\n              dup3\n                /* \"#utility.yul\":1742:1751   */\n              dup8\n                /* \"#utility.yul\":1738:1760   */\n              add\n                /* \"#utility.yul\":1707:1770   */\n              tag_164\n              jump\t// in\n            tag_178:\n                /* \"#utility.yul\":1697:1770   */\n              swap4\n              pop\n                /* \"#utility.yul\":1560:1780   */\n              pop\n                /* \"#utility.yul\":1819:1821   */\n              0x20\n                /* \"#utility.yul\":1845:1898   */\n              tag_179\n                /* \"#utility.yul\":1890:1897   */\n              dup7\n                /* \"#utility.yul\":1881:1887   */\n              dup3\n                /* \"#utility.yul\":1870:1879   */\n              dup8\n                /* \"#utility.yul\":1866:1888   */\n              add\n                /* \"#utility.yul\":1845:1898   */\n              tag_168\n              jump\t// in\n            tag_179:\n                /* \"#utility.yul\":1835:1898   */\n              swap3\n              pop\n                /* \"#utility.yul\":1790:1908   */\n              pop\n                /* \"#utility.yul\":1947:1949   */\n              0x40\n                /* \"#utility.yul\":1973:2034   */\n              tag_180\n                /* \"#utility.yul\":2026:2033   */\n              dup7\n                /* \"#utility.yul\":2017:2023   */\n              dup3\n                /* \"#utility.yul\":2006:2015   */\n              dup8\n                /* \"#utility.yul\":2002:2024   */\n              add\n                /* \"#utility.yul\":1973:2034   */\n              tag_160\n              jump\t// in\n            tag_180:\n                /* \"#utility.yul\":1963:2034   */\n              swap2\n              pop\n                /* \"#utility.yul\":1918:2044   */\n              pop\n                /* \"#utility.yul\":1488:2051   */\n              swap3\n              pop\n              swap3\n              pop\n              swap3\n              jump\t// out\n                /* \"#utility.yul\":2057:2319   */\n            tag_22:\n              0x00\n                /* \"#utility.yul\":2165:2167   */\n              0x20\n                /* \"#utility.yul\":2153:2162   */\n              dup3\n                /* \"#utility.yul\":2144:2151   */\n              dup5\n                /* \"#utility.yul\":2140:2163   */\n              sub\n                /* \"#utility.yul\":2136:2168   */\n              slt\n                /* \"#utility.yul\":2133:2135   */\n              iszero\n              tag_182\n              jumpi\n                /* \"#utility.yul\":2181:2182   */\n              0x00\n                /* \"#utility.yul\":2178:2179   */\n              dup1\n                /* \"#utility.yul\":2171:2183   */\n              revert\n                /* \"#utility.yul\":2133:2135   */\n            tag_182:\n                /* \"#utility.yul\":2224:2225   */\n              0x00\n                /* \"#utility.yul\":2249:2302   */\n              tag_183\n                /* \"#utility.yul\":2294:2301   */\n              dup5\n                /* \"#utility.yul\":2285:2291   */\n              dup3\n                /* \"#utility.yul\":2274:2283   */\n              dup6\n                /* \"#utility.yul\":2270:2292   */\n              add\n                /* \"#utility.yul\":2249:2302   */\n              tag_168\n              jump\t// in\n            tag_183:\n                /* \"#utility.yul\":2239:2302   */\n              swap2\n              pop\n                /* \"#utility.yul\":2195:2312   */\n              pop\n                /* \"#utility.yul\":2123:2319   */\n              swap3\n              swap2\n              pop\n              pop\n              jump\t// out\n                /* \"#utility.yul\":2325:2467   */\n            tag_184:\n                /* \"#utility.yul\":2428:2460   */\n              tag_186\n                /* \"#utility.yul\":2454:2459   */\n              dup2\n                /* \"#utility.yul\":2428:2460   */\n              tag_187\n              jump\t// in\n            tag_186:\n                /* \"#utility.yul\":2423:2426   */\n              dup3\n                /* \"#utility.yul\":2416:2461   */\n              mstore\n                /* \"#utility.yul\":2406:2467   */\n              pop\n              pop\n              jump\t// out\n                /* \"#utility.yul\":2473:2591   */\n            tag_188:\n                /* \"#utility.yul\":2560:2584   */\n              tag_190\n                /* \"#utility.yul\":2578:2583   */\n              dup2\n                /* \"#utility.yul\":2560:2584   */\n              tag_191\n              jump\t// in\n            tag_190:\n                /* \"#utility.yul\":2555:2558   */\n              dup3\n                /* \"#utility.yul\":2548:2585   */\n              mstore\n                /* \"#utility.yul\":2538:2591   */\n              pop\n              pop\n              jump\t// out\n                /* \"#utility.yul\":2597:2706   */\n            tag_192:\n                /* \"#utility.yul\":2678:2699   */\n              tag_194\n                /* \"#utility.yul\":2693:2698   */\n              dup2\n                /* \"#utility.yul\":2678:2699   */\n              tag_195\n              jump\t// in\n            tag_194:\n                /* \"#utility.yul\":2673:2676   */\n              dup3\n                /* \"#utility.yul\":2666:2700   */\n              mstore\n                /* \"#utility.yul\":2656:2706   */\n              pop\n              pop\n              jump\t// out\n                /* \"#utility.yul\":2712:3076   */\n            tag_196:\n              0x00\n                /* \"#utility.yul\":2828:2867   */\n              tag_198\n                /* \"#utility.yul\":2861:2866   */\n              dup3\n                /* \"#utility.yul\":2828:2867   */\n              tag_199\n              jump\t// in\n            tag_198:\n                /* \"#utility.yul\":2883:2954   */\n              tag_200\n                /* \"#utility.yul\":2947:2953   */\n              dup2\n                /* \"#utility.yul\":2942:2945   */\n              dup6\n                /* \"#utility.yul\":2883:2954   */\n              tag_201\n              jump\t// in\n            tag_200:\n                /* \"#utility.yul\":2876:2954   */\n              swap4\n              pop\n                /* \"#utility.yul\":2963:3015   */\n              tag_202\n                /* \"#utility.yul\":3008:3014   */\n              dup2\n                /* \"#utility.yul\":3003:3006   */\n              dup6\n                /* \"#utility.yul\":2996:3000   */\n              0x20\n                /* \"#utility.yul\":2989:2994   */\n              dup7\n                /* \"#utility.yul\":2985:3001   */\n              add\n                /* \"#utility.yul\":2963:3015   */\n              tag_203\n              jump\t// in\n            tag_202:\n                /* \"#utility.yul\":3040:3069   */\n              tag_204\n                /* \"#utility.yul\":3062:3068   */\n              dup2\n                /* \"#utility.yul\":3040:3069   */\n              tag_205\n              jump\t// in\n            tag_204:\n                /* \"#utility.yul\":3035:3038   */\n              dup5\n                /* \"#utility.yul\":3031:3070   */\n              add\n                /* \"#utility.yul\":3024:3070   */\n              swap2\n              pop\n                /* \"#utility.yul\":2804:3076   */\n              pop\n              swap3\n              swap2\n              pop\n              pop\n              jump\t// out\n                /* \"#utility.yul\":3082:3200   */\n            tag_206:\n                /* \"#utility.yul\":3169:3193   */\n              tag_208\n                /* \"#utility.yul\":3187:3192   */\n              dup2\n                /* \"#utility.yul\":3169:3193   */\n              tag_209\n              jump\t// in\n            tag_208:\n                /* \"#utility.yul\":3164:3167   */\n              dup3\n                /* \"#utility.yul\":3157:3194   */\n              mstore\n                /* \"#utility.yul\":3147:3200   */\n              pop\n              pop\n              jump\t// out\n                /* \"#utility.yul\":3206:3428   */\n            tag_48:\n              0x00\n                /* \"#utility.yul\":3337:3339   */\n              0x20\n                /* \"#utility.yul\":3326:3335   */\n              dup3\n                /* \"#utility.yul\":3322:3340   */\n              add\n                /* \"#utility.yul\":3314:3340   */\n              swap1\n              pop\n                /* \"#utility.yul\":3350:3421   */\n              tag_211\n                /* \"#utility.yul\":3418:3419   */\n              0x00\n                /* \"#utility.yul\":3407:3416   */\n              dup4\n                /* \"#utility.yul\":3403:3420   */\n              add\n                /* \"#utility.yul\":3394:3400   */\n              dup5\n                /* \"#utility.yul\":3350:3421   */\n              tag_188\n              jump\t// in\n            tag_211:\n                /* \"#utility.yul\":3304:3428   */\n              swap3\n              swap2\n              pop\n              pop\n              jump\t// out\n                /* \"#utility.yul\":3434:3747   */\n            tag_28:\n              0x00\n                /* \"#utility.yul\":3585:3587   */\n              0x20\n                /* \"#utility.yul\":3574:3583   */\n              dup3\n                /* \"#utility.yul\":3570:3588   */\n              add\n                /* \"#utility.yul\":3562:3588   */\n              swap1\n              pop\n                /* \"#utility.yul\":3634:3643   */\n              dup2\n                /* \"#utility.yul\":3628:3632   */\n              dup2\n                /* \"#utility.yul\":3624:3644   */\n              sub\n                /* \"#utility.yul\":3620:3621   */\n              0x00\n                /* \"#utility.yul\":3609:3618   */\n              dup4\n                /* \"#utility.yul\":3605:3622   */\n              add\n                /* \"#utility.yul\":3598:3645   */\n              mstore\n                /* \"#utility.yul\":3662:3740   */\n              tag_213\n                /* \"#utility.yul\":3735:3739   */\n              dup2\n                /* \"#utility.yul\":3726:3732   */\n              dup5\n                /* \"#utility.yul\":3662:3740   */\n              tag_196\n              jump\t// in\n            tag_213:\n                /* \"#utility.yul\":3654:3740   */\n              swap1\n              pop\n                /* \"#utility.yul\":3552:3747   */\n              swap3\n              swap2\n              pop\n              pop\n              jump\t// out\n                /* \"#utility.yul\":3753:4528   */\n            tag_66:\n              0x00\n                /* \"#utility.yul\":4026:4029   */\n              0xa0\n                /* \"#utility.yul\":4015:4024   */\n              dup3\n                /* \"#utility.yul\":4011:4030   */\n              add\n                /* \"#utility.yul\":4003:4030   */\n              swap1\n              pop\n                /* \"#utility.yul\":4076:4085   */\n              dup2\n                /* \"#utility.yul\":4070:4074   */\n              dup2\n                /* \"#utility.yul\":4066:4086   */\n              sub\n                /* \"#utility.yul\":4062:4063   */\n              0x00\n                /* \"#utility.yul\":4051:4060   */\n              dup4\n                /* \"#utility.yul\":4047:4064   */\n              add\n                /* \"#utility.yul\":4040:4087   */\n              mstore\n                /* \"#utility.yul\":4104:4182   */\n              tag_215\n                /* \"#utility.yul\":4177:4181   */\n              dup2\n                /* \"#utility.yul\":4168:4174   */\n              dup9\n                /* \"#utility.yul\":4104:4182   */\n              tag_196\n              jump\t// in\n            tag_215:\n                /* \"#utility.yul\":4096:4182   */\n              swap1\n              pop\n                /* \"#utility.yul\":4192:4264   */\n              tag_216\n                /* \"#utility.yul\":4260:4262   */\n              0x20\n                /* \"#utility.yul\":4249:4258   */\n              dup4\n                /* \"#utility.yul\":4245:4263   */\n              add\n                /* \"#utility.yul\":4236:4242   */\n              dup8\n                /* \"#utility.yul\":4192:4264   */\n              tag_206\n              jump\t// in\n            tag_216:\n                /* \"#utility.yul\":4274:4362   */\n              tag_217\n                /* \"#utility.yul\":4358:4360   */\n              0x40\n                /* \"#utility.yul\":4347:4356   */\n              dup4\n                /* \"#utility.yul\":4343:4361   */\n              add\n                /* \"#utility.yul\":4334:4340   */\n              dup7\n                /* \"#utility.yul\":4274:4362   */\n              tag_184\n              jump\t// in\n            tag_217:\n                /* \"#utility.yul\":4372:4438   */\n              tag_218\n                /* \"#utility.yul\":4434:4436   */\n              0x60\n                /* \"#utility.yul\":4423:4432   */\n              dup4\n                /* \"#utility.yul\":4419:4437   */\n              add\n                /* \"#utility.yul\":4410:4416   */\n              dup6\n                /* \"#utility.yul\":4372:4438   */\n              tag_192\n              jump\t// in\n            tag_218:\n                /* \"#utility.yul\":4448:4521   */\n              tag_219\n                /* \"#utility.yul\":4516:4519   */\n              0x80\n                /* \"#utility.yul\":4505:4514   */\n              dup4\n                /* \"#utility.yul\":4501:4520   */\n              add\n                /* \"#utility.yul\":4492:4498   */\n              dup5\n                /* \"#utility.yul\":4448:4521   */\n              tag_206\n              jump\t// in\n            tag_219:\n                /* \"#utility.yul\":3993:4528   */\n              swap7\n              swap6\n              pop\n              pop\n              pop\n              pop\n              pop\n              pop\n              jump\t// out\n                /* \"#utility.yul\":4534:4756   */\n            tag_35:\n              0x00\n                /* \"#utility.yul\":4665:4667   */\n              0x20\n                /* \"#utility.yul\":4654:4663   */\n              dup3\n                /* \"#utility.yul\":4650:4668   */\n              add\n                /* \"#utility.yul\":4642:4668   */\n              swap1\n              pop\n                /* \"#utility.yul\":4678:4749   */\n              tag_221\n                /* \"#utility.yul\":4746:4747   */\n              0x00\n                /* \"#utility.yul\":4735:4744   */\n              dup4\n                /* \"#utility.yul\":4731:4748   */\n              add\n                /* \"#utility.yul\":4722:4728   */\n              dup5\n                /* \"#utility.yul\":4678:4749   */\n              tag_206\n              jump\t// in\n            tag_221:\n                /* \"#utility.yul\":4632:4756   */\n              swap3\n              swap2\n              pop\n              pop\n              jump\t// out\n                /* \"#utility.yul\":4762:4891   */\n            tag_152:\n              0x00\n                /* \"#utility.yul\":4823:4843   */\n              tag_223\n              tag_224\n              jump\t// in\n            tag_223:\n                /* \"#utility.yul\":4813:4843   */\n              swap1\n              pop\n                /* \"#utility.yul\":4852:4885   */\n              tag_225\n                /* \"#utility.yul\":4880:4884   */\n              dup3\n                /* \"#utility.yul\":4872:4878   */\n              dup3\n                /* \"#utility.yul\":4852:4885   */\n              tag_226\n              jump\t// in\n            tag_225:\n                /* \"#utility.yul\":4803:4891   */\n              swap2\n              swap1\n              pop\n              jump\t// out\n                /* \"#utility.yul\":4897:4972   */\n            tag_224:\n              0x00\n                /* \"#utility.yul\":4963:4965   */\n              0x40\n                /* \"#utility.yul\":4957:4966   */\n              mload\n                /* \"#utility.yul\":4947:4966   */\n              swap1\n              pop\n                /* \"#utility.yul\":4937:4972   */\n              swap1\n              jump\t// out\n                /* \"#utility.yul\":4978:5286   */\n            tag_151:\n              0x00\n                /* \"#utility.yul\":5130:5148   */\n              0xffffffffffffffff\n                /* \"#utility.yul\":5122:5128   */\n              dup3\n                /* \"#utility.yul\":5119:5149   */\n              gt\n                /* \"#utility.yul\":5116:5118   */\n              iszero\n              tag_229\n              jumpi\n                /* \"#utility.yul\":5152:5170   */\n              tag_230\n              tag_231\n              jump\t// in\n            tag_230:\n                /* \"#utility.yul\":5116:5118   */\n            tag_229:\n                /* \"#utility.yul\":5190:5219   */\n              tag_232\n                /* \"#utility.yul\":5212:5218   */\n              dup3\n                /* \"#utility.yul\":5190:5219   */\n              tag_205\n              jump\t// in\n            tag_232:\n                /* \"#utility.yul\":5182:5219   */\n              swap1\n              pop\n                /* \"#utility.yul\":5274:5278   */\n              0x20\n                /* \"#utility.yul\":5268:5272   */\n              dup2\n                /* \"#utility.yul\":5264:5279   */\n              add\n                /* \"#utility.yul\":5256:5279   */\n              swap1\n              pop\n                /* \"#utility.yul\":5045:5286   */\n              swap2\n              swap1\n              pop\n              jump\t// out\n                /* \"#utility.yul\":5292:5391   */\n            tag_199:\n              0x00\n                /* \"#utility.yul\":5378:5383   */\n              dup2\n                /* \"#utility.yul\":5372:5384   */\n              mload\n                /* \"#utility.yul\":5362:5384   */\n              swap1\n              pop\n                /* \"#utility.yul\":5351:5391   */\n              swap2\n              swap1\n              pop\n              jump\t// out\n                /* \"#utility.yul\":5397:5566   */\n            tag_201:\n              0x00\n                /* \"#utility.yul\":5515:5521   */\n              dup3\n                /* \"#utility.yul\":5510:5513   */\n              dup3\n                /* \"#utility.yul\":5503:5522   */\n              mstore\n                /* \"#utility.yul\":5555:5559   */\n              0x20\n                /* \"#utility.yul\":5550:5553   */\n              dup3\n                /* \"#utility.yul\":5546:5560   */\n              add\n                /* \"#utility.yul\":5531:5560   */\n              swap1\n              pop\n                /* \"#utility.yul\":5493:5566   */\n              swap3\n              swap2\n              pop\n              pop\n              jump\t// out\n                /* \"#utility.yul\":5572:5877   */\n            tag_125:\n              0x00\n                /* \"#utility.yul\":5631:5651   */\n              tag_236\n                /* \"#utility.yul\":5649:5650   */\n              dup3\n                /* \"#utility.yul\":5631:5651   */\n              tag_209\n              jump\t// in\n            tag_236:\n                /* \"#utility.yul\":5626:5651   */\n              swap2\n              pop\n                /* \"#utility.yul\":5665:5685   */\n              tag_237\n                /* \"#utility.yul\":5683:5684   */\n              dup4\n                /* \"#utility.yul\":5665:5685   */\n              tag_209\n              jump\t// in\n            tag_237:\n                /* \"#utility.yul\":5660:5685   */\n              swap3\n              pop\n                /* \"#utility.yul\":5819:5820   */\n              dup3\n                /* \"#utility.yul\":5751:5817   */\n              0xffffffffffffffffffffffffffffffffffffffffffffffffffffffffffffffff\n                /* \"#utility.yul\":5747:5821   */\n              sub\n                /* \"#utility.yul\":5744:5745   */\n              dup3\n                /* \"#utility.yul\":5741:5822   */\n              gt\n                /* \"#utility.yul\":5738:5740   */\n              iszero\n              tag_238\n              jumpi\n                /* \"#utility.yul\":5825:5843   */\n              tag_239\n              tag_240\n              jump\t// in\n            tag_239:\n                /* \"#utility.yul\":5738:5740   */\n            tag_238:\n                /* \"#utility.yul\":5869:5870   */\n              dup3\n                /* \"#utility.yul\":5866:5867   */\n              dup3\n                /* \"#utility.yul\":5862:5871   */\n              add\n                /* \"#utility.yul\":5855:5871   */\n              swap1\n              pop\n                /* \"#utility.yul\":5616:5877   */\n              swap3\n              swap2\n              pop\n              pop\n              jump\t// out\n                /* \"#utility.yul\":5883:6068   */\n            tag_86:\n              0x00\n                /* \"#utility.yul\":5940:5960   */\n              tag_242\n                /* \"#utility.yul\":5958:5959   */\n              dup3\n                /* \"#utility.yul\":5940:5960   */\n              tag_209\n              jump\t// in\n            tag_242:\n                /* \"#utility.yul\":5935:5960   */\n              swap2\n              pop\n                /* \"#utility.yul\":5974:5994   */\n              tag_243\n                /* \"#utility.yul\":5992:5993   */\n              dup4\n                /* \"#utility.yul\":5974:5994   */\n              tag_209\n              jump\t// in\n            tag_243:\n                /* \"#utility.yul\":5969:5994   */\n              swap3\n              pop\n                /* \"#utility.yul\":6013:6014   */\n              dup3\n                /* \"#utility.yul\":6003:6005   */\n              tag_244\n              jumpi\n                /* \"#utility.yul\":6018:6036   */\n              tag_245\n              tag_246\n              jump\t// in\n            tag_245:\n                /* \"#utility.yul\":6003:6005   */\n            tag_244:\n                /* \"#utility.yul\":6060:6061   */\n              dup3\n                /* \"#utility.yul\":6057:6058   */\n              dup3\n                /* \"#utility.yul\":6053:6062   */\n              div\n                /* \"#utility.yul\":6048:6062   */\n              swap1\n              pop\n                /* \"#utility.yul\":5925:6068   */\n              swap3\n              swap2\n              pop\n              pop\n              jump\t// out\n                /* \"#utility.yul\":6074:6170   */\n            tag_191:\n              0x00\n                /* \"#utility.yul\":6140:6164   */\n              tag_248\n                /* \"#utility.yul\":6158:6163   */\n              dup3\n                /* \"#utility.yul\":6140:6164   */\n              tag_249\n              jump\t// in\n            tag_248:\n                /* \"#utility.yul\":6129:6164   */\n              swap1\n              pop\n                /* \"#utility.yul\":6119:6170   */\n              swap2\n              swap1\n              pop\n              jump\t// out\n                /* \"#utility.yul\":6176:6280   */\n            tag_187:\n              0x00\n                /* \"#utility.yul\":6250:6274   */\n              tag_251\n                /* \"#utility.yul\":6268:6273   */\n              dup3\n                /* \"#utility.yul\":6250:6274   */\n              tag_249\n              jump\t// in\n            tag_251:\n                /* \"#utility.yul\":6239:6274   */\n              swap1\n              pop\n                /* \"#utility.yul\":6229:6280   */\n              swap2\n              swap1\n              pop\n              jump\t// out\n                /* \"#utility.yul\":6286:6376   */\n            tag_195:\n              0x00\n                /* \"#utility.yul\":6363:6368   */\n              dup2\n                /* \"#utility.yul\":6356:6369   */\n              iszero\n                /* \"#utility.yul\":6349:6370   */\n              iszero\n                /* \"#utility.yul\":6338:6370   */\n              swap1\n              pop\n                /* \"#utility.yul\":6328:6376   */\n              swap2\n              swap1\n              pop\n              jump\t// out\n                /* \"#utility.yul\":6382:6508   */\n            tag_249:\n              0x00\n                /* \"#utility.yul\":6459:6501   */\n              0xffffffffffffffffffffffffffffffffffffffff\n                /* \"#utility.yul\":6452:6457   */\n              dup3\n                /* \"#utility.yul\":6448:6502   */\n              and\n                /* \"#utility.yul\":6437:6502   */\n              swap1\n              pop\n                /* \"#utility.yul\":6427:6508   */\n              swap2\n              swap1\n              pop\n              jump\t// out\n                /* \"#utility.yul\":6514:6591   */\n            tag_209:\n              0x00\n                /* \"#utility.yul\":6580:6585   */\n              dup2\n                /* \"#utility.yul\":6569:6585   */\n              swap1\n              pop\n                /* \"#utility.yul\":6559:6591   */\n              swap2\n              swap1\n              pop\n              jump\t// out\n                /* \"#utility.yul\":6597:6751   */\n            tag_155:\n                /* \"#utility.yul\":6681:6687   */\n              dup3\n                /* \"#utility.yul\":6676:6679   */\n              dup2\n                /* \"#utility.yul\":6671:6674   */\n              dup4\n                /* \"#utility.yul\":6658:6688   */\n              calldatacopy\n                /* \"#utility.yul\":6743:6744   */\n              0x00\n                /* \"#utility.yul\":6734:6740   */\n              dup4\n                /* \"#utility.yul\":6729:6732   */\n              dup4\n                /* \"#utility.yul\":6725:6741   */\n              add\n                /* \"#utility.yul\":6718:6745   */\n              mstore\n                /* \"#utility.yul\":6648:6751   */\n              pop\n              pop\n              pop\n              jump\t// out\n                /* \"#utility.yul\":6757:7064   */\n            tag_203:\n                /* \"#utility.yul\":6825:6826   */\n              0x00\n                /* \"#utility.yul\":6835:6948   */\n            tag_257:\n                /* \"#utility.yul\":6849:6855   */\n              dup4\n                /* \"#utility.yul\":6846:6847   */\n              dup2\n                /* \"#utility.yul\":6843:6856   */\n              lt\n                /* \"#utility.yul\":6835:6948   */\n              iszero\n              tag_259\n              jumpi\n                /* \"#utility.yul\":6934:6935   */\n              dup1\n                /* \"#utility.yul\":6929:6932   */\n              dup3\n                /* \"#utility.yul\":6925:6936   */\n              add\n                /* \"#utility.yul\":6919:6937   */\n              mload\n                /* \"#utility.yul\":6915:6916   */\n              dup2\n                /* \"#utility.yul\":6910:6913   */\n              dup5\n                /* \"#utility.yul\":6906:6917   */\n              add\n                /* \"#utility.yul\":6899:6938   */\n              mstore\n                /* \"#utility.yul\":6871:6873   */\n              0x20\n                /* \"#utility.yul\":6868:6869   */\n              dup2\n                /* \"#utility.yul\":6864:6874   */\n              add\n                /* \"#utility.yul\":6859:6874   */\n              swap1\n              pop\n                /* \"#utility.yul\":6835:6948   */\n              jump(tag_257)\n            tag_259:\n                /* \"#utility.yul\":6966:6972   */\n              dup4\n                /* \"#utility.yul\":6963:6964   */\n              dup2\n                /* \"#utility.yul\":6960:6973   */\n              gt\n                /* \"#utility.yul\":6957:6959   */\n              iszero\n              tag_260\n              jumpi\n                /* \"#utility.yul\":7046:7047   */\n              0x00\n                /* \"#utility.yul\":7037:7043   */\n              dup5\n                /* \"#utility.yul\":7032:7035   */\n              dup5\n                /* \"#utility.yul\":7028:7044   */\n              add\n                /* \"#utility.yul\":7021:7048   */\n              mstore\n                /* \"#utility.yul\":6957:6959   */\n            tag_260:\n                /* \"#utility.yul\":6806:7064   */\n              pop\n              pop\n              pop\n              pop\n              jump\t// out\n                /* \"#utility.yul\":7070:7390   */\n            tag_92:\n              0x00\n                /* \"#utility.yul\":7151:7152   */\n              0x02\n                /* \"#utility.yul\":7145:7149   */\n              dup3\n                /* \"#utility.yul\":7141:7153   */\n              div\n                /* \"#utility.yul\":7131:7153   */\n              swap1\n              pop\n                /* \"#utility.yul\":7198:7199   */\n              0x01\n                /* \"#utility.yul\":7192:7196   */\n              dup3\n                /* \"#utility.yul\":7188:7200   */\n              and\n                /* \"#utility.yul\":7219:7237   */\n              dup1\n                /* \"#utility.yul\":7209:7211   */\n              tag_262\n              jumpi\n                /* \"#utility.yul\":7275:7279   */\n              0x7f\n                /* \"#utility.yul\":7267:7273   */\n              dup3\n                /* \"#utility.yul\":7263:7280   */\n              and\n                /* \"#utility.yul\":7253:7280   */\n              swap2\n              pop\n                /* \"#utility.yul\":7209:7211   */\n            tag_262:\n                /* \"#utility.yul\":7337:7339   */\n              0x20\n                /* \"#utility.yul\":7329:7335   */\n              dup3\n                /* \"#utility.yul\":7326:7340   */\n              lt\n                /* \"#utility.yul\":7306:7324   */\n              dup2\n                /* \"#utility.yul\":7303:7341   */\n              eq\n                /* \"#utility.yul\":7300:7302   */\n              iszero\n              tag_263\n              jumpi\n                /* \"#utility.yul\":7356:7374   */\n              tag_264\n              tag_265\n              jump\t// in\n            tag_264:\n                /* \"#utility.yul\":7300:7302   */\n            tag_263:\n                /* \"#utility.yul\":7121:7390   */\n              pop\n              swap2\n              swap1\n              pop\n              jump\t// out\n                /* \"#utility.yul\":7396:7677   */\n            tag_226:\n                /* \"#utility.yul\":7479:7506   */\n              tag_267\n                /* \"#utility.yul\":7501:7505   */\n              dup3\n                /* \"#utility.yul\":7479:7506   */\n              tag_205\n              jump\t// in\n            tag_267:\n                /* \"#utility.yul\":7471:7477   */\n              dup2\n                /* \"#utility.yul\":7467:7507   */\n              add\n                /* \"#utility.yul\":7609:7615   */\n              dup2\n                /* \"#utility.yul\":7597:7607   */\n              dup2\n                /* \"#utility.yul\":7594:7616   */\n              lt\n                /* \"#utility.yul\":7573:7591   */\n              0xffffffffffffffff\n                /* \"#utility.yul\":7561:7571   */\n              dup3\n                /* \"#utility.yul\":7558:7592   */\n              gt\n                /* \"#utility.yul\":7555:7617   */\n              or\n                /* \"#utility.yul\":7552:7554   */\n              iszero\n              tag_268\n              jumpi\n                /* \"#utility.yul\":7620:7638   */\n              tag_269\n              tag_231\n              jump\t// in\n            tag_269:\n                /* \"#utility.yul\":7552:7554   */\n            tag_268:\n                /* \"#utility.yul\":7660:7670   */\n              dup1\n                /* \"#utility.yul\":7656:7658   */\n              0x40\n                /* \"#utility.yul\":7649:7671   */\n              mstore\n                /* \"#utility.yul\":7439:7677   */\n              pop\n              pop\n              pop\n              jump\t// out\n                /* \"#utility.yul\":7683:7916   */\n            tag_116:\n              0x00\n                /* \"#utility.yul\":7745:7769   */\n              tag_271\n                /* \"#utility.yul\":7763:7768   */\n              dup3\n                /* \"#utility.yul\":7745:7769   */\n              tag_209\n              jump\t// in\n            tag_271:\n                /* \"#utility.yul\":7736:7769   */\n              swap2\n              pop\n                /* \"#utility.yul\":7791:7857   */\n              0xffffffffffffffffffffffffffffffffffffffffffffffffffffffffffffffff\n                /* \"#utility.yul\":7784:7789   */\n              dup3\n                /* \"#utility.yul\":7781:7858   */\n              eq\n                /* \"#utility.yul\":7778:7780   */\n              iszero\n              tag_272\n              jumpi\n                /* \"#utility.yul\":7861:7879   */\n              tag_273\n              tag_240\n              jump\t// in\n            tag_273:\n                /* \"#utility.yul\":7778:7780   */\n            tag_272:\n                /* \"#utility.yul\":7908:7909   */\n              0x01\n                /* \"#utility.yul\":7901:7906   */\n              dup3\n                /* \"#utility.yul\":7897:7910   */\n              add\n                /* \"#utility.yul\":7890:7910   */\n              swap1\n              pop\n                /* \"#utility.yul\":7726:7916   */\n              swap2\n              swap1\n              pop\n              jump\t// out\n                /* \"#utility.yul\":7922:8098   */\n            tag_128:\n              0x00\n                /* \"#utility.yul\":7971:7991   */\n              tag_275\n                /* \"#utility.yul\":7989:7990   */\n              dup3\n                /* \"#utility.yul\":7971:7991   */\n              tag_209\n              jump\t// in\n            tag_275:\n                /* \"#utility.yul\":7966:7991   */\n              swap2\n              pop\n                /* \"#utility.yul\":8005:8025   */\n              tag_276\n                /* \"#utility.yul\":8023:8024   */\n              dup4\n                /* \"#utility.yul\":8005:8025   */\n              tag_209\n              jump\t// in\n            tag_276:\n                /* \"#utility.yul\":8000:8025   */\n              swap3\n              pop\n                /* \"#utility.yul\":8044:8045   */\n              dup3\n                /* \"#utility.yul\":8034:8036   */\n              tag_277\n              jumpi\n                /* \"#utility.yul\":8049:8067   */\n              tag_278\n              tag_246\n              jump\t// in\n            tag_278:\n                /* \"#utility.yul\":8034:8036   */\n            tag_277:\n                /* \"#utility.yul\":8090:8091   */\n              dup3\n                /* \"#utility.yul\":8087:8088   */\n              dup3\n                /* \"#utility.yul\":8083:8092   */\n              mod\n                /* \"#utility.yul\":8078:8092   */\n              swap1\n              pop\n                /* \"#utility.yul\":7956:8098   */\n              swap3\n              swap2\n              pop\n              pop\n              jump\t// out\n                /* \"#utility.yul\":8104:8284   */\n            tag_240:\n                /* \"#utility.yul\":8152:8229   */\n              0x4e487b7100000000000000000000000000000000000000000000000000000000\n                /* \"#utility.yul\":8149:8150   */\n              0x00\n                /* \"#utility.yul\":8142:8230   */\n              mstore\n                /* \"#utility.yul\":8249:8253   */\n              0x11\n                /* \"#utility.yul\":8246:8247   */\n              0x04\n                /* \"#utility.yul\":8239:8254   */\n              mstore\n                /* \"#utility.yul\":8273:8277   */\n              0x24\n                /* \"#utility.yul\":8270:8271   */\n              0x00\n                /* \"#utility.yul\":8263:8278   */\n              revert\n                /* \"#utility.yul\":8290:8470   */\n            tag_246:\n                /* \"#utility.yul\":8338:8415   */\n              0x4e487b7100000000000000000000000000000000000000000000000000000000\n                /* \"#utility.yul\":8335:8336   */\n              0x00\n                /* \"#utility.yul\":8328:8416   */\n              mstore\n                /* \"#utility.yul\":8435:8439   */\n              0x12\n                /* \"#utility.yul\":8432:8433   */\n              0x04\n                /* \"#utility.yul\":8425:8440   */\n              mstore\n                /* \"#utility.yul\":8459:8463   */\n              0x24\n                /* \"#utility.yul\":8456:8457   */\n              0x00\n                /* \"#utility.yul\":8449:8464   */\n              revert\n                /* \"#utility.yul\":8476:8656   */\n            tag_265:\n                /* \"#utility.yul\":8524:8601   */\n              0x4e487b7100000000000000000000000000000000000000000000000000000000\n                /* \"#utility.yul\":8521:8522   */\n              0x00\n                /* \"#utility.yul\":8514:8602   */\n              mstore\n                /* \"#utility.yul\":8621:8625   */\n              0x22\n                /* \"#utility.yul\":8618:8619   */\n              0x04\n                /* \"#utility.yul\":8611:8626   */\n              mstore\n                /* \"#utility.yul\":8645:8649   */\n              0x24\n                /* \"#utility.yul\":8642:8643   */\n              0x00\n                /* \"#utility.yul\":8635:8650   */\n              revert\n                /* \"#utility.yul\":8662:8842   */\n            tag_231:\n                /* \"#utility.yul\":8710:8787   */\n              0x4e487b7100000000000000000000000000000000000000000000000000000000\n                /* \"#utility.yul\":8707:8708   */\n              0x00\n                /* \"#utility.yul\":8700:8788   */\n              mstore\n                /* \"#utility.yul\":8807:8811   */\n              0x41\n                /* \"#utility.yul\":8804:8805   */\n              0x04\n                /* \"#utility.yul\":8797:8812   */\n              mstore\n                /* \"#utility.yul\":8831:8835   */\n              0x24\n                /* \"#utility.yul\":8828:8829   */\n              0x00\n                /* \"#utility.yul\":8821:8836   */\n              revert\n                /* \"#utility.yul\":8848:8950   */\n            tag_205:\n              0x00\n                /* \"#utility.yul\":8940:8942   */\n              0x1f\n                /* \"#utility.yul\":8936:8943   */\n              not\n                /* \"#utility.yul\":8931:8933   */\n              0x1f\n                /* \"#utility.yul\":8924:8929   */\n              dup4\n                /* \"#utility.yul\":8920:8934   */\n              add\n                /* \"#utility.yul\":8916:8944   */\n              and\n                /* \"#utility.yul\":8906:8944   */\n              swap1\n              pop\n                /* \"#utility.yul\":8896:8950   */\n              swap2\n              swap1\n              pop\n              jump\t// out\n                /* \"#utility.yul\":8956:9078   */\n            tag_159:\n                /* \"#utility.yul\":9029:9053   */\n              tag_285\n                /* \"#utility.yul\":9047:9052   */\n              dup2\n                /* \"#utility.yul\":9029:9053   */\n              tag_191\n              jump\t// in\n            tag_285:\n                /* \"#utility.yul\":9022:9027   */\n              dup2\n                /* \"#utility.yul\":9019:9054   */\n              eq\n                /* \"#utility.yul\":9009:9011   */\n              tag_286\n              jumpi\n                /* \"#utility.yul\":9068:9069   */\n              0x00\n                /* \"#utility.yul\":9065:9066   */\n              dup1\n                /* \"#utility.yul\":9058:9070   */\n              revert\n                /* \"#utility.yul\":9009:9011   */\n            tag_286:\n                /* \"#utility.yul\":8999:9078   */\n              pop\n              jump\t// out\n                /* \"#utility.yul\":9084:9222   */\n            tag_163:\n                /* \"#utility.yul\":9165:9197   */\n              tag_288\n                /* \"#utility.yul\":9191:9196   */\n              dup2\n                /* \"#utility.yul\":9165:9197   */\n              tag_187\n              jump\t// in\n            tag_288:\n                /* \"#utility.yul\":9158:9163   */\n              dup2\n                /* \"#utility.yul\":9155:9198   */\n              eq\n                /* \"#utility.yul\":9145:9147   */\n              tag_289\n              jumpi\n                /* \"#utility.yul\":9212:9213   */\n              0x00\n                /* \"#utility.yul\":9209:9210   */\n              dup1\n                /* \"#utility.yul\":9202:9214   */\n              revert\n                /* \"#utility.yul\":9145:9147   */\n            tag_289:\n                /* \"#utility.yul\":9135:9222   */\n              pop\n              jump\t// out\n                /* \"#utility.yul\":9228:9350   */\n            tag_171:\n                /* \"#utility.yul\":9301:9325   */\n              tag_291\n                /* \"#utility.yul\":9319:9324   */\n              dup2\n                /* \"#utility.yul\":9301:9325   */\n              tag_209\n              jump\t// in\n            tag_291:\n                /* \"#utility.yul\":9294:9299   */\n              dup2\n                /* \"#utility.yul\":9291:9326   */\n              eq\n                /* \"#utility.yul\":9281:9283   */\n              tag_292\n              jumpi\n                /* \"#utility.yul\":9340:9341   */\n              0x00\n                /* \"#utility.yul\":9337:9338   */\n              dup1\n                /* \"#utility.yul\":9330:9342   */\n              revert\n                /* \"#utility.yul\":9281:9283   */\n            tag_292:\n                /* \"#utility.yul\":9271:9350   */\n              pop\n              jump\t// out\n\n            auxdata: 0xa2646970667358221220b902be164734ee7d6c0c8441c7d6c9aebad22e9ab05667181e30e5a11f1467aa64736f6c63430008030033\n        }\n    }\n\n    auxdata: 0xa2646970667358221220da89fcd3c695cbb0ae071efe40d7c8b77e14fdf8e7c2e859f45ae527c7738fd364736f6c63430008030033\n}\n","bytecode":{"linkReferences":{},"object":"608060405234801561001057600080fd5b50611eb2806100206000396000f3fe60806040523480156200001157600080fd5b5060043610620000465760003560e01c8063702107a2146200004b578063e4293559146200006b578063f739bf4d146200008d575b600080fd5b62000069600480360381019062000063919062000305565b620000c3565b005b6200007562000172565b604051620000849190620004c5565b60405180910390f35b620000ab6004803603810190620000a59190620002d9565b62000202565b604051620000ba9190620004e9565b60405180910390f35b60008484848433604051620000d89062000242565b620000e895949392919062000506565b604051809103906000f08015801562000105573d6000803e3d6000fd5b5090506000819080600181540180825580915050600190039060005260206000200160009091909190916101000a81548173ffffffffffffffffffffffffffffffffffffffff021916908373ffffffffffffffffffffffffffffffffffffffff1602179055505050505050565b60606000805480602002602001604051908101604052809291908181526020018280548015620001f857602002820191906000526020600020905b8160009054906101000a900473ffffffffffffffffffffffffffffffffffffffff1673ffffffffffffffffffffffffffffffffffffffff1681526020019060010190808311620001ad575b5050505050905090565b600081815481106200021357600080fd5b906000526020600020016000915054906101000a900473ffffffffffffffffffffffffffffffffffffffff1681565b611715806200076883390190565b6000620002676200026184620005a1565b62000578565b9050828152602081018484840111156200028057600080fd5b6200028d84828562000692565b509392505050565b600082601f830112620002a757600080fd5b8135620002b984826020860162000250565b91505092915050565b600081359050620002d3816200074d565b92915050565b600060208284031215620002ec57600080fd5b6000620002fc84828501620002c2565b91505092915050565b600080600080608085870312156200031c57600080fd5b60006200032c87828801620002c2565b945050602085013567ffffffffffffffff8111156200034a57600080fd5b620003588782880162000295565b935050604085013567ffffffffffffffff8111156200037657600080fd5b620003848782880162000295565b925050606085013567ffffffffffffffff811115620003a257600080fd5b620003b08782880162000295565b91505092959194509250565b6000620003ca838362000451565b60208301905092915050565b620003e1816200062c565b82525050565b6000620003f482620005e7565b6200040081856200060a565b93506200040d83620005d7565b8060005b8381101562000444578151620004288882620003bc565b97506200043583620005fd565b92505060018101905062000411565b5085935050505092915050565b6200045c816200066a565b82525050565b6200046d816200066a565b82525050565b60006200048082620005f2565b6200048c81856200061b565b93506200049e818560208601620006a1565b620004a9816200073c565b840191505092915050565b620004bf8162000660565b82525050565b60006020820190508181036000830152620004e18184620003e7565b905092915050565b600060208201905062000500600083018462000462565b92915050565b600060a0820190506200051d6000830188620004b4565b818103602083015262000531818762000473565b9050818103604083015262000547818662000473565b905081810360608301526200055d818562000473565b90506200056e6080830184620003d6565b9695505050505050565b60006200058462000597565b9050620005928282620006d7565b919050565b6000604051905090565b600067ffffffffffffffff821115620005bf57620005be6200070d565b5b620005ca826200073c565b9050602081019050919050565b6000819050602082019050919050565b600081519050919050565b600081519050919050565b6000602082019050919050565b600082825260208201905092915050565b600082825260208201905092915050565b6000620006398262000640565b9050919050565b600073ffffffffffffffffffffffffffffffffffffffff82169050919050565b6000819050919050565b600062000677826200067e565b9050919050565b60006200068b8262000640565b9050919050565b82818337600083830152505050565b60005b83811015620006c1578082015181840152602081019050620006a4565b83811115620006d1576000848401525b50505050565b620006e2826200073c565b810181811067ffffffffffffffff821117156200070457620007036200070d565b5b80604052505050565b7f4e487b7100000000000000000000000000000000000000000000000000000000600052604160045260246000fd5b6000601f19601f8301169050919050565b620007588162000660565b81146200076457600080fd5b5056fe60806040523480156200001157600080fd5b506040516200171538038062001715833981810160405281019062000037919062000225565b80600560006101000a81548173ffffffffffffffffffffffffffffffffffffffff021916908373ffffffffffffffffffffffffffffffffffffffff16021790555084600881905550836000908051906020019062000097929190620000d5565b508260019080519060200190620000b0929190620000d5565b508160029080519060200190620000c9929190620000d5565b505050505050620004d4565b828054620000e390620003c5565b90600052602060002090601f01602090048101928262000107576000855562000153565b82601f106200012257805160ff191683800117855562000153565b8280016001018555821562000153579182015b828111156200015257825182559160200191906001019062000135565b5b50905062000162919062000166565b5090565b5b808211156200018157600081600090555060010162000167565b5090565b60006200019c62000196846200031b565b620002f2565b905082815260208101848484011115620001b557600080fd5b620001c28482856200038f565b509392505050565b600081519050620001db81620004a0565b92915050565b600082601f830112620001f357600080fd5b81516200020584826020860162000185565b91505092915050565b6000815190506200021f81620004ba565b92915050565b600080600080600060a086880312156200023e57600080fd5b60006200024e888289016200020e565b955050602086015167ffffffffffffffff8111156200026c57600080fd5b6200027a88828901620001e1565b945050604086015167ffffffffffffffff8111156200029857600080fd5b620002a688828901620001e1565b935050606086015167ffffffffffffffff811115620002c457600080fd5b620002d288828901620001e1565b9250506080620002e588828901620001ca565b9150509295509295909350565b6000620002fe62000311565b90506200030c8282620003fb565b919050565b6000604051905090565b600067ffffffffffffffff82111562000339576200033862000460565b5b62000344826200048f565b9050602081019050919050565b60006200035e8262000365565b9050919050565b600073ffffffffffffffffffffffffffffffffffffffff82169050919050565b6000819050919050565b60005b83811015620003af57808201518184015260208101905062000392565b83811115620003bf576000848401525b50505050565b60006002820490506001821680620003de57607f821691505b60208210811415620003f557620003f462000431565b5b50919050565b62000406826200048f565b810181811067ffffffffffffffff8211171562000428576200042762000460565b5b80604052505050565b7f4e487b7100000000000000000000000000000000000000000000000000000000600052602260045260246000fd5b7f4e487b7100000000000000000000000000000000000000000000000000000000600052604160045260246000fd5b6000601f19601f8301169050919050565b620004ab8162000351565b8114620004b757600080fd5b50565b620004c58162000385565b8114620004d157600080fd5b50565b61123180620004e46000396000f3fe6080604052600436106100dd5760003560e01c80637284e4161161007f5780638a9cfd55116100595780638a9cfd55146102b65780639fb42b1f146102df578063d7bb99ba1461030a578063d7d1bbdb14610314576100dd565b80637284e4161461021f5780637554e42f1461024a57806381d12c5814610275576100dd565b80631da98960116100bb5780631da989601461017357806326540fd21461019e578063481c6a75146101c957806359af7a13146101f4576100dd565b806303441006146100e257806306fdde031461010b5780630a14439114610136575b600080fd5b3480156100ee57600080fd5b5061010960048036038101906101049190610d27565b61033d565b005b34801561011757600080fd5b50610120610478565b60405161012d9190610de0565b60405180910390f35b34801561014257600080fd5b5061015d60048036038101906101589190610c97565b610506565b60405161016a9190610e5c565b60405180910390f35b34801561017f57600080fd5b5061018861051e565b6040516101959190610de0565b60405180910390f35b3480156101aa57600080fd5b506101b36105ac565b6040516101c09190610e5c565b60405180910390f35b3480156101d557600080fd5b506101de6105b2565b6040516101eb9190610dc5565b60405180910390f35b34801561020057600080fd5b506102096105d8565b6040516102169190610e5c565b60405180910390f35b34801561022b57600080fd5b506102346105de565b6040516102419190610de0565b60405180910390f35b34801561025657600080fd5b5061025f61066c565b60405161026c9190610e5c565b60405180910390f35b34801561028157600080fd5b5061029c60048036038101906102979190610d27565b610672565b6040516102ad959493929190610e02565b60405180910390f35b3480156102c257600080fd5b506102dd60048036038101906102d89190610cc0565b61075d565b005b3480156102eb57600080fd5b506102f4610876565b6040516103019190610e5c565b60405180910390f35b61031261087c565b005b34801561032057600080fd5b5061033b60048036038101906103369190610d27565b6109d9565b005b600560009054906101000a900473ffffffffffffffffffffffffffffffffffffffff1673ffffffffffffffffffffffffffffffffffffffff163373ffffffffffffffffffffffffffffffffffffffff161461039757600080fd5b600060046000838152602001908152602001600020905060026009546103bd9190610f3f565b8160030154116103cc57600080fd5b8060020160149054906101000a900460ff16156103e857600080fd5b8060020160009054906101000a900473ffffffffffffffffffffffffffffffffffffffff1673ffffffffffffffffffffffffffffffffffffffff166108fc82600101549081150290604051600060405180830381858888f19350505050158015610456573d6000803e3d6000fd5b5060018160020160146101000a81548160ff0219169083151502179055505050565b600080546104859061100c565b80601f01602080910402602001604051908101604052809291908181526020018280546104b19061100c565b80156104fe5780601f106104d3576101008083540402835291602001916104fe565b820191906000526020600020905b8154815290600101906020018083116104e157829003601f168201915b505050505081565b60076020528060005260406000206000915090505481565b6001805461052b9061100c565b80601f01602080910402602001604051908101604052809291908181526020018280546105579061100c565b80156105a45780601f10610579576101008083540402835291602001916105a4565b820191906000526020600020905b81548152906001019060200180831161058757829003601f168201915b505050505081565b60095481565b600560009054906101000a900473ffffffffffffffffffffffffffffffffffffffff1681565b60085481565b600280546105eb9061100c565b80601f01602080910402602001604051908101604052809291908181526020018280546106179061100c565b80156106645780601f1061063957610100808354040283529160200191610664565b820191906000526020600020905b81548152906001019060200180831161064757829003601f168201915b505050505081565b60065481565b60046020528060005260406000206000915090508060000180546106959061100c565b80601f01602080910402602001604051908101604052809291908181526020018280546106c19061100c565b801561070e5780601f106106e35761010080835404028352916020019161070e565b820191906000526020600020905b8154815290600101906020018083116106f157829003601f168201915b5050505050908060010154908060020160009054906101000a900473ffffffffffffffffffffffffffffffffffffffff16908060020160149054906101000a900460ff16908060030154905085565b600560009054906101000a900473ffffffffffffffffffffffffffffffffffffffff1673ffffffffffffffffffffffffffffffffffffffff163373ffffffffffffffffffffffffffffffffffffffff16146107b757600080fd5b600060046000600360008154809291906107d09061106f565b9190505581526020019081526020016000209050838160000190805190602001906107fc929190610b4d565b50828160010181905550818160020160006101000a81548173ffffffffffffffffffffffffffffffffffffffff021916908373ffffffffffffffffffffffffffffffffffffffff16021790555060008160020160146101000a81548160ff0219169083151502179055506000816003018190555050505050565b60035481565b60085434101561088b57600080fd5b6000600760003373ffffffffffffffffffffffffffffffffffffffff1673ffffffffffffffffffffffffffffffffffffffff1681526020019081526020016000205414156108ec57600660008154809291906108e69061106f565b91905055505b6000600854346108fc9190610f3f565b905080600760003373ffffffffffffffffffffffffffffffffffffffff1673ffffffffffffffffffffffffffffffffffffffff168152602001908152602001600020600082825461094d9190610ee9565b9250508190555080600960008282546109669190610ee9565b9250508190555060006008543461097d91906110b8565b9050600081146109d55760003390508073ffffffffffffffffffffffffffffffffffffffff166108fc839081150290604051600060405180830381858888f193505050501580156109d2573d6000803e3d6000fd5b50505b5050565b60006004600083815260200190815260200160002090506000600760003373ffffffffffffffffffffffffffffffffffffffff1673ffffffffffffffffffffffffffffffffffffffff1681526020019081526020016000205411610a3c57600080fd5b8060040160003373ffffffffffffffffffffffffffffffffffffffff1673ffffffffffffffffffffffffffffffffffffffff16815260200190815260200160002060009054906101000a900460ff1615610a9557600080fd5b60018160040160003373ffffffffffffffffffffffffffffffffffffffff1673ffffffffffffffffffffffffffffffffffffffff16815260200190815260200160002060006101000a81548160ff021916908315150217905550600760003373ffffffffffffffffffffffffffffffffffffffff1673ffffffffffffffffffffffffffffffffffffffff16815260200190815260200160002054816003016000828254610b429190610ee9565b925050819055505050565b828054610b599061100c565b90600052602060002090601f016020900481019282610b7b5760008555610bc2565b82601f10610b9457805160ff1916838001178555610bc2565b82800160010185558215610bc2579182015b82811115610bc1578251825591602001919060010190610ba6565b5b509050610bcf9190610bd3565b5090565b5b80821115610bec576000816000905550600101610bd4565b5090565b6000610c03610bfe84610e9c565b610e77565b905082815260208101848484011115610c1b57600080fd5b610c26848285610fca565b509392505050565b600081359050610c3d816111b6565b92915050565b600081359050610c52816111cd565b92915050565b600082601f830112610c6957600080fd5b8135610c79848260208601610bf0565b91505092915050565b600081359050610c91816111e4565b92915050565b600060208284031215610ca957600080fd5b6000610cb784828501610c2e565b91505092915050565b600080600060608486031215610cd557600080fd5b600084013567ffffffffffffffff811115610cef57600080fd5b610cfb86828701610c58565b9350506020610d0c86828701610c82565b9250506040610d1d86828701610c43565b9150509250925092565b600060208284031215610d3957600080fd5b6000610d4784828501610c82565b91505092915050565b610d5981610f82565b82525050565b610d6881610f70565b82525050565b610d7781610f94565b82525050565b6000610d8882610ecd565b610d928185610ed8565b9350610da2818560208601610fd9565b610dab816111a5565b840191505092915050565b610dbf81610fc0565b82525050565b6000602082019050610dda6000830184610d5f565b92915050565b60006020820190508181036000830152610dfa8184610d7d565b905092915050565b600060a0820190508181036000830152610e1c8188610d7d565b9050610e2b6020830187610db6565b610e386040830186610d50565b610e456060830185610d6e565b610e526080830184610db6565b9695505050505050565b6000602082019050610e716000830184610db6565b92915050565b6000610e81610e92565b9050610e8d828261103e565b919050565b6000604051905090565b600067ffffffffffffffff821115610eb757610eb6611176565b5b610ec0826111a5565b9050602081019050919050565b600081519050919050565b600082825260208201905092915050565b6000610ef482610fc0565b9150610eff83610fc0565b9250827fffffffffffffffffffffffffffffffffffffffffffffffffffffffffffffffff03821115610f3457610f336110e9565b5b828201905092915050565b6000610f4a82610fc0565b9150610f5583610fc0565b925082610f6557610f64611118565b5b828204905092915050565b6000610f7b82610fa0565b9050919050565b6000610f8d82610fa0565b9050919050565b60008115159050919050565b600073ffffffffffffffffffffffffffffffffffffffff82169050919050565b6000819050919050565b82818337600083830152505050565b60005b83811015610ff7578082015181840152602081019050610fdc565b83811115611006576000848401525b50505050565b6000600282049050600182168061102457607f821691505b6020821081141561103857611037611147565b5b50919050565b611047826111a5565b810181811067ffffffffffffffff8211171561106657611065611176565b5b80604052505050565b600061107a82610fc0565b91507fffffffffffffffffffffffffffffffffffffffffffffffffffffffffffffffff8214156110ad576110ac6110e9565b5b600182019050919050565b60006110c382610fc0565b91506110ce83610fc0565b9250826110de576110dd611118565b5b828206905092915050565b7f4e487b7100000000000000000000000000000000000000000000000000000000600052601160045260246000fd5b7f4e487b7100000000000000000000000000000000000000000000000000000000600052601260045260246000fd5b7f4e487b7100000000000000000000000000000000000000000000000000000000600052602260045260246000fd5b7f4e487b7100000000000000000000000000000000000000000000000000000000600052604160045260246000fd5b6000601f19601f8301169050919050565b6111bf81610f70565b81146111ca57600080fd5b50565b6111d681610f82565b81146111e157600080fd5b50565b6111ed81610fc0565b81146111f857600080fd5b5056fea2646970667358221220b902be164734ee7d6c0c8441c7d6c9aebad22e9ab05667181e30e5a11f1467aa64736f6c63430008030033a2646970667358221220da89fcd3c695cbb0ae071efe40d7c8b77e14fdf8e7c2e859f45ae527c7738fd364736f6c63430008030033","opcodes":"PUSH1 0x80 PUSH1 0x40 MSTORE CALLVALUE DUP1 ISZERO PUSH2 0x10 JUMPI PUSH1 0x0 DUP1 REVERT JUMPDEST POP PUSH2 0x1EB2 DUP1 PUSH2 0x20 PUSH1 0x0 CODECOPY PUSH1 0x0 RETURN INVALID PUSH1 0x80 PUSH1 0x40 MSTORE CALLVALUE DUP1 ISZERO PUSH3 0x11 JUMPI PUSH1 0x0 DUP1 REVERT JUMPDEST POP PUSH1 0x4 CALLDATASIZE LT PUSH3 0x46 JUMPI PUSH1 0x0 CALLDATALOAD PUSH1 0xE0 SHR DUP1 PUSH4 0x702107A2 EQ PUSH3 0x4B JUMPI DUP1 PUSH4 0xE4293559 EQ PUSH3 0x6B JUMPI DUP1 PUSH4 0xF739BF4D EQ PUSH3 0x8D JUMPI JUMPDEST PUSH1 0x0 DUP1 REVERT JUMPDEST PUSH3 0x69 PUSH1 0x4 DUP1 CALLDATASIZE SUB DUP2 ADD SWAP1 PUSH3 0x63 SWAP2 SWAP1 PUSH3 0x305 JUMP JUMPDEST PUSH3 0xC3 JUMP JUMPDEST STOP JUMPDEST PUSH3 0x75 PUSH3 0x172 JUMP JUMPDEST PUSH1 0x40 MLOAD PUSH3 0x84 SWAP2 SWAP1 PUSH3 0x4C5 JUMP JUMPDEST PUSH1 0x40 MLOAD DUP1 SWAP2 SUB SWAP1 RETURN JUMPDEST PUSH3 0xAB PUSH1 0x4 DUP1 CALLDATASIZE SUB DUP2 ADD SWAP1 PUSH3 0xA5 SWAP2 SWAP1 PUSH3 0x2D9 JUMP JUMPDEST PUSH3 0x202 JUMP JUMPDEST PUSH1 0x40 MLOAD PUSH3 0xBA SWAP2 SWAP1 PUSH3 0x4E9 JUMP JUMPDEST PUSH1 0x40 MLOAD DUP1 SWAP2 SUB SWAP1 RETURN JUMPDEST PUSH1 0x0 DUP5 DUP5 DUP5 DUP5 CALLER PUSH1 0x40 MLOAD PUSH3 0xD8 SWAP1 PUSH3 0x242 JUMP JUMPDEST PUSH3 0xE8 SWAP6 SWAP5 SWAP4 SWAP3 SWAP2 SWAP1 PUSH3 0x506 JUMP JUMPDEST PUSH1 0x40 MLOAD DUP1 SWAP2 SUB SWAP1 PUSH1 0x0 CREATE DUP1 ISZERO DUP1 ISZERO PUSH3 0x105 JUMPI RETURNDATASIZE PUSH1 0x0 DUP1 RETURNDATACOPY RETURNDATASIZE PUSH1 0x0 REVERT JUMPDEST POP SWAP1 POP PUSH1 0x0 DUP2 SWAP1 DUP1 PUSH1 0x1 DUP2 SLOAD ADD DUP1 DUP3 SSTORE DUP1 SWAP2 POP POP PUSH1 0x1 SWAP1 SUB SWAP1 PUSH1 0x0 MSTORE PUSH1 0x20 PUSH1 0x0 KECCAK256 ADD PUSH1 0x0 SWAP1 SWAP2 SWAP1 SWAP2 SWAP1 SWAP2 PUSH2 0x100 EXP DUP2 SLOAD DUP2 PUSH20 0xFFFFFFFFFFFFFFFFFFFFFFFFFFFFFFFFFFFFFFFF MUL NOT AND SWAP1 DUP4 PUSH20 0xFFFFFFFFFFFFFFFFFFFFFFFFFFFFFFFFFFFFFFFF AND MUL OR SWAP1 SSTORE POP POP POP POP POP POP JUMP JUMPDEST PUSH1 0x60 PUSH1 0x0 DUP1 SLOAD DUP1 PUSH1 0x20 MUL PUSH1 0x20 ADD PUSH1 0x40 MLOAD SWAP1 DUP2 ADD PUSH1 0x40 MSTORE DUP1 SWAP3 SWAP2 SWAP1 DUP2 DUP2 MSTORE PUSH1 0x20 ADD DUP3 DUP1 SLOAD DUP1 ISZERO PUSH3 0x1F8 JUMPI PUSH1 0x20 MUL DUP3 ADD SWAP2 SWAP1 PUSH1 0x0 MSTORE PUSH1 0x20 PUSH1 0x0 KECCAK256 SWAP1 JUMPDEST DUP2 PUSH1 0x0 SWAP1 SLOAD SWAP1 PUSH2 0x100 EXP SWAP1 DIV PUSH20 0xFFFFFFFFFFFFFFFFFFFFFFFFFFFFFFFFFFFFFFFF AND PUSH20 0xFFFFFFFFFFFFFFFFFFFFFFFFFFFFFFFFFFFFFFFF AND DUP2 MSTORE PUSH1 0x20 ADD SWAP1 PUSH1 0x1 ADD SWAP1 DUP1 DUP4 GT PUSH3 0x1AD JUMPI JUMPDEST POP POP POP POP POP SWAP1 POP SWAP1 JUMP JUMPDEST PUSH1 0x0 DUP2 DUP2 SLOAD DUP2 LT PUSH3 0x213 JUMPI PUSH1 0x0 DUP1 REVERT JUMPDEST SWAP1 PUSH1 0x0 MSTORE PUSH1 0x20 PUSH1 0x0 KECCAK256 ADD PUSH1 0x0 SWAP2 POP SLOAD SWAP1 PUSH2 0x100 EXP SWAP1 DIV PUSH20 0xFFFFFFFFFFFFFFFFFFFFFFFFFFFFFFFFFFFFFFFF AND DUP2 JUMP JUMPDEST PUSH2 0x1715 DUP1 PUSH3 0x768 DUP4 CODECOPY ADD SWAP1 JUMP JUMPDEST PUSH1 0x0 PUSH3 0x267 PUSH3 0x261 DUP5 PUSH3 0x5A1 JUMP JUMPDEST PUSH3 0x578 JUMP JUMPDEST SWAP1 POP DUP3 DUP2 MSTORE PUSH1 0x20 DUP2 ADD DUP5 DUP5 DUP5 ADD GT ISZERO PUSH3 0x280 JUMPI PUSH1 0x0 DUP1 REVERT JUMPDEST PUSH3 0x28D DUP5 DUP3 DUP6 PUSH3 0x692 JUMP JUMPDEST POP SWAP4 SWAP3 POP POP POP JUMP JUMPDEST PUSH1 0x0 DUP3 PUSH1 0x1F DUP4 ADD SLT PUSH3 0x2A7 JUMPI PUSH1 0x0 DUP1 REVERT JUMPDEST DUP2 CALLDATALOAD PUSH3 0x2B9 DUP5 DUP3 PUSH1 0x20 DUP7 ADD PUSH3 0x250 JUMP JUMPDEST SWAP2 POP POP SWAP3 SWAP2 POP POP JUMP JUMPDEST PUSH1 0x0 DUP2 CALLDATALOAD SWAP1 POP PUSH3 0x2D3 DUP2 PUSH3 0x74D JUMP JUMPDEST SWAP3 SWAP2 POP POP JUMP JUMPDEST PUSH1 0x0 PUSH1 0x20 DUP3 DUP5 SUB SLT ISZERO PUSH3 0x2EC JUMPI PUSH1 0x0 DUP1 REVERT JUMPDEST PUSH1 0x0 PUSH3 0x2FC DUP5 DUP3 DUP6 ADD PUSH3 0x2C2 JUMP JUMPDEST SWAP2 POP POP SWAP3 SWAP2 POP POP JUMP JUMPDEST PUSH1 0x0 DUP1 PUSH1 0x0 DUP1 PUSH1 0x80 DUP6 DUP8 SUB SLT ISZERO PUSH3 0x31C JUMPI PUSH1 0x0 DUP1 REVERT JUMPDEST PUSH1 0x0 PUSH3 0x32C DUP8 DUP3 DUP9 ADD PUSH3 0x2C2 JUMP JUMPDEST SWAP5 POP POP PUSH1 0x20 DUP6 ADD CALLDATALOAD PUSH8 0xFFFFFFFFFFFFFFFF DUP2 GT ISZERO PUSH3 0x34A JUMPI PUSH1 0x0 DUP1 REVERT JUMPDEST PUSH3 0x358 DUP8 DUP3 DUP9 ADD PUSH3 0x295 JUMP JUMPDEST SWAP4 POP POP PUSH1 0x40 DUP6 ADD CALLDATALOAD PUSH8 0xFFFFFFFFFFFFFFFF DUP2 GT ISZERO PUSH3 0x376 JUMPI PUSH1 0x0 DUP1 REVERT JUMPDEST PUSH3 0x384 DUP8 DUP3 DUP9 ADD PUSH3 0x295 JUMP JUMPDEST SWAP3 POP POP PUSH1 0x60 DUP6 ADD CALLDATALOAD PUSH8 0xFFFFFFFFFFFFFFFF DUP2 GT ISZERO PUSH3 0x3A2 JUMPI PUSH1 0x0 DUP1 REVERT JUMPDEST PUSH3 0x3B0 DUP8 DUP3 DUP9 ADD PUSH3 0x295 JUMP JUMPDEST SWAP2 POP POP SWAP3 SWAP6 SWAP2 SWAP5 POP SWAP3 POP JUMP JUMPDEST PUSH1 0x0 PUSH3 0x3CA DUP4 DUP4 PUSH3 0x451 JUMP JUMPDEST PUSH1 0x20 DUP4 ADD SWAP1 POP SWAP3 SWAP2 POP POP JUMP JUMPDEST PUSH3 0x3E1 DUP2 PUSH3 0x62C JUMP JUMPDEST DUP3 MSTORE POP POP JUMP JUMPDEST PUSH1 0x0 PUSH3 0x3F4 DUP3 PUSH3 0x5E7 JUMP JUMPDEST PUSH3 0x400 DUP2 DUP6 PUSH3 0x60A JUMP JUMPDEST SWAP4 POP PUSH3 0x40D DUP4 PUSH3 0x5D7 JUMP JUMPDEST DUP1 PUSH1 0x0 JUMPDEST DUP4 DUP2 LT ISZERO PUSH3 0x444 JUMPI DUP2 MLOAD PUSH3 0x428 DUP9 DUP3 PUSH3 0x3BC JUMP JUMPDEST SWAP8 POP PUSH3 0x435 DUP4 PUSH3 0x5FD JUMP JUMPDEST SWAP3 POP POP PUSH1 0x1 DUP2 ADD SWAP1 POP PUSH3 0x411 JUMP JUMPDEST POP DUP6 SWAP4 POP POP POP POP SWAP3 SWAP2 POP POP JUMP JUMPDEST PUSH3 0x45C DUP2 PUSH3 0x66A JUMP JUMPDEST DUP3 MSTORE POP POP JUMP JUMPDEST PUSH3 0x46D DUP2 PUSH3 0x66A JUMP JUMPDEST DUP3 MSTORE POP POP JUMP JUMPDEST PUSH1 0x0 PUSH3 0x480 DUP3 PUSH3 0x5F2 JUMP JUMPDEST PUSH3 0x48C DUP2 DUP6 PUSH3 0x61B JUMP JUMPDEST SWAP4 POP PUSH3 0x49E DUP2 DUP6 PUSH1 0x20 DUP7 ADD PUSH3 0x6A1 JUMP JUMPDEST PUSH3 0x4A9 DUP2 PUSH3 0x73C JUMP JUMPDEST DUP5 ADD SWAP2 POP POP SWAP3 SWAP2 POP POP JUMP JUMPDEST PUSH3 0x4BF DUP2 PUSH3 0x660 JUMP JUMPDEST DUP3 MSTORE POP POP JUMP JUMPDEST PUSH1 0x0 PUSH1 0x20 DUP3 ADD SWAP1 POP DUP2 DUP2 SUB PUSH1 0x0 DUP4 ADD MSTORE PUSH3 0x4E1 DUP2 DUP5 PUSH3 0x3E7 JUMP JUMPDEST SWAP1 POP SWAP3 SWAP2 POP POP JUMP JUMPDEST PUSH1 0x0 PUSH1 0x20 DUP3 ADD SWAP1 POP PUSH3 0x500 PUSH1 0x0 DUP4 ADD DUP5 PUSH3 0x462 JUMP JUMPDEST SWAP3 SWAP2 POP POP JUMP JUMPDEST PUSH1 0x0 PUSH1 0xA0 DUP3 ADD SWAP1 POP PUSH3 0x51D PUSH1 0x0 DUP4 ADD DUP9 PUSH3 0x4B4 JUMP JUMPDEST DUP2 DUP2 SUB PUSH1 0x20 DUP4 ADD MSTORE PUSH3 0x531 DUP2 DUP8 PUSH3 0x473 JUMP JUMPDEST SWAP1 POP DUP2 DUP2 SUB PUSH1 0x40 DUP4 ADD MSTORE PUSH3 0x547 DUP2 DUP7 PUSH3 0x473 JUMP JUMPDEST SWAP1 POP DUP2 DUP2 SUB PUSH1 0x60 DUP4 ADD MSTORE PUSH3 0x55D DUP2 DUP6 PUSH3 0x473 JUMP JUMPDEST SWAP1 POP PUSH3 0x56E PUSH1 0x80 DUP4 ADD DUP5 PUSH3 0x3D6 JUMP JUMPDEST SWAP7 SWAP6 POP POP POP POP POP POP JUMP JUMPDEST PUSH1 0x0 PUSH3 0x584 PUSH3 0x597 JUMP JUMPDEST SWAP1 POP PUSH3 0x592 DUP3 DUP3 PUSH3 0x6D7 JUMP JUMPDEST SWAP2 SWAP1 POP JUMP JUMPDEST PUSH1 0x0 PUSH1 0x40 MLOAD SWAP1 POP SWAP1 JUMP JUMPDEST PUSH1 0x0 PUSH8 0xFFFFFFFFFFFFFFFF DUP3 GT ISZERO PUSH3 0x5BF JUMPI PUSH3 0x5BE PUSH3 0x70D JUMP JUMPDEST JUMPDEST PUSH3 0x5CA DUP3 PUSH3 0x73C JUMP JUMPDEST SWAP1 POP PUSH1 0x20 DUP2 ADD SWAP1 POP SWAP2 SWAP1 POP JUMP JUMPDEST PUSH1 0x0 DUP2 SWAP1 POP PUSH1 0x20 DUP3 ADD SWAP1 POP SWAP2 SWAP1 POP JUMP JUMPDEST PUSH1 0x0 DUP2 MLOAD SWAP1 POP SWAP2 SWAP1 POP JUMP JUMPDEST PUSH1 0x0 DUP2 MLOAD SWAP1 POP SWAP2 SWAP1 POP JUMP JUMPDEST PUSH1 0x0 PUSH1 0x20 DUP3 ADD SWAP1 POP SWAP2 SWAP1 POP JUMP JUMPDEST PUSH1 0x0 DUP3 DUP3 MSTORE PUSH1 0x20 DUP3 ADD SWAP1 POP SWAP3 SWAP2 POP POP JUMP JUMPDEST PUSH1 0x0 DUP3 DUP3 MSTORE PUSH1 0x20 DUP3 ADD SWAP1 POP SWAP3 SWAP2 POP POP JUMP JUMPDEST PUSH1 0x0 PUSH3 0x639 DUP3 PUSH3 0x640 JUMP JUMPDEST SWAP1 POP SWAP2 SWAP1 POP JUMP JUMPDEST PUSH1 0x0 PUSH20 0xFFFFFFFFFFFFFFFFFFFFFFFFFFFFFFFFFFFFFFFF DUP3 AND SWAP1 POP SWAP2 SWAP1 POP JUMP JUMPDEST PUSH1 0x0 DUP2 SWAP1 POP SWAP2 SWAP1 POP JUMP JUMPDEST PUSH1 0x0 PUSH3 0x677 DUP3 PUSH3 0x67E JUMP JUMPDEST SWAP1 POP SWAP2 SWAP1 POP JUMP JUMPDEST PUSH1 0x0 PUSH3 0x68B DUP3 PUSH3 0x640 JUMP JUMPDEST SWAP1 POP SWAP2 SWAP1 POP JUMP JUMPDEST DUP3 DUP2 DUP4 CALLDATACOPY PUSH1 0x0 DUP4 DUP4 ADD MSTORE POP POP POP JUMP JUMPDEST PUSH1 0x0 JUMPDEST DUP4 DUP2 LT ISZERO PUSH3 0x6C1 JUMPI DUP1 DUP3 ADD MLOAD DUP2 DUP5 ADD MSTORE PUSH1 0x20 DUP2 ADD SWAP1 POP PUSH3 0x6A4 JUMP JUMPDEST DUP4 DUP2 GT ISZERO PUSH3 0x6D1 JUMPI PUSH1 0x0 DUP5 DUP5 ADD MSTORE JUMPDEST POP POP POP POP JUMP JUMPDEST PUSH3 0x6E2 DUP3 PUSH3 0x73C JUMP JUMPDEST DUP2 ADD DUP2 DUP2 LT PUSH8 0xFFFFFFFFFFFFFFFF DUP3 GT OR ISZERO PUSH3 0x704 JUMPI PUSH3 0x703 PUSH3 0x70D JUMP JUMPDEST JUMPDEST DUP1 PUSH1 0x40 MSTORE POP POP POP JUMP JUMPDEST PUSH32 0x4E487B7100000000000000000000000000000000000000000000000000000000 PUSH1 0x0 MSTORE PUSH1 0x41 PUSH1 0x4 MSTORE PUSH1 0x24 PUSH1 0x0 REVERT JUMPDEST PUSH1 0x0 PUSH1 0x1F NOT PUSH1 0x1F DUP4 ADD AND SWAP1 POP SWAP2 SWAP1 POP JUMP JUMPDEST PUSH3 0x758 DUP2 PUSH3 0x660 JUMP JUMPDEST DUP2 EQ PUSH3 0x764 JUMPI PUSH1 0x0 DUP1 REVERT JUMPDEST POP JUMP INVALID PUSH1 0x80 PUSH1 0x40 MSTORE CALLVALUE DUP1 ISZERO PUSH3 0x11 JUMPI PUSH1 0x0 DUP1 REVERT JUMPDEST POP PUSH1 0x40 MLOAD PUSH3 0x1715 CODESIZE SUB DUP1 PUSH3 0x1715 DUP4 CODECOPY DUP2 DUP2 ADD PUSH1 0x40 MSTORE DUP2 ADD SWAP1 PUSH3 0x37 SWAP2 SWAP1 PUSH3 0x225 JUMP JUMPDEST DUP1 PUSH1 0x5 PUSH1 0x0 PUSH2 0x100 EXP DUP2 SLOAD DUP2 PUSH20 0xFFFFFFFFFFFFFFFFFFFFFFFFFFFFFFFFFFFFFFFF MUL NOT AND SWAP1 DUP4 PUSH20 0xFFFFFFFFFFFFFFFFFFFFFFFFFFFFFFFFFFFFFFFF AND MUL OR SWAP1 SSTORE POP DUP5 PUSH1 0x8 DUP2 SWAP1 SSTORE POP DUP4 PUSH1 0x0 SWAP1 DUP1 MLOAD SWAP1 PUSH1 0x20 ADD SWAP1 PUSH3 0x97 SWAP3 SWAP2 SWAP1 PUSH3 0xD5 JUMP JUMPDEST POP DUP3 PUSH1 0x1 SWAP1 DUP1 MLOAD SWAP1 PUSH1 0x20 ADD SWAP1 PUSH3 0xB0 SWAP3 SWAP2 SWAP1 PUSH3 0xD5 JUMP JUMPDEST POP DUP2 PUSH1 0x2 SWAP1 DUP1 MLOAD SWAP1 PUSH1 0x20 ADD SWAP1 PUSH3 0xC9 SWAP3 SWAP2 SWAP1 PUSH3 0xD5 JUMP JUMPDEST POP POP POP POP POP POP PUSH3 0x4D4 JUMP JUMPDEST DUP3 DUP1 SLOAD PUSH3 0xE3 SWAP1 PUSH3 0x3C5 JUMP JUMPDEST SWAP1 PUSH1 0x0 MSTORE PUSH1 0x20 PUSH1 0x0 KECCAK256 SWAP1 PUSH1 0x1F ADD PUSH1 0x20 SWAP1 DIV DUP2 ADD SWAP3 DUP3 PUSH3 0x107 JUMPI PUSH1 0x0 DUP6 SSTORE PUSH3 0x153 JUMP JUMPDEST DUP3 PUSH1 0x1F LT PUSH3 0x122 JUMPI DUP1 MLOAD PUSH1 0xFF NOT AND DUP4 DUP1 ADD OR DUP6 SSTORE PUSH3 0x153 JUMP JUMPDEST DUP3 DUP1 ADD PUSH1 0x1 ADD DUP6 SSTORE DUP3 ISZERO PUSH3 0x153 JUMPI SWAP2 DUP3 ADD JUMPDEST DUP3 DUP2 GT ISZERO PUSH3 0x152 JUMPI DUP3 MLOAD DUP3 SSTORE SWAP2 PUSH1 0x20 ADD SWAP2 SWAP1 PUSH1 0x1 ADD SWAP1 PUSH3 0x135 JUMP JUMPDEST JUMPDEST POP SWAP1 POP PUSH3 0x162 SWAP2 SWAP1 PUSH3 0x166 JUMP JUMPDEST POP SWAP1 JUMP JUMPDEST JUMPDEST DUP1 DUP3 GT ISZERO PUSH3 0x181 JUMPI PUSH1 0x0 DUP2 PUSH1 0x0 SWAP1 SSTORE POP PUSH1 0x1 ADD PUSH3 0x167 JUMP JUMPDEST POP SWAP1 JUMP JUMPDEST PUSH1 0x0 PUSH3 0x19C PUSH3 0x196 DUP5 PUSH3 0x31B JUMP JUMPDEST PUSH3 0x2F2 JUMP JUMPDEST SWAP1 POP DUP3 DUP2 MSTORE PUSH1 0x20 DUP2 ADD DUP5 DUP5 DUP5 ADD GT ISZERO PUSH3 0x1B5 JUMPI PUSH1 0x0 DUP1 REVERT JUMPDEST PUSH3 0x1C2 DUP5 DUP3 DUP6 PUSH3 0x38F JUMP JUMPDEST POP SWAP4 SWAP3 POP POP POP JUMP JUMPDEST PUSH1 0x0 DUP2 MLOAD SWAP1 POP PUSH3 0x1DB DUP2 PUSH3 0x4A0 JUMP JUMPDEST SWAP3 SWAP2 POP POP JUMP JUMPDEST PUSH1 0x0 DUP3 PUSH1 0x1F DUP4 ADD SLT PUSH3 0x1F3 JUMPI PUSH1 0x0 DUP1 REVERT JUMPDEST DUP2 MLOAD PUSH3 0x205 DUP5 DUP3 PUSH1 0x20 DUP7 ADD PUSH3 0x185 JUMP JUMPDEST SWAP2 POP POP SWAP3 SWAP2 POP POP JUMP JUMPDEST PUSH1 0x0 DUP2 MLOAD SWAP1 POP PUSH3 0x21F DUP2 PUSH3 0x4BA JUMP JUMPDEST SWAP3 SWAP2 POP POP JUMP JUMPDEST PUSH1 0x0 DUP1 PUSH1 0x0 DUP1 PUSH1 0x0 PUSH1 0xA0 DUP7 DUP9 SUB SLT ISZERO PUSH3 0x23E JUMPI PUSH1 0x0 DUP1 REVERT JUMPDEST PUSH1 0x0 PUSH3 0x24E DUP9 DUP3 DUP10 ADD PUSH3 0x20E JUMP JUMPDEST SWAP6 POP POP PUSH1 0x20 DUP7 ADD MLOAD PUSH8 0xFFFFFFFFFFFFFFFF DUP2 GT ISZERO PUSH3 0x26C JUMPI PUSH1 0x0 DUP1 REVERT JUMPDEST PUSH3 0x27A DUP9 DUP3 DUP10 ADD PUSH3 0x1E1 JUMP JUMPDEST SWAP5 POP POP PUSH1 0x40 DUP7 ADD MLOAD PUSH8 0xFFFFFFFFFFFFFFFF DUP2 GT ISZERO PUSH3 0x298 JUMPI PUSH1 0x0 DUP1 REVERT JUMPDEST PUSH3 0x2A6 DUP9 DUP3 DUP10 ADD PUSH3 0x1E1 JUMP JUMPDEST SWAP4 POP POP PUSH1 0x60 DUP7 ADD MLOAD PUSH8 0xFFFFFFFFFFFFFFFF DUP2 GT ISZERO PUSH3 0x2C4 JUMPI PUSH1 0x0 DUP1 REVERT JUMPDEST PUSH3 0x2D2 DUP9 DUP3 DUP10 ADD PUSH3 0x1E1 JUMP JUMPDEST SWAP3 POP POP PUSH1 0x80 PUSH3 0x2E5 DUP9 DUP3 DUP10 ADD PUSH3 0x1CA JUMP JUMPDEST SWAP2 POP POP SWAP3 SWAP6 POP SWAP3 SWAP6 SWAP1 SWAP4 POP JUMP JUMPDEST PUSH1 0x0 PUSH3 0x2FE PUSH3 0x311 JUMP JUMPDEST SWAP1 POP PUSH3 0x30C DUP3 DUP3 PUSH3 0x3FB JUMP JUMPDEST SWAP2 SWAP1 POP JUMP JUMPDEST PUSH1 0x0 PUSH1 0x40 MLOAD SWAP1 POP SWAP1 JUMP JUMPDEST PUSH1 0x0 PUSH8 0xFFFFFFFFFFFFFFFF DUP3 GT ISZERO PUSH3 0x339 JUMPI PUSH3 0x338 PUSH3 0x460 JUMP JUMPDEST JUMPDEST PUSH3 0x344 DUP3 PUSH3 0x48F JUMP JUMPDEST SWAP1 POP PUSH1 0x20 DUP2 ADD SWAP1 POP SWAP2 SWAP1 POP JUMP JUMPDEST PUSH1 0x0 PUSH3 0x35E DUP3 PUSH3 0x365 JUMP JUMPDEST SWAP1 POP SWAP2 SWAP1 POP JUMP JUMPDEST PUSH1 0x0 PUSH20 0xFFFFFFFFFFFFFFFFFFFFFFFFFFFFFFFFFFFFFFFF DUP3 AND SWAP1 POP SWAP2 SWAP1 POP JUMP JUMPDEST PUSH1 0x0 DUP2 SWAP1 POP SWAP2 SWAP1 POP JUMP JUMPDEST PUSH1 0x0 JUMPDEST DUP4 DUP2 LT ISZERO PUSH3 0x3AF JUMPI DUP1 DUP3 ADD MLOAD DUP2 DUP5 ADD MSTORE PUSH1 0x20 DUP2 ADD SWAP1 POP PUSH3 0x392 JUMP JUMPDEST DUP4 DUP2 GT ISZERO PUSH3 0x3BF JUMPI PUSH1 0x0 DUP5 DUP5 ADD MSTORE JUMPDEST POP POP POP POP JUMP JUMPDEST PUSH1 0x0 PUSH1 0x2 DUP3 DIV SWAP1 POP PUSH1 0x1 DUP3 AND DUP1 PUSH3 0x3DE JUMPI PUSH1 0x7F DUP3 AND SWAP2 POP JUMPDEST PUSH1 0x20 DUP3 LT DUP2 EQ ISZERO PUSH3 0x3F5 JUMPI PUSH3 0x3F4 PUSH3 0x431 JUMP JUMPDEST JUMPDEST POP SWAP2 SWAP1 POP JUMP JUMPDEST PUSH3 0x406 DUP3 PUSH3 0x48F JUMP JUMPDEST DUP2 ADD DUP2 DUP2 LT PUSH8 0xFFFFFFFFFFFFFFFF DUP3 GT OR ISZERO PUSH3 0x428 JUMPI PUSH3 0x427 PUSH3 0x460 JUMP JUMPDEST JUMPDEST DUP1 PUSH1 0x40 MSTORE POP POP POP JUMP JUMPDEST PUSH32 0x4E487B7100000000000000000000000000000000000000000000000000000000 PUSH1 0x0 MSTORE PUSH1 0x22 PUSH1 0x4 MSTORE PUSH1 0x24 PUSH1 0x0 REVERT JUMPDEST PUSH32 0x4E487B7100000000000000000000000000000000000000000000000000000000 PUSH1 0x0 MSTORE PUSH1 0x41 PUSH1 0x4 MSTORE PUSH1 0x24 PUSH1 0x0 REVERT JUMPDEST PUSH1 0x0 PUSH1 0x1F NOT PUSH1 0x1F DUP4 ADD AND SWAP1 POP SWAP2 SWAP1 POP JUMP JUMPDEST PUSH3 0x4AB DUP2 PUSH3 0x351 JUMP JUMPDEST DUP2 EQ PUSH3 0x4B7 JUMPI PUSH1 0x0 DUP1 REVERT JUMPDEST POP JUMP JUMPDEST PUSH3 0x4C5 DUP2 PUSH3 0x385 JUMP JUMPDEST DUP2 EQ PUSH3 0x4D1 JUMPI PUSH1 0x0 DUP1 REVERT JUMPDEST POP JUMP JUMPDEST PUSH2 0x1231 DUP1 PUSH3 0x4E4 PUSH1 0x0 CODECOPY PUSH1 0x0 RETURN INVALID PUSH1 0x80 PUSH1 0x40 MSTORE PUSH1 0x4 CALLDATASIZE LT PUSH2 0xDD JUMPI PUSH1 0x0 CALLDATALOAD PUSH1 0xE0 SHR DUP1 PUSH4 0x7284E416 GT PUSH2 0x7F JUMPI DUP1 PUSH4 0x8A9CFD55 GT PUSH2 0x59 JUMPI DUP1 PUSH4 0x8A9CFD55 EQ PUSH2 0x2B6 JUMPI DUP1 PUSH4 0x9FB42B1F EQ PUSH2 0x2DF JUMPI DUP1 PUSH4 0xD7BB99BA EQ PUSH2 0x30A JUMPI DUP1 PUSH4 0xD7D1BBDB EQ PUSH2 0x314 JUMPI PUSH2 0xDD JUMP JUMPDEST DUP1 PUSH4 0x7284E416 EQ PUSH2 0x21F JUMPI DUP1 PUSH4 0x7554E42F EQ PUSH2 0x24A JUMPI DUP1 PUSH4 0x81D12C58 EQ PUSH2 0x275 JUMPI PUSH2 0xDD JUMP JUMPDEST DUP1 PUSH4 0x1DA98960 GT PUSH2 0xBB JUMPI DUP1 PUSH4 0x1DA98960 EQ PUSH2 0x173 JUMPI DUP1 PUSH4 0x26540FD2 EQ PUSH2 0x19E JUMPI DUP1 PUSH4 0x481C6A75 EQ PUSH2 0x1C9 JUMPI DUP1 PUSH4 0x59AF7A13 EQ PUSH2 0x1F4 JUMPI PUSH2 0xDD JUMP JUMPDEST DUP1 PUSH4 0x3441006 EQ PUSH2 0xE2 JUMPI DUP1 PUSH4 0x6FDDE03 EQ PUSH2 0x10B JUMPI DUP1 PUSH4 0xA144391 EQ PUSH2 0x136 JUMPI JUMPDEST PUSH1 0x0 DUP1 REVERT JUMPDEST CALLVALUE DUP1 ISZERO PUSH2 0xEE JUMPI PUSH1 0x0 DUP1 REVERT JUMPDEST POP PUSH2 0x109 PUSH1 0x4 DUP1 CALLDATASIZE SUB DUP2 ADD SWAP1 PUSH2 0x104 SWAP2 SWAP1 PUSH2 0xD27 JUMP JUMPDEST PUSH2 0x33D JUMP JUMPDEST STOP JUMPDEST CALLVALUE DUP1 ISZERO PUSH2 0x117 JUMPI PUSH1 0x0 DUP1 REVERT JUMPDEST POP PUSH2 0x120 PUSH2 0x478 JUMP JUMPDEST PUSH1 0x40 MLOAD PUSH2 0x12D SWAP2 SWAP1 PUSH2 0xDE0 JUMP JUMPDEST PUSH1 0x40 MLOAD DUP1 SWAP2 SUB SWAP1 RETURN JUMPDEST CALLVALUE DUP1 ISZERO PUSH2 0x142 JUMPI PUSH1 0x0 DUP1 REVERT JUMPDEST POP PUSH2 0x15D PUSH1 0x4 DUP1 CALLDATASIZE SUB DUP2 ADD SWAP1 PUSH2 0x158 SWAP2 SWAP1 PUSH2 0xC97 JUMP JUMPDEST PUSH2 0x506 JUMP JUMPDEST PUSH1 0x40 MLOAD PUSH2 0x16A SWAP2 SWAP1 PUSH2 0xE5C JUMP JUMPDEST PUSH1 0x40 MLOAD DUP1 SWAP2 SUB SWAP1 RETURN JUMPDEST CALLVALUE DUP1 ISZERO PUSH2 0x17F JUMPI PUSH1 0x0 DUP1 REVERT JUMPDEST POP PUSH2 0x188 PUSH2 0x51E JUMP JUMPDEST PUSH1 0x40 MLOAD PUSH2 0x195 SWAP2 SWAP1 PUSH2 0xDE0 JUMP JUMPDEST PUSH1 0x40 MLOAD DUP1 SWAP2 SUB SWAP1 RETURN JUMPDEST CALLVALUE DUP1 ISZERO PUSH2 0x1AA JUMPI PUSH1 0x0 DUP1 REVERT JUMPDEST POP PUSH2 0x1B3 PUSH2 0x5AC JUMP JUMPDEST PUSH1 0x40 MLOAD PUSH2 0x1C0 SWAP2 SWAP1 PUSH2 0xE5C JUMP JUMPDEST PUSH1 0x40 MLOAD DUP1 SWAP2 SUB SWAP1 RETURN JUMPDEST CALLVALUE DUP1 ISZERO PUSH2 0x1D5 JUMPI PUSH1 0x0 DUP1 REVERT JUMPDEST POP PUSH2 0x1DE PUSH2 0x5B2 JUMP JUMPDEST PUSH1 0x40 MLOAD PUSH2 0x1EB SWAP2 SWAP1 PUSH2 0xDC5 JUMP JUMPDEST PUSH1 0x40 MLOAD DUP1 SWAP2 SUB SWAP1 RETURN JUMPDEST CALLVALUE DUP1 ISZERO PUSH2 0x200 JUMPI PUSH1 0x0 DUP1 REVERT JUMPDEST POP PUSH2 0x209 PUSH2 0x5D8 JUMP JUMPDEST PUSH1 0x40 MLOAD PUSH2 0x216 SWAP2 SWAP1 PUSH2 0xE5C JUMP JUMPDEST PUSH1 0x40 MLOAD DUP1 SWAP2 SUB SWAP1 RETURN JUMPDEST CALLVALUE DUP1 ISZERO PUSH2 0x22B JUMPI PUSH1 0x0 DUP1 REVERT JUMPDEST POP PUSH2 0x234 PUSH2 0x5DE JUMP JUMPDEST PUSH1 0x40 MLOAD PUSH2 0x241 SWAP2 SWAP1 PUSH2 0xDE0 JUMP JUMPDEST PUSH1 0x40 MLOAD DUP1 SWAP2 SUB SWAP1 RETURN JUMPDEST CALLVALUE DUP1 ISZERO PUSH2 0x256 JUMPI PUSH1 0x0 DUP1 REVERT JUMPDEST POP PUSH2 0x25F PUSH2 0x66C JUMP JUMPDEST PUSH1 0x40 MLOAD PUSH2 0x26C SWAP2 SWAP1 PUSH2 0xE5C JUMP JUMPDEST PUSH1 0x40 MLOAD DUP1 SWAP2 SUB SWAP1 RETURN JUMPDEST CALLVALUE DUP1 ISZERO PUSH2 0x281 JUMPI PUSH1 0x0 DUP1 REVERT JUMPDEST POP PUSH2 0x29C PUSH1 0x4 DUP1 CALLDATASIZE SUB DUP2 ADD SWAP1 PUSH2 0x297 SWAP2 SWAP1 PUSH2 0xD27 JUMP JUMPDEST PUSH2 0x672 JUMP JUMPDEST PUSH1 0x40 MLOAD PUSH2 0x2AD SWAP6 SWAP5 SWAP4 SWAP3 SWAP2 SWAP1 PUSH2 0xE02 JUMP JUMPDEST PUSH1 0x40 MLOAD DUP1 SWAP2 SUB SWAP1 RETURN JUMPDEST CALLVALUE DUP1 ISZERO PUSH2 0x2C2 JUMPI PUSH1 0x0 DUP1 REVERT JUMPDEST POP PUSH2 0x2DD PUSH1 0x4 DUP1 CALLDATASIZE SUB DUP2 ADD SWAP1 PUSH2 0x2D8 SWAP2 SWAP1 PUSH2 0xCC0 JUMP JUMPDEST PUSH2 0x75D JUMP JUMPDEST STOP JUMPDEST CALLVALUE DUP1 ISZERO PUSH2 0x2EB JUMPI PUSH1 0x0 DUP1 REVERT JUMPDEST POP PUSH2 0x2F4 PUSH2 0x876 JUMP JUMPDEST PUSH1 0x40 MLOAD PUSH2 0x301 SWAP2 SWAP1 PUSH2 0xE5C JUMP JUMPDEST PUSH1 0x40 MLOAD DUP1 SWAP2 SUB SWAP1 RETURN JUMPDEST PUSH2 0x312 PUSH2 0x87C JUMP JUMPDEST STOP JUMPDEST CALLVALUE DUP1 ISZERO PUSH2 0x320 JUMPI PUSH1 0x0 DUP1 REVERT JUMPDEST POP PUSH2 0x33B PUSH1 0x4 DUP1 CALLDATASIZE SUB DUP2 ADD SWAP1 PUSH2 0x336 SWAP2 SWAP1 PUSH2 0xD27 JUMP JUMPDEST PUSH2 0x9D9 JUMP JUMPDEST STOP JUMPDEST PUSH1 0x5 PUSH1 0x0 SWAP1 SLOAD SWAP1 PUSH2 0x100 EXP SWAP1 DIV PUSH20 0xFFFFFFFFFFFFFFFFFFFFFFFFFFFFFFFFFFFFFFFF AND PUSH20 0xFFFFFFFFFFFFFFFFFFFFFFFFFFFFFFFFFFFFFFFF AND CALLER PUSH20 0xFFFFFFFFFFFFFFFFFFFFFFFFFFFFFFFFFFFFFFFF AND EQ PUSH2 0x397 JUMPI PUSH1 0x0 DUP1 REVERT JUMPDEST PUSH1 0x0 PUSH1 0x4 PUSH1 0x0 DUP4 DUP2 MSTORE PUSH1 0x20 ADD SWAP1 DUP2 MSTORE PUSH1 0x20 ADD PUSH1 0x0 KECCAK256 SWAP1 POP PUSH1 0x2 PUSH1 0x9 SLOAD PUSH2 0x3BD SWAP2 SWAP1 PUSH2 0xF3F JUMP JUMPDEST DUP2 PUSH1 0x3 ADD SLOAD GT PUSH2 0x3CC JUMPI PUSH1 0x0 DUP1 REVERT JUMPDEST DUP1 PUSH1 0x2 ADD PUSH1 0x14 SWAP1 SLOAD SWAP1 PUSH2 0x100 EXP SWAP1 DIV PUSH1 0xFF AND ISZERO PUSH2 0x3E8 JUMPI PUSH1 0x0 DUP1 REVERT JUMPDEST DUP1 PUSH1 0x2 ADD PUSH1 0x0 SWAP1 SLOAD SWAP1 PUSH2 0x100 EXP SWAP1 DIV PUSH20 0xFFFFFFFFFFFFFFFFFFFFFFFFFFFFFFFFFFFFFFFF AND PUSH20 0xFFFFFFFFFFFFFFFFFFFFFFFFFFFFFFFFFFFFFFFF AND PUSH2 0x8FC DUP3 PUSH1 0x1 ADD SLOAD SWAP1 DUP2 ISZERO MUL SWAP1 PUSH1 0x40 MLOAD PUSH1 0x0 PUSH1 0x40 MLOAD DUP1 DUP4 SUB DUP2 DUP6 DUP9 DUP9 CALL SWAP4 POP POP POP POP ISZERO DUP1 ISZERO PUSH2 0x456 JUMPI RETURNDATASIZE PUSH1 0x0 DUP1 RETURNDATACOPY RETURNDATASIZE PUSH1 0x0 REVERT JUMPDEST POP PUSH1 0x1 DUP2 PUSH1 0x2 ADD PUSH1 0x14 PUSH2 0x100 EXP DUP2 SLOAD DUP2 PUSH1 0xFF MUL NOT AND SWAP1 DUP4 ISZERO ISZERO MUL OR SWAP1 SSTORE POP POP POP JUMP JUMPDEST PUSH1 0x0 DUP1 SLOAD PUSH2 0x485 SWAP1 PUSH2 0x100C JUMP JUMPDEST DUP1 PUSH1 0x1F ADD PUSH1 0x20 DUP1 SWAP2 DIV MUL PUSH1 0x20 ADD PUSH1 0x40 MLOAD SWAP1 DUP2 ADD PUSH1 0x40 MSTORE DUP1 SWAP3 SWAP2 SWAP1 DUP2 DUP2 MSTORE PUSH1 0x20 ADD DUP3 DUP1 SLOAD PUSH2 0x4B1 SWAP1 PUSH2 0x100C JUMP JUMPDEST DUP1 ISZERO PUSH2 0x4FE JUMPI DUP1 PUSH1 0x1F LT PUSH2 0x4D3 JUMPI PUSH2 0x100 DUP1 DUP4 SLOAD DIV MUL DUP4 MSTORE SWAP2 PUSH1 0x20 ADD SWAP2 PUSH2 0x4FE JUMP JUMPDEST DUP3 ADD SWAP2 SWAP1 PUSH1 0x0 MSTORE PUSH1 0x20 PUSH1 0x0 KECCAK256 SWAP1 JUMPDEST DUP2 SLOAD DUP2 MSTORE SWAP1 PUSH1 0x1 ADD SWAP1 PUSH1 0x20 ADD DUP1 DUP4 GT PUSH2 0x4E1 JUMPI DUP3 SWAP1 SUB PUSH1 0x1F AND DUP3 ADD SWAP2 JUMPDEST POP POP POP POP POP DUP2 JUMP JUMPDEST PUSH1 0x7 PUSH1 0x20 MSTORE DUP1 PUSH1 0x0 MSTORE PUSH1 0x40 PUSH1 0x0 KECCAK256 PUSH1 0x0 SWAP2 POP SWAP1 POP SLOAD DUP2 JUMP JUMPDEST PUSH1 0x1 DUP1 SLOAD PUSH2 0x52B SWAP1 PUSH2 0x100C JUMP JUMPDEST DUP1 PUSH1 0x1F ADD PUSH1 0x20 DUP1 SWAP2 DIV MUL PUSH1 0x20 ADD PUSH1 0x40 MLOAD SWAP1 DUP2 ADD PUSH1 0x40 MSTORE DUP1 SWAP3 SWAP2 SWAP1 DUP2 DUP2 MSTORE PUSH1 0x20 ADD DUP3 DUP1 SLOAD PUSH2 0x557 SWAP1 PUSH2 0x100C JUMP JUMPDEST DUP1 ISZERO PUSH2 0x5A4 JUMPI DUP1 PUSH1 0x1F LT PUSH2 0x579 JUMPI PUSH2 0x100 DUP1 DUP4 SLOAD DIV MUL DUP4 MSTORE SWAP2 PUSH1 0x20 ADD SWAP2 PUSH2 0x5A4 JUMP JUMPDEST DUP3 ADD SWAP2 SWAP1 PUSH1 0x0 MSTORE PUSH1 0x20 PUSH1 0x0 KECCAK256 SWAP1 JUMPDEST DUP2 SLOAD DUP2 MSTORE SWAP1 PUSH1 0x1 ADD SWAP1 PUSH1 0x20 ADD DUP1 DUP4 GT PUSH2 0x587 JUMPI DUP3 SWAP1 SUB PUSH1 0x1F AND DUP3 ADD SWAP2 JUMPDEST POP POP POP POP POP DUP2 JUMP JUMPDEST PUSH1 0x9 SLOAD DUP2 JUMP JUMPDEST PUSH1 0x5 PUSH1 0x0 SWAP1 SLOAD SWAP1 PUSH2 0x100 EXP SWAP1 DIV PUSH20 0xFFFFFFFFFFFFFFFFFFFFFFFFFFFFFFFFFFFFFFFF AND DUP2 JUMP JUMPDEST PUSH1 0x8 SLOAD DUP2 JUMP JUMPDEST PUSH1 0x2 DUP1 SLOAD PUSH2 0x5EB SWAP1 PUSH2 0x100C JUMP JUMPDEST DUP1 PUSH1 0x1F ADD PUSH1 0x20 DUP1 SWAP2 DIV MUL PUSH1 0x20 ADD PUSH1 0x40 MLOAD SWAP1 DUP2 ADD PUSH1 0x40 MSTORE DUP1 SWAP3 SWAP2 SWAP1 DUP2 DUP2 MSTORE PUSH1 0x20 ADD DUP3 DUP1 SLOAD PUSH2 0x617 SWAP1 PUSH2 0x100C JUMP JUMPDEST DUP1 ISZERO PUSH2 0x664 JUMPI DUP1 PUSH1 0x1F LT PUSH2 0x639 JUMPI PUSH2 0x100 DUP1 DUP4 SLOAD DIV MUL DUP4 MSTORE SWAP2 PUSH1 0x20 ADD SWAP2 PUSH2 0x664 JUMP JUMPDEST DUP3 ADD SWAP2 SWAP1 PUSH1 0x0 MSTORE PUSH1 0x20 PUSH1 0x0 KECCAK256 SWAP1 JUMPDEST DUP2 SLOAD DUP2 MSTORE SWAP1 PUSH1 0x1 ADD SWAP1 PUSH1 0x20 ADD DUP1 DUP4 GT PUSH2 0x647 JUMPI DUP3 SWAP1 SUB PUSH1 0x1F AND DUP3 ADD SWAP2 JUMPDEST POP POP POP POP POP DUP2 JUMP JUMPDEST PUSH1 0x6 SLOAD DUP2 JUMP JUMPDEST PUSH1 0x4 PUSH1 0x20 MSTORE DUP1 PUSH1 0x0 MSTORE PUSH1 0x40 PUSH1 0x0 KECCAK256 PUSH1 0x0 SWAP2 POP SWAP1 POP DUP1 PUSH1 0x0 ADD DUP1 SLOAD PUSH2 0x695 SWAP1 PUSH2 0x100C JUMP JUMPDEST DUP1 PUSH1 0x1F ADD PUSH1 0x20 DUP1 SWAP2 DIV MUL PUSH1 0x20 ADD PUSH1 0x40 MLOAD SWAP1 DUP2 ADD PUSH1 0x40 MSTORE DUP1 SWAP3 SWAP2 SWAP1 DUP2 DUP2 MSTORE PUSH1 0x20 ADD DUP3 DUP1 SLOAD PUSH2 0x6C1 SWAP1 PUSH2 0x100C JUMP JUMPDEST DUP1 ISZERO PUSH2 0x70E JUMPI DUP1 PUSH1 0x1F LT PUSH2 0x6E3 JUMPI PUSH2 0x100 DUP1 DUP4 SLOAD DIV MUL DUP4 MSTORE SWAP2 PUSH1 0x20 ADD SWAP2 PUSH2 0x70E JUMP JUMPDEST DUP3 ADD SWAP2 SWAP1 PUSH1 0x0 MSTORE PUSH1 0x20 PUSH1 0x0 KECCAK256 SWAP1 JUMPDEST DUP2 SLOAD DUP2 MSTORE SWAP1 PUSH1 0x1 ADD SWAP1 PUSH1 0x20 ADD DUP1 DUP4 GT PUSH2 0x6F1 JUMPI DUP3 SWAP1 SUB PUSH1 0x1F AND DUP3 ADD SWAP2 JUMPDEST POP POP POP POP POP SWAP1 DUP1 PUSH1 0x1 ADD SLOAD SWAP1 DUP1 PUSH1 0x2 ADD PUSH1 0x0 SWAP1 SLOAD SWAP1 PUSH2 0x100 EXP SWAP1 DIV PUSH20 0xFFFFFFFFFFFFFFFFFFFFFFFFFFFFFFFFFFFFFFFF AND SWAP1 DUP1 PUSH1 0x2 ADD PUSH1 0x14 SWAP1 SLOAD SWAP1 PUSH2 0x100 EXP SWAP1 DIV PUSH1 0xFF AND SWAP1 DUP1 PUSH1 0x3 ADD SLOAD SWAP1 POP DUP6 JUMP JUMPDEST PUSH1 0x5 PUSH1 0x0 SWAP1 SLOAD SWAP1 PUSH2 0x100 EXP SWAP1 DIV PUSH20 0xFFFFFFFFFFFFFFFFFFFFFFFFFFFFFFFFFFFFFFFF AND PUSH20 0xFFFFFFFFFFFFFFFFFFFFFFFFFFFFFFFFFFFFFFFF AND CALLER PUSH20 0xFFFFFFFFFFFFFFFFFFFFFFFFFFFFFFFFFFFFFFFF AND EQ PUSH2 0x7B7 JUMPI PUSH1 0x0 DUP1 REVERT JUMPDEST PUSH1 0x0 PUSH1 0x4 PUSH1 0x0 PUSH1 0x3 PUSH1 0x0 DUP2 SLOAD DUP1 SWAP3 SWAP2 SWAP1 PUSH2 0x7D0 SWAP1 PUSH2 0x106F JUMP JUMPDEST SWAP2 SWAP1 POP SSTORE DUP2 MSTORE PUSH1 0x20 ADD SWAP1 DUP2 MSTORE PUSH1 0x20 ADD PUSH1 0x0 KECCAK256 SWAP1 POP DUP4 DUP2 PUSH1 0x0 ADD SWAP1 DUP1 MLOAD SWAP1 PUSH1 0x20 ADD SWAP1 PUSH2 0x7FC SWAP3 SWAP2 SWAP1 PUSH2 0xB4D JUMP JUMPDEST POP DUP3 DUP2 PUSH1 0x1 ADD DUP2 SWAP1 SSTORE POP DUP2 DUP2 PUSH1 0x2 ADD PUSH1 0x0 PUSH2 0x100 EXP DUP2 SLOAD DUP2 PUSH20 0xFFFFFFFFFFFFFFFFFFFFFFFFFFFFFFFFFFFFFFFF MUL NOT AND SWAP1 DUP4 PUSH20 0xFFFFFFFFFFFFFFFFFFFFFFFFFFFFFFFFFFFFFFFF AND MUL OR SWAP1 SSTORE POP PUSH1 0x0 DUP2 PUSH1 0x2 ADD PUSH1 0x14 PUSH2 0x100 EXP DUP2 SLOAD DUP2 PUSH1 0xFF MUL NOT AND SWAP1 DUP4 ISZERO ISZERO MUL OR SWAP1 SSTORE POP PUSH1 0x0 DUP2 PUSH1 0x3 ADD DUP2 SWAP1 SSTORE POP POP POP POP POP JUMP JUMPDEST PUSH1 0x3 SLOAD DUP2 JUMP JUMPDEST PUSH1 0x8 SLOAD CALLVALUE LT ISZERO PUSH2 0x88B JUMPI PUSH1 0x0 DUP1 REVERT JUMPDEST PUSH1 0x0 PUSH1 0x7 PUSH1 0x0 CALLER PUSH20 0xFFFFFFFFFFFFFFFFFFFFFFFFFFFFFFFFFFFFFFFF AND PUSH20 0xFFFFFFFFFFFFFFFFFFFFFFFFFFFFFFFFFFFFFFFF AND DUP2 MSTORE PUSH1 0x20 ADD SWAP1 DUP2 MSTORE PUSH1 0x20 ADD PUSH1 0x0 KECCAK256 SLOAD EQ ISZERO PUSH2 0x8EC JUMPI PUSH1 0x6 PUSH1 0x0 DUP2 SLOAD DUP1 SWAP3 SWAP2 SWAP1 PUSH2 0x8E6 SWAP1 PUSH2 0x106F JUMP JUMPDEST SWAP2 SWAP1 POP SSTORE POP JUMPDEST PUSH1 0x0 PUSH1 0x8 SLOAD CALLVALUE PUSH2 0x8FC SWAP2 SWAP1 PUSH2 0xF3F JUMP JUMPDEST SWAP1 POP DUP1 PUSH1 0x7 PUSH1 0x0 CALLER PUSH20 0xFFFFFFFFFFFFFFFFFFFFFFFFFFFFFFFFFFFFFFFF AND PUSH20 0xFFFFFFFFFFFFFFFFFFFFFFFFFFFFFFFFFFFFFFFF AND DUP2 MSTORE PUSH1 0x20 ADD SWAP1 DUP2 MSTORE PUSH1 0x20 ADD PUSH1 0x0 KECCAK256 PUSH1 0x0 DUP3 DUP3 SLOAD PUSH2 0x94D SWAP2 SWAP1 PUSH2 0xEE9 JUMP JUMPDEST SWAP3 POP POP DUP2 SWAP1 SSTORE POP DUP1 PUSH1 0x9 PUSH1 0x0 DUP3 DUP3 SLOAD PUSH2 0x966 SWAP2 SWAP1 PUSH2 0xEE9 JUMP JUMPDEST SWAP3 POP POP DUP2 SWAP1 SSTORE POP PUSH1 0x0 PUSH1 0x8 SLOAD CALLVALUE PUSH2 0x97D SWAP2 SWAP1 PUSH2 0x10B8 JUMP JUMPDEST SWAP1 POP PUSH1 0x0 DUP2 EQ PUSH2 0x9D5 JUMPI PUSH1 0x0 CALLER SWAP1 POP DUP1 PUSH20 0xFFFFFFFFFFFFFFFFFFFFFFFFFFFFFFFFFFFFFFFF AND PUSH2 0x8FC DUP4 SWAP1 DUP2 ISZERO MUL SWAP1 PUSH1 0x40 MLOAD PUSH1 0x0 PUSH1 0x40 MLOAD DUP1 DUP4 SUB DUP2 DUP6 DUP9 DUP9 CALL SWAP4 POP POP POP POP ISZERO DUP1 ISZERO PUSH2 0x9D2 JUMPI RETURNDATASIZE PUSH1 0x0 DUP1 RETURNDATACOPY RETURNDATASIZE PUSH1 0x0 REVERT JUMPDEST POP POP JUMPDEST POP POP JUMP JUMPDEST PUSH1 0x0 PUSH1 0x4 PUSH1 0x0 DUP4 DUP2 MSTORE PUSH1 0x20 ADD SWAP1 DUP2 MSTORE PUSH1 0x20 ADD PUSH1 0x0 KECCAK256 SWAP1 POP PUSH1 0x0 PUSH1 0x7 PUSH1 0x0 CALLER PUSH20 0xFFFFFFFFFFFFFFFFFFFFFFFFFFFFFFFFFFFFFFFF AND PUSH20 0xFFFFFFFFFFFFFFFFFFFFFFFFFFFFFFFFFFFFFFFF AND DUP2 MSTORE PUSH1 0x20 ADD SWAP1 DUP2 MSTORE PUSH1 0x20 ADD PUSH1 0x0 KECCAK256 SLOAD GT PUSH2 0xA3C JUMPI PUSH1 0x0 DUP1 REVERT JUMPDEST DUP1 PUSH1 0x4 ADD PUSH1 0x0 CALLER PUSH20 0xFFFFFFFFFFFFFFFFFFFFFFFFFFFFFFFFFFFFFFFF AND PUSH20 0xFFFFFFFFFFFFFFFFFFFFFFFFFFFFFFFFFFFFFFFF AND DUP2 MSTORE PUSH1 0x20 ADD SWAP1 DUP2 MSTORE PUSH1 0x20 ADD PUSH1 0x0 KECCAK256 PUSH1 0x0 SWAP1 SLOAD SWAP1 PUSH2 0x100 EXP SWAP1 DIV PUSH1 0xFF AND ISZERO PUSH2 0xA95 JUMPI PUSH1 0x0 DUP1 REVERT JUMPDEST PUSH1 0x1 DUP2 PUSH1 0x4 ADD PUSH1 0x0 CALLER PUSH20 0xFFFFFFFFFFFFFFFFFFFFFFFFFFFFFFFFFFFFFFFF AND PUSH20 0xFFFFFFFFFFFFFFFFFFFFFFFFFFFFFFFFFFFFFFFF AND DUP2 MSTORE PUSH1 0x20 ADD SWAP1 DUP2 MSTORE PUSH1 0x20 ADD PUSH1 0x0 KECCAK256 PUSH1 0x0 PUSH2 0x100 EXP DUP2 SLOAD DUP2 PUSH1 0xFF MUL NOT AND SWAP1 DUP4 ISZERO ISZERO MUL OR SWAP1 SSTORE POP PUSH1 0x7 PUSH1 0x0 CALLER PUSH20 0xFFFFFFFFFFFFFFFFFFFFFFFFFFFFFFFFFFFFFFFF AND PUSH20 0xFFFFFFFFFFFFFFFFFFFFFFFFFFFFFFFFFFFFFFFF AND DUP2 MSTORE PUSH1 0x20 ADD SWAP1 DUP2 MSTORE PUSH1 0x20 ADD PUSH1 0x0 KECCAK256 SLOAD DUP2 PUSH1 0x3 ADD PUSH1 0x0 DUP3 DUP3 SLOAD PUSH2 0xB42 SWAP2 SWAP1 PUSH2 0xEE9 JUMP JUMPDEST SWAP3 POP POP DUP2 SWAP1 SSTORE POP POP POP JUMP JUMPDEST DUP3 DUP1 SLOAD PUSH2 0xB59 SWAP1 PUSH2 0x100C JUMP JUMPDEST SWAP1 PUSH1 0x0 MSTORE PUSH1 0x20 PUSH1 0x0 KECCAK256 SWAP1 PUSH1 0x1F ADD PUSH1 0x20 SWAP1 DIV DUP2 ADD SWAP3 DUP3 PUSH2 0xB7B JUMPI PUSH1 0x0 DUP6 SSTORE PUSH2 0xBC2 JUMP JUMPDEST DUP3 PUSH1 0x1F LT PUSH2 0xB94 JUMPI DUP1 MLOAD PUSH1 0xFF NOT AND DUP4 DUP1 ADD OR DUP6 SSTORE PUSH2 0xBC2 JUMP JUMPDEST DUP3 DUP1 ADD PUSH1 0x1 ADD DUP6 SSTORE DUP3 ISZERO PUSH2 0xBC2 JUMPI SWAP2 DUP3 ADD JUMPDEST DUP3 DUP2 GT ISZERO PUSH2 0xBC1 JUMPI DUP3 MLOAD DUP3 SSTORE SWAP2 PUSH1 0x20 ADD SWAP2 SWAP1 PUSH1 0x1 ADD SWAP1 PUSH2 0xBA6 JUMP JUMPDEST JUMPDEST POP SWAP1 POP PUSH2 0xBCF SWAP2 SWAP1 PUSH2 0xBD3 JUMP JUMPDEST POP SWAP1 JUMP JUMPDEST JUMPDEST DUP1 DUP3 GT ISZERO PUSH2 0xBEC JUMPI PUSH1 0x0 DUP2 PUSH1 0x0 SWAP1 SSTORE POP PUSH1 0x1 ADD PUSH2 0xBD4 JUMP JUMPDEST POP SWAP1 JUMP JUMPDEST PUSH1 0x0 PUSH2 0xC03 PUSH2 0xBFE DUP5 PUSH2 0xE9C JUMP JUMPDEST PUSH2 0xE77 JUMP JUMPDEST SWAP1 POP DUP3 DUP2 MSTORE PUSH1 0x20 DUP2 ADD DUP5 DUP5 DUP5 ADD GT ISZERO PUSH2 0xC1B JUMPI PUSH1 0x0 DUP1 REVERT JUMPDEST PUSH2 0xC26 DUP5 DUP3 DUP6 PUSH2 0xFCA JUMP JUMPDEST POP SWAP4 SWAP3 POP POP POP JUMP JUMPDEST PUSH1 0x0 DUP2 CALLDATALOAD SWAP1 POP PUSH2 0xC3D DUP2 PUSH2 0x11B6 JUMP JUMPDEST SWAP3 SWAP2 POP POP JUMP JUMPDEST PUSH1 0x0 DUP2 CALLDATALOAD SWAP1 POP PUSH2 0xC52 DUP2 PUSH2 0x11CD JUMP JUMPDEST SWAP3 SWAP2 POP POP JUMP JUMPDEST PUSH1 0x0 DUP3 PUSH1 0x1F DUP4 ADD SLT PUSH2 0xC69 JUMPI PUSH1 0x0 DUP1 REVERT JUMPDEST DUP2 CALLDATALOAD PUSH2 0xC79 DUP5 DUP3 PUSH1 0x20 DUP7 ADD PUSH2 0xBF0 JUMP JUMPDEST SWAP2 POP POP SWAP3 SWAP2 POP POP JUMP JUMPDEST PUSH1 0x0 DUP2 CALLDATALOAD SWAP1 POP PUSH2 0xC91 DUP2 PUSH2 0x11E4 JUMP JUMPDEST SWAP3 SWAP2 POP POP JUMP JUMPDEST PUSH1 0x0 PUSH1 0x20 DUP3 DUP5 SUB SLT ISZERO PUSH2 0xCA9 JUMPI PUSH1 0x0 DUP1 REVERT JUMPDEST PUSH1 0x0 PUSH2 0xCB7 DUP5 DUP3 DUP6 ADD PUSH2 0xC2E JUMP JUMPDEST SWAP2 POP POP SWAP3 SWAP2 POP POP JUMP JUMPDEST PUSH1 0x0 DUP1 PUSH1 0x0 PUSH1 0x60 DUP5 DUP7 SUB SLT ISZERO PUSH2 0xCD5 JUMPI PUSH1 0x0 DUP1 REVERT JUMPDEST PUSH1 0x0 DUP5 ADD CALLDATALOAD PUSH8 0xFFFFFFFFFFFFFFFF DUP2 GT ISZERO PUSH2 0xCEF JUMPI PUSH1 0x0 DUP1 REVERT JUMPDEST PUSH2 0xCFB DUP7 DUP3 DUP8 ADD PUSH2 0xC58 JUMP JUMPDEST SWAP4 POP POP PUSH1 0x20 PUSH2 0xD0C DUP7 DUP3 DUP8 ADD PUSH2 0xC82 JUMP JUMPDEST SWAP3 POP POP PUSH1 0x40 PUSH2 0xD1D DUP7 DUP3 DUP8 ADD PUSH2 0xC43 JUMP JUMPDEST SWAP2 POP POP SWAP3 POP SWAP3 POP SWAP3 JUMP JUMPDEST PUSH1 0x0 PUSH1 0x20 DUP3 DUP5 SUB SLT ISZERO PUSH2 0xD39 JUMPI PUSH1 0x0 DUP1 REVERT JUMPDEST PUSH1 0x0 PUSH2 0xD47 DUP5 DUP3 DUP6 ADD PUSH2 0xC82 JUMP JUMPDEST SWAP2 POP POP SWAP3 SWAP2 POP POP JUMP JUMPDEST PUSH2 0xD59 DUP2 PUSH2 0xF82 JUMP JUMPDEST DUP3 MSTORE POP POP JUMP JUMPDEST PUSH2 0xD68 DUP2 PUSH2 0xF70 JUMP JUMPDEST DUP3 MSTORE POP POP JUMP JUMPDEST PUSH2 0xD77 DUP2 PUSH2 0xF94 JUMP JUMPDEST DUP3 MSTORE POP POP JUMP JUMPDEST PUSH1 0x0 PUSH2 0xD88 DUP3 PUSH2 0xECD JUMP JUMPDEST PUSH2 0xD92 DUP2 DUP6 PUSH2 0xED8 JUMP JUMPDEST SWAP4 POP PUSH2 0xDA2 DUP2 DUP6 PUSH1 0x20 DUP7 ADD PUSH2 0xFD9 JUMP JUMPDEST PUSH2 0xDAB DUP2 PUSH2 0x11A5 JUMP JUMPDEST DUP5 ADD SWAP2 POP POP SWAP3 SWAP2 POP POP JUMP JUMPDEST PUSH2 0xDBF DUP2 PUSH2 0xFC0 JUMP JUMPDEST DUP3 MSTORE POP POP JUMP JUMPDEST PUSH1 0x0 PUSH1 0x20 DUP3 ADD SWAP1 POP PUSH2 0xDDA PUSH1 0x0 DUP4 ADD DUP5 PUSH2 0xD5F JUMP JUMPDEST SWAP3 SWAP2 POP POP JUMP JUMPDEST PUSH1 0x0 PUSH1 0x20 DUP3 ADD SWAP1 POP DUP2 DUP2 SUB PUSH1 0x0 DUP4 ADD MSTORE PUSH2 0xDFA DUP2 DUP5 PUSH2 0xD7D JUMP JUMPDEST SWAP1 POP SWAP3 SWAP2 POP POP JUMP JUMPDEST PUSH1 0x0 PUSH1 0xA0 DUP3 ADD SWAP1 POP DUP2 DUP2 SUB PUSH1 0x0 DUP4 ADD MSTORE PUSH2 0xE1C DUP2 DUP9 PUSH2 0xD7D JUMP JUMPDEST SWAP1 POP PUSH2 0xE2B PUSH1 0x20 DUP4 ADD DUP8 PUSH2 0xDB6 JUMP JUMPDEST PUSH2 0xE38 PUSH1 0x40 DUP4 ADD DUP7 PUSH2 0xD50 JUMP JUMPDEST PUSH2 0xE45 PUSH1 0x60 DUP4 ADD DUP6 PUSH2 0xD6E JUMP JUMPDEST PUSH2 0xE52 PUSH1 0x80 DUP4 ADD DUP5 PUSH2 0xDB6 JUMP JUMPDEST SWAP7 SWAP6 POP POP POP POP POP POP JUMP JUMPDEST PUSH1 0x0 PUSH1 0x20 DUP3 ADD SWAP1 POP PUSH2 0xE71 PUSH1 0x0 DUP4 ADD DUP5 PUSH2 0xDB6 JUMP JUMPDEST SWAP3 SWAP2 POP POP JUMP JUMPDEST PUSH1 0x0 PUSH2 0xE81 PUSH2 0xE92 JUMP JUMPDEST SWAP1 POP PUSH2 0xE8D DUP3 DUP3 PUSH2 0x103E JUMP JUMPDEST SWAP2 SWAP1 POP JUMP JUMPDEST PUSH1 0x0 PUSH1 0x40 MLOAD SWAP1 POP SWAP1 JUMP JUMPDEST PUSH1 0x0 PUSH8 0xFFFFFFFFFFFFFFFF DUP3 GT ISZERO PUSH2 0xEB7 JUMPI PUSH2 0xEB6 PUSH2 0x1176 JUMP JUMPDEST JUMPDEST PUSH2 0xEC0 DUP3 PUSH2 0x11A5 JUMP JUMPDEST SWAP1 POP PUSH1 0x20 DUP2 ADD SWAP1 POP SWAP2 SWAP1 POP JUMP JUMPDEST PUSH1 0x0 DUP2 MLOAD SWAP1 POP SWAP2 SWAP1 POP JUMP JUMPDEST PUSH1 0x0 DUP3 DUP3 MSTORE PUSH1 0x20 DUP3 ADD SWAP1 POP SWAP3 SWAP2 POP POP JUMP JUMPDEST PUSH1 0x0 PUSH2 0xEF4 DUP3 PUSH2 0xFC0 JUMP JUMPDEST SWAP2 POP PUSH2 0xEFF DUP4 PUSH2 0xFC0 JUMP JUMPDEST SWAP3 POP DUP3 PUSH32 0xFFFFFFFFFFFFFFFFFFFFFFFFFFFFFFFFFFFFFFFFFFFFFFFFFFFFFFFFFFFFFFFF SUB DUP3 GT ISZERO PUSH2 0xF34 JUMPI PUSH2 0xF33 PUSH2 0x10E9 JUMP JUMPDEST JUMPDEST DUP3 DUP3 ADD SWAP1 POP SWAP3 SWAP2 POP POP JUMP JUMPDEST PUSH1 0x0 PUSH2 0xF4A DUP3 PUSH2 0xFC0 JUMP JUMPDEST SWAP2 POP PUSH2 0xF55 DUP4 PUSH2 0xFC0 JUMP JUMPDEST SWAP3 POP DUP3 PUSH2 0xF65 JUMPI PUSH2 0xF64 PUSH2 0x1118 JUMP JUMPDEST JUMPDEST DUP3 DUP3 DIV SWAP1 POP SWAP3 SWAP2 POP POP JUMP JUMPDEST PUSH1 0x0 PUSH2 0xF7B DUP3 PUSH2 0xFA0 JUMP JUMPDEST SWAP1 POP SWAP2 SWAP1 POP JUMP JUMPDEST PUSH1 0x0 PUSH2 0xF8D DUP3 PUSH2 0xFA0 JUMP JUMPDEST SWAP1 POP SWAP2 SWAP1 POP JUMP JUMPDEST PUSH1 0x0 DUP2 ISZERO ISZERO SWAP1 POP SWAP2 SWAP1 POP JUMP JUMPDEST PUSH1 0x0 PUSH20 0xFFFFFFFFFFFFFFFFFFFFFFFFFFFFFFFFFFFFFFFF DUP3 AND SWAP1 POP SWAP2 SWAP1 POP JUMP JUMPDEST PUSH1 0x0 DUP2 SWAP1 POP SWAP2 SWAP1 POP JUMP JUMPDEST DUP3 DUP2 DUP4 CALLDATACOPY PUSH1 0x0 DUP4 DUP4 ADD MSTORE POP POP POP JUMP JUMPDEST PUSH1 0x0 JUMPDEST DUP4 DUP2 LT ISZERO PUSH2 0xFF7 JUMPI DUP1 DUP3 ADD MLOAD DUP2 DUP5 ADD MSTORE PUSH1 0x20 DUP2 ADD SWAP1 POP PUSH2 0xFDC JUMP JUMPDEST DUP4 DUP2 GT ISZERO PUSH2 0x1006 JUMPI PUSH1 0x0 DUP5 DUP5 ADD MSTORE JUMPDEST POP POP POP POP JUMP JUMPDEST PUSH1 0x0 PUSH1 0x2 DUP3 DIV SWAP1 POP PUSH1 0x1 DUP3 AND DUP1 PUSH2 0x1024 JUMPI PUSH1 0x7F DUP3 AND SWAP2 POP JUMPDEST PUSH1 0x20 DUP3 LT DUP2 EQ ISZERO PUSH2 0x1038 JUMPI PUSH2 0x1037 PUSH2 0x1147 JUMP JUMPDEST JUMPDEST POP SWAP2 SWAP1 POP JUMP JUMPDEST PUSH2 0x1047 DUP3 PUSH2 0x11A5 JUMP JUMPDEST DUP2 ADD DUP2 DUP2 LT PUSH8 0xFFFFFFFFFFFFFFFF DUP3 GT OR ISZERO PUSH2 0x1066 JUMPI PUSH2 0x1065 PUSH2 0x1176 JUMP JUMPDEST JUMPDEST DUP1 PUSH1 0x40 MSTORE POP POP POP JUMP JUMPDEST PUSH1 0x0 PUSH2 0x107A DUP3 PUSH2 0xFC0 JUMP JUMPDEST SWAP2 POP PUSH32 0xFFFFFFFFFFFFFFFFFFFFFFFFFFFFFFFFFFFFFFFFFFFFFFFFFFFFFFFFFFFFFFFF DUP3 EQ ISZERO PUSH2 0x10AD JUMPI PUSH2 0x10AC PUSH2 0x10E9 JUMP JUMPDEST JUMPDEST PUSH1 0x1 DUP3 ADD SWAP1 POP SWAP2 SWAP1 POP JUMP JUMPDEST PUSH1 0x0 PUSH2 0x10C3 DUP3 PUSH2 0xFC0 JUMP JUMPDEST SWAP2 POP PUSH2 0x10CE DUP4 PUSH2 0xFC0 JUMP JUMPDEST SWAP3 POP DUP3 PUSH2 0x10DE JUMPI PUSH2 0x10DD PUSH2 0x1118 JUMP JUMPDEST JUMPDEST DUP3 DUP3 MOD SWAP1 POP SWAP3 SWAP2 POP POP JUMP JUMPDEST PUSH32 0x4E487B7100000000000000000000000000000000000000000000000000000000 PUSH1 0x0 MSTORE PUSH1 0x11 PUSH1 0x4 MSTORE PUSH1 0x24 PUSH1 0x0 REVERT JUMPDEST PUSH32 0x4E487B7100000000000000000000000000000000000000000000000000000000 PUSH1 0x0 MSTORE PUSH1 0x12 PUSH1 0x4 MSTORE PUSH1 0x24 PUSH1 0x0 REVERT JUMPDEST PUSH32 0x4E487B7100000000000000000000000000000000000000000000000000000000 PUSH1 0x0 MSTORE PUSH1 0x22 PUSH1 0x4 MSTORE PUSH1 0x24 PUSH1 0x0 REVERT JUMPDEST PUSH32 0x4E487B7100000000000000000000000000000000000000000000000000000000 PUSH1 0x0 MSTORE PUSH1 0x41 PUSH1 0x4 MSTORE PUSH1 0x24 PUSH1 0x0 REVERT JUMPDEST PUSH1 0x0 PUSH1 0x1F NOT PUSH1 0x1F DUP4 ADD AND SWAP1 POP SWAP2 SWAP1 POP JUMP JUMPDEST PUSH2 0x11BF DUP2 PUSH2 0xF70 JUMP JUMPDEST DUP2 EQ PUSH2 0x11CA JUMPI PUSH1 0x0 DUP1 REVERT JUMPDEST POP JUMP JUMPDEST PUSH2 0x11D6 DUP2 PUSH2 0xF82 JUMP JUMPDEST DUP2 EQ PUSH2 0x11E1 JUMPI PUSH1 0x0 DUP1 REVERT JUMPDEST POP JUMP JUMPDEST PUSH2 0x11ED DUP2 PUSH2 0xFC0 JUMP JUMPDEST DUP2 EQ PUSH2 0x11F8 JUMPI PUSH1 0x0 DUP1 REVERT JUMPDEST POP JUMP INVALID LOG2 PUSH5 0x6970667358 0x22 SLT KECCAK256 0xB9 MUL 0xBE AND SELFBALANCE CALLVALUE 0xEE PUSH30 0x6C0C8441C7D6C9AEBAD22E9AB05667181E30E5A11F1467AA64736F6C6343 STOP ADDMOD SUB STOP CALLER LOG2 PUSH5 0x6970667358 0x22 SLT KECCAK256 0xDA DUP10 0xFC 0xD3 0xC6 SWAP6 0xCB 0xB0 0xAE SMOD 0x1E INVALID BLOCKHASH 0xD7 0xC8 0xB7 PUSH31 0x14FDF8E7C2E859F45AE527C7738FD364736F6C634300080300330000000000 "},"gasEstimates":{"creation":{"codeDepositCost":"1571600","executionCost":"1645","totalCost":"1573245"},"external":{"createIdea(uint256,string,string,string)":"infinite","deployedIdeas(uint256)":"2421","getDeployedIdeas()":"infinite"}},"methodIdentifiers":{"createIdea(uint256,string,string,string)":"702107a2","deployedIdeas(uint256)":"f739bf4d","getDeployedIdeas()":"e4293559"}},"storageLayout":{"storage":[{"astId":5,"contract":"Idea.sol:IdeaFactory","label":"deployedIdeas","offset":0,"slot":"0","type":"t_array(t_contract(Idea)345)dyn_storage"}],"types":{"t_array(t_contract(Idea)345)dyn_storage":{"base":"t_contract(Idea)345","encoding":"dynamic_array","label":"contract Idea[]","numberOfBytes":"32"},"t_contract(Idea)345":{"encoding":"inplace","label":"contract Idea","numberOfBytes":"20"}}},"userdoc":{"kind":"user","methods":{},"version":1}}