{"abi":[{"inputs":[{"internalType":"uint256","name":"minimum","type":"uint256"},{"internalType":"uint256","name":"reachGoal","type":"uint256"},{"internalType":"string","name":"name","type":"string"},{"internalType":"string","name":"shortDescription","type":"string"},{"internalType":"string","name":"description","type":"string"},{"internalType":"string","name":"imageURL","type":"string"}],"name":"createIdea","outputs":[],"stateMutability":"nonpayable","type":"function"},{"inputs":[{"internalType":"uint256","name":"","type":"uint256"}],"name":"deployedIdeas","outputs":[{"internalType":"contract Idea","name":"","type":"address"}],"stateMutability":"view","type":"function"},{"inputs":[],"name":"getDeployedIdeas","outputs":[{"internalType":"contract Idea[]","name":"","type":"address[]"}],"stateMutability":"view","type":"function"}],"devdoc":{"kind":"dev","methods":{},"version":1},"evm":{"assembly":"    /* \"Idea.sol\":25:510  contract IdeaFactory {... */\n  mstore(0x40, 0x80)\n  callvalue\n  dup1\n  iszero\n  tag_1\n  jumpi\n  0x00\n  dup1\n  revert\ntag_1:\n  pop\n  dataSize(sub_0)\n  dup1\n  dataOffset(sub_0)\n  0x00\n  codecopy\n  0x00\n  return\nstop\n\nsub_0: assembly {\n        /* \"Idea.sol\":25:510  contract IdeaFactory {... */\n      mstore(0x40, 0x80)\n      callvalue\n      dup1\n      iszero\n      tag_1\n      jumpi\n      0x00\n      dup1\n      revert\n    tag_1:\n      pop\n      jumpi(tag_2, lt(calldatasize, 0x04))\n      shr(0xe0, calldataload(0x00))\n      dup1\n      0x0c955d69\n      eq\n      tag_3\n      jumpi\n      dup1\n      0xe4293559\n      eq\n      tag_4\n      jumpi\n      dup1\n      0xf739bf4d\n      eq\n      tag_5\n      jumpi\n    tag_2:\n      0x00\n      dup1\n      revert\n        /* \"Idea.sol\":86:401  function createIdea(uint minimum, uint reachGoal, string memory name, string memory shortDescription, string memory description, string memory imageURL) public {... */\n    tag_3:\n      tag_6\n      0x04\n      dup1\n      calldatasize\n      sub\n      dup2\n      add\n      swap1\n      tag_7\n      swap2\n      swap1\n      tag_8\n      jump\t// in\n    tag_7:\n      tag_9\n      jump\t// in\n    tag_6:\n      stop\n        /* \"Idea.sol\":407:508  function getDeployedIdeas() public view returns (Idea[] memory) {... */\n    tag_4:\n      tag_10\n      tag_11\n      jump\t// in\n    tag_10:\n      mload(0x40)\n      tag_12\n      swap2\n      swap1\n      tag_13\n      jump\t// in\n    tag_12:\n      mload(0x40)\n      dup1\n      swap2\n      sub\n      swap1\n      return\n        /* \"Idea.sol\":52:79  Idea[] public deployedIdeas */\n    tag_5:\n      tag_14\n      0x04\n      dup1\n      calldatasize\n      sub\n      dup2\n      add\n      swap1\n      tag_15\n      swap2\n      swap1\n      tag_16\n      jump\t// in\n    tag_15:\n      tag_17\n      jump\t// in\n    tag_14:\n      mload(0x40)\n      tag_18\n      swap2\n      swap1\n      tag_19\n      jump\t// in\n    tag_18:\n      mload(0x40)\n      dup1\n      swap2\n      sub\n      swap1\n      return\n        /* \"Idea.sol\":86:401  function createIdea(uint minimum, uint reachGoal, string memory name, string memory shortDescription, string memory description, string memory imageURL) public {... */\n    tag_9:\n        /* \"Idea.sol\":256:268  Idea newIdea */\n      0x00\n        /* \"Idea.sol\":280:287  minimum */\n      dup7\n        /* \"Idea.sol\":289:298  reachGoal */\n      dup7\n        /* \"Idea.sol\":300:304  name */\n      dup7\n        /* \"Idea.sol\":306:322  shortDescription */\n      dup7\n        /* \"Idea.sol\":324:335  description */\n      dup7\n        /* \"Idea.sol\":336:344  imageURL */\n      dup7\n        /* \"Idea.sol\":346:356  msg.sender */\n      caller\n        /* \"Idea.sol\":271:357  new Idea(minimum, reachGoal, name, shortDescription, description,imageURL, msg.sender) */\n      mload(0x40)\n      tag_21\n      swap1\n      tag_22\n      jump\t// in\n    tag_21:\n      tag_23\n      swap8\n      swap7\n      swap6\n      swap5\n      swap4\n      swap3\n      swap2\n      swap1\n      tag_24\n      jump\t// in\n    tag_23:\n      mload(0x40)\n      dup1\n      swap2\n      sub\n      swap1\n      0x00\n      create\n      dup1\n      iszero\n      dup1\n      iszero\n      tag_25\n      jumpi\n      returndatasize\n      0x00\n      dup1\n      returndatacopy\n      revert(0x00, returndatasize)\n    tag_25:\n      pop\n        /* \"Idea.sol\":256:357  Idea newIdea = new Idea(minimum, reachGoal, name, shortDescription, description,imageURL, msg.sender) */\n      swap1\n      pop\n        /* \"Idea.sol\":367:380  deployedIdeas */\n      0x00\n        /* \"Idea.sol\":386:393  newIdea */\n      dup2\n        /* \"Idea.sol\":367:394  deployedIdeas.push(newIdea) */\n      swap1\n      dup1\n      0x01\n      dup2\n      sload\n      add\n      dup1\n      dup3\n      sstore\n      dup1\n      swap2\n      pop\n      pop\n      0x01\n      swap1\n      sub\n      swap1\n      0x00\n      mstore\n      keccak256(0x00, 0x20)\n      add\n      0x00\n      swap1\n      swap2\n      swap1\n      swap2\n      swap1\n      swap2\n      0x0100\n      exp\n      dup2\n      sload\n      dup2\n      0xffffffffffffffffffffffffffffffffffffffff\n      mul\n      not\n      and\n      swap1\n      dup4\n      0xffffffffffffffffffffffffffffffffffffffff\n      and\n      mul\n      or\n      swap1\n      sstore\n      pop\n        /* \"Idea.sol\":86:401  function createIdea(uint minimum, uint reachGoal, string memory name, string memory shortDescription, string memory description, string memory imageURL) public {... */\n      pop\n      pop\n      pop\n      pop\n      pop\n      pop\n      pop\n      jump\t// out\n        /* \"Idea.sol\":407:508  function getDeployedIdeas() public view returns (Idea[] memory) {... */\n    tag_11:\n        /* \"Idea.sol\":456:469  Idea[] memory */\n      0x60\n        /* \"Idea.sol\":488:501  deployedIdeas */\n      0x00\n        /* \"Idea.sol\":481:501  return deployedIdeas */\n      dup1\n      sload\n      dup1\n      0x20\n      mul\n      0x20\n      add\n      mload(0x40)\n      swap1\n      dup2\n      add\n      0x40\n      mstore\n      dup1\n      swap3\n      swap2\n      swap1\n      dup2\n      dup2\n      mstore\n      0x20\n      add\n      dup3\n      dup1\n      sload\n      dup1\n      iszero\n      tag_28\n      jumpi\n      0x20\n      mul\n      dup3\n      add\n      swap2\n      swap1\n      0x00\n      mstore\n      keccak256(0x00, 0x20)\n      swap1\n    tag_29:\n      dup2\n      0x00\n      swap1\n      sload\n      swap1\n      0x0100\n      exp\n      swap1\n      div\n      0xffffffffffffffffffffffffffffffffffffffff\n      and\n      0xffffffffffffffffffffffffffffffffffffffff\n      and\n      dup2\n      mstore\n      0x20\n      add\n      swap1\n      0x01\n      add\n      swap1\n      dup1\n      dup4\n      gt\n      tag_29\n      jumpi\n    tag_28:\n      pop\n      pop\n      pop\n      pop\n      pop\n      swap1\n      pop\n        /* \"Idea.sol\":407:508  function getDeployedIdeas() public view returns (Idea[] memory) {... */\n      swap1\n      jump\t// out\n        /* \"Idea.sol\":52:79  Idea[] public deployedIdeas */\n    tag_17:\n      0x00\n      dup2\n      dup2\n      sload\n      dup2\n      lt\n      tag_30\n      jumpi\n      0x00\n      dup1\n      revert\n    tag_30:\n      swap1\n      0x00\n      mstore\n      keccak256(0x00, 0x20)\n      add\n      0x00\n      swap2\n      pop\n      sload\n      swap1\n      0x0100\n      exp\n      swap1\n      div\n      0xffffffffffffffffffffffffffffffffffffffff\n      and\n      dup2\n      jump\t// out\n    tag_22:\n      dataSize(sub_0)\n      dup1\n      dataOffset(sub_0)\n      dup4\n      codecopy\n      add\n      swap1\n      jump\t// out\n        /* \"#utility.yul\":7:352   */\n    tag_33:\n      0x00\n        /* \"#utility.yul\":110:176   */\n      tag_35\n        /* \"#utility.yul\":126:175   */\n      tag_36\n        /* \"#utility.yul\":168:174   */\n      dup5\n        /* \"#utility.yul\":126:175   */\n      tag_37\n      jump\t// in\n    tag_36:\n        /* \"#utility.yul\":110:176   */\n      tag_38\n      jump\t// in\n    tag_35:\n        /* \"#utility.yul\":101:176   */\n      swap1\n      pop\n        /* \"#utility.yul\":199:205   */\n      dup3\n        /* \"#utility.yul\":192:197   */\n      dup2\n        /* \"#utility.yul\":185:206   */\n      mstore\n        /* \"#utility.yul\":237:241   */\n      0x20\n        /* \"#utility.yul\":230:235   */\n      dup2\n        /* \"#utility.yul\":226:242   */\n      add\n        /* \"#utility.yul\":275:278   */\n      dup5\n        /* \"#utility.yul\":266:272   */\n      dup5\n        /* \"#utility.yul\":261:264   */\n      dup5\n        /* \"#utility.yul\":257:273   */\n      add\n        /* \"#utility.yul\":254:279   */\n      gt\n        /* \"#utility.yul\":251:253   */\n      iszero\n      tag_39\n      jumpi\n        /* \"#utility.yul\":292:293   */\n      0x00\n        /* \"#utility.yul\":289:290   */\n      dup1\n        /* \"#utility.yul\":282:294   */\n      revert\n        /* \"#utility.yul\":251:253   */\n    tag_39:\n        /* \"#utility.yul\":305:346   */\n      tag_40\n        /* \"#utility.yul\":339:345   */\n      dup5\n        /* \"#utility.yul\":334:337   */\n      dup3\n        /* \"#utility.yul\":329:332   */\n      dup6\n        /* \"#utility.yul\":305:346   */\n      tag_41\n      jump\t// in\n    tag_40:\n        /* \"#utility.yul\":91:352   */\n      pop\n      swap4\n      swap3\n      pop\n      pop\n      pop\n      jump\t// out\n        /* \"#utility.yul\":372:645   */\n    tag_42:\n      0x00\n        /* \"#utility.yul\":477:480   */\n      dup3\n        /* \"#utility.yul\":470:474   */\n      0x1f\n        /* \"#utility.yul\":462:468   */\n      dup4\n        /* \"#utility.yul\":458:475   */\n      add\n        /* \"#utility.yul\":454:481   */\n      slt\n        /* \"#utility.yul\":444:446   */\n      tag_44\n      jumpi\n        /* \"#utility.yul\":495:496   */\n      0x00\n        /* \"#utility.yul\":492:493   */\n      dup1\n        /* \"#utility.yul\":485:497   */\n      revert\n        /* \"#utility.yul\":444:446   */\n    tag_44:\n        /* \"#utility.yul\":535:541   */\n      dup2\n        /* \"#utility.yul\":522:542   */\n      calldataload\n        /* \"#utility.yul\":560:639   */\n      tag_45\n        /* \"#utility.yul\":635:638   */\n      dup5\n        /* \"#utility.yul\":627:633   */\n      dup3\n        /* \"#utility.yul\":620:624   */\n      0x20\n        /* \"#utility.yul\":612:618   */\n      dup7\n        /* \"#utility.yul\":608:625   */\n      add\n        /* \"#utility.yul\":560:639   */\n      tag_33\n      jump\t// in\n    tag_45:\n        /* \"#utility.yul\":551:639   */\n      swap2\n      pop\n        /* \"#utility.yul\":434:645   */\n      pop\n      swap3\n      swap2\n      pop\n      pop\n      jump\t// out\n        /* \"#utility.yul\":651:790   */\n    tag_46:\n      0x00\n        /* \"#utility.yul\":735:741   */\n      dup2\n        /* \"#utility.yul\":722:742   */\n      calldataload\n        /* \"#utility.yul\":713:742   */\n      swap1\n      pop\n        /* \"#utility.yul\":751:784   */\n      tag_48\n        /* \"#utility.yul\":778:783   */\n      dup2\n        /* \"#utility.yul\":751:784   */\n      tag_49\n      jump\t// in\n    tag_48:\n        /* \"#utility.yul\":703:790   */\n      swap3\n      swap2\n      pop\n      pop\n      jump\t// out\n        /* \"#utility.yul\":796:1058   */\n    tag_16:\n      0x00\n        /* \"#utility.yul\":904:906   */\n      0x20\n        /* \"#utility.yul\":892:901   */\n      dup3\n        /* \"#utility.yul\":883:890   */\n      dup5\n        /* \"#utility.yul\":879:902   */\n      sub\n        /* \"#utility.yul\":875:907   */\n      slt\n        /* \"#utility.yul\":872:874   */\n      iszero\n      tag_51\n      jumpi\n        /* \"#utility.yul\":920:921   */\n      0x00\n        /* \"#utility.yul\":917:918   */\n      dup1\n        /* \"#utility.yul\":910:922   */\n      revert\n        /* \"#utility.yul\":872:874   */\n    tag_51:\n        /* \"#utility.yul\":963:964   */\n      0x00\n        /* \"#utility.yul\":988:1041   */\n      tag_52\n        /* \"#utility.yul\":1033:1040   */\n      dup5\n        /* \"#utility.yul\":1024:1030   */\n      dup3\n        /* \"#utility.yul\":1013:1022   */\n      dup6\n        /* \"#utility.yul\":1009:1031   */\n      add\n        /* \"#utility.yul\":988:1041   */\n      tag_46\n      jump\t// in\n    tag_52:\n        /* \"#utility.yul\":978:1041   */\n      swap2\n      pop\n        /* \"#utility.yul\":934:1051   */\n      pop\n        /* \"#utility.yul\":862:1058   */\n      swap3\n      swap2\n      pop\n      pop\n      jump\t// out\n        /* \"#utility.yul\":1064:2506   */\n    tag_8:\n      0x00\n      dup1\n      0x00\n      dup1\n      0x00\n      dup1\n        /* \"#utility.yul\":1297:1300   */\n      0xc0\n        /* \"#utility.yul\":1285:1294   */\n      dup8\n        /* \"#utility.yul\":1276:1283   */\n      dup10\n        /* \"#utility.yul\":1272:1295   */\n      sub\n        /* \"#utility.yul\":1268:1301   */\n      slt\n        /* \"#utility.yul\":1265:1267   */\n      iszero\n      tag_54\n      jumpi\n        /* \"#utility.yul\":1314:1315   */\n      0x00\n        /* \"#utility.yul\":1311:1312   */\n      dup1\n        /* \"#utility.yul\":1304:1316   */\n      revert\n        /* \"#utility.yul\":1265:1267   */\n    tag_54:\n        /* \"#utility.yul\":1357:1358   */\n      0x00\n        /* \"#utility.yul\":1382:1435   */\n      tag_55\n        /* \"#utility.yul\":1427:1434   */\n      dup10\n        /* \"#utility.yul\":1418:1424   */\n      dup3\n        /* \"#utility.yul\":1407:1416   */\n      dup11\n        /* \"#utility.yul\":1403:1425   */\n      add\n        /* \"#utility.yul\":1382:1435   */\n      tag_46\n      jump\t// in\n    tag_55:\n        /* \"#utility.yul\":1372:1435   */\n      swap7\n      pop\n        /* \"#utility.yul\":1328:1445   */\n      pop\n        /* \"#utility.yul\":1484:1486   */\n      0x20\n        /* \"#utility.yul\":1510:1563   */\n      tag_56\n        /* \"#utility.yul\":1555:1562   */\n      dup10\n        /* \"#utility.yul\":1546:1552   */\n      dup3\n        /* \"#utility.yul\":1535:1544   */\n      dup11\n        /* \"#utility.yul\":1531:1553   */\n      add\n        /* \"#utility.yul\":1510:1563   */\n      tag_46\n      jump\t// in\n    tag_56:\n        /* \"#utility.yul\":1500:1563   */\n      swap6\n      pop\n        /* \"#utility.yul\":1455:1573   */\n      pop\n        /* \"#utility.yul\":1640:1642   */\n      0x40\n        /* \"#utility.yul\":1629:1638   */\n      dup8\n        /* \"#utility.yul\":1625:1643   */\n      add\n        /* \"#utility.yul\":1612:1644   */\n      calldataload\n        /* \"#utility.yul\":1671:1689   */\n      0xffffffffffffffff\n        /* \"#utility.yul\":1663:1669   */\n      dup2\n        /* \"#utility.yul\":1660:1690   */\n      gt\n        /* \"#utility.yul\":1657:1659   */\n      iszero\n      tag_57\n      jumpi\n        /* \"#utility.yul\":1703:1704   */\n      0x00\n        /* \"#utility.yul\":1700:1701   */\n      dup1\n        /* \"#utility.yul\":1693:1705   */\n      revert\n        /* \"#utility.yul\":1657:1659   */\n    tag_57:\n        /* \"#utility.yul\":1731:1794   */\n      tag_58\n        /* \"#utility.yul\":1786:1793   */\n      dup10\n        /* \"#utility.yul\":1777:1783   */\n      dup3\n        /* \"#utility.yul\":1766:1775   */\n      dup11\n        /* \"#utility.yul\":1762:1784   */\n      add\n        /* \"#utility.yul\":1731:1794   */\n      tag_42\n      jump\t// in\n    tag_58:\n        /* \"#utility.yul\":1721:1794   */\n      swap5\n      pop\n        /* \"#utility.yul\":1583:1804   */\n      pop\n        /* \"#utility.yul\":1871:1873   */\n      0x60\n        /* \"#utility.yul\":1860:1869   */\n      dup8\n        /* \"#utility.yul\":1856:1874   */\n      add\n        /* \"#utility.yul\":1843:1875   */\n      calldataload\n        /* \"#utility.yul\":1902:1920   */\n      0xffffffffffffffff\n        /* \"#utility.yul\":1894:1900   */\n      dup2\n        /* \"#utility.yul\":1891:1921   */\n      gt\n        /* \"#utility.yul\":1888:1890   */\n      iszero\n      tag_59\n      jumpi\n        /* \"#utility.yul\":1934:1935   */\n      0x00\n        /* \"#utility.yul\":1931:1932   */\n      dup1\n        /* \"#utility.yul\":1924:1936   */\n      revert\n        /* \"#utility.yul\":1888:1890   */\n    tag_59:\n        /* \"#utility.yul\":1962:2025   */\n      tag_60\n        /* \"#utility.yul\":2017:2024   */\n      dup10\n        /* \"#utility.yul\":2008:2014   */\n      dup3\n        /* \"#utility.yul\":1997:2006   */\n      dup11\n        /* \"#utility.yul\":1993:2015   */\n      add\n        /* \"#utility.yul\":1962:2025   */\n      tag_42\n      jump\t// in\n    tag_60:\n        /* \"#utility.yul\":1952:2025   */\n      swap4\n      pop\n        /* \"#utility.yul\":1814:2035   */\n      pop\n        /* \"#utility.yul\":2102:2105   */\n      0x80\n        /* \"#utility.yul\":2091:2100   */\n      dup8\n        /* \"#utility.yul\":2087:2106   */\n      add\n        /* \"#utility.yul\":2074:2107   */\n      calldataload\n        /* \"#utility.yul\":2134:2152   */\n      0xffffffffffffffff\n        /* \"#utility.yul\":2126:2132   */\n      dup2\n        /* \"#utility.yul\":2123:2153   */\n      gt\n        /* \"#utility.yul\":2120:2122   */\n      iszero\n      tag_61\n      jumpi\n        /* \"#utility.yul\":2166:2167   */\n      0x00\n        /* \"#utility.yul\":2163:2164   */\n      dup1\n        /* \"#utility.yul\":2156:2168   */\n      revert\n        /* \"#utility.yul\":2120:2122   */\n    tag_61:\n        /* \"#utility.yul\":2194:2257   */\n      tag_62\n        /* \"#utility.yul\":2249:2256   */\n      dup10\n        /* \"#utility.yul\":2240:2246   */\n      dup3\n        /* \"#utility.yul\":2229:2238   */\n      dup11\n        /* \"#utility.yul\":2225:2247   */\n      add\n        /* \"#utility.yul\":2194:2257   */\n      tag_42\n      jump\t// in\n    tag_62:\n        /* \"#utility.yul\":2184:2257   */\n      swap3\n      pop\n        /* \"#utility.yul\":2045:2267   */\n      pop\n        /* \"#utility.yul\":2334:2337   */\n      0xa0\n        /* \"#utility.yul\":2323:2332   */\n      dup8\n        /* \"#utility.yul\":2319:2338   */\n      add\n        /* \"#utility.yul\":2306:2339   */\n      calldataload\n        /* \"#utility.yul\":2366:2384   */\n      0xffffffffffffffff\n        /* \"#utility.yul\":2358:2364   */\n      dup2\n        /* \"#utility.yul\":2355:2385   */\n      gt\n        /* \"#utility.yul\":2352:2354   */\n      iszero\n      tag_63\n      jumpi\n        /* \"#utility.yul\":2398:2399   */\n      0x00\n        /* \"#utility.yul\":2395:2396   */\n      dup1\n        /* \"#utility.yul\":2388:2400   */\n      revert\n        /* \"#utility.yul\":2352:2354   */\n    tag_63:\n        /* \"#utility.yul\":2426:2489   */\n      tag_64\n        /* \"#utility.yul\":2481:2488   */\n      dup10\n        /* \"#utility.yul\":2472:2478   */\n      dup3\n        /* \"#utility.yul\":2461:2470   */\n      dup11\n        /* \"#utility.yul\":2457:2479   */\n      add\n        /* \"#utility.yul\":2426:2489   */\n      tag_42\n      jump\t// in\n    tag_64:\n        /* \"#utility.yul\":2416:2489   */\n      swap2\n      pop\n        /* \"#utility.yul\":2277:2499   */\n      pop\n        /* \"#utility.yul\":1255:2506   */\n      swap3\n      swap6\n      pop\n      swap3\n      swap6\n      pop\n      swap3\n      swap6\n      jump\t// out\n        /* \"#utility.yul\":2512:2715   */\n    tag_65:\n      0x00\n        /* \"#utility.yul\":2614:2672   */\n      tag_67\n        /* \"#utility.yul\":2668:2671   */\n      dup4\n        /* \"#utility.yul\":2660:2666   */\n      dup4\n        /* \"#utility.yul\":2614:2672   */\n      tag_68\n      jump\t// in\n    tag_67:\n        /* \"#utility.yul\":2704:2708   */\n      0x20\n        /* \"#utility.yul\":2699:2702   */\n      dup4\n        /* \"#utility.yul\":2695:2709   */\n      add\n        /* \"#utility.yul\":2681:2709   */\n      swap1\n      pop\n        /* \"#utility.yul\":2604:2715   */\n      swap3\n      swap2\n      pop\n      pop\n      jump\t// out\n        /* \"#utility.yul\":2721:2839   */\n    tag_69:\n        /* \"#utility.yul\":2808:2832   */\n      tag_71\n        /* \"#utility.yul\":2826:2831   */\n      dup2\n        /* \"#utility.yul\":2808:2832   */\n      tag_72\n      jump\t// in\n    tag_71:\n        /* \"#utility.yul\":2803:2806   */\n      dup3\n        /* \"#utility.yul\":2796:2833   */\n      mstore\n        /* \"#utility.yul\":2786:2839   */\n      pop\n      pop\n      jump\t// out\n        /* \"#utility.yul\":2881:3673   */\n    tag_73:\n      0x00\n        /* \"#utility.yul\":3041:3107   */\n      tag_75\n        /* \"#utility.yul\":3101:3106   */\n      dup3\n        /* \"#utility.yul\":3041:3107   */\n      tag_76\n      jump\t// in\n    tag_75:\n        /* \"#utility.yul\":3123:3209   */\n      tag_77\n        /* \"#utility.yul\":3202:3208   */\n      dup2\n        /* \"#utility.yul\":3197:3200   */\n      dup6\n        /* \"#utility.yul\":3123:3209   */\n      tag_78\n      jump\t// in\n    tag_77:\n        /* \"#utility.yul\":3116:3209   */\n      swap4\n      pop\n        /* \"#utility.yul\":3233:3301   */\n      tag_79\n        /* \"#utility.yul\":3295:3300   */\n      dup4\n        /* \"#utility.yul\":3233:3301   */\n      tag_80\n      jump\t// in\n    tag_79:\n        /* \"#utility.yul\":3324:3331   */\n      dup1\n        /* \"#utility.yul\":3355:3356   */\n      0x00\n        /* \"#utility.yul\":3340:3648   */\n    tag_81:\n        /* \"#utility.yul\":3365:3371   */\n      dup4\n        /* \"#utility.yul\":3362:3363   */\n      dup2\n        /* \"#utility.yul\":3359:3372   */\n      lt\n        /* \"#utility.yul\":3340:3648   */\n      iszero\n      tag_83\n      jumpi\n        /* \"#utility.yul\":3441:3447   */\n      dup2\n        /* \"#utility.yul\":3435:3448   */\n      mload\n        /* \"#utility.yul\":3468:3543   */\n      tag_84\n        /* \"#utility.yul\":3539:3542   */\n      dup9\n        /* \"#utility.yul\":3524:3537   */\n      dup3\n        /* \"#utility.yul\":3468:3543   */\n      tag_65\n      jump\t// in\n    tag_84:\n        /* \"#utility.yul\":3461:3543   */\n      swap8\n      pop\n        /* \"#utility.yul\":3566:3638   */\n      tag_85\n        /* \"#utility.yul\":3631:3637   */\n      dup4\n        /* \"#utility.yul\":3566:3638   */\n      tag_86\n      jump\t// in\n    tag_85:\n        /* \"#utility.yul\":3556:3638   */\n      swap3\n      pop\n        /* \"#utility.yul\":3400:3648   */\n      pop\n        /* \"#utility.yul\":3387:3388   */\n      0x01\n        /* \"#utility.yul\":3384:3385   */\n      dup2\n        /* \"#utility.yul\":3380:3389   */\n      add\n        /* \"#utility.yul\":3375:3389   */\n      swap1\n      pop\n        /* \"#utility.yul\":3340:3648   */\n      jump(tag_81)\n    tag_83:\n        /* \"#utility.yul\":3344:3358   */\n      pop\n        /* \"#utility.yul\":3664:3667   */\n      dup6\n        /* \"#utility.yul\":3657:3667   */\n      swap4\n      pop\n        /* \"#utility.yul\":3017:3673   */\n      pop\n      pop\n      pop\n      swap3\n      swap2\n      pop\n      pop\n      jump\t// out\n        /* \"#utility.yul\":3679:3824   */\n    tag_68:\n        /* \"#utility.yul\":3768:3817   */\n      tag_88\n        /* \"#utility.yul\":3811:3816   */\n      dup2\n        /* \"#utility.yul\":3768:3817   */\n      tag_89\n      jump\t// in\n    tag_88:\n        /* \"#utility.yul\":3763:3766   */\n      dup3\n        /* \"#utility.yul\":3756:3818   */\n      mstore\n        /* \"#utility.yul\":3746:3824   */\n      pop\n      pop\n      jump\t// out\n        /* \"#utility.yul\":3830:3985   */\n    tag_90:\n        /* \"#utility.yul\":3929:3978   */\n      tag_92\n        /* \"#utility.yul\":3972:3977   */\n      dup2\n        /* \"#utility.yul\":3929:3978   */\n      tag_89\n      jump\t// in\n    tag_92:\n        /* \"#utility.yul\":3924:3927   */\n      dup3\n        /* \"#utility.yul\":3917:3979   */\n      mstore\n        /* \"#utility.yul\":3907:3985   */\n      pop\n      pop\n      jump\t// out\n        /* \"#utility.yul\":3991:4355   */\n    tag_93:\n      0x00\n        /* \"#utility.yul\":4107:4146   */\n      tag_95\n        /* \"#utility.yul\":4140:4145   */\n      dup3\n        /* \"#utility.yul\":4107:4146   */\n      tag_96\n      jump\t// in\n    tag_95:\n        /* \"#utility.yul\":4162:4233   */\n      tag_97\n        /* \"#utility.yul\":4226:4232   */\n      dup2\n        /* \"#utility.yul\":4221:4224   */\n      dup6\n        /* \"#utility.yul\":4162:4233   */\n      tag_98\n      jump\t// in\n    tag_97:\n        /* \"#utility.yul\":4155:4233   */\n      swap4\n      pop\n        /* \"#utility.yul\":4242:4294   */\n      tag_99\n        /* \"#utility.yul\":4287:4293   */\n      dup2\n        /* \"#utility.yul\":4282:4285   */\n      dup6\n        /* \"#utility.yul\":4275:4279   */\n      0x20\n        /* \"#utility.yul\":4268:4273   */\n      dup7\n        /* \"#utility.yul\":4264:4280   */\n      add\n        /* \"#utility.yul\":4242:4294   */\n      tag_100\n      jump\t// in\n    tag_99:\n        /* \"#utility.yul\":4319:4348   */\n      tag_101\n        /* \"#utility.yul\":4341:4347   */\n      dup2\n        /* \"#utility.yul\":4319:4348   */\n      tag_102\n      jump\t// in\n    tag_101:\n        /* \"#utility.yul\":4314:4317   */\n      dup5\n        /* \"#utility.yul\":4310:4349   */\n      add\n        /* \"#utility.yul\":4303:4349   */\n      swap2\n      pop\n        /* \"#utility.yul\":4083:4355   */\n      pop\n      swap3\n      swap2\n      pop\n      pop\n      jump\t// out\n        /* \"#utility.yul\":4361:4479   */\n    tag_103:\n        /* \"#utility.yul\":4448:4472   */\n      tag_105\n        /* \"#utility.yul\":4466:4471   */\n      dup2\n        /* \"#utility.yul\":4448:4472   */\n      tag_106\n      jump\t// in\n    tag_105:\n        /* \"#utility.yul\":4443:4446   */\n      dup3\n        /* \"#utility.yul\":4436:4473   */\n      mstore\n        /* \"#utility.yul\":4426:4479   */\n      pop\n      pop\n      jump\t// out\n        /* \"#utility.yul\":4485:4882   */\n    tag_13:\n      0x00\n        /* \"#utility.yul\":4678:4680   */\n      0x20\n        /* \"#utility.yul\":4667:4676   */\n      dup3\n        /* \"#utility.yul\":4663:4681   */\n      add\n        /* \"#utility.yul\":4655:4681   */\n      swap1\n      pop\n        /* \"#utility.yul\":4727:4736   */\n      dup2\n        /* \"#utility.yul\":4721:4725   */\n      dup2\n        /* \"#utility.yul\":4717:4737   */\n      sub\n        /* \"#utility.yul\":4713:4714   */\n      0x00\n        /* \"#utility.yul\":4702:4711   */\n      dup4\n        /* \"#utility.yul\":4698:4715   */\n      add\n        /* \"#utility.yul\":4691:4738   */\n      mstore\n        /* \"#utility.yul\":4755:4875   */\n      tag_108\n        /* \"#utility.yul\":4870:4874   */\n      dup2\n        /* \"#utility.yul\":4861:4867   */\n      dup5\n        /* \"#utility.yul\":4755:4875   */\n      tag_73\n      jump\t// in\n    tag_108:\n        /* \"#utility.yul\":4747:4875   */\n      swap1\n      pop\n        /* \"#utility.yul\":4645:4882   */\n      swap3\n      swap2\n      pop\n      pop\n      jump\t// out\n        /* \"#utility.yul\":4888:5134   */\n    tag_19:\n      0x00\n        /* \"#utility.yul\":5031:5033   */\n      0x20\n        /* \"#utility.yul\":5020:5029   */\n      dup3\n        /* \"#utility.yul\":5016:5034   */\n      add\n        /* \"#utility.yul\":5008:5034   */\n      swap1\n      pop\n        /* \"#utility.yul\":5044:5127   */\n      tag_110\n        /* \"#utility.yul\":5124:5125   */\n      0x00\n        /* \"#utility.yul\":5113:5122   */\n      dup4\n        /* \"#utility.yul\":5109:5126   */\n      add\n        /* \"#utility.yul\":5100:5106   */\n      dup5\n        /* \"#utility.yul\":5044:5127   */\n      tag_90\n      jump\t// in\n    tag_110:\n        /* \"#utility.yul\":4998:5134   */\n      swap3\n      swap2\n      pop\n      pop\n      jump\t// out\n        /* \"#utility.yul\":5140:6390   */\n    tag_24:\n      0x00\n        /* \"#utility.yul\":5519:5522   */\n      0xe0\n        /* \"#utility.yul\":5508:5517   */\n      dup3\n        /* \"#utility.yul\":5504:5523   */\n      add\n        /* \"#utility.yul\":5496:5523   */\n      swap1\n      pop\n        /* \"#utility.yul\":5533:5604   */\n      tag_112\n        /* \"#utility.yul\":5601:5602   */\n      0x00\n        /* \"#utility.yul\":5590:5599   */\n      dup4\n        /* \"#utility.yul\":5586:5603   */\n      add\n        /* \"#utility.yul\":5577:5583   */\n      dup11\n        /* \"#utility.yul\":5533:5604   */\n      tag_103\n      jump\t// in\n    tag_112:\n        /* \"#utility.yul\":5614:5686   */\n      tag_113\n        /* \"#utility.yul\":5682:5684   */\n      0x20\n        /* \"#utility.yul\":5671:5680   */\n      dup4\n        /* \"#utility.yul\":5667:5685   */\n      add\n        /* \"#utility.yul\":5658:5664   */\n      dup10\n        /* \"#utility.yul\":5614:5686   */\n      tag_103\n      jump\t// in\n    tag_113:\n        /* \"#utility.yul\":5733:5742   */\n      dup2\n        /* \"#utility.yul\":5727:5731   */\n      dup2\n        /* \"#utility.yul\":5723:5743   */\n      sub\n        /* \"#utility.yul\":5718:5720   */\n      0x40\n        /* \"#utility.yul\":5707:5716   */\n      dup4\n        /* \"#utility.yul\":5703:5721   */\n      add\n        /* \"#utility.yul\":5696:5744   */\n      mstore\n        /* \"#utility.yul\":5761:5839   */\n      tag_114\n        /* \"#utility.yul\":5834:5838   */\n      dup2\n        /* \"#utility.yul\":5825:5831   */\n      dup9\n        /* \"#utility.yul\":5761:5839   */\n      tag_93\n      jump\t// in\n    tag_114:\n        /* \"#utility.yul\":5753:5839   */\n      swap1\n      pop\n        /* \"#utility.yul\":5886:5895   */\n      dup2\n        /* \"#utility.yul\":5880:5884   */\n      dup2\n        /* \"#utility.yul\":5876:5896   */\n      sub\n        /* \"#utility.yul\":5871:5873   */\n      0x60\n        /* \"#utility.yul\":5860:5869   */\n      dup4\n        /* \"#utility.yul\":5856:5874   */\n      add\n        /* \"#utility.yul\":5849:5897   */\n      mstore\n        /* \"#utility.yul\":5914:5992   */\n      tag_115\n        /* \"#utility.yul\":5987:5991   */\n      dup2\n        /* \"#utility.yul\":5978:5984   */\n      dup8\n        /* \"#utility.yul\":5914:5992   */\n      tag_93\n      jump\t// in\n    tag_115:\n        /* \"#utility.yul\":5906:5992   */\n      swap1\n      pop\n        /* \"#utility.yul\":6040:6049   */\n      dup2\n        /* \"#utility.yul\":6034:6038   */\n      dup2\n        /* \"#utility.yul\":6030:6050   */\n      sub\n        /* \"#utility.yul\":6024:6027   */\n      0x80\n        /* \"#utility.yul\":6013:6022   */\n      dup4\n        /* \"#utility.yul\":6009:6028   */\n      add\n        /* \"#utility.yul\":6002:6051   */\n      mstore\n        /* \"#utility.yul\":6068:6146   */\n      tag_116\n        /* \"#utility.yul\":6141:6145   */\n      dup2\n        /* \"#utility.yul\":6132:6138   */\n      dup7\n        /* \"#utility.yul\":6068:6146   */\n      tag_93\n      jump\t// in\n    tag_116:\n        /* \"#utility.yul\":6060:6146   */\n      swap1\n      pop\n        /* \"#utility.yul\":6194:6203   */\n      dup2\n        /* \"#utility.yul\":6188:6192   */\n      dup2\n        /* \"#utility.yul\":6184:6204   */\n      sub\n        /* \"#utility.yul\":6178:6181   */\n      0xa0\n        /* \"#utility.yul\":6167:6176   */\n      dup4\n        /* \"#utility.yul\":6163:6182   */\n      add\n        /* \"#utility.yul\":6156:6205   */\n      mstore\n        /* \"#utility.yul\":6222:6300   */\n      tag_117\n        /* \"#utility.yul\":6295:6299   */\n      dup2\n        /* \"#utility.yul\":6286:6292   */\n      dup6\n        /* \"#utility.yul\":6222:6300   */\n      tag_93\n      jump\t// in\n    tag_117:\n        /* \"#utility.yul\":6214:6300   */\n      swap1\n      pop\n        /* \"#utility.yul\":6310:6383   */\n      tag_118\n        /* \"#utility.yul\":6378:6381   */\n      0xc0\n        /* \"#utility.yul\":6367:6376   */\n      dup4\n        /* \"#utility.yul\":6363:6382   */\n      add\n        /* \"#utility.yul\":6354:6360   */\n      dup5\n        /* \"#utility.yul\":6310:6383   */\n      tag_69\n      jump\t// in\n    tag_118:\n        /* \"#utility.yul\":5486:6390   */\n      swap9\n      swap8\n      pop\n      pop\n      pop\n      pop\n      pop\n      pop\n      pop\n      pop\n      jump\t// out\n        /* \"#utility.yul\":6396:6525   */\n    tag_38:\n      0x00\n        /* \"#utility.yul\":6457:6477   */\n      tag_120\n      tag_121\n      jump\t// in\n    tag_120:\n        /* \"#utility.yul\":6447:6477   */\n      swap1\n      pop\n        /* \"#utility.yul\":6486:6519   */\n      tag_122\n        /* \"#utility.yul\":6514:6518   */\n      dup3\n        /* \"#utility.yul\":6506:6512   */\n      dup3\n        /* \"#utility.yul\":6486:6519   */\n      tag_123\n      jump\t// in\n    tag_122:\n        /* \"#utility.yul\":6437:6525   */\n      swap2\n      swap1\n      pop\n      jump\t// out\n        /* \"#utility.yul\":6531:6606   */\n    tag_121:\n      0x00\n        /* \"#utility.yul\":6597:6599   */\n      0x40\n        /* \"#utility.yul\":6591:6600   */\n      mload\n        /* \"#utility.yul\":6581:6600   */\n      swap1\n      pop\n        /* \"#utility.yul\":6571:6606   */\n      swap1\n      jump\t// out\n        /* \"#utility.yul\":6612:6920   */\n    tag_37:\n      0x00\n        /* \"#utility.yul\":6764:6782   */\n      0xffffffffffffffff\n        /* \"#utility.yul\":6756:6762   */\n      dup3\n        /* \"#utility.yul\":6753:6783   */\n      gt\n        /* \"#utility.yul\":6750:6752   */\n      iszero\n      tag_126\n      jumpi\n        /* \"#utility.yul\":6786:6804   */\n      tag_127\n      tag_128\n      jump\t// in\n    tag_127:\n        /* \"#utility.yul\":6750:6752   */\n    tag_126:\n        /* \"#utility.yul\":6824:6853   */\n      tag_129\n        /* \"#utility.yul\":6846:6852   */\n      dup3\n        /* \"#utility.yul\":6824:6853   */\n      tag_102\n      jump\t// in\n    tag_129:\n        /* \"#utility.yul\":6816:6853   */\n      swap1\n      pop\n        /* \"#utility.yul\":6908:6912   */\n      0x20\n        /* \"#utility.yul\":6902:6906   */\n      dup2\n        /* \"#utility.yul\":6898:6913   */\n      add\n        /* \"#utility.yul\":6890:6913   */\n      swap1\n      pop\n        /* \"#utility.yul\":6679:6920   */\n      swap2\n      swap1\n      pop\n      jump\t// out\n        /* \"#utility.yul\":6926:7070   */\n    tag_80:\n      0x00\n        /* \"#utility.yul\":7028:7031   */\n      dup2\n        /* \"#utility.yul\":7020:7031   */\n      swap1\n      pop\n        /* \"#utility.yul\":7058:7062   */\n      0x20\n        /* \"#utility.yul\":7053:7056   */\n      dup3\n        /* \"#utility.yul\":7049:7063   */\n      add\n        /* \"#utility.yul\":7041:7063   */\n      swap1\n      pop\n        /* \"#utility.yul\":7010:7070   */\n      swap2\n      swap1\n      pop\n      jump\t// out\n        /* \"#utility.yul\":7076:7202   */\n    tag_76:\n      0x00\n        /* \"#utility.yul\":7189:7194   */\n      dup2\n        /* \"#utility.yul\":7183:7195   */\n      mload\n        /* \"#utility.yul\":7173:7195   */\n      swap1\n      pop\n        /* \"#utility.yul\":7162:7202   */\n      swap2\n      swap1\n      pop\n      jump\t// out\n        /* \"#utility.yul\":7208:7307   */\n    tag_96:\n      0x00\n        /* \"#utility.yul\":7294:7299   */\n      dup2\n        /* \"#utility.yul\":7288:7300   */\n      mload\n        /* \"#utility.yul\":7278:7300   */\n      swap1\n      pop\n        /* \"#utility.yul\":7267:7307   */\n      swap2\n      swap1\n      pop\n      jump\t// out\n        /* \"#utility.yul\":7313:7438   */\n    tag_86:\n      0x00\n        /* \"#utility.yul\":7427:7431   */\n      0x20\n        /* \"#utility.yul\":7422:7425   */\n      dup3\n        /* \"#utility.yul\":7418:7432   */\n      add\n        /* \"#utility.yul\":7410:7432   */\n      swap1\n      pop\n        /* \"#utility.yul\":7400:7438   */\n      swap2\n      swap1\n      pop\n      jump\t// out\n        /* \"#utility.yul\":7444:7628   */\n    tag_78:\n      0x00\n        /* \"#utility.yul\":7577:7583   */\n      dup3\n        /* \"#utility.yul\":7572:7575   */\n      dup3\n        /* \"#utility.yul\":7565:7584   */\n      mstore\n        /* \"#utility.yul\":7617:7621   */\n      0x20\n        /* \"#utility.yul\":7612:7615   */\n      dup3\n        /* \"#utility.yul\":7608:7622   */\n      add\n        /* \"#utility.yul\":7593:7622   */\n      swap1\n      pop\n        /* \"#utility.yul\":7555:7628   */\n      swap3\n      swap2\n      pop\n      pop\n      jump\t// out\n        /* \"#utility.yul\":7634:7803   */\n    tag_98:\n      0x00\n        /* \"#utility.yul\":7752:7758   */\n      dup3\n        /* \"#utility.yul\":7747:7750   */\n      dup3\n        /* \"#utility.yul\":7740:7759   */\n      mstore\n        /* \"#utility.yul\":7792:7796   */\n      0x20\n        /* \"#utility.yul\":7787:7790   */\n      dup3\n        /* \"#utility.yul\":7783:7797   */\n      add\n        /* \"#utility.yul\":7768:7797   */\n      swap1\n      pop\n        /* \"#utility.yul\":7730:7803   */\n      swap3\n      swap2\n      pop\n      pop\n      jump\t// out\n        /* \"#utility.yul\":7809:7905   */\n    tag_72:\n      0x00\n        /* \"#utility.yul\":7875:7899   */\n      tag_137\n        /* \"#utility.yul\":7893:7898   */\n      dup3\n        /* \"#utility.yul\":7875:7899   */\n      tag_138\n      jump\t// in\n    tag_137:\n        /* \"#utility.yul\":7864:7899   */\n      swap1\n      pop\n        /* \"#utility.yul\":7854:7905   */\n      swap2\n      swap1\n      pop\n      jump\t// out\n        /* \"#utility.yul\":7911:8037   */\n    tag_138:\n      0x00\n        /* \"#utility.yul\":7988:8030   */\n      0xffffffffffffffffffffffffffffffffffffffff\n        /* \"#utility.yul\":7981:7986   */\n      dup3\n        /* \"#utility.yul\":7977:8031   */\n      and\n        /* \"#utility.yul\":7966:8031   */\n      swap1\n      pop\n        /* \"#utility.yul\":7956:8037   */\n      swap2\n      swap1\n      pop\n      jump\t// out\n        /* \"#utility.yul\":8043:8120   */\n    tag_106:\n      0x00\n        /* \"#utility.yul\":8109:8114   */\n      dup2\n        /* \"#utility.yul\":8098:8114   */\n      swap1\n      pop\n        /* \"#utility.yul\":8088:8120   */\n      swap2\n      swap1\n      pop\n      jump\t// out\n        /* \"#utility.yul\":8126:8276   */\n    tag_89:\n      0x00\n        /* \"#utility.yul\":8221:8270   */\n      tag_142\n        /* \"#utility.yul\":8264:8269   */\n      dup3\n        /* \"#utility.yul\":8221:8270   */\n      tag_143\n      jump\t// in\n    tag_142:\n        /* \"#utility.yul\":8208:8270   */\n      swap1\n      pop\n        /* \"#utility.yul\":8198:8276   */\n      swap2\n      swap1\n      pop\n      jump\t// out\n        /* \"#utility.yul\":8282:8407   */\n    tag_143:\n      0x00\n        /* \"#utility.yul\":8377:8401   */\n      tag_145\n        /* \"#utility.yul\":8395:8400   */\n      dup3\n        /* \"#utility.yul\":8377:8401   */\n      tag_138\n      jump\t// in\n    tag_145:\n        /* \"#utility.yul\":8364:8401   */\n      swap1\n      pop\n        /* \"#utility.yul\":8354:8407   */\n      swap2\n      swap1\n      pop\n      jump\t// out\n        /* \"#utility.yul\":8413:8567   */\n    tag_41:\n        /* \"#utility.yul\":8497:8503   */\n      dup3\n        /* \"#utility.yul\":8492:8495   */\n      dup2\n        /* \"#utility.yul\":8487:8490   */\n      dup4\n        /* \"#utility.yul\":8474:8504   */\n      calldatacopy\n        /* \"#utility.yul\":8559:8560   */\n      0x00\n        /* \"#utility.yul\":8550:8556   */\n      dup4\n        /* \"#utility.yul\":8545:8548   */\n      dup4\n        /* \"#utility.yul\":8541:8557   */\n      add\n        /* \"#utility.yul\":8534:8561   */\n      mstore\n        /* \"#utility.yul\":8464:8567   */\n      pop\n      pop\n      pop\n      jump\t// out\n        /* \"#utility.yul\":8573:8880   */\n    tag_100:\n        /* \"#utility.yul\":8641:8642   */\n      0x00\n        /* \"#utility.yul\":8651:8764   */\n    tag_148:\n        /* \"#utility.yul\":8665:8671   */\n      dup4\n        /* \"#utility.yul\":8662:8663   */\n      dup2\n        /* \"#utility.yul\":8659:8672   */\n      lt\n        /* \"#utility.yul\":8651:8764   */\n      iszero\n      tag_150\n      jumpi\n        /* \"#utility.yul\":8750:8751   */\n      dup1\n        /* \"#utility.yul\":8745:8748   */\n      dup3\n        /* \"#utility.yul\":8741:8752   */\n      add\n        /* \"#utility.yul\":8735:8753   */\n      mload\n        /* \"#utility.yul\":8731:8732   */\n      dup2\n        /* \"#utility.yul\":8726:8729   */\n      dup5\n        /* \"#utility.yul\":8722:8733   */\n      add\n        /* \"#utility.yul\":8715:8754   */\n      mstore\n        /* \"#utility.yul\":8687:8689   */\n      0x20\n        /* \"#utility.yul\":8684:8685   */\n      dup2\n        /* \"#utility.yul\":8680:8690   */\n      add\n        /* \"#utility.yul\":8675:8690   */\n      swap1\n      pop\n        /* \"#utility.yul\":8651:8764   */\n      jump(tag_148)\n    tag_150:\n        /* \"#utility.yul\":8782:8788   */\n      dup4\n        /* \"#utility.yul\":8779:8780   */\n      dup2\n        /* \"#utility.yul\":8776:8789   */\n      gt\n        /* \"#utility.yul\":8773:8775   */\n      iszero\n      tag_151\n      jumpi\n        /* \"#utility.yul\":8862:8863   */\n      0x00\n        /* \"#utility.yul\":8853:8859   */\n      dup5\n        /* \"#utility.yul\":8848:8851   */\n      dup5\n        /* \"#utility.yul\":8844:8860   */\n      add\n        /* \"#utility.yul\":8837:8864   */\n      mstore\n        /* \"#utility.yul\":8773:8775   */\n    tag_151:\n        /* \"#utility.yul\":8622:8880   */\n      pop\n      pop\n      pop\n      pop\n      jump\t// out\n        /* \"#utility.yul\":8886:9167   */\n    tag_123:\n        /* \"#utility.yul\":8969:8996   */\n      tag_153\n        /* \"#utility.yul\":8991:8995   */\n      dup3\n        /* \"#utility.yul\":8969:8996   */\n      tag_102\n      jump\t// in\n    tag_153:\n        /* \"#utility.yul\":8961:8967   */\n      dup2\n        /* \"#utility.yul\":8957:8997   */\n      add\n        /* \"#utility.yul\":9099:9105   */\n      dup2\n        /* \"#utility.yul\":9087:9097   */\n      dup2\n        /* \"#utility.yul\":9084:9106   */\n      lt\n        /* \"#utility.yul\":9063:9081   */\n      0xffffffffffffffff\n        /* \"#utility.yul\":9051:9061   */\n      dup3\n        /* \"#utility.yul\":9048:9082   */\n      gt\n        /* \"#utility.yul\":9045:9107   */\n      or\n        /* \"#utility.yul\":9042:9044   */\n      iszero\n      tag_154\n      jumpi\n        /* \"#utility.yul\":9110:9128   */\n      tag_155\n      tag_128\n      jump\t// in\n    tag_155:\n        /* \"#utility.yul\":9042:9044   */\n    tag_154:\n        /* \"#utility.yul\":9150:9160   */\n      dup1\n        /* \"#utility.yul\":9146:9148   */\n      0x40\n        /* \"#utility.yul\":9139:9161   */\n      mstore\n        /* \"#utility.yul\":8929:9167   */\n      pop\n      pop\n      pop\n      jump\t// out\n        /* \"#utility.yul\":9173:9353   */\n    tag_128:\n        /* \"#utility.yul\":9221:9298   */\n      0x4e487b7100000000000000000000000000000000000000000000000000000000\n        /* \"#utility.yul\":9218:9219   */\n      0x00\n        /* \"#utility.yul\":9211:9299   */\n      mstore\n        /* \"#utility.yul\":9318:9322   */\n      0x41\n        /* \"#utility.yul\":9315:9316   */\n      0x04\n        /* \"#utility.yul\":9308:9323   */\n      mstore\n        /* \"#utility.yul\":9342:9346   */\n      0x24\n        /* \"#utility.yul\":9339:9340   */\n      0x00\n        /* \"#utility.yul\":9332:9347   */\n      revert\n        /* \"#utility.yul\":9359:9461   */\n    tag_102:\n      0x00\n        /* \"#utility.yul\":9451:9453   */\n      0x1f\n        /* \"#utility.yul\":9447:9454   */\n      not\n        /* \"#utility.yul\":9442:9444   */\n      0x1f\n        /* \"#utility.yul\":9435:9440   */\n      dup4\n        /* \"#utility.yul\":9431:9445   */\n      add\n        /* \"#utility.yul\":9427:9455   */\n      and\n        /* \"#utility.yul\":9417:9455   */\n      swap1\n      pop\n        /* \"#utility.yul\":9407:9461   */\n      swap2\n      swap1\n      pop\n      jump\t// out\n        /* \"#utility.yul\":9467:9589   */\n    tag_49:\n        /* \"#utility.yul\":9540:9564   */\n      tag_159\n        /* \"#utility.yul\":9558:9563   */\n      dup2\n        /* \"#utility.yul\":9540:9564   */\n      tag_106\n      jump\t// in\n    tag_159:\n        /* \"#utility.yul\":9533:9538   */\n      dup2\n        /* \"#utility.yul\":9530:9565   */\n      eq\n        /* \"#utility.yul\":9520:9522   */\n      tag_160\n      jumpi\n        /* \"#utility.yul\":9579:9580   */\n      0x00\n        /* \"#utility.yul\":9576:9577   */\n      dup1\n        /* \"#utility.yul\":9569:9581   */\n      revert\n        /* \"#utility.yul\":9520:9522   */\n    tag_160:\n        /* \"#utility.yul\":9510:9589   */\n      pop\n      jump\t// out\n    stop\n\n    sub_0: assembly {\n            /* \"Idea.sol\":513:3845  contract Idea {... */\n          mstore(0x40, 0x80)\n            /* \"Idea.sol\":1289:1763  constructor(uint creditValue, uint ideaReachGoal, string memory ideaName, string memory ideaShortDescription, string memory ideaDescription, string memory ideaImageURL, address sender) {... */\n          callvalue\n          dup1\n          iszero\n          tag_1\n          jumpi\n          0x00\n          dup1\n          revert\n        tag_1:\n          pop\n          mload(0x40)\n          sub(codesize, bytecodeSize)\n          dup1\n          bytecodeSize\n          dup4\n          codecopy\n          dup2\n          dup2\n          add\n          0x40\n          mstore\n          dup2\n          add\n          swap1\n          tag_2\n          swap2\n          swap1\n          tag_3\n          jump\t// in\n        tag_2:\n            /* \"Idea.sol\":1494:1500  sender */\n          dup1\n            /* \"Idea.sol\":1484:1491  manager */\n          0x07\n          0x00\n            /* \"Idea.sol\":1484:1500  manager = sender */\n          0x0100\n          exp\n          dup2\n          sload\n          dup2\n          0xffffffffffffffffffffffffffffffffffffffff\n          mul\n          not\n          and\n          swap1\n          dup4\n          0xffffffffffffffffffffffffffffffffffffffff\n          and\n          mul\n          or\n          swap1\n          sstore\n          pop\n            /* \"Idea.sol\":1527:1538  creditValue */\n          dup7\n            /* \"Idea.sol\":1510:1524  oneCreditValue */\n          0x0a\n            /* \"Idea.sol\":1510:1538  oneCreditValue = creditValue */\n          dup2\n          swap1\n          sstore\n          pop\n            /* \"Idea.sol\":1560:1573  ideaReachGoal */\n          dup6\n            /* \"Idea.sol\":1548:1557  reachGoal */\n          0x0c\n            /* \"Idea.sol\":1548:1573  reachGoal = ideaReachGoal */\n          dup2\n          swap1\n          sstore\n          pop\n            /* \"Idea.sol\":1590:1598  ideaName */\n          dup5\n            /* \"Idea.sol\":1583:1587  name */\n          0x00\n            /* \"Idea.sol\":1583:1598  name = ideaName */\n          swap1\n          dup1\n          mload\n          swap1\n          0x20\n          add\n          swap1\n          tag_6\n          swap3\n          swap2\n          swap1\n          tag_7\n          jump\t// in\n        tag_6:\n          pop\n            /* \"Idea.sol\":1627:1647  ideaShortDescription */\n          dup4\n            /* \"Idea.sol\":1608:1624  shortDescription */\n          0x01\n            /* \"Idea.sol\":1608:1647  shortDescription = ideaShortDescription */\n          swap1\n          dup1\n          mload\n          swap1\n          0x20\n          add\n          swap1\n          tag_8\n          swap3\n          swap2\n          swap1\n          tag_7\n          jump\t// in\n        tag_8:\n          pop\n            /* \"Idea.sol\":1671:1686  ideaDescription */\n          dup3\n            /* \"Idea.sol\":1657:1668  description */\n          0x02\n            /* \"Idea.sol\":1657:1686  description = ideaDescription */\n          swap1\n          dup1\n          mload\n          swap1\n          0x20\n          add\n          swap1\n          tag_9\n          swap3\n          swap2\n          swap1\n          tag_7\n          jump\t// in\n        tag_9:\n          pop\n            /* \"Idea.sol\":1707:1719  ideaImageURL */\n          dup2\n            /* \"Idea.sol\":1696:1704  imageURL */\n          0x03\n            /* \"Idea.sol\":1696:1719  imageURL = ideaImageURL */\n          swap1\n          dup1\n          mload\n          swap1\n          0x20\n          add\n          swap1\n          tag_10\n          swap3\n          swap2\n          swap1\n          tag_7\n          jump\t// in\n        tag_10:\n          pop\n            /* \"Idea.sol\":1741:1756  block.timestamp */\n          timestamp\n            /* \"Idea.sol\":1729:1738  createdAt */\n          0x04\n            /* \"Idea.sol\":1729:1756  createdAt = block.timestamp */\n          dup2\n          swap1\n          sstore\n          pop\n            /* \"Idea.sol\":1289:1763  constructor(uint creditValue, uint ideaReachGoal, string memory ideaName, string memory ideaShortDescription, string memory ideaDescription, string memory ideaImageURL, address sender) {... */\n          pop\n          pop\n          pop\n          pop\n          pop\n          pop\n          pop\n            /* \"Idea.sol\":513:3845  contract Idea {... */\n          jump(tag_11)\n        tag_7:\n          dup3\n          dup1\n          sload\n          tag_12\n          swap1\n          tag_13\n          jump\t// in\n        tag_12:\n          swap1\n          0x00\n          mstore\n          keccak256(0x00, 0x20)\n          swap1\n          0x1f\n          add\n          0x20\n          swap1\n          div\n          dup2\n          add\n          swap3\n          dup3\n          tag_15\n          jumpi\n          0x00\n          dup6\n          sstore\n          jump(tag_14)\n        tag_15:\n          dup3\n          0x1f\n          lt\n          tag_16\n          jumpi\n          dup1\n          mload\n          not(0xff)\n          and\n          dup4\n          dup1\n          add\n          or\n          dup6\n          sstore\n          jump(tag_14)\n        tag_16:\n          dup3\n          dup1\n          add\n          0x01\n          add\n          dup6\n          sstore\n          dup3\n          iszero\n          tag_14\n          jumpi\n          swap2\n          dup3\n          add\n        tag_17:\n          dup3\n          dup2\n          gt\n          iszero\n          tag_18\n          jumpi\n          dup3\n          mload\n          dup3\n          sstore\n          swap2\n          0x20\n          add\n          swap2\n          swap1\n          0x01\n          add\n          swap1\n          jump(tag_17)\n        tag_18:\n        tag_14:\n          pop\n          swap1\n          pop\n          tag_19\n          swap2\n          swap1\n          tag_20\n          jump\t// in\n        tag_19:\n          pop\n          swap1\n          jump\t// out\n        tag_20:\n        tag_21:\n          dup1\n          dup3\n          gt\n          iszero\n          tag_22\n          jumpi\n          0x00\n          dup2\n          0x00\n          swap1\n          sstore\n          pop\n          0x01\n          add\n          jump(tag_21)\n        tag_22:\n          pop\n          swap1\n          jump\t// out\n            /* \"#utility.yul\":7:361   */\n        tag_24:\n          0x00\n            /* \"#utility.yul\":121:187   */\n          tag_26\n            /* \"#utility.yul\":137:186   */\n          tag_27\n            /* \"#utility.yul\":179:185   */\n          dup5\n            /* \"#utility.yul\":137:186   */\n          tag_28\n          jump\t// in\n        tag_27:\n            /* \"#utility.yul\":121:187   */\n          tag_29\n          jump\t// in\n        tag_26:\n            /* \"#utility.yul\":112:187   */\n          swap1\n          pop\n            /* \"#utility.yul\":210:216   */\n          dup3\n            /* \"#utility.yul\":203:208   */\n          dup2\n            /* \"#utility.yul\":196:217   */\n          mstore\n            /* \"#utility.yul\":248:252   */\n          0x20\n            /* \"#utility.yul\":241:246   */\n          dup2\n            /* \"#utility.yul\":237:253   */\n          add\n            /* \"#utility.yul\":286:289   */\n          dup5\n            /* \"#utility.yul\":277:283   */\n          dup5\n            /* \"#utility.yul\":272:275   */\n          dup5\n            /* \"#utility.yul\":268:284   */\n          add\n            /* \"#utility.yul\":265:290   */\n          gt\n            /* \"#utility.yul\":262:264   */\n          iszero\n          tag_30\n          jumpi\n            /* \"#utility.yul\":303:304   */\n          0x00\n            /* \"#utility.yul\":300:301   */\n          dup1\n            /* \"#utility.yul\":293:305   */\n          revert\n            /* \"#utility.yul\":262:264   */\n        tag_30:\n            /* \"#utility.yul\":316:355   */\n          tag_31\n            /* \"#utility.yul\":348:354   */\n          dup5\n            /* \"#utility.yul\":343:346   */\n          dup3\n            /* \"#utility.yul\":338:341   */\n          dup6\n            /* \"#utility.yul\":316:355   */\n          tag_32\n          jump\t// in\n        tag_31:\n            /* \"#utility.yul\":102:361   */\n          pop\n          swap4\n          swap3\n          pop\n          pop\n          pop\n          jump\t// out\n            /* \"#utility.yul\":367:510   */\n        tag_33:\n          0x00\n            /* \"#utility.yul\":455:461   */\n          dup2\n            /* \"#utility.yul\":449:462   */\n          mload\n            /* \"#utility.yul\":440:462   */\n          swap1\n          pop\n            /* \"#utility.yul\":471:504   */\n          tag_35\n            /* \"#utility.yul\":498:503   */\n          dup2\n            /* \"#utility.yul\":471:504   */\n          tag_36\n          jump\t// in\n        tag_35:\n            /* \"#utility.yul\":430:510   */\n          swap3\n          swap2\n          pop\n          pop\n          jump\t// out\n            /* \"#utility.yul\":530:818   */\n        tag_37:\n          0x00\n            /* \"#utility.yul\":646:649   */\n          dup3\n            /* \"#utility.yul\":639:643   */\n          0x1f\n            /* \"#utility.yul\":631:637   */\n          dup4\n            /* \"#utility.yul\":627:644   */\n          add\n            /* \"#utility.yul\":623:650   */\n          slt\n            /* \"#utility.yul\":613:615   */\n          tag_39\n          jumpi\n            /* \"#utility.yul\":664:665   */\n          0x00\n            /* \"#utility.yul\":661:662   */\n          dup1\n            /* \"#utility.yul\":654:666   */\n          revert\n            /* \"#utility.yul\":613:615   */\n        tag_39:\n            /* \"#utility.yul\":697:703   */\n          dup2\n            /* \"#utility.yul\":691:704   */\n          mload\n            /* \"#utility.yul\":722:812   */\n          tag_40\n            /* \"#utility.yul\":808:811   */\n          dup5\n            /* \"#utility.yul\":800:806   */\n          dup3\n            /* \"#utility.yul\":793:797   */\n          0x20\n            /* \"#utility.yul\":785:791   */\n          dup7\n            /* \"#utility.yul\":781:798   */\n          add\n            /* \"#utility.yul\":722:812   */\n          tag_24\n          jump\t// in\n        tag_40:\n            /* \"#utility.yul\":713:812   */\n          swap2\n          pop\n            /* \"#utility.yul\":603:818   */\n          pop\n          swap3\n          swap2\n          pop\n          pop\n          jump\t// out\n            /* \"#utility.yul\":824:967   */\n        tag_41:\n          0x00\n            /* \"#utility.yul\":912:918   */\n          dup2\n            /* \"#utility.yul\":906:919   */\n          mload\n            /* \"#utility.yul\":897:919   */\n          swap1\n          pop\n            /* \"#utility.yul\":928:961   */\n          tag_43\n            /* \"#utility.yul\":955:960   */\n          dup2\n            /* \"#utility.yul\":928:961   */\n          tag_44\n          jump\t// in\n        tag_43:\n            /* \"#utility.yul\":887:967   */\n          swap3\n          swap2\n          pop\n          pop\n          jump\t// out\n            /* \"#utility.yul\":973:2621   */\n        tag_3:\n          0x00\n          dup1\n          0x00\n          dup1\n          0x00\n          dup1\n          0x00\n            /* \"#utility.yul\":1234:1237   */\n          0xe0\n            /* \"#utility.yul\":1222:1231   */\n          dup9\n            /* \"#utility.yul\":1213:1220   */\n          dup11\n            /* \"#utility.yul\":1209:1232   */\n          sub\n            /* \"#utility.yul\":1205:1238   */\n          slt\n            /* \"#utility.yul\":1202:1204   */\n          iszero\n          tag_46\n          jumpi\n            /* \"#utility.yul\":1251:1252   */\n          0x00\n            /* \"#utility.yul\":1248:1249   */\n          dup1\n            /* \"#utility.yul\":1241:1253   */\n          revert\n            /* \"#utility.yul\":1202:1204   */\n        tag_46:\n            /* \"#utility.yul\":1294:1295   */\n          0x00\n            /* \"#utility.yul\":1319:1383   */\n          tag_47\n            /* \"#utility.yul\":1375:1382   */\n          dup11\n            /* \"#utility.yul\":1366:1372   */\n          dup3\n            /* \"#utility.yul\":1355:1364   */\n          dup12\n            /* \"#utility.yul\":1351:1373   */\n          add\n            /* \"#utility.yul\":1319:1383   */\n          tag_41\n          jump\t// in\n        tag_47:\n            /* \"#utility.yul\":1309:1383   */\n          swap8\n          pop\n            /* \"#utility.yul\":1265:1393   */\n          pop\n            /* \"#utility.yul\":1432:1434   */\n          0x20\n            /* \"#utility.yul\":1458:1522   */\n          tag_48\n            /* \"#utility.yul\":1514:1521   */\n          dup11\n            /* \"#utility.yul\":1505:1511   */\n          dup3\n            /* \"#utility.yul\":1494:1503   */\n          dup12\n            /* \"#utility.yul\":1490:1512   */\n          add\n            /* \"#utility.yul\":1458:1522   */\n          tag_41\n          jump\t// in\n        tag_48:\n            /* \"#utility.yul\":1448:1522   */\n          swap7\n          pop\n            /* \"#utility.yul\":1403:1532   */\n          pop\n            /* \"#utility.yul\":1592:1594   */\n          0x40\n            /* \"#utility.yul\":1581:1590   */\n          dup9\n            /* \"#utility.yul\":1577:1595   */\n          add\n            /* \"#utility.yul\":1571:1596   */\n          mload\n            /* \"#utility.yul\":1623:1641   */\n          0xffffffffffffffff\n            /* \"#utility.yul\":1615:1621   */\n          dup2\n            /* \"#utility.yul\":1612:1642   */\n          gt\n            /* \"#utility.yul\":1609:1611   */\n          iszero\n          tag_49\n          jumpi\n            /* \"#utility.yul\":1655:1656   */\n          0x00\n            /* \"#utility.yul\":1652:1653   */\n          dup1\n            /* \"#utility.yul\":1645:1657   */\n          revert\n            /* \"#utility.yul\":1609:1611   */\n        tag_49:\n            /* \"#utility.yul\":1683:1757   */\n          tag_50\n            /* \"#utility.yul\":1749:1756   */\n          dup11\n            /* \"#utility.yul\":1740:1746   */\n          dup3\n            /* \"#utility.yul\":1729:1738   */\n          dup12\n            /* \"#utility.yul\":1725:1747   */\n          add\n            /* \"#utility.yul\":1683:1757   */\n          tag_37\n          jump\t// in\n        tag_50:\n            /* \"#utility.yul\":1673:1757   */\n          swap6\n          pop\n            /* \"#utility.yul\":1542:1767   */\n          pop\n            /* \"#utility.yul\":1827:1829   */\n          0x60\n            /* \"#utility.yul\":1816:1825   */\n          dup9\n            /* \"#utility.yul\":1812:1830   */\n          add\n            /* \"#utility.yul\":1806:1831   */\n          mload\n            /* \"#utility.yul\":1858:1876   */\n          0xffffffffffffffff\n            /* \"#utility.yul\":1850:1856   */\n          dup2\n            /* \"#utility.yul\":1847:1877   */\n          gt\n            /* \"#utility.yul\":1844:1846   */\n          iszero\n          tag_51\n          jumpi\n            /* \"#utility.yul\":1890:1891   */\n          0x00\n            /* \"#utility.yul\":1887:1888   */\n          dup1\n            /* \"#utility.yul\":1880:1892   */\n          revert\n            /* \"#utility.yul\":1844:1846   */\n        tag_51:\n            /* \"#utility.yul\":1918:1992   */\n          tag_52\n            /* \"#utility.yul\":1984:1991   */\n          dup11\n            /* \"#utility.yul\":1975:1981   */\n          dup3\n            /* \"#utility.yul\":1964:1973   */\n          dup12\n            /* \"#utility.yul\":1960:1982   */\n          add\n            /* \"#utility.yul\":1918:1992   */\n          tag_37\n          jump\t// in\n        tag_52:\n            /* \"#utility.yul\":1908:1992   */\n          swap5\n          pop\n            /* \"#utility.yul\":1777:2002   */\n          pop\n            /* \"#utility.yul\":2062:2065   */\n          0x80\n            /* \"#utility.yul\":2051:2060   */\n          dup9\n            /* \"#utility.yul\":2047:2066   */\n          add\n            /* \"#utility.yul\":2041:2067   */\n          mload\n            /* \"#utility.yul\":2094:2112   */\n          0xffffffffffffffff\n            /* \"#utility.yul\":2086:2092   */\n          dup2\n            /* \"#utility.yul\":2083:2113   */\n          gt\n            /* \"#utility.yul\":2080:2082   */\n          iszero\n          tag_53\n          jumpi\n            /* \"#utility.yul\":2126:2127   */\n          0x00\n            /* \"#utility.yul\":2123:2124   */\n          dup1\n            /* \"#utility.yul\":2116:2128   */\n          revert\n            /* \"#utility.yul\":2080:2082   */\n        tag_53:\n            /* \"#utility.yul\":2154:2228   */\n          tag_54\n            /* \"#utility.yul\":2220:2227   */\n          dup11\n            /* \"#utility.yul\":2211:2217   */\n          dup3\n            /* \"#utility.yul\":2200:2209   */\n          dup12\n            /* \"#utility.yul\":2196:2218   */\n          add\n            /* \"#utility.yul\":2154:2228   */\n          tag_37\n          jump\t// in\n        tag_54:\n            /* \"#utility.yul\":2144:2228   */\n          swap4\n          pop\n            /* \"#utility.yul\":2012:2238   */\n          pop\n            /* \"#utility.yul\":2298:2301   */\n          0xa0\n            /* \"#utility.yul\":2287:2296   */\n          dup9\n            /* \"#utility.yul\":2283:2302   */\n          add\n            /* \"#utility.yul\":2277:2303   */\n          mload\n            /* \"#utility.yul\":2330:2348   */\n          0xffffffffffffffff\n            /* \"#utility.yul\":2322:2328   */\n          dup2\n            /* \"#utility.yul\":2319:2349   */\n          gt\n            /* \"#utility.yul\":2316:2318   */\n          iszero\n          tag_55\n          jumpi\n            /* \"#utility.yul\":2362:2363   */\n          0x00\n            /* \"#utility.yul\":2359:2360   */\n          dup1\n            /* \"#utility.yul\":2352:2364   */\n          revert\n            /* \"#utility.yul\":2316:2318   */\n        tag_55:\n            /* \"#utility.yul\":2390:2464   */\n          tag_56\n            /* \"#utility.yul\":2456:2463   */\n          dup11\n            /* \"#utility.yul\":2447:2453   */\n          dup3\n            /* \"#utility.yul\":2436:2445   */\n          dup12\n            /* \"#utility.yul\":2432:2454   */\n          add\n            /* \"#utility.yul\":2390:2464   */\n          tag_37\n          jump\t// in\n        tag_56:\n            /* \"#utility.yul\":2380:2464   */\n          swap3\n          pop\n            /* \"#utility.yul\":2248:2474   */\n          pop\n            /* \"#utility.yul\":2513:2516   */\n          0xc0\n            /* \"#utility.yul\":2540:2604   */\n          tag_57\n            /* \"#utility.yul\":2596:2603   */\n          dup11\n            /* \"#utility.yul\":2587:2593   */\n          dup3\n            /* \"#utility.yul\":2576:2585   */\n          dup12\n            /* \"#utility.yul\":2572:2594   */\n          add\n            /* \"#utility.yul\":2540:2604   */\n          tag_33\n          jump\t// in\n        tag_57:\n            /* \"#utility.yul\":2530:2604   */\n          swap2\n          pop\n            /* \"#utility.yul\":2484:2614   */\n          pop\n            /* \"#utility.yul\":1192:2621   */\n          swap3\n          swap6\n          swap9\n          swap2\n          swap5\n          swap8\n          pop\n          swap3\n          swap6\n          pop\n          jump\t// out\n            /* \"#utility.yul\":2627:2756   */\n        tag_29:\n          0x00\n            /* \"#utility.yul\":2688:2708   */\n          tag_59\n          tag_60\n          jump\t// in\n        tag_59:\n            /* \"#utility.yul\":2678:2708   */\n          swap1\n          pop\n            /* \"#utility.yul\":2717:2750   */\n          tag_61\n            /* \"#utility.yul\":2745:2749   */\n          dup3\n            /* \"#utility.yul\":2737:2743   */\n          dup3\n            /* \"#utility.yul\":2717:2750   */\n          tag_62\n          jump\t// in\n        tag_61:\n            /* \"#utility.yul\":2668:2756   */\n          swap2\n          swap1\n          pop\n          jump\t// out\n            /* \"#utility.yul\":2762:2837   */\n        tag_60:\n          0x00\n            /* \"#utility.yul\":2828:2830   */\n          0x40\n            /* \"#utility.yul\":2822:2831   */\n          mload\n            /* \"#utility.yul\":2812:2831   */\n          swap1\n          pop\n            /* \"#utility.yul\":2802:2837   */\n          swap1\n          jump\t// out\n            /* \"#utility.yul\":2843:3151   */\n        tag_28:\n          0x00\n            /* \"#utility.yul\":2995:3013   */\n          0xffffffffffffffff\n            /* \"#utility.yul\":2987:2993   */\n          dup3\n            /* \"#utility.yul\":2984:3014   */\n          gt\n            /* \"#utility.yul\":2981:2983   */\n          iszero\n          tag_65\n          jumpi\n            /* \"#utility.yul\":3017:3035   */\n          tag_66\n          tag_67\n          jump\t// in\n        tag_66:\n            /* \"#utility.yul\":2981:2983   */\n        tag_65:\n            /* \"#utility.yul\":3055:3084   */\n          tag_68\n            /* \"#utility.yul\":3077:3083   */\n          dup3\n            /* \"#utility.yul\":3055:3084   */\n          tag_69\n          jump\t// in\n        tag_68:\n            /* \"#utility.yul\":3047:3084   */\n          swap1\n          pop\n            /* \"#utility.yul\":3139:3143   */\n          0x20\n            /* \"#utility.yul\":3133:3137   */\n          dup2\n            /* \"#utility.yul\":3129:3144   */\n          add\n            /* \"#utility.yul\":3121:3144   */\n          swap1\n          pop\n            /* \"#utility.yul\":2910:3151   */\n          swap2\n          swap1\n          pop\n          jump\t// out\n            /* \"#utility.yul\":3157:3253   */\n        tag_70:\n          0x00\n            /* \"#utility.yul\":3223:3247   */\n          tag_72\n            /* \"#utility.yul\":3241:3246   */\n          dup3\n            /* \"#utility.yul\":3223:3247   */\n          tag_73\n          jump\t// in\n        tag_72:\n            /* \"#utility.yul\":3212:3247   */\n          swap1\n          pop\n            /* \"#utility.yul\":3202:3253   */\n          swap2\n          swap1\n          pop\n          jump\t// out\n            /* \"#utility.yul\":3259:3385   */\n        tag_73:\n          0x00\n            /* \"#utility.yul\":3336:3378   */\n          0xffffffffffffffffffffffffffffffffffffffff\n            /* \"#utility.yul\":3329:3334   */\n          dup3\n            /* \"#utility.yul\":3325:3379   */\n          and\n            /* \"#utility.yul\":3314:3379   */\n          swap1\n          pop\n            /* \"#utility.yul\":3304:3385   */\n          swap2\n          swap1\n          pop\n          jump\t// out\n            /* \"#utility.yul\":3391:3468   */\n        tag_75:\n          0x00\n            /* \"#utility.yul\":3457:3462   */\n          dup2\n            /* \"#utility.yul\":3446:3462   */\n          swap1\n          pop\n            /* \"#utility.yul\":3436:3468   */\n          swap2\n          swap1\n          pop\n          jump\t// out\n            /* \"#utility.yul\":3474:3781   */\n        tag_32:\n            /* \"#utility.yul\":3542:3543   */\n          0x00\n            /* \"#utility.yul\":3552:3665   */\n        tag_78:\n            /* \"#utility.yul\":3566:3572   */\n          dup4\n            /* \"#utility.yul\":3563:3564   */\n          dup2\n            /* \"#utility.yul\":3560:3573   */\n          lt\n            /* \"#utility.yul\":3552:3665   */\n          iszero\n          tag_80\n          jumpi\n            /* \"#utility.yul\":3651:3652   */\n          dup1\n            /* \"#utility.yul\":3646:3649   */\n          dup3\n            /* \"#utility.yul\":3642:3653   */\n          add\n            /* \"#utility.yul\":3636:3654   */\n          mload\n            /* \"#utility.yul\":3632:3633   */\n          dup2\n            /* \"#utility.yul\":3627:3630   */\n          dup5\n            /* \"#utility.yul\":3623:3634   */\n          add\n            /* \"#utility.yul\":3616:3655   */\n          mstore\n            /* \"#utility.yul\":3588:3590   */\n          0x20\n            /* \"#utility.yul\":3585:3586   */\n          dup2\n            /* \"#utility.yul\":3581:3591   */\n          add\n            /* \"#utility.yul\":3576:3591   */\n          swap1\n          pop\n            /* \"#utility.yul\":3552:3665   */\n          jump(tag_78)\n        tag_80:\n            /* \"#utility.yul\":3683:3689   */\n          dup4\n            /* \"#utility.yul\":3680:3681   */\n          dup2\n            /* \"#utility.yul\":3677:3690   */\n          gt\n            /* \"#utility.yul\":3674:3676   */\n          iszero\n          tag_81\n          jumpi\n            /* \"#utility.yul\":3763:3764   */\n          0x00\n            /* \"#utility.yul\":3754:3760   */\n          dup5\n            /* \"#utility.yul\":3749:3752   */\n          dup5\n            /* \"#utility.yul\":3745:3761   */\n          add\n            /* \"#utility.yul\":3738:3765   */\n          mstore\n            /* \"#utility.yul\":3674:3676   */\n        tag_81:\n            /* \"#utility.yul\":3523:3781   */\n          pop\n          pop\n          pop\n          pop\n          jump\t// out\n            /* \"#utility.yul\":3787:4107   */\n        tag_13:\n          0x00\n            /* \"#utility.yul\":3868:3869   */\n          0x02\n            /* \"#utility.yul\":3862:3866   */\n          dup3\n            /* \"#utility.yul\":3858:3870   */\n          div\n            /* \"#utility.yul\":3848:3870   */\n          swap1\n          pop\n            /* \"#utility.yul\":3915:3916   */\n          0x01\n            /* \"#utility.yul\":3909:3913   */\n          dup3\n            /* \"#utility.yul\":3905:3917   */\n          and\n            /* \"#utility.yul\":3936:3954   */\n          dup1\n            /* \"#utility.yul\":3926:3928   */\n          tag_83\n          jumpi\n            /* \"#utility.yul\":3992:3996   */\n          0x7f\n            /* \"#utility.yul\":3984:3990   */\n          dup3\n            /* \"#utility.yul\":3980:3997   */\n          and\n            /* \"#utility.yul\":3970:3997   */\n          swap2\n          pop\n            /* \"#utility.yul\":3926:3928   */\n        tag_83:\n            /* \"#utility.yul\":4054:4056   */\n          0x20\n            /* \"#utility.yul\":4046:4052   */\n          dup3\n            /* \"#utility.yul\":4043:4057   */\n          lt\n            /* \"#utility.yul\":4023:4041   */\n          dup2\n            /* \"#utility.yul\":4020:4058   */\n          eq\n            /* \"#utility.yul\":4017:4019   */\n          iszero\n          tag_84\n          jumpi\n            /* \"#utility.yul\":4073:4091   */\n          tag_85\n          tag_86\n          jump\t// in\n        tag_85:\n            /* \"#utility.yul\":4017:4019   */\n        tag_84:\n            /* \"#utility.yul\":3838:4107   */\n          pop\n          swap2\n          swap1\n          pop\n          jump\t// out\n            /* \"#utility.yul\":4113:4394   */\n        tag_62:\n            /* \"#utility.yul\":4196:4223   */\n          tag_88\n            /* \"#utility.yul\":4218:4222   */\n          dup3\n            /* \"#utility.yul\":4196:4223   */\n          tag_69\n          jump\t// in\n        tag_88:\n            /* \"#utility.yul\":4188:4194   */\n          dup2\n            /* \"#utility.yul\":4184:4224   */\n          add\n            /* \"#utility.yul\":4326:4332   */\n          dup2\n            /* \"#utility.yul\":4314:4324   */\n          dup2\n            /* \"#utility.yul\":4311:4333   */\n          lt\n            /* \"#utility.yul\":4290:4308   */\n          0xffffffffffffffff\n            /* \"#utility.yul\":4278:4288   */\n          dup3\n            /* \"#utility.yul\":4275:4309   */\n          gt\n            /* \"#utility.yul\":4272:4334   */\n          or\n            /* \"#utility.yul\":4269:4271   */\n          iszero\n          tag_89\n          jumpi\n            /* \"#utility.yul\":4337:4355   */\n          tag_90\n          tag_67\n          jump\t// in\n        tag_90:\n            /* \"#utility.yul\":4269:4271   */\n        tag_89:\n            /* \"#utility.yul\":4377:4387   */\n          dup1\n            /* \"#utility.yul\":4373:4375   */\n          0x40\n            /* \"#utility.yul\":4366:4388   */\n          mstore\n            /* \"#utility.yul\":4156:4394   */\n          pop\n          pop\n          pop\n          jump\t// out\n            /* \"#utility.yul\":4400:4580   */\n        tag_86:\n            /* \"#utility.yul\":4448:4525   */\n          0x4e487b7100000000000000000000000000000000000000000000000000000000\n            /* \"#utility.yul\":4445:4446   */\n          0x00\n            /* \"#utility.yul\":4438:4526   */\n          mstore\n            /* \"#utility.yul\":4545:4549   */\n          0x22\n            /* \"#utility.yul\":4542:4543   */\n          0x04\n            /* \"#utility.yul\":4535:4550   */\n          mstore\n            /* \"#utility.yul\":4569:4573   */\n          0x24\n            /* \"#utility.yul\":4566:4567   */\n          0x00\n            /* \"#utility.yul\":4559:4574   */\n          revert\n            /* \"#utility.yul\":4586:4766   */\n        tag_67:\n            /* \"#utility.yul\":4634:4711   */\n          0x4e487b7100000000000000000000000000000000000000000000000000000000\n            /* \"#utility.yul\":4631:4632   */\n          0x00\n            /* \"#utility.yul\":4624:4712   */\n          mstore\n            /* \"#utility.yul\":4731:4735   */\n          0x41\n            /* \"#utility.yul\":4728:4729   */\n          0x04\n            /* \"#utility.yul\":4721:4736   */\n          mstore\n            /* \"#utility.yul\":4755:4759   */\n          0x24\n            /* \"#utility.yul\":4752:4753   */\n          0x00\n            /* \"#utility.yul\":4745:4760   */\n          revert\n            /* \"#utility.yul\":4772:4874   */\n        tag_69:\n          0x00\n            /* \"#utility.yul\":4864:4866   */\n          0x1f\n            /* \"#utility.yul\":4860:4867   */\n          not\n            /* \"#utility.yul\":4855:4857   */\n          0x1f\n            /* \"#utility.yul\":4848:4853   */\n          dup4\n            /* \"#utility.yul\":4844:4858   */\n          add\n            /* \"#utility.yul\":4840:4868   */\n          and\n            /* \"#utility.yul\":4830:4868   */\n          swap1\n          pop\n            /* \"#utility.yul\":4820:4874   */\n          swap2\n          swap1\n          pop\n          jump\t// out\n            /* \"#utility.yul\":4880:5002   */\n        tag_36:\n            /* \"#utility.yul\":4953:4977   */\n          tag_95\n            /* \"#utility.yul\":4971:4976   */\n          dup2\n            /* \"#utility.yul\":4953:4977   */\n          tag_70\n          jump\t// in\n        tag_95:\n            /* \"#utility.yul\":4946:4951   */\n          dup2\n            /* \"#utility.yul\":4943:4978   */\n          eq\n            /* \"#utility.yul\":4933:4935   */\n          tag_96\n          jumpi\n            /* \"#utility.yul\":4992:4993   */\n          0x00\n            /* \"#utility.yul\":4989:4990   */\n          dup1\n            /* \"#utility.yul\":4982:4994   */\n          revert\n            /* \"#utility.yul\":4933:4935   */\n        tag_96:\n            /* \"#utility.yul\":4923:5002   */\n          pop\n          jump\t// out\n            /* \"#utility.yul\":5008:5130   */\n        tag_44:\n            /* \"#utility.yul\":5081:5105   */\n          tag_98\n            /* \"#utility.yul\":5099:5104   */\n          dup2\n            /* \"#utility.yul\":5081:5105   */\n          tag_75\n          jump\t// in\n        tag_98:\n            /* \"#utility.yul\":5074:5079   */\n          dup2\n            /* \"#utility.yul\":5071:5106   */\n          eq\n            /* \"#utility.yul\":5061:5063   */\n          tag_99\n          jumpi\n            /* \"#utility.yul\":5120:5121   */\n          0x00\n            /* \"#utility.yul\":5117:5118   */\n          dup1\n            /* \"#utility.yul\":5110:5122   */\n          revert\n            /* \"#utility.yul\":5061:5063   */\n        tag_99:\n            /* \"#utility.yul\":5051:5130   */\n          pop\n          jump\t// out\n            /* \"Idea.sol\":513:3845  contract Idea {... */\n        tag_11:\n          dataSize(sub_0)\n          dup1\n          dataOffset(sub_0)\n          0x00\n          codecopy\n          0x00\n          return\n        stop\n\n        sub_0: assembly {\n                /* \"Idea.sol\":513:3845  contract Idea {... */\n              mstore(0x40, 0x80)\n              jumpi(tag_1, lt(calldatasize, 0x04))\n              shr(0xe0, calldataload(0x00))\n              dup1\n              0x59af7a13\n              gt\n              tag_19\n              jumpi\n              dup1\n              0x8a9cfd55\n              gt\n              tag_20\n              jumpi\n              dup1\n              0x8a9cfd55\n              eq\n              tag_14\n              jumpi\n              dup1\n              0x9fb42b1f\n              eq\n              tag_15\n              jumpi\n              dup1\n              0xb90497e0\n              eq\n              tag_16\n              jumpi\n              dup1\n              0xd7bb99ba\n              eq\n              tag_17\n              jumpi\n              dup1\n              0xd7d1bbdb\n              eq\n              tag_18\n              jumpi\n              jump(tag_1)\n            tag_20:\n              dup1\n              0x59af7a13\n              eq\n              tag_10\n              jumpi\n              dup1\n              0x7284e416\n              eq\n              tag_11\n              jumpi\n              dup1\n              0x7554e42f\n              eq\n              tag_12\n              jumpi\n              dup1\n              0x81d12c58\n              eq\n              tag_13\n              jumpi\n              jump(tag_1)\n            tag_19:\n              dup1\n              0x1da98960\n              gt\n              tag_21\n              jumpi\n              dup1\n              0x1da98960\n              eq\n              tag_6\n              jumpi\n              dup1\n              0x26540fd2\n              eq\n              tag_7\n              jumpi\n              dup1\n              0x4051ddac\n              eq\n              tag_8\n              jumpi\n              dup1\n              0x481c6a75\n              eq\n              tag_9\n              jumpi\n              jump(tag_1)\n            tag_21:\n              dup1\n              0x03441006\n              eq\n              tag_2\n              jumpi\n              dup1\n              0x06fdde03\n              eq\n              tag_3\n              jumpi\n              dup1\n              0x09e7d837\n              eq\n              tag_4\n              jumpi\n              dup1\n              0x0a144391\n              eq\n              tag_5\n              jumpi\n            tag_1:\n              0x00\n              dup1\n              revert\n                /* \"Idea.sol\":3036:3327  function finalizeRequest(uint index) public allowOnlyManager {... */\n            tag_2:\n              callvalue\n              dup1\n              iszero\n              tag_22\n              jumpi\n              0x00\n              dup1\n              revert\n            tag_22:\n              pop\n              tag_23\n              0x04\n              dup1\n              calldatasize\n              sub\n              dup2\n              add\n              swap1\n              tag_24\n              swap2\n              swap1\n              tag_25\n              jump\t// in\n            tag_24:\n              tag_26\n              jump\t// in\n            tag_23:\n              stop\n                /* \"Idea.sol\":765:783  string public name */\n            tag_3:\n              callvalue\n              dup1\n              iszero\n              tag_27\n              jumpi\n              0x00\n              dup1\n              revert\n            tag_27:\n              pop\n              tag_28\n              tag_29\n              jump\t// in\n            tag_28:\n              mload(0x40)\n              tag_30\n              swap2\n              swap1\n              tag_31\n              jump\t// in\n            tag_30:\n              mload(0x40)\n              dup1\n              swap2\n              sub\n              swap1\n              return\n                /* \"Idea.sol\":1165:1186  uint public reachGoal */\n            tag_4:\n              callvalue\n              dup1\n              iszero\n              tag_32\n              jumpi\n              0x00\n              dup1\n              revert\n            tag_32:\n              pop\n              tag_33\n              tag_34\n              jump\t// in\n            tag_33:\n              mload(0x40)\n              tag_35\n              swap2\n              swap1\n              tag_36\n              jump\t// in\n            tag_35:\n              mload(0x40)\n              dup1\n              swap2\n              sub\n              swap1\n              return\n                /* \"Idea.sol\":1059:1100  mapping(address => uint) public approvers */\n            tag_5:\n              callvalue\n              dup1\n              iszero\n              tag_37\n              jumpi\n              0x00\n              dup1\n              revert\n            tag_37:\n              pop\n              tag_38\n              0x04\n              dup1\n              calldatasize\n              sub\n              dup2\n              add\n              swap1\n              tag_39\n              swap2\n              swap1\n              tag_40\n              jump\t// in\n            tag_39:\n              tag_41\n              jump\t// in\n            tag_38:\n              mload(0x40)\n              tag_42\n              swap2\n              swap1\n              tag_36\n              jump\t// in\n            tag_42:\n              mload(0x40)\n              dup1\n              swap2\n              sub\n              swap1\n              return\n                /* \"Idea.sol\":789:819  string public shortDescription */\n            tag_6:\n              callvalue\n              dup1\n              iszero\n              tag_43\n              jumpi\n              0x00\n              dup1\n              revert\n            tag_43:\n              pop\n              tag_44\n              tag_45\n              jump\t// in\n            tag_44:\n              mload(0x40)\n              tag_46\n              swap2\n              swap1\n              tag_31\n              jump\t// in\n            tag_46:\n              mload(0x40)\n              dup1\n              swap2\n              sub\n              swap1\n              return\n                /* \"Idea.sol\":1139:1158  uint public credits */\n            tag_7:\n              callvalue\n              dup1\n              iszero\n              tag_47\n              jumpi\n              0x00\n              dup1\n              revert\n            tag_47:\n              pop\n              tag_48\n              tag_49\n              jump\t// in\n            tag_48:\n              mload(0x40)\n              tag_50\n              swap2\n              swap1\n              tag_36\n              jump\t// in\n            tag_50:\n              mload(0x40)\n              dup1\n              swap2\n              sub\n              swap1\n              return\n                /* \"Idea.sol\":3337:3843  function getSummary() public view returns (... */\n            tag_8:\n              callvalue\n              dup1\n              iszero\n              tag_51\n              jumpi\n              0x00\n              dup1\n              revert\n            tag_51:\n              pop\n              tag_52\n              tag_53\n              jump\t// in\n            tag_52:\n              mload(0x40)\n              tag_54\n              swap13\n              swap12\n              swap11\n              swap10\n              swap9\n              swap8\n              swap7\n              swap6\n              swap5\n              swap4\n              swap3\n              swap2\n              swap1\n              tag_55\n              jump\t// in\n            tag_54:\n              mload(0x40)\n              dup1\n              swap2\n              sub\n              swap1\n              return\n                /* \"Idea.sol\":990:1012  address public manager */\n            tag_9:\n              callvalue\n              dup1\n              iszero\n              tag_56\n              jumpi\n              0x00\n              dup1\n              revert\n            tag_56:\n              pop\n              tag_57\n              tag_58\n              jump\t// in\n            tag_57:\n              mload(0x40)\n              tag_59\n              swap2\n              swap1\n              tag_60\n              jump\t// in\n            tag_59:\n              mload(0x40)\n              dup1\n              swap2\n              sub\n              swap1\n              return\n                /* \"Idea.sol\":1107:1133  uint public oneCreditValue */\n            tag_10:\n              callvalue\n              dup1\n              iszero\n              tag_61\n              jumpi\n              0x00\n              dup1\n              revert\n            tag_61:\n              pop\n              tag_62\n              tag_63\n              jump\t// in\n            tag_62:\n              mload(0x40)\n              tag_64\n              swap2\n              swap1\n              tag_36\n              jump\t// in\n            tag_64:\n              mload(0x40)\n              dup1\n              swap2\n              sub\n              swap1\n              return\n                /* \"Idea.sol\":825:850  string public description */\n            tag_11:\n              callvalue\n              dup1\n              iszero\n              tag_65\n              jumpi\n              0x00\n              dup1\n              revert\n            tag_65:\n              pop\n              tag_66\n              tag_67\n              jump\t// in\n            tag_66:\n              mload(0x40)\n              tag_68\n              swap2\n              swap1\n              tag_31\n              jump\t// in\n            tag_68:\n              mload(0x40)\n              dup1\n              swap2\n              sub\n              swap1\n              return\n                /* \"Idea.sol\":1023:1053  uint public numUniqueApprovers */\n            tag_12:\n              callvalue\n              dup1\n              iszero\n              tag_69\n              jumpi\n              0x00\n              dup1\n              revert\n            tag_69:\n              pop\n              tag_70\n              tag_71\n              jump\t// in\n            tag_70:\n              mload(0x40)\n              tag_72\n              swap2\n              swap1\n              tag_36\n              jump\t// in\n            tag_72:\n              mload(0x40)\n              dup1\n              swap2\n              sub\n              swap1\n              return\n                /* \"Idea.sol\":938:979  mapping (uint => Request) public requests */\n            tag_13:\n              callvalue\n              dup1\n              iszero\n              tag_73\n              jumpi\n              0x00\n              dup1\n              revert\n            tag_73:\n              pop\n              tag_74\n              0x04\n              dup1\n              calldatasize\n              sub\n              dup2\n              add\n              swap1\n              tag_75\n              swap2\n              swap1\n              tag_25\n              jump\t// in\n            tag_75:\n              tag_76\n              jump\t// in\n            tag_74:\n              mload(0x40)\n              tag_77\n              swap7\n              swap6\n              swap5\n              swap4\n              swap3\n              swap2\n              swap1\n              tag_78\n              jump\t// in\n            tag_77:\n              mload(0x40)\n              dup1\n              swap2\n              sub\n              swap1\n              return\n                /* \"Idea.sol\":2370:2728  function createRequest(string memory description, uint value, address payable recipient) public allowOnlyManager {... */\n            tag_14:\n              callvalue\n              dup1\n              iszero\n              tag_79\n              jumpi\n              0x00\n              dup1\n              revert\n            tag_79:\n              pop\n              tag_80\n              0x04\n              dup1\n              calldatasize\n              sub\n              dup2\n              add\n              swap1\n              tag_81\n              swap2\n              swap1\n              tag_82\n              jump\t// in\n            tag_81:\n              tag_83\n              jump\t// in\n            tag_80:\n              stop\n                /* \"Idea.sol\":909:932  uint public numRequests */\n            tag_15:\n              callvalue\n              dup1\n              iszero\n              tag_84\n              jumpi\n              0x00\n              dup1\n              revert\n            tag_84:\n              pop\n              tag_85\n              tag_86\n              jump\t// in\n            tag_85:\n              mload(0x40)\n              tag_87\n              swap2\n              swap1\n              tag_36\n              jump\t// in\n            tag_87:\n              mload(0x40)\n              dup1\n              swap2\n              sub\n              swap1\n              return\n                /* \"Idea.sol\":856:878  string public imageURL */\n            tag_16:\n              callvalue\n              dup1\n              iszero\n              tag_88\n              jumpi\n              0x00\n              dup1\n              revert\n            tag_88:\n              pop\n              tag_89\n              tag_90\n              jump\t// in\n            tag_89:\n              mload(0x40)\n              tag_91\n              swap2\n              swap1\n              tag_31\n              jump\t// in\n            tag_91:\n              mload(0x40)\n              dup1\n              swap2\n              sub\n              swap1\n              return\n                /* \"Idea.sol\":1773:2360  function contribute() public payable {... */\n            tag_17:\n              tag_92\n              tag_93\n              jump\t// in\n            tag_92:\n              stop\n                /* \"Idea.sol\":2738:3030  function approveRequest(uint index) public {... */\n            tag_18:\n              callvalue\n              dup1\n              iszero\n              tag_94\n              jumpi\n              0x00\n              dup1\n              revert\n            tag_94:\n              pop\n              tag_95\n              0x04\n              dup1\n              calldatasize\n              sub\n              dup2\n              add\n              swap1\n              tag_96\n              swap2\n              swap1\n              tag_25\n              jump\t// in\n            tag_96:\n              tag_97\n              jump\t// in\n            tag_95:\n              stop\n                /* \"Idea.sol\":3036:3327  function finalizeRequest(uint index) public allowOnlyManager {... */\n            tag_26:\n                /* \"Idea.sol\":1253:1260  manager */\n              0x07\n              0x00\n              swap1\n              sload\n              swap1\n              0x0100\n              exp\n              swap1\n              div\n              0xffffffffffffffffffffffffffffffffffffffff\n              and\n                /* \"Idea.sol\":1239:1260  msg.sender == manager */\n              0xffffffffffffffffffffffffffffffffffffffff\n              and\n                /* \"Idea.sol\":1239:1249  msg.sender */\n              caller\n                /* \"Idea.sol\":1239:1260  msg.sender == manager */\n              0xffffffffffffffffffffffffffffffffffffffff\n              and\n              eq\n                /* \"Idea.sol\":1231:1261  require(msg.sender == manager) */\n              tag_99\n              jumpi\n              0x00\n              dup1\n              revert\n            tag_99:\n                /* \"Idea.sol\":3107:3130  Request storage request */\n              0x00\n                /* \"Idea.sol\":3133:3141  requests */\n              0x06\n                /* \"Idea.sol\":3133:3148  requests[index] */\n              0x00\n                /* \"Idea.sol\":3142:3147  index */\n              dup4\n                /* \"Idea.sol\":3133:3148  requests[index] */\n              dup2\n              mstore\n              0x20\n              add\n              swap1\n              dup2\n              mstore\n              0x20\n              add\n              0x00\n              keccak256\n                /* \"Idea.sol\":3107:3148  Request storage request = requests[index] */\n              swap1\n              pop\n                /* \"Idea.sol\":3196:3197  2 */\n              0x02\n                /* \"Idea.sol\":3186:3193  credits */\n              sload(0x0b)\n                /* \"Idea.sol\":3186:3197  credits / 2 */\n              tag_101\n              swap2\n              swap1\n              tag_102\n              jump\t// in\n            tag_101:\n                /* \"Idea.sol\":3167:3174  request */\n              dup2\n                /* \"Idea.sol\":3167:3182  request.credits */\n              0x03\n              add\n              sload\n                /* \"Idea.sol\":3167:3198  request.credits > (credits / 2) */\n              gt\n                /* \"Idea.sol\":3159:3199  require(request.credits > (credits / 2)) */\n              tag_103\n              jumpi\n              0x00\n              dup1\n              revert\n            tag_103:\n                /* \"Idea.sol\":3218:3225  request */\n              dup1\n                /* \"Idea.sol\":3218:3234  request.complete */\n              0x02\n              add\n              0x14\n              swap1\n              sload\n              swap1\n              0x0100\n              exp\n              swap1\n              div\n              0xff\n              and\n                /* \"Idea.sol\":3217:3234  !request.complete */\n              iszero\n                /* \"Idea.sol\":3209:3235  require(!request.complete) */\n              tag_104\n              jumpi\n              0x00\n              dup1\n              revert\n            tag_104:\n                /* \"Idea.sol\":3246:3253  request */\n              dup1\n                /* \"Idea.sol\":3246:3263  request.recipient */\n              0x02\n              add\n              0x00\n              swap1\n              sload\n              swap1\n              0x0100\n              exp\n              swap1\n              div\n              0xffffffffffffffffffffffffffffffffffffffff\n              and\n                /* \"Idea.sol\":3246:3272  request.recipient.transfer */\n              0xffffffffffffffffffffffffffffffffffffffff\n              and\n                /* \"Idea.sol\":3246:3287  request.recipient.transfer(request.value) */\n              0x08fc\n                /* \"Idea.sol\":3273:3280  request */\n              dup3\n                /* \"Idea.sol\":3273:3286  request.value */\n              0x01\n              add\n              sload\n                /* \"Idea.sol\":3246:3287  request.recipient.transfer(request.value) */\n              swap1\n              dup2\n              iszero\n              mul\n              swap1\n              mload(0x40)\n              0x00\n              mload(0x40)\n              dup1\n              dup4\n              sub\n              dup2\n              dup6\n              dup9\n              dup9\n              call\n              swap4\n              pop\n              pop\n              pop\n              pop\n              iszero\n              dup1\n              iszero\n              tag_106\n              jumpi\n              returndatasize\n              0x00\n              dup1\n              returndatacopy\n              revert(0x00, returndatasize)\n            tag_106:\n              pop\n                /* \"Idea.sol\":3316:3320  true */\n              0x01\n                /* \"Idea.sol\":3297:3304  request */\n              dup2\n                /* \"Idea.sol\":3297:3313  request.complete */\n              0x02\n              add\n              0x14\n                /* \"Idea.sol\":3297:3320  request.complete = true */\n              0x0100\n              exp\n              dup2\n              sload\n              dup2\n              0xff\n              mul\n              not\n              and\n              swap1\n              dup4\n              iszero\n              iszero\n              mul\n              or\n              swap1\n              sstore\n              pop\n                /* \"Idea.sol\":1271:1272  _ */\n              pop\n                /* \"Idea.sol\":3036:3327  function finalizeRequest(uint index) public allowOnlyManager {... */\n              pop\n              jump\t// out\n                /* \"Idea.sol\":765:783  string public name */\n            tag_29:\n              0x00\n              dup1\n              sload\n              tag_107\n              swap1\n              tag_108\n              jump\t// in\n            tag_107:\n              dup1\n              0x1f\n              add\n              0x20\n              dup1\n              swap2\n              div\n              mul\n              0x20\n              add\n              mload(0x40)\n              swap1\n              dup2\n              add\n              0x40\n              mstore\n              dup1\n              swap3\n              swap2\n              swap1\n              dup2\n              dup2\n              mstore\n              0x20\n              add\n              dup3\n              dup1\n              sload\n              tag_109\n              swap1\n              tag_108\n              jump\t// in\n            tag_109:\n              dup1\n              iszero\n              tag_110\n              jumpi\n              dup1\n              0x1f\n              lt\n              tag_111\n              jumpi\n              0x0100\n              dup1\n              dup4\n              sload\n              div\n              mul\n              dup4\n              mstore\n              swap2\n              0x20\n              add\n              swap2\n              jump(tag_110)\n            tag_111:\n              dup3\n              add\n              swap2\n              swap1\n              0x00\n              mstore\n              keccak256(0x00, 0x20)\n              swap1\n            tag_112:\n              dup2\n              sload\n              dup2\n              mstore\n              swap1\n              0x01\n              add\n              swap1\n              0x20\n              add\n              dup1\n              dup4\n              gt\n              tag_112\n              jumpi\n              dup3\n              swap1\n              sub\n              0x1f\n              and\n              dup3\n              add\n              swap2\n            tag_110:\n              pop\n              pop\n              pop\n              pop\n              pop\n              dup2\n              jump\t// out\n                /* \"Idea.sol\":1165:1186  uint public reachGoal */\n            tag_34:\n              sload(0x0c)\n              dup2\n              jump\t// out\n                /* \"Idea.sol\":1059:1100  mapping(address => uint) public approvers */\n            tag_41:\n              mstore(0x20, 0x09)\n              dup1\n              0x00\n              mstore\n              keccak256(0x00, 0x40)\n              0x00\n              swap2\n              pop\n              swap1\n              pop\n              sload\n              dup2\n              jump\t// out\n                /* \"Idea.sol\":789:819  string public shortDescription */\n            tag_45:\n              0x01\n              dup1\n              sload\n              tag_113\n              swap1\n              tag_108\n              jump\t// in\n            tag_113:\n              dup1\n              0x1f\n              add\n              0x20\n              dup1\n              swap2\n              div\n              mul\n              0x20\n              add\n              mload(0x40)\n              swap1\n              dup2\n              add\n              0x40\n              mstore\n              dup1\n              swap3\n              swap2\n              swap1\n              dup2\n              dup2\n              mstore\n              0x20\n              add\n              dup3\n              dup1\n              sload\n              tag_114\n              swap1\n              tag_108\n              jump\t// in\n            tag_114:\n              dup1\n              iszero\n              tag_115\n              jumpi\n              dup1\n              0x1f\n              lt\n              tag_116\n              jumpi\n              0x0100\n              dup1\n              dup4\n              sload\n              div\n              mul\n              dup4\n              mstore\n              swap2\n              0x20\n              add\n              swap2\n              jump(tag_115)\n            tag_116:\n              dup3\n              add\n              swap2\n              swap1\n              0x00\n              mstore\n              keccak256(0x00, 0x20)\n              swap1\n            tag_117:\n              dup2\n              sload\n              dup2\n              mstore\n              swap1\n              0x01\n              add\n              swap1\n              0x20\n              add\n              dup1\n              dup4\n              gt\n              tag_117\n              jumpi\n              dup3\n              swap1\n              sub\n              0x1f\n              and\n              dup3\n              add\n              swap2\n            tag_115:\n              pop\n              pop\n              pop\n              pop\n              pop\n              dup2\n              jump\t// out\n                /* \"Idea.sol\":1139:1158  uint public credits */\n            tag_49:\n              sload(0x0b)\n              dup2\n              jump\t// out\n                /* \"Idea.sol\":3337:3843  function getSummary() public view returns (... */\n            tag_53:\n                /* \"Idea.sol\":3387:3400  string memory */\n              0x60\n                /* \"Idea.sol\":3402:3415  string memory */\n              dup1\n                /* \"Idea.sol\":3417:3430  string memory */\n              0x60\n                /* \"Idea.sol\":3432:3445  string memory */\n              dup1\n                /* \"Idea.sol\":3447:3451  uint */\n              0x00\n                /* \"Idea.sol\":3453:3457  uint */\n              dup1\n                /* \"Idea.sol\":3459:3463  uint */\n              0x00\n                /* \"Idea.sol\":3465:3469  uint */\n              dup1\n                /* \"Idea.sol\":3471:3478  address */\n              0x00\n                /* \"Idea.sol\":3480:3487  address */\n              dup1\n                /* \"Idea.sol\":3489:3496  uint256 */\n              0x00\n                /* \"Idea.sol\":3498:3502  uint */\n              dup1\n                /* \"Idea.sol\":3542:3546  name */\n              0x00\n                /* \"Idea.sol\":3560:3576  shortDescription */\n              0x01\n                /* \"Idea.sol\":3590:3601  description */\n              0x02\n                /* \"Idea.sol\":3615:3623  imageURL */\n              0x03\n                /* \"Idea.sol\":3637:3651  oneCreditValue */\n              sload(0x0a)\n                /* \"Idea.sol\":3665:3686  address(this).balance */\n              selfbalance\n                /* \"Idea.sol\":3700:3711  numRequests */\n              sload(0x05)\n                /* \"Idea.sol\":3725:3732  credits */\n              sload(0x0b)\n                /* \"Idea.sol\":3754:3758  this */\n              address\n                /* \"Idea.sol\":3773:3780  manager */\n              0x07\n              0x00\n              swap1\n              sload\n              swap1\n              0x0100\n              exp\n              swap1\n              div\n              0xffffffffffffffffffffffffffffffffffffffff\n              and\n                /* \"Idea.sol\":3794:3803  createdAt */\n              sload(0x04)\n                /* \"Idea.sol\":3817:3826  reachGoal */\n              sload(0x0c)\n                /* \"Idea.sol\":3521:3836  return (... */\n              dup12\n              dup1\n              sload\n              tag_119\n              swap1\n              tag_108\n              jump\t// in\n            tag_119:\n              dup1\n              0x1f\n              add\n              0x20\n              dup1\n              swap2\n              div\n              mul\n              0x20\n              add\n              mload(0x40)\n              swap1\n              dup2\n              add\n              0x40\n              mstore\n              dup1\n              swap3\n              swap2\n              swap1\n              dup2\n              dup2\n              mstore\n              0x20\n              add\n              dup3\n              dup1\n              sload\n              tag_120\n              swap1\n              tag_108\n              jump\t// in\n            tag_120:\n              dup1\n              iszero\n              tag_121\n              jumpi\n              dup1\n              0x1f\n              lt\n              tag_122\n              jumpi\n              0x0100\n              dup1\n              dup4\n              sload\n              div\n              mul\n              dup4\n              mstore\n              swap2\n              0x20\n              add\n              swap2\n              jump(tag_121)\n            tag_122:\n              dup3\n              add\n              swap2\n              swap1\n              0x00\n              mstore\n              keccak256(0x00, 0x20)\n              swap1\n            tag_123:\n              dup2\n              sload\n              dup2\n              mstore\n              swap1\n              0x01\n              add\n              swap1\n              0x20\n              add\n              dup1\n              dup4\n              gt\n              tag_123\n              jumpi\n              dup3\n              swap1\n              sub\n              0x1f\n              and\n              dup3\n              add\n              swap2\n            tag_121:\n              pop\n              pop\n              pop\n              pop\n              pop\n              swap12\n              pop\n              dup11\n              dup1\n              sload\n              tag_124\n              swap1\n              tag_108\n              jump\t// in\n            tag_124:\n              dup1\n              0x1f\n              add\n              0x20\n              dup1\n              swap2\n              div\n              mul\n              0x20\n              add\n              mload(0x40)\n              swap1\n              dup2\n              add\n              0x40\n              mstore\n              dup1\n              swap3\n              swap2\n              swap1\n              dup2\n              dup2\n              mstore\n              0x20\n              add\n              dup3\n              dup1\n              sload\n              tag_125\n              swap1\n              tag_108\n              jump\t// in\n            tag_125:\n              dup1\n              iszero\n              tag_126\n              jumpi\n              dup1\n              0x1f\n              lt\n              tag_127\n              jumpi\n              0x0100\n              dup1\n              dup4\n              sload\n              div\n              mul\n              dup4\n              mstore\n              swap2\n              0x20\n              add\n              swap2\n              jump(tag_126)\n            tag_127:\n              dup3\n              add\n              swap2\n              swap1\n              0x00\n              mstore\n              keccak256(0x00, 0x20)\n              swap1\n            tag_128:\n              dup2\n              sload\n              dup2\n              mstore\n              swap1\n              0x01\n              add\n              swap1\n              0x20\n              add\n              dup1\n              dup4\n              gt\n              tag_128\n              jumpi\n              dup3\n              swap1\n              sub\n              0x1f\n              and\n              dup3\n              add\n              swap2\n            tag_126:\n              pop\n              pop\n              pop\n              pop\n              pop\n              swap11\n              pop\n              dup10\n              dup1\n              sload\n              tag_129\n              swap1\n              tag_108\n              jump\t// in\n            tag_129:\n              dup1\n              0x1f\n              add\n              0x20\n              dup1\n              swap2\n              div\n              mul\n              0x20\n              add\n              mload(0x40)\n              swap1\n              dup2\n              add\n              0x40\n              mstore\n              dup1\n              swap3\n              swap2\n              swap1\n              dup2\n              dup2\n              mstore\n              0x20\n              add\n              dup3\n              dup1\n              sload\n              tag_130\n              swap1\n              tag_108\n              jump\t// in\n            tag_130:\n              dup1\n              iszero\n              tag_131\n              jumpi\n              dup1\n              0x1f\n              lt\n              tag_132\n              jumpi\n              0x0100\n              dup1\n              dup4\n              sload\n              div\n              mul\n              dup4\n              mstore\n              swap2\n              0x20\n              add\n              swap2\n              jump(tag_131)\n            tag_132:\n              dup3\n              add\n              swap2\n              swap1\n              0x00\n              mstore\n              keccak256(0x00, 0x20)\n              swap1\n            tag_133:\n              dup2\n              sload\n              dup2\n              mstore\n              swap1\n              0x01\n              add\n              swap1\n              0x20\n              add\n              dup1\n              dup4\n              gt\n              tag_133\n              jumpi\n              dup3\n              swap1\n              sub\n              0x1f\n              and\n              dup3\n              add\n              swap2\n            tag_131:\n              pop\n              pop\n              pop\n              pop\n              pop\n              swap10\n              pop\n              dup9\n              dup1\n              sload\n              tag_134\n              swap1\n              tag_108\n              jump\t// in\n            tag_134:\n              dup1\n              0x1f\n              add\n              0x20\n              dup1\n              swap2\n              div\n              mul\n              0x20\n              add\n              mload(0x40)\n              swap1\n              dup2\n              add\n              0x40\n              mstore\n              dup1\n              swap3\n              swap2\n              swap1\n              dup2\n              dup2\n              mstore\n              0x20\n              add\n              dup3\n              dup1\n              sload\n              tag_135\n              swap1\n              tag_108\n              jump\t// in\n            tag_135:\n              dup1\n              iszero\n              tag_136\n              jumpi\n              dup1\n              0x1f\n              lt\n              tag_137\n              jumpi\n              0x0100\n              dup1\n              dup4\n              sload\n              div\n              mul\n              dup4\n              mstore\n              swap2\n              0x20\n              add\n              swap2\n              jump(tag_136)\n            tag_137:\n              dup3\n              add\n              swap2\n              swap1\n              0x00\n              mstore\n              keccak256(0x00, 0x20)\n              swap1\n            tag_138:\n              dup2\n              sload\n              dup2\n              mstore\n              swap1\n              0x01\n              add\n              swap1\n              0x20\n              add\n              dup1\n              dup4\n              gt\n              tag_138\n              jumpi\n              dup3\n              swap1\n              sub\n              0x1f\n              and\n              dup3\n              add\n              swap2\n            tag_136:\n              pop\n              pop\n              pop\n              pop\n              pop\n              swap9\n              pop\n              swap12\n              pop\n              swap12\n              pop\n              swap12\n              pop\n              swap12\n              pop\n              swap12\n              pop\n              swap12\n              pop\n              swap12\n              pop\n              swap12\n              pop\n              swap12\n              pop\n              swap12\n              pop\n              swap12\n              pop\n              swap12\n              pop\n                /* \"Idea.sol\":3337:3843  function getSummary() public view returns (... */\n              swap1\n              swap2\n              swap3\n              swap4\n              swap5\n              swap6\n              swap7\n              swap8\n              swap9\n              swap10\n              swap11\n              swap12\n              jump\t// out\n                /* \"Idea.sol\":990:1012  address public manager */\n            tag_58:\n              0x07\n              0x00\n              swap1\n              sload\n              swap1\n              0x0100\n              exp\n              swap1\n              div\n              0xffffffffffffffffffffffffffffffffffffffff\n              and\n              dup2\n              jump\t// out\n                /* \"Idea.sol\":1107:1133  uint public oneCreditValue */\n            tag_63:\n              sload(0x0a)\n              dup2\n              jump\t// out\n                /* \"Idea.sol\":825:850  string public description */\n            tag_67:\n              0x02\n              dup1\n              sload\n              tag_139\n              swap1\n              tag_108\n              jump\t// in\n            tag_139:\n              dup1\n              0x1f\n              add\n              0x20\n              dup1\n              swap2\n              div\n              mul\n              0x20\n              add\n              mload(0x40)\n              swap1\n              dup2\n              add\n              0x40\n              mstore\n              dup1\n              swap3\n              swap2\n              swap1\n              dup2\n              dup2\n              mstore\n              0x20\n              add\n              dup3\n              dup1\n              sload\n              tag_140\n              swap1\n              tag_108\n              jump\t// in\n            tag_140:\n              dup1\n              iszero\n              tag_141\n              jumpi\n              dup1\n              0x1f\n              lt\n              tag_142\n              jumpi\n              0x0100\n              dup1\n              dup4\n              sload\n              div\n              mul\n              dup4\n              mstore\n              swap2\n              0x20\n              add\n              swap2\n              jump(tag_141)\n            tag_142:\n              dup3\n              add\n              swap2\n              swap1\n              0x00\n              mstore\n              keccak256(0x00, 0x20)\n              swap1\n            tag_143:\n              dup2\n              sload\n              dup2\n              mstore\n              swap1\n              0x01\n              add\n              swap1\n              0x20\n              add\n              dup1\n              dup4\n              gt\n              tag_143\n              jumpi\n              dup3\n              swap1\n              sub\n              0x1f\n              and\n              dup3\n              add\n              swap2\n            tag_141:\n              pop\n              pop\n              pop\n              pop\n              pop\n              dup2\n              jump\t// out\n                /* \"Idea.sol\":1023:1053  uint public numUniqueApprovers */\n            tag_71:\n              sload(0x08)\n              dup2\n              jump\t// out\n                /* \"Idea.sol\":938:979  mapping (uint => Request) public requests */\n            tag_76:\n              mstore(0x20, 0x06)\n              dup1\n              0x00\n              mstore\n              keccak256(0x00, 0x40)\n              0x00\n              swap2\n              pop\n              swap1\n              pop\n              dup1\n              0x00\n              add\n              dup1\n              sload\n              tag_144\n              swap1\n              tag_108\n              jump\t// in\n            tag_144:\n              dup1\n              0x1f\n              add\n              0x20\n              dup1\n              swap2\n              div\n              mul\n              0x20\n              add\n              mload(0x40)\n              swap1\n              dup2\n              add\n              0x40\n              mstore\n              dup1\n              swap3\n              swap2\n              swap1\n              dup2\n              dup2\n              mstore\n              0x20\n              add\n              dup3\n              dup1\n              sload\n              tag_145\n              swap1\n              tag_108\n              jump\t// in\n            tag_145:\n              dup1\n              iszero\n              tag_146\n              jumpi\n              dup1\n              0x1f\n              lt\n              tag_147\n              jumpi\n              0x0100\n              dup1\n              dup4\n              sload\n              div\n              mul\n              dup4\n              mstore\n              swap2\n              0x20\n              add\n              swap2\n              jump(tag_146)\n            tag_147:\n              dup3\n              add\n              swap2\n              swap1\n              0x00\n              mstore\n              keccak256(0x00, 0x20)\n              swap1\n            tag_148:\n              dup2\n              sload\n              dup2\n              mstore\n              swap1\n              0x01\n              add\n              swap1\n              0x20\n              add\n              dup1\n              dup4\n              gt\n              tag_148\n              jumpi\n              dup3\n              swap1\n              sub\n              0x1f\n              and\n              dup3\n              add\n              swap2\n            tag_146:\n              pop\n              pop\n              pop\n              pop\n              pop\n              swap1\n              dup1\n              0x01\n              add\n              sload\n              swap1\n              dup1\n              0x02\n              add\n              0x00\n              swap1\n              sload\n              swap1\n              0x0100\n              exp\n              swap1\n              div\n              0xffffffffffffffffffffffffffffffffffffffff\n              and\n              swap1\n              dup1\n              0x02\n              add\n              0x14\n              swap1\n              sload\n              swap1\n              0x0100\n              exp\n              swap1\n              div\n              0xff\n              and\n              swap1\n              dup1\n              0x03\n              add\n              sload\n              swap1\n              dup1\n              0x04\n              add\n              sload\n              swap1\n              pop\n              dup7\n              jump\t// out\n                /* \"Idea.sol\":2370:2728  function createRequest(string memory description, uint value, address payable recipient) public allowOnlyManager {... */\n            tag_83:\n                /* \"Idea.sol\":1253:1260  manager */\n              0x07\n              0x00\n              swap1\n              sload\n              swap1\n              0x0100\n              exp\n              swap1\n              div\n              0xffffffffffffffffffffffffffffffffffffffff\n              and\n                /* \"Idea.sol\":1239:1260  msg.sender == manager */\n              0xffffffffffffffffffffffffffffffffffffffff\n              and\n                /* \"Idea.sol\":1239:1249  msg.sender */\n              caller\n                /* \"Idea.sol\":1239:1260  msg.sender == manager */\n              0xffffffffffffffffffffffffffffffffffffffff\n              and\n              eq\n                /* \"Idea.sol\":1231:1261  require(msg.sender == manager) */\n              tag_150\n              jumpi\n              0x00\n              dup1\n              revert\n            tag_150:\n                /* \"Idea.sol\":2493:2510  Request storage r */\n              0x00\n                /* \"Idea.sol\":2513:2521  requests */\n              0x06\n                /* \"Idea.sol\":2513:2536  requests[numRequests++] */\n              0x00\n                /* \"Idea.sol\":2522:2533  numRequests */\n              0x05\n              0x00\n                /* \"Idea.sol\":2522:2535  numRequests++ */\n              dup2\n              sload\n              dup1\n              swap3\n              swap2\n              swap1\n              tag_152\n              swap1\n              tag_153\n              jump\t// in\n            tag_152:\n              swap2\n              swap1\n              pop\n              sstore\n                /* \"Idea.sol\":2513:2536  requests[numRequests++] */\n              dup2\n              mstore\n              0x20\n              add\n              swap1\n              dup2\n              mstore\n              0x20\n              add\n              0x00\n              keccak256\n                /* \"Idea.sol\":2493:2536  Request storage r = requests[numRequests++] */\n              swap1\n              pop\n                /* \"Idea.sol\":2562:2573  description */\n              dup4\n                /* \"Idea.sol\":2546:2547  r */\n              dup2\n                /* \"Idea.sol\":2546:2559  r.description */\n              0x00\n              add\n                /* \"Idea.sol\":2546:2573  r.description = description */\n              swap1\n              dup1\n              mload\n              swap1\n              0x20\n              add\n              swap1\n              tag_154\n              swap3\n              swap2\n              swap1\n              tag_155\n              jump\t// in\n            tag_154:\n              pop\n                /* \"Idea.sol\":2593:2598  value */\n              dup3\n                /* \"Idea.sol\":2583:2584  r */\n              dup2\n                /* \"Idea.sol\":2583:2590  r.value */\n              0x01\n              add\n                /* \"Idea.sol\":2583:2598  r.value = value */\n              dup2\n              swap1\n              sstore\n              pop\n                /* \"Idea.sol\":2622:2631  recipient */\n              dup2\n                /* \"Idea.sol\":2608:2609  r */\n              dup2\n                /* \"Idea.sol\":2608:2619  r.recipient */\n              0x02\n              add\n              0x00\n                /* \"Idea.sol\":2608:2631  r.recipient = recipient */\n              0x0100\n              exp\n              dup2\n              sload\n              dup2\n              0xffffffffffffffffffffffffffffffffffffffff\n              mul\n              not\n              and\n              swap1\n              dup4\n              0xffffffffffffffffffffffffffffffffffffffff\n              and\n              mul\n              or\n              swap1\n              sstore\n              pop\n                /* \"Idea.sol\":2654:2659  false */\n              0x00\n                /* \"Idea.sol\":2641:2642  r */\n              dup2\n                /* \"Idea.sol\":2641:2651  r.complete */\n              0x02\n              add\n              0x14\n                /* \"Idea.sol\":2641:2659  r.complete = false */\n              0x0100\n              exp\n              dup2\n              sload\n              dup2\n              0xff\n              mul\n              not\n              and\n              swap1\n              dup4\n              iszero\n              iszero\n              mul\n              or\n              swap1\n              sstore\n              pop\n                /* \"Idea.sol\":2681:2682  0 */\n              0x00\n                /* \"Idea.sol\":2669:2670  r */\n              dup2\n                /* \"Idea.sol\":2669:2678  r.credits */\n              0x03\n              add\n                /* \"Idea.sol\":2669:2682  r.credits = 0 */\n              dup2\n              swap1\n              sstore\n              pop\n                /* \"Idea.sol\":2706:2721  block.timestamp */\n              timestamp\n                /* \"Idea.sol\":2692:2693  r */\n              dup2\n                /* \"Idea.sol\":2692:2703  r.createdAt */\n              0x04\n              add\n                /* \"Idea.sol\":2692:2721  r.createdAt = block.timestamp */\n              dup2\n              swap1\n              sstore\n              pop\n                /* \"Idea.sol\":1271:1272  _ */\n              pop\n                /* \"Idea.sol\":2370:2728  function createRequest(string memory description, uint value, address payable recipient) public allowOnlyManager {... */\n              pop\n              pop\n              pop\n              jump\t// out\n                /* \"Idea.sol\":909:932  uint public numRequests */\n            tag_86:\n              sload(0x05)\n              dup2\n              jump\t// out\n                /* \"Idea.sol\":856:878  string public imageURL */\n            tag_90:\n              0x03\n              dup1\n              sload\n              tag_156\n              swap1\n              tag_108\n              jump\t// in\n            tag_156:\n              dup1\n              0x1f\n              add\n              0x20\n              dup1\n              swap2\n              div\n              mul\n              0x20\n              add\n              mload(0x40)\n              swap1\n              dup2\n              add\n              0x40\n              mstore\n              dup1\n              swap3\n              swap2\n              swap1\n              dup2\n              dup2\n              mstore\n              0x20\n              add\n              dup3\n              dup1\n              sload\n              tag_157\n              swap1\n              tag_108\n              jump\t// in\n            tag_157:\n              dup1\n              iszero\n              tag_158\n              jumpi\n              dup1\n              0x1f\n              lt\n              tag_159\n              jumpi\n              0x0100\n              dup1\n              dup4\n              sload\n              div\n              mul\n              dup4\n              mstore\n              swap2\n              0x20\n              add\n              swap2\n              jump(tag_158)\n            tag_159:\n              dup3\n              add\n              swap2\n              swap1\n              0x00\n              mstore\n              keccak256(0x00, 0x20)\n              swap1\n            tag_160:\n              dup2\n              sload\n              dup2\n              mstore\n              swap1\n              0x01\n              add\n              swap1\n              0x20\n              add\n              dup1\n              dup4\n              gt\n              tag_160\n              jumpi\n              dup3\n              swap1\n              sub\n              0x1f\n              and\n              dup3\n              add\n              swap2\n            tag_158:\n              pop\n              pop\n              pop\n              pop\n              pop\n              dup2\n              jump\t// out\n                /* \"Idea.sol\":1773:2360  function contribute() public payable {... */\n            tag_93:\n                /* \"Idea.sol\":1841:1855  oneCreditValue */\n              sload(0x0a)\n                /* \"Idea.sol\":1828:1837  msg.value */\n              callvalue\n                /* \"Idea.sol\":1828:1855  msg.value >= oneCreditValue */\n              lt\n              iszero\n                /* \"Idea.sol\":1820:1856  require(msg.value >= oneCreditValue) */\n              tag_162\n              jumpi\n              0x00\n              dup1\n              revert\n            tag_162:\n                /* \"Idea.sol\":1895:1896  0 */\n              0x00\n                /* \"Idea.sol\":1870:1879  approvers */\n              0x09\n                /* \"Idea.sol\":1870:1891  approvers[msg.sender] */\n              0x00\n                /* \"Idea.sol\":1880:1890  msg.sender */\n              caller\n                /* \"Idea.sol\":1870:1891  approvers[msg.sender] */\n              0xffffffffffffffffffffffffffffffffffffffff\n              and\n              0xffffffffffffffffffffffffffffffffffffffff\n              and\n              dup2\n              mstore\n              0x20\n              add\n              swap1\n              dup2\n              mstore\n              0x20\n              add\n              0x00\n              keccak256\n              sload\n                /* \"Idea.sol\":1870:1896  approvers[msg.sender] == 0 */\n              eq\n                /* \"Idea.sol\":1867:1943  if(approvers[msg.sender] == 0) {... */\n              iszero\n              tag_163\n              jumpi\n                /* \"Idea.sol\":1912:1930  numUniqueApprovers */\n              0x08\n              0x00\n                /* \"Idea.sol\":1912:1932  numUniqueApprovers++ */\n              dup2\n              sload\n              dup1\n              swap3\n              swap2\n              swap1\n              tag_164\n              swap1\n              tag_153\n              jump\t// in\n            tag_164:\n              swap2\n              swap1\n              pop\n              sstore\n              pop\n                /* \"Idea.sol\":1867:1943  if(approvers[msg.sender] == 0) {... */\n            tag_163:\n                /* \"Idea.sol\":1954:1964  uint value */\n              0x00\n                /* \"Idea.sol\":1979:1993  oneCreditValue */\n              sload(0x0a)\n                /* \"Idea.sol\":1967:1976  msg.value */\n              callvalue\n                /* \"Idea.sol\":1967:1993  msg.value / oneCreditValue */\n              tag_165\n              swap2\n              swap1\n              tag_102\n              jump\t// in\n            tag_165:\n                /* \"Idea.sol\":1954:1993  uint value = msg.value / oneCreditValue */\n              swap1\n              pop\n                /* \"Idea.sol\":2028:2033  value */\n              dup1\n                /* \"Idea.sol\":2003:2012  approvers */\n              0x09\n                /* \"Idea.sol\":2003:2024  approvers[msg.sender] */\n              0x00\n                /* \"Idea.sol\":2013:2023  msg.sender */\n              caller\n                /* \"Idea.sol\":2003:2024  approvers[msg.sender] */\n              0xffffffffffffffffffffffffffffffffffffffff\n              and\n              0xffffffffffffffffffffffffffffffffffffffff\n              and\n              dup2\n              mstore\n              0x20\n              add\n              swap1\n              dup2\n              mstore\n              0x20\n              add\n              0x00\n              keccak256\n              0x00\n                /* \"Idea.sol\":2003:2033  approvers[msg.sender] += value */\n              dup3\n              dup3\n              sload\n              tag_166\n              swap2\n              swap1\n              tag_167\n              jump\t// in\n            tag_166:\n              swap3\n              pop\n              pop\n              dup2\n              swap1\n              sstore\n              pop\n                /* \"Idea.sol\":2054:2059  value */\n              dup1\n                /* \"Idea.sol\":2043:2050  credits */\n              0x0b\n              0x00\n                /* \"Idea.sol\":2043:2059  credits += value */\n              dup3\n              dup3\n              sload\n              tag_168\n              swap2\n              swap1\n              tag_167\n              jump\t// in\n            tag_168:\n              swap3\n              pop\n              pop\n              dup2\n              swap1\n              sstore\n              pop\n                /* \"Idea.sol\":2111:2122  uint change */\n              0x00\n                /* \"Idea.sol\":2137:2151  oneCreditValue */\n              sload(0x0a)\n                /* \"Idea.sol\":2125:2134  msg.value */\n              callvalue\n                /* \"Idea.sol\":2125:2151  msg.value % oneCreditValue */\n              tag_169\n              swap2\n              swap1\n              tag_170\n              jump\t// in\n            tag_169:\n                /* \"Idea.sol\":2111:2151  uint change = msg.value % oneCreditValue */\n              swap1\n              pop\n                /* \"Idea.sol\":2231:2232  0 */\n              0x00\n                /* \"Idea.sol\":2221:2227  change */\n              dup2\n                /* \"Idea.sol\":2221:2232  change != 0 */\n              eq\n                /* \"Idea.sol\":2218:2354  if(change != 0) {... */\n              tag_171\n              jumpi\n                /* \"Idea.sol\":2248:2277  address payable senderAddress */\n              0x00\n                /* \"Idea.sol\":2288:2298  msg.sender */\n              caller\n                /* \"Idea.sol\":2248:2299  address payable senderAddress = payable(msg.sender) */\n              swap1\n              pop\n                /* \"Idea.sol\":2313:2326  senderAddress */\n              dup1\n                /* \"Idea.sol\":2313:2335  senderAddress.transfer */\n              0xffffffffffffffffffffffffffffffffffffffff\n              and\n                /* \"Idea.sol\":2313:2343  senderAddress.transfer(change) */\n              0x08fc\n                /* \"Idea.sol\":2336:2342  change */\n              dup4\n                /* \"Idea.sol\":2313:2343  senderAddress.transfer(change) */\n              swap1\n              dup2\n              iszero\n              mul\n              swap1\n              mload(0x40)\n              0x00\n              mload(0x40)\n              dup1\n              dup4\n              sub\n              dup2\n              dup6\n              dup9\n              dup9\n              call\n              swap4\n              pop\n              pop\n              pop\n              pop\n              iszero\n              dup1\n              iszero\n              tag_173\n              jumpi\n              returndatasize\n              0x00\n              dup1\n              returndatacopy\n              revert(0x00, returndatasize)\n            tag_173:\n              pop\n                /* \"Idea.sol\":2218:2354  if(change != 0) {... */\n              pop\n            tag_171:\n                /* \"Idea.sol\":1773:2360  function contribute() public payable {... */\n              pop\n              pop\n              jump\t// out\n                /* \"Idea.sol\":2738:3030  function approveRequest(uint index) public {... */\n            tag_97:\n                /* \"Idea.sol\":2791:2814  Request storage request */\n              0x00\n                /* \"Idea.sol\":2817:2825  requests */\n              0x06\n                /* \"Idea.sol\":2817:2832  requests[index] */\n              0x00\n                /* \"Idea.sol\":2826:2831  index */\n              dup4\n                /* \"Idea.sol\":2817:2832  requests[index] */\n              dup2\n              mstore\n              0x20\n              add\n              swap1\n              dup2\n              mstore\n              0x20\n              add\n              0x00\n              keccak256\n                /* \"Idea.sol\":2791:2832  Request storage request = requests[index] */\n              swap1\n              pop\n                /* \"Idea.sol\":2875:2876  0 */\n              0x00\n                /* \"Idea.sol\":2851:2860  approvers */\n              0x09\n                /* \"Idea.sol\":2851:2872  approvers[msg.sender] */\n              0x00\n                /* \"Idea.sol\":2861:2871  msg.sender */\n              caller\n                /* \"Idea.sol\":2851:2872  approvers[msg.sender] */\n              0xffffffffffffffffffffffffffffffffffffffff\n              and\n              0xffffffffffffffffffffffffffffffffffffffff\n              and\n              dup2\n              mstore\n              0x20\n              add\n              swap1\n              dup2\n              mstore\n              0x20\n              add\n              0x00\n              keccak256\n              sload\n                /* \"Idea.sol\":2851:2876  approvers[msg.sender] > 0 */\n              gt\n                /* \"Idea.sol\":2843:2877  require(approvers[msg.sender] > 0) */\n              tag_175\n              jumpi\n              0x00\n              dup1\n              revert\n            tag_175:\n                /* \"Idea.sol\":2896:2903  request */\n              dup1\n                /* \"Idea.sol\":2896:2913  request.approvals */\n              0x05\n              add\n                /* \"Idea.sol\":2896:2925  request.approvals[msg.sender] */\n              0x00\n                /* \"Idea.sol\":2914:2924  msg.sender */\n              caller\n                /* \"Idea.sol\":2896:2925  request.approvals[msg.sender] */\n              0xffffffffffffffffffffffffffffffffffffffff\n              and\n              0xffffffffffffffffffffffffffffffffffffffff\n              and\n              dup2\n              mstore\n              0x20\n              add\n              swap1\n              dup2\n              mstore\n              0x20\n              add\n              0x00\n              keccak256\n              0x00\n              swap1\n              sload\n              swap1\n              0x0100\n              exp\n              swap1\n              div\n              0xff\n              and\n                /* \"Idea.sol\":2895:2925  !request.approvals[msg.sender] */\n              iszero\n                /* \"Idea.sol\":2887:2926  require(!request.approvals[msg.sender]) */\n              tag_176\n              jumpi\n              0x00\n              dup1\n              revert\n            tag_176:\n                /* \"Idea.sol\":2969:2973  true */\n              0x01\n                /* \"Idea.sol\":2937:2944  request */\n              dup2\n                /* \"Idea.sol\":2937:2954  request.approvals */\n              0x05\n              add\n                /* \"Idea.sol\":2937:2966  request.approvals[msg.sender] */\n              0x00\n                /* \"Idea.sol\":2955:2965  msg.sender */\n              caller\n                /* \"Idea.sol\":2937:2966  request.approvals[msg.sender] */\n              0xffffffffffffffffffffffffffffffffffffffff\n              and\n              0xffffffffffffffffffffffffffffffffffffffff\n              and\n              dup2\n              mstore\n              0x20\n              add\n              swap1\n              dup2\n              mstore\n              0x20\n              add\n              0x00\n              keccak256\n              0x00\n                /* \"Idea.sol\":2937:2973  request.approvals[msg.sender] = true */\n              0x0100\n              exp\n              dup2\n              sload\n              dup2\n              0xff\n              mul\n              not\n              and\n              swap1\n              dup4\n              iszero\n              iszero\n              mul\n              or\n              swap1\n              sstore\n              pop\n                /* \"Idea.sol\":3002:3011  approvers */\n              0x09\n                /* \"Idea.sol\":3002:3023  approvers[msg.sender] */\n              0x00\n                /* \"Idea.sol\":3012:3022  msg.sender */\n              caller\n                /* \"Idea.sol\":3002:3023  approvers[msg.sender] */\n              0xffffffffffffffffffffffffffffffffffffffff\n              and\n              0xffffffffffffffffffffffffffffffffffffffff\n              and\n              dup2\n              mstore\n              0x20\n              add\n              swap1\n              dup2\n              mstore\n              0x20\n              add\n              0x00\n              keccak256\n              sload\n                /* \"Idea.sol\":2983:2990  request */\n              dup2\n                /* \"Idea.sol\":2983:2998  request.credits */\n              0x03\n              add\n              0x00\n                /* \"Idea.sol\":2983:3023  request.credits += approvers[msg.sender] */\n              dup3\n              dup3\n              sload\n              tag_177\n              swap2\n              swap1\n              tag_167\n              jump\t// in\n            tag_177:\n              swap3\n              pop\n              pop\n              dup2\n              swap1\n              sstore\n              pop\n                /* \"Idea.sol\":2738:3030  function approveRequest(uint index) public {... */\n              pop\n              pop\n              jump\t// out\n            tag_155:\n              dup3\n              dup1\n              sload\n              tag_178\n              swap1\n              tag_108\n              jump\t// in\n            tag_178:\n              swap1\n              0x00\n              mstore\n              keccak256(0x00, 0x20)\n              swap1\n              0x1f\n              add\n              0x20\n              swap1\n              div\n              dup2\n              add\n              swap3\n              dup3\n              tag_180\n              jumpi\n              0x00\n              dup6\n              sstore\n              jump(tag_179)\n            tag_180:\n              dup3\n              0x1f\n              lt\n              tag_181\n              jumpi\n              dup1\n              mload\n              not(0xff)\n              and\n              dup4\n              dup1\n              add\n              or\n              dup6\n              sstore\n              jump(tag_179)\n            tag_181:\n              dup3\n              dup1\n              add\n              0x01\n              add\n              dup6\n              sstore\n              dup3\n              iszero\n              tag_179\n              jumpi\n              swap2\n              dup3\n              add\n            tag_182:\n              dup3\n              dup2\n              gt\n              iszero\n              tag_183\n              jumpi\n              dup3\n              mload\n              dup3\n              sstore\n              swap2\n              0x20\n              add\n              swap2\n              swap1\n              0x01\n              add\n              swap1\n              jump(tag_182)\n            tag_183:\n            tag_179:\n              pop\n              swap1\n              pop\n              tag_184\n              swap2\n              swap1\n              tag_185\n              jump\t// in\n            tag_184:\n              pop\n              swap1\n              jump\t// out\n            tag_185:\n            tag_186:\n              dup1\n              dup3\n              gt\n              iszero\n              tag_187\n              jumpi\n              0x00\n              dup2\n              0x00\n              swap1\n              sstore\n              pop\n              0x01\n              add\n              jump(tag_186)\n            tag_187:\n              pop\n              swap1\n              jump\t// out\n                /* \"#utility.yul\":7:352   */\n            tag_189:\n              0x00\n                /* \"#utility.yul\":110:176   */\n              tag_191\n                /* \"#utility.yul\":126:175   */\n              tag_192\n                /* \"#utility.yul\":168:174   */\n              dup5\n                /* \"#utility.yul\":126:175   */\n              tag_193\n              jump\t// in\n            tag_192:\n                /* \"#utility.yul\":110:176   */\n              tag_194\n              jump\t// in\n            tag_191:\n                /* \"#utility.yul\":101:176   */\n              swap1\n              pop\n                /* \"#utility.yul\":199:205   */\n              dup3\n                /* \"#utility.yul\":192:197   */\n              dup2\n                /* \"#utility.yul\":185:206   */\n              mstore\n                /* \"#utility.yul\":237:241   */\n              0x20\n                /* \"#utility.yul\":230:235   */\n              dup2\n                /* \"#utility.yul\":226:242   */\n              add\n                /* \"#utility.yul\":275:278   */\n              dup5\n                /* \"#utility.yul\":266:272   */\n              dup5\n                /* \"#utility.yul\":261:264   */\n              dup5\n                /* \"#utility.yul\":257:273   */\n              add\n                /* \"#utility.yul\":254:279   */\n              gt\n                /* \"#utility.yul\":251:253   */\n              iszero\n              tag_195\n              jumpi\n                /* \"#utility.yul\":292:293   */\n              0x00\n                /* \"#utility.yul\":289:290   */\n              dup1\n                /* \"#utility.yul\":282:294   */\n              revert\n                /* \"#utility.yul\":251:253   */\n            tag_195:\n                /* \"#utility.yul\":305:346   */\n              tag_196\n                /* \"#utility.yul\":339:345   */\n              dup5\n                /* \"#utility.yul\":334:337   */\n              dup3\n                /* \"#utility.yul\":329:332   */\n              dup6\n                /* \"#utility.yul\":305:346   */\n              tag_197\n              jump\t// in\n            tag_196:\n                /* \"#utility.yul\":91:352   */\n              pop\n              swap4\n              swap3\n              pop\n              pop\n              pop\n              jump\t// out\n                /* \"#utility.yul\":358:497   */\n            tag_198:\n              0x00\n                /* \"#utility.yul\":442:448   */\n              dup2\n                /* \"#utility.yul\":429:449   */\n              calldataload\n                /* \"#utility.yul\":420:449   */\n              swap1\n              pop\n                /* \"#utility.yul\":458:491   */\n              tag_200\n                /* \"#utility.yul\":485:490   */\n              dup2\n                /* \"#utility.yul\":458:491   */\n              tag_201\n              jump\t// in\n            tag_200:\n                /* \"#utility.yul\":410:497   */\n              swap3\n              swap2\n              pop\n              pop\n              jump\t// out\n                /* \"#utility.yul\":503:658   */\n            tag_202:\n              0x00\n                /* \"#utility.yul\":595:601   */\n              dup2\n                /* \"#utility.yul\":582:602   */\n              calldataload\n                /* \"#utility.yul\":573:602   */\n              swap1\n              pop\n                /* \"#utility.yul\":611:652   */\n              tag_204\n                /* \"#utility.yul\":646:651   */\n              dup2\n                /* \"#utility.yul\":611:652   */\n              tag_205\n              jump\t// in\n            tag_204:\n                /* \"#utility.yul\":563:658   */\n              swap3\n              swap2\n              pop\n              pop\n              jump\t// out\n                /* \"#utility.yul\":678:951   */\n            tag_206:\n              0x00\n                /* \"#utility.yul\":783:786   */\n              dup3\n                /* \"#utility.yul\":776:780   */\n              0x1f\n                /* \"#utility.yul\":768:774   */\n              dup4\n                /* \"#utility.yul\":764:781   */\n              add\n                /* \"#utility.yul\":760:787   */\n              slt\n                /* \"#utility.yul\":750:752   */\n              tag_208\n              jumpi\n                /* \"#utility.yul\":801:802   */\n              0x00\n                /* \"#utility.yul\":798:799   */\n              dup1\n                /* \"#utility.yul\":791:803   */\n              revert\n                /* \"#utility.yul\":750:752   */\n            tag_208:\n                /* \"#utility.yul\":841:847   */\n              dup2\n                /* \"#utility.yul\":828:848   */\n              calldataload\n                /* \"#utility.yul\":866:945   */\n              tag_209\n                /* \"#utility.yul\":941:944   */\n              dup5\n                /* \"#utility.yul\":933:939   */\n              dup3\n                /* \"#utility.yul\":926:930   */\n              0x20\n                /* \"#utility.yul\":918:924   */\n              dup7\n                /* \"#utility.yul\":914:931   */\n              add\n                /* \"#utility.yul\":866:945   */\n              tag_189\n              jump\t// in\n            tag_209:\n                /* \"#utility.yul\":857:945   */\n              swap2\n              pop\n                /* \"#utility.yul\":740:951   */\n              pop\n              swap3\n              swap2\n              pop\n              pop\n              jump\t// out\n                /* \"#utility.yul\":957:1096   */\n            tag_210:\n              0x00\n                /* \"#utility.yul\":1041:1047   */\n              dup2\n                /* \"#utility.yul\":1028:1048   */\n              calldataload\n                /* \"#utility.yul\":1019:1048   */\n              swap1\n              pop\n                /* \"#utility.yul\":1057:1090   */\n              tag_212\n                /* \"#utility.yul\":1084:1089   */\n              dup2\n                /* \"#utility.yul\":1057:1090   */\n              tag_213\n              jump\t// in\n            tag_212:\n                /* \"#utility.yul\":1009:1096   */\n              swap3\n              swap2\n              pop\n              pop\n              jump\t// out\n                /* \"#utility.yul\":1102:1364   */\n            tag_40:\n              0x00\n                /* \"#utility.yul\":1210:1212   */\n              0x20\n                /* \"#utility.yul\":1198:1207   */\n              dup3\n                /* \"#utility.yul\":1189:1196   */\n              dup5\n                /* \"#utility.yul\":1185:1208   */\n              sub\n                /* \"#utility.yul\":1181:1213   */\n              slt\n                /* \"#utility.yul\":1178:1180   */\n              iszero\n              tag_215\n              jumpi\n                /* \"#utility.yul\":1226:1227   */\n              0x00\n                /* \"#utility.yul\":1223:1224   */\n              dup1\n                /* \"#utility.yul\":1216:1228   */\n              revert\n                /* \"#utility.yul\":1178:1180   */\n            tag_215:\n                /* \"#utility.yul\":1269:1270   */\n              0x00\n                /* \"#utility.yul\":1294:1347   */\n              tag_216\n                /* \"#utility.yul\":1339:1346   */\n              dup5\n                /* \"#utility.yul\":1330:1336   */\n              dup3\n                /* \"#utility.yul\":1319:1328   */\n              dup6\n                /* \"#utility.yul\":1315:1337   */\n              add\n                /* \"#utility.yul\":1294:1347   */\n              tag_198\n              jump\t// in\n            tag_216:\n                /* \"#utility.yul\":1284:1347   */\n              swap2\n              pop\n                /* \"#utility.yul\":1240:1357   */\n              pop\n                /* \"#utility.yul\":1168:1364   */\n              swap3\n              swap2\n              pop\n              pop\n              jump\t// out\n                /* \"#utility.yul\":1370:2051   */\n            tag_82:\n              0x00\n              dup1\n              0x00\n                /* \"#utility.yul\":1530:1532   */\n              0x60\n                /* \"#utility.yul\":1518:1527   */\n              dup5\n                /* \"#utility.yul\":1509:1516   */\n              dup7\n                /* \"#utility.yul\":1505:1528   */\n              sub\n                /* \"#utility.yul\":1501:1533   */\n              slt\n                /* \"#utility.yul\":1498:1500   */\n              iszero\n              tag_218\n              jumpi\n                /* \"#utility.yul\":1546:1547   */\n              0x00\n                /* \"#utility.yul\":1543:1544   */\n              dup1\n                /* \"#utility.yul\":1536:1548   */\n              revert\n                /* \"#utility.yul\":1498:1500   */\n            tag_218:\n                /* \"#utility.yul\":1617:1618   */\n              0x00\n                /* \"#utility.yul\":1606:1615   */\n              dup5\n                /* \"#utility.yul\":1602:1619   */\n              add\n                /* \"#utility.yul\":1589:1620   */\n              calldataload\n                /* \"#utility.yul\":1647:1665   */\n              0xffffffffffffffff\n                /* \"#utility.yul\":1639:1645   */\n              dup2\n                /* \"#utility.yul\":1636:1666   */\n              gt\n                /* \"#utility.yul\":1633:1635   */\n              iszero\n              tag_219\n              jumpi\n                /* \"#utility.yul\":1679:1680   */\n              0x00\n                /* \"#utility.yul\":1676:1677   */\n              dup1\n                /* \"#utility.yul\":1669:1681   */\n              revert\n                /* \"#utility.yul\":1633:1635   */\n            tag_219:\n                /* \"#utility.yul\":1707:1770   */\n              tag_220\n                /* \"#utility.yul\":1762:1769   */\n              dup7\n                /* \"#utility.yul\":1753:1759   */\n              dup3\n                /* \"#utility.yul\":1742:1751   */\n              dup8\n                /* \"#utility.yul\":1738:1760   */\n              add\n                /* \"#utility.yul\":1707:1770   */\n              tag_206\n              jump\t// in\n            tag_220:\n                /* \"#utility.yul\":1697:1770   */\n              swap4\n              pop\n                /* \"#utility.yul\":1560:1780   */\n              pop\n                /* \"#utility.yul\":1819:1821   */\n              0x20\n                /* \"#utility.yul\":1845:1898   */\n              tag_221\n                /* \"#utility.yul\":1890:1897   */\n              dup7\n                /* \"#utility.yul\":1881:1887   */\n              dup3\n                /* \"#utility.yul\":1870:1879   */\n              dup8\n                /* \"#utility.yul\":1866:1888   */\n              add\n                /* \"#utility.yul\":1845:1898   */\n              tag_210\n              jump\t// in\n            tag_221:\n                /* \"#utility.yul\":1835:1898   */\n              swap3\n              pop\n                /* \"#utility.yul\":1790:1908   */\n              pop\n                /* \"#utility.yul\":1947:1949   */\n              0x40\n                /* \"#utility.yul\":1973:2034   */\n              tag_222\n                /* \"#utility.yul\":2026:2033   */\n              dup7\n                /* \"#utility.yul\":2017:2023   */\n              dup3\n                /* \"#utility.yul\":2006:2015   */\n              dup8\n                /* \"#utility.yul\":2002:2024   */\n              add\n                /* \"#utility.yul\":1973:2034   */\n              tag_202\n              jump\t// in\n            tag_222:\n                /* \"#utility.yul\":1963:2034   */\n              swap2\n              pop\n                /* \"#utility.yul\":1918:2044   */\n              pop\n                /* \"#utility.yul\":1488:2051   */\n              swap3\n              pop\n              swap3\n              pop\n              swap3\n              jump\t// out\n                /* \"#utility.yul\":2057:2319   */\n            tag_25:\n              0x00\n                /* \"#utility.yul\":2165:2167   */\n              0x20\n                /* \"#utility.yul\":2153:2162   */\n              dup3\n                /* \"#utility.yul\":2144:2151   */\n              dup5\n                /* \"#utility.yul\":2140:2163   */\n              sub\n                /* \"#utility.yul\":2136:2168   */\n              slt\n                /* \"#utility.yul\":2133:2135   */\n              iszero\n              tag_224\n              jumpi\n                /* \"#utility.yul\":2181:2182   */\n              0x00\n                /* \"#utility.yul\":2178:2179   */\n              dup1\n                /* \"#utility.yul\":2171:2183   */\n              revert\n                /* \"#utility.yul\":2133:2135   */\n            tag_224:\n                /* \"#utility.yul\":2224:2225   */\n              0x00\n                /* \"#utility.yul\":2249:2302   */\n              tag_225\n                /* \"#utility.yul\":2294:2301   */\n              dup5\n                /* \"#utility.yul\":2285:2291   */\n              dup3\n                /* \"#utility.yul\":2274:2283   */\n              dup6\n                /* \"#utility.yul\":2270:2292   */\n              add\n                /* \"#utility.yul\":2249:2302   */\n              tag_210\n              jump\t// in\n            tag_225:\n                /* \"#utility.yul\":2239:2302   */\n              swap2\n              pop\n                /* \"#utility.yul\":2195:2312   */\n              pop\n                /* \"#utility.yul\":2123:2319   */\n              swap3\n              swap2\n              pop\n              pop\n              jump\t// out\n                /* \"#utility.yul\":2325:2467   */\n            tag_226:\n                /* \"#utility.yul\":2428:2460   */\n              tag_228\n                /* \"#utility.yul\":2454:2459   */\n              dup2\n                /* \"#utility.yul\":2428:2460   */\n              tag_229\n              jump\t// in\n            tag_228:\n                /* \"#utility.yul\":2423:2426   */\n              dup3\n                /* \"#utility.yul\":2416:2461   */\n              mstore\n                /* \"#utility.yul\":2406:2467   */\n              pop\n              pop\n              jump\t// out\n                /* \"#utility.yul\":2473:2591   */\n            tag_230:\n                /* \"#utility.yul\":2560:2584   */\n              tag_232\n                /* \"#utility.yul\":2578:2583   */\n              dup2\n                /* \"#utility.yul\":2560:2584   */\n              tag_233\n              jump\t// in\n            tag_232:\n                /* \"#utility.yul\":2555:2558   */\n              dup3\n                /* \"#utility.yul\":2548:2585   */\n              mstore\n                /* \"#utility.yul\":2538:2591   */\n              pop\n              pop\n              jump\t// out\n                /* \"#utility.yul\":2597:2706   */\n            tag_234:\n                /* \"#utility.yul\":2678:2699   */\n              tag_236\n                /* \"#utility.yul\":2693:2698   */\n              dup2\n                /* \"#utility.yul\":2678:2699   */\n              tag_237\n              jump\t// in\n            tag_236:\n                /* \"#utility.yul\":2673:2676   */\n              dup3\n                /* \"#utility.yul\":2666:2700   */\n              mstore\n                /* \"#utility.yul\":2656:2706   */\n              pop\n              pop\n              jump\t// out\n                /* \"#utility.yul\":2712:3076   */\n            tag_238:\n              0x00\n                /* \"#utility.yul\":2828:2867   */\n              tag_240\n                /* \"#utility.yul\":2861:2866   */\n              dup3\n                /* \"#utility.yul\":2828:2867   */\n              tag_241\n              jump\t// in\n            tag_240:\n                /* \"#utility.yul\":2883:2954   */\n              tag_242\n                /* \"#utility.yul\":2947:2953   */\n              dup2\n                /* \"#utility.yul\":2942:2945   */\n              dup6\n                /* \"#utility.yul\":2883:2954   */\n              tag_243\n              jump\t// in\n            tag_242:\n                /* \"#utility.yul\":2876:2954   */\n              swap4\n              pop\n                /* \"#utility.yul\":2963:3015   */\n              tag_244\n                /* \"#utility.yul\":3008:3014   */\n              dup2\n                /* \"#utility.yul\":3003:3006   */\n              dup6\n                /* \"#utility.yul\":2996:3000   */\n              0x20\n                /* \"#utility.yul\":2989:2994   */\n              dup7\n                /* \"#utility.yul\":2985:3001   */\n              add\n                /* \"#utility.yul\":2963:3015   */\n              tag_245\n              jump\t// in\n            tag_244:\n                /* \"#utility.yul\":3040:3069   */\n              tag_246\n                /* \"#utility.yul\":3062:3068   */\n              dup2\n                /* \"#utility.yul\":3040:3069   */\n              tag_247\n              jump\t// in\n            tag_246:\n                /* \"#utility.yul\":3035:3038   */\n              dup5\n                /* \"#utility.yul\":3031:3070   */\n              add\n                /* \"#utility.yul\":3024:3070   */\n              swap2\n              pop\n                /* \"#utility.yul\":2804:3076   */\n              pop\n              swap3\n              swap2\n              pop\n              pop\n              jump\t// out\n                /* \"#utility.yul\":3082:3200   */\n            tag_248:\n                /* \"#utility.yul\":3169:3193   */\n              tag_250\n                /* \"#utility.yul\":3187:3192   */\n              dup2\n                /* \"#utility.yul\":3169:3193   */\n              tag_251\n              jump\t// in\n            tag_250:\n                /* \"#utility.yul\":3164:3167   */\n              dup3\n                /* \"#utility.yul\":3157:3194   */\n              mstore\n                /* \"#utility.yul\":3147:3200   */\n              pop\n              pop\n              jump\t// out\n                /* \"#utility.yul\":3206:3428   */\n            tag_60:\n              0x00\n                /* \"#utility.yul\":3337:3339   */\n              0x20\n                /* \"#utility.yul\":3326:3335   */\n              dup3\n                /* \"#utility.yul\":3322:3340   */\n              add\n                /* \"#utility.yul\":3314:3340   */\n              swap1\n              pop\n                /* \"#utility.yul\":3350:3421   */\n              tag_253\n                /* \"#utility.yul\":3418:3419   */\n              0x00\n                /* \"#utility.yul\":3407:3416   */\n              dup4\n                /* \"#utility.yul\":3403:3420   */\n              add\n                /* \"#utility.yul\":3394:3400   */\n              dup5\n                /* \"#utility.yul\":3350:3421   */\n              tag_230\n              jump\t// in\n            tag_253:\n                /* \"#utility.yul\":3304:3428   */\n              swap3\n              swap2\n              pop\n              pop\n              jump\t// out\n                /* \"#utility.yul\":3434:3747   */\n            tag_31:\n              0x00\n                /* \"#utility.yul\":3585:3587   */\n              0x20\n                /* \"#utility.yul\":3574:3583   */\n              dup3\n                /* \"#utility.yul\":3570:3588   */\n              add\n                /* \"#utility.yul\":3562:3588   */\n              swap1\n              pop\n                /* \"#utility.yul\":3634:3643   */\n              dup2\n                /* \"#utility.yul\":3628:3632   */\n              dup2\n                /* \"#utility.yul\":3624:3644   */\n              sub\n                /* \"#utility.yul\":3620:3621   */\n              0x00\n                /* \"#utility.yul\":3609:3618   */\n              dup4\n                /* \"#utility.yul\":3605:3622   */\n              add\n                /* \"#utility.yul\":3598:3645   */\n              mstore\n                /* \"#utility.yul\":3662:3740   */\n              tag_255\n                /* \"#utility.yul\":3735:3739   */\n              dup2\n                /* \"#utility.yul\":3726:3732   */\n              dup5\n                /* \"#utility.yul\":3662:3740   */\n              tag_238\n              jump\t// in\n            tag_255:\n                /* \"#utility.yul\":3654:3740   */\n              swap1\n              pop\n                /* \"#utility.yul\":3552:3747   */\n              swap3\n              swap2\n              pop\n              pop\n              jump\t// out\n                /* \"#utility.yul\":3753:5562   */\n            tag_55:\n              0x00\n                /* \"#utility.yul\":4274:4277   */\n              0x0180\n                /* \"#utility.yul\":4263:4272   */\n              dup3\n                /* \"#utility.yul\":4259:4278   */\n              add\n                /* \"#utility.yul\":4251:4278   */\n              swap1\n              pop\n                /* \"#utility.yul\":4324:4333   */\n              dup2\n                /* \"#utility.yul\":4318:4322   */\n              dup2\n                /* \"#utility.yul\":4314:4334   */\n              sub\n                /* \"#utility.yul\":4310:4311   */\n              0x00\n                /* \"#utility.yul\":4299:4308   */\n              dup4\n                /* \"#utility.yul\":4295:4312   */\n              add\n                /* \"#utility.yul\":4288:4335   */\n              mstore\n                /* \"#utility.yul\":4352:4430   */\n              tag_257\n                /* \"#utility.yul\":4425:4429   */\n              dup2\n                /* \"#utility.yul\":4416:4422   */\n              dup16\n                /* \"#utility.yul\":4352:4430   */\n              tag_238\n              jump\t// in\n            tag_257:\n                /* \"#utility.yul\":4344:4430   */\n              swap1\n              pop\n                /* \"#utility.yul\":4477:4486   */\n              dup2\n                /* \"#utility.yul\":4471:4475   */\n              dup2\n                /* \"#utility.yul\":4467:4487   */\n              sub\n                /* \"#utility.yul\":4462:4464   */\n              0x20\n                /* \"#utility.yul\":4451:4460   */\n              dup4\n                /* \"#utility.yul\":4447:4465   */\n              add\n                /* \"#utility.yul\":4440:4488   */\n              mstore\n                /* \"#utility.yul\":4505:4583   */\n              tag_258\n                /* \"#utility.yul\":4578:4582   */\n              dup2\n                /* \"#utility.yul\":4569:4575   */\n              dup15\n                /* \"#utility.yul\":4505:4583   */\n              tag_238\n              jump\t// in\n            tag_258:\n                /* \"#utility.yul\":4497:4583   */\n              swap1\n              pop\n                /* \"#utility.yul\":4630:4639   */\n              dup2\n                /* \"#utility.yul\":4624:4628   */\n              dup2\n                /* \"#utility.yul\":4620:4640   */\n              sub\n                /* \"#utility.yul\":4615:4617   */\n              0x40\n                /* \"#utility.yul\":4604:4613   */\n              dup4\n                /* \"#utility.yul\":4600:4618   */\n              add\n                /* \"#utility.yul\":4593:4641   */\n              mstore\n                /* \"#utility.yul\":4658:4736   */\n              tag_259\n                /* \"#utility.yul\":4731:4735   */\n              dup2\n                /* \"#utility.yul\":4722:4728   */\n              dup14\n                /* \"#utility.yul\":4658:4736   */\n              tag_238\n              jump\t// in\n            tag_259:\n                /* \"#utility.yul\":4650:4736   */\n              swap1\n              pop\n                /* \"#utility.yul\":4783:4792   */\n              dup2\n                /* \"#utility.yul\":4777:4781   */\n              dup2\n                /* \"#utility.yul\":4773:4793   */\n              sub\n                /* \"#utility.yul\":4768:4770   */\n              0x60\n                /* \"#utility.yul\":4757:4766   */\n              dup4\n                /* \"#utility.yul\":4753:4771   */\n              add\n                /* \"#utility.yul\":4746:4794   */\n              mstore\n                /* \"#utility.yul\":4811:4889   */\n              tag_260\n                /* \"#utility.yul\":4884:4888   */\n              dup2\n                /* \"#utility.yul\":4875:4881   */\n              dup13\n                /* \"#utility.yul\":4811:4889   */\n              tag_238\n              jump\t// in\n            tag_260:\n                /* \"#utility.yul\":4803:4889   */\n              swap1\n              pop\n                /* \"#utility.yul\":4899:4972   */\n              tag_261\n                /* \"#utility.yul\":4967:4970   */\n              0x80\n                /* \"#utility.yul\":4956:4965   */\n              dup4\n                /* \"#utility.yul\":4952:4971   */\n              add\n                /* \"#utility.yul\":4943:4949   */\n              dup12\n                /* \"#utility.yul\":4899:4972   */\n              tag_248\n              jump\t// in\n            tag_261:\n                /* \"#utility.yul\":4982:5055   */\n              tag_262\n                /* \"#utility.yul\":5050:5053   */\n              0xa0\n                /* \"#utility.yul\":5039:5048   */\n              dup4\n                /* \"#utility.yul\":5035:5054   */\n              add\n                /* \"#utility.yul\":5026:5032   */\n              dup11\n                /* \"#utility.yul\":4982:5055   */\n              tag_248\n              jump\t// in\n            tag_262:\n                /* \"#utility.yul\":5065:5138   */\n              tag_263\n                /* \"#utility.yul\":5133:5136   */\n              0xc0\n                /* \"#utility.yul\":5122:5131   */\n              dup4\n                /* \"#utility.yul\":5118:5137   */\n              add\n                /* \"#utility.yul\":5109:5115   */\n              dup10\n                /* \"#utility.yul\":5065:5138   */\n              tag_248\n              jump\t// in\n            tag_263:\n                /* \"#utility.yul\":5148:5221   */\n              tag_264\n                /* \"#utility.yul\":5216:5219   */\n              0xe0\n                /* \"#utility.yul\":5205:5214   */\n              dup4\n                /* \"#utility.yul\":5201:5220   */\n              add\n                /* \"#utility.yul\":5192:5198   */\n              dup9\n                /* \"#utility.yul\":5148:5221   */\n              tag_248\n              jump\t// in\n            tag_264:\n                /* \"#utility.yul\":5231:5304   */\n              tag_265\n                /* \"#utility.yul\":5299:5302   */\n              0x0100\n                /* \"#utility.yul\":5288:5297   */\n              dup4\n                /* \"#utility.yul\":5284:5303   */\n              add\n                /* \"#utility.yul\":5275:5281   */\n              dup8\n                /* \"#utility.yul\":5231:5304   */\n              tag_230\n              jump\t// in\n            tag_265:\n                /* \"#utility.yul\":5314:5387   */\n              tag_266\n                /* \"#utility.yul\":5382:5385   */\n              0x0120\n                /* \"#utility.yul\":5371:5380   */\n              dup4\n                /* \"#utility.yul\":5367:5386   */\n              add\n                /* \"#utility.yul\":5358:5364   */\n              dup7\n                /* \"#utility.yul\":5314:5387   */\n              tag_230\n              jump\t// in\n            tag_266:\n                /* \"#utility.yul\":5397:5471   */\n              tag_267\n                /* \"#utility.yul\":5466:5469   */\n              0x0140\n                /* \"#utility.yul\":5455:5464   */\n              dup4\n                /* \"#utility.yul\":5451:5470   */\n              add\n                /* \"#utility.yul\":5441:5448   */\n              dup6\n                /* \"#utility.yul\":5397:5471   */\n              tag_248\n              jump\t// in\n            tag_267:\n                /* \"#utility.yul\":5481:5555   */\n              tag_268\n                /* \"#utility.yul\":5550:5553   */\n              0x0160\n                /* \"#utility.yul\":5539:5548   */\n              dup4\n                /* \"#utility.yul\":5535:5554   */\n              add\n                /* \"#utility.yul\":5525:5532   */\n              dup5\n                /* \"#utility.yul\":5481:5555   */\n              tag_248\n              jump\t// in\n            tag_268:\n                /* \"#utility.yul\":4241:5562   */\n              swap14\n              swap13\n              pop\n              pop\n              pop\n              pop\n              pop\n              pop\n              pop\n              pop\n              pop\n              pop\n              pop\n              pop\n              pop\n              jump\t// out\n                /* \"#utility.yul\":5568:6454   */\n            tag_78:\n              0x00\n                /* \"#utility.yul\":5869:5872   */\n              0xc0\n                /* \"#utility.yul\":5858:5867   */\n              dup3\n                /* \"#utility.yul\":5854:5873   */\n              add\n                /* \"#utility.yul\":5846:5873   */\n              swap1\n              pop\n                /* \"#utility.yul\":5919:5928   */\n              dup2\n                /* \"#utility.yul\":5913:5917   */\n              dup2\n                /* \"#utility.yul\":5909:5929   */\n              sub\n                /* \"#utility.yul\":5905:5906   */\n              0x00\n                /* \"#utility.yul\":5894:5903   */\n              dup4\n                /* \"#utility.yul\":5890:5907   */\n              add\n                /* \"#utility.yul\":5883:5930   */\n              mstore\n                /* \"#utility.yul\":5947:6025   */\n              tag_270\n                /* \"#utility.yul\":6020:6024   */\n              dup2\n                /* \"#utility.yul\":6011:6017   */\n              dup10\n                /* \"#utility.yul\":5947:6025   */\n              tag_238\n              jump\t// in\n            tag_270:\n                /* \"#utility.yul\":5939:6025   */\n              swap1\n              pop\n                /* \"#utility.yul\":6035:6107   */\n              tag_271\n                /* \"#utility.yul\":6103:6105   */\n              0x20\n                /* \"#utility.yul\":6092:6101   */\n              dup4\n                /* \"#utility.yul\":6088:6106   */\n              add\n                /* \"#utility.yul\":6079:6085   */\n              dup9\n                /* \"#utility.yul\":6035:6107   */\n              tag_248\n              jump\t// in\n            tag_271:\n                /* \"#utility.yul\":6117:6205   */\n              tag_272\n                /* \"#utility.yul\":6201:6203   */\n              0x40\n                /* \"#utility.yul\":6190:6199   */\n              dup4\n                /* \"#utility.yul\":6186:6204   */\n              add\n                /* \"#utility.yul\":6177:6183   */\n              dup8\n                /* \"#utility.yul\":6117:6205   */\n              tag_226\n              jump\t// in\n            tag_272:\n                /* \"#utility.yul\":6215:6281   */\n              tag_273\n                /* \"#utility.yul\":6277:6279   */\n              0x60\n                /* \"#utility.yul\":6266:6275   */\n              dup4\n                /* \"#utility.yul\":6262:6280   */\n              add\n                /* \"#utility.yul\":6253:6259   */\n              dup7\n                /* \"#utility.yul\":6215:6281   */\n              tag_234\n              jump\t// in\n            tag_273:\n                /* \"#utility.yul\":6291:6364   */\n              tag_274\n                /* \"#utility.yul\":6359:6362   */\n              0x80\n                /* \"#utility.yul\":6348:6357   */\n              dup4\n                /* \"#utility.yul\":6344:6363   */\n              add\n                /* \"#utility.yul\":6335:6341   */\n              dup6\n                /* \"#utility.yul\":6291:6364   */\n              tag_248\n              jump\t// in\n            tag_274:\n                /* \"#utility.yul\":6374:6447   */\n              tag_275\n                /* \"#utility.yul\":6442:6445   */\n              0xa0\n                /* \"#utility.yul\":6431:6440   */\n              dup4\n                /* \"#utility.yul\":6427:6446   */\n              add\n                /* \"#utility.yul\":6418:6424   */\n              dup5\n                /* \"#utility.yul\":6374:6447   */\n              tag_248\n              jump\t// in\n            tag_275:\n                /* \"#utility.yul\":5836:6454   */\n              swap8\n              swap7\n              pop\n              pop\n              pop\n              pop\n              pop\n              pop\n              pop\n              jump\t// out\n                /* \"#utility.yul\":6460:6682   */\n            tag_36:\n              0x00\n                /* \"#utility.yul\":6591:6593   */\n              0x20\n                /* \"#utility.yul\":6580:6589   */\n              dup3\n                /* \"#utility.yul\":6576:6594   */\n              add\n                /* \"#utility.yul\":6568:6594   */\n              swap1\n              pop\n                /* \"#utility.yul\":6604:6675   */\n              tag_277\n                /* \"#utility.yul\":6672:6673   */\n              0x00\n                /* \"#utility.yul\":6661:6670   */\n              dup4\n                /* \"#utility.yul\":6657:6674   */\n              add\n                /* \"#utility.yul\":6648:6654   */\n              dup5\n                /* \"#utility.yul\":6604:6675   */\n              tag_248\n              jump\t// in\n            tag_277:\n                /* \"#utility.yul\":6558:6682   */\n              swap3\n              swap2\n              pop\n              pop\n              jump\t// out\n                /* \"#utility.yul\":6688:6817   */\n            tag_194:\n              0x00\n                /* \"#utility.yul\":6749:6769   */\n              tag_279\n              tag_280\n              jump\t// in\n            tag_279:\n                /* \"#utility.yul\":6739:6769   */\n              swap1\n              pop\n                /* \"#utility.yul\":6778:6811   */\n              tag_281\n                /* \"#utility.yul\":6806:6810   */\n              dup3\n                /* \"#utility.yul\":6798:6804   */\n              dup3\n                /* \"#utility.yul\":6778:6811   */\n              tag_282\n              jump\t// in\n            tag_281:\n                /* \"#utility.yul\":6729:6817   */\n              swap2\n              swap1\n              pop\n              jump\t// out\n                /* \"#utility.yul\":6823:6898   */\n            tag_280:\n              0x00\n                /* \"#utility.yul\":6889:6891   */\n              0x40\n                /* \"#utility.yul\":6883:6892   */\n              mload\n                /* \"#utility.yul\":6873:6892   */\n              swap1\n              pop\n                /* \"#utility.yul\":6863:6898   */\n              swap1\n              jump\t// out\n                /* \"#utility.yul\":6904:7212   */\n            tag_193:\n              0x00\n                /* \"#utility.yul\":7056:7074   */\n              0xffffffffffffffff\n                /* \"#utility.yul\":7048:7054   */\n              dup3\n                /* \"#utility.yul\":7045:7075   */\n              gt\n                /* \"#utility.yul\":7042:7044   */\n              iszero\n              tag_285\n              jumpi\n                /* \"#utility.yul\":7078:7096   */\n              tag_286\n              tag_287\n              jump\t// in\n            tag_286:\n                /* \"#utility.yul\":7042:7044   */\n            tag_285:\n                /* \"#utility.yul\":7116:7145   */\n              tag_288\n                /* \"#utility.yul\":7138:7144   */\n              dup3\n                /* \"#utility.yul\":7116:7145   */\n              tag_247\n              jump\t// in\n            tag_288:\n                /* \"#utility.yul\":7108:7145   */\n              swap1\n              pop\n                /* \"#utility.yul\":7200:7204   */\n              0x20\n                /* \"#utility.yul\":7194:7198   */\n              dup2\n                /* \"#utility.yul\":7190:7205   */\n              add\n                /* \"#utility.yul\":7182:7205   */\n              swap1\n              pop\n                /* \"#utility.yul\":6971:7212   */\n              swap2\n              swap1\n              pop\n              jump\t// out\n                /* \"#utility.yul\":7218:7317   */\n            tag_241:\n              0x00\n                /* \"#utility.yul\":7304:7309   */\n              dup2\n                /* \"#utility.yul\":7298:7310   */\n              mload\n                /* \"#utility.yul\":7288:7310   */\n              swap1\n              pop\n                /* \"#utility.yul\":7277:7317   */\n              swap2\n              swap1\n              pop\n              jump\t// out\n                /* \"#utility.yul\":7323:7492   */\n            tag_243:\n              0x00\n                /* \"#utility.yul\":7441:7447   */\n              dup3\n                /* \"#utility.yul\":7436:7439   */\n              dup3\n                /* \"#utility.yul\":7429:7448   */\n              mstore\n                /* \"#utility.yul\":7481:7485   */\n              0x20\n                /* \"#utility.yul\":7476:7479   */\n              dup3\n                /* \"#utility.yul\":7472:7486   */\n              add\n                /* \"#utility.yul\":7457:7486   */\n              swap1\n              pop\n                /* \"#utility.yul\":7419:7492   */\n              swap3\n              swap2\n              pop\n              pop\n              jump\t// out\n                /* \"#utility.yul\":7498:7803   */\n            tag_167:\n              0x00\n                /* \"#utility.yul\":7557:7577   */\n              tag_292\n                /* \"#utility.yul\":7575:7576   */\n              dup3\n                /* \"#utility.yul\":7557:7577   */\n              tag_251\n              jump\t// in\n            tag_292:\n                /* \"#utility.yul\":7552:7577   */\n              swap2\n              pop\n                /* \"#utility.yul\":7591:7611   */\n              tag_293\n                /* \"#utility.yul\":7609:7610   */\n              dup4\n                /* \"#utility.yul\":7591:7611   */\n              tag_251\n              jump\t// in\n            tag_293:\n                /* \"#utility.yul\":7586:7611   */\n              swap3\n              pop\n                /* \"#utility.yul\":7745:7746   */\n              dup3\n                /* \"#utility.yul\":7677:7743   */\n              0xffffffffffffffffffffffffffffffffffffffffffffffffffffffffffffffff\n                /* \"#utility.yul\":7673:7747   */\n              sub\n                /* \"#utility.yul\":7670:7671   */\n              dup3\n                /* \"#utility.yul\":7667:7748   */\n              gt\n                /* \"#utility.yul\":7664:7666   */\n              iszero\n              tag_294\n              jumpi\n                /* \"#utility.yul\":7751:7769   */\n              tag_295\n              tag_296\n              jump\t// in\n            tag_295:\n                /* \"#utility.yul\":7664:7666   */\n            tag_294:\n                /* \"#utility.yul\":7795:7796   */\n              dup3\n                /* \"#utility.yul\":7792:7793   */\n              dup3\n                /* \"#utility.yul\":7788:7797   */\n              add\n                /* \"#utility.yul\":7781:7797   */\n              swap1\n              pop\n                /* \"#utility.yul\":7542:7803   */\n              swap3\n              swap2\n              pop\n              pop\n              jump\t// out\n                /* \"#utility.yul\":7809:7994   */\n            tag_102:\n              0x00\n                /* \"#utility.yul\":7866:7886   */\n              tag_298\n                /* \"#utility.yul\":7884:7885   */\n              dup3\n                /* \"#utility.yul\":7866:7886   */\n              tag_251\n              jump\t// in\n            tag_298:\n                /* \"#utility.yul\":7861:7886   */\n              swap2\n              pop\n                /* \"#utility.yul\":7900:7920   */\n              tag_299\n                /* \"#utility.yul\":7918:7919   */\n              dup4\n                /* \"#utility.yul\":7900:7920   */\n              tag_251\n              jump\t// in\n            tag_299:\n                /* \"#utility.yul\":7895:7920   */\n              swap3\n              pop\n                /* \"#utility.yul\":7939:7940   */\n              dup3\n                /* \"#utility.yul\":7929:7931   */\n              tag_300\n              jumpi\n                /* \"#utility.yul\":7944:7962   */\n              tag_301\n              tag_302\n              jump\t// in\n            tag_301:\n                /* \"#utility.yul\":7929:7931   */\n            tag_300:\n                /* \"#utility.yul\":7986:7987   */\n              dup3\n                /* \"#utility.yul\":7983:7984   */\n              dup3\n                /* \"#utility.yul\":7979:7988   */\n              div\n                /* \"#utility.yul\":7974:7988   */\n              swap1\n              pop\n                /* \"#utility.yul\":7851:7994   */\n              swap3\n              swap2\n              pop\n              pop\n              jump\t// out\n                /* \"#utility.yul\":8000:8096   */\n            tag_233:\n              0x00\n                /* \"#utility.yul\":8066:8090   */\n              tag_304\n                /* \"#utility.yul\":8084:8089   */\n              dup3\n                /* \"#utility.yul\":8066:8090   */\n              tag_305\n              jump\t// in\n            tag_304:\n                /* \"#utility.yul\":8055:8090   */\n              swap1\n              pop\n                /* \"#utility.yul\":8045:8096   */\n              swap2\n              swap1\n              pop\n              jump\t// out\n                /* \"#utility.yul\":8102:8206   */\n            tag_229:\n              0x00\n                /* \"#utility.yul\":8176:8200   */\n              tag_307\n                /* \"#utility.yul\":8194:8199   */\n              dup3\n                /* \"#utility.yul\":8176:8200   */\n              tag_305\n              jump\t// in\n            tag_307:\n                /* \"#utility.yul\":8165:8200   */\n              swap1\n              pop\n                /* \"#utility.yul\":8155:8206   */\n              swap2\n              swap1\n              pop\n              jump\t// out\n                /* \"#utility.yul\":8212:8302   */\n            tag_237:\n              0x00\n                /* \"#utility.yul\":8289:8294   */\n              dup2\n                /* \"#utility.yul\":8282:8295   */\n              iszero\n                /* \"#utility.yul\":8275:8296   */\n              iszero\n                /* \"#utility.yul\":8264:8296   */\n              swap1\n              pop\n                /* \"#utility.yul\":8254:8302   */\n              swap2\n              swap1\n              pop\n              jump\t// out\n                /* \"#utility.yul\":8308:8434   */\n            tag_305:\n              0x00\n                /* \"#utility.yul\":8385:8427   */\n              0xffffffffffffffffffffffffffffffffffffffff\n                /* \"#utility.yul\":8378:8383   */\n              dup3\n                /* \"#utility.yul\":8374:8428   */\n              and\n                /* \"#utility.yul\":8363:8428   */\n              swap1\n              pop\n                /* \"#utility.yul\":8353:8434   */\n              swap2\n              swap1\n              pop\n              jump\t// out\n                /* \"#utility.yul\":8440:8517   */\n            tag_251:\n              0x00\n                /* \"#utility.yul\":8506:8511   */\n              dup2\n                /* \"#utility.yul\":8495:8511   */\n              swap1\n              pop\n                /* \"#utility.yul\":8485:8517   */\n              swap2\n              swap1\n              pop\n              jump\t// out\n                /* \"#utility.yul\":8523:8677   */\n            tag_197:\n                /* \"#utility.yul\":8607:8613   */\n              dup3\n                /* \"#utility.yul\":8602:8605   */\n              dup2\n                /* \"#utility.yul\":8597:8600   */\n              dup4\n                /* \"#utility.yul\":8584:8614   */\n              calldatacopy\n                /* \"#utility.yul\":8669:8670   */\n              0x00\n                /* \"#utility.yul\":8660:8666   */\n              dup4\n                /* \"#utility.yul\":8655:8658   */\n              dup4\n                /* \"#utility.yul\":8651:8667   */\n              add\n                /* \"#utility.yul\":8644:8671   */\n              mstore\n                /* \"#utility.yul\":8574:8677   */\n              pop\n              pop\n              pop\n              jump\t// out\n                /* \"#utility.yul\":8683:8990   */\n            tag_245:\n                /* \"#utility.yul\":8751:8752   */\n              0x00\n                /* \"#utility.yul\":8761:8874   */\n            tag_313:\n                /* \"#utility.yul\":8775:8781   */\n              dup4\n                /* \"#utility.yul\":8772:8773   */\n              dup2\n                /* \"#utility.yul\":8769:8782   */\n              lt\n                /* \"#utility.yul\":8761:8874   */\n              iszero\n              tag_315\n              jumpi\n                /* \"#utility.yul\":8860:8861   */\n              dup1\n                /* \"#utility.yul\":8855:8858   */\n              dup3\n                /* \"#utility.yul\":8851:8862   */\n              add\n                /* \"#utility.yul\":8845:8863   */\n              mload\n                /* \"#utility.yul\":8841:8842   */\n              dup2\n                /* \"#utility.yul\":8836:8839   */\n              dup5\n                /* \"#utility.yul\":8832:8843   */\n              add\n                /* \"#utility.yul\":8825:8864   */\n              mstore\n                /* \"#utility.yul\":8797:8799   */\n              0x20\n                /* \"#utility.yul\":8794:8795   */\n              dup2\n                /* \"#utility.yul\":8790:8800   */\n              add\n                /* \"#utility.yul\":8785:8800   */\n              swap1\n              pop\n                /* \"#utility.yul\":8761:8874   */\n              jump(tag_313)\n            tag_315:\n                /* \"#utility.yul\":8892:8898   */\n              dup4\n                /* \"#utility.yul\":8889:8890   */\n              dup2\n                /* \"#utility.yul\":8886:8899   */\n              gt\n                /* \"#utility.yul\":8883:8885   */\n              iszero\n              tag_316\n              jumpi\n                /* \"#utility.yul\":8972:8973   */\n              0x00\n                /* \"#utility.yul\":8963:8969   */\n              dup5\n                /* \"#utility.yul\":8958:8961   */\n              dup5\n                /* \"#utility.yul\":8954:8970   */\n              add\n                /* \"#utility.yul\":8947:8974   */\n              mstore\n                /* \"#utility.yul\":8883:8885   */\n            tag_316:\n                /* \"#utility.yul\":8732:8990   */\n              pop\n              pop\n              pop\n              pop\n              jump\t// out\n                /* \"#utility.yul\":8996:9316   */\n            tag_108:\n              0x00\n                /* \"#utility.yul\":9077:9078   */\n              0x02\n                /* \"#utility.yul\":9071:9075   */\n              dup3\n                /* \"#utility.yul\":9067:9079   */\n              div\n                /* \"#utility.yul\":9057:9079   */\n              swap1\n              pop\n                /* \"#utility.yul\":9124:9125   */\n              0x01\n                /* \"#utility.yul\":9118:9122   */\n              dup3\n                /* \"#utility.yul\":9114:9126   */\n              and\n                /* \"#utility.yul\":9145:9163   */\n              dup1\n                /* \"#utility.yul\":9135:9137   */\n              tag_318\n              jumpi\n                /* \"#utility.yul\":9201:9205   */\n              0x7f\n                /* \"#utility.yul\":9193:9199   */\n              dup3\n                /* \"#utility.yul\":9189:9206   */\n              and\n                /* \"#utility.yul\":9179:9206   */\n              swap2\n              pop\n                /* \"#utility.yul\":9135:9137   */\n            tag_318:\n                /* \"#utility.yul\":9263:9265   */\n              0x20\n                /* \"#utility.yul\":9255:9261   */\n              dup3\n                /* \"#utility.yul\":9252:9266   */\n              lt\n                /* \"#utility.yul\":9232:9250   */\n              dup2\n                /* \"#utility.yul\":9229:9267   */\n              eq\n                /* \"#utility.yul\":9226:9228   */\n              iszero\n              tag_319\n              jumpi\n                /* \"#utility.yul\":9282:9300   */\n              tag_320\n              tag_321\n              jump\t// in\n            tag_320:\n                /* \"#utility.yul\":9226:9228   */\n            tag_319:\n                /* \"#utility.yul\":9047:9316   */\n              pop\n              swap2\n              swap1\n              pop\n              jump\t// out\n                /* \"#utility.yul\":9322:9603   */\n            tag_282:\n                /* \"#utility.yul\":9405:9432   */\n              tag_323\n                /* \"#utility.yul\":9427:9431   */\n              dup3\n                /* \"#utility.yul\":9405:9432   */\n              tag_247\n              jump\t// in\n            tag_323:\n                /* \"#utility.yul\":9397:9403   */\n              dup2\n                /* \"#utility.yul\":9393:9433   */\n              add\n                /* \"#utility.yul\":9535:9541   */\n              dup2\n                /* \"#utility.yul\":9523:9533   */\n              dup2\n                /* \"#utility.yul\":9520:9542   */\n              lt\n                /* \"#utility.yul\":9499:9517   */\n              0xffffffffffffffff\n                /* \"#utility.yul\":9487:9497   */\n              dup3\n                /* \"#utility.yul\":9484:9518   */\n              gt\n                /* \"#utility.yul\":9481:9543   */\n              or\n                /* \"#utility.yul\":9478:9480   */\n              iszero\n              tag_324\n              jumpi\n                /* \"#utility.yul\":9546:9564   */\n              tag_325\n              tag_287\n              jump\t// in\n            tag_325:\n                /* \"#utility.yul\":9478:9480   */\n            tag_324:\n                /* \"#utility.yul\":9586:9596   */\n              dup1\n                /* \"#utility.yul\":9582:9584   */\n              0x40\n                /* \"#utility.yul\":9575:9597   */\n              mstore\n                /* \"#utility.yul\":9365:9603   */\n              pop\n              pop\n              pop\n              jump\t// out\n                /* \"#utility.yul\":9609:9842   */\n            tag_153:\n              0x00\n                /* \"#utility.yul\":9671:9695   */\n              tag_327\n                /* \"#utility.yul\":9689:9694   */\n              dup3\n                /* \"#utility.yul\":9671:9695   */\n              tag_251\n              jump\t// in\n            tag_327:\n                /* \"#utility.yul\":9662:9695   */\n              swap2\n              pop\n                /* \"#utility.yul\":9717:9783   */\n              0xffffffffffffffffffffffffffffffffffffffffffffffffffffffffffffffff\n                /* \"#utility.yul\":9710:9715   */\n              dup3\n                /* \"#utility.yul\":9707:9784   */\n              eq\n                /* \"#utility.yul\":9704:9706   */\n              iszero\n              tag_328\n              jumpi\n                /* \"#utility.yul\":9787:9805   */\n              tag_329\n              tag_296\n              jump\t// in\n            tag_329:\n                /* \"#utility.yul\":9704:9706   */\n            tag_328:\n                /* \"#utility.yul\":9834:9835   */\n              0x01\n                /* \"#utility.yul\":9827:9832   */\n              dup3\n                /* \"#utility.yul\":9823:9836   */\n              add\n                /* \"#utility.yul\":9816:9836   */\n              swap1\n              pop\n                /* \"#utility.yul\":9652:9842   */\n              swap2\n              swap1\n              pop\n              jump\t// out\n                /* \"#utility.yul\":9848:10024   */\n            tag_170:\n              0x00\n                /* \"#utility.yul\":9897:9917   */\n              tag_331\n                /* \"#utility.yul\":9915:9916   */\n              dup3\n                /* \"#utility.yul\":9897:9917   */\n              tag_251\n              jump\t// in\n            tag_331:\n                /* \"#utility.yul\":9892:9917   */\n              swap2\n              pop\n                /* \"#utility.yul\":9931:9951   */\n              tag_332\n                /* \"#utility.yul\":9949:9950   */\n              dup4\n                /* \"#utility.yul\":9931:9951   */\n              tag_251\n              jump\t// in\n            tag_332:\n                /* \"#utility.yul\":9926:9951   */\n              swap3\n              pop\n                /* \"#utility.yul\":9970:9971   */\n              dup3\n                /* \"#utility.yul\":9960:9962   */\n              tag_333\n              jumpi\n                /* \"#utility.yul\":9975:9993   */\n              tag_334\n              tag_302\n              jump\t// in\n            tag_334:\n                /* \"#utility.yul\":9960:9962   */\n            tag_333:\n                /* \"#utility.yul\":10016:10017   */\n              dup3\n                /* \"#utility.yul\":10013:10014   */\n              dup3\n                /* \"#utility.yul\":10009:10018   */\n              mod\n                /* \"#utility.yul\":10004:10018   */\n              swap1\n              pop\n                /* \"#utility.yul\":9882:10024   */\n              swap3\n              swap2\n              pop\n              pop\n              jump\t// out\n                /* \"#utility.yul\":10030:10210   */\n            tag_296:\n                /* \"#utility.yul\":10078:10155   */\n              0x4e487b7100000000000000000000000000000000000000000000000000000000\n                /* \"#utility.yul\":10075:10076   */\n              0x00\n                /* \"#utility.yul\":10068:10156   */\n              mstore\n                /* \"#utility.yul\":10175:10179   */\n              0x11\n                /* \"#utility.yul\":10172:10173   */\n              0x04\n                /* \"#utility.yul\":10165:10180   */\n              mstore\n                /* \"#utility.yul\":10199:10203   */\n              0x24\n                /* \"#utility.yul\":10196:10197   */\n              0x00\n                /* \"#utility.yul\":10189:10204   */\n              revert\n                /* \"#utility.yul\":10216:10396   */\n            tag_302:\n                /* \"#utility.yul\":10264:10341   */\n              0x4e487b7100000000000000000000000000000000000000000000000000000000\n                /* \"#utility.yul\":10261:10262   */\n              0x00\n                /* \"#utility.yul\":10254:10342   */\n              mstore\n                /* \"#utility.yul\":10361:10365   */\n              0x12\n                /* \"#utility.yul\":10358:10359   */\n              0x04\n                /* \"#utility.yul\":10351:10366   */\n              mstore\n                /* \"#utility.yul\":10385:10389   */\n              0x24\n                /* \"#utility.yul\":10382:10383   */\n              0x00\n                /* \"#utility.yul\":10375:10390   */\n              revert\n                /* \"#utility.yul\":10402:10582   */\n            tag_321:\n                /* \"#utility.yul\":10450:10527   */\n              0x4e487b7100000000000000000000000000000000000000000000000000000000\n                /* \"#utility.yul\":10447:10448   */\n              0x00\n                /* \"#utility.yul\":10440:10528   */\n              mstore\n                /* \"#utility.yul\":10547:10551   */\n              0x22\n                /* \"#utility.yul\":10544:10545   */\n              0x04\n                /* \"#utility.yul\":10537:10552   */\n              mstore\n                /* \"#utility.yul\":10571:10575   */\n              0x24\n                /* \"#utility.yul\":10568:10569   */\n              0x00\n                /* \"#utility.yul\":10561:10576   */\n              revert\n                /* \"#utility.yul\":10588:10768   */\n            tag_287:\n                /* \"#utility.yul\":10636:10713   */\n              0x4e487b7100000000000000000000000000000000000000000000000000000000\n                /* \"#utility.yul\":10633:10634   */\n              0x00\n                /* \"#utility.yul\":10626:10714   */\n              mstore\n                /* \"#utility.yul\":10733:10737   */\n              0x41\n                /* \"#utility.yul\":10730:10731   */\n              0x04\n                /* \"#utility.yul\":10723:10738   */\n              mstore\n                /* \"#utility.yul\":10757:10761   */\n              0x24\n                /* \"#utility.yul\":10754:10755   */\n              0x00\n                /* \"#utility.yul\":10747:10762   */\n              revert\n                /* \"#utility.yul\":10774:10876   */\n            tag_247:\n              0x00\n                /* \"#utility.yul\":10866:10868   */\n              0x1f\n                /* \"#utility.yul\":10862:10869   */\n              not\n                /* \"#utility.yul\":10857:10859   */\n              0x1f\n                /* \"#utility.yul\":10850:10855   */\n              dup4\n                /* \"#utility.yul\":10846:10860   */\n              add\n                /* \"#utility.yul\":10842:10870   */\n              and\n                /* \"#utility.yul\":10832:10870   */\n              swap1\n              pop\n                /* \"#utility.yul\":10822:10876   */\n              swap2\n              swap1\n              pop\n              jump\t// out\n                /* \"#utility.yul\":10882:11004   */\n            tag_201:\n                /* \"#utility.yul\":10955:10979   */\n              tag_341\n                /* \"#utility.yul\":10973:10978   */\n              dup2\n                /* \"#utility.yul\":10955:10979   */\n              tag_233\n              jump\t// in\n            tag_341:\n                /* \"#utility.yul\":10948:10953   */\n              dup2\n                /* \"#utility.yul\":10945:10980   */\n              eq\n                /* \"#utility.yul\":10935:10937   */\n              tag_342\n              jumpi\n                /* \"#utility.yul\":10994:10995   */\n              0x00\n                /* \"#utility.yul\":10991:10992   */\n              dup1\n                /* \"#utility.yul\":10984:10996   */\n              revert\n                /* \"#utility.yul\":10935:10937   */\n            tag_342:\n                /* \"#utility.yul\":10925:11004   */\n              pop\n              jump\t// out\n                /* \"#utility.yul\":11010:11148   */\n            tag_205:\n                /* \"#utility.yul\":11091:11123   */\n              tag_344\n                /* \"#utility.yul\":11117:11122   */\n              dup2\n                /* \"#utility.yul\":11091:11123   */\n              tag_229\n              jump\t// in\n            tag_344:\n                /* \"#utility.yul\":11084:11089   */\n              dup2\n                /* \"#utility.yul\":11081:11124   */\n              eq\n                /* \"#utility.yul\":11071:11073   */\n              tag_345\n              jumpi\n                /* \"#utility.yul\":11138:11139   */\n              0x00\n                /* \"#utility.yul\":11135:11136   */\n              dup1\n                /* \"#utility.yul\":11128:11140   */\n              revert\n                /* \"#utility.yul\":11071:11073   */\n            tag_345:\n                /* \"#utility.yul\":11061:11148   */\n              pop\n              jump\t// out\n                /* \"#utility.yul\":11154:11276   */\n            tag_213:\n                /* \"#utility.yul\":11227:11251   */\n              tag_347\n                /* \"#utility.yul\":11245:11250   */\n              dup2\n                /* \"#utility.yul\":11227:11251   */\n              tag_251\n              jump\t// in\n            tag_347:\n                /* \"#utility.yul\":11220:11225   */\n              dup2\n                /* \"#utility.yul\":11217:11252   */\n              eq\n                /* \"#utility.yul\":11207:11209   */\n              tag_348\n              jumpi\n                /* \"#utility.yul\":11266:11267   */\n              0x00\n                /* \"#utility.yul\":11263:11264   */\n              dup1\n                /* \"#utility.yul\":11256:11268   */\n              revert\n                /* \"#utility.yul\":11207:11209   */\n            tag_348:\n                /* \"#utility.yul\":11197:11276   */\n              pop\n              jump\t// out\n\n            auxdata: 0xa264697066735822122038b97925dc0588f9503ac1316f1b3e7b6cbc67c2950e5c4d5fd06388c375292464736f6c63430008030033\n        }\n    }\n\n    auxdata: 0xa2646970667358221220ab51d66e2a13138f857cbfa59511468c7047bcd9d63db33494cbc5cedbb7ca7864736f6c63430008030033\n}\n","bytecode":{"linkReferences":{},"object":"608060405234801561001057600080fd5b50612468806100206000396000f3fe60806040523480156200001157600080fd5b5060043610620000465760003560e01c80630c955d69146200004b578063e4293559146200006b578063f739bf4d146200008d575b600080fd5b6200006960048036038101906200006391906200030b565b620000c3565b005b6200007562000178565b6040516200008491906200050e565b60405180910390f35b620000ab6004803603810190620000a59190620002df565b62000208565b604051620000ba919062000532565b60405180910390f35b600086868686868633604051620000da9062000248565b620000ec97969594939291906200054f565b604051809103906000f08015801562000109573d6000803e3d6000fd5b5090506000819080600181540180825580915050600190039060005260206000200160009091909190916101000a81548173ffffffffffffffffffffffffffffffffffffffff021916908373ffffffffffffffffffffffffffffffffffffffff16021790555050505050505050565b60606000805480602002602001604051908101604052809291908181526020018280548015620001fe57602002820191906000526020600020905b8160009054906101000a900473ffffffffffffffffffffffffffffffffffffffff1673ffffffffffffffffffffffffffffffffffffffff1681526020019060010190808311620001b3575b5050505050905090565b600081815481106200021957600080fd5b906000526020600020016000915054906101000a900473ffffffffffffffffffffffffffffffffffffffff1681565b611c5b80620007d883390190565b60006200026d620002678462000611565b620005e8565b9050828152602081018484840111156200028657600080fd5b6200029384828562000702565b509392505050565b600082601f830112620002ad57600080fd5b8135620002bf84826020860162000256565b91505092915050565b600081359050620002d981620007bd565b92915050565b600060208284031215620002f257600080fd5b60006200030284828501620002c8565b91505092915050565b60008060008060008060c087890312156200032557600080fd5b60006200033589828a01620002c8565b96505060206200034889828a01620002c8565b955050604087013567ffffffffffffffff8111156200036657600080fd5b6200037489828a016200029b565b945050606087013567ffffffffffffffff8111156200039257600080fd5b620003a089828a016200029b565b935050608087013567ffffffffffffffff811115620003be57600080fd5b620003cc89828a016200029b565b92505060a087013567ffffffffffffffff811115620003ea57600080fd5b620003f889828a016200029b565b9150509295509295509295565b60006200041383836200049a565b60208301905092915050565b6200042a816200069c565b82525050565b60006200043d8262000657565b6200044981856200067a565b9350620004568362000647565b8060005b838110156200048d57815162000471888262000405565b97506200047e836200066d565b9250506001810190506200045a565b5085935050505092915050565b620004a581620006da565b82525050565b620004b681620006da565b82525050565b6000620004c98262000662565b620004d581856200068b565b9350620004e781856020860162000711565b620004f281620007ac565b840191505092915050565b6200050881620006d0565b82525050565b600060208201905081810360008301526200052a818462000430565b905092915050565b6000602082019050620005496000830184620004ab565b92915050565b600060e08201905062000566600083018a620004fd565b620005756020830189620004fd565b8181036040830152620005898188620004bc565b905081810360608301526200059f8187620004bc565b90508181036080830152620005b58186620004bc565b905081810360a0830152620005cb8185620004bc565b9050620005dc60c08301846200041f565b98975050505050505050565b6000620005f462000607565b905062000602828262000747565b919050565b6000604051905090565b600067ffffffffffffffff8211156200062f576200062e6200077d565b5b6200063a82620007ac565b9050602081019050919050565b6000819050602082019050919050565b600081519050919050565b600081519050919050565b6000602082019050919050565b600082825260208201905092915050565b600082825260208201905092915050565b6000620006a982620006b0565b9050919050565b600073ffffffffffffffffffffffffffffffffffffffff82169050919050565b6000819050919050565b6000620006e782620006ee565b9050919050565b6000620006fb82620006b0565b9050919050565b82818337600083830152505050565b60005b838110156200073157808201518184015260208101905062000714565b8381111562000741576000848401525b50505050565b6200075282620007ac565b810181811067ffffffffffffffff821117156200077457620007736200077d565b5b80604052505050565b7f4e487b7100000000000000000000000000000000000000000000000000000000600052604160045260246000fd5b6000601f19601f8301169050919050565b620007c881620006d0565b8114620007d457600080fd5b5056fe60806040523480156200001157600080fd5b5060405162001c5b38038062001c5b83398181016040528101906200003791906200024e565b80600760006101000a81548173ffffffffffffffffffffffffffffffffffffffff021916908373ffffffffffffffffffffffffffffffffffffffff16021790555086600a8190555085600c8190555084600090805190602001906200009e929190620000fe565b508360019080519060200190620000b7929190620000fe565b508260029080519060200190620000d0929190620000fe565b508160039080519060200190620000e9929190620000fe565b50426004819055505050505050505062000541565b8280546200010c9062000432565b90600052602060002090601f0160209004810192826200013057600085556200017c565b82601f106200014b57805160ff19168380011785556200017c565b828001600101855582156200017c579182015b828111156200017b5782518255916020019190600101906200015e565b5b5090506200018b91906200018f565b5090565b5b80821115620001aa57600081600090555060010162000190565b5090565b6000620001c5620001bf8462000388565b6200035f565b905082815260208101848484011115620001de57600080fd5b620001eb848285620003fc565b509392505050565b60008151905062000204816200050d565b92915050565b600082601f8301126200021c57600080fd5b81516200022e848260208601620001ae565b91505092915050565b600081519050620002488162000527565b92915050565b600080600080600080600060e0888a0312156200026a57600080fd5b60006200027a8a828b0162000237565b97505060206200028d8a828b0162000237565b965050604088015167ffffffffffffffff811115620002ab57600080fd5b620002b98a828b016200020a565b955050606088015167ffffffffffffffff811115620002d757600080fd5b620002e58a828b016200020a565b945050608088015167ffffffffffffffff8111156200030357600080fd5b620003118a828b016200020a565b93505060a088015167ffffffffffffffff8111156200032f57600080fd5b6200033d8a828b016200020a565b92505060c0620003508a828b01620001f3565b91505092959891949750929550565b60006200036b6200037e565b905062000379828262000468565b919050565b6000604051905090565b600067ffffffffffffffff821115620003a657620003a5620004cd565b5b620003b182620004fc565b9050602081019050919050565b6000620003cb82620003d2565b9050919050565b600073ffffffffffffffffffffffffffffffffffffffff82169050919050565b6000819050919050565b60005b838110156200041c578082015181840152602081019050620003ff565b838111156200042c576000848401525b50505050565b600060028204905060018216806200044b57607f821691505b602082108114156200046257620004616200049e565b5b50919050565b6200047382620004fc565b810181811067ffffffffffffffff82111715620004955762000494620004cd565b5b80604052505050565b7f4e487b7100000000000000000000000000000000000000000000000000000000600052602260045260246000fd5b7f4e487b7100000000000000000000000000000000000000000000000000000000600052604160045260246000fd5b6000601f19601f8301169050919050565b6200051881620003be565b81146200052457600080fd5b50565b6200053281620003f2565b81146200053e57600080fd5b50565b61170a80620005516000396000f3fe6080604052600436106100fe5760003560e01c806359af7a13116100955780638a9cfd55116100645780638a9cfd55146103395780639fb42b1f14610362578063b90497e01461038d578063d7bb99ba146103b8578063d7d1bbdb146103c2576100fe565b806359af7a13146102765780637284e416146102a15780637554e42f146102cc57806381d12c58146102f7576100fe565b80631da98960116100d15780631da98960146101bf57806326540fd2146101ea5780634051ddac14610215578063481c6a751461024b576100fe565b8063034410061461010357806306fdde031461012c57806309e7d837146101575780630a14439114610182575b600080fd5b34801561010f57600080fd5b5061012a6004803603810190610125919061111c565b6103eb565b005b34801561013857600080fd5b50610141610526565b60405161014e91906111d5565b60405180910390f35b34801561016357600080fd5b5061016c6105b4565b6040516101799190611335565b60405180910390f35b34801561018e57600080fd5b506101a960048036038101906101a4919061108c565b6105ba565b6040516101b69190611335565b60405180910390f35b3480156101cb57600080fd5b506101d46105d2565b6040516101e191906111d5565b60405180910390f35b3480156101f657600080fd5b506101ff610660565b60405161020c9190611335565b60405180910390f35b34801561022157600080fd5b5061022a610666565b6040516102429c9b9a999897969594939291906111f7565b60405180910390f35b34801561025757600080fd5b5061026061090a565b60405161026d91906111ba565b60405180910390f35b34801561028257600080fd5b5061028b610930565b6040516102989190611335565b60405180910390f35b3480156102ad57600080fd5b506102b6610936565b6040516102c391906111d5565b60405180910390f35b3480156102d857600080fd5b506102e16109c4565b6040516102ee9190611335565b60405180910390f35b34801561030357600080fd5b5061031e6004803603810190610319919061111c565b6109ca565b604051610330969594939291906112cd565b60405180910390f35b34801561034557600080fd5b50610360600480360381019061035b91906110b5565b610abb565b005b34801561036e57600080fd5b50610377610bdd565b6040516103849190611335565b60405180910390f35b34801561039957600080fd5b506103a2610be3565b6040516103af91906111d5565b60405180910390f35b6103c0610c71565b005b3480156103ce57600080fd5b506103e960048036038101906103e4919061111c565b610dce565b005b600760009054906101000a900473ffffffffffffffffffffffffffffffffffffffff1673ffffffffffffffffffffffffffffffffffffffff163373ffffffffffffffffffffffffffffffffffffffff161461044557600080fd5b60006006600083815260200190815260200160002090506002600b5461046b9190611418565b81600301541161047a57600080fd5b8060020160149054906101000a900460ff161561049657600080fd5b8060020160009054906101000a900473ffffffffffffffffffffffffffffffffffffffff1673ffffffffffffffffffffffffffffffffffffffff166108fc82600101549081150290604051600060405180830381858888f19350505050158015610504573d6000803e3d6000fd5b5060018160020160146101000a81548160ff0219169083151502179055505050565b60008054610533906114e5565b80601f016020809104026020016040519081016040528092919081815260200182805461055f906114e5565b80156105ac5780601f10610581576101008083540402835291602001916105ac565b820191906000526020600020905b81548152906001019060200180831161058f57829003601f168201915b505050505081565b600c5481565b60096020528060005260406000206000915090505481565b600180546105df906114e5565b80601f016020809104026020016040519081016040528092919081815260200182805461060b906114e5565b80156106585780601f1061062d57610100808354040283529160200191610658565b820191906000526020600020905b81548152906001019060200180831161063b57829003601f168201915b505050505081565b600b5481565b6060806060806000806000806000806000806000600160026003600a5447600554600b5430600760009054906101000a900473ffffffffffffffffffffffffffffffffffffffff16600454600c548b80546106c0906114e5565b80601f01602080910402602001604051908101604052809291908181526020018280546106ec906114e5565b80156107395780601f1061070e57610100808354040283529160200191610739565b820191906000526020600020905b81548152906001019060200180831161071c57829003601f168201915b50505050509b508a805461074c906114e5565b80601f0160208091040260200160405190810160405280929190818152602001828054610778906114e5565b80156107c55780601f1061079a576101008083540402835291602001916107c5565b820191906000526020600020905b8154815290600101906020018083116107a857829003601f168201915b50505050509a508980546107d8906114e5565b80601f0160208091040260200160405190810160405280929190818152602001828054610804906114e5565b80156108515780601f1061082657610100808354040283529160200191610851565b820191906000526020600020905b81548152906001019060200180831161083457829003601f168201915b50505050509950888054610864906114e5565b80601f0160208091040260200160405190810160405280929190818152602001828054610890906114e5565b80156108dd5780601f106108b2576101008083540402835291602001916108dd565b820191906000526020600020905b8154815290600101906020018083116108c057829003601f168201915b505050505098509b509b509b509b509b509b509b509b509b509b509b509b50909192939495969798999a9b565b600760009054906101000a900473ffffffffffffffffffffffffffffffffffffffff1681565b600a5481565b60028054610943906114e5565b80601f016020809104026020016040519081016040528092919081815260200182805461096f906114e5565b80156109bc5780601f10610991576101008083540402835291602001916109bc565b820191906000526020600020905b81548152906001019060200180831161099f57829003601f168201915b505050505081565b60085481565b60066020528060005260406000206000915090508060000180546109ed906114e5565b80601f0160208091040260200160405190810160405280929190818152602001828054610a19906114e5565b8015610a665780601f10610a3b57610100808354040283529160200191610a66565b820191906000526020600020905b815481529060010190602001808311610a4957829003601f168201915b5050505050908060010154908060020160009054906101000a900473ffffffffffffffffffffffffffffffffffffffff16908060020160149054906101000a900460ff16908060030154908060040154905086565b600760009054906101000a900473ffffffffffffffffffffffffffffffffffffffff1673ffffffffffffffffffffffffffffffffffffffff163373ffffffffffffffffffffffffffffffffffffffff1614610b1557600080fd5b60006006600060056000815480929190610b2e90611548565b919050558152602001908152602001600020905083816000019080519060200190610b5a929190610f42565b50828160010181905550818160020160006101000a81548173ffffffffffffffffffffffffffffffffffffffff021916908373ffffffffffffffffffffffffffffffffffffffff16021790555060008160020160146101000a81548160ff0219169083151502179055506000816003018190555042816004018190555050505050565b60055481565b60038054610bf0906114e5565b80601f0160208091040260200160405190810160405280929190818152602001828054610c1c906114e5565b8015610c695780601f10610c3e57610100808354040283529160200191610c69565b820191906000526020600020905b815481529060010190602001808311610c4c57829003601f168201915b505050505081565b600a54341015610c8057600080fd5b6000600960003373ffffffffffffffffffffffffffffffffffffffff1673ffffffffffffffffffffffffffffffffffffffff168152602001908152602001600020541415610ce15760086000815480929190610cdb90611548565b91905055505b6000600a5434610cf19190611418565b905080600960003373ffffffffffffffffffffffffffffffffffffffff1673ffffffffffffffffffffffffffffffffffffffff1681526020019081526020016000206000828254610d4291906113c2565b9250508190555080600b6000828254610d5b91906113c2565b925050819055506000600a5434610d729190611591565b905060008114610dca5760003390508073ffffffffffffffffffffffffffffffffffffffff166108fc839081150290604051600060405180830381858888f19350505050158015610dc7573d6000803e3d6000fd5b50505b5050565b60006006600083815260200190815260200160002090506000600960003373ffffffffffffffffffffffffffffffffffffffff1673ffffffffffffffffffffffffffffffffffffffff1681526020019081526020016000205411610e3157600080fd5b8060050160003373ffffffffffffffffffffffffffffffffffffffff1673ffffffffffffffffffffffffffffffffffffffff16815260200190815260200160002060009054906101000a900460ff1615610e8a57600080fd5b60018160050160003373ffffffffffffffffffffffffffffffffffffffff1673ffffffffffffffffffffffffffffffffffffffff16815260200190815260200160002060006101000a81548160ff021916908315150217905550600960003373ffffffffffffffffffffffffffffffffffffffff1673ffffffffffffffffffffffffffffffffffffffff16815260200190815260200160002054816003016000828254610f3791906113c2565b925050819055505050565b828054610f4e906114e5565b90600052602060002090601f016020900481019282610f705760008555610fb7565b82601f10610f8957805160ff1916838001178555610fb7565b82800160010185558215610fb7579182015b82811115610fb6578251825591602001919060010190610f9b565b5b509050610fc49190610fc8565b5090565b5b80821115610fe1576000816000905550600101610fc9565b5090565b6000610ff8610ff384611375565b611350565b90508281526020810184848401111561101057600080fd5b61101b8482856114a3565b509392505050565b6000813590506110328161168f565b92915050565b600081359050611047816116a6565b92915050565b600082601f83011261105e57600080fd5b813561106e848260208601610fe5565b91505092915050565b600081359050611086816116bd565b92915050565b60006020828403121561109e57600080fd5b60006110ac84828501611023565b91505092915050565b6000806000606084860312156110ca57600080fd5b600084013567ffffffffffffffff8111156110e457600080fd5b6110f08682870161104d565b935050602061110186828701611077565b925050604061111286828701611038565b9150509250925092565b60006020828403121561112e57600080fd5b600061113c84828501611077565b91505092915050565b61114e8161145b565b82525050565b61115d81611449565b82525050565b61116c8161146d565b82525050565b600061117d826113a6565b61118781856113b1565b93506111978185602086016114b2565b6111a08161167e565b840191505092915050565b6111b481611499565b82525050565b60006020820190506111cf6000830184611154565b92915050565b600060208201905081810360008301526111ef8184611172565b905092915050565b6000610180820190508181036000830152611212818f611172565b90508181036020830152611226818e611172565b9050818103604083015261123a818d611172565b9050818103606083015261124e818c611172565b905061125d608083018b6111ab565b61126a60a083018a6111ab565b61127760c08301896111ab565b61128460e08301886111ab565b611292610100830187611154565b6112a0610120830186611154565b6112ae6101408301856111ab565b6112bc6101608301846111ab565b9d9c50505050505050505050505050565b600060c08201905081810360008301526112e78189611172565b90506112f660208301886111ab565b6113036040830187611145565b6113106060830186611163565b61131d60808301856111ab565b61132a60a08301846111ab565b979650505050505050565b600060208201905061134a60008301846111ab565b92915050565b600061135a61136b565b90506113668282611517565b919050565b6000604051905090565b600067ffffffffffffffff8211156113905761138f61164f565b5b6113998261167e565b9050602081019050919050565b600081519050919050565b600082825260208201905092915050565b60006113cd82611499565b91506113d883611499565b9250827fffffffffffffffffffffffffffffffffffffffffffffffffffffffffffffffff0382111561140d5761140c6115c2565b5b828201905092915050565b600061142382611499565b915061142e83611499565b92508261143e5761143d6115f1565b5b828204905092915050565b600061145482611479565b9050919050565b600061146682611479565b9050919050565b60008115159050919050565b600073ffffffffffffffffffffffffffffffffffffffff82169050919050565b6000819050919050565b82818337600083830152505050565b60005b838110156114d05780820151818401526020810190506114b5565b838111156114df576000848401525b50505050565b600060028204905060018216806114fd57607f821691505b6020821081141561151157611510611620565b5b50919050565b6115208261167e565b810181811067ffffffffffffffff8211171561153f5761153e61164f565b5b80604052505050565b600061155382611499565b91507fffffffffffffffffffffffffffffffffffffffffffffffffffffffffffffffff821415611586576115856115c2565b5b600182019050919050565b600061159c82611499565b91506115a783611499565b9250826115b7576115b66115f1565b5b828206905092915050565b7f4e487b7100000000000000000000000000000000000000000000000000000000600052601160045260246000fd5b7f4e487b7100000000000000000000000000000000000000000000000000000000600052601260045260246000fd5b7f4e487b7100000000000000000000000000000000000000000000000000000000600052602260045260246000fd5b7f4e487b7100000000000000000000000000000000000000000000000000000000600052604160045260246000fd5b6000601f19601f8301169050919050565b61169881611449565b81146116a357600080fd5b50565b6116af8161145b565b81146116ba57600080fd5b50565b6116c681611499565b81146116d157600080fd5b5056fea264697066735822122038b97925dc0588f9503ac1316f1b3e7b6cbc67c2950e5c4d5fd06388c375292464736f6c63430008030033a2646970667358221220ab51d66e2a13138f857cbfa59511468c7047bcd9d63db33494cbc5cedbb7ca7864736f6c63430008030033","opcodes":"PUSH1 0x80 PUSH1 0x40 MSTORE CALLVALUE DUP1 ISZERO PUSH2 0x10 JUMPI PUSH1 0x0 DUP1 REVERT JUMPDEST POP PUSH2 0x2468 DUP1 PUSH2 0x20 PUSH1 0x0 CODECOPY PUSH1 0x0 RETURN INVALID PUSH1 0x80 PUSH1 0x40 MSTORE CALLVALUE DUP1 ISZERO PUSH3 0x11 JUMPI PUSH1 0x0 DUP1 REVERT JUMPDEST POP PUSH1 0x4 CALLDATASIZE LT PUSH3 0x46 JUMPI PUSH1 0x0 CALLDATALOAD PUSH1 0xE0 SHR DUP1 PUSH4 0xC955D69 EQ PUSH3 0x4B JUMPI DUP1 PUSH4 0xE4293559 EQ PUSH3 0x6B JUMPI DUP1 PUSH4 0xF739BF4D EQ PUSH3 0x8D JUMPI JUMPDEST PUSH1 0x0 DUP1 REVERT JUMPDEST PUSH3 0x69 PUSH1 0x4 DUP1 CALLDATASIZE SUB DUP2 ADD SWAP1 PUSH3 0x63 SWAP2 SWAP1 PUSH3 0x30B JUMP JUMPDEST PUSH3 0xC3 JUMP JUMPDEST STOP JUMPDEST PUSH3 0x75 PUSH3 0x178 JUMP JUMPDEST PUSH1 0x40 MLOAD PUSH3 0x84 SWAP2 SWAP1 PUSH3 0x50E JUMP JUMPDEST PUSH1 0x40 MLOAD DUP1 SWAP2 SUB SWAP1 RETURN JUMPDEST PUSH3 0xAB PUSH1 0x4 DUP1 CALLDATASIZE SUB DUP2 ADD SWAP1 PUSH3 0xA5 SWAP2 SWAP1 PUSH3 0x2DF JUMP JUMPDEST PUSH3 0x208 JUMP JUMPDEST PUSH1 0x40 MLOAD PUSH3 0xBA SWAP2 SWAP1 PUSH3 0x532 JUMP JUMPDEST PUSH1 0x40 MLOAD DUP1 SWAP2 SUB SWAP1 RETURN JUMPDEST PUSH1 0x0 DUP7 DUP7 DUP7 DUP7 DUP7 DUP7 CALLER PUSH1 0x40 MLOAD PUSH3 0xDA SWAP1 PUSH3 0x248 JUMP JUMPDEST PUSH3 0xEC SWAP8 SWAP7 SWAP6 SWAP5 SWAP4 SWAP3 SWAP2 SWAP1 PUSH3 0x54F JUMP JUMPDEST PUSH1 0x40 MLOAD DUP1 SWAP2 SUB SWAP1 PUSH1 0x0 CREATE DUP1 ISZERO DUP1 ISZERO PUSH3 0x109 JUMPI RETURNDATASIZE PUSH1 0x0 DUP1 RETURNDATACOPY RETURNDATASIZE PUSH1 0x0 REVERT JUMPDEST POP SWAP1 POP PUSH1 0x0 DUP2 SWAP1 DUP1 PUSH1 0x1 DUP2 SLOAD ADD DUP1 DUP3 SSTORE DUP1 SWAP2 POP POP PUSH1 0x1 SWAP1 SUB SWAP1 PUSH1 0x0 MSTORE PUSH1 0x20 PUSH1 0x0 KECCAK256 ADD PUSH1 0x0 SWAP1 SWAP2 SWAP1 SWAP2 SWAP1 SWAP2 PUSH2 0x100 EXP DUP2 SLOAD DUP2 PUSH20 0xFFFFFFFFFFFFFFFFFFFFFFFFFFFFFFFFFFFFFFFF MUL NOT AND SWAP1 DUP4 PUSH20 0xFFFFFFFFFFFFFFFFFFFFFFFFFFFFFFFFFFFFFFFF AND MUL OR SWAP1 SSTORE POP POP POP POP POP POP POP POP JUMP JUMPDEST PUSH1 0x60 PUSH1 0x0 DUP1 SLOAD DUP1 PUSH1 0x20 MUL PUSH1 0x20 ADD PUSH1 0x40 MLOAD SWAP1 DUP2 ADD PUSH1 0x40 MSTORE DUP1 SWAP3 SWAP2 SWAP1 DUP2 DUP2 MSTORE PUSH1 0x20 ADD DUP3 DUP1 SLOAD DUP1 ISZERO PUSH3 0x1FE JUMPI PUSH1 0x20 MUL DUP3 ADD SWAP2 SWAP1 PUSH1 0x0 MSTORE PUSH1 0x20 PUSH1 0x0 KECCAK256 SWAP1 JUMPDEST DUP2 PUSH1 0x0 SWAP1 SLOAD SWAP1 PUSH2 0x100 EXP SWAP1 DIV PUSH20 0xFFFFFFFFFFFFFFFFFFFFFFFFFFFFFFFFFFFFFFFF AND PUSH20 0xFFFFFFFFFFFFFFFFFFFFFFFFFFFFFFFFFFFFFFFF AND DUP2 MSTORE PUSH1 0x20 ADD SWAP1 PUSH1 0x1 ADD SWAP1 DUP1 DUP4 GT PUSH3 0x1B3 JUMPI JUMPDEST POP POP POP POP POP SWAP1 POP SWAP1 JUMP JUMPDEST PUSH1 0x0 DUP2 DUP2 SLOAD DUP2 LT PUSH3 0x219 JUMPI PUSH1 0x0 DUP1 REVERT JUMPDEST SWAP1 PUSH1 0x0 MSTORE PUSH1 0x20 PUSH1 0x0 KECCAK256 ADD PUSH1 0x0 SWAP2 POP SLOAD SWAP1 PUSH2 0x100 EXP SWAP1 DIV PUSH20 0xFFFFFFFFFFFFFFFFFFFFFFFFFFFFFFFFFFFFFFFF AND DUP2 JUMP JUMPDEST PUSH2 0x1C5B DUP1 PUSH3 0x7D8 DUP4 CODECOPY ADD SWAP1 JUMP JUMPDEST PUSH1 0x0 PUSH3 0x26D PUSH3 0x267 DUP5 PUSH3 0x611 JUMP JUMPDEST PUSH3 0x5E8 JUMP JUMPDEST SWAP1 POP DUP3 DUP2 MSTORE PUSH1 0x20 DUP2 ADD DUP5 DUP5 DUP5 ADD GT ISZERO PUSH3 0x286 JUMPI PUSH1 0x0 DUP1 REVERT JUMPDEST PUSH3 0x293 DUP5 DUP3 DUP6 PUSH3 0x702 JUMP JUMPDEST POP SWAP4 SWAP3 POP POP POP JUMP JUMPDEST PUSH1 0x0 DUP3 PUSH1 0x1F DUP4 ADD SLT PUSH3 0x2AD JUMPI PUSH1 0x0 DUP1 REVERT JUMPDEST DUP2 CALLDATALOAD PUSH3 0x2BF DUP5 DUP3 PUSH1 0x20 DUP7 ADD PUSH3 0x256 JUMP JUMPDEST SWAP2 POP POP SWAP3 SWAP2 POP POP JUMP JUMPDEST PUSH1 0x0 DUP2 CALLDATALOAD SWAP1 POP PUSH3 0x2D9 DUP2 PUSH3 0x7BD JUMP JUMPDEST SWAP3 SWAP2 POP POP JUMP JUMPDEST PUSH1 0x0 PUSH1 0x20 DUP3 DUP5 SUB SLT ISZERO PUSH3 0x2F2 JUMPI PUSH1 0x0 DUP1 REVERT JUMPDEST PUSH1 0x0 PUSH3 0x302 DUP5 DUP3 DUP6 ADD PUSH3 0x2C8 JUMP JUMPDEST SWAP2 POP POP SWAP3 SWAP2 POP POP JUMP JUMPDEST PUSH1 0x0 DUP1 PUSH1 0x0 DUP1 PUSH1 0x0 DUP1 PUSH1 0xC0 DUP8 DUP10 SUB SLT ISZERO PUSH3 0x325 JUMPI PUSH1 0x0 DUP1 REVERT JUMPDEST PUSH1 0x0 PUSH3 0x335 DUP10 DUP3 DUP11 ADD PUSH3 0x2C8 JUMP JUMPDEST SWAP7 POP POP PUSH1 0x20 PUSH3 0x348 DUP10 DUP3 DUP11 ADD PUSH3 0x2C8 JUMP JUMPDEST SWAP6 POP POP PUSH1 0x40 DUP8 ADD CALLDATALOAD PUSH8 0xFFFFFFFFFFFFFFFF DUP2 GT ISZERO PUSH3 0x366 JUMPI PUSH1 0x0 DUP1 REVERT JUMPDEST PUSH3 0x374 DUP10 DUP3 DUP11 ADD PUSH3 0x29B JUMP JUMPDEST SWAP5 POP POP PUSH1 0x60 DUP8 ADD CALLDATALOAD PUSH8 0xFFFFFFFFFFFFFFFF DUP2 GT ISZERO PUSH3 0x392 JUMPI PUSH1 0x0 DUP1 REVERT JUMPDEST PUSH3 0x3A0 DUP10 DUP3 DUP11 ADD PUSH3 0x29B JUMP JUMPDEST SWAP4 POP POP PUSH1 0x80 DUP8 ADD CALLDATALOAD PUSH8 0xFFFFFFFFFFFFFFFF DUP2 GT ISZERO PUSH3 0x3BE JUMPI PUSH1 0x0 DUP1 REVERT JUMPDEST PUSH3 0x3CC DUP10 DUP3 DUP11 ADD PUSH3 0x29B JUMP JUMPDEST SWAP3 POP POP PUSH1 0xA0 DUP8 ADD CALLDATALOAD PUSH8 0xFFFFFFFFFFFFFFFF DUP2 GT ISZERO PUSH3 0x3EA JUMPI PUSH1 0x0 DUP1 REVERT JUMPDEST PUSH3 0x3F8 DUP10 DUP3 DUP11 ADD PUSH3 0x29B JUMP JUMPDEST SWAP2 POP POP SWAP3 SWAP6 POP SWAP3 SWAP6 POP SWAP3 SWAP6 JUMP JUMPDEST PUSH1 0x0 PUSH3 0x413 DUP4 DUP4 PUSH3 0x49A JUMP JUMPDEST PUSH1 0x20 DUP4 ADD SWAP1 POP SWAP3 SWAP2 POP POP JUMP JUMPDEST PUSH3 0x42A DUP2 PUSH3 0x69C JUMP JUMPDEST DUP3 MSTORE POP POP JUMP JUMPDEST PUSH1 0x0 PUSH3 0x43D DUP3 PUSH3 0x657 JUMP JUMPDEST PUSH3 0x449 DUP2 DUP6 PUSH3 0x67A JUMP JUMPDEST SWAP4 POP PUSH3 0x456 DUP4 PUSH3 0x647 JUMP JUMPDEST DUP1 PUSH1 0x0 JUMPDEST DUP4 DUP2 LT ISZERO PUSH3 0x48D JUMPI DUP2 MLOAD PUSH3 0x471 DUP9 DUP3 PUSH3 0x405 JUMP JUMPDEST SWAP8 POP PUSH3 0x47E DUP4 PUSH3 0x66D JUMP JUMPDEST SWAP3 POP POP PUSH1 0x1 DUP2 ADD SWAP1 POP PUSH3 0x45A JUMP JUMPDEST POP DUP6 SWAP4 POP POP POP POP SWAP3 SWAP2 POP POP JUMP JUMPDEST PUSH3 0x4A5 DUP2 PUSH3 0x6DA JUMP JUMPDEST DUP3 MSTORE POP POP JUMP JUMPDEST PUSH3 0x4B6 DUP2 PUSH3 0x6DA JUMP JUMPDEST DUP3 MSTORE POP POP JUMP JUMPDEST PUSH1 0x0 PUSH3 0x4C9 DUP3 PUSH3 0x662 JUMP JUMPDEST PUSH3 0x4D5 DUP2 DUP6 PUSH3 0x68B JUMP JUMPDEST SWAP4 POP PUSH3 0x4E7 DUP2 DUP6 PUSH1 0x20 DUP7 ADD PUSH3 0x711 JUMP JUMPDEST PUSH3 0x4F2 DUP2 PUSH3 0x7AC JUMP JUMPDEST DUP5 ADD SWAP2 POP POP SWAP3 SWAP2 POP POP JUMP JUMPDEST PUSH3 0x508 DUP2 PUSH3 0x6D0 JUMP JUMPDEST DUP3 MSTORE POP POP JUMP JUMPDEST PUSH1 0x0 PUSH1 0x20 DUP3 ADD SWAP1 POP DUP2 DUP2 SUB PUSH1 0x0 DUP4 ADD MSTORE PUSH3 0x52A DUP2 DUP5 PUSH3 0x430 JUMP JUMPDEST SWAP1 POP SWAP3 SWAP2 POP POP JUMP JUMPDEST PUSH1 0x0 PUSH1 0x20 DUP3 ADD SWAP1 POP PUSH3 0x549 PUSH1 0x0 DUP4 ADD DUP5 PUSH3 0x4AB JUMP JUMPDEST SWAP3 SWAP2 POP POP JUMP JUMPDEST PUSH1 0x0 PUSH1 0xE0 DUP3 ADD SWAP1 POP PUSH3 0x566 PUSH1 0x0 DUP4 ADD DUP11 PUSH3 0x4FD JUMP JUMPDEST PUSH3 0x575 PUSH1 0x20 DUP4 ADD DUP10 PUSH3 0x4FD JUMP JUMPDEST DUP2 DUP2 SUB PUSH1 0x40 DUP4 ADD MSTORE PUSH3 0x589 DUP2 DUP9 PUSH3 0x4BC JUMP JUMPDEST SWAP1 POP DUP2 DUP2 SUB PUSH1 0x60 DUP4 ADD MSTORE PUSH3 0x59F DUP2 DUP8 PUSH3 0x4BC JUMP JUMPDEST SWAP1 POP DUP2 DUP2 SUB PUSH1 0x80 DUP4 ADD MSTORE PUSH3 0x5B5 DUP2 DUP7 PUSH3 0x4BC JUMP JUMPDEST SWAP1 POP DUP2 DUP2 SUB PUSH1 0xA0 DUP4 ADD MSTORE PUSH3 0x5CB DUP2 DUP6 PUSH3 0x4BC JUMP JUMPDEST SWAP1 POP PUSH3 0x5DC PUSH1 0xC0 DUP4 ADD DUP5 PUSH3 0x41F JUMP JUMPDEST SWAP9 SWAP8 POP POP POP POP POP POP POP POP JUMP JUMPDEST PUSH1 0x0 PUSH3 0x5F4 PUSH3 0x607 JUMP JUMPDEST SWAP1 POP PUSH3 0x602 DUP3 DUP3 PUSH3 0x747 JUMP JUMPDEST SWAP2 SWAP1 POP JUMP JUMPDEST PUSH1 0x0 PUSH1 0x40 MLOAD SWAP1 POP SWAP1 JUMP JUMPDEST PUSH1 0x0 PUSH8 0xFFFFFFFFFFFFFFFF DUP3 GT ISZERO PUSH3 0x62F JUMPI PUSH3 0x62E PUSH3 0x77D JUMP JUMPDEST JUMPDEST PUSH3 0x63A DUP3 PUSH3 0x7AC JUMP JUMPDEST SWAP1 POP PUSH1 0x20 DUP2 ADD SWAP1 POP SWAP2 SWAP1 POP JUMP JUMPDEST PUSH1 0x0 DUP2 SWAP1 POP PUSH1 0x20 DUP3 ADD SWAP1 POP SWAP2 SWAP1 POP JUMP JUMPDEST PUSH1 0x0 DUP2 MLOAD SWAP1 POP SWAP2 SWAP1 POP JUMP JUMPDEST PUSH1 0x0 DUP2 MLOAD SWAP1 POP SWAP2 SWAP1 POP JUMP JUMPDEST PUSH1 0x0 PUSH1 0x20 DUP3 ADD SWAP1 POP SWAP2 SWAP1 POP JUMP JUMPDEST PUSH1 0x0 DUP3 DUP3 MSTORE PUSH1 0x20 DUP3 ADD SWAP1 POP SWAP3 SWAP2 POP POP JUMP JUMPDEST PUSH1 0x0 DUP3 DUP3 MSTORE PUSH1 0x20 DUP3 ADD SWAP1 POP SWAP3 SWAP2 POP POP JUMP JUMPDEST PUSH1 0x0 PUSH3 0x6A9 DUP3 PUSH3 0x6B0 JUMP JUMPDEST SWAP1 POP SWAP2 SWAP1 POP JUMP JUMPDEST PUSH1 0x0 PUSH20 0xFFFFFFFFFFFFFFFFFFFFFFFFFFFFFFFFFFFFFFFF DUP3 AND SWAP1 POP SWAP2 SWAP1 POP JUMP JUMPDEST PUSH1 0x0 DUP2 SWAP1 POP SWAP2 SWAP1 POP JUMP JUMPDEST PUSH1 0x0 PUSH3 0x6E7 DUP3 PUSH3 0x6EE JUMP JUMPDEST SWAP1 POP SWAP2 SWAP1 POP JUMP JUMPDEST PUSH1 0x0 PUSH3 0x6FB DUP3 PUSH3 0x6B0 JUMP JUMPDEST SWAP1 POP SWAP2 SWAP1 POP JUMP JUMPDEST DUP3 DUP2 DUP4 CALLDATACOPY PUSH1 0x0 DUP4 DUP4 ADD MSTORE POP POP POP JUMP JUMPDEST PUSH1 0x0 JUMPDEST DUP4 DUP2 LT ISZERO PUSH3 0x731 JUMPI DUP1 DUP3 ADD MLOAD DUP2 DUP5 ADD MSTORE PUSH1 0x20 DUP2 ADD SWAP1 POP PUSH3 0x714 JUMP JUMPDEST DUP4 DUP2 GT ISZERO PUSH3 0x741 JUMPI PUSH1 0x0 DUP5 DUP5 ADD MSTORE JUMPDEST POP POP POP POP JUMP JUMPDEST PUSH3 0x752 DUP3 PUSH3 0x7AC JUMP JUMPDEST DUP2 ADD DUP2 DUP2 LT PUSH8 0xFFFFFFFFFFFFFFFF DUP3 GT OR ISZERO PUSH3 0x774 JUMPI PUSH3 0x773 PUSH3 0x77D JUMP JUMPDEST JUMPDEST DUP1 PUSH1 0x40 MSTORE POP POP POP JUMP JUMPDEST PUSH32 0x4E487B7100000000000000000000000000000000000000000000000000000000 PUSH1 0x0 MSTORE PUSH1 0x41 PUSH1 0x4 MSTORE PUSH1 0x24 PUSH1 0x0 REVERT JUMPDEST PUSH1 0x0 PUSH1 0x1F NOT PUSH1 0x1F DUP4 ADD AND SWAP1 POP SWAP2 SWAP1 POP JUMP JUMPDEST PUSH3 0x7C8 DUP2 PUSH3 0x6D0 JUMP JUMPDEST DUP2 EQ PUSH3 0x7D4 JUMPI PUSH1 0x0 DUP1 REVERT JUMPDEST POP JUMP INVALID PUSH1 0x80 PUSH1 0x40 MSTORE CALLVALUE DUP1 ISZERO PUSH3 0x11 JUMPI PUSH1 0x0 DUP1 REVERT JUMPDEST POP PUSH1 0x40 MLOAD PUSH3 0x1C5B CODESIZE SUB DUP1 PUSH3 0x1C5B DUP4 CODECOPY DUP2 DUP2 ADD PUSH1 0x40 MSTORE DUP2 ADD SWAP1 PUSH3 0x37 SWAP2 SWAP1 PUSH3 0x24E JUMP JUMPDEST DUP1 PUSH1 0x7 PUSH1 0x0 PUSH2 0x100 EXP DUP2 SLOAD DUP2 PUSH20 0xFFFFFFFFFFFFFFFFFFFFFFFFFFFFFFFFFFFFFFFF MUL NOT AND SWAP1 DUP4 PUSH20 0xFFFFFFFFFFFFFFFFFFFFFFFFFFFFFFFFFFFFFFFF AND MUL OR SWAP1 SSTORE POP DUP7 PUSH1 0xA DUP2 SWAP1 SSTORE POP DUP6 PUSH1 0xC DUP2 SWAP1 SSTORE POP DUP5 PUSH1 0x0 SWAP1 DUP1 MLOAD SWAP1 PUSH1 0x20 ADD SWAP1 PUSH3 0x9E SWAP3 SWAP2 SWAP1 PUSH3 0xFE JUMP JUMPDEST POP DUP4 PUSH1 0x1 SWAP1 DUP1 MLOAD SWAP1 PUSH1 0x20 ADD SWAP1 PUSH3 0xB7 SWAP3 SWAP2 SWAP1 PUSH3 0xFE JUMP JUMPDEST POP DUP3 PUSH1 0x2 SWAP1 DUP1 MLOAD SWAP1 PUSH1 0x20 ADD SWAP1 PUSH3 0xD0 SWAP3 SWAP2 SWAP1 PUSH3 0xFE JUMP JUMPDEST POP DUP2 PUSH1 0x3 SWAP1 DUP1 MLOAD SWAP1 PUSH1 0x20 ADD SWAP1 PUSH3 0xE9 SWAP3 SWAP2 SWAP1 PUSH3 0xFE JUMP JUMPDEST POP TIMESTAMP PUSH1 0x4 DUP2 SWAP1 SSTORE POP POP POP POP POP POP POP POP PUSH3 0x541 JUMP JUMPDEST DUP3 DUP1 SLOAD PUSH3 0x10C SWAP1 PUSH3 0x432 JUMP JUMPDEST SWAP1 PUSH1 0x0 MSTORE PUSH1 0x20 PUSH1 0x0 KECCAK256 SWAP1 PUSH1 0x1F ADD PUSH1 0x20 SWAP1 DIV DUP2 ADD SWAP3 DUP3 PUSH3 0x130 JUMPI PUSH1 0x0 DUP6 SSTORE PUSH3 0x17C JUMP JUMPDEST DUP3 PUSH1 0x1F LT PUSH3 0x14B JUMPI DUP1 MLOAD PUSH1 0xFF NOT AND DUP4 DUP1 ADD OR DUP6 SSTORE PUSH3 0x17C JUMP JUMPDEST DUP3 DUP1 ADD PUSH1 0x1 ADD DUP6 SSTORE DUP3 ISZERO PUSH3 0x17C JUMPI SWAP2 DUP3 ADD JUMPDEST DUP3 DUP2 GT ISZERO PUSH3 0x17B JUMPI DUP3 MLOAD DUP3 SSTORE SWAP2 PUSH1 0x20 ADD SWAP2 SWAP1 PUSH1 0x1 ADD SWAP1 PUSH3 0x15E JUMP JUMPDEST JUMPDEST POP SWAP1 POP PUSH3 0x18B SWAP2 SWAP1 PUSH3 0x18F JUMP JUMPDEST POP SWAP1 JUMP JUMPDEST JUMPDEST DUP1 DUP3 GT ISZERO PUSH3 0x1AA JUMPI PUSH1 0x0 DUP2 PUSH1 0x0 SWAP1 SSTORE POP PUSH1 0x1 ADD PUSH3 0x190 JUMP JUMPDEST POP SWAP1 JUMP JUMPDEST PUSH1 0x0 PUSH3 0x1C5 PUSH3 0x1BF DUP5 PUSH3 0x388 JUMP JUMPDEST PUSH3 0x35F JUMP JUMPDEST SWAP1 POP DUP3 DUP2 MSTORE PUSH1 0x20 DUP2 ADD DUP5 DUP5 DUP5 ADD GT ISZERO PUSH3 0x1DE JUMPI PUSH1 0x0 DUP1 REVERT JUMPDEST PUSH3 0x1EB DUP5 DUP3 DUP6 PUSH3 0x3FC JUMP JUMPDEST POP SWAP4 SWAP3 POP POP POP JUMP JUMPDEST PUSH1 0x0 DUP2 MLOAD SWAP1 POP PUSH3 0x204 DUP2 PUSH3 0x50D JUMP JUMPDEST SWAP3 SWAP2 POP POP JUMP JUMPDEST PUSH1 0x0 DUP3 PUSH1 0x1F DUP4 ADD SLT PUSH3 0x21C JUMPI PUSH1 0x0 DUP1 REVERT JUMPDEST DUP2 MLOAD PUSH3 0x22E DUP5 DUP3 PUSH1 0x20 DUP7 ADD PUSH3 0x1AE JUMP JUMPDEST SWAP2 POP POP SWAP3 SWAP2 POP POP JUMP JUMPDEST PUSH1 0x0 DUP2 MLOAD SWAP1 POP PUSH3 0x248 DUP2 PUSH3 0x527 JUMP JUMPDEST SWAP3 SWAP2 POP POP JUMP JUMPDEST PUSH1 0x0 DUP1 PUSH1 0x0 DUP1 PUSH1 0x0 DUP1 PUSH1 0x0 PUSH1 0xE0 DUP9 DUP11 SUB SLT ISZERO PUSH3 0x26A JUMPI PUSH1 0x0 DUP1 REVERT JUMPDEST PUSH1 0x0 PUSH3 0x27A DUP11 DUP3 DUP12 ADD PUSH3 0x237 JUMP JUMPDEST SWAP8 POP POP PUSH1 0x20 PUSH3 0x28D DUP11 DUP3 DUP12 ADD PUSH3 0x237 JUMP JUMPDEST SWAP7 POP POP PUSH1 0x40 DUP9 ADD MLOAD PUSH8 0xFFFFFFFFFFFFFFFF DUP2 GT ISZERO PUSH3 0x2AB JUMPI PUSH1 0x0 DUP1 REVERT JUMPDEST PUSH3 0x2B9 DUP11 DUP3 DUP12 ADD PUSH3 0x20A JUMP JUMPDEST SWAP6 POP POP PUSH1 0x60 DUP9 ADD MLOAD PUSH8 0xFFFFFFFFFFFFFFFF DUP2 GT ISZERO PUSH3 0x2D7 JUMPI PUSH1 0x0 DUP1 REVERT JUMPDEST PUSH3 0x2E5 DUP11 DUP3 DUP12 ADD PUSH3 0x20A JUMP JUMPDEST SWAP5 POP POP PUSH1 0x80 DUP9 ADD MLOAD PUSH8 0xFFFFFFFFFFFFFFFF DUP2 GT ISZERO PUSH3 0x303 JUMPI PUSH1 0x0 DUP1 REVERT JUMPDEST PUSH3 0x311 DUP11 DUP3 DUP12 ADD PUSH3 0x20A JUMP JUMPDEST SWAP4 POP POP PUSH1 0xA0 DUP9 ADD MLOAD PUSH8 0xFFFFFFFFFFFFFFFF DUP2 GT ISZERO PUSH3 0x32F JUMPI PUSH1 0x0 DUP1 REVERT JUMPDEST PUSH3 0x33D DUP11 DUP3 DUP12 ADD PUSH3 0x20A JUMP JUMPDEST SWAP3 POP POP PUSH1 0xC0 PUSH3 0x350 DUP11 DUP3 DUP12 ADD PUSH3 0x1F3 JUMP JUMPDEST SWAP2 POP POP SWAP3 SWAP6 SWAP9 SWAP2 SWAP5 SWAP8 POP SWAP3 SWAP6 POP JUMP JUMPDEST PUSH1 0x0 PUSH3 0x36B PUSH3 0x37E JUMP JUMPDEST SWAP1 POP PUSH3 0x379 DUP3 DUP3 PUSH3 0x468 JUMP JUMPDEST SWAP2 SWAP1 POP JUMP JUMPDEST PUSH1 0x0 PUSH1 0x40 MLOAD SWAP1 POP SWAP1 JUMP JUMPDEST PUSH1 0x0 PUSH8 0xFFFFFFFFFFFFFFFF DUP3 GT ISZERO PUSH3 0x3A6 JUMPI PUSH3 0x3A5 PUSH3 0x4CD JUMP JUMPDEST JUMPDEST PUSH3 0x3B1 DUP3 PUSH3 0x4FC JUMP JUMPDEST SWAP1 POP PUSH1 0x20 DUP2 ADD SWAP1 POP SWAP2 SWAP1 POP JUMP JUMPDEST PUSH1 0x0 PUSH3 0x3CB DUP3 PUSH3 0x3D2 JUMP JUMPDEST SWAP1 POP SWAP2 SWAP1 POP JUMP JUMPDEST PUSH1 0x0 PUSH20 0xFFFFFFFFFFFFFFFFFFFFFFFFFFFFFFFFFFFFFFFF DUP3 AND SWAP1 POP SWAP2 SWAP1 POP JUMP JUMPDEST PUSH1 0x0 DUP2 SWAP1 POP SWAP2 SWAP1 POP JUMP JUMPDEST PUSH1 0x0 JUMPDEST DUP4 DUP2 LT ISZERO PUSH3 0x41C JUMPI DUP1 DUP3 ADD MLOAD DUP2 DUP5 ADD MSTORE PUSH1 0x20 DUP2 ADD SWAP1 POP PUSH3 0x3FF JUMP JUMPDEST DUP4 DUP2 GT ISZERO PUSH3 0x42C JUMPI PUSH1 0x0 DUP5 DUP5 ADD MSTORE JUMPDEST POP POP POP POP JUMP JUMPDEST PUSH1 0x0 PUSH1 0x2 DUP3 DIV SWAP1 POP PUSH1 0x1 DUP3 AND DUP1 PUSH3 0x44B JUMPI PUSH1 0x7F DUP3 AND SWAP2 POP JUMPDEST PUSH1 0x20 DUP3 LT DUP2 EQ ISZERO PUSH3 0x462 JUMPI PUSH3 0x461 PUSH3 0x49E JUMP JUMPDEST JUMPDEST POP SWAP2 SWAP1 POP JUMP JUMPDEST PUSH3 0x473 DUP3 PUSH3 0x4FC JUMP JUMPDEST DUP2 ADD DUP2 DUP2 LT PUSH8 0xFFFFFFFFFFFFFFFF DUP3 GT OR ISZERO PUSH3 0x495 JUMPI PUSH3 0x494 PUSH3 0x4CD JUMP JUMPDEST JUMPDEST DUP1 PUSH1 0x40 MSTORE POP POP POP JUMP JUMPDEST PUSH32 0x4E487B7100000000000000000000000000000000000000000000000000000000 PUSH1 0x0 MSTORE PUSH1 0x22 PUSH1 0x4 MSTORE PUSH1 0x24 PUSH1 0x0 REVERT JUMPDEST PUSH32 0x4E487B7100000000000000000000000000000000000000000000000000000000 PUSH1 0x0 MSTORE PUSH1 0x41 PUSH1 0x4 MSTORE PUSH1 0x24 PUSH1 0x0 REVERT JUMPDEST PUSH1 0x0 PUSH1 0x1F NOT PUSH1 0x1F DUP4 ADD AND SWAP1 POP SWAP2 SWAP1 POP JUMP JUMPDEST PUSH3 0x518 DUP2 PUSH3 0x3BE JUMP JUMPDEST DUP2 EQ PUSH3 0x524 JUMPI PUSH1 0x0 DUP1 REVERT JUMPDEST POP JUMP JUMPDEST PUSH3 0x532 DUP2 PUSH3 0x3F2 JUMP JUMPDEST DUP2 EQ PUSH3 0x53E JUMPI PUSH1 0x0 DUP1 REVERT JUMPDEST POP JUMP JUMPDEST PUSH2 0x170A DUP1 PUSH3 0x551 PUSH1 0x0 CODECOPY PUSH1 0x0 RETURN INVALID PUSH1 0x80 PUSH1 0x40 MSTORE PUSH1 0x4 CALLDATASIZE LT PUSH2 0xFE JUMPI PUSH1 0x0 CALLDATALOAD PUSH1 0xE0 SHR DUP1 PUSH4 0x59AF7A13 GT PUSH2 0x95 JUMPI DUP1 PUSH4 0x8A9CFD55 GT PUSH2 0x64 JUMPI DUP1 PUSH4 0x8A9CFD55 EQ PUSH2 0x339 JUMPI DUP1 PUSH4 0x9FB42B1F EQ PUSH2 0x362 JUMPI DUP1 PUSH4 0xB90497E0 EQ PUSH2 0x38D JUMPI DUP1 PUSH4 0xD7BB99BA EQ PUSH2 0x3B8 JUMPI DUP1 PUSH4 0xD7D1BBDB EQ PUSH2 0x3C2 JUMPI PUSH2 0xFE JUMP JUMPDEST DUP1 PUSH4 0x59AF7A13 EQ PUSH2 0x276 JUMPI DUP1 PUSH4 0x7284E416 EQ PUSH2 0x2A1 JUMPI DUP1 PUSH4 0x7554E42F EQ PUSH2 0x2CC JUMPI DUP1 PUSH4 0x81D12C58 EQ PUSH2 0x2F7 JUMPI PUSH2 0xFE JUMP JUMPDEST DUP1 PUSH4 0x1DA98960 GT PUSH2 0xD1 JUMPI DUP1 PUSH4 0x1DA98960 EQ PUSH2 0x1BF JUMPI DUP1 PUSH4 0x26540FD2 EQ PUSH2 0x1EA JUMPI DUP1 PUSH4 0x4051DDAC EQ PUSH2 0x215 JUMPI DUP1 PUSH4 0x481C6A75 EQ PUSH2 0x24B JUMPI PUSH2 0xFE JUMP JUMPDEST DUP1 PUSH4 0x3441006 EQ PUSH2 0x103 JUMPI DUP1 PUSH4 0x6FDDE03 EQ PUSH2 0x12C JUMPI DUP1 PUSH4 0x9E7D837 EQ PUSH2 0x157 JUMPI DUP1 PUSH4 0xA144391 EQ PUSH2 0x182 JUMPI JUMPDEST PUSH1 0x0 DUP1 REVERT JUMPDEST CALLVALUE DUP1 ISZERO PUSH2 0x10F JUMPI PUSH1 0x0 DUP1 REVERT JUMPDEST POP PUSH2 0x12A PUSH1 0x4 DUP1 CALLDATASIZE SUB DUP2 ADD SWAP1 PUSH2 0x125 SWAP2 SWAP1 PUSH2 0x111C JUMP JUMPDEST PUSH2 0x3EB JUMP JUMPDEST STOP JUMPDEST CALLVALUE DUP1 ISZERO PUSH2 0x138 JUMPI PUSH1 0x0 DUP1 REVERT JUMPDEST POP PUSH2 0x141 PUSH2 0x526 JUMP JUMPDEST PUSH1 0x40 MLOAD PUSH2 0x14E SWAP2 SWAP1 PUSH2 0x11D5 JUMP JUMPDEST PUSH1 0x40 MLOAD DUP1 SWAP2 SUB SWAP1 RETURN JUMPDEST CALLVALUE DUP1 ISZERO PUSH2 0x163 JUMPI PUSH1 0x0 DUP1 REVERT JUMPDEST POP PUSH2 0x16C PUSH2 0x5B4 JUMP JUMPDEST PUSH1 0x40 MLOAD PUSH2 0x179 SWAP2 SWAP1 PUSH2 0x1335 JUMP JUMPDEST PUSH1 0x40 MLOAD DUP1 SWAP2 SUB SWAP1 RETURN JUMPDEST CALLVALUE DUP1 ISZERO PUSH2 0x18E JUMPI PUSH1 0x0 DUP1 REVERT JUMPDEST POP PUSH2 0x1A9 PUSH1 0x4 DUP1 CALLDATASIZE SUB DUP2 ADD SWAP1 PUSH2 0x1A4 SWAP2 SWAP1 PUSH2 0x108C JUMP JUMPDEST PUSH2 0x5BA JUMP JUMPDEST PUSH1 0x40 MLOAD PUSH2 0x1B6 SWAP2 SWAP1 PUSH2 0x1335 JUMP JUMPDEST PUSH1 0x40 MLOAD DUP1 SWAP2 SUB SWAP1 RETURN JUMPDEST CALLVALUE DUP1 ISZERO PUSH2 0x1CB JUMPI PUSH1 0x0 DUP1 REVERT JUMPDEST POP PUSH2 0x1D4 PUSH2 0x5D2 JUMP JUMPDEST PUSH1 0x40 MLOAD PUSH2 0x1E1 SWAP2 SWAP1 PUSH2 0x11D5 JUMP JUMPDEST PUSH1 0x40 MLOAD DUP1 SWAP2 SUB SWAP1 RETURN JUMPDEST CALLVALUE DUP1 ISZERO PUSH2 0x1F6 JUMPI PUSH1 0x0 DUP1 REVERT JUMPDEST POP PUSH2 0x1FF PUSH2 0x660 JUMP JUMPDEST PUSH1 0x40 MLOAD PUSH2 0x20C SWAP2 SWAP1 PUSH2 0x1335 JUMP JUMPDEST PUSH1 0x40 MLOAD DUP1 SWAP2 SUB SWAP1 RETURN JUMPDEST CALLVALUE DUP1 ISZERO PUSH2 0x221 JUMPI PUSH1 0x0 DUP1 REVERT JUMPDEST POP PUSH2 0x22A PUSH2 0x666 JUMP JUMPDEST PUSH1 0x40 MLOAD PUSH2 0x242 SWAP13 SWAP12 SWAP11 SWAP10 SWAP9 SWAP8 SWAP7 SWAP6 SWAP5 SWAP4 SWAP3 SWAP2 SWAP1 PUSH2 0x11F7 JUMP JUMPDEST PUSH1 0x40 MLOAD DUP1 SWAP2 SUB SWAP1 RETURN JUMPDEST CALLVALUE DUP1 ISZERO PUSH2 0x257 JUMPI PUSH1 0x0 DUP1 REVERT JUMPDEST POP PUSH2 0x260 PUSH2 0x90A JUMP JUMPDEST PUSH1 0x40 MLOAD PUSH2 0x26D SWAP2 SWAP1 PUSH2 0x11BA JUMP JUMPDEST PUSH1 0x40 MLOAD DUP1 SWAP2 SUB SWAP1 RETURN JUMPDEST CALLVALUE DUP1 ISZERO PUSH2 0x282 JUMPI PUSH1 0x0 DUP1 REVERT JUMPDEST POP PUSH2 0x28B PUSH2 0x930 JUMP JUMPDEST PUSH1 0x40 MLOAD PUSH2 0x298 SWAP2 SWAP1 PUSH2 0x1335 JUMP JUMPDEST PUSH1 0x40 MLOAD DUP1 SWAP2 SUB SWAP1 RETURN JUMPDEST CALLVALUE DUP1 ISZERO PUSH2 0x2AD JUMPI PUSH1 0x0 DUP1 REVERT JUMPDEST POP PUSH2 0x2B6 PUSH2 0x936 JUMP JUMPDEST PUSH1 0x40 MLOAD PUSH2 0x2C3 SWAP2 SWAP1 PUSH2 0x11D5 JUMP JUMPDEST PUSH1 0x40 MLOAD DUP1 SWAP2 SUB SWAP1 RETURN JUMPDEST CALLVALUE DUP1 ISZERO PUSH2 0x2D8 JUMPI PUSH1 0x0 DUP1 REVERT JUMPDEST POP PUSH2 0x2E1 PUSH2 0x9C4 JUMP JUMPDEST PUSH1 0x40 MLOAD PUSH2 0x2EE SWAP2 SWAP1 PUSH2 0x1335 JUMP JUMPDEST PUSH1 0x40 MLOAD DUP1 SWAP2 SUB SWAP1 RETURN JUMPDEST CALLVALUE DUP1 ISZERO PUSH2 0x303 JUMPI PUSH1 0x0 DUP1 REVERT JUMPDEST POP PUSH2 0x31E PUSH1 0x4 DUP1 CALLDATASIZE SUB DUP2 ADD SWAP1 PUSH2 0x319 SWAP2 SWAP1 PUSH2 0x111C JUMP JUMPDEST PUSH2 0x9CA JUMP JUMPDEST PUSH1 0x40 MLOAD PUSH2 0x330 SWAP7 SWAP6 SWAP5 SWAP4 SWAP3 SWAP2 SWAP1 PUSH2 0x12CD JUMP JUMPDEST PUSH1 0x40 MLOAD DUP1 SWAP2 SUB SWAP1 RETURN JUMPDEST CALLVALUE DUP1 ISZERO PUSH2 0x345 JUMPI PUSH1 0x0 DUP1 REVERT JUMPDEST POP PUSH2 0x360 PUSH1 0x4 DUP1 CALLDATASIZE SUB DUP2 ADD SWAP1 PUSH2 0x35B SWAP2 SWAP1 PUSH2 0x10B5 JUMP JUMPDEST PUSH2 0xABB JUMP JUMPDEST STOP JUMPDEST CALLVALUE DUP1 ISZERO PUSH2 0x36E JUMPI PUSH1 0x0 DUP1 REVERT JUMPDEST POP PUSH2 0x377 PUSH2 0xBDD JUMP JUMPDEST PUSH1 0x40 MLOAD PUSH2 0x384 SWAP2 SWAP1 PUSH2 0x1335 JUMP JUMPDEST PUSH1 0x40 MLOAD DUP1 SWAP2 SUB SWAP1 RETURN JUMPDEST CALLVALUE DUP1 ISZERO PUSH2 0x399 JUMPI PUSH1 0x0 DUP1 REVERT JUMPDEST POP PUSH2 0x3A2 PUSH2 0xBE3 JUMP JUMPDEST PUSH1 0x40 MLOAD PUSH2 0x3AF SWAP2 SWAP1 PUSH2 0x11D5 JUMP JUMPDEST PUSH1 0x40 MLOAD DUP1 SWAP2 SUB SWAP1 RETURN JUMPDEST PUSH2 0x3C0 PUSH2 0xC71 JUMP JUMPDEST STOP JUMPDEST CALLVALUE DUP1 ISZERO PUSH2 0x3CE JUMPI PUSH1 0x0 DUP1 REVERT JUMPDEST POP PUSH2 0x3E9 PUSH1 0x4 DUP1 CALLDATASIZE SUB DUP2 ADD SWAP1 PUSH2 0x3E4 SWAP2 SWAP1 PUSH2 0x111C JUMP JUMPDEST PUSH2 0xDCE JUMP JUMPDEST STOP JUMPDEST PUSH1 0x7 PUSH1 0x0 SWAP1 SLOAD SWAP1 PUSH2 0x100 EXP SWAP1 DIV PUSH20 0xFFFFFFFFFFFFFFFFFFFFFFFFFFFFFFFFFFFFFFFF AND PUSH20 0xFFFFFFFFFFFFFFFFFFFFFFFFFFFFFFFFFFFFFFFF AND CALLER PUSH20 0xFFFFFFFFFFFFFFFFFFFFFFFFFFFFFFFFFFFFFFFF AND EQ PUSH2 0x445 JUMPI PUSH1 0x0 DUP1 REVERT JUMPDEST PUSH1 0x0 PUSH1 0x6 PUSH1 0x0 DUP4 DUP2 MSTORE PUSH1 0x20 ADD SWAP1 DUP2 MSTORE PUSH1 0x20 ADD PUSH1 0x0 KECCAK256 SWAP1 POP PUSH1 0x2 PUSH1 0xB SLOAD PUSH2 0x46B SWAP2 SWAP1 PUSH2 0x1418 JUMP JUMPDEST DUP2 PUSH1 0x3 ADD SLOAD GT PUSH2 0x47A JUMPI PUSH1 0x0 DUP1 REVERT JUMPDEST DUP1 PUSH1 0x2 ADD PUSH1 0x14 SWAP1 SLOAD SWAP1 PUSH2 0x100 EXP SWAP1 DIV PUSH1 0xFF AND ISZERO PUSH2 0x496 JUMPI PUSH1 0x0 DUP1 REVERT JUMPDEST DUP1 PUSH1 0x2 ADD PUSH1 0x0 SWAP1 SLOAD SWAP1 PUSH2 0x100 EXP SWAP1 DIV PUSH20 0xFFFFFFFFFFFFFFFFFFFFFFFFFFFFFFFFFFFFFFFF AND PUSH20 0xFFFFFFFFFFFFFFFFFFFFFFFFFFFFFFFFFFFFFFFF AND PUSH2 0x8FC DUP3 PUSH1 0x1 ADD SLOAD SWAP1 DUP2 ISZERO MUL SWAP1 PUSH1 0x40 MLOAD PUSH1 0x0 PUSH1 0x40 MLOAD DUP1 DUP4 SUB DUP2 DUP6 DUP9 DUP9 CALL SWAP4 POP POP POP POP ISZERO DUP1 ISZERO PUSH2 0x504 JUMPI RETURNDATASIZE PUSH1 0x0 DUP1 RETURNDATACOPY RETURNDATASIZE PUSH1 0x0 REVERT JUMPDEST POP PUSH1 0x1 DUP2 PUSH1 0x2 ADD PUSH1 0x14 PUSH2 0x100 EXP DUP2 SLOAD DUP2 PUSH1 0xFF MUL NOT AND SWAP1 DUP4 ISZERO ISZERO MUL OR SWAP1 SSTORE POP POP POP JUMP JUMPDEST PUSH1 0x0 DUP1 SLOAD PUSH2 0x533 SWAP1 PUSH2 0x14E5 JUMP JUMPDEST DUP1 PUSH1 0x1F ADD PUSH1 0x20 DUP1 SWAP2 DIV MUL PUSH1 0x20 ADD PUSH1 0x40 MLOAD SWAP1 DUP2 ADD PUSH1 0x40 MSTORE DUP1 SWAP3 SWAP2 SWAP1 DUP2 DUP2 MSTORE PUSH1 0x20 ADD DUP3 DUP1 SLOAD PUSH2 0x55F SWAP1 PUSH2 0x14E5 JUMP JUMPDEST DUP1 ISZERO PUSH2 0x5AC JUMPI DUP1 PUSH1 0x1F LT PUSH2 0x581 JUMPI PUSH2 0x100 DUP1 DUP4 SLOAD DIV MUL DUP4 MSTORE SWAP2 PUSH1 0x20 ADD SWAP2 PUSH2 0x5AC JUMP JUMPDEST DUP3 ADD SWAP2 SWAP1 PUSH1 0x0 MSTORE PUSH1 0x20 PUSH1 0x0 KECCAK256 SWAP1 JUMPDEST DUP2 SLOAD DUP2 MSTORE SWAP1 PUSH1 0x1 ADD SWAP1 PUSH1 0x20 ADD DUP1 DUP4 GT PUSH2 0x58F JUMPI DUP3 SWAP1 SUB PUSH1 0x1F AND DUP3 ADD SWAP2 JUMPDEST POP POP POP POP POP DUP2 JUMP JUMPDEST PUSH1 0xC SLOAD DUP2 JUMP JUMPDEST PUSH1 0x9 PUSH1 0x20 MSTORE DUP1 PUSH1 0x0 MSTORE PUSH1 0x40 PUSH1 0x0 KECCAK256 PUSH1 0x0 SWAP2 POP SWAP1 POP SLOAD DUP2 JUMP JUMPDEST PUSH1 0x1 DUP1 SLOAD PUSH2 0x5DF SWAP1 PUSH2 0x14E5 JUMP JUMPDEST DUP1 PUSH1 0x1F ADD PUSH1 0x20 DUP1 SWAP2 DIV MUL PUSH1 0x20 ADD PUSH1 0x40 MLOAD SWAP1 DUP2 ADD PUSH1 0x40 MSTORE DUP1 SWAP3 SWAP2 SWAP1 DUP2 DUP2 MSTORE PUSH1 0x20 ADD DUP3 DUP1 SLOAD PUSH2 0x60B SWAP1 PUSH2 0x14E5 JUMP JUMPDEST DUP1 ISZERO PUSH2 0x658 JUMPI DUP1 PUSH1 0x1F LT PUSH2 0x62D JUMPI PUSH2 0x100 DUP1 DUP4 SLOAD DIV MUL DUP4 MSTORE SWAP2 PUSH1 0x20 ADD SWAP2 PUSH2 0x658 JUMP JUMPDEST DUP3 ADD SWAP2 SWAP1 PUSH1 0x0 MSTORE PUSH1 0x20 PUSH1 0x0 KECCAK256 SWAP1 JUMPDEST DUP2 SLOAD DUP2 MSTORE SWAP1 PUSH1 0x1 ADD SWAP1 PUSH1 0x20 ADD DUP1 DUP4 GT PUSH2 0x63B JUMPI DUP3 SWAP1 SUB PUSH1 0x1F AND DUP3 ADD SWAP2 JUMPDEST POP POP POP POP POP DUP2 JUMP JUMPDEST PUSH1 0xB SLOAD DUP2 JUMP JUMPDEST PUSH1 0x60 DUP1 PUSH1 0x60 DUP1 PUSH1 0x0 DUP1 PUSH1 0x0 DUP1 PUSH1 0x0 DUP1 PUSH1 0x0 DUP1 PUSH1 0x0 PUSH1 0x1 PUSH1 0x2 PUSH1 0x3 PUSH1 0xA SLOAD SELFBALANCE PUSH1 0x5 SLOAD PUSH1 0xB SLOAD ADDRESS PUSH1 0x7 PUSH1 0x0 SWAP1 SLOAD SWAP1 PUSH2 0x100 EXP SWAP1 DIV PUSH20 0xFFFFFFFFFFFFFFFFFFFFFFFFFFFFFFFFFFFFFFFF AND PUSH1 0x4 SLOAD PUSH1 0xC SLOAD DUP12 DUP1 SLOAD PUSH2 0x6C0 SWAP1 PUSH2 0x14E5 JUMP JUMPDEST DUP1 PUSH1 0x1F ADD PUSH1 0x20 DUP1 SWAP2 DIV MUL PUSH1 0x20 ADD PUSH1 0x40 MLOAD SWAP1 DUP2 ADD PUSH1 0x40 MSTORE DUP1 SWAP3 SWAP2 SWAP1 DUP2 DUP2 MSTORE PUSH1 0x20 ADD DUP3 DUP1 SLOAD PUSH2 0x6EC SWAP1 PUSH2 0x14E5 JUMP JUMPDEST DUP1 ISZERO PUSH2 0x739 JUMPI DUP1 PUSH1 0x1F LT PUSH2 0x70E JUMPI PUSH2 0x100 DUP1 DUP4 SLOAD DIV MUL DUP4 MSTORE SWAP2 PUSH1 0x20 ADD SWAP2 PUSH2 0x739 JUMP JUMPDEST DUP3 ADD SWAP2 SWAP1 PUSH1 0x0 MSTORE PUSH1 0x20 PUSH1 0x0 KECCAK256 SWAP1 JUMPDEST DUP2 SLOAD DUP2 MSTORE SWAP1 PUSH1 0x1 ADD SWAP1 PUSH1 0x20 ADD DUP1 DUP4 GT PUSH2 0x71C JUMPI DUP3 SWAP1 SUB PUSH1 0x1F AND DUP3 ADD SWAP2 JUMPDEST POP POP POP POP POP SWAP12 POP DUP11 DUP1 SLOAD PUSH2 0x74C SWAP1 PUSH2 0x14E5 JUMP JUMPDEST DUP1 PUSH1 0x1F ADD PUSH1 0x20 DUP1 SWAP2 DIV MUL PUSH1 0x20 ADD PUSH1 0x40 MLOAD SWAP1 DUP2 ADD PUSH1 0x40 MSTORE DUP1 SWAP3 SWAP2 SWAP1 DUP2 DUP2 MSTORE PUSH1 0x20 ADD DUP3 DUP1 SLOAD PUSH2 0x778 SWAP1 PUSH2 0x14E5 JUMP JUMPDEST DUP1 ISZERO PUSH2 0x7C5 JUMPI DUP1 PUSH1 0x1F LT PUSH2 0x79A JUMPI PUSH2 0x100 DUP1 DUP4 SLOAD DIV MUL DUP4 MSTORE SWAP2 PUSH1 0x20 ADD SWAP2 PUSH2 0x7C5 JUMP JUMPDEST DUP3 ADD SWAP2 SWAP1 PUSH1 0x0 MSTORE PUSH1 0x20 PUSH1 0x0 KECCAK256 SWAP1 JUMPDEST DUP2 SLOAD DUP2 MSTORE SWAP1 PUSH1 0x1 ADD SWAP1 PUSH1 0x20 ADD DUP1 DUP4 GT PUSH2 0x7A8 JUMPI DUP3 SWAP1 SUB PUSH1 0x1F AND DUP3 ADD SWAP2 JUMPDEST POP POP POP POP POP SWAP11 POP DUP10 DUP1 SLOAD PUSH2 0x7D8 SWAP1 PUSH2 0x14E5 JUMP JUMPDEST DUP1 PUSH1 0x1F ADD PUSH1 0x20 DUP1 SWAP2 DIV MUL PUSH1 0x20 ADD PUSH1 0x40 MLOAD SWAP1 DUP2 ADD PUSH1 0x40 MSTORE DUP1 SWAP3 SWAP2 SWAP1 DUP2 DUP2 MSTORE PUSH1 0x20 ADD DUP3 DUP1 SLOAD PUSH2 0x804 SWAP1 PUSH2 0x14E5 JUMP JUMPDEST DUP1 ISZERO PUSH2 0x851 JUMPI DUP1 PUSH1 0x1F LT PUSH2 0x826 JUMPI PUSH2 0x100 DUP1 DUP4 SLOAD DIV MUL DUP4 MSTORE SWAP2 PUSH1 0x20 ADD SWAP2 PUSH2 0x851 JUMP JUMPDEST DUP3 ADD SWAP2 SWAP1 PUSH1 0x0 MSTORE PUSH1 0x20 PUSH1 0x0 KECCAK256 SWAP1 JUMPDEST DUP2 SLOAD DUP2 MSTORE SWAP1 PUSH1 0x1 ADD SWAP1 PUSH1 0x20 ADD DUP1 DUP4 GT PUSH2 0x834 JUMPI DUP3 SWAP1 SUB PUSH1 0x1F AND DUP3 ADD SWAP2 JUMPDEST POP POP POP POP POP SWAP10 POP DUP9 DUP1 SLOAD PUSH2 0x864 SWAP1 PUSH2 0x14E5 JUMP JUMPDEST DUP1 PUSH1 0x1F ADD PUSH1 0x20 DUP1 SWAP2 DIV MUL PUSH1 0x20 ADD PUSH1 0x40 MLOAD SWAP1 DUP2 ADD PUSH1 0x40 MSTORE DUP1 SWAP3 SWAP2 SWAP1 DUP2 DUP2 MSTORE PUSH1 0x20 ADD DUP3 DUP1 SLOAD PUSH2 0x890 SWAP1 PUSH2 0x14E5 JUMP JUMPDEST DUP1 ISZERO PUSH2 0x8DD JUMPI DUP1 PUSH1 0x1F LT PUSH2 0x8B2 JUMPI PUSH2 0x100 DUP1 DUP4 SLOAD DIV MUL DUP4 MSTORE SWAP2 PUSH1 0x20 ADD SWAP2 PUSH2 0x8DD JUMP JUMPDEST DUP3 ADD SWAP2 SWAP1 PUSH1 0x0 MSTORE PUSH1 0x20 PUSH1 0x0 KECCAK256 SWAP1 JUMPDEST DUP2 SLOAD DUP2 MSTORE SWAP1 PUSH1 0x1 ADD SWAP1 PUSH1 0x20 ADD DUP1 DUP4 GT PUSH2 0x8C0 JUMPI DUP3 SWAP1 SUB PUSH1 0x1F AND DUP3 ADD SWAP2 JUMPDEST POP POP POP POP POP SWAP9 POP SWAP12 POP SWAP12 POP SWAP12 POP SWAP12 POP SWAP12 POP SWAP12 POP SWAP12 POP SWAP12 POP SWAP12 POP SWAP12 POP SWAP12 POP SWAP12 POP SWAP1 SWAP2 SWAP3 SWAP4 SWAP5 SWAP6 SWAP7 SWAP8 SWAP9 SWAP10 SWAP11 SWAP12 JUMP JUMPDEST PUSH1 0x7 PUSH1 0x0 SWAP1 SLOAD SWAP1 PUSH2 0x100 EXP SWAP1 DIV PUSH20 0xFFFFFFFFFFFFFFFFFFFFFFFFFFFFFFFFFFFFFFFF AND DUP2 JUMP JUMPDEST PUSH1 0xA SLOAD DUP2 JUMP JUMPDEST PUSH1 0x2 DUP1 SLOAD PUSH2 0x943 SWAP1 PUSH2 0x14E5 JUMP JUMPDEST DUP1 PUSH1 0x1F ADD PUSH1 0x20 DUP1 SWAP2 DIV MUL PUSH1 0x20 ADD PUSH1 0x40 MLOAD SWAP1 DUP2 ADD PUSH1 0x40 MSTORE DUP1 SWAP3 SWAP2 SWAP1 DUP2 DUP2 MSTORE PUSH1 0x20 ADD DUP3 DUP1 SLOAD PUSH2 0x96F SWAP1 PUSH2 0x14E5 JUMP JUMPDEST DUP1 ISZERO PUSH2 0x9BC JUMPI DUP1 PUSH1 0x1F LT PUSH2 0x991 JUMPI PUSH2 0x100 DUP1 DUP4 SLOAD DIV MUL DUP4 MSTORE SWAP2 PUSH1 0x20 ADD SWAP2 PUSH2 0x9BC JUMP JUMPDEST DUP3 ADD SWAP2 SWAP1 PUSH1 0x0 MSTORE PUSH1 0x20 PUSH1 0x0 KECCAK256 SWAP1 JUMPDEST DUP2 SLOAD DUP2 MSTORE SWAP1 PUSH1 0x1 ADD SWAP1 PUSH1 0x20 ADD DUP1 DUP4 GT PUSH2 0x99F JUMPI DUP3 SWAP1 SUB PUSH1 0x1F AND DUP3 ADD SWAP2 JUMPDEST POP POP POP POP POP DUP2 JUMP JUMPDEST PUSH1 0x8 SLOAD DUP2 JUMP JUMPDEST PUSH1 0x6 PUSH1 0x20 MSTORE DUP1 PUSH1 0x0 MSTORE PUSH1 0x40 PUSH1 0x0 KECCAK256 PUSH1 0x0 SWAP2 POP SWAP1 POP DUP1 PUSH1 0x0 ADD DUP1 SLOAD PUSH2 0x9ED SWAP1 PUSH2 0x14E5 JUMP JUMPDEST DUP1 PUSH1 0x1F ADD PUSH1 0x20 DUP1 SWAP2 DIV MUL PUSH1 0x20 ADD PUSH1 0x40 MLOAD SWAP1 DUP2 ADD PUSH1 0x40 MSTORE DUP1 SWAP3 SWAP2 SWAP1 DUP2 DUP2 MSTORE PUSH1 0x20 ADD DUP3 DUP1 SLOAD PUSH2 0xA19 SWAP1 PUSH2 0x14E5 JUMP JUMPDEST DUP1 ISZERO PUSH2 0xA66 JUMPI DUP1 PUSH1 0x1F LT PUSH2 0xA3B JUMPI PUSH2 0x100 DUP1 DUP4 SLOAD DIV MUL DUP4 MSTORE SWAP2 PUSH1 0x20 ADD SWAP2 PUSH2 0xA66 JUMP JUMPDEST DUP3 ADD SWAP2 SWAP1 PUSH1 0x0 MSTORE PUSH1 0x20 PUSH1 0x0 KECCAK256 SWAP1 JUMPDEST DUP2 SLOAD DUP2 MSTORE SWAP1 PUSH1 0x1 ADD SWAP1 PUSH1 0x20 ADD DUP1 DUP4 GT PUSH2 0xA49 JUMPI DUP3 SWAP1 SUB PUSH1 0x1F AND DUP3 ADD SWAP2 JUMPDEST POP POP POP POP POP SWAP1 DUP1 PUSH1 0x1 ADD SLOAD SWAP1 DUP1 PUSH1 0x2 ADD PUSH1 0x0 SWAP1 SLOAD SWAP1 PUSH2 0x100 EXP SWAP1 DIV PUSH20 0xFFFFFFFFFFFFFFFFFFFFFFFFFFFFFFFFFFFFFFFF AND SWAP1 DUP1 PUSH1 0x2 ADD PUSH1 0x14 SWAP1 SLOAD SWAP1 PUSH2 0x100 EXP SWAP1 DIV PUSH1 0xFF AND SWAP1 DUP1 PUSH1 0x3 ADD SLOAD SWAP1 DUP1 PUSH1 0x4 ADD SLOAD SWAP1 POP DUP7 JUMP JUMPDEST PUSH1 0x7 PUSH1 0x0 SWAP1 SLOAD SWAP1 PUSH2 0x100 EXP SWAP1 DIV PUSH20 0xFFFFFFFFFFFFFFFFFFFFFFFFFFFFFFFFFFFFFFFF AND PUSH20 0xFFFFFFFFFFFFFFFFFFFFFFFFFFFFFFFFFFFFFFFF AND CALLER PUSH20 0xFFFFFFFFFFFFFFFFFFFFFFFFFFFFFFFFFFFFFFFF AND EQ PUSH2 0xB15 JUMPI PUSH1 0x0 DUP1 REVERT JUMPDEST PUSH1 0x0 PUSH1 0x6 PUSH1 0x0 PUSH1 0x5 PUSH1 0x0 DUP2 SLOAD DUP1 SWAP3 SWAP2 SWAP1 PUSH2 0xB2E SWAP1 PUSH2 0x1548 JUMP JUMPDEST SWAP2 SWAP1 POP SSTORE DUP2 MSTORE PUSH1 0x20 ADD SWAP1 DUP2 MSTORE PUSH1 0x20 ADD PUSH1 0x0 KECCAK256 SWAP1 POP DUP4 DUP2 PUSH1 0x0 ADD SWAP1 DUP1 MLOAD SWAP1 PUSH1 0x20 ADD SWAP1 PUSH2 0xB5A SWAP3 SWAP2 SWAP1 PUSH2 0xF42 JUMP JUMPDEST POP DUP3 DUP2 PUSH1 0x1 ADD DUP2 SWAP1 SSTORE POP DUP2 DUP2 PUSH1 0x2 ADD PUSH1 0x0 PUSH2 0x100 EXP DUP2 SLOAD DUP2 PUSH20 0xFFFFFFFFFFFFFFFFFFFFFFFFFFFFFFFFFFFFFFFF MUL NOT AND SWAP1 DUP4 PUSH20 0xFFFFFFFFFFFFFFFFFFFFFFFFFFFFFFFFFFFFFFFF AND MUL OR SWAP1 SSTORE POP PUSH1 0x0 DUP2 PUSH1 0x2 ADD PUSH1 0x14 PUSH2 0x100 EXP DUP2 SLOAD DUP2 PUSH1 0xFF MUL NOT AND SWAP1 DUP4 ISZERO ISZERO MUL OR SWAP1 SSTORE POP PUSH1 0x0 DUP2 PUSH1 0x3 ADD DUP2 SWAP1 SSTORE POP TIMESTAMP DUP2 PUSH1 0x4 ADD DUP2 SWAP1 SSTORE POP POP POP POP POP JUMP JUMPDEST PUSH1 0x5 SLOAD DUP2 JUMP JUMPDEST PUSH1 0x3 DUP1 SLOAD PUSH2 0xBF0 SWAP1 PUSH2 0x14E5 JUMP JUMPDEST DUP1 PUSH1 0x1F ADD PUSH1 0x20 DUP1 SWAP2 DIV MUL PUSH1 0x20 ADD PUSH1 0x40 MLOAD SWAP1 DUP2 ADD PUSH1 0x40 MSTORE DUP1 SWAP3 SWAP2 SWAP1 DUP2 DUP2 MSTORE PUSH1 0x20 ADD DUP3 DUP1 SLOAD PUSH2 0xC1C SWAP1 PUSH2 0x14E5 JUMP JUMPDEST DUP1 ISZERO PUSH2 0xC69 JUMPI DUP1 PUSH1 0x1F LT PUSH2 0xC3E JUMPI PUSH2 0x100 DUP1 DUP4 SLOAD DIV MUL DUP4 MSTORE SWAP2 PUSH1 0x20 ADD SWAP2 PUSH2 0xC69 JUMP JUMPDEST DUP3 ADD SWAP2 SWAP1 PUSH1 0x0 MSTORE PUSH1 0x20 PUSH1 0x0 KECCAK256 SWAP1 JUMPDEST DUP2 SLOAD DUP2 MSTORE SWAP1 PUSH1 0x1 ADD SWAP1 PUSH1 0x20 ADD DUP1 DUP4 GT PUSH2 0xC4C JUMPI DUP3 SWAP1 SUB PUSH1 0x1F AND DUP3 ADD SWAP2 JUMPDEST POP POP POP POP POP DUP2 JUMP JUMPDEST PUSH1 0xA SLOAD CALLVALUE LT ISZERO PUSH2 0xC80 JUMPI PUSH1 0x0 DUP1 REVERT JUMPDEST PUSH1 0x0 PUSH1 0x9 PUSH1 0x0 CALLER PUSH20 0xFFFFFFFFFFFFFFFFFFFFFFFFFFFFFFFFFFFFFFFF AND PUSH20 0xFFFFFFFFFFFFFFFFFFFFFFFFFFFFFFFFFFFFFFFF AND DUP2 MSTORE PUSH1 0x20 ADD SWAP1 DUP2 MSTORE PUSH1 0x20 ADD PUSH1 0x0 KECCAK256 SLOAD EQ ISZERO PUSH2 0xCE1 JUMPI PUSH1 0x8 PUSH1 0x0 DUP2 SLOAD DUP1 SWAP3 SWAP2 SWAP1 PUSH2 0xCDB SWAP1 PUSH2 0x1548 JUMP JUMPDEST SWAP2 SWAP1 POP SSTORE POP JUMPDEST PUSH1 0x0 PUSH1 0xA SLOAD CALLVALUE PUSH2 0xCF1 SWAP2 SWAP1 PUSH2 0x1418 JUMP JUMPDEST SWAP1 POP DUP1 PUSH1 0x9 PUSH1 0x0 CALLER PUSH20 0xFFFFFFFFFFFFFFFFFFFFFFFFFFFFFFFFFFFFFFFF AND PUSH20 0xFFFFFFFFFFFFFFFFFFFFFFFFFFFFFFFFFFFFFFFF AND DUP2 MSTORE PUSH1 0x20 ADD SWAP1 DUP2 MSTORE PUSH1 0x20 ADD PUSH1 0x0 KECCAK256 PUSH1 0x0 DUP3 DUP3 SLOAD PUSH2 0xD42 SWAP2 SWAP1 PUSH2 0x13C2 JUMP JUMPDEST SWAP3 POP POP DUP2 SWAP1 SSTORE POP DUP1 PUSH1 0xB PUSH1 0x0 DUP3 DUP3 SLOAD PUSH2 0xD5B SWAP2 SWAP1 PUSH2 0x13C2 JUMP JUMPDEST SWAP3 POP POP DUP2 SWAP1 SSTORE POP PUSH1 0x0 PUSH1 0xA SLOAD CALLVALUE PUSH2 0xD72 SWAP2 SWAP1 PUSH2 0x1591 JUMP JUMPDEST SWAP1 POP PUSH1 0x0 DUP2 EQ PUSH2 0xDCA JUMPI PUSH1 0x0 CALLER SWAP1 POP DUP1 PUSH20 0xFFFFFFFFFFFFFFFFFFFFFFFFFFFFFFFFFFFFFFFF AND PUSH2 0x8FC DUP4 SWAP1 DUP2 ISZERO MUL SWAP1 PUSH1 0x40 MLOAD PUSH1 0x0 PUSH1 0x40 MLOAD DUP1 DUP4 SUB DUP2 DUP6 DUP9 DUP9 CALL SWAP4 POP POP POP POP ISZERO DUP1 ISZERO PUSH2 0xDC7 JUMPI RETURNDATASIZE PUSH1 0x0 DUP1 RETURNDATACOPY RETURNDATASIZE PUSH1 0x0 REVERT JUMPDEST POP POP JUMPDEST POP POP JUMP JUMPDEST PUSH1 0x0 PUSH1 0x6 PUSH1 0x0 DUP4 DUP2 MSTORE PUSH1 0x20 ADD SWAP1 DUP2 MSTORE PUSH1 0x20 ADD PUSH1 0x0 KECCAK256 SWAP1 POP PUSH1 0x0 PUSH1 0x9 PUSH1 0x0 CALLER PUSH20 0xFFFFFFFFFFFFFFFFFFFFFFFFFFFFFFFFFFFFFFFF AND PUSH20 0xFFFFFFFFFFFFFFFFFFFFFFFFFFFFFFFFFFFFFFFF AND DUP2 MSTORE PUSH1 0x20 ADD SWAP1 DUP2 MSTORE PUSH1 0x20 ADD PUSH1 0x0 KECCAK256 SLOAD GT PUSH2 0xE31 JUMPI PUSH1 0x0 DUP1 REVERT JUMPDEST DUP1 PUSH1 0x5 ADD PUSH1 0x0 CALLER PUSH20 0xFFFFFFFFFFFFFFFFFFFFFFFFFFFFFFFFFFFFFFFF AND PUSH20 0xFFFFFFFFFFFFFFFFFFFFFFFFFFFFFFFFFFFFFFFF AND DUP2 MSTORE PUSH1 0x20 ADD SWAP1 DUP2 MSTORE PUSH1 0x20 ADD PUSH1 0x0 KECCAK256 PUSH1 0x0 SWAP1 SLOAD SWAP1 PUSH2 0x100 EXP SWAP1 DIV PUSH1 0xFF AND ISZERO PUSH2 0xE8A JUMPI PUSH1 0x0 DUP1 REVERT JUMPDEST PUSH1 0x1 DUP2 PUSH1 0x5 ADD PUSH1 0x0 CALLER PUSH20 0xFFFFFFFFFFFFFFFFFFFFFFFFFFFFFFFFFFFFFFFF AND PUSH20 0xFFFFFFFFFFFFFFFFFFFFFFFFFFFFFFFFFFFFFFFF AND DUP2 MSTORE PUSH1 0x20 ADD SWAP1 DUP2 MSTORE PUSH1 0x20 ADD PUSH1 0x0 KECCAK256 PUSH1 0x0 PUSH2 0x100 EXP DUP2 SLOAD DUP2 PUSH1 0xFF MUL NOT AND SWAP1 DUP4 ISZERO ISZERO MUL OR SWAP1 SSTORE POP PUSH1 0x9 PUSH1 0x0 CALLER PUSH20 0xFFFFFFFFFFFFFFFFFFFFFFFFFFFFFFFFFFFFFFFF AND PUSH20 0xFFFFFFFFFFFFFFFFFFFFFFFFFFFFFFFFFFFFFFFF AND DUP2 MSTORE PUSH1 0x20 ADD SWAP1 DUP2 MSTORE PUSH1 0x20 ADD PUSH1 0x0 KECCAK256 SLOAD DUP2 PUSH1 0x3 ADD PUSH1 0x0 DUP3 DUP3 SLOAD PUSH2 0xF37 SWAP2 SWAP1 PUSH2 0x13C2 JUMP JUMPDEST SWAP3 POP POP DUP2 SWAP1 SSTORE POP POP POP JUMP JUMPDEST DUP3 DUP1 SLOAD PUSH2 0xF4E SWAP1 PUSH2 0x14E5 JUMP JUMPDEST SWAP1 PUSH1 0x0 MSTORE PUSH1 0x20 PUSH1 0x0 KECCAK256 SWAP1 PUSH1 0x1F ADD PUSH1 0x20 SWAP1 DIV DUP2 ADD SWAP3 DUP3 PUSH2 0xF70 JUMPI PUSH1 0x0 DUP6 SSTORE PUSH2 0xFB7 JUMP JUMPDEST DUP3 PUSH1 0x1F LT PUSH2 0xF89 JUMPI DUP1 MLOAD PUSH1 0xFF NOT AND DUP4 DUP1 ADD OR DUP6 SSTORE PUSH2 0xFB7 JUMP JUMPDEST DUP3 DUP1 ADD PUSH1 0x1 ADD DUP6 SSTORE DUP3 ISZERO PUSH2 0xFB7 JUMPI SWAP2 DUP3 ADD JUMPDEST DUP3 DUP2 GT ISZERO PUSH2 0xFB6 JUMPI DUP3 MLOAD DUP3 SSTORE SWAP2 PUSH1 0x20 ADD SWAP2 SWAP1 PUSH1 0x1 ADD SWAP1 PUSH2 0xF9B JUMP JUMPDEST JUMPDEST POP SWAP1 POP PUSH2 0xFC4 SWAP2 SWAP1 PUSH2 0xFC8 JUMP JUMPDEST POP SWAP1 JUMP JUMPDEST JUMPDEST DUP1 DUP3 GT ISZERO PUSH2 0xFE1 JUMPI PUSH1 0x0 DUP2 PUSH1 0x0 SWAP1 SSTORE POP PUSH1 0x1 ADD PUSH2 0xFC9 JUMP JUMPDEST POP SWAP1 JUMP JUMPDEST PUSH1 0x0 PUSH2 0xFF8 PUSH2 0xFF3 DUP5 PUSH2 0x1375 JUMP JUMPDEST PUSH2 0x1350 JUMP JUMPDEST SWAP1 POP DUP3 DUP2 MSTORE PUSH1 0x20 DUP2 ADD DUP5 DUP5 DUP5 ADD GT ISZERO PUSH2 0x1010 JUMPI PUSH1 0x0 DUP1 REVERT JUMPDEST PUSH2 0x101B DUP5 DUP3 DUP6 PUSH2 0x14A3 JUMP JUMPDEST POP SWAP4 SWAP3 POP POP POP JUMP JUMPDEST PUSH1 0x0 DUP2 CALLDATALOAD SWAP1 POP PUSH2 0x1032 DUP2 PUSH2 0x168F JUMP JUMPDEST SWAP3 SWAP2 POP POP JUMP JUMPDEST PUSH1 0x0 DUP2 CALLDATALOAD SWAP1 POP PUSH2 0x1047 DUP2 PUSH2 0x16A6 JUMP JUMPDEST SWAP3 SWAP2 POP POP JUMP JUMPDEST PUSH1 0x0 DUP3 PUSH1 0x1F DUP4 ADD SLT PUSH2 0x105E JUMPI PUSH1 0x0 DUP1 REVERT JUMPDEST DUP2 CALLDATALOAD PUSH2 0x106E DUP5 DUP3 PUSH1 0x20 DUP7 ADD PUSH2 0xFE5 JUMP JUMPDEST SWAP2 POP POP SWAP3 SWAP2 POP POP JUMP JUMPDEST PUSH1 0x0 DUP2 CALLDATALOAD SWAP1 POP PUSH2 0x1086 DUP2 PUSH2 0x16BD JUMP JUMPDEST SWAP3 SWAP2 POP POP JUMP JUMPDEST PUSH1 0x0 PUSH1 0x20 DUP3 DUP5 SUB SLT ISZERO PUSH2 0x109E JUMPI PUSH1 0x0 DUP1 REVERT JUMPDEST PUSH1 0x0 PUSH2 0x10AC DUP5 DUP3 DUP6 ADD PUSH2 0x1023 JUMP JUMPDEST SWAP2 POP POP SWAP3 SWAP2 POP POP JUMP JUMPDEST PUSH1 0x0 DUP1 PUSH1 0x0 PUSH1 0x60 DUP5 DUP7 SUB SLT ISZERO PUSH2 0x10CA JUMPI PUSH1 0x0 DUP1 REVERT JUMPDEST PUSH1 0x0 DUP5 ADD CALLDATALOAD PUSH8 0xFFFFFFFFFFFFFFFF DUP2 GT ISZERO PUSH2 0x10E4 JUMPI PUSH1 0x0 DUP1 REVERT JUMPDEST PUSH2 0x10F0 DUP7 DUP3 DUP8 ADD PUSH2 0x104D JUMP JUMPDEST SWAP4 POP POP PUSH1 0x20 PUSH2 0x1101 DUP7 DUP3 DUP8 ADD PUSH2 0x1077 JUMP JUMPDEST SWAP3 POP POP PUSH1 0x40 PUSH2 0x1112 DUP7 DUP3 DUP8 ADD PUSH2 0x1038 JUMP JUMPDEST SWAP2 POP POP SWAP3 POP SWAP3 POP SWAP3 JUMP JUMPDEST PUSH1 0x0 PUSH1 0x20 DUP3 DUP5 SUB SLT ISZERO PUSH2 0x112E JUMPI PUSH1 0x0 DUP1 REVERT JUMPDEST PUSH1 0x0 PUSH2 0x113C DUP5 DUP3 DUP6 ADD PUSH2 0x1077 JUMP JUMPDEST SWAP2 POP POP SWAP3 SWAP2 POP POP JUMP JUMPDEST PUSH2 0x114E DUP2 PUSH2 0x145B JUMP JUMPDEST DUP3 MSTORE POP POP JUMP JUMPDEST PUSH2 0x115D DUP2 PUSH2 0x1449 JUMP JUMPDEST DUP3 MSTORE POP POP JUMP JUMPDEST PUSH2 0x116C DUP2 PUSH2 0x146D JUMP JUMPDEST DUP3 MSTORE POP POP JUMP JUMPDEST PUSH1 0x0 PUSH2 0x117D DUP3 PUSH2 0x13A6 JUMP JUMPDEST PUSH2 0x1187 DUP2 DUP6 PUSH2 0x13B1 JUMP JUMPDEST SWAP4 POP PUSH2 0x1197 DUP2 DUP6 PUSH1 0x20 DUP7 ADD PUSH2 0x14B2 JUMP JUMPDEST PUSH2 0x11A0 DUP2 PUSH2 0x167E JUMP JUMPDEST DUP5 ADD SWAP2 POP POP SWAP3 SWAP2 POP POP JUMP JUMPDEST PUSH2 0x11B4 DUP2 PUSH2 0x1499 JUMP JUMPDEST DUP3 MSTORE POP POP JUMP JUMPDEST PUSH1 0x0 PUSH1 0x20 DUP3 ADD SWAP1 POP PUSH2 0x11CF PUSH1 0x0 DUP4 ADD DUP5 PUSH2 0x1154 JUMP JUMPDEST SWAP3 SWAP2 POP POP JUMP JUMPDEST PUSH1 0x0 PUSH1 0x20 DUP3 ADD SWAP1 POP DUP2 DUP2 SUB PUSH1 0x0 DUP4 ADD MSTORE PUSH2 0x11EF DUP2 DUP5 PUSH2 0x1172 JUMP JUMPDEST SWAP1 POP SWAP3 SWAP2 POP POP JUMP JUMPDEST PUSH1 0x0 PUSH2 0x180 DUP3 ADD SWAP1 POP DUP2 DUP2 SUB PUSH1 0x0 DUP4 ADD MSTORE PUSH2 0x1212 DUP2 DUP16 PUSH2 0x1172 JUMP JUMPDEST SWAP1 POP DUP2 DUP2 SUB PUSH1 0x20 DUP4 ADD MSTORE PUSH2 0x1226 DUP2 DUP15 PUSH2 0x1172 JUMP JUMPDEST SWAP1 POP DUP2 DUP2 SUB PUSH1 0x40 DUP4 ADD MSTORE PUSH2 0x123A DUP2 DUP14 PUSH2 0x1172 JUMP JUMPDEST SWAP1 POP DUP2 DUP2 SUB PUSH1 0x60 DUP4 ADD MSTORE PUSH2 0x124E DUP2 DUP13 PUSH2 0x1172 JUMP JUMPDEST SWAP1 POP PUSH2 0x125D PUSH1 0x80 DUP4 ADD DUP12 PUSH2 0x11AB JUMP JUMPDEST PUSH2 0x126A PUSH1 0xA0 DUP4 ADD DUP11 PUSH2 0x11AB JUMP JUMPDEST PUSH2 0x1277 PUSH1 0xC0 DUP4 ADD DUP10 PUSH2 0x11AB JUMP JUMPDEST PUSH2 0x1284 PUSH1 0xE0 DUP4 ADD DUP9 PUSH2 0x11AB JUMP JUMPDEST PUSH2 0x1292 PUSH2 0x100 DUP4 ADD DUP8 PUSH2 0x1154 JUMP JUMPDEST PUSH2 0x12A0 PUSH2 0x120 DUP4 ADD DUP7 PUSH2 0x1154 JUMP JUMPDEST PUSH2 0x12AE PUSH2 0x140 DUP4 ADD DUP6 PUSH2 0x11AB JUMP JUMPDEST PUSH2 0x12BC PUSH2 0x160 DUP4 ADD DUP5 PUSH2 0x11AB JUMP JUMPDEST SWAP14 SWAP13 POP POP POP POP POP POP POP POP POP POP POP POP POP JUMP JUMPDEST PUSH1 0x0 PUSH1 0xC0 DUP3 ADD SWAP1 POP DUP2 DUP2 SUB PUSH1 0x0 DUP4 ADD MSTORE PUSH2 0x12E7 DUP2 DUP10 PUSH2 0x1172 JUMP JUMPDEST SWAP1 POP PUSH2 0x12F6 PUSH1 0x20 DUP4 ADD DUP9 PUSH2 0x11AB JUMP JUMPDEST PUSH2 0x1303 PUSH1 0x40 DUP4 ADD DUP8 PUSH2 0x1145 JUMP JUMPDEST PUSH2 0x1310 PUSH1 0x60 DUP4 ADD DUP7 PUSH2 0x1163 JUMP JUMPDEST PUSH2 0x131D PUSH1 0x80 DUP4 ADD DUP6 PUSH2 0x11AB JUMP JUMPDEST PUSH2 0x132A PUSH1 0xA0 DUP4 ADD DUP5 PUSH2 0x11AB JUMP JUMPDEST SWAP8 SWAP7 POP POP POP POP POP POP POP JUMP JUMPDEST PUSH1 0x0 PUSH1 0x20 DUP3 ADD SWAP1 POP PUSH2 0x134A PUSH1 0x0 DUP4 ADD DUP5 PUSH2 0x11AB JUMP JUMPDEST SWAP3 SWAP2 POP POP JUMP JUMPDEST PUSH1 0x0 PUSH2 0x135A PUSH2 0x136B JUMP JUMPDEST SWAP1 POP PUSH2 0x1366 DUP3 DUP3 PUSH2 0x1517 JUMP JUMPDEST SWAP2 SWAP1 POP JUMP JUMPDEST PUSH1 0x0 PUSH1 0x40 MLOAD SWAP1 POP SWAP1 JUMP JUMPDEST PUSH1 0x0 PUSH8 0xFFFFFFFFFFFFFFFF DUP3 GT ISZERO PUSH2 0x1390 JUMPI PUSH2 0x138F PUSH2 0x164F JUMP JUMPDEST JUMPDEST PUSH2 0x1399 DUP3 PUSH2 0x167E JUMP JUMPDEST SWAP1 POP PUSH1 0x20 DUP2 ADD SWAP1 POP SWAP2 SWAP1 POP JUMP JUMPDEST PUSH1 0x0 DUP2 MLOAD SWAP1 POP SWAP2 SWAP1 POP JUMP JUMPDEST PUSH1 0x0 DUP3 DUP3 MSTORE PUSH1 0x20 DUP3 ADD SWAP1 POP SWAP3 SWAP2 POP POP JUMP JUMPDEST PUSH1 0x0 PUSH2 0x13CD DUP3 PUSH2 0x1499 JUMP JUMPDEST SWAP2 POP PUSH2 0x13D8 DUP4 PUSH2 0x1499 JUMP JUMPDEST SWAP3 POP DUP3 PUSH32 0xFFFFFFFFFFFFFFFFFFFFFFFFFFFFFFFFFFFFFFFFFFFFFFFFFFFFFFFFFFFFFFFF SUB DUP3 GT ISZERO PUSH2 0x140D JUMPI PUSH2 0x140C PUSH2 0x15C2 JUMP JUMPDEST JUMPDEST DUP3 DUP3 ADD SWAP1 POP SWAP3 SWAP2 POP POP JUMP JUMPDEST PUSH1 0x0 PUSH2 0x1423 DUP3 PUSH2 0x1499 JUMP JUMPDEST SWAP2 POP PUSH2 0x142E DUP4 PUSH2 0x1499 JUMP JUMPDEST SWAP3 POP DUP3 PUSH2 0x143E JUMPI PUSH2 0x143D PUSH2 0x15F1 JUMP JUMPDEST JUMPDEST DUP3 DUP3 DIV SWAP1 POP SWAP3 SWAP2 POP POP JUMP JUMPDEST PUSH1 0x0 PUSH2 0x1454 DUP3 PUSH2 0x1479 JUMP JUMPDEST SWAP1 POP SWAP2 SWAP1 POP JUMP JUMPDEST PUSH1 0x0 PUSH2 0x1466 DUP3 PUSH2 0x1479 JUMP JUMPDEST SWAP1 POP SWAP2 SWAP1 POP JUMP JUMPDEST PUSH1 0x0 DUP2 ISZERO ISZERO SWAP1 POP SWAP2 SWAP1 POP JUMP JUMPDEST PUSH1 0x0 PUSH20 0xFFFFFFFFFFFFFFFFFFFFFFFFFFFFFFFFFFFFFFFF DUP3 AND SWAP1 POP SWAP2 SWAP1 POP JUMP JUMPDEST PUSH1 0x0 DUP2 SWAP1 POP SWAP2 SWAP1 POP JUMP JUMPDEST DUP3 DUP2 DUP4 CALLDATACOPY PUSH1 0x0 DUP4 DUP4 ADD MSTORE POP POP POP JUMP JUMPDEST PUSH1 0x0 JUMPDEST DUP4 DUP2 LT ISZERO PUSH2 0x14D0 JUMPI DUP1 DUP3 ADD MLOAD DUP2 DUP5 ADD MSTORE PUSH1 0x20 DUP2 ADD SWAP1 POP PUSH2 0x14B5 JUMP JUMPDEST DUP4 DUP2 GT ISZERO PUSH2 0x14DF JUMPI PUSH1 0x0 DUP5 DUP5 ADD MSTORE JUMPDEST POP POP POP POP JUMP JUMPDEST PUSH1 0x0 PUSH1 0x2 DUP3 DIV SWAP1 POP PUSH1 0x1 DUP3 AND DUP1 PUSH2 0x14FD JUMPI PUSH1 0x7F DUP3 AND SWAP2 POP JUMPDEST PUSH1 0x20 DUP3 LT DUP2 EQ ISZERO PUSH2 0x1511 JUMPI PUSH2 0x1510 PUSH2 0x1620 JUMP JUMPDEST JUMPDEST POP SWAP2 SWAP1 POP JUMP JUMPDEST PUSH2 0x1520 DUP3 PUSH2 0x167E JUMP JUMPDEST DUP2 ADD DUP2 DUP2 LT PUSH8 0xFFFFFFFFFFFFFFFF DUP3 GT OR ISZERO PUSH2 0x153F JUMPI PUSH2 0x153E PUSH2 0x164F JUMP JUMPDEST JUMPDEST DUP1 PUSH1 0x40 MSTORE POP POP POP JUMP JUMPDEST PUSH1 0x0 PUSH2 0x1553 DUP3 PUSH2 0x1499 JUMP JUMPDEST SWAP2 POP PUSH32 0xFFFFFFFFFFFFFFFFFFFFFFFFFFFFFFFFFFFFFFFFFFFFFFFFFFFFFFFFFFFFFFFF DUP3 EQ ISZERO PUSH2 0x1586 JUMPI PUSH2 0x1585 PUSH2 0x15C2 JUMP JUMPDEST JUMPDEST PUSH1 0x1 DUP3 ADD SWAP1 POP SWAP2 SWAP1 POP JUMP JUMPDEST PUSH1 0x0 PUSH2 0x159C DUP3 PUSH2 0x1499 JUMP JUMPDEST SWAP2 POP PUSH2 0x15A7 DUP4 PUSH2 0x1499 JUMP JUMPDEST SWAP3 POP DUP3 PUSH2 0x15B7 JUMPI PUSH2 0x15B6 PUSH2 0x15F1 JUMP JUMPDEST JUMPDEST DUP3 DUP3 MOD SWAP1 POP SWAP3 SWAP2 POP POP JUMP JUMPDEST PUSH32 0x4E487B7100000000000000000000000000000000000000000000000000000000 PUSH1 0x0 MSTORE PUSH1 0x11 PUSH1 0x4 MSTORE PUSH1 0x24 PUSH1 0x0 REVERT JUMPDEST PUSH32 0x4E487B7100000000000000000000000000000000000000000000000000000000 PUSH1 0x0 MSTORE PUSH1 0x12 PUSH1 0x4 MSTORE PUSH1 0x24 PUSH1 0x0 REVERT JUMPDEST PUSH32 0x4E487B7100000000000000000000000000000000000000000000000000000000 PUSH1 0x0 MSTORE PUSH1 0x22 PUSH1 0x4 MSTORE PUSH1 0x24 PUSH1 0x0 REVERT JUMPDEST PUSH32 0x4E487B7100000000000000000000000000000000000000000000000000000000 PUSH1 0x0 MSTORE PUSH1 0x41 PUSH1 0x4 MSTORE PUSH1 0x24 PUSH1 0x0 REVERT JUMPDEST PUSH1 0x0 PUSH1 0x1F NOT PUSH1 0x1F DUP4 ADD AND SWAP1 POP SWAP2 SWAP1 POP JUMP JUMPDEST PUSH2 0x1698 DUP2 PUSH2 0x1449 JUMP JUMPDEST DUP2 EQ PUSH2 0x16A3 JUMPI PUSH1 0x0 DUP1 REVERT JUMPDEST POP JUMP JUMPDEST PUSH2 0x16AF DUP2 PUSH2 0x145B JUMP JUMPDEST DUP2 EQ PUSH2 0x16BA JUMPI PUSH1 0x0 DUP1 REVERT JUMPDEST POP JUMP JUMPDEST PUSH2 0x16C6 DUP2 PUSH2 0x1499 JUMP JUMPDEST DUP2 EQ PUSH2 0x16D1 JUMPI PUSH1 0x0 DUP1 REVERT JUMPDEST POP JUMP INVALID LOG2 PUSH5 0x6970667358 0x22 SLT KECCAK256 CODESIZE 0xB9 PUSH26 0x25DC0588F9503AC1316F1B3E7B6CBC67C2950E5C4D5FD06388C3 PUSH22 0x292464736F6C63430008030033A26469706673582212 KECCAK256 0xAB MLOAD 0xD6 PUSH15 0x2A13138F857CBFA59511468C7047BC 0xD9 0xD6 RETURNDATASIZE 0xB3 CALLVALUE SWAP5 0xCB 0xC5 0xCE 0xDB 0xB7 0xCA PUSH25 0x64736F6C634300080300330000000000000000000000000000 "},"gasEstimates":{"creation":{"codeDepositCost":"1864000","executionCost":"1969","totalCost":"1865969"},"external":{"createIdea(uint256,uint256,string,string,string,string)":"infinite","deployedIdeas(uint256)":"2421","getDeployedIdeas()":"infinite"}},"methodIdentifiers":{"createIdea(uint256,uint256,string,string,string,string)":"0c955d69","deployedIdeas(uint256)":"f739bf4d","getDeployedIdeas()":"e4293559"}},"storageLayout":{"storage":[{"astId":5,"contract":"Idea.sol:IdeaFactory","label":"deployedIdeas","offset":0,"slot":"0","type":"t_array(t_contract(Idea)432)dyn_storage"}],"types":{"t_array(t_contract(Idea)432)dyn_storage":{"base":"t_contract(Idea)432","encoding":"dynamic_array","label":"contract Idea[]","numberOfBytes":"32"},"t_contract(Idea)432":{"encoding":"inplace","label":"contract Idea","numberOfBytes":"20"}}},"userdoc":{"kind":"user","methods":{},"version":1}}