{"abi":[{"inputs":[{"internalType":"uint256","name":"creditValue","type":"uint256"},{"internalType":"address","name":"sender","type":"address"}],"stateMutability":"nonpayable","type":"constructor"},{"inputs":[{"internalType":"uint256","name":"index","type":"uint256"}],"name":"approveRequest","outputs":[],"stateMutability":"nonpayable","type":"function"},{"inputs":[{"internalType":"address","name":"","type":"address"}],"name":"approvers","outputs":[{"internalType":"uint256","name":"","type":"uint256"}],"stateMutability":"view","type":"function"},{"inputs":[],"name":"contribute","outputs":[],"stateMutability":"payable","type":"function"},{"inputs":[{"internalType":"string","name":"description","type":"string"},{"internalType":"uint256","name":"value","type":"uint256"},{"internalType":"address payable","name":"recipient","type":"address"}],"name":"createRequest","outputs":[],"stateMutability":"nonpayable","type":"function"},{"inputs":[],"name":"credits","outputs":[{"internalType":"uint256","name":"","type":"uint256"}],"stateMutability":"view","type":"function"},{"inputs":[{"internalType":"uint256","name":"index","type":"uint256"}],"name":"finalizeRequest","outputs":[],"stateMutability":"nonpayable","type":"function"},{"inputs":[],"name":"manager","outputs":[{"internalType":"address","name":"","type":"address"}],"stateMutability":"view","type":"function"},{"inputs":[],"name":"numRequests","outputs":[{"internalType":"uint256","name":"","type":"uint256"}],"stateMutability":"view","type":"function"},{"inputs":[],"name":"numUniqueApprovers","outputs":[{"internalType":"uint256","name":"","type":"uint256"}],"stateMutability":"view","type":"function"},{"inputs":[],"name":"oneCreditValue","outputs":[{"internalType":"uint256","name":"","type":"uint256"}],"stateMutability":"view","type":"function"},{"inputs":[{"internalType":"uint256","name":"","type":"uint256"}],"name":"requests","outputs":[{"internalType":"string","name":"description","type":"string"},{"internalType":"uint256","name":"value","type":"uint256"},{"internalType":"address payable","name":"recipient","type":"address"},{"internalType":"bool","name":"complete","type":"bool"},{"internalType":"uint256","name":"credits","type":"uint256"}],"stateMutability":"view","type":"function"}],"devdoc":{"kind":"dev","methods":{},"version":1},"evm":{"assembly":"    /* \"Idea.sol\":337:2558  contract Idea {... */\n  mstore(0x40, 0x80)\n    /* \"Idea.sol\":914:1031  constructor(uint creditValue, address sender) {... */\n  callvalue\n  dup1\n  iszero\n  tag_1\n  jumpi\n  0x00\n  dup1\n  revert\ntag_1:\n  pop\n  mload(0x40)\n  sub(codesize, bytecodeSize)\n  dup1\n  bytecodeSize\n  dup4\n  codecopy\n  dup2\n  dup2\n  add\n  0x40\n  mstore\n  dup2\n  add\n  swap1\n  tag_2\n  swap2\n  swap1\n  tag_3\n  jump\t// in\ntag_2:\n    /* \"Idea.sol\":980:986  sender */\n  dup1\n    /* \"Idea.sol\":970:977  manager */\n  0x02\n  0x00\n    /* \"Idea.sol\":970:986  manager = sender */\n  0x0100\n  exp\n  dup2\n  sload\n  dup2\n  0xffffffffffffffffffffffffffffffffffffffff\n  mul\n  not\n  and\n  swap1\n  dup4\n  0xffffffffffffffffffffffffffffffffffffffff\n  and\n  mul\n  or\n  swap1\n  sstore\n  pop\n    /* \"Idea.sol\":1013:1024  creditValue */\n  dup2\n    /* \"Idea.sol\":996:1010  oneCreditValue */\n  0x05\n    /* \"Idea.sol\":996:1024  oneCreditValue = creditValue */\n  dup2\n  swap1\n  sstore\n  pop\n    /* \"Idea.sol\":914:1031  constructor(uint creditValue, address sender) {... */\n  pop\n  pop\n    /* \"Idea.sol\":337:2558  contract Idea {... */\n  jump(tag_6)\n    /* \"#utility.yul\":7:150   */\ntag_8:\n  0x00\n    /* \"#utility.yul\":95:101   */\n  dup2\n    /* \"#utility.yul\":89:102   */\n  mload\n    /* \"#utility.yul\":80:102   */\n  swap1\n  pop\n    /* \"#utility.yul\":111:144   */\n  tag_10\n    /* \"#utility.yul\":138:143   */\n  dup2\n    /* \"#utility.yul\":111:144   */\n  tag_11\n  jump\t// in\ntag_10:\n    /* \"#utility.yul\":70:150   */\n  swap3\n  swap2\n  pop\n  pop\n  jump\t// out\n    /* \"#utility.yul\":156:299   */\ntag_12:\n  0x00\n    /* \"#utility.yul\":244:250   */\n  dup2\n    /* \"#utility.yul\":238:251   */\n  mload\n    /* \"#utility.yul\":229:251   */\n  swap1\n  pop\n    /* \"#utility.yul\":260:293   */\n  tag_14\n    /* \"#utility.yul\":287:292   */\n  dup2\n    /* \"#utility.yul\":260:293   */\n  tag_15\n  jump\t// in\ntag_14:\n    /* \"#utility.yul\":219:299   */\n  swap3\n  swap2\n  pop\n  pop\n  jump\t// out\n    /* \"#utility.yul\":305:745   */\ntag_3:\n  0x00\n  dup1\n    /* \"#utility.yul\":441:443   */\n  0x40\n    /* \"#utility.yul\":429:438   */\n  dup4\n    /* \"#utility.yul\":420:427   */\n  dup6\n    /* \"#utility.yul\":416:439   */\n  sub\n    /* \"#utility.yul\":412:444   */\n  slt\n    /* \"#utility.yul\":409:411   */\n  iszero\n  tag_17\n  jumpi\n    /* \"#utility.yul\":457:458   */\n  0x00\n    /* \"#utility.yul\":454:455   */\n  dup1\n    /* \"#utility.yul\":447:459   */\n  revert\n    /* \"#utility.yul\":409:411   */\ntag_17:\n    /* \"#utility.yul\":500:501   */\n  0x00\n    /* \"#utility.yul\":525:589   */\n  tag_18\n    /* \"#utility.yul\":581:588   */\n  dup6\n    /* \"#utility.yul\":572:578   */\n  dup3\n    /* \"#utility.yul\":561:570   */\n  dup7\n    /* \"#utility.yul\":557:579   */\n  add\n    /* \"#utility.yul\":525:589   */\n  tag_12\n  jump\t// in\ntag_18:\n    /* \"#utility.yul\":515:589   */\n  swap3\n  pop\n    /* \"#utility.yul\":471:599   */\n  pop\n    /* \"#utility.yul\":638:640   */\n  0x20\n    /* \"#utility.yul\":664:728   */\n  tag_19\n    /* \"#utility.yul\":720:727   */\n  dup6\n    /* \"#utility.yul\":711:717   */\n  dup3\n    /* \"#utility.yul\":700:709   */\n  dup7\n    /* \"#utility.yul\":696:718   */\n  add\n    /* \"#utility.yul\":664:728   */\n  tag_8\n  jump\t// in\ntag_19:\n    /* \"#utility.yul\":654:728   */\n  swap2\n  pop\n    /* \"#utility.yul\":609:738   */\n  pop\n    /* \"#utility.yul\":399:745   */\n  swap3\n  pop\n  swap3\n  swap1\n  pop\n  jump\t// out\n    /* \"#utility.yul\":751:847   */\ntag_20:\n  0x00\n    /* \"#utility.yul\":817:841   */\n  tag_22\n    /* \"#utility.yul\":835:840   */\n  dup3\n    /* \"#utility.yul\":817:841   */\n  tag_23\n  jump\t// in\ntag_22:\n    /* \"#utility.yul\":806:841   */\n  swap1\n  pop\n    /* \"#utility.yul\":796:847   */\n  swap2\n  swap1\n  pop\n  jump\t// out\n    /* \"#utility.yul\":853:979   */\ntag_23:\n  0x00\n    /* \"#utility.yul\":930:972   */\n  0xffffffffffffffffffffffffffffffffffffffff\n    /* \"#utility.yul\":923:928   */\n  dup3\n    /* \"#utility.yul\":919:973   */\n  and\n    /* \"#utility.yul\":908:973   */\n  swap1\n  pop\n    /* \"#utility.yul\":898:979   */\n  swap2\n  swap1\n  pop\n  jump\t// out\n    /* \"#utility.yul\":985:1062   */\ntag_25:\n  0x00\n    /* \"#utility.yul\":1051:1056   */\n  dup2\n    /* \"#utility.yul\":1040:1056   */\n  swap1\n  pop\n    /* \"#utility.yul\":1030:1062   */\n  swap2\n  swap1\n  pop\n  jump\t// out\n    /* \"#utility.yul\":1068:1190   */\ntag_11:\n    /* \"#utility.yul\":1141:1165   */\n  tag_28\n    /* \"#utility.yul\":1159:1164   */\n  dup2\n    /* \"#utility.yul\":1141:1165   */\n  tag_20\n  jump\t// in\ntag_28:\n    /* \"#utility.yul\":1134:1139   */\n  dup2\n    /* \"#utility.yul\":1131:1166   */\n  eq\n    /* \"#utility.yul\":1121:1123   */\n  tag_29\n  jumpi\n    /* \"#utility.yul\":1180:1181   */\n  0x00\n    /* \"#utility.yul\":1177:1178   */\n  dup1\n    /* \"#utility.yul\":1170:1182   */\n  revert\n    /* \"#utility.yul\":1121:1123   */\ntag_29:\n    /* \"#utility.yul\":1111:1190   */\n  pop\n  jump\t// out\n    /* \"#utility.yul\":1196:1318   */\ntag_15:\n    /* \"#utility.yul\":1269:1293   */\n  tag_31\n    /* \"#utility.yul\":1287:1292   */\n  dup2\n    /* \"#utility.yul\":1269:1293   */\n  tag_25\n  jump\t// in\ntag_31:\n    /* \"#utility.yul\":1262:1267   */\n  dup2\n    /* \"#utility.yul\":1259:1294   */\n  eq\n    /* \"#utility.yul\":1249:1251   */\n  tag_32\n  jumpi\n    /* \"#utility.yul\":1308:1309   */\n  0x00\n    /* \"#utility.yul\":1305:1306   */\n  dup1\n    /* \"#utility.yul\":1298:1310   */\n  revert\n    /* \"#utility.yul\":1249:1251   */\ntag_32:\n    /* \"#utility.yul\":1239:1318   */\n  pop\n  jump\t// out\n    /* \"Idea.sol\":337:2558  contract Idea {... */\ntag_6:\n  dataSize(sub_0)\n  dup1\n  dataOffset(sub_0)\n  0x00\n  codecopy\n  0x00\n  return\nstop\n\nsub_0: assembly {\n        /* \"Idea.sol\":337:2558  contract Idea {... */\n      mstore(0x40, 0x80)\n      jumpi(tag_1, lt(calldatasize, 0x04))\n      shr(0xe0, calldataload(0x00))\n      dup1\n      0x7554e42f\n      gt\n      tag_13\n      jumpi\n      dup1\n      0x7554e42f\n      eq\n      tag_7\n      jumpi\n      dup1\n      0x81d12c58\n      eq\n      tag_8\n      jumpi\n      dup1\n      0x8a9cfd55\n      eq\n      tag_9\n      jumpi\n      dup1\n      0x9fb42b1f\n      eq\n      tag_10\n      jumpi\n      dup1\n      0xd7bb99ba\n      eq\n      tag_11\n      jumpi\n      dup1\n      0xd7d1bbdb\n      eq\n      tag_12\n      jumpi\n      jump(tag_1)\n    tag_13:\n      dup1\n      0x03441006\n      eq\n      tag_2\n      jumpi\n      dup1\n      0x0a144391\n      eq\n      tag_3\n      jumpi\n      dup1\n      0x26540fd2\n      eq\n      tag_4\n      jumpi\n      dup1\n      0x481c6a75\n      eq\n      tag_5\n      jumpi\n      dup1\n      0x59af7a13\n      eq\n      tag_6\n      jumpi\n    tag_1:\n      0x00\n      dup1\n      revert\n        /* \"Idea.sol\":2265:2556  function finalizeRequest(uint index) public allowOnlyManager {... */\n    tag_2:\n      callvalue\n      dup1\n      iszero\n      tag_14\n      jumpi\n      0x00\n      dup1\n      revert\n    tag_14:\n      pop\n      tag_15\n      0x04\n      dup1\n      calldatasize\n      sub\n      dup2\n      add\n      swap1\n      tag_16\n      swap2\n      swap1\n      tag_17\n      jump\t// in\n    tag_16:\n      tag_18\n      jump\t// in\n    tag_15:\n      stop\n        /* \"Idea.sol\":712:753  mapping(address => uint) public approvers */\n    tag_3:\n      callvalue\n      dup1\n      iszero\n      tag_19\n      jumpi\n      0x00\n      dup1\n      revert\n    tag_19:\n      pop\n      tag_20\n      0x04\n      dup1\n      calldatasize\n      sub\n      dup2\n      add\n      swap1\n      tag_21\n      swap2\n      swap1\n      tag_22\n      jump\t// in\n    tag_21:\n      tag_23\n      jump\t// in\n    tag_20:\n      mload(0x40)\n      tag_24\n      swap2\n      swap1\n      tag_25\n      jump\t// in\n    tag_24:\n      mload(0x40)\n      dup1\n      swap2\n      sub\n      swap1\n      return\n        /* \"Idea.sol\":792:811  uint public credits */\n    tag_4:\n      callvalue\n      dup1\n      iszero\n      tag_26\n      jumpi\n      0x00\n      dup1\n      revert\n    tag_26:\n      pop\n      tag_27\n      tag_28\n      jump\t// in\n    tag_27:\n      mload(0x40)\n      tag_29\n      swap2\n      swap1\n      tag_25\n      jump\t// in\n    tag_29:\n      mload(0x40)\n      dup1\n      swap2\n      sub\n      swap1\n      return\n        /* \"Idea.sol\":643:665  address public manager */\n    tag_5:\n      callvalue\n      dup1\n      iszero\n      tag_30\n      jumpi\n      0x00\n      dup1\n      revert\n    tag_30:\n      pop\n      tag_31\n      tag_32\n      jump\t// in\n    tag_31:\n      mload(0x40)\n      tag_33\n      swap2\n      swap1\n      tag_34\n      jump\t// in\n    tag_33:\n      mload(0x40)\n      dup1\n      swap2\n      sub\n      swap1\n      return\n        /* \"Idea.sol\":760:786  uint public oneCreditValue */\n    tag_6:\n      callvalue\n      dup1\n      iszero\n      tag_35\n      jumpi\n      0x00\n      dup1\n      revert\n    tag_35:\n      pop\n      tag_36\n      tag_37\n      jump\t// in\n    tag_36:\n      mload(0x40)\n      tag_38\n      swap2\n      swap1\n      tag_25\n      jump\t// in\n    tag_38:\n      mload(0x40)\n      dup1\n      swap2\n      sub\n      swap1\n      return\n        /* \"Idea.sol\":676:706  uint public numUniqueApprovers */\n    tag_7:\n      callvalue\n      dup1\n      iszero\n      tag_39\n      jumpi\n      0x00\n      dup1\n      revert\n    tag_39:\n      pop\n      tag_40\n      tag_41\n      jump\t// in\n    tag_40:\n      mload(0x40)\n      tag_42\n      swap2\n      swap1\n      tag_25\n      jump\t// in\n    tag_42:\n      mload(0x40)\n      dup1\n      swap2\n      sub\n      swap1\n      return\n        /* \"Idea.sol\":591:632  mapping (uint => Request) public requests */\n    tag_8:\n      callvalue\n      dup1\n      iszero\n      tag_43\n      jumpi\n      0x00\n      dup1\n      revert\n    tag_43:\n      pop\n      tag_44\n      0x04\n      dup1\n      calldatasize\n      sub\n      dup2\n      add\n      swap1\n      tag_45\n      swap2\n      swap1\n      tag_17\n      jump\t// in\n    tag_45:\n      tag_46\n      jump\t// in\n    tag_44:\n      mload(0x40)\n      tag_47\n      swap6\n      swap5\n      swap4\n      swap3\n      swap2\n      swap1\n      tag_48\n      jump\t// in\n    tag_47:\n      mload(0x40)\n      dup1\n      swap2\n      sub\n      swap1\n      return\n        /* \"Idea.sol\":1638:1957  function createRequest(string memory description, uint value, address payable recipient) public allowOnlyManager {... */\n    tag_9:\n      callvalue\n      dup1\n      iszero\n      tag_49\n      jumpi\n      0x00\n      dup1\n      revert\n    tag_49:\n      pop\n      tag_50\n      0x04\n      dup1\n      calldatasize\n      sub\n      dup2\n      add\n      swap1\n      tag_51\n      swap2\n      swap1\n      tag_52\n      jump\t// in\n    tag_51:\n      tag_53\n      jump\t// in\n    tag_50:\n      stop\n        /* \"Idea.sol\":562:585  uint public numRequests */\n    tag_10:\n      callvalue\n      dup1\n      iszero\n      tag_54\n      jumpi\n      0x00\n      dup1\n      revert\n    tag_54:\n      pop\n      tag_55\n      tag_56\n      jump\t// in\n    tag_55:\n      mload(0x40)\n      tag_57\n      swap2\n      swap1\n      tag_25\n      jump\t// in\n    tag_57:\n      mload(0x40)\n      dup1\n      swap2\n      sub\n      swap1\n      return\n        /* \"Idea.sol\":1041:1628  function contribute() public payable {... */\n    tag_11:\n      tag_58\n      tag_59\n      jump\t// in\n    tag_58:\n      stop\n        /* \"Idea.sol\":1967:2259  function approveRequest(uint index) public {... */\n    tag_12:\n      callvalue\n      dup1\n      iszero\n      tag_60\n      jumpi\n      0x00\n      dup1\n      revert\n    tag_60:\n      pop\n      tag_61\n      0x04\n      dup1\n      calldatasize\n      sub\n      dup2\n      add\n      swap1\n      tag_62\n      swap2\n      swap1\n      tag_17\n      jump\t// in\n    tag_62:\n      tag_63\n      jump\t// in\n    tag_61:\n      stop\n        /* \"Idea.sol\":2265:2556  function finalizeRequest(uint index) public allowOnlyManager {... */\n    tag_18:\n        /* \"Idea.sol\":878:885  manager */\n      0x02\n      0x00\n      swap1\n      sload\n      swap1\n      0x0100\n      exp\n      swap1\n      div\n      0xffffffffffffffffffffffffffffffffffffffff\n      and\n        /* \"Idea.sol\":864:885  msg.sender == manager */\n      0xffffffffffffffffffffffffffffffffffffffff\n      and\n        /* \"Idea.sol\":864:874  msg.sender */\n      caller\n        /* \"Idea.sol\":864:885  msg.sender == manager */\n      0xffffffffffffffffffffffffffffffffffffffff\n      and\n      eq\n        /* \"Idea.sol\":856:886  require(msg.sender == manager) */\n      tag_65\n      jumpi\n      0x00\n      dup1\n      revert\n    tag_65:\n        /* \"Idea.sol\":2336:2359  Request storage request */\n      0x00\n        /* \"Idea.sol\":2362:2370  requests */\n      0x01\n        /* \"Idea.sol\":2362:2377  requests[index] */\n      0x00\n        /* \"Idea.sol\":2371:2376  index */\n      dup4\n        /* \"Idea.sol\":2362:2377  requests[index] */\n      dup2\n      mstore\n      0x20\n      add\n      swap1\n      dup2\n      mstore\n      0x20\n      add\n      0x00\n      keccak256\n        /* \"Idea.sol\":2336:2377  Request storage request = requests[index] */\n      swap1\n      pop\n        /* \"Idea.sol\":2425:2426  2 */\n      0x02\n        /* \"Idea.sol\":2415:2422  credits */\n      sload(0x06)\n        /* \"Idea.sol\":2415:2426  credits / 2 */\n      tag_67\n      swap2\n      swap1\n      tag_68\n      jump\t// in\n    tag_67:\n        /* \"Idea.sol\":2396:2403  request */\n      dup2\n        /* \"Idea.sol\":2396:2411  request.credits */\n      0x03\n      add\n      sload\n        /* \"Idea.sol\":2396:2427  request.credits > (credits / 2) */\n      gt\n        /* \"Idea.sol\":2388:2428  require(request.credits > (credits / 2)) */\n      tag_69\n      jumpi\n      0x00\n      dup1\n      revert\n    tag_69:\n        /* \"Idea.sol\":2447:2454  request */\n      dup1\n        /* \"Idea.sol\":2447:2463  request.complete */\n      0x02\n      add\n      0x14\n      swap1\n      sload\n      swap1\n      0x0100\n      exp\n      swap1\n      div\n      0xff\n      and\n        /* \"Idea.sol\":2446:2463  !request.complete */\n      iszero\n        /* \"Idea.sol\":2438:2464  require(!request.complete) */\n      tag_70\n      jumpi\n      0x00\n      dup1\n      revert\n    tag_70:\n        /* \"Idea.sol\":2475:2482  request */\n      dup1\n        /* \"Idea.sol\":2475:2492  request.recipient */\n      0x02\n      add\n      0x00\n      swap1\n      sload\n      swap1\n      0x0100\n      exp\n      swap1\n      div\n      0xffffffffffffffffffffffffffffffffffffffff\n      and\n        /* \"Idea.sol\":2475:2501  request.recipient.transfer */\n      0xffffffffffffffffffffffffffffffffffffffff\n      and\n        /* \"Idea.sol\":2475:2516  request.recipient.transfer(request.value) */\n      0x08fc\n        /* \"Idea.sol\":2502:2509  request */\n      dup3\n        /* \"Idea.sol\":2502:2515  request.value */\n      0x01\n      add\n      sload\n        /* \"Idea.sol\":2475:2516  request.recipient.transfer(request.value) */\n      swap1\n      dup2\n      iszero\n      mul\n      swap1\n      mload(0x40)\n      0x00\n      mload(0x40)\n      dup1\n      dup4\n      sub\n      dup2\n      dup6\n      dup9\n      dup9\n      call\n      swap4\n      pop\n      pop\n      pop\n      pop\n      iszero\n      dup1\n      iszero\n      tag_72\n      jumpi\n      returndatasize\n      0x00\n      dup1\n      returndatacopy\n      revert(0x00, returndatasize)\n    tag_72:\n      pop\n        /* \"Idea.sol\":2545:2549  true */\n      0x01\n        /* \"Idea.sol\":2526:2533  request */\n      dup2\n        /* \"Idea.sol\":2526:2542  request.complete */\n      0x02\n      add\n      0x14\n        /* \"Idea.sol\":2526:2549  request.complete = true */\n      0x0100\n      exp\n      dup2\n      sload\n      dup2\n      0xff\n      mul\n      not\n      and\n      swap1\n      dup4\n      iszero\n      iszero\n      mul\n      or\n      swap1\n      sstore\n      pop\n        /* \"Idea.sol\":896:897  _ */\n      pop\n        /* \"Idea.sol\":2265:2556  function finalizeRequest(uint index) public allowOnlyManager {... */\n      pop\n      jump\t// out\n        /* \"Idea.sol\":712:753  mapping(address => uint) public approvers */\n    tag_23:\n      mstore(0x20, 0x04)\n      dup1\n      0x00\n      mstore\n      keccak256(0x00, 0x40)\n      0x00\n      swap2\n      pop\n      swap1\n      pop\n      sload\n      dup2\n      jump\t// out\n        /* \"Idea.sol\":792:811  uint public credits */\n    tag_28:\n      sload(0x06)\n      dup2\n      jump\t// out\n        /* \"Idea.sol\":643:665  address public manager */\n    tag_32:\n      0x02\n      0x00\n      swap1\n      sload\n      swap1\n      0x0100\n      exp\n      swap1\n      div\n      0xffffffffffffffffffffffffffffffffffffffff\n      and\n      dup2\n      jump\t// out\n        /* \"Idea.sol\":760:786  uint public oneCreditValue */\n    tag_37:\n      sload(0x05)\n      dup2\n      jump\t// out\n        /* \"Idea.sol\":676:706  uint public numUniqueApprovers */\n    tag_41:\n      sload(0x03)\n      dup2\n      jump\t// out\n        /* \"Idea.sol\":591:632  mapping (uint => Request) public requests */\n    tag_46:\n      mstore(0x20, 0x01)\n      dup1\n      0x00\n      mstore\n      keccak256(0x00, 0x40)\n      0x00\n      swap2\n      pop\n      swap1\n      pop\n      dup1\n      0x00\n      add\n      dup1\n      sload\n      tag_73\n      swap1\n      tag_74\n      jump\t// in\n    tag_73:\n      dup1\n      0x1f\n      add\n      0x20\n      dup1\n      swap2\n      div\n      mul\n      0x20\n      add\n      mload(0x40)\n      swap1\n      dup2\n      add\n      0x40\n      mstore\n      dup1\n      swap3\n      swap2\n      swap1\n      dup2\n      dup2\n      mstore\n      0x20\n      add\n      dup3\n      dup1\n      sload\n      tag_75\n      swap1\n      tag_74\n      jump\t// in\n    tag_75:\n      dup1\n      iszero\n      tag_76\n      jumpi\n      dup1\n      0x1f\n      lt\n      tag_77\n      jumpi\n      0x0100\n      dup1\n      dup4\n      sload\n      div\n      mul\n      dup4\n      mstore\n      swap2\n      0x20\n      add\n      swap2\n      jump(tag_76)\n    tag_77:\n      dup3\n      add\n      swap2\n      swap1\n      0x00\n      mstore\n      keccak256(0x00, 0x20)\n      swap1\n    tag_78:\n      dup2\n      sload\n      dup2\n      mstore\n      swap1\n      0x01\n      add\n      swap1\n      0x20\n      add\n      dup1\n      dup4\n      gt\n      tag_78\n      jumpi\n      dup3\n      swap1\n      sub\n      0x1f\n      and\n      dup3\n      add\n      swap2\n    tag_76:\n      pop\n      pop\n      pop\n      pop\n      pop\n      swap1\n      dup1\n      0x01\n      add\n      sload\n      swap1\n      dup1\n      0x02\n      add\n      0x00\n      swap1\n      sload\n      swap1\n      0x0100\n      exp\n      swap1\n      div\n      0xffffffffffffffffffffffffffffffffffffffff\n      and\n      swap1\n      dup1\n      0x02\n      add\n      0x14\n      swap1\n      sload\n      swap1\n      0x0100\n      exp\n      swap1\n      div\n      0xff\n      and\n      swap1\n      dup1\n      0x03\n      add\n      sload\n      swap1\n      pop\n      dup6\n      jump\t// out\n        /* \"Idea.sol\":1638:1957  function createRequest(string memory description, uint value, address payable recipient) public allowOnlyManager {... */\n    tag_53:\n        /* \"Idea.sol\":878:885  manager */\n      0x02\n      0x00\n      swap1\n      sload\n      swap1\n      0x0100\n      exp\n      swap1\n      div\n      0xffffffffffffffffffffffffffffffffffffffff\n      and\n        /* \"Idea.sol\":864:885  msg.sender == manager */\n      0xffffffffffffffffffffffffffffffffffffffff\n      and\n        /* \"Idea.sol\":864:874  msg.sender */\n      caller\n        /* \"Idea.sol\":864:885  msg.sender == manager */\n      0xffffffffffffffffffffffffffffffffffffffff\n      and\n      eq\n        /* \"Idea.sol\":856:886  require(msg.sender == manager) */\n      tag_80\n      jumpi\n      0x00\n      dup1\n      revert\n    tag_80:\n        /* \"Idea.sol\":1761:1778  Request storage r */\n      0x00\n        /* \"Idea.sol\":1781:1789  requests */\n      0x01\n        /* \"Idea.sol\":1781:1804  requests[numRequests++] */\n      0x00\n        /* \"Idea.sol\":1790:1801  numRequests */\n      dup1\n      0x00\n        /* \"Idea.sol\":1790:1803  numRequests++ */\n      dup2\n      sload\n      dup1\n      swap3\n      swap2\n      swap1\n      tag_82\n      swap1\n      tag_83\n      jump\t// in\n    tag_82:\n      swap2\n      swap1\n      pop\n      sstore\n        /* \"Idea.sol\":1781:1804  requests[numRequests++] */\n      dup2\n      mstore\n      0x20\n      add\n      swap1\n      dup2\n      mstore\n      0x20\n      add\n      0x00\n      keccak256\n        /* \"Idea.sol\":1761:1804  Request storage r = requests[numRequests++] */\n      swap1\n      pop\n        /* \"Idea.sol\":1830:1841  description */\n      dup4\n        /* \"Idea.sol\":1814:1815  r */\n      dup2\n        /* \"Idea.sol\":1814:1827  r.description */\n      0x00\n      add\n        /* \"Idea.sol\":1814:1841  r.description = description */\n      swap1\n      dup1\n      mload\n      swap1\n      0x20\n      add\n      swap1\n      tag_84\n      swap3\n      swap2\n      swap1\n      tag_85\n      jump\t// in\n    tag_84:\n      pop\n        /* \"Idea.sol\":1861:1866  value */\n      dup3\n        /* \"Idea.sol\":1851:1852  r */\n      dup2\n        /* \"Idea.sol\":1851:1858  r.value */\n      0x01\n      add\n        /* \"Idea.sol\":1851:1866  r.value = value */\n      dup2\n      swap1\n      sstore\n      pop\n        /* \"Idea.sol\":1890:1899  recipient */\n      dup2\n        /* \"Idea.sol\":1876:1877  r */\n      dup2\n        /* \"Idea.sol\":1876:1887  r.recipient */\n      0x02\n      add\n      0x00\n        /* \"Idea.sol\":1876:1899  r.recipient = recipient */\n      0x0100\n      exp\n      dup2\n      sload\n      dup2\n      0xffffffffffffffffffffffffffffffffffffffff\n      mul\n      not\n      and\n      swap1\n      dup4\n      0xffffffffffffffffffffffffffffffffffffffff\n      and\n      mul\n      or\n      swap1\n      sstore\n      pop\n        /* \"Idea.sol\":1922:1927  false */\n      0x00\n        /* \"Idea.sol\":1909:1910  r */\n      dup2\n        /* \"Idea.sol\":1909:1919  r.complete */\n      0x02\n      add\n      0x14\n        /* \"Idea.sol\":1909:1927  r.complete = false */\n      0x0100\n      exp\n      dup2\n      sload\n      dup2\n      0xff\n      mul\n      not\n      and\n      swap1\n      dup4\n      iszero\n      iszero\n      mul\n      or\n      swap1\n      sstore\n      pop\n        /* \"Idea.sol\":1949:1950  0 */\n      0x00\n        /* \"Idea.sol\":1937:1938  r */\n      dup2\n        /* \"Idea.sol\":1937:1946  r.credits */\n      0x03\n      add\n        /* \"Idea.sol\":1937:1950  r.credits = 0 */\n      dup2\n      swap1\n      sstore\n      pop\n        /* \"Idea.sol\":896:897  _ */\n      pop\n        /* \"Idea.sol\":1638:1957  function createRequest(string memory description, uint value, address payable recipient) public allowOnlyManager {... */\n      pop\n      pop\n      pop\n      jump\t// out\n        /* \"Idea.sol\":562:585  uint public numRequests */\n    tag_56:\n      sload(0x00)\n      dup2\n      jump\t// out\n        /* \"Idea.sol\":1041:1628  function contribute() public payable {... */\n    tag_59:\n        /* \"Idea.sol\":1109:1123  oneCreditValue */\n      sload(0x05)\n        /* \"Idea.sol\":1096:1105  msg.value */\n      callvalue\n        /* \"Idea.sol\":1096:1123  msg.value >= oneCreditValue */\n      lt\n      iszero\n        /* \"Idea.sol\":1088:1124  require(msg.value >= oneCreditValue) */\n      tag_87\n      jumpi\n      0x00\n      dup1\n      revert\n    tag_87:\n        /* \"Idea.sol\":1163:1164  0 */\n      0x00\n        /* \"Idea.sol\":1138:1147  approvers */\n      0x04\n        /* \"Idea.sol\":1138:1159  approvers[msg.sender] */\n      0x00\n        /* \"Idea.sol\":1148:1158  msg.sender */\n      caller\n        /* \"Idea.sol\":1138:1159  approvers[msg.sender] */\n      0xffffffffffffffffffffffffffffffffffffffff\n      and\n      0xffffffffffffffffffffffffffffffffffffffff\n      and\n      dup2\n      mstore\n      0x20\n      add\n      swap1\n      dup2\n      mstore\n      0x20\n      add\n      0x00\n      keccak256\n      sload\n        /* \"Idea.sol\":1138:1164  approvers[msg.sender] == 0 */\n      eq\n        /* \"Idea.sol\":1135:1211  if(approvers[msg.sender] == 0) {... */\n      iszero\n      tag_88\n      jumpi\n        /* \"Idea.sol\":1180:1198  numUniqueApprovers */\n      0x03\n      0x00\n        /* \"Idea.sol\":1180:1200  numUniqueApprovers++ */\n      dup2\n      sload\n      dup1\n      swap3\n      swap2\n      swap1\n      tag_89\n      swap1\n      tag_83\n      jump\t// in\n    tag_89:\n      swap2\n      swap1\n      pop\n      sstore\n      pop\n        /* \"Idea.sol\":1135:1211  if(approvers[msg.sender] == 0) {... */\n    tag_88:\n        /* \"Idea.sol\":1222:1232  uint value */\n      0x00\n        /* \"Idea.sol\":1247:1261  oneCreditValue */\n      sload(0x05)\n        /* \"Idea.sol\":1235:1244  msg.value */\n      callvalue\n        /* \"Idea.sol\":1235:1261  msg.value / oneCreditValue */\n      tag_90\n      swap2\n      swap1\n      tag_68\n      jump\t// in\n    tag_90:\n        /* \"Idea.sol\":1222:1261  uint value = msg.value / oneCreditValue */\n      swap1\n      pop\n        /* \"Idea.sol\":1296:1301  value */\n      dup1\n        /* \"Idea.sol\":1271:1280  approvers */\n      0x04\n        /* \"Idea.sol\":1271:1292  approvers[msg.sender] */\n      0x00\n        /* \"Idea.sol\":1281:1291  msg.sender */\n      caller\n        /* \"Idea.sol\":1271:1292  approvers[msg.sender] */\n      0xffffffffffffffffffffffffffffffffffffffff\n      and\n      0xffffffffffffffffffffffffffffffffffffffff\n      and\n      dup2\n      mstore\n      0x20\n      add\n      swap1\n      dup2\n      mstore\n      0x20\n      add\n      0x00\n      keccak256\n      0x00\n        /* \"Idea.sol\":1271:1301  approvers[msg.sender] += value */\n      dup3\n      dup3\n      sload\n      tag_91\n      swap2\n      swap1\n      tag_92\n      jump\t// in\n    tag_91:\n      swap3\n      pop\n      pop\n      dup2\n      swap1\n      sstore\n      pop\n        /* \"Idea.sol\":1322:1327  value */\n      dup1\n        /* \"Idea.sol\":1311:1318  credits */\n      0x06\n      0x00\n        /* \"Idea.sol\":1311:1327  credits += value */\n      dup3\n      dup3\n      sload\n      tag_93\n      swap2\n      swap1\n      tag_92\n      jump\t// in\n    tag_93:\n      swap3\n      pop\n      pop\n      dup2\n      swap1\n      sstore\n      pop\n        /* \"Idea.sol\":1379:1390  uint change */\n      0x00\n        /* \"Idea.sol\":1405:1419  oneCreditValue */\n      sload(0x05)\n        /* \"Idea.sol\":1393:1402  msg.value */\n      callvalue\n        /* \"Idea.sol\":1393:1419  msg.value % oneCreditValue */\n      tag_94\n      swap2\n      swap1\n      tag_95\n      jump\t// in\n    tag_94:\n        /* \"Idea.sol\":1379:1419  uint change = msg.value % oneCreditValue */\n      swap1\n      pop\n        /* \"Idea.sol\":1499:1500  0 */\n      0x00\n        /* \"Idea.sol\":1489:1495  change */\n      dup2\n        /* \"Idea.sol\":1489:1500  change != 0 */\n      eq\n        /* \"Idea.sol\":1486:1622  if(change != 0) {... */\n      tag_96\n      jumpi\n        /* \"Idea.sol\":1516:1545  address payable senderAddress */\n      0x00\n        /* \"Idea.sol\":1556:1566  msg.sender */\n      caller\n        /* \"Idea.sol\":1516:1567  address payable senderAddress = payable(msg.sender) */\n      swap1\n      pop\n        /* \"Idea.sol\":1581:1594  senderAddress */\n      dup1\n        /* \"Idea.sol\":1581:1603  senderAddress.transfer */\n      0xffffffffffffffffffffffffffffffffffffffff\n      and\n        /* \"Idea.sol\":1581:1611  senderAddress.transfer(change) */\n      0x08fc\n        /* \"Idea.sol\":1604:1610  change */\n      dup4\n        /* \"Idea.sol\":1581:1611  senderAddress.transfer(change) */\n      swap1\n      dup2\n      iszero\n      mul\n      swap1\n      mload(0x40)\n      0x00\n      mload(0x40)\n      dup1\n      dup4\n      sub\n      dup2\n      dup6\n      dup9\n      dup9\n      call\n      swap4\n      pop\n      pop\n      pop\n      pop\n      iszero\n      dup1\n      iszero\n      tag_98\n      jumpi\n      returndatasize\n      0x00\n      dup1\n      returndatacopy\n      revert(0x00, returndatasize)\n    tag_98:\n      pop\n        /* \"Idea.sol\":1486:1622  if(change != 0) {... */\n      pop\n    tag_96:\n        /* \"Idea.sol\":1041:1628  function contribute() public payable {... */\n      pop\n      pop\n      jump\t// out\n        /* \"Idea.sol\":1967:2259  function approveRequest(uint index) public {... */\n    tag_63:\n        /* \"Idea.sol\":2020:2043  Request storage request */\n      0x00\n        /* \"Idea.sol\":2046:2054  requests */\n      0x01\n        /* \"Idea.sol\":2046:2061  requests[index] */\n      0x00\n        /* \"Idea.sol\":2055:2060  index */\n      dup4\n        /* \"Idea.sol\":2046:2061  requests[index] */\n      dup2\n      mstore\n      0x20\n      add\n      swap1\n      dup2\n      mstore\n      0x20\n      add\n      0x00\n      keccak256\n        /* \"Idea.sol\":2020:2061  Request storage request = requests[index] */\n      swap1\n      pop\n        /* \"Idea.sol\":2104:2105  0 */\n      0x00\n        /* \"Idea.sol\":2080:2089  approvers */\n      0x04\n        /* \"Idea.sol\":2080:2101  approvers[msg.sender] */\n      0x00\n        /* \"Idea.sol\":2090:2100  msg.sender */\n      caller\n        /* \"Idea.sol\":2080:2101  approvers[msg.sender] */\n      0xffffffffffffffffffffffffffffffffffffffff\n      and\n      0xffffffffffffffffffffffffffffffffffffffff\n      and\n      dup2\n      mstore\n      0x20\n      add\n      swap1\n      dup2\n      mstore\n      0x20\n      add\n      0x00\n      keccak256\n      sload\n        /* \"Idea.sol\":2080:2105  approvers[msg.sender] > 0 */\n      gt\n        /* \"Idea.sol\":2072:2106  require(approvers[msg.sender] > 0) */\n      tag_100\n      jumpi\n      0x00\n      dup1\n      revert\n    tag_100:\n        /* \"Idea.sol\":2125:2132  request */\n      dup1\n        /* \"Idea.sol\":2125:2142  request.approvals */\n      0x04\n      add\n        /* \"Idea.sol\":2125:2154  request.approvals[msg.sender] */\n      0x00\n        /* \"Idea.sol\":2143:2153  msg.sender */\n      caller\n        /* \"Idea.sol\":2125:2154  request.approvals[msg.sender] */\n      0xffffffffffffffffffffffffffffffffffffffff\n      and\n      0xffffffffffffffffffffffffffffffffffffffff\n      and\n      dup2\n      mstore\n      0x20\n      add\n      swap1\n      dup2\n      mstore\n      0x20\n      add\n      0x00\n      keccak256\n      0x00\n      swap1\n      sload\n      swap1\n      0x0100\n      exp\n      swap1\n      div\n      0xff\n      and\n        /* \"Idea.sol\":2124:2154  !request.approvals[msg.sender] */\n      iszero\n        /* \"Idea.sol\":2116:2155  require(!request.approvals[msg.sender]) */\n      tag_101\n      jumpi\n      0x00\n      dup1\n      revert\n    tag_101:\n        /* \"Idea.sol\":2198:2202  true */\n      0x01\n        /* \"Idea.sol\":2166:2173  request */\n      dup2\n        /* \"Idea.sol\":2166:2183  request.approvals */\n      0x04\n      add\n        /* \"Idea.sol\":2166:2195  request.approvals[msg.sender] */\n      0x00\n        /* \"Idea.sol\":2184:2194  msg.sender */\n      caller\n        /* \"Idea.sol\":2166:2195  request.approvals[msg.sender] */\n      0xffffffffffffffffffffffffffffffffffffffff\n      and\n      0xffffffffffffffffffffffffffffffffffffffff\n      and\n      dup2\n      mstore\n      0x20\n      add\n      swap1\n      dup2\n      mstore\n      0x20\n      add\n      0x00\n      keccak256\n      0x00\n        /* \"Idea.sol\":2166:2202  request.approvals[msg.sender] = true */\n      0x0100\n      exp\n      dup2\n      sload\n      dup2\n      0xff\n      mul\n      not\n      and\n      swap1\n      dup4\n      iszero\n      iszero\n      mul\n      or\n      swap1\n      sstore\n      pop\n        /* \"Idea.sol\":2231:2240  approvers */\n      0x04\n        /* \"Idea.sol\":2231:2252  approvers[msg.sender] */\n      0x00\n        /* \"Idea.sol\":2241:2251  msg.sender */\n      caller\n        /* \"Idea.sol\":2231:2252  approvers[msg.sender] */\n      0xffffffffffffffffffffffffffffffffffffffff\n      and\n      0xffffffffffffffffffffffffffffffffffffffff\n      and\n      dup2\n      mstore\n      0x20\n      add\n      swap1\n      dup2\n      mstore\n      0x20\n      add\n      0x00\n      keccak256\n      sload\n        /* \"Idea.sol\":2212:2219  request */\n      dup2\n        /* \"Idea.sol\":2212:2227  request.credits */\n      0x03\n      add\n      0x00\n        /* \"Idea.sol\":2212:2252  request.credits += approvers[msg.sender] */\n      dup3\n      dup3\n      sload\n      tag_102\n      swap2\n      swap1\n      tag_92\n      jump\t// in\n    tag_102:\n      swap3\n      pop\n      pop\n      dup2\n      swap1\n      sstore\n      pop\n        /* \"Idea.sol\":1967:2259  function approveRequest(uint index) public {... */\n      pop\n      pop\n      jump\t// out\n    tag_85:\n      dup3\n      dup1\n      sload\n      tag_103\n      swap1\n      tag_74\n      jump\t// in\n    tag_103:\n      swap1\n      0x00\n      mstore\n      keccak256(0x00, 0x20)\n      swap1\n      0x1f\n      add\n      0x20\n      swap1\n      div\n      dup2\n      add\n      swap3\n      dup3\n      tag_105\n      jumpi\n      0x00\n      dup6\n      sstore\n      jump(tag_104)\n    tag_105:\n      dup3\n      0x1f\n      lt\n      tag_106\n      jumpi\n      dup1\n      mload\n      not(0xff)\n      and\n      dup4\n      dup1\n      add\n      or\n      dup6\n      sstore\n      jump(tag_104)\n    tag_106:\n      dup3\n      dup1\n      add\n      0x01\n      add\n      dup6\n      sstore\n      dup3\n      iszero\n      tag_104\n      jumpi\n      swap2\n      dup3\n      add\n    tag_107:\n      dup3\n      dup2\n      gt\n      iszero\n      tag_108\n      jumpi\n      dup3\n      mload\n      dup3\n      sstore\n      swap2\n      0x20\n      add\n      swap2\n      swap1\n      0x01\n      add\n      swap1\n      jump(tag_107)\n    tag_108:\n    tag_104:\n      pop\n      swap1\n      pop\n      tag_109\n      swap2\n      swap1\n      tag_110\n      jump\t// in\n    tag_109:\n      pop\n      swap1\n      jump\t// out\n    tag_110:\n    tag_111:\n      dup1\n      dup3\n      gt\n      iszero\n      tag_112\n      jumpi\n      0x00\n      dup2\n      0x00\n      swap1\n      sstore\n      pop\n      0x01\n      add\n      jump(tag_111)\n    tag_112:\n      pop\n      swap1\n      jump\t// out\n        /* \"#utility.yul\":7:352   */\n    tag_114:\n      0x00\n        /* \"#utility.yul\":110:176   */\n      tag_116\n        /* \"#utility.yul\":126:175   */\n      tag_117\n        /* \"#utility.yul\":168:174   */\n      dup5\n        /* \"#utility.yul\":126:175   */\n      tag_118\n      jump\t// in\n    tag_117:\n        /* \"#utility.yul\":110:176   */\n      tag_119\n      jump\t// in\n    tag_116:\n        /* \"#utility.yul\":101:176   */\n      swap1\n      pop\n        /* \"#utility.yul\":199:205   */\n      dup3\n        /* \"#utility.yul\":192:197   */\n      dup2\n        /* \"#utility.yul\":185:206   */\n      mstore\n        /* \"#utility.yul\":237:241   */\n      0x20\n        /* \"#utility.yul\":230:235   */\n      dup2\n        /* \"#utility.yul\":226:242   */\n      add\n        /* \"#utility.yul\":275:278   */\n      dup5\n        /* \"#utility.yul\":266:272   */\n      dup5\n        /* \"#utility.yul\":261:264   */\n      dup5\n        /* \"#utility.yul\":257:273   */\n      add\n        /* \"#utility.yul\":254:279   */\n      gt\n        /* \"#utility.yul\":251:253   */\n      iszero\n      tag_120\n      jumpi\n        /* \"#utility.yul\":292:293   */\n      0x00\n        /* \"#utility.yul\":289:290   */\n      dup1\n        /* \"#utility.yul\":282:294   */\n      revert\n        /* \"#utility.yul\":251:253   */\n    tag_120:\n        /* \"#utility.yul\":305:346   */\n      tag_121\n        /* \"#utility.yul\":339:345   */\n      dup5\n        /* \"#utility.yul\":334:337   */\n      dup3\n        /* \"#utility.yul\":329:332   */\n      dup6\n        /* \"#utility.yul\":305:346   */\n      tag_122\n      jump\t// in\n    tag_121:\n        /* \"#utility.yul\":91:352   */\n      pop\n      swap4\n      swap3\n      pop\n      pop\n      pop\n      jump\t// out\n        /* \"#utility.yul\":358:497   */\n    tag_123:\n      0x00\n        /* \"#utility.yul\":442:448   */\n      dup2\n        /* \"#utility.yul\":429:449   */\n      calldataload\n        /* \"#utility.yul\":420:449   */\n      swap1\n      pop\n        /* \"#utility.yul\":458:491   */\n      tag_125\n        /* \"#utility.yul\":485:490   */\n      dup2\n        /* \"#utility.yul\":458:491   */\n      tag_126\n      jump\t// in\n    tag_125:\n        /* \"#utility.yul\":410:497   */\n      swap3\n      swap2\n      pop\n      pop\n      jump\t// out\n        /* \"#utility.yul\":503:658   */\n    tag_127:\n      0x00\n        /* \"#utility.yul\":595:601   */\n      dup2\n        /* \"#utility.yul\":582:602   */\n      calldataload\n        /* \"#utility.yul\":573:602   */\n      swap1\n      pop\n        /* \"#utility.yul\":611:652   */\n      tag_129\n        /* \"#utility.yul\":646:651   */\n      dup2\n        /* \"#utility.yul\":611:652   */\n      tag_130\n      jump\t// in\n    tag_129:\n        /* \"#utility.yul\":563:658   */\n      swap3\n      swap2\n      pop\n      pop\n      jump\t// out\n        /* \"#utility.yul\":678:951   */\n    tag_131:\n      0x00\n        /* \"#utility.yul\":783:786   */\n      dup3\n        /* \"#utility.yul\":776:780   */\n      0x1f\n        /* \"#utility.yul\":768:774   */\n      dup4\n        /* \"#utility.yul\":764:781   */\n      add\n        /* \"#utility.yul\":760:787   */\n      slt\n        /* \"#utility.yul\":750:752   */\n      tag_133\n      jumpi\n        /* \"#utility.yul\":801:802   */\n      0x00\n        /* \"#utility.yul\":798:799   */\n      dup1\n        /* \"#utility.yul\":791:803   */\n      revert\n        /* \"#utility.yul\":750:752   */\n    tag_133:\n        /* \"#utility.yul\":841:847   */\n      dup2\n        /* \"#utility.yul\":828:848   */\n      calldataload\n        /* \"#utility.yul\":866:945   */\n      tag_134\n        /* \"#utility.yul\":941:944   */\n      dup5\n        /* \"#utility.yul\":933:939   */\n      dup3\n        /* \"#utility.yul\":926:930   */\n      0x20\n        /* \"#utility.yul\":918:924   */\n      dup7\n        /* \"#utility.yul\":914:931   */\n      add\n        /* \"#utility.yul\":866:945   */\n      tag_114\n      jump\t// in\n    tag_134:\n        /* \"#utility.yul\":857:945   */\n      swap2\n      pop\n        /* \"#utility.yul\":740:951   */\n      pop\n      swap3\n      swap2\n      pop\n      pop\n      jump\t// out\n        /* \"#utility.yul\":957:1096   */\n    tag_135:\n      0x00\n        /* \"#utility.yul\":1041:1047   */\n      dup2\n        /* \"#utility.yul\":1028:1048   */\n      calldataload\n        /* \"#utility.yul\":1019:1048   */\n      swap1\n      pop\n        /* \"#utility.yul\":1057:1090   */\n      tag_137\n        /* \"#utility.yul\":1084:1089   */\n      dup2\n        /* \"#utility.yul\":1057:1090   */\n      tag_138\n      jump\t// in\n    tag_137:\n        /* \"#utility.yul\":1009:1096   */\n      swap3\n      swap2\n      pop\n      pop\n      jump\t// out\n        /* \"#utility.yul\":1102:1364   */\n    tag_22:\n      0x00\n        /* \"#utility.yul\":1210:1212   */\n      0x20\n        /* \"#utility.yul\":1198:1207   */\n      dup3\n        /* \"#utility.yul\":1189:1196   */\n      dup5\n        /* \"#utility.yul\":1185:1208   */\n      sub\n        /* \"#utility.yul\":1181:1213   */\n      slt\n        /* \"#utility.yul\":1178:1180   */\n      iszero\n      tag_140\n      jumpi\n        /* \"#utility.yul\":1226:1227   */\n      0x00\n        /* \"#utility.yul\":1223:1224   */\n      dup1\n        /* \"#utility.yul\":1216:1228   */\n      revert\n        /* \"#utility.yul\":1178:1180   */\n    tag_140:\n        /* \"#utility.yul\":1269:1270   */\n      0x00\n        /* \"#utility.yul\":1294:1347   */\n      tag_141\n        /* \"#utility.yul\":1339:1346   */\n      dup5\n        /* \"#utility.yul\":1330:1336   */\n      dup3\n        /* \"#utility.yul\":1319:1328   */\n      dup6\n        /* \"#utility.yul\":1315:1337   */\n      add\n        /* \"#utility.yul\":1294:1347   */\n      tag_123\n      jump\t// in\n    tag_141:\n        /* \"#utility.yul\":1284:1347   */\n      swap2\n      pop\n        /* \"#utility.yul\":1240:1357   */\n      pop\n        /* \"#utility.yul\":1168:1364   */\n      swap3\n      swap2\n      pop\n      pop\n      jump\t// out\n        /* \"#utility.yul\":1370:2051   */\n    tag_52:\n      0x00\n      dup1\n      0x00\n        /* \"#utility.yul\":1530:1532   */\n      0x60\n        /* \"#utility.yul\":1518:1527   */\n      dup5\n        /* \"#utility.yul\":1509:1516   */\n      dup7\n        /* \"#utility.yul\":1505:1528   */\n      sub\n        /* \"#utility.yul\":1501:1533   */\n      slt\n        /* \"#utility.yul\":1498:1500   */\n      iszero\n      tag_143\n      jumpi\n        /* \"#utility.yul\":1546:1547   */\n      0x00\n        /* \"#utility.yul\":1543:1544   */\n      dup1\n        /* \"#utility.yul\":1536:1548   */\n      revert\n        /* \"#utility.yul\":1498:1500   */\n    tag_143:\n        /* \"#utility.yul\":1617:1618   */\n      0x00\n        /* \"#utility.yul\":1606:1615   */\n      dup5\n        /* \"#utility.yul\":1602:1619   */\n      add\n        /* \"#utility.yul\":1589:1620   */\n      calldataload\n        /* \"#utility.yul\":1647:1665   */\n      0xffffffffffffffff\n        /* \"#utility.yul\":1639:1645   */\n      dup2\n        /* \"#utility.yul\":1636:1666   */\n      gt\n        /* \"#utility.yul\":1633:1635   */\n      iszero\n      tag_144\n      jumpi\n        /* \"#utility.yul\":1679:1680   */\n      0x00\n        /* \"#utility.yul\":1676:1677   */\n      dup1\n        /* \"#utility.yul\":1669:1681   */\n      revert\n        /* \"#utility.yul\":1633:1635   */\n    tag_144:\n        /* \"#utility.yul\":1707:1770   */\n      tag_145\n        /* \"#utility.yul\":1762:1769   */\n      dup7\n        /* \"#utility.yul\":1753:1759   */\n      dup3\n        /* \"#utility.yul\":1742:1751   */\n      dup8\n        /* \"#utility.yul\":1738:1760   */\n      add\n        /* \"#utility.yul\":1707:1770   */\n      tag_131\n      jump\t// in\n    tag_145:\n        /* \"#utility.yul\":1697:1770   */\n      swap4\n      pop\n        /* \"#utility.yul\":1560:1780   */\n      pop\n        /* \"#utility.yul\":1819:1821   */\n      0x20\n        /* \"#utility.yul\":1845:1898   */\n      tag_146\n        /* \"#utility.yul\":1890:1897   */\n      dup7\n        /* \"#utility.yul\":1881:1887   */\n      dup3\n        /* \"#utility.yul\":1870:1879   */\n      dup8\n        /* \"#utility.yul\":1866:1888   */\n      add\n        /* \"#utility.yul\":1845:1898   */\n      tag_135\n      jump\t// in\n    tag_146:\n        /* \"#utility.yul\":1835:1898   */\n      swap3\n      pop\n        /* \"#utility.yul\":1790:1908   */\n      pop\n        /* \"#utility.yul\":1947:1949   */\n      0x40\n        /* \"#utility.yul\":1973:2034   */\n      tag_147\n        /* \"#utility.yul\":2026:2033   */\n      dup7\n        /* \"#utility.yul\":2017:2023   */\n      dup3\n        /* \"#utility.yul\":2006:2015   */\n      dup8\n        /* \"#utility.yul\":2002:2024   */\n      add\n        /* \"#utility.yul\":1973:2034   */\n      tag_127\n      jump\t// in\n    tag_147:\n        /* \"#utility.yul\":1963:2034   */\n      swap2\n      pop\n        /* \"#utility.yul\":1918:2044   */\n      pop\n        /* \"#utility.yul\":1488:2051   */\n      swap3\n      pop\n      swap3\n      pop\n      swap3\n      jump\t// out\n        /* \"#utility.yul\":2057:2319   */\n    tag_17:\n      0x00\n        /* \"#utility.yul\":2165:2167   */\n      0x20\n        /* \"#utility.yul\":2153:2162   */\n      dup3\n        /* \"#utility.yul\":2144:2151   */\n      dup5\n        /* \"#utility.yul\":2140:2163   */\n      sub\n        /* \"#utility.yul\":2136:2168   */\n      slt\n        /* \"#utility.yul\":2133:2135   */\n      iszero\n      tag_149\n      jumpi\n        /* \"#utility.yul\":2181:2182   */\n      0x00\n        /* \"#utility.yul\":2178:2179   */\n      dup1\n        /* \"#utility.yul\":2171:2183   */\n      revert\n        /* \"#utility.yul\":2133:2135   */\n    tag_149:\n        /* \"#utility.yul\":2224:2225   */\n      0x00\n        /* \"#utility.yul\":2249:2302   */\n      tag_150\n        /* \"#utility.yul\":2294:2301   */\n      dup5\n        /* \"#utility.yul\":2285:2291   */\n      dup3\n        /* \"#utility.yul\":2274:2283   */\n      dup6\n        /* \"#utility.yul\":2270:2292   */\n      add\n        /* \"#utility.yul\":2249:2302   */\n      tag_135\n      jump\t// in\n    tag_150:\n        /* \"#utility.yul\":2239:2302   */\n      swap2\n      pop\n        /* \"#utility.yul\":2195:2312   */\n      pop\n        /* \"#utility.yul\":2123:2319   */\n      swap3\n      swap2\n      pop\n      pop\n      jump\t// out\n        /* \"#utility.yul\":2325:2467   */\n    tag_151:\n        /* \"#utility.yul\":2428:2460   */\n      tag_153\n        /* \"#utility.yul\":2454:2459   */\n      dup2\n        /* \"#utility.yul\":2428:2460   */\n      tag_154\n      jump\t// in\n    tag_153:\n        /* \"#utility.yul\":2423:2426   */\n      dup3\n        /* \"#utility.yul\":2416:2461   */\n      mstore\n        /* \"#utility.yul\":2406:2467   */\n      pop\n      pop\n      jump\t// out\n        /* \"#utility.yul\":2473:2591   */\n    tag_155:\n        /* \"#utility.yul\":2560:2584   */\n      tag_157\n        /* \"#utility.yul\":2578:2583   */\n      dup2\n        /* \"#utility.yul\":2560:2584   */\n      tag_158\n      jump\t// in\n    tag_157:\n        /* \"#utility.yul\":2555:2558   */\n      dup3\n        /* \"#utility.yul\":2548:2585   */\n      mstore\n        /* \"#utility.yul\":2538:2591   */\n      pop\n      pop\n      jump\t// out\n        /* \"#utility.yul\":2597:2706   */\n    tag_159:\n        /* \"#utility.yul\":2678:2699   */\n      tag_161\n        /* \"#utility.yul\":2693:2698   */\n      dup2\n        /* \"#utility.yul\":2678:2699   */\n      tag_162\n      jump\t// in\n    tag_161:\n        /* \"#utility.yul\":2673:2676   */\n      dup3\n        /* \"#utility.yul\":2666:2700   */\n      mstore\n        /* \"#utility.yul\":2656:2706   */\n      pop\n      pop\n      jump\t// out\n        /* \"#utility.yul\":2712:3076   */\n    tag_163:\n      0x00\n        /* \"#utility.yul\":2828:2867   */\n      tag_165\n        /* \"#utility.yul\":2861:2866   */\n      dup3\n        /* \"#utility.yul\":2828:2867   */\n      tag_166\n      jump\t// in\n    tag_165:\n        /* \"#utility.yul\":2883:2954   */\n      tag_167\n        /* \"#utility.yul\":2947:2953   */\n      dup2\n        /* \"#utility.yul\":2942:2945   */\n      dup6\n        /* \"#utility.yul\":2883:2954   */\n      tag_168\n      jump\t// in\n    tag_167:\n        /* \"#utility.yul\":2876:2954   */\n      swap4\n      pop\n        /* \"#utility.yul\":2963:3015   */\n      tag_169\n        /* \"#utility.yul\":3008:3014   */\n      dup2\n        /* \"#utility.yul\":3003:3006   */\n      dup6\n        /* \"#utility.yul\":2996:3000   */\n      0x20\n        /* \"#utility.yul\":2989:2994   */\n      dup7\n        /* \"#utility.yul\":2985:3001   */\n      add\n        /* \"#utility.yul\":2963:3015   */\n      tag_170\n      jump\t// in\n    tag_169:\n        /* \"#utility.yul\":3040:3069   */\n      tag_171\n        /* \"#utility.yul\":3062:3068   */\n      dup2\n        /* \"#utility.yul\":3040:3069   */\n      tag_172\n      jump\t// in\n    tag_171:\n        /* \"#utility.yul\":3035:3038   */\n      dup5\n        /* \"#utility.yul\":3031:3070   */\n      add\n        /* \"#utility.yul\":3024:3070   */\n      swap2\n      pop\n        /* \"#utility.yul\":2804:3076   */\n      pop\n      swap3\n      swap2\n      pop\n      pop\n      jump\t// out\n        /* \"#utility.yul\":3082:3200   */\n    tag_173:\n        /* \"#utility.yul\":3169:3193   */\n      tag_175\n        /* \"#utility.yul\":3187:3192   */\n      dup2\n        /* \"#utility.yul\":3169:3193   */\n      tag_176\n      jump\t// in\n    tag_175:\n        /* \"#utility.yul\":3164:3167   */\n      dup3\n        /* \"#utility.yul\":3157:3194   */\n      mstore\n        /* \"#utility.yul\":3147:3200   */\n      pop\n      pop\n      jump\t// out\n        /* \"#utility.yul\":3206:3428   */\n    tag_34:\n      0x00\n        /* \"#utility.yul\":3337:3339   */\n      0x20\n        /* \"#utility.yul\":3326:3335   */\n      dup3\n        /* \"#utility.yul\":3322:3340   */\n      add\n        /* \"#utility.yul\":3314:3340   */\n      swap1\n      pop\n        /* \"#utility.yul\":3350:3421   */\n      tag_178\n        /* \"#utility.yul\":3418:3419   */\n      0x00\n        /* \"#utility.yul\":3407:3416   */\n      dup4\n        /* \"#utility.yul\":3403:3420   */\n      add\n        /* \"#utility.yul\":3394:3400   */\n      dup5\n        /* \"#utility.yul\":3350:3421   */\n      tag_155\n      jump\t// in\n    tag_178:\n        /* \"#utility.yul\":3304:3428   */\n      swap3\n      swap2\n      pop\n      pop\n      jump\t// out\n        /* \"#utility.yul\":3434:4209   */\n    tag_48:\n      0x00\n        /* \"#utility.yul\":3707:3710   */\n      0xa0\n        /* \"#utility.yul\":3696:3705   */\n      dup3\n        /* \"#utility.yul\":3692:3711   */\n      add\n        /* \"#utility.yul\":3684:3711   */\n      swap1\n      pop\n        /* \"#utility.yul\":3757:3766   */\n      dup2\n        /* \"#utility.yul\":3751:3755   */\n      dup2\n        /* \"#utility.yul\":3747:3767   */\n      sub\n        /* \"#utility.yul\":3743:3744   */\n      0x00\n        /* \"#utility.yul\":3732:3741   */\n      dup4\n        /* \"#utility.yul\":3728:3745   */\n      add\n        /* \"#utility.yul\":3721:3768   */\n      mstore\n        /* \"#utility.yul\":3785:3863   */\n      tag_180\n        /* \"#utility.yul\":3858:3862   */\n      dup2\n        /* \"#utility.yul\":3849:3855   */\n      dup9\n        /* \"#utility.yul\":3785:3863   */\n      tag_163\n      jump\t// in\n    tag_180:\n        /* \"#utility.yul\":3777:3863   */\n      swap1\n      pop\n        /* \"#utility.yul\":3873:3945   */\n      tag_181\n        /* \"#utility.yul\":3941:3943   */\n      0x20\n        /* \"#utility.yul\":3930:3939   */\n      dup4\n        /* \"#utility.yul\":3926:3944   */\n      add\n        /* \"#utility.yul\":3917:3923   */\n      dup8\n        /* \"#utility.yul\":3873:3945   */\n      tag_173\n      jump\t// in\n    tag_181:\n        /* \"#utility.yul\":3955:4043   */\n      tag_182\n        /* \"#utility.yul\":4039:4041   */\n      0x40\n        /* \"#utility.yul\":4028:4037   */\n      dup4\n        /* \"#utility.yul\":4024:4042   */\n      add\n        /* \"#utility.yul\":4015:4021   */\n      dup7\n        /* \"#utility.yul\":3955:4043   */\n      tag_151\n      jump\t// in\n    tag_182:\n        /* \"#utility.yul\":4053:4119   */\n      tag_183\n        /* \"#utility.yul\":4115:4117   */\n      0x60\n        /* \"#utility.yul\":4104:4113   */\n      dup4\n        /* \"#utility.yul\":4100:4118   */\n      add\n        /* \"#utility.yul\":4091:4097   */\n      dup6\n        /* \"#utility.yul\":4053:4119   */\n      tag_159\n      jump\t// in\n    tag_183:\n        /* \"#utility.yul\":4129:4202   */\n      tag_184\n        /* \"#utility.yul\":4197:4200   */\n      0x80\n        /* \"#utility.yul\":4186:4195   */\n      dup4\n        /* \"#utility.yul\":4182:4201   */\n      add\n        /* \"#utility.yul\":4173:4179   */\n      dup5\n        /* \"#utility.yul\":4129:4202   */\n      tag_173\n      jump\t// in\n    tag_184:\n        /* \"#utility.yul\":3674:4209   */\n      swap7\n      swap6\n      pop\n      pop\n      pop\n      pop\n      pop\n      pop\n      jump\t// out\n        /* \"#utility.yul\":4215:4437   */\n    tag_25:\n      0x00\n        /* \"#utility.yul\":4346:4348   */\n      0x20\n        /* \"#utility.yul\":4335:4344   */\n      dup3\n        /* \"#utility.yul\":4331:4349   */\n      add\n        /* \"#utility.yul\":4323:4349   */\n      swap1\n      pop\n        /* \"#utility.yul\":4359:4430   */\n      tag_186\n        /* \"#utility.yul\":4427:4428   */\n      0x00\n        /* \"#utility.yul\":4416:4425   */\n      dup4\n        /* \"#utility.yul\":4412:4429   */\n      add\n        /* \"#utility.yul\":4403:4409   */\n      dup5\n        /* \"#utility.yul\":4359:4430   */\n      tag_173\n      jump\t// in\n    tag_186:\n        /* \"#utility.yul\":4313:4437   */\n      swap3\n      swap2\n      pop\n      pop\n      jump\t// out\n        /* \"#utility.yul\":4443:4572   */\n    tag_119:\n      0x00\n        /* \"#utility.yul\":4504:4524   */\n      tag_188\n      tag_189\n      jump\t// in\n    tag_188:\n        /* \"#utility.yul\":4494:4524   */\n      swap1\n      pop\n        /* \"#utility.yul\":4533:4566   */\n      tag_190\n        /* \"#utility.yul\":4561:4565   */\n      dup3\n        /* \"#utility.yul\":4553:4559   */\n      dup3\n        /* \"#utility.yul\":4533:4566   */\n      tag_191\n      jump\t// in\n    tag_190:\n        /* \"#utility.yul\":4484:4572   */\n      swap2\n      swap1\n      pop\n      jump\t// out\n        /* \"#utility.yul\":4578:4653   */\n    tag_189:\n      0x00\n        /* \"#utility.yul\":4644:4646   */\n      0x40\n        /* \"#utility.yul\":4638:4647   */\n      mload\n        /* \"#utility.yul\":4628:4647   */\n      swap1\n      pop\n        /* \"#utility.yul\":4618:4653   */\n      swap1\n      jump\t// out\n        /* \"#utility.yul\":4659:4967   */\n    tag_118:\n      0x00\n        /* \"#utility.yul\":4811:4829   */\n      0xffffffffffffffff\n        /* \"#utility.yul\":4803:4809   */\n      dup3\n        /* \"#utility.yul\":4800:4830   */\n      gt\n        /* \"#utility.yul\":4797:4799   */\n      iszero\n      tag_194\n      jumpi\n        /* \"#utility.yul\":4833:4851   */\n      tag_195\n      tag_196\n      jump\t// in\n    tag_195:\n        /* \"#utility.yul\":4797:4799   */\n    tag_194:\n        /* \"#utility.yul\":4871:4900   */\n      tag_197\n        /* \"#utility.yul\":4893:4899   */\n      dup3\n        /* \"#utility.yul\":4871:4900   */\n      tag_172\n      jump\t// in\n    tag_197:\n        /* \"#utility.yul\":4863:4900   */\n      swap1\n      pop\n        /* \"#utility.yul\":4955:4959   */\n      0x20\n        /* \"#utility.yul\":4949:4953   */\n      dup2\n        /* \"#utility.yul\":4945:4960   */\n      add\n        /* \"#utility.yul\":4937:4960   */\n      swap1\n      pop\n        /* \"#utility.yul\":4726:4967   */\n      swap2\n      swap1\n      pop\n      jump\t// out\n        /* \"#utility.yul\":4973:5072   */\n    tag_166:\n      0x00\n        /* \"#utility.yul\":5059:5064   */\n      dup2\n        /* \"#utility.yul\":5053:5065   */\n      mload\n        /* \"#utility.yul\":5043:5065   */\n      swap1\n      pop\n        /* \"#utility.yul\":5032:5072   */\n      swap2\n      swap1\n      pop\n      jump\t// out\n        /* \"#utility.yul\":5078:5247   */\n    tag_168:\n      0x00\n        /* \"#utility.yul\":5196:5202   */\n      dup3\n        /* \"#utility.yul\":5191:5194   */\n      dup3\n        /* \"#utility.yul\":5184:5203   */\n      mstore\n        /* \"#utility.yul\":5236:5240   */\n      0x20\n        /* \"#utility.yul\":5231:5234   */\n      dup3\n        /* \"#utility.yul\":5227:5241   */\n      add\n        /* \"#utility.yul\":5212:5241   */\n      swap1\n      pop\n        /* \"#utility.yul\":5174:5247   */\n      swap3\n      swap2\n      pop\n      pop\n      jump\t// out\n        /* \"#utility.yul\":5253:5558   */\n    tag_92:\n      0x00\n        /* \"#utility.yul\":5312:5332   */\n      tag_201\n        /* \"#utility.yul\":5330:5331   */\n      dup3\n        /* \"#utility.yul\":5312:5332   */\n      tag_176\n      jump\t// in\n    tag_201:\n        /* \"#utility.yul\":5307:5332   */\n      swap2\n      pop\n        /* \"#utility.yul\":5346:5366   */\n      tag_202\n        /* \"#utility.yul\":5364:5365   */\n      dup4\n        /* \"#utility.yul\":5346:5366   */\n      tag_176\n      jump\t// in\n    tag_202:\n        /* \"#utility.yul\":5341:5366   */\n      swap3\n      pop\n        /* \"#utility.yul\":5500:5501   */\n      dup3\n        /* \"#utility.yul\":5432:5498   */\n      0xffffffffffffffffffffffffffffffffffffffffffffffffffffffffffffffff\n        /* \"#utility.yul\":5428:5502   */\n      sub\n        /* \"#utility.yul\":5425:5426   */\n      dup3\n        /* \"#utility.yul\":5422:5503   */\n      gt\n        /* \"#utility.yul\":5419:5421   */\n      iszero\n      tag_203\n      jumpi\n        /* \"#utility.yul\":5506:5524   */\n      tag_204\n      tag_205\n      jump\t// in\n    tag_204:\n        /* \"#utility.yul\":5419:5421   */\n    tag_203:\n        /* \"#utility.yul\":5550:5551   */\n      dup3\n        /* \"#utility.yul\":5547:5548   */\n      dup3\n        /* \"#utility.yul\":5543:5552   */\n      add\n        /* \"#utility.yul\":5536:5552   */\n      swap1\n      pop\n        /* \"#utility.yul\":5297:5558   */\n      swap3\n      swap2\n      pop\n      pop\n      jump\t// out\n        /* \"#utility.yul\":5564:5749   */\n    tag_68:\n      0x00\n        /* \"#utility.yul\":5621:5641   */\n      tag_207\n        /* \"#utility.yul\":5639:5640   */\n      dup3\n        /* \"#utility.yul\":5621:5641   */\n      tag_176\n      jump\t// in\n    tag_207:\n        /* \"#utility.yul\":5616:5641   */\n      swap2\n      pop\n        /* \"#utility.yul\":5655:5675   */\n      tag_208\n        /* \"#utility.yul\":5673:5674   */\n      dup4\n        /* \"#utility.yul\":5655:5675   */\n      tag_176\n      jump\t// in\n    tag_208:\n        /* \"#utility.yul\":5650:5675   */\n      swap3\n      pop\n        /* \"#utility.yul\":5694:5695   */\n      dup3\n        /* \"#utility.yul\":5684:5686   */\n      tag_209\n      jumpi\n        /* \"#utility.yul\":5699:5717   */\n      tag_210\n      tag_211\n      jump\t// in\n    tag_210:\n        /* \"#utility.yul\":5684:5686   */\n    tag_209:\n        /* \"#utility.yul\":5741:5742   */\n      dup3\n        /* \"#utility.yul\":5738:5739   */\n      dup3\n        /* \"#utility.yul\":5734:5743   */\n      div\n        /* \"#utility.yul\":5729:5743   */\n      swap1\n      pop\n        /* \"#utility.yul\":5606:5749   */\n      swap3\n      swap2\n      pop\n      pop\n      jump\t// out\n        /* \"#utility.yul\":5755:5851   */\n    tag_158:\n      0x00\n        /* \"#utility.yul\":5821:5845   */\n      tag_213\n        /* \"#utility.yul\":5839:5844   */\n      dup3\n        /* \"#utility.yul\":5821:5845   */\n      tag_214\n      jump\t// in\n    tag_213:\n        /* \"#utility.yul\":5810:5845   */\n      swap1\n      pop\n        /* \"#utility.yul\":5800:5851   */\n      swap2\n      swap1\n      pop\n      jump\t// out\n        /* \"#utility.yul\":5857:5961   */\n    tag_154:\n      0x00\n        /* \"#utility.yul\":5931:5955   */\n      tag_216\n        /* \"#utility.yul\":5949:5954   */\n      dup3\n        /* \"#utility.yul\":5931:5955   */\n      tag_214\n      jump\t// in\n    tag_216:\n        /* \"#utility.yul\":5920:5955   */\n      swap1\n      pop\n        /* \"#utility.yul\":5910:5961   */\n      swap2\n      swap1\n      pop\n      jump\t// out\n        /* \"#utility.yul\":5967:6057   */\n    tag_162:\n      0x00\n        /* \"#utility.yul\":6044:6049   */\n      dup2\n        /* \"#utility.yul\":6037:6050   */\n      iszero\n        /* \"#utility.yul\":6030:6051   */\n      iszero\n        /* \"#utility.yul\":6019:6051   */\n      swap1\n      pop\n        /* \"#utility.yul\":6009:6057   */\n      swap2\n      swap1\n      pop\n      jump\t// out\n        /* \"#utility.yul\":6063:6189   */\n    tag_214:\n      0x00\n        /* \"#utility.yul\":6140:6182   */\n      0xffffffffffffffffffffffffffffffffffffffff\n        /* \"#utility.yul\":6133:6138   */\n      dup3\n        /* \"#utility.yul\":6129:6183   */\n      and\n        /* \"#utility.yul\":6118:6183   */\n      swap1\n      pop\n        /* \"#utility.yul\":6108:6189   */\n      swap2\n      swap1\n      pop\n      jump\t// out\n        /* \"#utility.yul\":6195:6272   */\n    tag_176:\n      0x00\n        /* \"#utility.yul\":6261:6266   */\n      dup2\n        /* \"#utility.yul\":6250:6266   */\n      swap1\n      pop\n        /* \"#utility.yul\":6240:6272   */\n      swap2\n      swap1\n      pop\n      jump\t// out\n        /* \"#utility.yul\":6278:6432   */\n    tag_122:\n        /* \"#utility.yul\":6362:6368   */\n      dup3\n        /* \"#utility.yul\":6357:6360   */\n      dup2\n        /* \"#utility.yul\":6352:6355   */\n      dup4\n        /* \"#utility.yul\":6339:6369   */\n      calldatacopy\n        /* \"#utility.yul\":6424:6425   */\n      0x00\n        /* \"#utility.yul\":6415:6421   */\n      dup4\n        /* \"#utility.yul\":6410:6413   */\n      dup4\n        /* \"#utility.yul\":6406:6422   */\n      add\n        /* \"#utility.yul\":6399:6426   */\n      mstore\n        /* \"#utility.yul\":6329:6432   */\n      pop\n      pop\n      pop\n      jump\t// out\n        /* \"#utility.yul\":6438:6745   */\n    tag_170:\n        /* \"#utility.yul\":6506:6507   */\n      0x00\n        /* \"#utility.yul\":6516:6629   */\n    tag_222:\n        /* \"#utility.yul\":6530:6536   */\n      dup4\n        /* \"#utility.yul\":6527:6528   */\n      dup2\n        /* \"#utility.yul\":6524:6537   */\n      lt\n        /* \"#utility.yul\":6516:6629   */\n      iszero\n      tag_224\n      jumpi\n        /* \"#utility.yul\":6615:6616   */\n      dup1\n        /* \"#utility.yul\":6610:6613   */\n      dup3\n        /* \"#utility.yul\":6606:6617   */\n      add\n        /* \"#utility.yul\":6600:6618   */\n      mload\n        /* \"#utility.yul\":6596:6597   */\n      dup2\n        /* \"#utility.yul\":6591:6594   */\n      dup5\n        /* \"#utility.yul\":6587:6598   */\n      add\n        /* \"#utility.yul\":6580:6619   */\n      mstore\n        /* \"#utility.yul\":6552:6554   */\n      0x20\n        /* \"#utility.yul\":6549:6550   */\n      dup2\n        /* \"#utility.yul\":6545:6555   */\n      add\n        /* \"#utility.yul\":6540:6555   */\n      swap1\n      pop\n        /* \"#utility.yul\":6516:6629   */\n      jump(tag_222)\n    tag_224:\n        /* \"#utility.yul\":6647:6653   */\n      dup4\n        /* \"#utility.yul\":6644:6645   */\n      dup2\n        /* \"#utility.yul\":6641:6654   */\n      gt\n        /* \"#utility.yul\":6638:6640   */\n      iszero\n      tag_225\n      jumpi\n        /* \"#utility.yul\":6727:6728   */\n      0x00\n        /* \"#utility.yul\":6718:6724   */\n      dup5\n        /* \"#utility.yul\":6713:6716   */\n      dup5\n        /* \"#utility.yul\":6709:6725   */\n      add\n        /* \"#utility.yul\":6702:6729   */\n      mstore\n        /* \"#utility.yul\":6638:6640   */\n    tag_225:\n        /* \"#utility.yul\":6487:6745   */\n      pop\n      pop\n      pop\n      pop\n      jump\t// out\n        /* \"#utility.yul\":6751:7071   */\n    tag_74:\n      0x00\n        /* \"#utility.yul\":6832:6833   */\n      0x02\n        /* \"#utility.yul\":6826:6830   */\n      dup3\n        /* \"#utility.yul\":6822:6834   */\n      div\n        /* \"#utility.yul\":6812:6834   */\n      swap1\n      pop\n        /* \"#utility.yul\":6879:6880   */\n      0x01\n        /* \"#utility.yul\":6873:6877   */\n      dup3\n        /* \"#utility.yul\":6869:6881   */\n      and\n        /* \"#utility.yul\":6900:6918   */\n      dup1\n        /* \"#utility.yul\":6890:6892   */\n      tag_227\n      jumpi\n        /* \"#utility.yul\":6956:6960   */\n      0x7f\n        /* \"#utility.yul\":6948:6954   */\n      dup3\n        /* \"#utility.yul\":6944:6961   */\n      and\n        /* \"#utility.yul\":6934:6961   */\n      swap2\n      pop\n        /* \"#utility.yul\":6890:6892   */\n    tag_227:\n        /* \"#utility.yul\":7018:7020   */\n      0x20\n        /* \"#utility.yul\":7010:7016   */\n      dup3\n        /* \"#utility.yul\":7007:7021   */\n      lt\n        /* \"#utility.yul\":6987:7005   */\n      dup2\n        /* \"#utility.yul\":6984:7022   */\n      eq\n        /* \"#utility.yul\":6981:6983   */\n      iszero\n      tag_228\n      jumpi\n        /* \"#utility.yul\":7037:7055   */\n      tag_229\n      tag_230\n      jump\t// in\n    tag_229:\n        /* \"#utility.yul\":6981:6983   */\n    tag_228:\n        /* \"#utility.yul\":6802:7071   */\n      pop\n      swap2\n      swap1\n      pop\n      jump\t// out\n        /* \"#utility.yul\":7077:7358   */\n    tag_191:\n        /* \"#utility.yul\":7160:7187   */\n      tag_232\n        /* \"#utility.yul\":7182:7186   */\n      dup3\n        /* \"#utility.yul\":7160:7187   */\n      tag_172\n      jump\t// in\n    tag_232:\n        /* \"#utility.yul\":7152:7158   */\n      dup2\n        /* \"#utility.yul\":7148:7188   */\n      add\n        /* \"#utility.yul\":7290:7296   */\n      dup2\n        /* \"#utility.yul\":7278:7288   */\n      dup2\n        /* \"#utility.yul\":7275:7297   */\n      lt\n        /* \"#utility.yul\":7254:7272   */\n      0xffffffffffffffff\n        /* \"#utility.yul\":7242:7252   */\n      dup3\n        /* \"#utility.yul\":7239:7273   */\n      gt\n        /* \"#utility.yul\":7236:7298   */\n      or\n        /* \"#utility.yul\":7233:7235   */\n      iszero\n      tag_233\n      jumpi\n        /* \"#utility.yul\":7301:7319   */\n      tag_234\n      tag_196\n      jump\t// in\n    tag_234:\n        /* \"#utility.yul\":7233:7235   */\n    tag_233:\n        /* \"#utility.yul\":7341:7351   */\n      dup1\n        /* \"#utility.yul\":7337:7339   */\n      0x40\n        /* \"#utility.yul\":7330:7352   */\n      mstore\n        /* \"#utility.yul\":7120:7358   */\n      pop\n      pop\n      pop\n      jump\t// out\n        /* \"#utility.yul\":7364:7597   */\n    tag_83:\n      0x00\n        /* \"#utility.yul\":7426:7450   */\n      tag_236\n        /* \"#utility.yul\":7444:7449   */\n      dup3\n        /* \"#utility.yul\":7426:7450   */\n      tag_176\n      jump\t// in\n    tag_236:\n        /* \"#utility.yul\":7417:7450   */\n      swap2\n      pop\n        /* \"#utility.yul\":7472:7538   */\n      0xffffffffffffffffffffffffffffffffffffffffffffffffffffffffffffffff\n        /* \"#utility.yul\":7465:7470   */\n      dup3\n        /* \"#utility.yul\":7462:7539   */\n      eq\n        /* \"#utility.yul\":7459:7461   */\n      iszero\n      tag_237\n      jumpi\n        /* \"#utility.yul\":7542:7560   */\n      tag_238\n      tag_205\n      jump\t// in\n    tag_238:\n        /* \"#utility.yul\":7459:7461   */\n    tag_237:\n        /* \"#utility.yul\":7589:7590   */\n      0x01\n        /* \"#utility.yul\":7582:7587   */\n      dup3\n        /* \"#utility.yul\":7578:7591   */\n      add\n        /* \"#utility.yul\":7571:7591   */\n      swap1\n      pop\n        /* \"#utility.yul\":7407:7597   */\n      swap2\n      swap1\n      pop\n      jump\t// out\n        /* \"#utility.yul\":7603:7779   */\n    tag_95:\n      0x00\n        /* \"#utility.yul\":7652:7672   */\n      tag_240\n        /* \"#utility.yul\":7670:7671   */\n      dup3\n        /* \"#utility.yul\":7652:7672   */\n      tag_176\n      jump\t// in\n    tag_240:\n        /* \"#utility.yul\":7647:7672   */\n      swap2\n      pop\n        /* \"#utility.yul\":7686:7706   */\n      tag_241\n        /* \"#utility.yul\":7704:7705   */\n      dup4\n        /* \"#utility.yul\":7686:7706   */\n      tag_176\n      jump\t// in\n    tag_241:\n        /* \"#utility.yul\":7681:7706   */\n      swap3\n      pop\n        /* \"#utility.yul\":7725:7726   */\n      dup3\n        /* \"#utility.yul\":7715:7717   */\n      tag_242\n      jumpi\n        /* \"#utility.yul\":7730:7748   */\n      tag_243\n      tag_211\n      jump\t// in\n    tag_243:\n        /* \"#utility.yul\":7715:7717   */\n    tag_242:\n        /* \"#utility.yul\":7771:7772   */\n      dup3\n        /* \"#utility.yul\":7768:7769   */\n      dup3\n        /* \"#utility.yul\":7764:7773   */\n      mod\n        /* \"#utility.yul\":7759:7773   */\n      swap1\n      pop\n        /* \"#utility.yul\":7637:7779   */\n      swap3\n      swap2\n      pop\n      pop\n      jump\t// out\n        /* \"#utility.yul\":7785:7965   */\n    tag_205:\n        /* \"#utility.yul\":7833:7910   */\n      0x4e487b7100000000000000000000000000000000000000000000000000000000\n        /* \"#utility.yul\":7830:7831   */\n      0x00\n        /* \"#utility.yul\":7823:7911   */\n      mstore\n        /* \"#utility.yul\":7930:7934   */\n      0x11\n        /* \"#utility.yul\":7927:7928   */\n      0x04\n        /* \"#utility.yul\":7920:7935   */\n      mstore\n        /* \"#utility.yul\":7954:7958   */\n      0x24\n        /* \"#utility.yul\":7951:7952   */\n      0x00\n        /* \"#utility.yul\":7944:7959   */\n      revert\n        /* \"#utility.yul\":7971:8151   */\n    tag_211:\n        /* \"#utility.yul\":8019:8096   */\n      0x4e487b7100000000000000000000000000000000000000000000000000000000\n        /* \"#utility.yul\":8016:8017   */\n      0x00\n        /* \"#utility.yul\":8009:8097   */\n      mstore\n        /* \"#utility.yul\":8116:8120   */\n      0x12\n        /* \"#utility.yul\":8113:8114   */\n      0x04\n        /* \"#utility.yul\":8106:8121   */\n      mstore\n        /* \"#utility.yul\":8140:8144   */\n      0x24\n        /* \"#utility.yul\":8137:8138   */\n      0x00\n        /* \"#utility.yul\":8130:8145   */\n      revert\n        /* \"#utility.yul\":8157:8337   */\n    tag_230:\n        /* \"#utility.yul\":8205:8282   */\n      0x4e487b7100000000000000000000000000000000000000000000000000000000\n        /* \"#utility.yul\":8202:8203   */\n      0x00\n        /* \"#utility.yul\":8195:8283   */\n      mstore\n        /* \"#utility.yul\":8302:8306   */\n      0x22\n        /* \"#utility.yul\":8299:8300   */\n      0x04\n        /* \"#utility.yul\":8292:8307   */\n      mstore\n        /* \"#utility.yul\":8326:8330   */\n      0x24\n        /* \"#utility.yul\":8323:8324   */\n      0x00\n        /* \"#utility.yul\":8316:8331   */\n      revert\n        /* \"#utility.yul\":8343:8523   */\n    tag_196:\n        /* \"#utility.yul\":8391:8468   */\n      0x4e487b7100000000000000000000000000000000000000000000000000000000\n        /* \"#utility.yul\":8388:8389   */\n      0x00\n        /* \"#utility.yul\":8381:8469   */\n      mstore\n        /* \"#utility.yul\":8488:8492   */\n      0x41\n        /* \"#utility.yul\":8485:8486   */\n      0x04\n        /* \"#utility.yul\":8478:8493   */\n      mstore\n        /* \"#utility.yul\":8512:8516   */\n      0x24\n        /* \"#utility.yul\":8509:8510   */\n      0x00\n        /* \"#utility.yul\":8502:8517   */\n      revert\n        /* \"#utility.yul\":8529:8631   */\n    tag_172:\n      0x00\n        /* \"#utility.yul\":8621:8623   */\n      0x1f\n        /* \"#utility.yul\":8617:8624   */\n      not\n        /* \"#utility.yul\":8612:8614   */\n      0x1f\n        /* \"#utility.yul\":8605:8610   */\n      dup4\n        /* \"#utility.yul\":8601:8615   */\n      add\n        /* \"#utility.yul\":8597:8625   */\n      and\n        /* \"#utility.yul\":8587:8625   */\n      swap1\n      pop\n        /* \"#utility.yul\":8577:8631   */\n      swap2\n      swap1\n      pop\n      jump\t// out\n        /* \"#utility.yul\":8637:8759   */\n    tag_126:\n        /* \"#utility.yul\":8710:8734   */\n      tag_250\n        /* \"#utility.yul\":8728:8733   */\n      dup2\n        /* \"#utility.yul\":8710:8734   */\n      tag_158\n      jump\t// in\n    tag_250:\n        /* \"#utility.yul\":8703:8708   */\n      dup2\n        /* \"#utility.yul\":8700:8735   */\n      eq\n        /* \"#utility.yul\":8690:8692   */\n      tag_251\n      jumpi\n        /* \"#utility.yul\":8749:8750   */\n      0x00\n        /* \"#utility.yul\":8746:8747   */\n      dup1\n        /* \"#utility.yul\":8739:8751   */\n      revert\n        /* \"#utility.yul\":8690:8692   */\n    tag_251:\n        /* \"#utility.yul\":8680:8759   */\n      pop\n      jump\t// out\n        /* \"#utility.yul\":8765:8903   */\n    tag_130:\n        /* \"#utility.yul\":8846:8878   */\n      tag_253\n        /* \"#utility.yul\":8872:8877   */\n      dup2\n        /* \"#utility.yul\":8846:8878   */\n      tag_154\n      jump\t// in\n    tag_253:\n        /* \"#utility.yul\":8839:8844   */\n      dup2\n        /* \"#utility.yul\":8836:8879   */\n      eq\n        /* \"#utility.yul\":8826:8828   */\n      tag_254\n      jumpi\n        /* \"#utility.yul\":8893:8894   */\n      0x00\n        /* \"#utility.yul\":8890:8891   */\n      dup1\n        /* \"#utility.yul\":8883:8895   */\n      revert\n        /* \"#utility.yul\":8826:8828   */\n    tag_254:\n        /* \"#utility.yul\":8816:8903   */\n      pop\n      jump\t// out\n        /* \"#utility.yul\":8909:9031   */\n    tag_138:\n        /* \"#utility.yul\":8982:9006   */\n      tag_256\n        /* \"#utility.yul\":9000:9005   */\n      dup2\n        /* \"#utility.yul\":8982:9006   */\n      tag_176\n      jump\t// in\n    tag_256:\n        /* \"#utility.yul\":8975:8980   */\n      dup2\n        /* \"#utility.yul\":8972:9007   */\n      eq\n        /* \"#utility.yul\":8962:8964   */\n      tag_257\n      jumpi\n        /* \"#utility.yul\":9021:9022   */\n      0x00\n        /* \"#utility.yul\":9018:9019   */\n      dup1\n        /* \"#utility.yul\":9011:9023   */\n      revert\n        /* \"#utility.yul\":8962:8964   */\n    tag_257:\n        /* \"#utility.yul\":8952:9031   */\n      pop\n      jump\t// out\n\n    auxdata: 0xa264697066735822122019b2fbcdcca7264e38786cdd0e7e99665300c5f187ad1d00456c20c4ef564c4e64736f6c63430008030033\n}\n","bytecode":{"linkReferences":{},"object":"60806040523480156200001157600080fd5b506040516200111a3803806200111a8339818101604052810190620000379190620000b5565b80600260006101000a81548173ffffffffffffffffffffffffffffffffffffffff021916908373ffffffffffffffffffffffffffffffffffffffff16021790555081600581905550505062000168565b600081519050620000988162000134565b92915050565b600081519050620000af816200014e565b92915050565b60008060408385031215620000c957600080fd5b6000620000d9858286016200009e565b9250506020620000ec8582860162000087565b9150509250929050565b600062000103826200010a565b9050919050565b600073ffffffffffffffffffffffffffffffffffffffff82169050919050565b6000819050919050565b6200013f81620000f6565b81146200014b57600080fd5b50565b62000159816200012a565b81146200016557600080fd5b50565b610fa280620001786000396000f3fe60806040526004361061009c5760003560e01c80637554e42f116100645780637554e42f1461018857806381d12c58146101b35780638a9cfd55146101f45780639fb42b1f1461021d578063d7bb99ba14610248578063d7d1bbdb146102525761009c565b806303441006146100a15780630a144391146100ca57806326540fd214610107578063481c6a751461013257806359af7a131461015d575b600080fd5b3480156100ad57600080fd5b506100c860048036038101906100c39190610aba565b61027b565b005b3480156100d657600080fd5b506100f160048036038101906100ec9190610a2a565b6103b6565b6040516100fe9190610bcd565b60405180910390f35b34801561011357600080fd5b5061011c6103ce565b6040516101299190610bcd565b60405180910390f35b34801561013e57600080fd5b506101476103d4565b6040516101549190610b58565b60405180910390f35b34801561016957600080fd5b506101726103fa565b60405161017f9190610bcd565b60405180910390f35b34801561019457600080fd5b5061019d610400565b6040516101aa9190610bcd565b60405180910390f35b3480156101bf57600080fd5b506101da60048036038101906101d59190610aba565b610406565b6040516101eb959493929190610b73565b60405180910390f35b34801561020057600080fd5b5061021b60048036038101906102169190610a53565b6104f1565b005b34801561022957600080fd5b50610232610609565b60405161023f9190610bcd565b60405180910390f35b61025061060f565b005b34801561025e57600080fd5b5061027960048036038101906102749190610aba565b61076c565b005b600260009054906101000a900473ffffffffffffffffffffffffffffffffffffffff1673ffffffffffffffffffffffffffffffffffffffff163373ffffffffffffffffffffffffffffffffffffffff16146102d557600080fd5b600060016000838152602001908152602001600020905060026006546102fb9190610cb0565b81600301541161030a57600080fd5b8060020160149054906101000a900460ff161561032657600080fd5b8060020160009054906101000a900473ffffffffffffffffffffffffffffffffffffffff1673ffffffffffffffffffffffffffffffffffffffff166108fc82600101549081150290604051600060405180830381858888f19350505050158015610394573d6000803e3d6000fd5b5060018160020160146101000a81548160ff0219169083151502179055505050565b60046020528060005260406000206000915090505481565b60065481565b600260009054906101000a900473ffffffffffffffffffffffffffffffffffffffff1681565b60055481565b60035481565b600160205280600052604060002060009150905080600001805461042990610d7d565b80601f016020809104026020016040519081016040528092919081815260200182805461045590610d7d565b80156104a25780601f10610477576101008083540402835291602001916104a2565b820191906000526020600020905b81548152906001019060200180831161048557829003601f168201915b5050505050908060010154908060020160009054906101000a900473ffffffffffffffffffffffffffffffffffffffff16908060020160149054906101000a900460ff16908060030154905085565b600260009054906101000a900473ffffffffffffffffffffffffffffffffffffffff1673ffffffffffffffffffffffffffffffffffffffff163373ffffffffffffffffffffffffffffffffffffffff161461054b57600080fd5b60006001600080600081548092919061056390610de0565b91905055815260200190815260200160002090508381600001908051906020019061058f9291906108e0565b50828160010181905550818160020160006101000a81548173ffffffffffffffffffffffffffffffffffffffff021916908373ffffffffffffffffffffffffffffffffffffffff16021790555060008160020160146101000a81548160ff0219169083151502179055506000816003018190555050505050565b60005481565b60055434101561061e57600080fd5b6000600460003373ffffffffffffffffffffffffffffffffffffffff1673ffffffffffffffffffffffffffffffffffffffff16815260200190815260200160002054141561067f576003600081548092919061067990610de0565b91905055505b60006005543461068f9190610cb0565b905080600460003373ffffffffffffffffffffffffffffffffffffffff1673ffffffffffffffffffffffffffffffffffffffff16815260200190815260200160002060008282546106e09190610c5a565b9250508190555080600660008282546106f99190610c5a565b925050819055506000600554346107109190610e29565b9050600081146107685760003390508073ffffffffffffffffffffffffffffffffffffffff166108fc839081150290604051600060405180830381858888f19350505050158015610765573d6000803e3d6000fd5b50505b5050565b60006001600083815260200190815260200160002090506000600460003373ffffffffffffffffffffffffffffffffffffffff1673ffffffffffffffffffffffffffffffffffffffff16815260200190815260200160002054116107cf57600080fd5b8060040160003373ffffffffffffffffffffffffffffffffffffffff1673ffffffffffffffffffffffffffffffffffffffff16815260200190815260200160002060009054906101000a900460ff161561082857600080fd5b60018160040160003373ffffffffffffffffffffffffffffffffffffffff1673ffffffffffffffffffffffffffffffffffffffff16815260200190815260200160002060006101000a81548160ff021916908315150217905550600460003373ffffffffffffffffffffffffffffffffffffffff1673ffffffffffffffffffffffffffffffffffffffff168152602001908152602001600020548160030160008282546108d59190610c5a565b925050819055505050565b8280546108ec90610d7d565b90600052602060002090601f01602090048101928261090e5760008555610955565b82601f1061092757805160ff1916838001178555610955565b82800160010185558215610955579182015b82811115610954578251825591602001919060010190610939565b5b5090506109629190610966565b5090565b5b8082111561097f576000816000905550600101610967565b5090565b600061099661099184610c0d565b610be8565b9050828152602081018484840111156109ae57600080fd5b6109b9848285610d3b565b509392505050565b6000813590506109d081610f27565b92915050565b6000813590506109e581610f3e565b92915050565b600082601f8301126109fc57600080fd5b8135610a0c848260208601610983565b91505092915050565b600081359050610a2481610f55565b92915050565b600060208284031215610a3c57600080fd5b6000610a4a848285016109c1565b91505092915050565b600080600060608486031215610a6857600080fd5b600084013567ffffffffffffffff811115610a8257600080fd5b610a8e868287016109eb565b9350506020610a9f86828701610a15565b9250506040610ab0868287016109d6565b9150509250925092565b600060208284031215610acc57600080fd5b6000610ada84828501610a15565b91505092915050565b610aec81610cf3565b82525050565b610afb81610ce1565b82525050565b610b0a81610d05565b82525050565b6000610b1b82610c3e565b610b258185610c49565b9350610b35818560208601610d4a565b610b3e81610f16565b840191505092915050565b610b5281610d31565b82525050565b6000602082019050610b6d6000830184610af2565b92915050565b600060a0820190508181036000830152610b8d8188610b10565b9050610b9c6020830187610b49565b610ba96040830186610ae3565b610bb66060830185610b01565b610bc36080830184610b49565b9695505050505050565b6000602082019050610be26000830184610b49565b92915050565b6000610bf2610c03565b9050610bfe8282610daf565b919050565b6000604051905090565b600067ffffffffffffffff821115610c2857610c27610ee7565b5b610c3182610f16565b9050602081019050919050565b600081519050919050565b600082825260208201905092915050565b6000610c6582610d31565b9150610c7083610d31565b9250827fffffffffffffffffffffffffffffffffffffffffffffffffffffffffffffffff03821115610ca557610ca4610e5a565b5b828201905092915050565b6000610cbb82610d31565b9150610cc683610d31565b925082610cd657610cd5610e89565b5b828204905092915050565b6000610cec82610d11565b9050919050565b6000610cfe82610d11565b9050919050565b60008115159050919050565b600073ffffffffffffffffffffffffffffffffffffffff82169050919050565b6000819050919050565b82818337600083830152505050565b60005b83811015610d68578082015181840152602081019050610d4d565b83811115610d77576000848401525b50505050565b60006002820490506001821680610d9557607f821691505b60208210811415610da957610da8610eb8565b5b50919050565b610db882610f16565b810181811067ffffffffffffffff82111715610dd757610dd6610ee7565b5b80604052505050565b6000610deb82610d31565b91507fffffffffffffffffffffffffffffffffffffffffffffffffffffffffffffffff821415610e1e57610e1d610e5a565b5b600182019050919050565b6000610e3482610d31565b9150610e3f83610d31565b925082610e4f57610e4e610e89565b5b828206905092915050565b7f4e487b7100000000000000000000000000000000000000000000000000000000600052601160045260246000fd5b7f4e487b7100000000000000000000000000000000000000000000000000000000600052601260045260246000fd5b7f4e487b7100000000000000000000000000000000000000000000000000000000600052602260045260246000fd5b7f4e487b7100000000000000000000000000000000000000000000000000000000600052604160045260246000fd5b6000601f19601f8301169050919050565b610f3081610ce1565b8114610f3b57600080fd5b50565b610f4781610cf3565b8114610f5257600080fd5b50565b610f5e81610d31565b8114610f6957600080fd5b5056fea264697066735822122019b2fbcdcca7264e38786cdd0e7e99665300c5f187ad1d00456c20c4ef564c4e64736f6c63430008030033","opcodes":"PUSH1 0x80 PUSH1 0x40 MSTORE CALLVALUE DUP1 ISZERO PUSH3 0x11 JUMPI PUSH1 0x0 DUP1 REVERT JUMPDEST POP PUSH1 0x40 MLOAD PUSH3 0x111A CODESIZE SUB DUP1 PUSH3 0x111A DUP4 CODECOPY DUP2 DUP2 ADD PUSH1 0x40 MSTORE DUP2 ADD SWAP1 PUSH3 0x37 SWAP2 SWAP1 PUSH3 0xB5 JUMP JUMPDEST DUP1 PUSH1 0x2 PUSH1 0x0 PUSH2 0x100 EXP DUP2 SLOAD DUP2 PUSH20 0xFFFFFFFFFFFFFFFFFFFFFFFFFFFFFFFFFFFFFFFF MUL NOT AND SWAP1 DUP4 PUSH20 0xFFFFFFFFFFFFFFFFFFFFFFFFFFFFFFFFFFFFFFFF AND MUL OR SWAP1 SSTORE POP DUP2 PUSH1 0x5 DUP2 SWAP1 SSTORE POP POP POP PUSH3 0x168 JUMP JUMPDEST PUSH1 0x0 DUP2 MLOAD SWAP1 POP PUSH3 0x98 DUP2 PUSH3 0x134 JUMP JUMPDEST SWAP3 SWAP2 POP POP JUMP JUMPDEST PUSH1 0x0 DUP2 MLOAD SWAP1 POP PUSH3 0xAF DUP2 PUSH3 0x14E JUMP JUMPDEST SWAP3 SWAP2 POP POP JUMP JUMPDEST PUSH1 0x0 DUP1 PUSH1 0x40 DUP4 DUP6 SUB SLT ISZERO PUSH3 0xC9 JUMPI PUSH1 0x0 DUP1 REVERT JUMPDEST PUSH1 0x0 PUSH3 0xD9 DUP6 DUP3 DUP7 ADD PUSH3 0x9E JUMP JUMPDEST SWAP3 POP POP PUSH1 0x20 PUSH3 0xEC DUP6 DUP3 DUP7 ADD PUSH3 0x87 JUMP JUMPDEST SWAP2 POP POP SWAP3 POP SWAP3 SWAP1 POP JUMP JUMPDEST PUSH1 0x0 PUSH3 0x103 DUP3 PUSH3 0x10A JUMP JUMPDEST SWAP1 POP SWAP2 SWAP1 POP JUMP JUMPDEST PUSH1 0x0 PUSH20 0xFFFFFFFFFFFFFFFFFFFFFFFFFFFFFFFFFFFFFFFF DUP3 AND SWAP1 POP SWAP2 SWAP1 POP JUMP JUMPDEST PUSH1 0x0 DUP2 SWAP1 POP SWAP2 SWAP1 POP JUMP JUMPDEST PUSH3 0x13F DUP2 PUSH3 0xF6 JUMP JUMPDEST DUP2 EQ PUSH3 0x14B JUMPI PUSH1 0x0 DUP1 REVERT JUMPDEST POP JUMP JUMPDEST PUSH3 0x159 DUP2 PUSH3 0x12A JUMP JUMPDEST DUP2 EQ PUSH3 0x165 JUMPI PUSH1 0x0 DUP1 REVERT JUMPDEST POP JUMP JUMPDEST PUSH2 0xFA2 DUP1 PUSH3 0x178 PUSH1 0x0 CODECOPY PUSH1 0x0 RETURN INVALID PUSH1 0x80 PUSH1 0x40 MSTORE PUSH1 0x4 CALLDATASIZE LT PUSH2 0x9C JUMPI PUSH1 0x0 CALLDATALOAD PUSH1 0xE0 SHR DUP1 PUSH4 0x7554E42F GT PUSH2 0x64 JUMPI DUP1 PUSH4 0x7554E42F EQ PUSH2 0x188 JUMPI DUP1 PUSH4 0x81D12C58 EQ PUSH2 0x1B3 JUMPI DUP1 PUSH4 0x8A9CFD55 EQ PUSH2 0x1F4 JUMPI DUP1 PUSH4 0x9FB42B1F EQ PUSH2 0x21D JUMPI DUP1 PUSH4 0xD7BB99BA EQ PUSH2 0x248 JUMPI DUP1 PUSH4 0xD7D1BBDB EQ PUSH2 0x252 JUMPI PUSH2 0x9C JUMP JUMPDEST DUP1 PUSH4 0x3441006 EQ PUSH2 0xA1 JUMPI DUP1 PUSH4 0xA144391 EQ PUSH2 0xCA JUMPI DUP1 PUSH4 0x26540FD2 EQ PUSH2 0x107 JUMPI DUP1 PUSH4 0x481C6A75 EQ PUSH2 0x132 JUMPI DUP1 PUSH4 0x59AF7A13 EQ PUSH2 0x15D JUMPI JUMPDEST PUSH1 0x0 DUP1 REVERT JUMPDEST CALLVALUE DUP1 ISZERO PUSH2 0xAD JUMPI PUSH1 0x0 DUP1 REVERT JUMPDEST POP PUSH2 0xC8 PUSH1 0x4 DUP1 CALLDATASIZE SUB DUP2 ADD SWAP1 PUSH2 0xC3 SWAP2 SWAP1 PUSH2 0xABA JUMP JUMPDEST PUSH2 0x27B JUMP JUMPDEST STOP JUMPDEST CALLVALUE DUP1 ISZERO PUSH2 0xD6 JUMPI PUSH1 0x0 DUP1 REVERT JUMPDEST POP PUSH2 0xF1 PUSH1 0x4 DUP1 CALLDATASIZE SUB DUP2 ADD SWAP1 PUSH2 0xEC SWAP2 SWAP1 PUSH2 0xA2A JUMP JUMPDEST PUSH2 0x3B6 JUMP JUMPDEST PUSH1 0x40 MLOAD PUSH2 0xFE SWAP2 SWAP1 PUSH2 0xBCD JUMP JUMPDEST PUSH1 0x40 MLOAD DUP1 SWAP2 SUB SWAP1 RETURN JUMPDEST CALLVALUE DUP1 ISZERO PUSH2 0x113 JUMPI PUSH1 0x0 DUP1 REVERT JUMPDEST POP PUSH2 0x11C PUSH2 0x3CE JUMP JUMPDEST PUSH1 0x40 MLOAD PUSH2 0x129 SWAP2 SWAP1 PUSH2 0xBCD JUMP JUMPDEST PUSH1 0x40 MLOAD DUP1 SWAP2 SUB SWAP1 RETURN JUMPDEST CALLVALUE DUP1 ISZERO PUSH2 0x13E JUMPI PUSH1 0x0 DUP1 REVERT JUMPDEST POP PUSH2 0x147 PUSH2 0x3D4 JUMP JUMPDEST PUSH1 0x40 MLOAD PUSH2 0x154 SWAP2 SWAP1 PUSH2 0xB58 JUMP JUMPDEST PUSH1 0x40 MLOAD DUP1 SWAP2 SUB SWAP1 RETURN JUMPDEST CALLVALUE DUP1 ISZERO PUSH2 0x169 JUMPI PUSH1 0x0 DUP1 REVERT JUMPDEST POP PUSH2 0x172 PUSH2 0x3FA JUMP JUMPDEST PUSH1 0x40 MLOAD PUSH2 0x17F SWAP2 SWAP1 PUSH2 0xBCD JUMP JUMPDEST PUSH1 0x40 MLOAD DUP1 SWAP2 SUB SWAP1 RETURN JUMPDEST CALLVALUE DUP1 ISZERO PUSH2 0x194 JUMPI PUSH1 0x0 DUP1 REVERT JUMPDEST POP PUSH2 0x19D PUSH2 0x400 JUMP JUMPDEST PUSH1 0x40 MLOAD PUSH2 0x1AA SWAP2 SWAP1 PUSH2 0xBCD JUMP JUMPDEST PUSH1 0x40 MLOAD DUP1 SWAP2 SUB SWAP1 RETURN JUMPDEST CALLVALUE DUP1 ISZERO PUSH2 0x1BF JUMPI PUSH1 0x0 DUP1 REVERT JUMPDEST POP PUSH2 0x1DA PUSH1 0x4 DUP1 CALLDATASIZE SUB DUP2 ADD SWAP1 PUSH2 0x1D5 SWAP2 SWAP1 PUSH2 0xABA JUMP JUMPDEST PUSH2 0x406 JUMP JUMPDEST PUSH1 0x40 MLOAD PUSH2 0x1EB SWAP6 SWAP5 SWAP4 SWAP3 SWAP2 SWAP1 PUSH2 0xB73 JUMP JUMPDEST PUSH1 0x40 MLOAD DUP1 SWAP2 SUB SWAP1 RETURN JUMPDEST CALLVALUE DUP1 ISZERO PUSH2 0x200 JUMPI PUSH1 0x0 DUP1 REVERT JUMPDEST POP PUSH2 0x21B PUSH1 0x4 DUP1 CALLDATASIZE SUB DUP2 ADD SWAP1 PUSH2 0x216 SWAP2 SWAP1 PUSH2 0xA53 JUMP JUMPDEST PUSH2 0x4F1 JUMP JUMPDEST STOP JUMPDEST CALLVALUE DUP1 ISZERO PUSH2 0x229 JUMPI PUSH1 0x0 DUP1 REVERT JUMPDEST POP PUSH2 0x232 PUSH2 0x609 JUMP JUMPDEST PUSH1 0x40 MLOAD PUSH2 0x23F SWAP2 SWAP1 PUSH2 0xBCD JUMP JUMPDEST PUSH1 0x40 MLOAD DUP1 SWAP2 SUB SWAP1 RETURN JUMPDEST PUSH2 0x250 PUSH2 0x60F JUMP JUMPDEST STOP JUMPDEST CALLVALUE DUP1 ISZERO PUSH2 0x25E JUMPI PUSH1 0x0 DUP1 REVERT JUMPDEST POP PUSH2 0x279 PUSH1 0x4 DUP1 CALLDATASIZE SUB DUP2 ADD SWAP1 PUSH2 0x274 SWAP2 SWAP1 PUSH2 0xABA JUMP JUMPDEST PUSH2 0x76C JUMP JUMPDEST STOP JUMPDEST PUSH1 0x2 PUSH1 0x0 SWAP1 SLOAD SWAP1 PUSH2 0x100 EXP SWAP1 DIV PUSH20 0xFFFFFFFFFFFFFFFFFFFFFFFFFFFFFFFFFFFFFFFF AND PUSH20 0xFFFFFFFFFFFFFFFFFFFFFFFFFFFFFFFFFFFFFFFF AND CALLER PUSH20 0xFFFFFFFFFFFFFFFFFFFFFFFFFFFFFFFFFFFFFFFF AND EQ PUSH2 0x2D5 JUMPI PUSH1 0x0 DUP1 REVERT JUMPDEST PUSH1 0x0 PUSH1 0x1 PUSH1 0x0 DUP4 DUP2 MSTORE PUSH1 0x20 ADD SWAP1 DUP2 MSTORE PUSH1 0x20 ADD PUSH1 0x0 KECCAK256 SWAP1 POP PUSH1 0x2 PUSH1 0x6 SLOAD PUSH2 0x2FB SWAP2 SWAP1 PUSH2 0xCB0 JUMP JUMPDEST DUP2 PUSH1 0x3 ADD SLOAD GT PUSH2 0x30A JUMPI PUSH1 0x0 DUP1 REVERT JUMPDEST DUP1 PUSH1 0x2 ADD PUSH1 0x14 SWAP1 SLOAD SWAP1 PUSH2 0x100 EXP SWAP1 DIV PUSH1 0xFF AND ISZERO PUSH2 0x326 JUMPI PUSH1 0x0 DUP1 REVERT JUMPDEST DUP1 PUSH1 0x2 ADD PUSH1 0x0 SWAP1 SLOAD SWAP1 PUSH2 0x100 EXP SWAP1 DIV PUSH20 0xFFFFFFFFFFFFFFFFFFFFFFFFFFFFFFFFFFFFFFFF AND PUSH20 0xFFFFFFFFFFFFFFFFFFFFFFFFFFFFFFFFFFFFFFFF AND PUSH2 0x8FC DUP3 PUSH1 0x1 ADD SLOAD SWAP1 DUP2 ISZERO MUL SWAP1 PUSH1 0x40 MLOAD PUSH1 0x0 PUSH1 0x40 MLOAD DUP1 DUP4 SUB DUP2 DUP6 DUP9 DUP9 CALL SWAP4 POP POP POP POP ISZERO DUP1 ISZERO PUSH2 0x394 JUMPI RETURNDATASIZE PUSH1 0x0 DUP1 RETURNDATACOPY RETURNDATASIZE PUSH1 0x0 REVERT JUMPDEST POP PUSH1 0x1 DUP2 PUSH1 0x2 ADD PUSH1 0x14 PUSH2 0x100 EXP DUP2 SLOAD DUP2 PUSH1 0xFF MUL NOT AND SWAP1 DUP4 ISZERO ISZERO MUL OR SWAP1 SSTORE POP POP POP JUMP JUMPDEST PUSH1 0x4 PUSH1 0x20 MSTORE DUP1 PUSH1 0x0 MSTORE PUSH1 0x40 PUSH1 0x0 KECCAK256 PUSH1 0x0 SWAP2 POP SWAP1 POP SLOAD DUP2 JUMP JUMPDEST PUSH1 0x6 SLOAD DUP2 JUMP JUMPDEST PUSH1 0x2 PUSH1 0x0 SWAP1 SLOAD SWAP1 PUSH2 0x100 EXP SWAP1 DIV PUSH20 0xFFFFFFFFFFFFFFFFFFFFFFFFFFFFFFFFFFFFFFFF AND DUP2 JUMP JUMPDEST PUSH1 0x5 SLOAD DUP2 JUMP JUMPDEST PUSH1 0x3 SLOAD DUP2 JUMP JUMPDEST PUSH1 0x1 PUSH1 0x20 MSTORE DUP1 PUSH1 0x0 MSTORE PUSH1 0x40 PUSH1 0x0 KECCAK256 PUSH1 0x0 SWAP2 POP SWAP1 POP DUP1 PUSH1 0x0 ADD DUP1 SLOAD PUSH2 0x429 SWAP1 PUSH2 0xD7D JUMP JUMPDEST DUP1 PUSH1 0x1F ADD PUSH1 0x20 DUP1 SWAP2 DIV MUL PUSH1 0x20 ADD PUSH1 0x40 MLOAD SWAP1 DUP2 ADD PUSH1 0x40 MSTORE DUP1 SWAP3 SWAP2 SWAP1 DUP2 DUP2 MSTORE PUSH1 0x20 ADD DUP3 DUP1 SLOAD PUSH2 0x455 SWAP1 PUSH2 0xD7D JUMP JUMPDEST DUP1 ISZERO PUSH2 0x4A2 JUMPI DUP1 PUSH1 0x1F LT PUSH2 0x477 JUMPI PUSH2 0x100 DUP1 DUP4 SLOAD DIV MUL DUP4 MSTORE SWAP2 PUSH1 0x20 ADD SWAP2 PUSH2 0x4A2 JUMP JUMPDEST DUP3 ADD SWAP2 SWAP1 PUSH1 0x0 MSTORE PUSH1 0x20 PUSH1 0x0 KECCAK256 SWAP1 JUMPDEST DUP2 SLOAD DUP2 MSTORE SWAP1 PUSH1 0x1 ADD SWAP1 PUSH1 0x20 ADD DUP1 DUP4 GT PUSH2 0x485 JUMPI DUP3 SWAP1 SUB PUSH1 0x1F AND DUP3 ADD SWAP2 JUMPDEST POP POP POP POP POP SWAP1 DUP1 PUSH1 0x1 ADD SLOAD SWAP1 DUP1 PUSH1 0x2 ADD PUSH1 0x0 SWAP1 SLOAD SWAP1 PUSH2 0x100 EXP SWAP1 DIV PUSH20 0xFFFFFFFFFFFFFFFFFFFFFFFFFFFFFFFFFFFFFFFF AND SWAP1 DUP1 PUSH1 0x2 ADD PUSH1 0x14 SWAP1 SLOAD SWAP1 PUSH2 0x100 EXP SWAP1 DIV PUSH1 0xFF AND SWAP1 DUP1 PUSH1 0x3 ADD SLOAD SWAP1 POP DUP6 JUMP JUMPDEST PUSH1 0x2 PUSH1 0x0 SWAP1 SLOAD SWAP1 PUSH2 0x100 EXP SWAP1 DIV PUSH20 0xFFFFFFFFFFFFFFFFFFFFFFFFFFFFFFFFFFFFFFFF AND PUSH20 0xFFFFFFFFFFFFFFFFFFFFFFFFFFFFFFFFFFFFFFFF AND CALLER PUSH20 0xFFFFFFFFFFFFFFFFFFFFFFFFFFFFFFFFFFFFFFFF AND EQ PUSH2 0x54B JUMPI PUSH1 0x0 DUP1 REVERT JUMPDEST PUSH1 0x0 PUSH1 0x1 PUSH1 0x0 DUP1 PUSH1 0x0 DUP2 SLOAD DUP1 SWAP3 SWAP2 SWAP1 PUSH2 0x563 SWAP1 PUSH2 0xDE0 JUMP JUMPDEST SWAP2 SWAP1 POP SSTORE DUP2 MSTORE PUSH1 0x20 ADD SWAP1 DUP2 MSTORE PUSH1 0x20 ADD PUSH1 0x0 KECCAK256 SWAP1 POP DUP4 DUP2 PUSH1 0x0 ADD SWAP1 DUP1 MLOAD SWAP1 PUSH1 0x20 ADD SWAP1 PUSH2 0x58F SWAP3 SWAP2 SWAP1 PUSH2 0x8E0 JUMP JUMPDEST POP DUP3 DUP2 PUSH1 0x1 ADD DUP2 SWAP1 SSTORE POP DUP2 DUP2 PUSH1 0x2 ADD PUSH1 0x0 PUSH2 0x100 EXP DUP2 SLOAD DUP2 PUSH20 0xFFFFFFFFFFFFFFFFFFFFFFFFFFFFFFFFFFFFFFFF MUL NOT AND SWAP1 DUP4 PUSH20 0xFFFFFFFFFFFFFFFFFFFFFFFFFFFFFFFFFFFFFFFF AND MUL OR SWAP1 SSTORE POP PUSH1 0x0 DUP2 PUSH1 0x2 ADD PUSH1 0x14 PUSH2 0x100 EXP DUP2 SLOAD DUP2 PUSH1 0xFF MUL NOT AND SWAP1 DUP4 ISZERO ISZERO MUL OR SWAP1 SSTORE POP PUSH1 0x0 DUP2 PUSH1 0x3 ADD DUP2 SWAP1 SSTORE POP POP POP POP POP JUMP JUMPDEST PUSH1 0x0 SLOAD DUP2 JUMP JUMPDEST PUSH1 0x5 SLOAD CALLVALUE LT ISZERO PUSH2 0x61E JUMPI PUSH1 0x0 DUP1 REVERT JUMPDEST PUSH1 0x0 PUSH1 0x4 PUSH1 0x0 CALLER PUSH20 0xFFFFFFFFFFFFFFFFFFFFFFFFFFFFFFFFFFFFFFFF AND PUSH20 0xFFFFFFFFFFFFFFFFFFFFFFFFFFFFFFFFFFFFFFFF AND DUP2 MSTORE PUSH1 0x20 ADD SWAP1 DUP2 MSTORE PUSH1 0x20 ADD PUSH1 0x0 KECCAK256 SLOAD EQ ISZERO PUSH2 0x67F JUMPI PUSH1 0x3 PUSH1 0x0 DUP2 SLOAD DUP1 SWAP3 SWAP2 SWAP1 PUSH2 0x679 SWAP1 PUSH2 0xDE0 JUMP JUMPDEST SWAP2 SWAP1 POP SSTORE POP JUMPDEST PUSH1 0x0 PUSH1 0x5 SLOAD CALLVALUE PUSH2 0x68F SWAP2 SWAP1 PUSH2 0xCB0 JUMP JUMPDEST SWAP1 POP DUP1 PUSH1 0x4 PUSH1 0x0 CALLER PUSH20 0xFFFFFFFFFFFFFFFFFFFFFFFFFFFFFFFFFFFFFFFF AND PUSH20 0xFFFFFFFFFFFFFFFFFFFFFFFFFFFFFFFFFFFFFFFF AND DUP2 MSTORE PUSH1 0x20 ADD SWAP1 DUP2 MSTORE PUSH1 0x20 ADD PUSH1 0x0 KECCAK256 PUSH1 0x0 DUP3 DUP3 SLOAD PUSH2 0x6E0 SWAP2 SWAP1 PUSH2 0xC5A JUMP JUMPDEST SWAP3 POP POP DUP2 SWAP1 SSTORE POP DUP1 PUSH1 0x6 PUSH1 0x0 DUP3 DUP3 SLOAD PUSH2 0x6F9 SWAP2 SWAP1 PUSH2 0xC5A JUMP JUMPDEST SWAP3 POP POP DUP2 SWAP1 SSTORE POP PUSH1 0x0 PUSH1 0x5 SLOAD CALLVALUE PUSH2 0x710 SWAP2 SWAP1 PUSH2 0xE29 JUMP JUMPDEST SWAP1 POP PUSH1 0x0 DUP2 EQ PUSH2 0x768 JUMPI PUSH1 0x0 CALLER SWAP1 POP DUP1 PUSH20 0xFFFFFFFFFFFFFFFFFFFFFFFFFFFFFFFFFFFFFFFF AND PUSH2 0x8FC DUP4 SWAP1 DUP2 ISZERO MUL SWAP1 PUSH1 0x40 MLOAD PUSH1 0x0 PUSH1 0x40 MLOAD DUP1 DUP4 SUB DUP2 DUP6 DUP9 DUP9 CALL SWAP4 POP POP POP POP ISZERO DUP1 ISZERO PUSH2 0x765 JUMPI RETURNDATASIZE PUSH1 0x0 DUP1 RETURNDATACOPY RETURNDATASIZE PUSH1 0x0 REVERT JUMPDEST POP POP JUMPDEST POP POP JUMP JUMPDEST PUSH1 0x0 PUSH1 0x1 PUSH1 0x0 DUP4 DUP2 MSTORE PUSH1 0x20 ADD SWAP1 DUP2 MSTORE PUSH1 0x20 ADD PUSH1 0x0 KECCAK256 SWAP1 POP PUSH1 0x0 PUSH1 0x4 PUSH1 0x0 CALLER PUSH20 0xFFFFFFFFFFFFFFFFFFFFFFFFFFFFFFFFFFFFFFFF AND PUSH20 0xFFFFFFFFFFFFFFFFFFFFFFFFFFFFFFFFFFFFFFFF AND DUP2 MSTORE PUSH1 0x20 ADD SWAP1 DUP2 MSTORE PUSH1 0x20 ADD PUSH1 0x0 KECCAK256 SLOAD GT PUSH2 0x7CF JUMPI PUSH1 0x0 DUP1 REVERT JUMPDEST DUP1 PUSH1 0x4 ADD PUSH1 0x0 CALLER PUSH20 0xFFFFFFFFFFFFFFFFFFFFFFFFFFFFFFFFFFFFFFFF AND PUSH20 0xFFFFFFFFFFFFFFFFFFFFFFFFFFFFFFFFFFFFFFFF AND DUP2 MSTORE PUSH1 0x20 ADD SWAP1 DUP2 MSTORE PUSH1 0x20 ADD PUSH1 0x0 KECCAK256 PUSH1 0x0 SWAP1 SLOAD SWAP1 PUSH2 0x100 EXP SWAP1 DIV PUSH1 0xFF AND ISZERO PUSH2 0x828 JUMPI PUSH1 0x0 DUP1 REVERT JUMPDEST PUSH1 0x1 DUP2 PUSH1 0x4 ADD PUSH1 0x0 CALLER PUSH20 0xFFFFFFFFFFFFFFFFFFFFFFFFFFFFFFFFFFFFFFFF AND PUSH20 0xFFFFFFFFFFFFFFFFFFFFFFFFFFFFFFFFFFFFFFFF AND DUP2 MSTORE PUSH1 0x20 ADD SWAP1 DUP2 MSTORE PUSH1 0x20 ADD PUSH1 0x0 KECCAK256 PUSH1 0x0 PUSH2 0x100 EXP DUP2 SLOAD DUP2 PUSH1 0xFF MUL NOT AND SWAP1 DUP4 ISZERO ISZERO MUL OR SWAP1 SSTORE POP PUSH1 0x4 PUSH1 0x0 CALLER PUSH20 0xFFFFFFFFFFFFFFFFFFFFFFFFFFFFFFFFFFFFFFFF AND PUSH20 0xFFFFFFFFFFFFFFFFFFFFFFFFFFFFFFFFFFFFFFFF AND DUP2 MSTORE PUSH1 0x20 ADD SWAP1 DUP2 MSTORE PUSH1 0x20 ADD PUSH1 0x0 KECCAK256 SLOAD DUP2 PUSH1 0x3 ADD PUSH1 0x0 DUP3 DUP3 SLOAD PUSH2 0x8D5 SWAP2 SWAP1 PUSH2 0xC5A JUMP JUMPDEST SWAP3 POP POP DUP2 SWAP1 SSTORE POP POP POP JUMP JUMPDEST DUP3 DUP1 SLOAD PUSH2 0x8EC SWAP1 PUSH2 0xD7D JUMP JUMPDEST SWAP1 PUSH1 0x0 MSTORE PUSH1 0x20 PUSH1 0x0 KECCAK256 SWAP1 PUSH1 0x1F ADD PUSH1 0x20 SWAP1 DIV DUP2 ADD SWAP3 DUP3 PUSH2 0x90E JUMPI PUSH1 0x0 DUP6 SSTORE PUSH2 0x955 JUMP JUMPDEST DUP3 PUSH1 0x1F LT PUSH2 0x927 JUMPI DUP1 MLOAD PUSH1 0xFF NOT AND DUP4 DUP1 ADD OR DUP6 SSTORE PUSH2 0x955 JUMP JUMPDEST DUP3 DUP1 ADD PUSH1 0x1 ADD DUP6 SSTORE DUP3 ISZERO PUSH2 0x955 JUMPI SWAP2 DUP3 ADD JUMPDEST DUP3 DUP2 GT ISZERO PUSH2 0x954 JUMPI DUP3 MLOAD DUP3 SSTORE SWAP2 PUSH1 0x20 ADD SWAP2 SWAP1 PUSH1 0x1 ADD SWAP1 PUSH2 0x939 JUMP JUMPDEST JUMPDEST POP SWAP1 POP PUSH2 0x962 SWAP2 SWAP1 PUSH2 0x966 JUMP JUMPDEST POP SWAP1 JUMP JUMPDEST JUMPDEST DUP1 DUP3 GT ISZERO PUSH2 0x97F JUMPI PUSH1 0x0 DUP2 PUSH1 0x0 SWAP1 SSTORE POP PUSH1 0x1 ADD PUSH2 0x967 JUMP JUMPDEST POP SWAP1 JUMP JUMPDEST PUSH1 0x0 PUSH2 0x996 PUSH2 0x991 DUP5 PUSH2 0xC0D JUMP JUMPDEST PUSH2 0xBE8 JUMP JUMPDEST SWAP1 POP DUP3 DUP2 MSTORE PUSH1 0x20 DUP2 ADD DUP5 DUP5 DUP5 ADD GT ISZERO PUSH2 0x9AE JUMPI PUSH1 0x0 DUP1 REVERT JUMPDEST PUSH2 0x9B9 DUP5 DUP3 DUP6 PUSH2 0xD3B JUMP JUMPDEST POP SWAP4 SWAP3 POP POP POP JUMP JUMPDEST PUSH1 0x0 DUP2 CALLDATALOAD SWAP1 POP PUSH2 0x9D0 DUP2 PUSH2 0xF27 JUMP JUMPDEST SWAP3 SWAP2 POP POP JUMP JUMPDEST PUSH1 0x0 DUP2 CALLDATALOAD SWAP1 POP PUSH2 0x9E5 DUP2 PUSH2 0xF3E JUMP JUMPDEST SWAP3 SWAP2 POP POP JUMP JUMPDEST PUSH1 0x0 DUP3 PUSH1 0x1F DUP4 ADD SLT PUSH2 0x9FC JUMPI PUSH1 0x0 DUP1 REVERT JUMPDEST DUP2 CALLDATALOAD PUSH2 0xA0C DUP5 DUP3 PUSH1 0x20 DUP7 ADD PUSH2 0x983 JUMP JUMPDEST SWAP2 POP POP SWAP3 SWAP2 POP POP JUMP JUMPDEST PUSH1 0x0 DUP2 CALLDATALOAD SWAP1 POP PUSH2 0xA24 DUP2 PUSH2 0xF55 JUMP JUMPDEST SWAP3 SWAP2 POP POP JUMP JUMPDEST PUSH1 0x0 PUSH1 0x20 DUP3 DUP5 SUB SLT ISZERO PUSH2 0xA3C JUMPI PUSH1 0x0 DUP1 REVERT JUMPDEST PUSH1 0x0 PUSH2 0xA4A DUP5 DUP3 DUP6 ADD PUSH2 0x9C1 JUMP JUMPDEST SWAP2 POP POP SWAP3 SWAP2 POP POP JUMP JUMPDEST PUSH1 0x0 DUP1 PUSH1 0x0 PUSH1 0x60 DUP5 DUP7 SUB SLT ISZERO PUSH2 0xA68 JUMPI PUSH1 0x0 DUP1 REVERT JUMPDEST PUSH1 0x0 DUP5 ADD CALLDATALOAD PUSH8 0xFFFFFFFFFFFFFFFF DUP2 GT ISZERO PUSH2 0xA82 JUMPI PUSH1 0x0 DUP1 REVERT JUMPDEST PUSH2 0xA8E DUP7 DUP3 DUP8 ADD PUSH2 0x9EB JUMP JUMPDEST SWAP4 POP POP PUSH1 0x20 PUSH2 0xA9F DUP7 DUP3 DUP8 ADD PUSH2 0xA15 JUMP JUMPDEST SWAP3 POP POP PUSH1 0x40 PUSH2 0xAB0 DUP7 DUP3 DUP8 ADD PUSH2 0x9D6 JUMP JUMPDEST SWAP2 POP POP SWAP3 POP SWAP3 POP SWAP3 JUMP JUMPDEST PUSH1 0x0 PUSH1 0x20 DUP3 DUP5 SUB SLT ISZERO PUSH2 0xACC JUMPI PUSH1 0x0 DUP1 REVERT JUMPDEST PUSH1 0x0 PUSH2 0xADA DUP5 DUP3 DUP6 ADD PUSH2 0xA15 JUMP JUMPDEST SWAP2 POP POP SWAP3 SWAP2 POP POP JUMP JUMPDEST PUSH2 0xAEC DUP2 PUSH2 0xCF3 JUMP JUMPDEST DUP3 MSTORE POP POP JUMP JUMPDEST PUSH2 0xAFB DUP2 PUSH2 0xCE1 JUMP JUMPDEST DUP3 MSTORE POP POP JUMP JUMPDEST PUSH2 0xB0A DUP2 PUSH2 0xD05 JUMP JUMPDEST DUP3 MSTORE POP POP JUMP JUMPDEST PUSH1 0x0 PUSH2 0xB1B DUP3 PUSH2 0xC3E JUMP JUMPDEST PUSH2 0xB25 DUP2 DUP6 PUSH2 0xC49 JUMP JUMPDEST SWAP4 POP PUSH2 0xB35 DUP2 DUP6 PUSH1 0x20 DUP7 ADD PUSH2 0xD4A JUMP JUMPDEST PUSH2 0xB3E DUP2 PUSH2 0xF16 JUMP JUMPDEST DUP5 ADD SWAP2 POP POP SWAP3 SWAP2 POP POP JUMP JUMPDEST PUSH2 0xB52 DUP2 PUSH2 0xD31 JUMP JUMPDEST DUP3 MSTORE POP POP JUMP JUMPDEST PUSH1 0x0 PUSH1 0x20 DUP3 ADD SWAP1 POP PUSH2 0xB6D PUSH1 0x0 DUP4 ADD DUP5 PUSH2 0xAF2 JUMP JUMPDEST SWAP3 SWAP2 POP POP JUMP JUMPDEST PUSH1 0x0 PUSH1 0xA0 DUP3 ADD SWAP1 POP DUP2 DUP2 SUB PUSH1 0x0 DUP4 ADD MSTORE PUSH2 0xB8D DUP2 DUP9 PUSH2 0xB10 JUMP JUMPDEST SWAP1 POP PUSH2 0xB9C PUSH1 0x20 DUP4 ADD DUP8 PUSH2 0xB49 JUMP JUMPDEST PUSH2 0xBA9 PUSH1 0x40 DUP4 ADD DUP7 PUSH2 0xAE3 JUMP JUMPDEST PUSH2 0xBB6 PUSH1 0x60 DUP4 ADD DUP6 PUSH2 0xB01 JUMP JUMPDEST PUSH2 0xBC3 PUSH1 0x80 DUP4 ADD DUP5 PUSH2 0xB49 JUMP JUMPDEST SWAP7 SWAP6 POP POP POP POP POP POP JUMP JUMPDEST PUSH1 0x0 PUSH1 0x20 DUP3 ADD SWAP1 POP PUSH2 0xBE2 PUSH1 0x0 DUP4 ADD DUP5 PUSH2 0xB49 JUMP JUMPDEST SWAP3 SWAP2 POP POP JUMP JUMPDEST PUSH1 0x0 PUSH2 0xBF2 PUSH2 0xC03 JUMP JUMPDEST SWAP1 POP PUSH2 0xBFE DUP3 DUP3 PUSH2 0xDAF JUMP JUMPDEST SWAP2 SWAP1 POP JUMP JUMPDEST PUSH1 0x0 PUSH1 0x40 MLOAD SWAP1 POP SWAP1 JUMP JUMPDEST PUSH1 0x0 PUSH8 0xFFFFFFFFFFFFFFFF DUP3 GT ISZERO PUSH2 0xC28 JUMPI PUSH2 0xC27 PUSH2 0xEE7 JUMP JUMPDEST JUMPDEST PUSH2 0xC31 DUP3 PUSH2 0xF16 JUMP JUMPDEST SWAP1 POP PUSH1 0x20 DUP2 ADD SWAP1 POP SWAP2 SWAP1 POP JUMP JUMPDEST PUSH1 0x0 DUP2 MLOAD SWAP1 POP SWAP2 SWAP1 POP JUMP JUMPDEST PUSH1 0x0 DUP3 DUP3 MSTORE PUSH1 0x20 DUP3 ADD SWAP1 POP SWAP3 SWAP2 POP POP JUMP JUMPDEST PUSH1 0x0 PUSH2 0xC65 DUP3 PUSH2 0xD31 JUMP JUMPDEST SWAP2 POP PUSH2 0xC70 DUP4 PUSH2 0xD31 JUMP JUMPDEST SWAP3 POP DUP3 PUSH32 0xFFFFFFFFFFFFFFFFFFFFFFFFFFFFFFFFFFFFFFFFFFFFFFFFFFFFFFFFFFFFFFFF SUB DUP3 GT ISZERO PUSH2 0xCA5 JUMPI PUSH2 0xCA4 PUSH2 0xE5A JUMP JUMPDEST JUMPDEST DUP3 DUP3 ADD SWAP1 POP SWAP3 SWAP2 POP POP JUMP JUMPDEST PUSH1 0x0 PUSH2 0xCBB DUP3 PUSH2 0xD31 JUMP JUMPDEST SWAP2 POP PUSH2 0xCC6 DUP4 PUSH2 0xD31 JUMP JUMPDEST SWAP3 POP DUP3 PUSH2 0xCD6 JUMPI PUSH2 0xCD5 PUSH2 0xE89 JUMP JUMPDEST JUMPDEST DUP3 DUP3 DIV SWAP1 POP SWAP3 SWAP2 POP POP JUMP JUMPDEST PUSH1 0x0 PUSH2 0xCEC DUP3 PUSH2 0xD11 JUMP JUMPDEST SWAP1 POP SWAP2 SWAP1 POP JUMP JUMPDEST PUSH1 0x0 PUSH2 0xCFE DUP3 PUSH2 0xD11 JUMP JUMPDEST SWAP1 POP SWAP2 SWAP1 POP JUMP JUMPDEST PUSH1 0x0 DUP2 ISZERO ISZERO SWAP1 POP SWAP2 SWAP1 POP JUMP JUMPDEST PUSH1 0x0 PUSH20 0xFFFFFFFFFFFFFFFFFFFFFFFFFFFFFFFFFFFFFFFF DUP3 AND SWAP1 POP SWAP2 SWAP1 POP JUMP JUMPDEST PUSH1 0x0 DUP2 SWAP1 POP SWAP2 SWAP1 POP JUMP JUMPDEST DUP3 DUP2 DUP4 CALLDATACOPY PUSH1 0x0 DUP4 DUP4 ADD MSTORE POP POP POP JUMP JUMPDEST PUSH1 0x0 JUMPDEST DUP4 DUP2 LT ISZERO PUSH2 0xD68 JUMPI DUP1 DUP3 ADD MLOAD DUP2 DUP5 ADD MSTORE PUSH1 0x20 DUP2 ADD SWAP1 POP PUSH2 0xD4D JUMP JUMPDEST DUP4 DUP2 GT ISZERO PUSH2 0xD77 JUMPI PUSH1 0x0 DUP5 DUP5 ADD MSTORE JUMPDEST POP POP POP POP JUMP JUMPDEST PUSH1 0x0 PUSH1 0x2 DUP3 DIV SWAP1 POP PUSH1 0x1 DUP3 AND DUP1 PUSH2 0xD95 JUMPI PUSH1 0x7F DUP3 AND SWAP2 POP JUMPDEST PUSH1 0x20 DUP3 LT DUP2 EQ ISZERO PUSH2 0xDA9 JUMPI PUSH2 0xDA8 PUSH2 0xEB8 JUMP JUMPDEST JUMPDEST POP SWAP2 SWAP1 POP JUMP JUMPDEST PUSH2 0xDB8 DUP3 PUSH2 0xF16 JUMP JUMPDEST DUP2 ADD DUP2 DUP2 LT PUSH8 0xFFFFFFFFFFFFFFFF DUP3 GT OR ISZERO PUSH2 0xDD7 JUMPI PUSH2 0xDD6 PUSH2 0xEE7 JUMP JUMPDEST JUMPDEST DUP1 PUSH1 0x40 MSTORE POP POP POP JUMP JUMPDEST PUSH1 0x0 PUSH2 0xDEB DUP3 PUSH2 0xD31 JUMP JUMPDEST SWAP2 POP PUSH32 0xFFFFFFFFFFFFFFFFFFFFFFFFFFFFFFFFFFFFFFFFFFFFFFFFFFFFFFFFFFFFFFFF DUP3 EQ ISZERO PUSH2 0xE1E JUMPI PUSH2 0xE1D PUSH2 0xE5A JUMP JUMPDEST JUMPDEST PUSH1 0x1 DUP3 ADD SWAP1 POP SWAP2 SWAP1 POP JUMP JUMPDEST PUSH1 0x0 PUSH2 0xE34 DUP3 PUSH2 0xD31 JUMP JUMPDEST SWAP2 POP PUSH2 0xE3F DUP4 PUSH2 0xD31 JUMP JUMPDEST SWAP3 POP DUP3 PUSH2 0xE4F JUMPI PUSH2 0xE4E PUSH2 0xE89 JUMP JUMPDEST JUMPDEST DUP3 DUP3 MOD SWAP1 POP SWAP3 SWAP2 POP POP JUMP JUMPDEST PUSH32 0x4E487B7100000000000000000000000000000000000000000000000000000000 PUSH1 0x0 MSTORE PUSH1 0x11 PUSH1 0x4 MSTORE PUSH1 0x24 PUSH1 0x0 REVERT JUMPDEST PUSH32 0x4E487B7100000000000000000000000000000000000000000000000000000000 PUSH1 0x0 MSTORE PUSH1 0x12 PUSH1 0x4 MSTORE PUSH1 0x24 PUSH1 0x0 REVERT JUMPDEST PUSH32 0x4E487B7100000000000000000000000000000000000000000000000000000000 PUSH1 0x0 MSTORE PUSH1 0x22 PUSH1 0x4 MSTORE PUSH1 0x24 PUSH1 0x0 REVERT JUMPDEST PUSH32 0x4E487B7100000000000000000000000000000000000000000000000000000000 PUSH1 0x0 MSTORE PUSH1 0x41 PUSH1 0x4 MSTORE PUSH1 0x24 PUSH1 0x0 REVERT JUMPDEST PUSH1 0x0 PUSH1 0x1F NOT PUSH1 0x1F DUP4 ADD AND SWAP1 POP SWAP2 SWAP1 POP JUMP JUMPDEST PUSH2 0xF30 DUP2 PUSH2 0xCE1 JUMP JUMPDEST DUP2 EQ PUSH2 0xF3B JUMPI PUSH1 0x0 DUP1 REVERT JUMPDEST POP JUMP JUMPDEST PUSH2 0xF47 DUP2 PUSH2 0xCF3 JUMP JUMPDEST DUP2 EQ PUSH2 0xF52 JUMPI PUSH1 0x0 DUP1 REVERT JUMPDEST POP JUMP JUMPDEST PUSH2 0xF5E DUP2 PUSH2 0xD31 JUMP JUMPDEST DUP2 EQ PUSH2 0xF69 JUMPI PUSH1 0x0 DUP1 REVERT JUMPDEST POP JUMP INVALID LOG2 PUSH5 0x6970667358 0x22 SLT KECCAK256 NOT 0xB2 0xFB 0xCD 0xCC 0xA7 0x26 0x4E CODESIZE PUSH25 0x6CDD0E7E99665300C5F187AD1D00456C20C4EF564C4E64736F PUSH13 0x63430008030033000000000000 "},"gasEstimates":{"creation":{"codeDepositCost":"800400","executionCost":"infinite","totalCost":"infinite"},"external":{"approveRequest(uint256)":"infinite","approvers(address)":"1537","contribute()":"infinite","createRequest(string,uint256,address)":"infinite","credits()":"1174","finalizeRequest(uint256)":"infinite","manager()":"1281","numRequests()":"1195","numUniqueApprovers()":"1129","oneCreditValue()":"1218","requests(uint256)":"infinite"}},"methodIdentifiers":{"approveRequest(uint256)":"d7d1bbdb","approvers(address)":"0a144391","contribute()":"d7bb99ba","createRequest(string,uint256,address)":"8a9cfd55","credits()":"26540fd2","finalizeRequest(uint256)":"03441006","manager()":"481c6a75","numRequests()":"9fb42b1f","numUniqueApprovers()":"7554e42f","oneCreditValue()":"59af7a13","requests(uint256)":"81d12c58"}},"storageLayout":{"storage":[{"astId":56,"contract":"Idea.sol:Idea","label":"numRequests","offset":0,"slot":"0","type":"t_uint256"},{"astId":61,"contract":"Idea.sol:Idea","label":"requests","offset":0,"slot":"1","type":"t_mapping(t_uint256,t_struct(Request)54_storage)"},{"astId":63,"contract":"Idea.sol:Idea","label":"manager","offset":0,"slot":"2","type":"t_address"},{"astId":65,"contract":"Idea.sol:Idea","label":"numUniqueApprovers","offset":0,"slot":"3","type":"t_uint256"},{"astId":69,"contract":"Idea.sol:Idea","label":"approvers","offset":0,"slot":"4","type":"t_mapping(t_address,t_uint256)"},{"astId":71,"contract":"Idea.sol:Idea","label":"oneCreditValue","offset":0,"slot":"5","type":"t_uint256"},{"astId":73,"contract":"Idea.sol:Idea","label":"credits","offset":0,"slot":"6","type":"t_uint256"}],"types":{"t_address":{"encoding":"inplace","label":"address","numberOfBytes":"20"},"t_address_payable":{"encoding":"inplace","label":"address payable","numberOfBytes":"20"},"t_bool":{"encoding":"inplace","label":"bool","numberOfBytes":"1"},"t_mapping(t_address,t_bool)":{"encoding":"mapping","key":"t_address","label":"mapping(address => bool)","numberOfBytes":"32","value":"t_bool"},"t_mapping(t_address,t_uint256)":{"encoding":"mapping","key":"t_address","label":"mapping(address => uint256)","numberOfBytes":"32","value":"t_uint256"},"t_mapping(t_uint256,t_struct(Request)54_storage)":{"encoding":"mapping","key":"t_uint256","label":"mapping(uint256 => struct Idea.Request)","numberOfBytes":"32","value":"t_struct(Request)54_storage"},"t_string_storage":{"encoding":"bytes","label":"string","numberOfBytes":"32"},"t_struct(Request)54_storage":{"encoding":"inplace","label":"struct Idea.Request","members":[{"astId":41,"contract":"Idea.sol:Idea","label":"description","offset":0,"slot":"0","type":"t_string_storage"},{"astId":43,"contract":"Idea.sol:Idea","label":"value","offset":0,"slot":"1","type":"t_uint256"},{"astId":45,"contract":"Idea.sol:Idea","label":"recipient","offset":0,"slot":"2","type":"t_address_payable"},{"astId":47,"contract":"Idea.sol:Idea","label":"complete","offset":20,"slot":"2","type":"t_bool"},{"astId":49,"contract":"Idea.sol:Idea","label":"credits","offset":0,"slot":"3","type":"t_uint256"},{"astId":53,"contract":"Idea.sol:Idea","label":"approvals","offset":0,"slot":"4","type":"t_mapping(t_address,t_bool)"}],"numberOfBytes":"160"},"t_uint256":{"encoding":"inplace","label":"uint256","numberOfBytes":"32"}}},"userdoc":{"kind":"user","methods":{},"version":1}}